{
    "schemaVersion": "2.0.0",
    "contractName": "LibOrder",
    "compilerOutput": {
        "abi": [
            {
                "constant": true,
                "inputs": [],
                "name": "EIP712_DOMAIN_HASH",
                "outputs": [
                    {
                        "name": "",
                        "type": "bytes32"
                    }
                ],
                "payable": false,
                "stateMutability": "view",
                "type": "function"
            }
        ],
        "devdoc": {
            "methods": {}
        },
        "evm": {
            "bytecode": {
                "linkReferences": {},
                "object": "0x7f454950373132446f6d61696e280000000000000000000000000000000000000060a09081527f737472696e67206e616d652c000000000000000000000000000000000000000060ad527f737472696e672076657273696f6e2c000000000000000000000000000000000060b9527f6164647265737320766572696679696e67436f6e74726163740000000000000060c8527f290000000000000000000000000000000000000000000000000000000000000060e152604260808181529120600b60e2527f30782050726f746f636f6c000000000000000000000000000000000000000000610102526001610122527f3200000000000000000000000000000000000000000000000000000000000000610142526101829081527ff0f24618f4c4be1e62e026fb039a20ef96f4495294817d1027ffaa6d1f70e61e6101a2527fad7c5bef027816a800da1736444fb58a807ef4c9603b7848673f7e3a68eb14a56101c252306101e252610162829052610202604052206000556080806101866000396000f3fe6080604052348015600f57600080fd5b506004361060285760003560e01c8063e306f77914602d575b600080fd5b60336045565b60408051918252519081900360200190f35b6000548156fea265627a7a7230582034bfc50d69d01163ac1cecffe52c3db33d533785bba94fb87aeaae8dfe43857d64736f6c634300050a0032",
                "opcodes": "PUSH32 0x454950373132446F6D61696E2800000000000000000000000000000000000000 PUSH1 0xA0 SWAP1 DUP2 MSTORE PUSH32 0x737472696E67206E616D652C0000000000000000000000000000000000000000 PUSH1 0xAD MSTORE PUSH32 0x737472696E672076657273696F6E2C0000000000000000000000000000000000 PUSH1 0xB9 MSTORE PUSH32 0x6164647265737320766572696679696E67436F6E747261637400000000000000 PUSH1 0xC8 MSTORE PUSH32 0x2900000000000000000000000000000000000000000000000000000000000000 PUSH1 0xE1 MSTORE PUSH1 0x42 PUSH1 0x80 DUP2 DUP2 MSTORE SWAP2 KECCAK256 PUSH1 0xB PUSH1 0xE2 MSTORE PUSH32 0x30782050726F746F636F6C000000000000000000000000000000000000000000 PUSH2 0x102 MSTORE PUSH1 0x1 PUSH2 0x122 MSTORE PUSH32 0x3200000000000000000000000000000000000000000000000000000000000000 PUSH2 0x142 MSTORE PUSH2 0x182 SWAP1 DUP2 MSTORE PUSH32 0xF0F24618F4C4BE1E62E026FB039A20EF96F4495294817D1027FFAA6D1F70E61E PUSH2 0x1A2 MSTORE PUSH32 0xAD7C5BEF027816A800DA1736444FB58A807EF4C9603B7848673F7E3A68EB14A5 PUSH2 0x1C2 MSTORE ADDRESS PUSH2 0x1E2 MSTORE PUSH2 0x162 DUP3 SWAP1 MSTORE PUSH2 0x202 PUSH1 0x40 MSTORE KECCAK256 PUSH1 0x0 SSTORE PUSH1 0x80 DUP1 PUSH2 0x186 PUSH1 0x0 CODECOPY PUSH1 0x0 RETURN INVALID PUSH1 0x80 PUSH1 0x40 MSTORE CALLVALUE DUP1 ISZERO PUSH1 0xF JUMPI PUSH1 0x0 DUP1 REVERT JUMPDEST POP PUSH1 0x4 CALLDATASIZE LT PUSH1 0x28 JUMPI PUSH1 0x0 CALLDATALOAD PUSH1 0xE0 SHR DUP1 PUSH4 0xE306F779 EQ PUSH1 0x2D JUMPI JUMPDEST PUSH1 0x0 DUP1 REVERT JUMPDEST PUSH1 0x33 PUSH1 0x45 JUMP JUMPDEST PUSH1 0x40 DUP1 MLOAD SWAP2 DUP3 MSTORE MLOAD SWAP1 DUP2 SWAP1 SUB PUSH1 0x20 ADD SWAP1 RETURN JUMPDEST PUSH1 0x0 SLOAD DUP2 JUMP INVALID LOG2 PUSH6 0x627A7A723058 KECCAK256 CALLVALUE 0xbf 0xc5 0xd PUSH10 0xD01163AC1CECFFE52C3D 0xb3 RETURNDATASIZE MSTORE8 CALLDATACOPY DUP6 0xbb 0xa9 0x4f 0xb8 PUSH27 0xEAAE8DFE43857D64736F6C634300050A0032000000000000000000 "
            }
        }
    },
    "sourceTreeHashHex": "0xf52fd5e70efef22ef9ab39fbdf7af3133a026f9791529aebd873f0671920cdcf",
    "compiler": {
        "name": "solc",
        "version": "soljson-v0.5.10+commit.5a6ea5b1.js",
        "settings": {
            "optimizer": {
                "enabled": true,
                "runs": 1000000,
                "details": {
                    "yul": true,
                    "deduplicate": true,
                    "cse": true,
                    "constantOptimizer": true
                }
            },
            "outputSelection": {
                "*": {
                    "*": [
                        "abi",
                        "devdoc",
                        "evm.bytecode.object",
                        "evm.bytecode.sourceMap",
                        "evm.deployedBytecode.object",
                        "evm.deployedBytecode.sourceMap"
                    ]
                }
            },
            "evmVersion": "constantinople",
            "remappings": [
                "@0x/contracts-utils=/Users/fabioberger/Documents/projects/0x_project/0x-monorepo-one/contracts/exchange-libs/node_modules/@0x/contracts-utils"
            ]
        }
    }
}