{
    "schemaVersion": "2.0.0",
    "contractName": "TestLibs",
    "compilerOutput": {
        "abi": [
            {
                "constant": true,
                "inputs": [
                    {
                        "name": "numerator",
                        "type": "uint256"
                    },
                    {
                        "name": "denominator",
                        "type": "uint256"
                    },
                    {
                        "name": "target",
                        "type": "uint256"
                    }
                ],
                "name": "publicIsRoundingErrorFloor",
                "outputs": [
                    {
                        "name": "isError",
                        "type": "bool"
                    }
                ],
                "payable": false,
                "stateMutability": "pure",
                "type": "function"
            },
            {
                "constant": true,
                "inputs": [
                    {
                        "name": "numerator",
                        "type": "uint256"
                    },
                    {
                        "name": "denominator",
                        "type": "uint256"
                    },
                    {
                        "name": "target",
                        "type": "uint256"
                    }
                ],
                "name": "publicGetPartialAmountCeil",
                "outputs": [
                    {
                        "name": "partialAmount",
                        "type": "uint256"
                    }
                ],
                "payable": false,
                "stateMutability": "pure",
                "type": "function"
            },
            {
                "constant": true,
                "inputs": [],
                "name": "getDomainSeparatorSchemaHash",
                "outputs": [
                    {
                        "name": "",
                        "type": "bytes32"
                    }
                ],
                "payable": false,
                "stateMutability": "pure",
                "type": "function"
            },
            {
                "constant": true,
                "inputs": [
                    {
                        "components": [
                            {
                                "name": "makerAssetFilledAmount",
                                "type": "uint256"
                            },
                            {
                                "name": "takerAssetFilledAmount",
                                "type": "uint256"
                            },
                            {
                                "name": "makerFeePaid",
                                "type": "uint256"
                            },
                            {
                                "name": "takerFeePaid",
                                "type": "uint256"
                            }
                        ],
                        "name": "totalFillResults",
                        "type": "tuple"
                    },
                    {
                        "components": [
                            {
                                "name": "makerAssetFilledAmount",
                                "type": "uint256"
                            },
                            {
                                "name": "takerAssetFilledAmount",
                                "type": "uint256"
                            },
                            {
                                "name": "makerFeePaid",
                                "type": "uint256"
                            },
                            {
                                "name": "takerFeePaid",
                                "type": "uint256"
                            }
                        ],
                        "name": "singleFillResults",
                        "type": "tuple"
                    }
                ],
                "name": "publicAddFillResults",
                "outputs": [
                    {
                        "components": [
                            {
                                "name": "makerAssetFilledAmount",
                                "type": "uint256"
                            },
                            {
                                "name": "takerAssetFilledAmount",
                                "type": "uint256"
                            },
                            {
                                "name": "makerFeePaid",
                                "type": "uint256"
                            },
                            {
                                "name": "takerFeePaid",
                                "type": "uint256"
                            }
                        ],
                        "name": "",
                        "type": "tuple"
                    }
                ],
                "payable": false,
                "stateMutability": "pure",
                "type": "function"
            },
            {
                "constant": true,
                "inputs": [
                    {
                        "name": "numerator",
                        "type": "uint256"
                    },
                    {
                        "name": "denominator",
                        "type": "uint256"
                    },
                    {
                        "name": "target",
                        "type": "uint256"
                    }
                ],
                "name": "publicIsRoundingErrorCeil",
                "outputs": [
                    {
                        "name": "isError",
                        "type": "bool"
                    }
                ],
                "payable": false,
                "stateMutability": "pure",
                "type": "function"
            },
            {
                "constant": true,
                "inputs": [],
                "name": "getOrderSchemaHash",
                "outputs": [
                    {
                        "name": "",
                        "type": "bytes32"
                    }
                ],
                "payable": false,
                "stateMutability": "pure",
                "type": "function"
            },
            {
                "constant": true,
                "inputs": [
                    {
                        "name": "numerator",
                        "type": "uint256"
                    },
                    {
                        "name": "denominator",
                        "type": "uint256"
                    },
                    {
                        "name": "target",
                        "type": "uint256"
                    }
                ],
                "name": "publicGetPartialAmountFloor",
                "outputs": [
                    {
                        "name": "partialAmount",
                        "type": "uint256"
                    }
                ],
                "payable": false,
                "stateMutability": "pure",
                "type": "function"
            },
            {
                "constant": true,
                "inputs": [
                    {
                        "components": [
                            {
                                "name": "makerAddress",
                                "type": "address"
                            },
                            {
                                "name": "takerAddress",
                                "type": "address"
                            },
                            {
                                "name": "feeRecipientAddress",
                                "type": "address"
                            },
                            {
                                "name": "senderAddress",
                                "type": "address"
                            },
                            {
                                "name": "makerAssetAmount",
                                "type": "uint256"
                            },
                            {
                                "name": "takerAssetAmount",
                                "type": "uint256"
                            },
                            {
                                "name": "makerFee",
                                "type": "uint256"
                            },
                            {
                                "name": "takerFee",
                                "type": "uint256"
                            },
                            {
                                "name": "expirationTimeSeconds",
                                "type": "uint256"
                            },
                            {
                                "name": "salt",
                                "type": "uint256"
                            },
                            {
                                "name": "makerAssetData",
                                "type": "bytes"
                            },
                            {
                                "name": "takerAssetData",
                                "type": "bytes"
                            }
                        ],
                        "name": "order",
                        "type": "tuple"
                    }
                ],
                "name": "publicGetOrderHash",
                "outputs": [
                    {
                        "name": "orderHash",
                        "type": "bytes32"
                    }
                ],
                "payable": false,
                "stateMutability": "view",
                "type": "function"
            },
            {
                "constant": true,
                "inputs": [],
                "name": "EIP712_DOMAIN_HASH",
                "outputs": [
                    {
                        "name": "",
                        "type": "bytes32"
                    }
                ],
                "payable": false,
                "stateMutability": "view",
                "type": "function"
            },
            {
                "constant": true,
                "inputs": [
                    {
                        "components": [
                            {
                                "name": "makerAddress",
                                "type": "address"
                            },
                            {
                                "name": "takerAddress",
                                "type": "address"
                            },
                            {
                                "name": "feeRecipientAddress",
                                "type": "address"
                            },
                            {
                                "name": "senderAddress",
                                "type": "address"
                            },
                            {
                                "name": "makerAssetAmount",
                                "type": "uint256"
                            },
                            {
                                "name": "takerAssetAmount",
                                "type": "uint256"
                            },
                            {
                                "name": "makerFee",
                                "type": "uint256"
                            },
                            {
                                "name": "takerFee",
                                "type": "uint256"
                            },
                            {
                                "name": "expirationTimeSeconds",
                                "type": "uint256"
                            },
                            {
                                "name": "salt",
                                "type": "uint256"
                            },
                            {
                                "name": "makerAssetData",
                                "type": "bytes"
                            },
                            {
                                "name": "takerAssetData",
                                "type": "bytes"
                            }
                        ],
                        "name": "order",
                        "type": "tuple"
                    },
                    {
                        "name": "takerAssetFillAmount",
                        "type": "uint256"
                    },
                    {
                        "name": "signature",
                        "type": "bytes"
                    }
                ],
                "name": "publicAbiEncodeFillOrder",
                "outputs": [
                    {
                        "name": "fillOrderCalldata",
                        "type": "bytes"
                    }
                ],
                "payable": false,
                "stateMutability": "pure",
                "type": "function"
            }
        ],
        "evm": {
            "bytecode": {
                "linkReferences": {},
                "object": "0x608060405261000e60a0610115565b60408051601f1981840301815282825280516020918201208383018352600b84527f30782050726f746f636f6c0000000000000000000000000000000000000000009382019390935281518083018352600181527f32000000000000000000000000000000000000000000000000000000000000009082015290516100da92917ff0f24618f4c4be1e62e026fb039a20ef96f4495294817d1027ffaa6d1f70e61e917fad7c5bef027816a800da1736444fb58a807ef4c9603b7848673f7e3a68eb14a5913091016100fa565b60408051601f1981840301815291905280516020909101206000556101d6565b93845260208401929092526040830152606082015260800190565b7f454950373132446f6d61696e280000000000000000000000000000000000000081527f737472696e67206e616d652c0000000000000000000000000000000000000000600d8201527f737472696e672076657273696f6e2c000000000000000000000000000000000060198201527f6164647265737320766572696679696e67436f6e74726163740000000000000060288201527f2900000000000000000000000000000000000000000000000000000000000000604182015260420190565b61102a806101e56000396000f3fe608060405234801561001057600080fd5b50600436106100be5760003560e01c80637d33c6ee11610076578063d98020881161005b578063d980208814610162578063e306f77914610175578063e9c7aa1a1461017d576100be565b80637d33c6ee14610147578063be7ada1e1461014f576100be565b8063494d9297116100a7578063494d92971461010c57806366758d7b14610114578063679d2f9a14610134576100be565b80631be23901146100c357806320777f70146100ec575b600080fd5b6100d66100d1366004610b23565b61019d565b6040516100e39190610e64565b60405180910390f35b6100ff6100fa366004610b23565b6101b4565b6040516100e39190610e6f565b6100ff6101c1565b610127610122366004610a46565b6101ed565b6040516100e39190610f6e565b6100d6610142366004610b23565b610208565b6100ff610215565b6100ff61015d366004610b23565b610226565b6100ff610170366004610a7c565b610233565b6100ff61023e565b61019061018b366004610ab9565b610244565b6040516100e39190610e78565b60006101aa848484610251565b90505b9392505050565b60006101aa8484846102dd565b60006040516020016101d290610da3565b60405160208183030381529060405280519060200120905090565b6101f561082f565b6101ff838361033e565b50815b92915050565b60006101aa8484846103a0565b60006040516020016101d290610be6565b60006101aa848484610421565b600061020282610469565b60005481565b60606101aa84848461047c565b6000808311610295576040517f08c379a000000000000000000000000000000000000000000000000000000000815260040161028c90610f00565b60405180910390fd5b8115806102a0575083155b156102ad575060006101ad565b600083806102b757fe5b85840990506102c68584610651565b6102d26103e883610651565b101595945050505050565b6000808311610318576040517f08c379a000000000000000000000000000000000000000000000000000000000815260040161028c90610f00565b6101aa6103386103288685610651565b6103338660016106a5565b6106e7565b84610726565b8151815161034c91906106e7565b82526020808301519082015161036291906106e7565b60208301526040808301519082015161037b91906106e7565b60408301526060808301519082015161039491906106e7565b60609092019190915250565b60008083116103db576040517f08c379a000000000000000000000000000000000000000000000000000000000815260040161028c90610f00565b8115806103e6575083155b156103f3575060006101ad565b600083806103fd57fe5b85840990508361040d85836106a5565b8161041457fe5b0690506102c68584610651565b600080831161045c576040517f08c379a000000000000000000000000000000000000000000000000000000000815260040161028c90610f00565b6101aa6103388584610651565b60006102026104778361073b565b6107ef565b604080517fb4be83d5000000000000000000000000000000000000000000000000000000006020808301919091526060602483018181528751608485019081528884015160a48601529488015160c48501529087015160e4840152608087015161010484015260a087015161012484015260c087015161014484015260e08701516101648401526101008701516101848401526101208701516101a4840152610140870180516101c485019081526101608901516101e486015261018090525180516102048501819052939461022486019492936044870193919281019190601f82010460005b81811015610581578351885260209788019790930192600101610563565b5050505080840361016091820152870151805180855260209485019460009281019190601f8201045b808410156105cd57825187526020870196506020830192506001840193506105aa565b505050868252918303602091820190815285518085529382019360009391928781019190601f8201045b8086101561061a57825187526020870196506020830192506001860195506105f7565b5050507fffffffffffffffffffffffffffffffffffffffffffffffffffffffffffffffe08585030185525050506040529392505050565b60008261066057506000610202565b8282028284828161066d57fe5b04146101ad576040517f08c379a000000000000000000000000000000000000000000000000000000000815260040161028c90610f37565b6000828211156106e1576040517f08c379a000000000000000000000000000000000000000000000000000000000815260040161028c90610ec9565b50900390565b6000828201838110156101ad576040517f08c379a000000000000000000000000000000000000000000000000000000000815260040161028c90610f37565b60008082848161073257fe5b04949350505050565b60008060405160200161074d90610be6565b604051602081830303815290604052805190602001209050600083610140015160405161077a9190610bca565b6040518091039020905060008461016001516040516107999190610bca565b6040519081900390207fffffffffffffffffffffffffffffffffffffffffffffffffffffffffffffffe0860180516101408801805161016090990180519784529581529285526101a08220915295905250525090565b6000546040517f19010000000000000000000000000000000000000000000000000000000000008152600281019190915260228101919091526042902090565b6040518060800160405280600081526020016000815260200160008152602001600081525090565b803573ffffffffffffffffffffffffffffffffffffffff8116811461020257600080fd5b600082601f83011261088b578081fd5b813567ffffffffffffffff8111156108a1578182fd5b6108d260207fffffffffffffffffffffffffffffffffffffffffffffffffffffffffffffffe0601f84011601610f99565b91508082528360208285010111156108e957600080fd5b8060208401602084013760009082016020015292915050565b600060808284031215610913578081fd5b61091d6080610f99565b90508135815260208201356020820152604082013560408201526060820135606082015292915050565b600061018080838503121561095a578182fd5b61096381610f99565b9150506109708383610857565b815261097f8360208401610857565b60208201526109918360408401610857565b60408201526109a38360608401610857565b60608201526080820135608082015260a082013560a082015260c082013560c082015260e082013560e08201526101008083013581830152506101208083013581830152506101408083013567ffffffffffffffff80821115610a0557600080fd5b610a118683870161087b565b83850152610160925082850135915080821115610a2d57600080fd5b50610a3a8582860161087b565b82840152505092915050565b6000806101008385031215610a5a57600080fd5b610a648484610902565b9150610a738460808501610902565b90509250929050565b600060208284031215610a8e57600080fd5b813567ffffffffffffffff811115610aa557600080fd5b610ab184828501610947565b949350505050565b600080600060608486031215610acd578081fd5b833567ffffffffffffffff80821115610ae4578283fd5b610af087838801610947565b9450602086013593506040860135915080821115610b0c578283fd5b50610b198682870161087b565b9150509250925092565b600080600060608486031215610b3857600080fd5b505081359360208301359350604090920135919050565b7f6279746573206d616b65724173736574446174612c0000000000000000000000815260150190565b7f62797465732074616b6572417373657444617461000000000000000000000000815260140190565b7f2900000000000000000000000000000000000000000000000000000000000000815260010190565b60008251610bdc818460208701610fc0565b9190910192915050565b60007f4f7264657228000000000000000000000000000000000000000000000000000082527f61646472657373206d616b6572416464726573732c000000000000000000000060068301527f616464726573732074616b6572416464726573732c0000000000000000000000601b8301527f6164647265737320666565526563697069656e74416464726573732c0000000060308301527f616464726573732073656e646572416464726573732c00000000000000000000604c8301527f75696e74323536206d616b65724173736574416d6f756e742c0000000000000060628301527f75696e743235362074616b65724173736574416d6f756e742c00000000000000607b8301527f75696e74323536206d616b65724665652c00000000000000000000000000000060948301527f75696e743235362074616b65724665652c00000000000000000000000000000060a58301527f75696e743235362065787069726174696f6e54696d655365636f6e64732c000060b68301527f75696e743235362073616c742c0000000000000000000000000000000000000060d4830152610202610d9e610d9960e18501610b4f565b610b78565b610ba1565b7f454950373132446f6d61696e280000000000000000000000000000000000000081527f737472696e67206e616d652c0000000000000000000000000000000000000000600d8201527f737472696e672076657273696f6e2c000000000000000000000000000000000060198201527f6164647265737320766572696679696e67436f6e74726163740000000000000060288201527f2900000000000000000000000000000000000000000000000000000000000000604182015260420190565b901515815260200190565b90815260200190565b6000602082528251806020840152610e97816040850160208701610fc0565b601f017fffffffffffffffffffffffffffffffffffffffffffffffffffffffffffffffe0169190910160400192915050565b60208082526011908201527f55494e543235365f554e444552464c4f57000000000000000000000000000000604082015260600190565b60208082526010908201527f4449564953494f4e5f42595f5a45524f00000000000000000000000000000000604082015260600190565b60208082526010908201527f55494e543235365f4f564552464c4f5700000000000000000000000000000000604082015260600190565b8151815260208083015190820152604080830151908201526060918201519181019190915260800190565b60405181810167ffffffffffffffff81118282101715610fb857600080fd5b604052919050565b60005b83811015610fdb578181015183820152602001610fc3565b83811115610fea576000848401525b5050505056fea265627a7a723058206bebc60d35cc6377a7a54fc1c580000e1c54dca222c4c3f3e17ed7a1720a204c6c6578706572696d656e74616cf50037",
                "opcodes": "PUSH1 0x80 PUSH1 0x40 MSTORE PUSH2 0xE PUSH1 0xA0 PUSH2 0x115 JUMP JUMPDEST PUSH1 0x40 DUP1 MLOAD PUSH1 0x1F NOT DUP2 DUP5 SUB ADD DUP2 MSTORE DUP3 DUP3 MSTORE DUP1 MLOAD PUSH1 0x20 SWAP2 DUP3 ADD KECCAK256 DUP4 DUP4 ADD DUP4 MSTORE PUSH1 0xB DUP5 MSTORE PUSH32 0x30782050726F746F636F6C000000000000000000000000000000000000000000 SWAP4 DUP3 ADD SWAP4 SWAP1 SWAP4 MSTORE DUP2 MLOAD DUP1 DUP4 ADD DUP4 MSTORE PUSH1 0x1 DUP2 MSTORE PUSH32 0x3200000000000000000000000000000000000000000000000000000000000000 SWAP1 DUP3 ADD MSTORE SWAP1 MLOAD PUSH2 0xDA SWAP3 SWAP2 PUSH32 0xF0F24618F4C4BE1E62E026FB039A20EF96F4495294817D1027FFAA6D1F70E61E SWAP2 PUSH32 0xAD7C5BEF027816A800DA1736444FB58A807EF4C9603B7848673F7E3A68EB14A5 SWAP2 ADDRESS SWAP2 ADD PUSH2 0xFA JUMP JUMPDEST PUSH1 0x40 DUP1 MLOAD PUSH1 0x1F NOT DUP2 DUP5 SUB ADD DUP2 MSTORE SWAP2 SWAP1 MSTORE DUP1 MLOAD PUSH1 0x20 SWAP1 SWAP2 ADD KECCAK256 PUSH1 0x0 SSTORE PUSH2 0x1D6 JUMP JUMPDEST SWAP4 DUP5 MSTORE PUSH1 0x20 DUP5 ADD SWAP3 SWAP1 SWAP3 MSTORE PUSH1 0x40 DUP4 ADD MSTORE PUSH1 0x60 DUP3 ADD MSTORE PUSH1 0x80 ADD SWAP1 JUMP JUMPDEST PUSH32 0x454950373132446F6D61696E2800000000000000000000000000000000000000 DUP2 MSTORE PUSH32 0x737472696E67206E616D652C0000000000000000000000000000000000000000 PUSH1 0xD DUP3 ADD MSTORE PUSH32 0x737472696E672076657273696F6E2C0000000000000000000000000000000000 PUSH1 0x19 DUP3 ADD MSTORE PUSH32 0x6164647265737320766572696679696E67436F6E747261637400000000000000 PUSH1 0x28 DUP3 ADD MSTORE PUSH32 0x2900000000000000000000000000000000000000000000000000000000000000 PUSH1 0x41 DUP3 ADD MSTORE PUSH1 0x42 ADD SWAP1 JUMP JUMPDEST PUSH2 0x102A DUP1 PUSH2 0x1E5 PUSH1 0x0 CODECOPY PUSH1 0x0 RETURN INVALID PUSH1 0x80 PUSH1 0x40 MSTORE CALLVALUE DUP1 ISZERO PUSH2 0x10 JUMPI PUSH1 0x0 DUP1 REVERT JUMPDEST POP PUSH1 0x4 CALLDATASIZE LT PUSH2 0xBE JUMPI PUSH1 0x0 CALLDATALOAD PUSH1 0xE0 SHR DUP1 PUSH4 0x7D33C6EE GT PUSH2 0x76 JUMPI DUP1 PUSH4 0xD9802088 GT PUSH2 0x5B JUMPI DUP1 PUSH4 0xD9802088 EQ PUSH2 0x162 JUMPI DUP1 PUSH4 0xE306F779 EQ PUSH2 0x175 JUMPI DUP1 PUSH4 0xE9C7AA1A EQ PUSH2 0x17D JUMPI PUSH2 0xBE JUMP JUMPDEST DUP1 PUSH4 0x7D33C6EE EQ PUSH2 0x147 JUMPI DUP1 PUSH4 0xBE7ADA1E EQ PUSH2 0x14F JUMPI PUSH2 0xBE JUMP JUMPDEST DUP1 PUSH4 0x494D9297 GT PUSH2 0xA7 JUMPI DUP1 PUSH4 0x494D9297 EQ PUSH2 0x10C JUMPI DUP1 PUSH4 0x66758D7B EQ PUSH2 0x114 JUMPI DUP1 PUSH4 0x679D2F9A EQ PUSH2 0x134 JUMPI PUSH2 0xBE JUMP JUMPDEST DUP1 PUSH4 0x1BE23901 EQ PUSH2 0xC3 JUMPI DUP1 PUSH4 0x20777F70 EQ PUSH2 0xEC JUMPI JUMPDEST PUSH1 0x0 DUP1 REVERT JUMPDEST PUSH2 0xD6 PUSH2 0xD1 CALLDATASIZE PUSH1 0x4 PUSH2 0xB23 JUMP JUMPDEST PUSH2 0x19D JUMP JUMPDEST PUSH1 0x40 MLOAD PUSH2 0xE3 SWAP2 SWAP1 PUSH2 0xE64 JUMP JUMPDEST PUSH1 0x40 MLOAD DUP1 SWAP2 SUB SWAP1 RETURN JUMPDEST PUSH2 0xFF PUSH2 0xFA CALLDATASIZE PUSH1 0x4 PUSH2 0xB23 JUMP JUMPDEST PUSH2 0x1B4 JUMP JUMPDEST PUSH1 0x40 MLOAD PUSH2 0xE3 SWAP2 SWAP1 PUSH2 0xE6F JUMP JUMPDEST PUSH2 0xFF PUSH2 0x1C1 JUMP JUMPDEST PUSH2 0x127 PUSH2 0x122 CALLDATASIZE PUSH1 0x4 PUSH2 0xA46 JUMP JUMPDEST PUSH2 0x1ED JUMP JUMPDEST PUSH1 0x40 MLOAD PUSH2 0xE3 SWAP2 SWAP1 PUSH2 0xF6E JUMP JUMPDEST PUSH2 0xD6 PUSH2 0x142 CALLDATASIZE PUSH1 0x4 PUSH2 0xB23 JUMP JUMPDEST PUSH2 0x208 JUMP JUMPDEST PUSH2 0xFF PUSH2 0x215 JUMP JUMPDEST PUSH2 0xFF PUSH2 0x15D CALLDATASIZE PUSH1 0x4 PUSH2 0xB23 JUMP JUMPDEST PUSH2 0x226 JUMP JUMPDEST PUSH2 0xFF PUSH2 0x170 CALLDATASIZE PUSH1 0x4 PUSH2 0xA7C JUMP JUMPDEST PUSH2 0x233 JUMP JUMPDEST PUSH2 0xFF PUSH2 0x23E JUMP JUMPDEST PUSH2 0x190 PUSH2 0x18B CALLDATASIZE PUSH1 0x4 PUSH2 0xAB9 JUMP JUMPDEST PUSH2 0x244 JUMP JUMPDEST PUSH1 0x40 MLOAD PUSH2 0xE3 SWAP2 SWAP1 PUSH2 0xE78 JUMP JUMPDEST PUSH1 0x0 PUSH2 0x1AA DUP5 DUP5 DUP5 PUSH2 0x251 JUMP JUMPDEST SWAP1 POP JUMPDEST SWAP4 SWAP3 POP POP POP JUMP JUMPDEST PUSH1 0x0 PUSH2 0x1AA DUP5 DUP5 DUP5 PUSH2 0x2DD JUMP JUMPDEST PUSH1 0x0 PUSH1 0x40 MLOAD PUSH1 0x20 ADD PUSH2 0x1D2 SWAP1 PUSH2 0xDA3 JUMP JUMPDEST PUSH1 0x40 MLOAD PUSH1 0x20 DUP2 DUP4 SUB SUB DUP2 MSTORE SWAP1 PUSH1 0x40 MSTORE DUP1 MLOAD SWAP1 PUSH1 0x20 ADD KECCAK256 SWAP1 POP SWAP1 JUMP JUMPDEST PUSH2 0x1F5 PUSH2 0x82F JUMP JUMPDEST PUSH2 0x1FF DUP4 DUP4 PUSH2 0x33E JUMP JUMPDEST POP DUP2 JUMPDEST SWAP3 SWAP2 POP POP JUMP JUMPDEST PUSH1 0x0 PUSH2 0x1AA DUP5 DUP5 DUP5 PUSH2 0x3A0 JUMP JUMPDEST PUSH1 0x0 PUSH1 0x40 MLOAD PUSH1 0x20 ADD PUSH2 0x1D2 SWAP1 PUSH2 0xBE6 JUMP JUMPDEST PUSH1 0x0 PUSH2 0x1AA DUP5 DUP5 DUP5 PUSH2 0x421 JUMP JUMPDEST PUSH1 0x0 PUSH2 0x202 DUP3 PUSH2 0x469 JUMP JUMPDEST PUSH1 0x0 SLOAD DUP2 JUMP JUMPDEST PUSH1 0x60 PUSH2 0x1AA DUP5 DUP5 DUP5 PUSH2 0x47C JUMP JUMPDEST PUSH1 0x0 DUP1 DUP4 GT PUSH2 0x295 JUMPI PUSH1 0x40 MLOAD PUSH32 0x8C379A000000000000000000000000000000000000000000000000000000000 DUP2 MSTORE PUSH1 0x4 ADD PUSH2 0x28C SWAP1 PUSH2 0xF00 JUMP JUMPDEST PUSH1 0x40 MLOAD DUP1 SWAP2 SUB SWAP1 REVERT JUMPDEST DUP2 ISZERO DUP1 PUSH2 0x2A0 JUMPI POP DUP4 ISZERO JUMPDEST ISZERO PUSH2 0x2AD JUMPI POP PUSH1 0x0 PUSH2 0x1AD JUMP JUMPDEST PUSH1 0x0 DUP4 DUP1 PUSH2 0x2B7 JUMPI INVALID JUMPDEST DUP6 DUP5 MULMOD SWAP1 POP PUSH2 0x2C6 DUP6 DUP5 PUSH2 0x651 JUMP JUMPDEST PUSH2 0x2D2 PUSH2 0x3E8 DUP4 PUSH2 0x651 JUMP JUMPDEST LT ISZERO SWAP6 SWAP5 POP POP POP POP POP JUMP JUMPDEST PUSH1 0x0 DUP1 DUP4 GT PUSH2 0x318 JUMPI PUSH1 0x40 MLOAD PUSH32 0x8C379A000000000000000000000000000000000000000000000000000000000 DUP2 MSTORE PUSH1 0x4 ADD PUSH2 0x28C SWAP1 PUSH2 0xF00 JUMP JUMPDEST PUSH2 0x1AA PUSH2 0x338 PUSH2 0x328 DUP7 DUP6 PUSH2 0x651 JUMP JUMPDEST PUSH2 0x333 DUP7 PUSH1 0x1 PUSH2 0x6A5 JUMP JUMPDEST PUSH2 0x6E7 JUMP JUMPDEST DUP5 PUSH2 0x726 JUMP JUMPDEST DUP2 MLOAD DUP2 MLOAD PUSH2 0x34C SWAP2 SWAP1 PUSH2 0x6E7 JUMP JUMPDEST DUP3 MSTORE PUSH1 0x20 DUP1 DUP4 ADD MLOAD SWAP1 DUP3 ADD MLOAD PUSH2 0x362 SWAP2 SWAP1 PUSH2 0x6E7 JUMP JUMPDEST PUSH1 0x20 DUP4 ADD MSTORE PUSH1 0x40 DUP1 DUP4 ADD MLOAD SWAP1 DUP3 ADD MLOAD PUSH2 0x37B SWAP2 SWAP1 PUSH2 0x6E7 JUMP JUMPDEST PUSH1 0x40 DUP4 ADD MSTORE PUSH1 0x60 DUP1 DUP4 ADD MLOAD SWAP1 DUP3 ADD MLOAD PUSH2 0x394 SWAP2 SWAP1 PUSH2 0x6E7 JUMP JUMPDEST PUSH1 0x60 SWAP1 SWAP3 ADD SWAP2 SWAP1 SWAP2 MSTORE POP JUMP JUMPDEST PUSH1 0x0 DUP1 DUP4 GT PUSH2 0x3DB JUMPI PUSH1 0x40 MLOAD PUSH32 0x8C379A000000000000000000000000000000000000000000000000000000000 DUP2 MSTORE PUSH1 0x4 ADD PUSH2 0x28C SWAP1 PUSH2 0xF00 JUMP JUMPDEST DUP2 ISZERO DUP1 PUSH2 0x3E6 JUMPI POP DUP4 ISZERO JUMPDEST ISZERO PUSH2 0x3F3 JUMPI POP PUSH1 0x0 PUSH2 0x1AD JUMP JUMPDEST PUSH1 0x0 DUP4 DUP1 PUSH2 0x3FD JUMPI INVALID JUMPDEST DUP6 DUP5 MULMOD SWAP1 POP DUP4 PUSH2 0x40D DUP6 DUP4 PUSH2 0x6A5 JUMP JUMPDEST DUP2 PUSH2 0x414 JUMPI INVALID JUMPDEST MOD SWAP1 POP PUSH2 0x2C6 DUP6 DUP5 PUSH2 0x651 JUMP JUMPDEST PUSH1 0x0 DUP1 DUP4 GT PUSH2 0x45C JUMPI PUSH1 0x40 MLOAD PUSH32 0x8C379A000000000000000000000000000000000000000000000000000000000 DUP2 MSTORE PUSH1 0x4 ADD PUSH2 0x28C SWAP1 PUSH2 0xF00 JUMP JUMPDEST PUSH2 0x1AA PUSH2 0x338 DUP6 DUP5 PUSH2 0x651 JUMP JUMPDEST PUSH1 0x0 PUSH2 0x202 PUSH2 0x477 DUP4 PUSH2 0x73B JUMP JUMPDEST PUSH2 0x7EF JUMP JUMPDEST PUSH1 0x40 DUP1 MLOAD PUSH32 0xB4BE83D500000000000000000000000000000000000000000000000000000000 PUSH1 0x20 DUP1 DUP4 ADD SWAP2 SWAP1 SWAP2 MSTORE PUSH1 0x60 PUSH1 0x24 DUP4 ADD DUP2 DUP2 MSTORE DUP8 MLOAD PUSH1 0x84 DUP6 ADD SWAP1 DUP2 MSTORE DUP9 DUP5 ADD MLOAD PUSH1 0xA4 DUP7 ADD MSTORE SWAP5 DUP9 ADD MLOAD PUSH1 0xC4 DUP6 ADD MSTORE SWAP1 DUP8 ADD MLOAD PUSH1 0xE4 DUP5 ADD MSTORE PUSH1 0x80 DUP8 ADD MLOAD PUSH2 0x104 DUP5 ADD MSTORE PUSH1 0xA0 DUP8 ADD MLOAD PUSH2 0x124 DUP5 ADD MSTORE PUSH1 0xC0 DUP8 ADD MLOAD PUSH2 0x144 DUP5 ADD MSTORE PUSH1 0xE0 DUP8 ADD MLOAD PUSH2 0x164 DUP5 ADD MSTORE PUSH2 0x100 DUP8 ADD MLOAD PUSH2 0x184 DUP5 ADD MSTORE PUSH2 0x120 DUP8 ADD MLOAD PUSH2 0x1A4 DUP5 ADD MSTORE PUSH2 0x140 DUP8 ADD DUP1 MLOAD PUSH2 0x1C4 DUP6 ADD SWAP1 DUP2 MSTORE PUSH2 0x160 DUP10 ADD MLOAD PUSH2 0x1E4 DUP7 ADD MSTORE PUSH2 0x180 SWAP1 MSTORE MLOAD DUP1 MLOAD PUSH2 0x204 DUP6 ADD DUP2 SWAP1 MSTORE SWAP4 SWAP5 PUSH2 0x224 DUP7 ADD SWAP5 SWAP3 SWAP4 PUSH1 0x44 DUP8 ADD SWAP4 SWAP2 SWAP3 DUP2 ADD SWAP2 SWAP1 PUSH1 0x1F DUP3 ADD DIV PUSH1 0x0 JUMPDEST DUP2 DUP2 LT ISZERO PUSH2 0x581 JUMPI DUP4 MLOAD DUP9 MSTORE PUSH1 0x20 SWAP8 DUP9 ADD SWAP8 SWAP1 SWAP4 ADD SWAP3 PUSH1 0x1 ADD PUSH2 0x563 JUMP JUMPDEST POP POP POP POP DUP1 DUP5 SUB PUSH2 0x160 SWAP2 DUP3 ADD MSTORE DUP8 ADD MLOAD DUP1 MLOAD DUP1 DUP6 MSTORE PUSH1 0x20 SWAP5 DUP6 ADD SWAP5 PUSH1 0x0 SWAP3 DUP2 ADD SWAP2 SWAP1 PUSH1 0x1F DUP3 ADD DIV JUMPDEST DUP1 DUP5 LT ISZERO PUSH2 0x5CD JUMPI DUP3 MLOAD DUP8 MSTORE PUSH1 0x20 DUP8 ADD SWAP7 POP PUSH1 0x20 DUP4 ADD SWAP3 POP PUSH1 0x1 DUP5 ADD SWAP4 POP PUSH2 0x5AA JUMP JUMPDEST POP POP POP DUP7 DUP3 MSTORE SWAP2 DUP4 SUB PUSH1 0x20 SWAP2 DUP3 ADD SWAP1 DUP2 MSTORE DUP6 MLOAD DUP1 DUP6 MSTORE SWAP4 DUP3 ADD SWAP4 PUSH1 0x0 SWAP4 SWAP2 SWAP3 DUP8 DUP2 ADD SWAP2 SWAP1 PUSH1 0x1F DUP3 ADD DIV JUMPDEST DUP1 DUP7 LT ISZERO PUSH2 0x61A JUMPI DUP3 MLOAD DUP8 MSTORE PUSH1 0x20 DUP8 ADD SWAP7 POP PUSH1 0x20 DUP4 ADD SWAP3 POP PUSH1 0x1 DUP7 ADD SWAP6 POP PUSH2 0x5F7 JUMP JUMPDEST POP POP POP PUSH32 0xFFFFFFFFFFFFFFFFFFFFFFFFFFFFFFFFFFFFFFFFFFFFFFFFFFFFFFFFFFFFFFE0 DUP6 DUP6 SUB ADD DUP6 MSTORE POP POP POP PUSH1 0x40 MSTORE SWAP4 SWAP3 POP POP POP JUMP JUMPDEST PUSH1 0x0 DUP3 PUSH2 0x660 JUMPI POP PUSH1 0x0 PUSH2 0x202 JUMP JUMPDEST DUP3 DUP3 MUL DUP3 DUP5 DUP3 DUP2 PUSH2 0x66D JUMPI INVALID JUMPDEST DIV EQ PUSH2 0x1AD JUMPI PUSH1 0x40 MLOAD PUSH32 0x8C379A000000000000000000000000000000000000000000000000000000000 DUP2 MSTORE PUSH1 0x4 ADD PUSH2 0x28C SWAP1 PUSH2 0xF37 JUMP JUMPDEST PUSH1 0x0 DUP3 DUP3 GT ISZERO PUSH2 0x6E1 JUMPI PUSH1 0x40 MLOAD PUSH32 0x8C379A000000000000000000000000000000000000000000000000000000000 DUP2 MSTORE PUSH1 0x4 ADD PUSH2 0x28C SWAP1 PUSH2 0xEC9 JUMP JUMPDEST POP SWAP1 SUB SWAP1 JUMP JUMPDEST PUSH1 0x0 DUP3 DUP3 ADD DUP4 DUP2 LT ISZERO PUSH2 0x1AD JUMPI PUSH1 0x40 MLOAD PUSH32 0x8C379A000000000000000000000000000000000000000000000000000000000 DUP2 MSTORE PUSH1 0x4 ADD PUSH2 0x28C SWAP1 PUSH2 0xF37 JUMP JUMPDEST PUSH1 0x0 DUP1 DUP3 DUP5 DUP2 PUSH2 0x732 JUMPI INVALID JUMPDEST DIV SWAP5 SWAP4 POP POP POP POP JUMP JUMPDEST PUSH1 0x0 DUP1 PUSH1 0x40 MLOAD PUSH1 0x20 ADD PUSH2 0x74D SWAP1 PUSH2 0xBE6 JUMP JUMPDEST PUSH1 0x40 MLOAD PUSH1 0x20 DUP2 DUP4 SUB SUB DUP2 MSTORE SWAP1 PUSH1 0x40 MSTORE DUP1 MLOAD SWAP1 PUSH1 0x20 ADD KECCAK256 SWAP1 POP PUSH1 0x0 DUP4 PUSH2 0x140 ADD MLOAD PUSH1 0x40 MLOAD PUSH2 0x77A SWAP2 SWAP1 PUSH2 0xBCA JUMP JUMPDEST PUSH1 0x40 MLOAD DUP1 SWAP2 SUB SWAP1 KECCAK256 SWAP1 POP PUSH1 0x0 DUP5 PUSH2 0x160 ADD MLOAD PUSH1 0x40 MLOAD PUSH2 0x799 SWAP2 SWAP1 PUSH2 0xBCA JUMP JUMPDEST PUSH1 0x40 MLOAD SWAP1 DUP2 SWAP1 SUB SWAP1 KECCAK256 PUSH32 0xFFFFFFFFFFFFFFFFFFFFFFFFFFFFFFFFFFFFFFFFFFFFFFFFFFFFFFFFFFFFFFE0 DUP7 ADD DUP1 MLOAD PUSH2 0x140 DUP9 ADD DUP1 MLOAD PUSH2 0x160 SWAP1 SWAP10 ADD DUP1 MLOAD SWAP8 DUP5 MSTORE SWAP6 DUP2 MSTORE SWAP3 DUP6 MSTORE PUSH2 0x1A0 DUP3 KECCAK256 SWAP2 MSTORE SWAP6 SWAP1 MSTORE POP MSTORE POP SWAP1 JUMP JUMPDEST PUSH1 0x0 SLOAD PUSH1 0x40 MLOAD PUSH32 0x1901000000000000000000000000000000000000000000000000000000000000 DUP2 MSTORE PUSH1 0x2 DUP2 ADD SWAP2 SWAP1 SWAP2 MSTORE PUSH1 0x22 DUP2 ADD SWAP2 SWAP1 SWAP2 MSTORE PUSH1 0x42 SWAP1 KECCAK256 SWAP1 JUMP JUMPDEST PUSH1 0x40 MLOAD DUP1 PUSH1 0x80 ADD PUSH1 0x40 MSTORE DUP1 PUSH1 0x0 DUP2 MSTORE PUSH1 0x20 ADD PUSH1 0x0 DUP2 MSTORE PUSH1 0x20 ADD PUSH1 0x0 DUP2 MSTORE PUSH1 0x20 ADD PUSH1 0x0 DUP2 MSTORE POP SWAP1 JUMP JUMPDEST DUP1 CALLDATALOAD PUSH20 0xFFFFFFFFFFFFFFFFFFFFFFFFFFFFFFFFFFFFFFFF DUP2 AND DUP2 EQ PUSH2 0x202 JUMPI PUSH1 0x0 DUP1 REVERT JUMPDEST PUSH1 0x0 DUP3 PUSH1 0x1F DUP4 ADD SLT PUSH2 0x88B JUMPI DUP1 DUP2 REVERT JUMPDEST DUP2 CALLDATALOAD PUSH8 0xFFFFFFFFFFFFFFFF DUP2 GT ISZERO PUSH2 0x8A1 JUMPI DUP2 DUP3 REVERT JUMPDEST PUSH2 0x8D2 PUSH1 0x20 PUSH32 0xFFFFFFFFFFFFFFFFFFFFFFFFFFFFFFFFFFFFFFFFFFFFFFFFFFFFFFFFFFFFFFE0 PUSH1 0x1F DUP5 ADD AND ADD PUSH2 0xF99 JUMP JUMPDEST SWAP2 POP DUP1 DUP3 MSTORE DUP4 PUSH1 0x20 DUP3 DUP6 ADD ADD GT ISZERO PUSH2 0x8E9 JUMPI PUSH1 0x0 DUP1 REVERT JUMPDEST DUP1 PUSH1 0x20 DUP5 ADD PUSH1 0x20 DUP5 ADD CALLDATACOPY PUSH1 0x0 SWAP1 DUP3 ADD PUSH1 0x20 ADD MSTORE SWAP3 SWAP2 POP POP JUMP JUMPDEST PUSH1 0x0 PUSH1 0x80 DUP3 DUP5 SUB SLT ISZERO PUSH2 0x913 JUMPI DUP1 DUP2 REVERT JUMPDEST PUSH2 0x91D PUSH1 0x80 PUSH2 0xF99 JUMP JUMPDEST SWAP1 POP DUP2 CALLDATALOAD DUP2 MSTORE PUSH1 0x20 DUP3 ADD CALLDATALOAD PUSH1 0x20 DUP3 ADD MSTORE PUSH1 0x40 DUP3 ADD CALLDATALOAD PUSH1 0x40 DUP3 ADD MSTORE PUSH1 0x60 DUP3 ADD CALLDATALOAD PUSH1 0x60 DUP3 ADD MSTORE SWAP3 SWAP2 POP POP JUMP JUMPDEST PUSH1 0x0 PUSH2 0x180 DUP1 DUP4 DUP6 SUB SLT ISZERO PUSH2 0x95A JUMPI DUP2 DUP3 REVERT JUMPDEST PUSH2 0x963 DUP2 PUSH2 0xF99 JUMP JUMPDEST SWAP2 POP POP PUSH2 0x970 DUP4 DUP4 PUSH2 0x857 JUMP JUMPDEST DUP2 MSTORE PUSH2 0x97F DUP4 PUSH1 0x20 DUP5 ADD PUSH2 0x857 JUMP JUMPDEST PUSH1 0x20 DUP3 ADD MSTORE PUSH2 0x991 DUP4 PUSH1 0x40 DUP5 ADD PUSH2 0x857 JUMP JUMPDEST PUSH1 0x40 DUP3 ADD MSTORE PUSH2 0x9A3 DUP4 PUSH1 0x60 DUP5 ADD PUSH2 0x857 JUMP JUMPDEST PUSH1 0x60 DUP3 ADD MSTORE PUSH1 0x80 DUP3 ADD CALLDATALOAD PUSH1 0x80 DUP3 ADD MSTORE PUSH1 0xA0 DUP3 ADD CALLDATALOAD PUSH1 0xA0 DUP3 ADD MSTORE PUSH1 0xC0 DUP3 ADD CALLDATALOAD PUSH1 0xC0 DUP3 ADD MSTORE PUSH1 0xE0 DUP3 ADD CALLDATALOAD PUSH1 0xE0 DUP3 ADD MSTORE PUSH2 0x100 DUP1 DUP4 ADD CALLDATALOAD DUP2 DUP4 ADD MSTORE POP PUSH2 0x120 DUP1 DUP4 ADD CALLDATALOAD DUP2 DUP4 ADD MSTORE POP PUSH2 0x140 DUP1 DUP4 ADD CALLDATALOAD PUSH8 0xFFFFFFFFFFFFFFFF DUP1 DUP3 GT ISZERO PUSH2 0xA05 JUMPI PUSH1 0x0 DUP1 REVERT JUMPDEST PUSH2 0xA11 DUP7 DUP4 DUP8 ADD PUSH2 0x87B JUMP JUMPDEST DUP4 DUP6 ADD MSTORE PUSH2 0x160 SWAP3 POP DUP3 DUP6 ADD CALLDATALOAD SWAP2 POP DUP1 DUP3 GT ISZERO PUSH2 0xA2D JUMPI PUSH1 0x0 DUP1 REVERT JUMPDEST POP PUSH2 0xA3A DUP6 DUP3 DUP7 ADD PUSH2 0x87B JUMP JUMPDEST DUP3 DUP5 ADD MSTORE POP POP SWAP3 SWAP2 POP POP JUMP JUMPDEST PUSH1 0x0 DUP1 PUSH2 0x100 DUP4 DUP6 SUB SLT ISZERO PUSH2 0xA5A JUMPI PUSH1 0x0 DUP1 REVERT JUMPDEST PUSH2 0xA64 DUP5 DUP5 PUSH2 0x902 JUMP JUMPDEST SWAP2 POP PUSH2 0xA73 DUP5 PUSH1 0x80 DUP6 ADD PUSH2 0x902 JUMP JUMPDEST SWAP1 POP SWAP3 POP SWAP3 SWAP1 POP JUMP JUMPDEST PUSH1 0x0 PUSH1 0x20 DUP3 DUP5 SUB SLT ISZERO PUSH2 0xA8E JUMPI PUSH1 0x0 DUP1 REVERT JUMPDEST DUP2 CALLDATALOAD PUSH8 0xFFFFFFFFFFFFFFFF DUP2 GT ISZERO PUSH2 0xAA5 JUMPI PUSH1 0x0 DUP1 REVERT JUMPDEST PUSH2 0xAB1 DUP5 DUP3 DUP6 ADD PUSH2 0x947 JUMP JUMPDEST SWAP5 SWAP4 POP POP POP POP JUMP JUMPDEST PUSH1 0x0 DUP1 PUSH1 0x0 PUSH1 0x60 DUP5 DUP7 SUB SLT ISZERO PUSH2 0xACD JUMPI DUP1 DUP2 REVERT JUMPDEST DUP4 CALLDATALOAD PUSH8 0xFFFFFFFFFFFFFFFF DUP1 DUP3 GT ISZERO PUSH2 0xAE4 JUMPI DUP3 DUP4 REVERT JUMPDEST PUSH2 0xAF0 DUP8 DUP4 DUP9 ADD PUSH2 0x947 JUMP JUMPDEST SWAP5 POP PUSH1 0x20 DUP7 ADD CALLDATALOAD SWAP4 POP PUSH1 0x40 DUP7 ADD CALLDATALOAD SWAP2 POP DUP1 DUP3 GT ISZERO PUSH2 0xB0C JUMPI DUP3 DUP4 REVERT JUMPDEST POP PUSH2 0xB19 DUP7 DUP3 DUP8 ADD PUSH2 0x87B JUMP JUMPDEST SWAP2 POP POP SWAP3 POP SWAP3 POP SWAP3 JUMP JUMPDEST PUSH1 0x0 DUP1 PUSH1 0x0 PUSH1 0x60 DUP5 DUP7 SUB SLT ISZERO PUSH2 0xB38 JUMPI PUSH1 0x0 DUP1 REVERT JUMPDEST POP POP DUP2 CALLDATALOAD SWAP4 PUSH1 0x20 DUP4 ADD CALLDATALOAD SWAP4 POP PUSH1 0x40 SWAP1 SWAP3 ADD CALLDATALOAD SWAP2 SWAP1 POP JUMP JUMPDEST PUSH32 0x6279746573206D616B65724173736574446174612C0000000000000000000000 DUP2 MSTORE PUSH1 0x15 ADD SWAP1 JUMP JUMPDEST PUSH32 0x62797465732074616B6572417373657444617461000000000000000000000000 DUP2 MSTORE PUSH1 0x14 ADD SWAP1 JUMP JUMPDEST PUSH32 0x2900000000000000000000000000000000000000000000000000000000000000 DUP2 MSTORE PUSH1 0x1 ADD SWAP1 JUMP JUMPDEST PUSH1 0x0 DUP3 MLOAD PUSH2 0xBDC DUP2 DUP5 PUSH1 0x20 DUP8 ADD PUSH2 0xFC0 JUMP JUMPDEST SWAP2 SWAP1 SWAP2 ADD SWAP3 SWAP2 POP POP JUMP JUMPDEST PUSH1 0x0 PUSH32 0x4F72646572280000000000000000000000000000000000000000000000000000 DUP3 MSTORE PUSH32 0x61646472657373206D616B6572416464726573732C0000000000000000000000 PUSH1 0x6 DUP4 ADD MSTORE PUSH32 0x616464726573732074616B6572416464726573732C0000000000000000000000 PUSH1 0x1B DUP4 ADD MSTORE PUSH32 0x6164647265737320666565526563697069656E74416464726573732C00000000 PUSH1 0x30 DUP4 ADD MSTORE PUSH32 0x616464726573732073656E646572416464726573732C00000000000000000000 PUSH1 0x4C DUP4 ADD MSTORE PUSH32 0x75696E74323536206D616B65724173736574416D6F756E742C00000000000000 PUSH1 0x62 DUP4 ADD MSTORE PUSH32 0x75696E743235362074616B65724173736574416D6F756E742C00000000000000 PUSH1 0x7B DUP4 ADD MSTORE PUSH32 0x75696E74323536206D616B65724665652C000000000000000000000000000000 PUSH1 0x94 DUP4 ADD MSTORE PUSH32 0x75696E743235362074616B65724665652C000000000000000000000000000000 PUSH1 0xA5 DUP4 ADD MSTORE PUSH32 0x75696E743235362065787069726174696F6E54696D655365636F6E64732C0000 PUSH1 0xB6 DUP4 ADD MSTORE PUSH32 0x75696E743235362073616C742C00000000000000000000000000000000000000 PUSH1 0xD4 DUP4 ADD MSTORE PUSH2 0x202 PUSH2 0xD9E PUSH2 0xD99 PUSH1 0xE1 DUP6 ADD PUSH2 0xB4F JUMP JUMPDEST PUSH2 0xB78 JUMP JUMPDEST PUSH2 0xBA1 JUMP JUMPDEST PUSH32 0x454950373132446F6D61696E2800000000000000000000000000000000000000 DUP2 MSTORE PUSH32 0x737472696E67206E616D652C0000000000000000000000000000000000000000 PUSH1 0xD DUP3 ADD MSTORE PUSH32 0x737472696E672076657273696F6E2C0000000000000000000000000000000000 PUSH1 0x19 DUP3 ADD MSTORE PUSH32 0x6164647265737320766572696679696E67436F6E747261637400000000000000 PUSH1 0x28 DUP3 ADD MSTORE PUSH32 0x2900000000000000000000000000000000000000000000000000000000000000 PUSH1 0x41 DUP3 ADD MSTORE PUSH1 0x42 ADD SWAP1 JUMP JUMPDEST SWAP1 ISZERO ISZERO DUP2 MSTORE PUSH1 0x20 ADD SWAP1 JUMP JUMPDEST SWAP1 DUP2 MSTORE PUSH1 0x20 ADD SWAP1 JUMP JUMPDEST PUSH1 0x0 PUSH1 0x20 DUP3 MSTORE DUP3 MLOAD DUP1 PUSH1 0x20 DUP5 ADD MSTORE PUSH2 0xE97 DUP2 PUSH1 0x40 DUP6 ADD PUSH1 0x20 DUP8 ADD PUSH2 0xFC0 JUMP JUMPDEST PUSH1 0x1F ADD PUSH32 0xFFFFFFFFFFFFFFFFFFFFFFFFFFFFFFFFFFFFFFFFFFFFFFFFFFFFFFFFFFFFFFE0 AND SWAP2 SWAP1 SWAP2 ADD PUSH1 0x40 ADD SWAP3 SWAP2 POP POP JUMP JUMPDEST PUSH1 0x20 DUP1 DUP3 MSTORE PUSH1 0x11 SWAP1 DUP3 ADD MSTORE PUSH32 0x55494E543235365F554E444552464C4F57000000000000000000000000000000 PUSH1 0x40 DUP3 ADD MSTORE PUSH1 0x60 ADD SWAP1 JUMP JUMPDEST PUSH1 0x20 DUP1 DUP3 MSTORE PUSH1 0x10 SWAP1 DUP3 ADD MSTORE PUSH32 0x4449564953494F4E5F42595F5A45524F00000000000000000000000000000000 PUSH1 0x40 DUP3 ADD MSTORE PUSH1 0x60 ADD SWAP1 JUMP JUMPDEST PUSH1 0x20 DUP1 DUP3 MSTORE PUSH1 0x10 SWAP1 DUP3 ADD MSTORE PUSH32 0x55494E543235365F4F564552464C4F5700000000000000000000000000000000 PUSH1 0x40 DUP3 ADD MSTORE PUSH1 0x60 ADD SWAP1 JUMP JUMPDEST DUP2 MLOAD DUP2 MSTORE PUSH1 0x20 DUP1 DUP4 ADD MLOAD SWAP1 DUP3 ADD MSTORE PUSH1 0x40 DUP1 DUP4 ADD MLOAD SWAP1 DUP3 ADD MSTORE PUSH1 0x60 SWAP2 DUP3 ADD MLOAD SWAP2 DUP2 ADD SWAP2 SWAP1 SWAP2 MSTORE PUSH1 0x80 ADD SWAP1 JUMP JUMPDEST PUSH1 0x40 MLOAD DUP2 DUP2 ADD PUSH8 0xFFFFFFFFFFFFFFFF DUP2 GT DUP3 DUP3 LT OR ISZERO PUSH2 0xFB8 JUMPI PUSH1 0x0 DUP1 REVERT JUMPDEST PUSH1 0x40 MSTORE SWAP2 SWAP1 POP JUMP JUMPDEST PUSH1 0x0 JUMPDEST DUP4 DUP2 LT ISZERO PUSH2 0xFDB JUMPI DUP2 DUP2 ADD MLOAD DUP4 DUP3 ADD MSTORE PUSH1 0x20 ADD PUSH2 0xFC3 JUMP JUMPDEST DUP4 DUP2 GT ISZERO PUSH2 0xFEA JUMPI PUSH1 0x0 DUP5 DUP5 ADD MSTORE JUMPDEST POP POP POP POP JUMP INVALID LOG2 PUSH6 0x627A7A723058 KECCAK256 PUSH12 0xEBC60D35CC6377A7A54FC1C5 DUP1 STOP 0xe SHR SLOAD 0xdc LOG2 0x22 0xc4 0xc3 RETURN 0xe1 PUSH31 0xD7A1720A204C6C6578706572696D656E74616CF50037000000000000000000 "
            }
        }
    },
    "sourceTreeHashHex": "0x1c51307e916a231927384c7f824e599dba1bacd0b57f2ad0e964d75e13e9d967",
    "compiler": {
        "name": "solc",
        "version": "soljson-v0.5.8+commit.23d335f2.js",
        "settings": {
            "optimizer": {
                "enabled": true,
                "runs": 1000000,
                "details": {
                    "yul": true,
                    "deduplicate": true,
                    "cse": true,
                    "constantOptimizer": true
                }
            },
            "outputSelection": {
                "*": {
                    "*": [
                        "abi",
                        "evm.bytecode.object",
                        "evm.bytecode.sourceMap",
                        "evm.deployedBytecode.object",
                        "evm.deployedBytecode.sourceMap"
                    ]
                }
            },
            "evmVersion": "constantinople",
            "remappings": [
                "@0x/contracts-utils=/Users/fabioberger/Documents/projects/0x_project/0x-monorepo-one/contracts/exchange-libs/node_modules/@0x/contracts-utils",
                "@0x/contracts-exchange-libs=/Users/fabioberger/Documents/projects/0x_project/0x-monorepo-one/node_modules/@0x/contracts-exchange-libs"
            ]
        }
    }
}