{
    "schemaVersion": "2.0.0",
    "contractName": "DummyERC1155Receiver",
    "compilerOutput": {
        "abi": [
            {
                "constant": false,
                "inputs": [
                    {
                        "name": "operator",
                        "type": "address"
                    },
                    {
                        "name": "from",
                        "type": "address"
                    },
                    {
                        "name": "ids",
                        "type": "uint256[]"
                    },
                    {
                        "name": "values",
                        "type": "uint256[]"
                    },
                    {
                        "name": "data",
                        "type": "bytes"
                    }
                ],
                "name": "onERC1155BatchReceived",
                "outputs": [
                    {
                        "name": "",
                        "type": "bytes4"
                    }
                ],
                "payable": false,
                "stateMutability": "nonpayable",
                "type": "function"
            },
            {
                "constant": false,
                "inputs": [
                    {
                        "name": "_shouldRejectTransfer",
                        "type": "bool"
                    }
                ],
                "name": "setRejectTransferFlag",
                "outputs": [],
                "payable": false,
                "stateMutability": "nonpayable",
                "type": "function"
            },
            {
                "constant": true,
                "inputs": [],
                "name": "ERC1155_RECEIVED",
                "outputs": [
                    {
                        "name": "",
                        "type": "bytes4"
                    }
                ],
                "payable": false,
                "stateMutability": "view",
                "type": "function"
            },
            {
                "constant": false,
                "inputs": [
                    {
                        "name": "operator",
                        "type": "address"
                    },
                    {
                        "name": "from",
                        "type": "address"
                    },
                    {
                        "name": "id",
                        "type": "uint256"
                    },
                    {
                        "name": "value",
                        "type": "uint256"
                    },
                    {
                        "name": "data",
                        "type": "bytes"
                    }
                ],
                "name": "onERC1155Received",
                "outputs": [
                    {
                        "name": "",
                        "type": "bytes4"
                    }
                ],
                "payable": false,
                "stateMutability": "nonpayable",
                "type": "function"
            },
            {
                "constant": true,
                "inputs": [],
                "name": "ERC1155_BATCH_RECEIVED",
                "outputs": [
                    {
                        "name": "",
                        "type": "bytes4"
                    }
                ],
                "payable": false,
                "stateMutability": "view",
                "type": "function"
            },
            {
                "inputs": [],
                "payable": false,
                "stateMutability": "nonpayable",
                "type": "constructor"
            },
            {
                "anonymous": false,
                "inputs": [
                    {
                        "indexed": false,
                        "name": "operator",
                        "type": "address"
                    },
                    {
                        "indexed": false,
                        "name": "from",
                        "type": "address"
                    },
                    {
                        "indexed": false,
                        "name": "tokenId",
                        "type": "uint256"
                    },
                    {
                        "indexed": false,
                        "name": "tokenValue",
                        "type": "uint256"
                    },
                    {
                        "indexed": false,
                        "name": "data",
                        "type": "bytes"
                    }
                ],
                "name": "TokenReceived",
                "type": "event"
            },
            {
                "anonymous": false,
                "inputs": [
                    {
                        "indexed": false,
                        "name": "operator",
                        "type": "address"
                    },
                    {
                        "indexed": false,
                        "name": "from",
                        "type": "address"
                    },
                    {
                        "indexed": false,
                        "name": "tokenIds",
                        "type": "uint256[]"
                    },
                    {
                        "indexed": false,
                        "name": "tokenValues",
                        "type": "uint256[]"
                    },
                    {
                        "indexed": false,
                        "name": "data",
                        "type": "bytes"
                    }
                ],
                "name": "BatchTokenReceived",
                "type": "event"
            }
        ],
        "devdoc": {
            "methods": {
                "onERC1155BatchReceived(address,address,uint256[],uint256[],bytes)": {
                    "details": "The smart contract calls this function on the recipient after a `safeTransferFrom`. This function MAY throw to revert and reject the transfer. Return of other than the magic value MUST result in the transaction being reverted Note: the contract address is always the message sender",
                    "params": {
                        "data": "Additional data with no specified format",
                        "from": "The address which previously owned the token",
                        "ids": "An array containing ids of each token being transferred",
                        "operator": "The address which called `safeTransferFrom` function",
                        "values": "An array containing amounts of each token being transferred"
                    },
                    "return": "`bytes4(keccak256(\"onERC1155Received(address,address,uint256,uint256,bytes)\"))`"
                },
                "onERC1155Received(address,address,uint256,uint256,bytes)": {
                    "details": "The smart contract calls this function on the recipient after a `safeTransferFrom`. This function MAY throw to revert and reject the transfer. Return of other than the magic value MUST result in the transaction being reverted Note: the contract address is always the message sender",
                    "params": {
                        "data": "Additional data with no specified format",
                        "from": "The address which previously owned the token",
                        "id": "An array containing the ids of the token being transferred",
                        "operator": "The address which called `safeTransferFrom` function",
                        "value": "An array containing the amount of tokens being transferred"
                    },
                    "return": "`bytes4(keccak256(\"onERC1155Received(address,address,uint256,uint256,bytes)\"))`"
                }
            }
        },
        "evm": {
            "bytecode": {
                "linkReferences": {},
                "object": "0x608060405234801561001057600080fd5b506000805460ff191690556107138061002a6000396000f3fe608060405234801561001057600080fd5b50600436106100675760003560e01c8063e0a5c94911610050578063e0a5c949146101fc578063f23a6e6114610204578063fc67bf1c146102a657610067565b8063bc197c811461006c578063d9d4df3a146101db575b600080fd5b6101a6600480360360a081101561008257600080fd5b73ffffffffffffffffffffffffffffffffffffffff82358116926020810135909116918101906060810160408201356401000000008111156100c357600080fd5b8201836020820111156100d557600080fd5b803590602001918460208302840111640100000000831117156100f757600080fd5b91939092909160208101903564010000000081111561011557600080fd5b82018360208201111561012757600080fd5b8035906020019184602083028401116401000000008311171561014957600080fd5b91939092909160208101903564010000000081111561016757600080fd5b82018360208201111561017957600080fd5b8035906020019184600183028401116401000000008311171561019b57600080fd5b5090925090506102ae565b604080517fffffffff000000000000000000000000000000000000000000000000000000009092168252519081900360200190f35b6101fa600480360360208110156101f157600080fd5b503515156104d0565b005b6101a6610501565b6101a6600480360360a081101561021a57600080fd5b73ffffffffffffffffffffffffffffffffffffffff823581169260208101359091169160408201359160608101359181019060a08101608082013564010000000081111561026757600080fd5b82018360208201111561027957600080fd5b8035906020019184600183028401116401000000008311171561029b57600080fd5b509092509050610525565b6101a66106ba565b6000805460ff161561032157604080517f08c379a000000000000000000000000000000000000000000000000000000000815260206004820152601160248201527f5452414e534645525f52454a4543544544000000000000000000000000000000604482015290519081900360640190fd5b7f91b26e6374fdb201aaa0877487c665827cf487ed656fe38bd444e549b78052708989898989898989604051808973ffffffffffffffffffffffffffffffffffffffff1673ffffffffffffffffffffffffffffffffffffffff1681526020018873ffffffffffffffffffffffffffffffffffffffff1673ffffffffffffffffffffffffffffffffffffffff16815260200180602001806020018060200184810384528a8a82818152602001925060200280828437600083820152601f017fffffffffffffffffffffffffffffffffffffffffffffffffffffffffffffffe0169091018581038452888152602090810191508990890280828437600083820152601f017fffffffffffffffffffffffffffffffffffffffffffffffffffffffffffffffe01690910185810383528681526020019050868680828437600083820152604051601f9091017fffffffffffffffffffffffffffffffffffffffffffffffffffffffffffffffe0169092018290039d50909b505050505050505050505050a1507fbc197c810000000000000000000000000000000000000000000000000000000098975050505050505050565b600080547fffffffffffffffffffffffffffffffffffffffffffffffffffffffffffffff0016911515919091179055565b7ff23a6e610000000000000000000000000000000000000000000000000000000081565b6000805460ff161561059857604080517f08c379a000000000000000000000000000000000000000000000000000000000815260206004820152601160248201527f5452414e534645525f52454a4543544544000000000000000000000000000000604482015290519081900360640190fd5b7fbae1a1e2d296283d81ccc21fb13e1dcb8937ce5108b5e31dbd96683cddc64431878787878787604051808773ffffffffffffffffffffffffffffffffffffffff1673ffffffffffffffffffffffffffffffffffffffff1681526020018673ffffffffffffffffffffffffffffffffffffffff1673ffffffffffffffffffffffffffffffffffffffff168152602001858152602001848152602001806020018281038252848482818152602001925080828437600083820152604051601f9091017fffffffffffffffffffffffffffffffffffffffffffffffffffffffffffffffe016909201829003995090975050505050505050a1507ff23a6e61000000000000000000000000000000000000000000000000000000009695505050505050565b7fbc197c81000000000000000000000000000000000000000000000000000000008156fea265627a7a7230582041e58c431b939aba858e0fd72ad5f42bb5263e48ebac3c09992ff76ced3c86a264736f6c634300050a0032",
                "opcodes": "PUSH1 0x80 PUSH1 0x40 MSTORE CALLVALUE DUP1 ISZERO PUSH2 0x10 JUMPI PUSH1 0x0 DUP1 REVERT JUMPDEST POP PUSH1 0x0 DUP1 SLOAD PUSH1 0xFF NOT AND SWAP1 SSTORE PUSH2 0x713 DUP1 PUSH2 0x2A PUSH1 0x0 CODECOPY PUSH1 0x0 RETURN INVALID PUSH1 0x80 PUSH1 0x40 MSTORE CALLVALUE DUP1 ISZERO PUSH2 0x10 JUMPI PUSH1 0x0 DUP1 REVERT JUMPDEST POP PUSH1 0x4 CALLDATASIZE LT PUSH2 0x67 JUMPI PUSH1 0x0 CALLDATALOAD PUSH1 0xE0 SHR DUP1 PUSH4 0xE0A5C949 GT PUSH2 0x50 JUMPI DUP1 PUSH4 0xE0A5C949 EQ PUSH2 0x1FC JUMPI DUP1 PUSH4 0xF23A6E61 EQ PUSH2 0x204 JUMPI DUP1 PUSH4 0xFC67BF1C EQ PUSH2 0x2A6 JUMPI PUSH2 0x67 JUMP JUMPDEST DUP1 PUSH4 0xBC197C81 EQ PUSH2 0x6C JUMPI DUP1 PUSH4 0xD9D4DF3A EQ PUSH2 0x1DB JUMPI JUMPDEST PUSH1 0x0 DUP1 REVERT JUMPDEST PUSH2 0x1A6 PUSH1 0x4 DUP1 CALLDATASIZE SUB PUSH1 0xA0 DUP2 LT ISZERO PUSH2 0x82 JUMPI PUSH1 0x0 DUP1 REVERT JUMPDEST PUSH20 0xFFFFFFFFFFFFFFFFFFFFFFFFFFFFFFFFFFFFFFFF DUP3 CALLDATALOAD DUP2 AND SWAP3 PUSH1 0x20 DUP2 ADD CALLDATALOAD SWAP1 SWAP2 AND SWAP2 DUP2 ADD SWAP1 PUSH1 0x60 DUP2 ADD PUSH1 0x40 DUP3 ADD CALLDATALOAD PUSH5 0x100000000 DUP2 GT ISZERO PUSH2 0xC3 JUMPI PUSH1 0x0 DUP1 REVERT JUMPDEST DUP3 ADD DUP4 PUSH1 0x20 DUP3 ADD GT ISZERO PUSH2 0xD5 JUMPI PUSH1 0x0 DUP1 REVERT JUMPDEST DUP1 CALLDATALOAD SWAP1 PUSH1 0x20 ADD SWAP2 DUP5 PUSH1 0x20 DUP4 MUL DUP5 ADD GT PUSH5 0x100000000 DUP4 GT OR ISZERO PUSH2 0xF7 JUMPI PUSH1 0x0 DUP1 REVERT JUMPDEST SWAP2 SWAP4 SWAP1 SWAP3 SWAP1 SWAP2 PUSH1 0x20 DUP2 ADD SWAP1 CALLDATALOAD PUSH5 0x100000000 DUP2 GT ISZERO PUSH2 0x115 JUMPI PUSH1 0x0 DUP1 REVERT JUMPDEST DUP3 ADD DUP4 PUSH1 0x20 DUP3 ADD GT ISZERO PUSH2 0x127 JUMPI PUSH1 0x0 DUP1 REVERT JUMPDEST DUP1 CALLDATALOAD SWAP1 PUSH1 0x20 ADD SWAP2 DUP5 PUSH1 0x20 DUP4 MUL DUP5 ADD GT PUSH5 0x100000000 DUP4 GT OR ISZERO PUSH2 0x149 JUMPI PUSH1 0x0 DUP1 REVERT JUMPDEST SWAP2 SWAP4 SWAP1 SWAP3 SWAP1 SWAP2 PUSH1 0x20 DUP2 ADD SWAP1 CALLDATALOAD PUSH5 0x100000000 DUP2 GT ISZERO PUSH2 0x167 JUMPI PUSH1 0x0 DUP1 REVERT JUMPDEST DUP3 ADD DUP4 PUSH1 0x20 DUP3 ADD GT ISZERO PUSH2 0x179 JUMPI PUSH1 0x0 DUP1 REVERT JUMPDEST DUP1 CALLDATALOAD SWAP1 PUSH1 0x20 ADD SWAP2 DUP5 PUSH1 0x1 DUP4 MUL DUP5 ADD GT PUSH5 0x100000000 DUP4 GT OR ISZERO PUSH2 0x19B JUMPI PUSH1 0x0 DUP1 REVERT JUMPDEST POP SWAP1 SWAP3 POP SWAP1 POP PUSH2 0x2AE JUMP JUMPDEST PUSH1 0x40 DUP1 MLOAD PUSH32 0xFFFFFFFF00000000000000000000000000000000000000000000000000000000 SWAP1 SWAP3 AND DUP3 MSTORE MLOAD SWAP1 DUP2 SWAP1 SUB PUSH1 0x20 ADD SWAP1 RETURN JUMPDEST PUSH2 0x1FA PUSH1 0x4 DUP1 CALLDATASIZE SUB PUSH1 0x20 DUP2 LT ISZERO PUSH2 0x1F1 JUMPI PUSH1 0x0 DUP1 REVERT JUMPDEST POP CALLDATALOAD ISZERO ISZERO PUSH2 0x4D0 JUMP JUMPDEST STOP JUMPDEST PUSH2 0x1A6 PUSH2 0x501 JUMP JUMPDEST PUSH2 0x1A6 PUSH1 0x4 DUP1 CALLDATASIZE SUB PUSH1 0xA0 DUP2 LT ISZERO PUSH2 0x21A JUMPI PUSH1 0x0 DUP1 REVERT JUMPDEST PUSH20 0xFFFFFFFFFFFFFFFFFFFFFFFFFFFFFFFFFFFFFFFF DUP3 CALLDATALOAD DUP2 AND SWAP3 PUSH1 0x20 DUP2 ADD CALLDATALOAD SWAP1 SWAP2 AND SWAP2 PUSH1 0x40 DUP3 ADD CALLDATALOAD SWAP2 PUSH1 0x60 DUP2 ADD CALLDATALOAD SWAP2 DUP2 ADD SWAP1 PUSH1 0xA0 DUP2 ADD PUSH1 0x80 DUP3 ADD CALLDATALOAD PUSH5 0x100000000 DUP2 GT ISZERO PUSH2 0x267 JUMPI PUSH1 0x0 DUP1 REVERT JUMPDEST DUP3 ADD DUP4 PUSH1 0x20 DUP3 ADD GT ISZERO PUSH2 0x279 JUMPI PUSH1 0x0 DUP1 REVERT JUMPDEST DUP1 CALLDATALOAD SWAP1 PUSH1 0x20 ADD SWAP2 DUP5 PUSH1 0x1 DUP4 MUL DUP5 ADD GT PUSH5 0x100000000 DUP4 GT OR ISZERO PUSH2 0x29B JUMPI PUSH1 0x0 DUP1 REVERT JUMPDEST POP SWAP1 SWAP3 POP SWAP1 POP PUSH2 0x525 JUMP JUMPDEST PUSH2 0x1A6 PUSH2 0x6BA JUMP JUMPDEST PUSH1 0x0 DUP1 SLOAD PUSH1 0xFF AND ISZERO PUSH2 0x321 JUMPI PUSH1 0x40 DUP1 MLOAD PUSH32 0x8C379A000000000000000000000000000000000000000000000000000000000 DUP2 MSTORE PUSH1 0x20 PUSH1 0x4 DUP3 ADD MSTORE PUSH1 0x11 PUSH1 0x24 DUP3 ADD MSTORE PUSH32 0x5452414E534645525F52454A4543544544000000000000000000000000000000 PUSH1 0x44 DUP3 ADD MSTORE SWAP1 MLOAD SWAP1 DUP2 SWAP1 SUB PUSH1 0x64 ADD SWAP1 REVERT JUMPDEST PUSH32 0x91B26E6374FDB201AAA0877487C665827CF487ED656FE38BD444E549B7805270 DUP10 DUP10 DUP10 DUP10 DUP10 DUP10 DUP10 DUP10 PUSH1 0x40 MLOAD DUP1 DUP10 PUSH20 0xFFFFFFFFFFFFFFFFFFFFFFFFFFFFFFFFFFFFFFFF AND PUSH20 0xFFFFFFFFFFFFFFFFFFFFFFFFFFFFFFFFFFFFFFFF AND DUP2 MSTORE PUSH1 0x20 ADD DUP9 PUSH20 0xFFFFFFFFFFFFFFFFFFFFFFFFFFFFFFFFFFFFFFFF AND PUSH20 0xFFFFFFFFFFFFFFFFFFFFFFFFFFFFFFFFFFFFFFFF AND DUP2 MSTORE PUSH1 0x20 ADD DUP1 PUSH1 0x20 ADD DUP1 PUSH1 0x20 ADD DUP1 PUSH1 0x20 ADD DUP5 DUP2 SUB DUP5 MSTORE DUP11 DUP11 DUP3 DUP2 DUP2 MSTORE PUSH1 0x20 ADD SWAP3 POP PUSH1 0x20 MUL DUP1 DUP3 DUP5 CALLDATACOPY PUSH1 0x0 DUP4 DUP3 ADD MSTORE PUSH1 0x1F ADD PUSH32 0xFFFFFFFFFFFFFFFFFFFFFFFFFFFFFFFFFFFFFFFFFFFFFFFFFFFFFFFFFFFFFFE0 AND SWAP1 SWAP2 ADD DUP6 DUP2 SUB DUP5 MSTORE DUP9 DUP2 MSTORE PUSH1 0x20 SWAP1 DUP2 ADD SWAP2 POP DUP10 SWAP1 DUP10 MUL DUP1 DUP3 DUP5 CALLDATACOPY PUSH1 0x0 DUP4 DUP3 ADD MSTORE PUSH1 0x1F ADD PUSH32 0xFFFFFFFFFFFFFFFFFFFFFFFFFFFFFFFFFFFFFFFFFFFFFFFFFFFFFFFFFFFFFFE0 AND SWAP1 SWAP2 ADD DUP6 DUP2 SUB DUP4 MSTORE DUP7 DUP2 MSTORE PUSH1 0x20 ADD SWAP1 POP DUP7 DUP7 DUP1 DUP3 DUP5 CALLDATACOPY PUSH1 0x0 DUP4 DUP3 ADD MSTORE PUSH1 0x40 MLOAD PUSH1 0x1F SWAP1 SWAP2 ADD PUSH32 0xFFFFFFFFFFFFFFFFFFFFFFFFFFFFFFFFFFFFFFFFFFFFFFFFFFFFFFFFFFFFFFE0 AND SWAP1 SWAP3 ADD DUP3 SWAP1 SUB SWAP14 POP SWAP1 SWAP12 POP POP POP POP POP POP POP POP POP POP POP POP LOG1 POP PUSH32 0xBC197C8100000000000000000000000000000000000000000000000000000000 SWAP9 SWAP8 POP POP POP POP POP POP POP POP JUMP JUMPDEST PUSH1 0x0 DUP1 SLOAD PUSH32 0xFFFFFFFFFFFFFFFFFFFFFFFFFFFFFFFFFFFFFFFFFFFFFFFFFFFFFFFFFFFFFF00 AND SWAP2 ISZERO ISZERO SWAP2 SWAP1 SWAP2 OR SWAP1 SSTORE JUMP JUMPDEST PUSH32 0xF23A6E6100000000000000000000000000000000000000000000000000000000 DUP2 JUMP JUMPDEST PUSH1 0x0 DUP1 SLOAD PUSH1 0xFF AND ISZERO PUSH2 0x598 JUMPI PUSH1 0x40 DUP1 MLOAD PUSH32 0x8C379A000000000000000000000000000000000000000000000000000000000 DUP2 MSTORE PUSH1 0x20 PUSH1 0x4 DUP3 ADD MSTORE PUSH1 0x11 PUSH1 0x24 DUP3 ADD MSTORE PUSH32 0x5452414E534645525F52454A4543544544000000000000000000000000000000 PUSH1 0x44 DUP3 ADD MSTORE SWAP1 MLOAD SWAP1 DUP2 SWAP1 SUB PUSH1 0x64 ADD SWAP1 REVERT JUMPDEST PUSH32 0xBAE1A1E2D296283D81CCC21FB13E1DCB8937CE5108B5E31DBD96683CDDC64431 DUP8 DUP8 DUP8 DUP8 DUP8 DUP8 PUSH1 0x40 MLOAD DUP1 DUP8 PUSH20 0xFFFFFFFFFFFFFFFFFFFFFFFFFFFFFFFFFFFFFFFF AND PUSH20 0xFFFFFFFFFFFFFFFFFFFFFFFFFFFFFFFFFFFFFFFF AND DUP2 MSTORE PUSH1 0x20 ADD DUP7 PUSH20 0xFFFFFFFFFFFFFFFFFFFFFFFFFFFFFFFFFFFFFFFF AND PUSH20 0xFFFFFFFFFFFFFFFFFFFFFFFFFFFFFFFFFFFFFFFF AND DUP2 MSTORE PUSH1 0x20 ADD DUP6 DUP2 MSTORE PUSH1 0x20 ADD DUP5 DUP2 MSTORE PUSH1 0x20 ADD DUP1 PUSH1 0x20 ADD DUP3 DUP2 SUB DUP3 MSTORE DUP5 DUP5 DUP3 DUP2 DUP2 MSTORE PUSH1 0x20 ADD SWAP3 POP DUP1 DUP3 DUP5 CALLDATACOPY PUSH1 0x0 DUP4 DUP3 ADD MSTORE PUSH1 0x40 MLOAD PUSH1 0x1F SWAP1 SWAP2 ADD PUSH32 0xFFFFFFFFFFFFFFFFFFFFFFFFFFFFFFFFFFFFFFFFFFFFFFFFFFFFFFFFFFFFFFE0 AND SWAP1 SWAP3 ADD DUP3 SWAP1 SUB SWAP10 POP SWAP1 SWAP8 POP POP POP POP POP POP POP POP LOG1 POP PUSH32 0xF23A6E6100000000000000000000000000000000000000000000000000000000 SWAP7 SWAP6 POP POP POP POP POP POP JUMP JUMPDEST PUSH32 0xBC197C8100000000000000000000000000000000000000000000000000000000 DUP2 JUMP INVALID LOG2 PUSH6 0x627A7A723058 KECCAK256 COINBASE 0xe5 DUP13 NUMBER SHL SWAP4 SWAP11 0xba DUP6 DUP15 0xf 0xd7 0x2a 0xd5 DELEGATECALL 0x2b 0xb5 0x26 RETURNDATACOPY 0x48 0xeb 0xac EXTCODECOPY MULMOD SWAP10 0x2f 0xf7 PUSH13 0xED3C86A264736F6C634300050A STOP ORIGIN "
            }
        }
    },
    "sourceTreeHashHex": "0x01445e89f8b6f7a91a4b38ebc235528e79921724d9c83cea7b62aa374a446cd5",
    "compiler": {
        "name": "solc",
        "version": "soljson-v0.5.10+commit.5a6ea5b1.js",
        "settings": {
            "optimizer": {
                "enabled": true,
                "runs": 1000000
            },
            "outputSelection": {
                "*": {
                    "*": [
                        "abi",
                        "devdoc",
                        "evm.bytecode.object",
                        "evm.bytecode.sourceMap",
                        "evm.deployedBytecode.object",
                        "evm.deployedBytecode.sourceMap"
                    ]
                }
            },
            "evmVersion": "constantinople",
            "remappings": [
                "@0x/contracts-utils=/Users/fabioberger/Documents/projects/0x_project/0x-monorepo-one/contracts/erc1155/node_modules/@0x/contracts-utils"
            ]
        }
    }
}