{
    "schemaVersion": "2.0.0",
    "contractName": "StaticCallProxy",
    "compilerOutput": {
        "abi": [
            {
                "constant": true,
                "inputs": [],
                "name": "getProxyId",
                "outputs": [
                    {
                        "name": "",
                        "type": "bytes4"
                    }
                ],
                "payable": false,
                "stateMutability": "pure",
                "type": "function"
            },
            {
                "payable": false,
                "stateMutability": "nonpayable",
                "type": "fallback"
            }
        ],
        "devdoc": {
            "methods": {
                "getProxyId()": {
                    "details": "Gets the proxy id associated with the proxy address.",
                    "return": "Proxy id."
                }
            }
        },
        "evm": {
            "bytecode": {
                "linkReferences": {},
                "object": "0x608060405234801561001057600080fd5b506103cd806100206000396000f3fe608060405234801561001057600080fd5b506004361061002b5760003560e01c8063ae25532e1461031a575b7fffffffff00000000000000000000000000000000000000000000000000000000600035167fa85e59e400000000000000000000000000000000000000000000000000000000811415610314576004803501803560206004820306606482101715610101577f08c379a0000000000000000000000000000000000000000000000000000000006000527c20000000000000000000000000000000000000000000000000000000006020527c19494e56414c49445f41535345545f444154415f4c454e475448000000604052600060605260646000fd5b60208101820136811115610180577f08c379a0000000000000000000000000000000000000000000000000000000006000527c20000000000000000000000000000000000000000000000000000000006020527c16494e56414c49445f41535345545f444154415f454e44000000000000604052600060605260646000fd5b604480840135840160248101359350838101820191018282111561022e577f08c379a0000000000000000000000000000000000000000000000000000000006000527c20000000000000000000000000000000000000000000000000000000006020527c1f494e56414c49445f5354415449435f43414c4c5f444154415f4f46466040527f534554000000000000000000000000000000000000000000000000000000000060605260646000fd5b838160003750505073ffffffffffffffffffffffffffffffffffffffff602483013516600080836000845afa3d9250826000803e8061026c57826000fd5b50506000206064820135908181031561030f577f08c379a0000000000000000000000000000000000000000000000000000000006000527c20000000000000000000000000000000000000000000000000000000006020527c1d554e45585045435445445f5354415449435f43414c4c5f524553554c6040527f540000000000000000000000000000000000000000000000000000000000000060605260646000fd5b505050005b50600080fd5b610322610357565b604080517fffffffff000000000000000000000000000000000000000000000000000000009092168252519081900360200190f35b60006040518080610378602191396021019050604051809103902090509056fe53746174696343616c6c28616464726573732c62797465732c6279746573333229a265627a7a723058208fed7c742a650c0c3b776c37acdceb512197aeb68e4aba4578a8fef09e67ddb164736f6c634300050a0032",
                "opcodes": "PUSH1 0x80 PUSH1 0x40 MSTORE CALLVALUE DUP1 ISZERO PUSH2 0x10 JUMPI PUSH1 0x0 DUP1 REVERT JUMPDEST POP PUSH2 0x3CD DUP1 PUSH2 0x20 PUSH1 0x0 CODECOPY PUSH1 0x0 RETURN INVALID PUSH1 0x80 PUSH1 0x40 MSTORE CALLVALUE DUP1 ISZERO PUSH2 0x10 JUMPI PUSH1 0x0 DUP1 REVERT JUMPDEST POP PUSH1 0x4 CALLDATASIZE LT PUSH2 0x2B JUMPI PUSH1 0x0 CALLDATALOAD PUSH1 0xE0 SHR DUP1 PUSH4 0xAE25532E EQ PUSH2 0x31A JUMPI JUMPDEST PUSH32 0xFFFFFFFF00000000000000000000000000000000000000000000000000000000 PUSH1 0x0 CALLDATALOAD AND PUSH32 0xA85E59E400000000000000000000000000000000000000000000000000000000 DUP2 EQ ISZERO PUSH2 0x314 JUMPI PUSH1 0x4 DUP1 CALLDATALOAD ADD DUP1 CALLDATALOAD PUSH1 0x20 PUSH1 0x4 DUP3 SUB MOD PUSH1 0x64 DUP3 LT OR ISZERO PUSH2 0x101 JUMPI PUSH32 0x8C379A000000000000000000000000000000000000000000000000000000000 PUSH1 0x0 MSTORE PUSH29 0x2000000000000000000000000000000000000000000000000000000000 PUSH1 0x20 MSTORE PUSH29 0x19494E56414C49445F41535345545F444154415F4C454E475448000000 PUSH1 0x40 MSTORE PUSH1 0x0 PUSH1 0x60 MSTORE PUSH1 0x64 PUSH1 0x0 REVERT JUMPDEST PUSH1 0x20 DUP2 ADD DUP3 ADD CALLDATASIZE DUP2 GT ISZERO PUSH2 0x180 JUMPI PUSH32 0x8C379A000000000000000000000000000000000000000000000000000000000 PUSH1 0x0 MSTORE PUSH29 0x2000000000000000000000000000000000000000000000000000000000 PUSH1 0x20 MSTORE PUSH29 0x16494E56414C49445F41535345545F444154415F454E44000000000000 PUSH1 0x40 MSTORE PUSH1 0x0 PUSH1 0x60 MSTORE PUSH1 0x64 PUSH1 0x0 REVERT JUMPDEST PUSH1 0x44 DUP1 DUP5 ADD CALLDATALOAD DUP5 ADD PUSH1 0x24 DUP2 ADD CALLDATALOAD SWAP4 POP DUP4 DUP2 ADD DUP3 ADD SWAP2 ADD DUP3 DUP3 GT ISZERO PUSH2 0x22E JUMPI PUSH32 0x8C379A000000000000000000000000000000000000000000000000000000000 PUSH1 0x0 MSTORE PUSH29 0x2000000000000000000000000000000000000000000000000000000000 PUSH1 0x20 MSTORE PUSH29 0x1F494E56414C49445F5354415449435F43414C4C5F444154415F4F4646 PUSH1 0x40 MSTORE PUSH32 0x5345540000000000000000000000000000000000000000000000000000000000 PUSH1 0x60 MSTORE PUSH1 0x64 PUSH1 0x0 REVERT JUMPDEST DUP4 DUP2 PUSH1 0x0 CALLDATACOPY POP POP POP PUSH20 0xFFFFFFFFFFFFFFFFFFFFFFFFFFFFFFFFFFFFFFFF PUSH1 0x24 DUP4 ADD CALLDATALOAD AND PUSH1 0x0 DUP1 DUP4 PUSH1 0x0 DUP5 GAS STATICCALL RETURNDATASIZE SWAP3 POP DUP3 PUSH1 0x0 DUP1 RETURNDATACOPY DUP1 PUSH2 0x26C JUMPI DUP3 PUSH1 0x0 REVERT JUMPDEST POP POP PUSH1 0x0 KECCAK256 PUSH1 0x64 DUP3 ADD CALLDATALOAD SWAP1 DUP2 DUP2 SUB ISZERO PUSH2 0x30F JUMPI PUSH32 0x8C379A000000000000000000000000000000000000000000000000000000000 PUSH1 0x0 MSTORE PUSH29 0x2000000000000000000000000000000000000000000000000000000000 PUSH1 0x20 MSTORE PUSH29 0x1D554E45585045435445445F5354415449435F43414C4C5F524553554C PUSH1 0x40 MSTORE PUSH32 0x5400000000000000000000000000000000000000000000000000000000000000 PUSH1 0x60 MSTORE PUSH1 0x64 PUSH1 0x0 REVERT JUMPDEST POP POP POP STOP JUMPDEST POP PUSH1 0x0 DUP1 REVERT JUMPDEST PUSH2 0x322 PUSH2 0x357 JUMP JUMPDEST PUSH1 0x40 DUP1 MLOAD PUSH32 0xFFFFFFFF00000000000000000000000000000000000000000000000000000000 SWAP1 SWAP3 AND DUP3 MSTORE MLOAD SWAP1 DUP2 SWAP1 SUB PUSH1 0x20 ADD SWAP1 RETURN JUMPDEST PUSH1 0x0 PUSH1 0x40 MLOAD DUP1 DUP1 PUSH2 0x378 PUSH1 0x21 SWAP2 CODECOPY PUSH1 0x21 ADD SWAP1 POP PUSH1 0x40 MLOAD DUP1 SWAP2 SUB SWAP1 KECCAK256 SWAP1 POP SWAP1 JUMP INVALID MSTORE8 PUSH21 0x6174696343616C6C28616464726573732C62797465 PUSH20 0x2C6279746573333229A265627A7A723058208FED PUSH29 0x742A650C0C3B776C37ACDCEB512197AEB68E4ABA4578A8FEF09E67DDB1 PUSH5 0x736F6C6343 STOP SDIV EXP STOP ORIGIN "
            }
        }
    },
    "sourceTreeHashHex": "0x6c3ee7c5a78c63061d57c12337e23d71c254dd9244bd91f186e379e9c824be5d",
    "compiler": {
        "name": "solc",
        "version": "soljson-v0.5.10+commit.5a6ea5b1.js",
        "settings": {
            "optimizer": {
                "enabled": true,
                "runs": 1000000,
                "details": {
                    "yul": true,
                    "deduplicate": true,
                    "cse": true,
                    "constantOptimizer": true
                }
            },
            "outputSelection": {
                "*": {
                    "*": [
                        "abi",
                        "devdoc",
                        "evm.bytecode.object",
                        "evm.bytecode.sourceMap",
                        "evm.deployedBytecode.object",
                        "evm.deployedBytecode.sourceMap"
                    ]
                }
            },
            "evmVersion": "constantinople",
            "remappings": [
                "@0x/contracts-utils=/Users/fabioberger/Documents/projects/0x_project/0x-monorepo-one/contracts/asset-proxy/node_modules/@0x/contracts-utils"
            ]
        }
    }
}