{
	"schemaVersion": "2.0.0",
	"contractName": "ERC1155Mintable",
	"compilerOutput": {
		"abi": [
			{
				"constant": true,
				"inputs": [
					{
						"name": "owner",
						"type": "address"
					},
					{
						"name": "id",
						"type": "uint256"
					}
				],
				"name": "balanceOf",
				"outputs": [
					{
						"name": "",
						"type": "uint256"
					}
				],
				"payable": false,
				"stateMutability": "view",
				"type": "function"
			},
			{
				"constant": true,
				"inputs": [
					{
						"name": "",
						"type": "uint256"
					}
				],
				"name": "maxIndex",
				"outputs": [
					{
						"name": "",
						"type": "uint256"
					}
				],
				"payable": false,
				"stateMutability": "view",
				"type": "function"
			},
			{
				"constant": false,
				"inputs": [
					{
						"name": "from",
						"type": "address"
					},
					{
						"name": "to",
						"type": "address"
					},
					{
						"name": "ids",
						"type": "uint256[]"
					},
					{
						"name": "values",
						"type": "uint256[]"
					},
					{
						"name": "data",
						"type": "bytes"
					}
				],
				"name": "safeBatchTransferFrom",
				"outputs": [],
				"payable": false,
				"stateMutability": "nonpayable",
				"type": "function"
			},
			{
				"constant": true,
				"inputs": [
					{
						"name": "owners",
						"type": "address[]"
					},
					{
						"name": "ids",
						"type": "uint256[]"
					}
				],
				"name": "balanceOfBatch",
				"outputs": [
					{
						"name": "balances_",
						"type": "uint256[]"
					}
				],
				"payable": false,
				"stateMutability": "view",
				"type": "function"
			},
			{
				"constant": true,
				"inputs": [
					{
						"name": "id",
						"type": "uint256"
					}
				],
				"name": "isNonFungibleItem",
				"outputs": [
					{
						"name": "",
						"type": "bool"
					}
				],
				"payable": false,
				"stateMutability": "pure",
				"type": "function"
			},
			{
				"constant": true,
				"inputs": [
					{
						"name": "id",
						"type": "uint256"
					}
				],
				"name": "ownerOf",
				"outputs": [
					{
						"name": "",
						"type": "address"
					}
				],
				"payable": false,
				"stateMutability": "view",
				"type": "function"
			},
			{
				"constant": true,
				"inputs": [
					{
						"name": "id",
						"type": "uint256"
					}
				],
				"name": "getNonFungibleBaseType",
				"outputs": [
					{
						"name": "",
						"type": "uint256"
					}
				],
				"payable": false,
				"stateMutability": "pure",
				"type": "function"
			},
			{
				"constant": true,
				"inputs": [
					{
						"name": "id",
						"type": "uint256"
					}
				],
				"name": "isNonFungibleBaseType",
				"outputs": [
					{
						"name": "",
						"type": "bool"
					}
				],
				"payable": false,
				"stateMutability": "pure",
				"type": "function"
			},
			{
				"constant": false,
				"inputs": [
					{
						"name": "id",
						"type": "uint256"
					},
					{
						"name": "to",
						"type": "address[]"
					},
					{
						"name": "quantities",
						"type": "uint256[]"
					}
				],
				"name": "mintFungible",
				"outputs": [],
				"payable": false,
				"stateMutability": "nonpayable",
				"type": "function"
			},
			{
				"constant": true,
				"inputs": [
					{
						"name": "id",
						"type": "uint256"
					}
				],
				"name": "getNonFungibleIndex",
				"outputs": [
					{
						"name": "",
						"type": "uint256"
					}
				],
				"payable": false,
				"stateMutability": "pure",
				"type": "function"
			},
			{
				"constant": false,
				"inputs": [
					{
						"name": "type_",
						"type": "uint256"
					},
					{
						"name": "uri",
						"type": "string"
					}
				],
				"name": "createWithType",
				"outputs": [],
				"payable": false,
				"stateMutability": "nonpayable",
				"type": "function"
			},
			{
				"constant": false,
				"inputs": [
					{
						"name": "operator",
						"type": "address"
					},
					{
						"name": "approved",
						"type": "bool"
					}
				],
				"name": "setApprovalForAll",
				"outputs": [],
				"payable": false,
				"stateMutability": "nonpayable",
				"type": "function"
			},
			{
				"constant": true,
				"inputs": [
					{
						"name": "id",
						"type": "uint256"
					}
				],
				"name": "isFungible",
				"outputs": [
					{
						"name": "",
						"type": "bool"
					}
				],
				"payable": false,
				"stateMutability": "pure",
				"type": "function"
			},
			{
				"constant": false,
				"inputs": [
					{
						"name": "uri",
						"type": "string"
					},
					{
						"name": "isNF",
						"type": "bool"
					}
				],
				"name": "create",
				"outputs": [
					{
						"name": "type_",
						"type": "uint256"
					}
				],
				"payable": false,
				"stateMutability": "nonpayable",
				"type": "function"
			},
			{
				"constant": true,
				"inputs": [
					{
						"name": "",
						"type": "uint256"
					}
				],
				"name": "creators",
				"outputs": [
					{
						"name": "",
						"type": "address"
					}
				],
				"payable": false,
				"stateMutability": "view",
				"type": "function"
			},
			{
				"constant": true,
				"inputs": [],
				"name": "ERC1155_RECEIVED",
				"outputs": [
					{
						"name": "",
						"type": "bytes4"
					}
				],
				"payable": false,
				"stateMutability": "view",
				"type": "function"
			},
			{
				"constant": true,
				"inputs": [
					{
						"name": "id",
						"type": "uint256"
					}
				],
				"name": "isNonFungible",
				"outputs": [
					{
						"name": "",
						"type": "bool"
					}
				],
				"payable": false,
				"stateMutability": "pure",
				"type": "function"
			},
			{
				"constant": true,
				"inputs": [
					{
						"name": "owner",
						"type": "address"
					},
					{
						"name": "operator",
						"type": "address"
					}
				],
				"name": "isApprovedForAll",
				"outputs": [
					{
						"name": "",
						"type": "bool"
					}
				],
				"payable": false,
				"stateMutability": "view",
				"type": "function"
			},
			{
				"constant": false,
				"inputs": [
					{
						"name": "from",
						"type": "address"
					},
					{
						"name": "to",
						"type": "address"
					},
					{
						"name": "id",
						"type": "uint256"
					},
					{
						"name": "value",
						"type": "uint256"
					},
					{
						"name": "data",
						"type": "bytes"
					}
				],
				"name": "safeTransferFrom",
				"outputs": [],
				"payable": false,
				"stateMutability": "nonpayable",
				"type": "function"
			},
			{
				"constant": false,
				"inputs": [
					{
						"name": "type_",
						"type": "uint256"
					},
					{
						"name": "to",
						"type": "address[]"
					}
				],
				"name": "mintNonFungible",
				"outputs": [],
				"payable": false,
				"stateMutability": "nonpayable",
				"type": "function"
			},
			{
				"constant": true,
				"inputs": [],
				"name": "ERC1155_BATCH_RECEIVED",
				"outputs": [
					{
						"name": "",
						"type": "bytes4"
					}
				],
				"payable": false,
				"stateMutability": "view",
				"type": "function"
			},
			{
				"anonymous": false,
				"inputs": [
					{
						"indexed": true,
						"name": "operator",
						"type": "address"
					},
					{
						"indexed": true,
						"name": "from",
						"type": "address"
					},
					{
						"indexed": true,
						"name": "to",
						"type": "address"
					},
					{
						"indexed": false,
						"name": "id",
						"type": "uint256"
					},
					{
						"indexed": false,
						"name": "value",
						"type": "uint256"
					}
				],
				"name": "TransferSingle",
				"type": "event"
			},
			{
				"anonymous": false,
				"inputs": [
					{
						"indexed": true,
						"name": "operator",
						"type": "address"
					},
					{
						"indexed": true,
						"name": "from",
						"type": "address"
					},
					{
						"indexed": true,
						"name": "to",
						"type": "address"
					},
					{
						"indexed": false,
						"name": "ids",
						"type": "uint256[]"
					},
					{
						"indexed": false,
						"name": "values",
						"type": "uint256[]"
					}
				],
				"name": "TransferBatch",
				"type": "event"
			},
			{
				"anonymous": false,
				"inputs": [
					{
						"indexed": true,
						"name": "owner",
						"type": "address"
					},
					{
						"indexed": true,
						"name": "operator",
						"type": "address"
					},
					{
						"indexed": false,
						"name": "approved",
						"type": "bool"
					}
				],
				"name": "ApprovalForAll",
				"type": "event"
			},
			{
				"anonymous": false,
				"inputs": [
					{
						"indexed": false,
						"name": "value",
						"type": "string"
					},
					{
						"indexed": true,
						"name": "id",
						"type": "uint256"
					}
				],
				"name": "URI",
				"type": "event"
			}
		],
		"devdoc": {
			"details": "Mintable form of ERC1155 Shows how easy it is to mint new items",
			"methods": {
				"balanceOf(address,uint256)": {
					"params": {
						"id": "ID of the Token",
						"owner": "The address of the token holder"
					},
					"return": "The _owner's balance of the Token type requested"
				},
				"balanceOfBatch(address[],uint256[])": {
					"params": {
						"ids": "ID of the Tokens",
						"owners": "The addresses of the token holders"
					},
					"return": "The _owner's balance of the Token types requested"
				},
				"create(string,bool)": {
					"details": "creates a new token",
					"params": {
						"isNF": "is non-fungible token",
						"uri": "URI of token"
					},
					"return": "type_ of token (a unique identifier)"
				},
				"createWithType(uint256,string)": {
					"details": "creates a new token",
					"params": {
						"type_": "of token",
						"uri": "URI of token"
					}
				},
				"getNonFungibleBaseType(uint256)": {
					"details": "Returns base type of non-fungible token"
				},
				"getNonFungibleIndex(uint256)": {
					"details": "Returns index of non-fungible token"
				},
				"isApprovedForAll(address,address)": {
					"params": {
						"operator": "Address of authorized operator",
						"owner": "The owner of the Tokens"
					},
					"return": "True if the operator is approved, false if not"
				},
				"isFungible(uint256)": {
					"details": "Returns true if token is fungible"
				},
				"isNonFungible(uint256)": {
					"details": "Returns true if token is non-fungible"
				},
				"isNonFungibleBaseType(uint256)": {
					"details": "Returns true if input is base-type of a non-fungible token"
				},
				"isNonFungibleItem(uint256)": {
					"details": "Returns true if input is a non-fungible token"
				},
				"mintFungible(uint256,address[],uint256[])": {
					"details": "mints fungible tokens",
					"params": {
						"id": "token type",
						"quantities": "amounts of minted tokens",
						"to": "beneficiaries of minted tokens"
					}
				},
				"mintNonFungible(uint256,address[])": {
					"details": "mints a non-fungible token",
					"params": {
						"to": "beneficiaries of minted tokens",
						"type_": "token type"
					}
				},
				"ownerOf(uint256)": {
					"details": "returns owner of a non-fungible token"
				},
				"safeBatchTransferFrom(address,address,uint256[],uint256[],bytes)": {
					"details": "MUST emit TransferBatch event on success. Caller must be approved to manage the _from account's tokens (see isApprovedForAll). MUST throw if `_to` is the zero address. MUST throw if length of `_ids` is not the same as length of `_values`.  MUST throw if any of the balance of sender for token `_ids` is lower than the respective `_values` sent. MUST throw on any other error. When transfer is complete, this function MUST check if `_to` is a smart contract (code size > 0). If so, it MUST call `onERC1155BatchReceived` on `_to` and revert if the return value is not `bytes4(keccak256(\"onERC1155BatchReceived(address,address,uint256[],uint256[],bytes)\"))`.",
					"params": {
						"data": "Additional data with no specified format, sent in call to `_to`",
						"from": "Source addresses",
						"ids": "IDs of each token type",
						"to": "Target addresses",
						"values": "Transfer amounts per token type"
					}
				},
				"safeTransferFrom(address,address,uint256,uint256,bytes)": {
					"details": "MUST emit TransferSingle event on success. Caller must be approved to manage the _from account's tokens (see isApprovedForAll). MUST throw if `_to` is the zero address. MUST throw if balance of sender for token `_id` is lower than the `_value` sent. MUST throw on any other error. When transfer is complete, this function MUST check if `_to` is a smart contract (code size > 0). If so, it MUST call `onERC1155Received` on `_to` and revert if the return value is not `bytes4(keccak256(\"onERC1155Received(address,address,uint256,uint256,bytes)\"))`.",
					"params": {
						"data": "Additional data with no specified format, sent in call to `_to`",
						"from": "Source address",
						"id": "ID of the token type",
						"to": "Target address",
						"value": "Transfer amount"
					}
				},
				"setApprovalForAll(address,bool)": {
					"details": "MUST emit the ApprovalForAll event on success.",
					"params": {
						"approved": "True if the operator is approved, false to revoke approval",
						"operator": "Address to add to the set of authorized operators"
					}
				}
			}
		},
		"evm": {
			"bytecode": {
				"linkReferences": {},
				"object": "0x608060405234801561001057600080fd5b506125f3806100206000396000f3fe608060405234801561001057600080fd5b50600436106101765760003560e01c80639f4b286a116100d8578063e0a5c9491161008c578063f242432a11610066578063f242432a146107bb578063f94190881461085d578063fc67bf1c146108d457610176565b8063e0a5c94914610726578063e44591f014610763578063e985e9c51461078057610176565b8063adebf6f2116100bd578063adebf6f21461067a578063cc10e40114610697578063cd53d08e1461070957610176565b80639f4b286a146105c8578063a22cb4651461063f57610176565b80636352211e1161012f5780637269a327116101145780637269a327146104c557806378b27221146104e25780639cca1c64146105ab57610176565b80636352211e146104625780636f969c2d146104a857610176565b80632eb2c2d6116101605780632eb2c2d6146101e35780634e1273f41461031f5780635e81b9581461043157610176565b8062fdd58e1461017b57806308d7d469146101c6575b600080fd5b6101b46004803603604081101561019157600080fd5b5073ffffffffffffffffffffffffffffffffffffffff81351690602001356108dc565b60408051918252519081900360200190f35b6101b4600480360360208110156101dc57600080fd5b5035610966565b61031d600480360360a08110156101f957600080fd5b73ffffffffffffffffffffffffffffffffffffffff823581169260208101359091169181019060608101604082013564010000000081111561023a57600080fd5b82018360208201111561024c57600080fd5b8035906020019184602083028401116401000000008311171561026e57600080fd5b91939092909160208101903564010000000081111561028c57600080fd5b82018360208201111561029e57600080fd5b803590602001918460208302840111640100000000831117156102c057600080fd5b9193909290916020810190356401000000008111156102de57600080fd5b8201836020820111156102f057600080fd5b8035906020019184600183028401116401000000008311171561031257600080fd5b509092509050610978565b005b6103e16004803603604081101561033557600080fd5b81019060208101813564010000000081111561035057600080fd5b82018360208201111561036257600080fd5b8035906020019184602083028401116401000000008311171561038457600080fd5b9193909290916020810190356401000000008111156103a257600080fd5b8201836020820111156103b457600080fd5b803590602001918460208302840111640100000000831117156103d657600080fd5b509092509050611192565b60408051602080825283518183015283519192839290830191858101910280838360005b8381101561041d578181015183820152602001610405565b505050509050019250505060405180910390f35b61044e6004803603602081101561044757600080fd5b5035611357565b604080519115158252519081900360200190f35b61047f6004803603602081101561047857600080fd5b503561139d565b6040805173ffffffffffffffffffffffffffffffffffffffff9092168252519081900360200190f35b6101b4600480360360208110156104be57600080fd5b50356113c5565b61044e600480360360208110156104db57600080fd5b50356113ea565b61031d600480360360608110156104f857600080fd5b8135919081019060408101602082013564010000000081111561051a57600080fd5b82018360208201111561052c57600080fd5b8035906020019184602083028401116401000000008311171561054e57600080fd5b91939092909160208101903564010000000081111561056c57600080fd5b82018360208201111561057e57600080fd5b803590602001918460208302840111640100000000831117156105a057600080fd5b50909250905061142f565b6101b4600480360360208110156105c157600080fd5b5035611760565b61031d600480360360408110156105de57600080fd5b8135919081019060408101602082013564010000000081111561060057600080fd5b82018360208201111561061257600080fd5b8035906020019184600183028401116401000000008311171561063457600080fd5b509092509050611775565b61031d6004803603604081101561065557600080fd5b5073ffffffffffffffffffffffffffffffffffffffff81351690602001351515611875565b61044e6004803603602081101561069057600080fd5b503561190e565b6101b4600480360360408110156106ad57600080fd5b8101906020810181356401000000008111156106c857600080fd5b8201836020820111156106da57600080fd5b803590602001918460018302840111640100000000831117156106fc57600080fd5b9193509150351515611934565b61047f6004803603602081101561071f57600080fd5b5035611a6d565b61072e611a95565b604080517fffffffff000000000000000000000000000000000000000000000000000000009092168252519081900360200190f35b61044e6004803603602081101561077957600080fd5b5035611ab9565b61044e6004803603604081101561079657600080fd5b5073ffffffffffffffffffffffffffffffffffffffff81358116916020013516611ae1565b61031d600480360360a08110156107d157600080fd5b73ffffffffffffffffffffffffffffffffffffffff823581169260208101359091169160408201359160608101359181019060a08101608082013564010000000081111561081e57600080fd5b82018360208201111561083057600080fd5b8035906020019184600183028401116401000000008311171561085257600080fd5b509092509050611b1c565b61031d6004803603604081101561087357600080fd5b8135919081019060408101602082013564010000000081111561089557600080fd5b8201836020820111156108a757600080fd5b803590602001918460208302840111640100000000831117156108c957600080fd5b5090925090506120fb565b61072e61242b565b60006108e782611357565b1561092e5760008281526020819052604090205473ffffffffffffffffffffffffffffffffffffffff848116911614610921576000610924565b60015b60ff169050610960565b50600081815260016020908152604080832073ffffffffffffffffffffffffffffffffffffffff861684529091529020545b92915050565b60056020526000908152604090205481565b73ffffffffffffffffffffffffffffffffffffffff87166109fa57604080517f08c379a000000000000000000000000000000000000000000000000000000000815260206004820152601f60248201527f43414e4e4f545f5452414e534645525f544f5f414444524553535f5a45524f00604482015290519081900360640190fd5b848314610a6857604080517f08c379a000000000000000000000000000000000000000000000000000000000815260206004820181905260248201527f544f4b454e5f414e445f56414c5545535f4c454e4754485f4d49534d41544348604482015290519081900360640190fd5b73ffffffffffffffffffffffffffffffffffffffff8816331480610ac1575073ffffffffffffffffffffffffffffffffffffffff8816600090815260026020908152604080832033845290915290205460ff1615156001145b610b2c57604080517f08c379a000000000000000000000000000000000000000000000000000000000815260206004820152601660248201527f494e53554646494349454e545f414c4c4f57414e434500000000000000000000604482015290519081900360640190fd5b60005b85811015610deb576000878783818110610b4557fe5b9050602002013590506000868684818110610b5c57fe5b905060200201359050610b6e82611ab9565b15610cc85780600114610be257604080517f08c379a000000000000000000000000000000000000000000000000000000000815260206004820152601c60248201527f414d4f554e545f455155414c5f544f5f4f4e455f524551554952454400000000604482015290519081900360640190fd5b60008281526020819052604090205473ffffffffffffffffffffffffffffffffffffffff8c8116911614610c7757604080517f08c379a000000000000000000000000000000000000000000000000000000000815260206004820152601d60248201527f4e46545f4e4f545f4f574e45445f42595f46524f4d5f41444452455353000000604482015290519081900360640190fd5b600082815260208190526040902080547fffffffffffffffffffffffff00000000000000000000000000000000000000001673ffffffffffffffffffffffffffffffffffffffff8c16179055610de1565b600082815260016020908152604080832073ffffffffffffffffffffffffffffffffffffffff8f168452909152902054610d02908261244f565b6001600084815260200190815260200160002060008d73ffffffffffffffffffffffffffffffffffffffff1673ffffffffffffffffffffffffffffffffffffffff16815260200190815260200160002081905550610db06001600084815260200190815260200160002060008c73ffffffffffffffffffffffffffffffffffffffff1673ffffffffffffffffffffffffffffffffffffffff16815260200190815260200160002054826124c6565b600083815260016020908152604080832073ffffffffffffffffffffffffffffffffffffffff8f1684529091529020555b5050600101610b2f565b508673ffffffffffffffffffffffffffffffffffffffff168873ffffffffffffffffffffffffffffffffffffffff163373ffffffffffffffffffffffffffffffffffffffff167f4a39dc06d4c0dbc64b70af90fd698a233a518aa5d07e595d983b8c0526c8f7fb898989896040518080602001806020018381038352878782818152602001925060200280828437600083820152601f017fffffffffffffffffffffffffffffffffffffffffffffffffffffffffffffffe0169091018481038352858152602090810191508690860280828437600083820152604051601f9091017fffffffffffffffffffffffffffffffffffffffffffffffffffffffffffffffe0169092018290039850909650505050505050a4610f1f8773ffffffffffffffffffffffffffffffffffffffff1661253a565b156111885760008773ffffffffffffffffffffffffffffffffffffffff1663bc197c81338b8a8a8a8a8a8a6040518963ffffffff1660e01b8152600401808973ffffffffffffffffffffffffffffffffffffffff1673ffffffffffffffffffffffffffffffffffffffff1681526020018873ffffffffffffffffffffffffffffffffffffffff1673ffffffffffffffffffffffffffffffffffffffff16815260200180602001806020018060200184810384528a8a82818152602001925060200280828437600083820152601f017fffffffffffffffffffffffffffffffffffffffffffffffffffffffffffffffe0169091018581038452888152602090810191508990890280828437600083820152601f017fffffffffffffffffffffffffffffffffffffffffffffffffffffffffffffffe01690910185810383528681526020019050868680828437600081840152601f19601f8201169050808301925050509b505050505050505050505050602060405180830381600087803b1580156110a857600080fd5b505af11580156110bc573d6000803e3d6000fd5b505050506040513d60208110156110d257600080fd5b505190507fffffffff0000000000000000000000000000000000000000000000000000000081167fbc197c81000000000000000000000000000000000000000000000000000000001461118657604080517f08c379a000000000000000000000000000000000000000000000000000000000815260206004820152601960248201527f4241445f52454345495645525f52455455524e5f56414c554500000000000000604482015290519081900360640190fd5b505b5050505050505050565b60608382146111ec576040517f08c379a000000000000000000000000000000000000000000000000000000000815260040180806020018281038252602481526020018061256e6024913960400191505060405180910390fd5b604080518581526020808702820101909152848015611215578160200160208202803883390190505b50905060005b8481101561134e57600084848381811061123157fe5b90506020020135905061124381611357565b156112b95786868381811061125457fe5b600084815260208181526040909120549102929092013573ffffffffffffffffffffffffffffffffffffffff9081169216919091149050611296576000611299565b60015b60ff168383815181106112a857fe5b602002602001018181525050611345565b6000818152600160205260408120908888858181106112d457fe5b9050602002013573ffffffffffffffffffffffffffffffffffffffff1673ffffffffffffffffffffffffffffffffffffffff1673ffffffffffffffffffffffffffffffffffffffff1681526020019081526020016000205483838151811061133857fe5b6020026020010181815250505b5060010161121b565b50949350505050565b60007f80000000000000000000000000000000000000000000000000000000000000008083161480156109605750506fffffffffffffffffffffffffffffffff16151590565b60009081526020819052604090205473ffffffffffffffffffffffffffffffffffffffff1690565b7fffffffffffffffffffffffffffffffff000000000000000000000000000000001690565b60007f80000000000000000000000000000000000000000000000000000000000000008083161480156109605750506fffffffffffffffffffffffffffffffff161590565b600085815260046020526040902054859073ffffffffffffffffffffffffffffffffffffffff16331461146157600080fd5b61146a8661190e565b6114bf576040517f08c379a000000000000000000000000000000000000000000000000000000000815260040180806020018281038252602d815260200180612592602d913960400191505060405180910390fd5b60005b848110156117575760008686838181106114d857fe5b9050602002013573ffffffffffffffffffffffffffffffffffffffff169050600085858481811061150557fe5b60008c815260016020908152604080832073ffffffffffffffffffffffffffffffffffffffff8916845282529091205491029290920135925061154a918391506124c6565b60008a815260016020908152604080832073ffffffffffffffffffffffffffffffffffffffff87168085529083528184209490945580518d8152918201859052805133927fc3d58168c5ae7397731d063d5bbf3d657854427343f4c083240f7aacaa2d0f6292908290030190a46115d68273ffffffffffffffffffffffffffffffffffffffff1661253a565b1561174d57604080517ff23a6e6100000000000000000000000000000000000000000000000000000000815233600482018190526024820152604481018b90526064810183905260a06084820152600060a48201819052915173ffffffffffffffffffffffffffffffffffffffff85169163f23a6e619160e480830192602092919082900301818787803b15801561166d57600080fd5b505af1158015611681573d6000803e3d6000fd5b505050506040513d602081101561169757600080fd5b505190507fffffffff0000000000000000000000000000000000000000000000000000000081167ff23a6e61000000000000000000000000000000000000000000000000000000001461174b57604080517f08c379a000000000000000000000000000000000000000000000000000000000815260206004820152601960248201527f4241445f52454345495645525f52455455524e5f56414c554500000000000000604482015290519081900360640190fd5b505b50506001016114c2565b50505050505050565b6fffffffffffffffffffffffffffffffff1690565b600083815260046020908152604080832080547fffffffffffffffffffffffff0000000000000000000000000000000000000000163390811790915581518781529283018490528151849391927fc3d58168c5ae7397731d063d5bbf3d657854427343f4c083240f7aacaa2d0f62928290030190a4801561187057827f6bb7ff708619ba0610cba295a58592e0451dee2622938c8755667688daf3529b838360405180806020018281038252848482818152602001925080828437600083820152604051601f9091017fffffffffffffffffffffffffffffffffffffffffffffffffffffffffffffffe0169092018290039550909350505050a25b505050565b33600081815260026020908152604080832073ffffffffffffffffffffffffffffffffffffffff87168085529083529281902080547fffffffffffffffffffffffffffffffffffffffffffffffffffffffffffffff0016861515908117909155815190815290519293927f17307eab39ab6107e8899845ad3d59bd9653f200f220920489ca2b5937696c31929181900390910190a35050565b7f8000000000000000000000000000000000000000000000000000000000000000161590565b600380546001019081905560801b811561196b577f8000000000000000000000000000000000000000000000000000000000000000175b600081815260046020908152604080832080547fffffffffffffffffffffffff0000000000000000000000000000000000000000163390811790915581518581529283018490528151849391927fc3d58168c5ae7397731d063d5bbf3d657854427343f4c083240f7aacaa2d0f62928290030190a48215611a6657807f6bb7ff708619ba0610cba295a58592e0451dee2622938c8755667688daf3529b858560405180806020018281038252848482818152602001925080828437600083820152604051601f9091017fffffffffffffffffffffffffffffffffffffffffffffffffffffffffffffffe0169092018290039550909350505050a25b9392505050565b60046020526000908152604090205473ffffffffffffffffffffffffffffffffffffffff1681565b7ff23a6e610000000000000000000000000000000000000000000000000000000081565b7f80000000000000000000000000000000000000000000000000000000000000009081161490565b73ffffffffffffffffffffffffffffffffffffffff918216600090815260026020908152604080832093909416825291909152205460ff1690565b73ffffffffffffffffffffffffffffffffffffffff8516611b9e57604080517f08c379a000000000000000000000000000000000000000000000000000000000815260206004820152601f60248201527f43414e4e4f545f5452414e534645525f544f5f414444524553535f5a45524f00604482015290519081900360640190fd5b73ffffffffffffffffffffffffffffffffffffffff8616331480611bf7575073ffffffffffffffffffffffffffffffffffffffff8616600090815260026020908152604080832033845290915290205460ff1615156001145b611c6257604080517f08c379a000000000000000000000000000000000000000000000000000000000815260206004820152601660248201527f494e53554646494349454e545f414c4c4f57414e434500000000000000000000604482015290519081900360640190fd5b611c6b84611ab9565b15611dc55782600114611cdf57604080517f08c379a000000000000000000000000000000000000000000000000000000000815260206004820152601c60248201527f414d4f554e545f455155414c5f544f5f4f4e455f524551554952454400000000604482015290519081900360640190fd5b60008481526020819052604090205473ffffffffffffffffffffffffffffffffffffffff878116911614611d7457604080517f08c379a000000000000000000000000000000000000000000000000000000000815260206004820152601d60248201527f4e46545f4e4f545f4f574e45445f42595f46524f4d5f41444452455353000000604482015290519081900360640190fd5b600084815260208190526040902080547fffffffffffffffffffffffff00000000000000000000000000000000000000001673ffffffffffffffffffffffffffffffffffffffff8716179055611e74565b600084815260016020908152604080832073ffffffffffffffffffffffffffffffffffffffff8a168452909152902054611dff908461244f565b600085815260016020908152604080832073ffffffffffffffffffffffffffffffffffffffff8b81168552925280832093909355871681522054611e4390846124c6565b600085815260016020908152604080832073ffffffffffffffffffffffffffffffffffffffff8a1684529091529020555b8473ffffffffffffffffffffffffffffffffffffffff168673ffffffffffffffffffffffffffffffffffffffff163373ffffffffffffffffffffffffffffffffffffffff167fc3d58168c5ae7397731d063d5bbf3d657854427343f4c083240f7aacaa2d0f628787604051808381526020018281526020019250505060405180910390a4611f178573ffffffffffffffffffffffffffffffffffffffff1661253a565b156120f35760008573ffffffffffffffffffffffffffffffffffffffff1663f23a6e613389888888886040518763ffffffff1660e01b8152600401808773ffffffffffffffffffffffffffffffffffffffff1673ffffffffffffffffffffffffffffffffffffffff1681526020018673ffffffffffffffffffffffffffffffffffffffff1673ffffffffffffffffffffffffffffffffffffffff168152602001858152602001848152602001806020018281038252848482818152602001925080828437600081840152601f19601f820116905080830192505050975050505050505050602060405180830381600087803b15801561201557600080fd5b505af1158015612029573d6000803e3d6000fd5b505050506040513d602081101561203f57600080fd5b505190507fffffffff0000000000000000000000000000000000000000000000000000000081167ff23a6e61000000000000000000000000000000000000000000000000000000001461175757604080517f08c379a000000000000000000000000000000000000000000000000000000000815260206004820152601960248201527f4241445f52454345495645525f52455455524e5f56414c554500000000000000604482015290519081900360640190fd5b505050505050565b600083815260046020526040902054839073ffffffffffffffffffffffffffffffffffffffff16331461212d57600080fd5b61213684611ab9565b61218b576040517f08c379a000000000000000000000000000000000000000000000000000000000815260040180806020018281038252602d815260200180612541602d913960400191505060405180910390fd5b600084815260056020526040812054600101905b838110156123f75760008585838181106121b557fe5b8486018a176000818152602081815260408083208054958302979097013573ffffffffffffffffffffffffffffffffffffffff167fffffffffffffffffffffffff00000000000000000000000000000000000000009095168517909655855183815260019181019190915285519396509194869450909233927fc3d58168c5ae7397731d063d5bbf3d657854427343f4c083240f7aacaa2d0f6292908290030190a46122768273ffffffffffffffffffffffffffffffffffffffff1661253a565b156123ed57604080517ff23a6e6100000000000000000000000000000000000000000000000000000000815233600482018190526024820152604481018390526001606482015260a06084820152600060a48201819052915173ffffffffffffffffffffffffffffffffffffffff85169163f23a6e619160e480830192602092919082900301818787803b15801561230d57600080fd5b505af1158015612321573d6000803e3d6000fd5b505050506040513d602081101561233757600080fd5b505190507fffffffff0000000000000000000000000000000000000000000000000000000081167ff23a6e6100000000000000000000000000000000000000000000000000000000146123eb57604080517f08c379a000000000000000000000000000000000000000000000000000000000815260206004820152601960248201527f4241445f52454345495645525f52455455524e5f56414c554500000000000000604482015290519081900360640190fd5b505b505060010161219f565b506000858152600560205260409020546124129084906124c6565b6000958652600560205260409095209490945550505050565b7fbc197c810000000000000000000000000000000000000000000000000000000081565b6000828211156124c057604080517f08c379a000000000000000000000000000000000000000000000000000000000815260206004820152601160248201527f55494e543235365f554e444552464c4f57000000000000000000000000000000604482015290519081900360640190fd5b50900390565b600082820183811015611a6657604080517f08c379a000000000000000000000000000000000000000000000000000000000815260206004820152601060248201527f55494e543235365f4f564552464c4f5700000000000000000000000000000000604482015290519081900360640190fd5b3b15159056fe54524945445f544f5f4d494e545f4e4f4e5f46554e4749424c455f464f525f46554e4749424c455f544f4b454e4f574e4552535f414e445f4944535f4d5553545f484156455f53414d455f4c454e47544854524945445f544f5f4d494e545f46554e4749424c455f464f525f4e4f4e5f46554e4749424c455f544f4b454ea265627a7a723058207177c510168916d2d40b2ba599cbc5234b9502857536180da56966857482f3e664736f6c634300050a0032",
				"opcodes": "PUSH1 0x80 PUSH1 0x40 MSTORE CALLVALUE DUP1 ISZERO PUSH2 0x10 JUMPI PUSH1 0x0 DUP1 REVERT JUMPDEST POP PUSH2 0x25F3 DUP1 PUSH2 0x20 PUSH1 0x0 CODECOPY PUSH1 0x0 RETURN INVALID PUSH1 0x80 PUSH1 0x40 MSTORE CALLVALUE DUP1 ISZERO PUSH2 0x10 JUMPI PUSH1 0x0 DUP1 REVERT JUMPDEST POP PUSH1 0x4 CALLDATASIZE LT PUSH2 0x176 JUMPI PUSH1 0x0 CALLDATALOAD PUSH1 0xE0 SHR DUP1 PUSH4 0x9F4B286A GT PUSH2 0xD8 JUMPI DUP1 PUSH4 0xE0A5C949 GT PUSH2 0x8C JUMPI DUP1 PUSH4 0xF242432A GT PUSH2 0x66 JUMPI DUP1 PUSH4 0xF242432A EQ PUSH2 0x7BB JUMPI DUP1 PUSH4 0xF9419088 EQ PUSH2 0x85D JUMPI DUP1 PUSH4 0xFC67BF1C EQ PUSH2 0x8D4 JUMPI PUSH2 0x176 JUMP JUMPDEST DUP1 PUSH4 0xE0A5C949 EQ PUSH2 0x726 JUMPI DUP1 PUSH4 0xE44591F0 EQ PUSH2 0x763 JUMPI DUP1 PUSH4 0xE985E9C5 EQ PUSH2 0x780 JUMPI PUSH2 0x176 JUMP JUMPDEST DUP1 PUSH4 0xADEBF6F2 GT PUSH2 0xBD JUMPI DUP1 PUSH4 0xADEBF6F2 EQ PUSH2 0x67A JUMPI DUP1 PUSH4 0xCC10E401 EQ PUSH2 0x697 JUMPI DUP1 PUSH4 0xCD53D08E EQ PUSH2 0x709 JUMPI PUSH2 0x176 JUMP JUMPDEST DUP1 PUSH4 0x9F4B286A EQ PUSH2 0x5C8 JUMPI DUP1 PUSH4 0xA22CB465 EQ PUSH2 0x63F JUMPI PUSH2 0x176 JUMP JUMPDEST DUP1 PUSH4 0x6352211E GT PUSH2 0x12F JUMPI DUP1 PUSH4 0x7269A327 GT PUSH2 0x114 JUMPI DUP1 PUSH4 0x7269A327 EQ PUSH2 0x4C5 JUMPI DUP1 PUSH4 0x78B27221 EQ PUSH2 0x4E2 JUMPI DUP1 PUSH4 0x9CCA1C64 EQ PUSH2 0x5AB JUMPI PUSH2 0x176 JUMP JUMPDEST DUP1 PUSH4 0x6352211E EQ PUSH2 0x462 JUMPI DUP1 PUSH4 0x6F969C2D EQ PUSH2 0x4A8 JUMPI PUSH2 0x176 JUMP JUMPDEST DUP1 PUSH4 0x2EB2C2D6 GT PUSH2 0x160 JUMPI DUP1 PUSH4 0x2EB2C2D6 EQ PUSH2 0x1E3 JUMPI DUP1 PUSH4 0x4E1273F4 EQ PUSH2 0x31F JUMPI DUP1 PUSH4 0x5E81B958 EQ PUSH2 0x431 JUMPI PUSH2 0x176 JUMP JUMPDEST DUP1 PUSH3 0xFDD58E EQ PUSH2 0x17B JUMPI DUP1 PUSH4 0x8D7D469 EQ PUSH2 0x1C6 JUMPI JUMPDEST PUSH1 0x0 DUP1 REVERT JUMPDEST PUSH2 0x1B4 PUSH1 0x4 DUP1 CALLDATASIZE SUB PUSH1 0x40 DUP2 LT ISZERO PUSH2 0x191 JUMPI PUSH1 0x0 DUP1 REVERT JUMPDEST POP PUSH20 0xFFFFFFFFFFFFFFFFFFFFFFFFFFFFFFFFFFFFFFFF DUP2 CALLDATALOAD AND SWAP1 PUSH1 0x20 ADD CALLDATALOAD PUSH2 0x8DC JUMP JUMPDEST PUSH1 0x40 DUP1 MLOAD SWAP2 DUP3 MSTORE MLOAD SWAP1 DUP2 SWAP1 SUB PUSH1 0x20 ADD SWAP1 RETURN JUMPDEST PUSH2 0x1B4 PUSH1 0x4 DUP1 CALLDATASIZE SUB PUSH1 0x20 DUP2 LT ISZERO PUSH2 0x1DC JUMPI PUSH1 0x0 DUP1 REVERT JUMPDEST POP CALLDATALOAD PUSH2 0x966 JUMP JUMPDEST PUSH2 0x31D PUSH1 0x4 DUP1 CALLDATASIZE SUB PUSH1 0xA0 DUP2 LT ISZERO PUSH2 0x1F9 JUMPI PUSH1 0x0 DUP1 REVERT JUMPDEST PUSH20 0xFFFFFFFFFFFFFFFFFFFFFFFFFFFFFFFFFFFFFFFF DUP3 CALLDATALOAD DUP2 AND SWAP3 PUSH1 0x20 DUP2 ADD CALLDATALOAD SWAP1 SWAP2 AND SWAP2 DUP2 ADD SWAP1 PUSH1 0x60 DUP2 ADD PUSH1 0x40 DUP3 ADD CALLDATALOAD PUSH5 0x100000000 DUP2 GT ISZERO PUSH2 0x23A JUMPI PUSH1 0x0 DUP1 REVERT JUMPDEST DUP3 ADD DUP4 PUSH1 0x20 DUP3 ADD GT ISZERO PUSH2 0x24C JUMPI PUSH1 0x0 DUP1 REVERT JUMPDEST DUP1 CALLDATALOAD SWAP1 PUSH1 0x20 ADD SWAP2 DUP5 PUSH1 0x20 DUP4 MUL DUP5 ADD GT PUSH5 0x100000000 DUP4 GT OR ISZERO PUSH2 0x26E JUMPI PUSH1 0x0 DUP1 REVERT JUMPDEST SWAP2 SWAP4 SWAP1 SWAP3 SWAP1 SWAP2 PUSH1 0x20 DUP2 ADD SWAP1 CALLDATALOAD PUSH5 0x100000000 DUP2 GT ISZERO PUSH2 0x28C JUMPI PUSH1 0x0 DUP1 REVERT JUMPDEST DUP3 ADD DUP4 PUSH1 0x20 DUP3 ADD GT ISZERO PUSH2 0x29E JUMPI PUSH1 0x0 DUP1 REVERT JUMPDEST DUP1 CALLDATALOAD SWAP1 PUSH1 0x20 ADD SWAP2 DUP5 PUSH1 0x20 DUP4 MUL DUP5 ADD GT PUSH5 0x100000000 DUP4 GT OR ISZERO PUSH2 0x2C0 JUMPI PUSH1 0x0 DUP1 REVERT JUMPDEST SWAP2 SWAP4 SWAP1 SWAP3 SWAP1 SWAP2 PUSH1 0x20 DUP2 ADD SWAP1 CALLDATALOAD PUSH5 0x100000000 DUP2 GT ISZERO PUSH2 0x2DE JUMPI PUSH1 0x0 DUP1 REVERT JUMPDEST DUP3 ADD DUP4 PUSH1 0x20 DUP3 ADD GT ISZERO PUSH2 0x2F0 JUMPI PUSH1 0x0 DUP1 REVERT JUMPDEST DUP1 CALLDATALOAD SWAP1 PUSH1 0x20 ADD SWAP2 DUP5 PUSH1 0x1 DUP4 MUL DUP5 ADD GT PUSH5 0x100000000 DUP4 GT OR ISZERO PUSH2 0x312 JUMPI PUSH1 0x0 DUP1 REVERT JUMPDEST POP SWAP1 SWAP3 POP SWAP1 POP PUSH2 0x978 JUMP JUMPDEST STOP JUMPDEST PUSH2 0x3E1 PUSH1 0x4 DUP1 CALLDATASIZE SUB PUSH1 0x40 DUP2 LT ISZERO PUSH2 0x335 JUMPI PUSH1 0x0 DUP1 REVERT JUMPDEST DUP2 ADD SWAP1 PUSH1 0x20 DUP2 ADD DUP2 CALLDATALOAD PUSH5 0x100000000 DUP2 GT ISZERO PUSH2 0x350 JUMPI PUSH1 0x0 DUP1 REVERT JUMPDEST DUP3 ADD DUP4 PUSH1 0x20 DUP3 ADD GT ISZERO PUSH2 0x362 JUMPI PUSH1 0x0 DUP1 REVERT JUMPDEST DUP1 CALLDATALOAD SWAP1 PUSH1 0x20 ADD SWAP2 DUP5 PUSH1 0x20 DUP4 MUL DUP5 ADD GT PUSH5 0x100000000 DUP4 GT OR ISZERO PUSH2 0x384 JUMPI PUSH1 0x0 DUP1 REVERT JUMPDEST SWAP2 SWAP4 SWAP1 SWAP3 SWAP1 SWAP2 PUSH1 0x20 DUP2 ADD SWAP1 CALLDATALOAD PUSH5 0x100000000 DUP2 GT ISZERO PUSH2 0x3A2 JUMPI PUSH1 0x0 DUP1 REVERT JUMPDEST DUP3 ADD DUP4 PUSH1 0x20 DUP3 ADD GT ISZERO PUSH2 0x3B4 JUMPI PUSH1 0x0 DUP1 REVERT JUMPDEST DUP1 CALLDATALOAD SWAP1 PUSH1 0x20 ADD SWAP2 DUP5 PUSH1 0x20 DUP4 MUL DUP5 ADD GT PUSH5 0x100000000 DUP4 GT OR ISZERO PUSH2 0x3D6 JUMPI PUSH1 0x0 DUP1 REVERT JUMPDEST POP SWAP1 SWAP3 POP SWAP1 POP PUSH2 0x1192 JUMP JUMPDEST PUSH1 0x40 DUP1 MLOAD PUSH1 0x20 DUP1 DUP3 MSTORE DUP4 MLOAD DUP2 DUP4 ADD MSTORE DUP4 MLOAD SWAP2 SWAP3 DUP4 SWAP3 SWAP1 DUP4 ADD SWAP2 DUP6 DUP2 ADD SWAP2 MUL DUP1 DUP4 DUP4 PUSH1 0x0 JUMPDEST DUP4 DUP2 LT ISZERO PUSH2 0x41D JUMPI DUP2 DUP2 ADD MLOAD DUP4 DUP3 ADD MSTORE PUSH1 0x20 ADD PUSH2 0x405 JUMP JUMPDEST POP POP POP POP SWAP1 POP ADD SWAP3 POP POP POP PUSH1 0x40 MLOAD DUP1 SWAP2 SUB SWAP1 RETURN JUMPDEST PUSH2 0x44E PUSH1 0x4 DUP1 CALLDATASIZE SUB PUSH1 0x20 DUP2 LT ISZERO PUSH2 0x447 JUMPI PUSH1 0x0 DUP1 REVERT JUMPDEST POP CALLDATALOAD PUSH2 0x1357 JUMP JUMPDEST PUSH1 0x40 DUP1 MLOAD SWAP2 ISZERO ISZERO DUP3 MSTORE MLOAD SWAP1 DUP2 SWAP1 SUB PUSH1 0x20 ADD SWAP1 RETURN JUMPDEST PUSH2 0x47F PUSH1 0x4 DUP1 CALLDATASIZE SUB PUSH1 0x20 DUP2 LT ISZERO PUSH2 0x478 JUMPI PUSH1 0x0 DUP1 REVERT JUMPDEST POP CALLDATALOAD PUSH2 0x139D JUMP JUMPDEST PUSH1 0x40 DUP1 MLOAD PUSH20 0xFFFFFFFFFFFFFFFFFFFFFFFFFFFFFFFFFFFFFFFF SWAP1 SWAP3 AND DUP3 MSTORE MLOAD SWAP1 DUP2 SWAP1 SUB PUSH1 0x20 ADD SWAP1 RETURN JUMPDEST PUSH2 0x1B4 PUSH1 0x4 DUP1 CALLDATASIZE SUB PUSH1 0x20 DUP2 LT ISZERO PUSH2 0x4BE JUMPI PUSH1 0x0 DUP1 REVERT JUMPDEST POP CALLDATALOAD PUSH2 0x13C5 JUMP JUMPDEST PUSH2 0x44E PUSH1 0x4 DUP1 CALLDATASIZE SUB PUSH1 0x20 DUP2 LT ISZERO PUSH2 0x4DB JUMPI PUSH1 0x0 DUP1 REVERT JUMPDEST POP CALLDATALOAD PUSH2 0x13EA JUMP JUMPDEST PUSH2 0x31D PUSH1 0x4 DUP1 CALLDATASIZE SUB PUSH1 0x60 DUP2 LT ISZERO PUSH2 0x4F8 JUMPI PUSH1 0x0 DUP1 REVERT JUMPDEST DUP2 CALLDATALOAD SWAP2 SWAP1 DUP2 ADD SWAP1 PUSH1 0x40 DUP2 ADD PUSH1 0x20 DUP3 ADD CALLDATALOAD PUSH5 0x100000000 DUP2 GT ISZERO PUSH2 0x51A JUMPI PUSH1 0x0 DUP1 REVERT JUMPDEST DUP3 ADD DUP4 PUSH1 0x20 DUP3 ADD GT ISZERO PUSH2 0x52C JUMPI PUSH1 0x0 DUP1 REVERT JUMPDEST DUP1 CALLDATALOAD SWAP1 PUSH1 0x20 ADD SWAP2 DUP5 PUSH1 0x20 DUP4 MUL DUP5 ADD GT PUSH5 0x100000000 DUP4 GT OR ISZERO PUSH2 0x54E JUMPI PUSH1 0x0 DUP1 REVERT JUMPDEST SWAP2 SWAP4 SWAP1 SWAP3 SWAP1 SWAP2 PUSH1 0x20 DUP2 ADD SWAP1 CALLDATALOAD PUSH5 0x100000000 DUP2 GT ISZERO PUSH2 0x56C JUMPI PUSH1 0x0 DUP1 REVERT JUMPDEST DUP3 ADD DUP4 PUSH1 0x20 DUP3 ADD GT ISZERO PUSH2 0x57E JUMPI PUSH1 0x0 DUP1 REVERT JUMPDEST DUP1 CALLDATALOAD SWAP1 PUSH1 0x20 ADD SWAP2 DUP5 PUSH1 0x20 DUP4 MUL DUP5 ADD GT PUSH5 0x100000000 DUP4 GT OR ISZERO PUSH2 0x5A0 JUMPI PUSH1 0x0 DUP1 REVERT JUMPDEST POP SWAP1 SWAP3 POP SWAP1 POP PUSH2 0x142F JUMP JUMPDEST PUSH2 0x1B4 PUSH1 0x4 DUP1 CALLDATASIZE SUB PUSH1 0x20 DUP2 LT ISZERO PUSH2 0x5C1 JUMPI PUSH1 0x0 DUP1 REVERT JUMPDEST POP CALLDATALOAD PUSH2 0x1760 JUMP JUMPDEST PUSH2 0x31D PUSH1 0x4 DUP1 CALLDATASIZE SUB PUSH1 0x40 DUP2 LT ISZERO PUSH2 0x5DE JUMPI PUSH1 0x0 DUP1 REVERT JUMPDEST DUP2 CALLDATALOAD SWAP2 SWAP1 DUP2 ADD SWAP1 PUSH1 0x40 DUP2 ADD PUSH1 0x20 DUP3 ADD CALLDATALOAD PUSH5 0x100000000 DUP2 GT ISZERO PUSH2 0x600 JUMPI PUSH1 0x0 DUP1 REVERT JUMPDEST DUP3 ADD DUP4 PUSH1 0x20 DUP3 ADD GT ISZERO PUSH2 0x612 JUMPI PUSH1 0x0 DUP1 REVERT JUMPDEST DUP1 CALLDATALOAD SWAP1 PUSH1 0x20 ADD SWAP2 DUP5 PUSH1 0x1 DUP4 MUL DUP5 ADD GT PUSH5 0x100000000 DUP4 GT OR ISZERO PUSH2 0x634 JUMPI PUSH1 0x0 DUP1 REVERT JUMPDEST POP SWAP1 SWAP3 POP SWAP1 POP PUSH2 0x1775 JUMP JUMPDEST PUSH2 0x31D PUSH1 0x4 DUP1 CALLDATASIZE SUB PUSH1 0x40 DUP2 LT ISZERO PUSH2 0x655 JUMPI PUSH1 0x0 DUP1 REVERT JUMPDEST POP PUSH20 0xFFFFFFFFFFFFFFFFFFFFFFFFFFFFFFFFFFFFFFFF DUP2 CALLDATALOAD AND SWAP1 PUSH1 0x20 ADD CALLDATALOAD ISZERO ISZERO PUSH2 0x1875 JUMP JUMPDEST PUSH2 0x44E PUSH1 0x4 DUP1 CALLDATASIZE SUB PUSH1 0x20 DUP2 LT ISZERO PUSH2 0x690 JUMPI PUSH1 0x0 DUP1 REVERT JUMPDEST POP CALLDATALOAD PUSH2 0x190E JUMP JUMPDEST PUSH2 0x1B4 PUSH1 0x4 DUP1 CALLDATASIZE SUB PUSH1 0x40 DUP2 LT ISZERO PUSH2 0x6AD JUMPI PUSH1 0x0 DUP1 REVERT JUMPDEST DUP2 ADD SWAP1 PUSH1 0x20 DUP2 ADD DUP2 CALLDATALOAD PUSH5 0x100000000 DUP2 GT ISZERO PUSH2 0x6C8 JUMPI PUSH1 0x0 DUP1 REVERT JUMPDEST DUP3 ADD DUP4 PUSH1 0x20 DUP3 ADD GT ISZERO PUSH2 0x6DA JUMPI PUSH1 0x0 DUP1 REVERT JUMPDEST DUP1 CALLDATALOAD SWAP1 PUSH1 0x20 ADD SWAP2 DUP5 PUSH1 0x1 DUP4 MUL DUP5 ADD GT PUSH5 0x100000000 DUP4 GT OR ISZERO PUSH2 0x6FC JUMPI PUSH1 0x0 DUP1 REVERT JUMPDEST SWAP2 SWAP4 POP SWAP2 POP CALLDATALOAD ISZERO ISZERO PUSH2 0x1934 JUMP JUMPDEST PUSH2 0x47F PUSH1 0x4 DUP1 CALLDATASIZE SUB PUSH1 0x20 DUP2 LT ISZERO PUSH2 0x71F JUMPI PUSH1 0x0 DUP1 REVERT JUMPDEST POP CALLDATALOAD PUSH2 0x1A6D JUMP JUMPDEST PUSH2 0x72E PUSH2 0x1A95 JUMP JUMPDEST PUSH1 0x40 DUP1 MLOAD PUSH32 0xFFFFFFFF00000000000000000000000000000000000000000000000000000000 SWAP1 SWAP3 AND DUP3 MSTORE MLOAD SWAP1 DUP2 SWAP1 SUB PUSH1 0x20 ADD SWAP1 RETURN JUMPDEST PUSH2 0x44E PUSH1 0x4 DUP1 CALLDATASIZE SUB PUSH1 0x20 DUP2 LT ISZERO PUSH2 0x779 JUMPI PUSH1 0x0 DUP1 REVERT JUMPDEST POP CALLDATALOAD PUSH2 0x1AB9 JUMP JUMPDEST PUSH2 0x44E PUSH1 0x4 DUP1 CALLDATASIZE SUB PUSH1 0x40 DUP2 LT ISZERO PUSH2 0x796 JUMPI PUSH1 0x0 DUP1 REVERT JUMPDEST POP PUSH20 0xFFFFFFFFFFFFFFFFFFFFFFFFFFFFFFFFFFFFFFFF DUP2 CALLDATALOAD DUP2 AND SWAP2 PUSH1 0x20 ADD CALLDATALOAD AND PUSH2 0x1AE1 JUMP JUMPDEST PUSH2 0x31D PUSH1 0x4 DUP1 CALLDATASIZE SUB PUSH1 0xA0 DUP2 LT ISZERO PUSH2 0x7D1 JUMPI PUSH1 0x0 DUP1 REVERT JUMPDEST PUSH20 0xFFFFFFFFFFFFFFFFFFFFFFFFFFFFFFFFFFFFFFFF DUP3 CALLDATALOAD DUP2 AND SWAP3 PUSH1 0x20 DUP2 ADD CALLDATALOAD SWAP1 SWAP2 AND SWAP2 PUSH1 0x40 DUP3 ADD CALLDATALOAD SWAP2 PUSH1 0x60 DUP2 ADD CALLDATALOAD SWAP2 DUP2 ADD SWAP1 PUSH1 0xA0 DUP2 ADD PUSH1 0x80 DUP3 ADD CALLDATALOAD PUSH5 0x100000000 DUP2 GT ISZERO PUSH2 0x81E JUMPI PUSH1 0x0 DUP1 REVERT JUMPDEST DUP3 ADD DUP4 PUSH1 0x20 DUP3 ADD GT ISZERO PUSH2 0x830 JUMPI PUSH1 0x0 DUP1 REVERT JUMPDEST DUP1 CALLDATALOAD SWAP1 PUSH1 0x20 ADD SWAP2 DUP5 PUSH1 0x1 DUP4 MUL DUP5 ADD GT PUSH5 0x100000000 DUP4 GT OR ISZERO PUSH2 0x852 JUMPI PUSH1 0x0 DUP1 REVERT JUMPDEST POP SWAP1 SWAP3 POP SWAP1 POP PUSH2 0x1B1C JUMP JUMPDEST PUSH2 0x31D PUSH1 0x4 DUP1 CALLDATASIZE SUB PUSH1 0x40 DUP2 LT ISZERO PUSH2 0x873 JUMPI PUSH1 0x0 DUP1 REVERT JUMPDEST DUP2 CALLDATALOAD SWAP2 SWAP1 DUP2 ADD SWAP1 PUSH1 0x40 DUP2 ADD PUSH1 0x20 DUP3 ADD CALLDATALOAD PUSH5 0x100000000 DUP2 GT ISZERO PUSH2 0x895 JUMPI PUSH1 0x0 DUP1 REVERT JUMPDEST DUP3 ADD DUP4 PUSH1 0x20 DUP3 ADD GT ISZERO PUSH2 0x8A7 JUMPI PUSH1 0x0 DUP1 REVERT JUMPDEST DUP1 CALLDATALOAD SWAP1 PUSH1 0x20 ADD SWAP2 DUP5 PUSH1 0x20 DUP4 MUL DUP5 ADD GT PUSH5 0x100000000 DUP4 GT OR ISZERO PUSH2 0x8C9 JUMPI PUSH1 0x0 DUP1 REVERT JUMPDEST POP SWAP1 SWAP3 POP SWAP1 POP PUSH2 0x20FB JUMP JUMPDEST PUSH2 0x72E PUSH2 0x242B JUMP JUMPDEST PUSH1 0x0 PUSH2 0x8E7 DUP3 PUSH2 0x1357 JUMP JUMPDEST ISZERO PUSH2 0x92E JUMPI PUSH1 0x0 DUP3 DUP2 MSTORE PUSH1 0x20 DUP2 SWAP1 MSTORE PUSH1 0x40 SWAP1 KECCAK256 SLOAD PUSH20 0xFFFFFFFFFFFFFFFFFFFFFFFFFFFFFFFFFFFFFFFF DUP5 DUP2 AND SWAP2 AND EQ PUSH2 0x921 JUMPI PUSH1 0x0 PUSH2 0x924 JUMP JUMPDEST PUSH1 0x1 JUMPDEST PUSH1 0xFF AND SWAP1 POP PUSH2 0x960 JUMP JUMPDEST POP PUSH1 0x0 DUP2 DUP2 MSTORE PUSH1 0x1 PUSH1 0x20 SWAP1 DUP2 MSTORE PUSH1 0x40 DUP1 DUP4 KECCAK256 PUSH20 0xFFFFFFFFFFFFFFFFFFFFFFFFFFFFFFFFFFFFFFFF DUP7 AND DUP5 MSTORE SWAP1 SWAP2 MSTORE SWAP1 KECCAK256 SLOAD JUMPDEST SWAP3 SWAP2 POP POP JUMP JUMPDEST PUSH1 0x5 PUSH1 0x20 MSTORE PUSH1 0x0 SWAP1 DUP2 MSTORE PUSH1 0x40 SWAP1 KECCAK256 SLOAD DUP2 JUMP JUMPDEST PUSH20 0xFFFFFFFFFFFFFFFFFFFFFFFFFFFFFFFFFFFFFFFF DUP8 AND PUSH2 0x9FA JUMPI PUSH1 0x40 DUP1 MLOAD PUSH32 0x8C379A000000000000000000000000000000000000000000000000000000000 DUP2 MSTORE PUSH1 0x20 PUSH1 0x4 DUP3 ADD MSTORE PUSH1 0x1F PUSH1 0x24 DUP3 ADD MSTORE PUSH32 0x43414E4E4F545F5452414E534645525F544F5F414444524553535F5A45524F00 PUSH1 0x44 DUP3 ADD MSTORE SWAP1 MLOAD SWAP1 DUP2 SWAP1 SUB PUSH1 0x64 ADD SWAP1 REVERT JUMPDEST DUP5 DUP4 EQ PUSH2 0xA68 JUMPI PUSH1 0x40 DUP1 MLOAD PUSH32 0x8C379A000000000000000000000000000000000000000000000000000000000 DUP2 MSTORE PUSH1 0x20 PUSH1 0x4 DUP3 ADD DUP2 SWAP1 MSTORE PUSH1 0x24 DUP3 ADD MSTORE PUSH32 0x544F4B454E5F414E445F56414C5545535F4C454E4754485F4D49534D41544348 PUSH1 0x44 DUP3 ADD MSTORE SWAP1 MLOAD SWAP1 DUP2 SWAP1 SUB PUSH1 0x64 ADD SWAP1 REVERT JUMPDEST PUSH20 0xFFFFFFFFFFFFFFFFFFFFFFFFFFFFFFFFFFFFFFFF DUP9 AND CALLER EQ DUP1 PUSH2 0xAC1 JUMPI POP PUSH20 0xFFFFFFFFFFFFFFFFFFFFFFFFFFFFFFFFFFFFFFFF DUP9 AND PUSH1 0x0 SWAP1 DUP2 MSTORE PUSH1 0x2 PUSH1 0x20 SWAP1 DUP2 MSTORE PUSH1 0x40 DUP1 DUP4 KECCAK256 CALLER DUP5 MSTORE SWAP1 SWAP2 MSTORE SWAP1 KECCAK256 SLOAD PUSH1 0xFF AND ISZERO ISZERO PUSH1 0x1 EQ JUMPDEST PUSH2 0xB2C JUMPI PUSH1 0x40 DUP1 MLOAD PUSH32 0x8C379A000000000000000000000000000000000000000000000000000000000 DUP2 MSTORE PUSH1 0x20 PUSH1 0x4 DUP3 ADD MSTORE PUSH1 0x16 PUSH1 0x24 DUP3 ADD MSTORE PUSH32 0x494E53554646494349454E545F414C4C4F57414E434500000000000000000000 PUSH1 0x44 DUP3 ADD MSTORE SWAP1 MLOAD SWAP1 DUP2 SWAP1 SUB PUSH1 0x64 ADD SWAP1 REVERT JUMPDEST PUSH1 0x0 JUMPDEST DUP6 DUP2 LT ISZERO PUSH2 0xDEB JUMPI PUSH1 0x0 DUP8 DUP8 DUP4 DUP2 DUP2 LT PUSH2 0xB45 JUMPI INVALID JUMPDEST SWAP1 POP PUSH1 0x20 MUL ADD CALLDATALOAD SWAP1 POP PUSH1 0x0 DUP7 DUP7 DUP5 DUP2 DUP2 LT PUSH2 0xB5C JUMPI INVALID JUMPDEST SWAP1 POP PUSH1 0x20 MUL ADD CALLDATALOAD SWAP1 POP PUSH2 0xB6E DUP3 PUSH2 0x1AB9 JUMP JUMPDEST ISZERO PUSH2 0xCC8 JUMPI DUP1 PUSH1 0x1 EQ PUSH2 0xBE2 JUMPI PUSH1 0x40 DUP1 MLOAD PUSH32 0x8C379A000000000000000000000000000000000000000000000000000000000 DUP2 MSTORE PUSH1 0x20 PUSH1 0x4 DUP3 ADD MSTORE PUSH1 0x1C PUSH1 0x24 DUP3 ADD MSTORE PUSH32 0x414D4F554E545F455155414C5F544F5F4F4E455F524551554952454400000000 PUSH1 0x44 DUP3 ADD MSTORE SWAP1 MLOAD SWAP1 DUP2 SWAP1 SUB PUSH1 0x64 ADD SWAP1 REVERT JUMPDEST PUSH1 0x0 DUP3 DUP2 MSTORE PUSH1 0x20 DUP2 SWAP1 MSTORE PUSH1 0x40 SWAP1 KECCAK256 SLOAD PUSH20 0xFFFFFFFFFFFFFFFFFFFFFFFFFFFFFFFFFFFFFFFF DUP13 DUP2 AND SWAP2 AND EQ PUSH2 0xC77 JUMPI PUSH1 0x40 DUP1 MLOAD PUSH32 0x8C379A000000000000000000000000000000000000000000000000000000000 DUP2 MSTORE PUSH1 0x20 PUSH1 0x4 DUP3 ADD MSTORE PUSH1 0x1D PUSH1 0x24 DUP3 ADD MSTORE PUSH32 0x4E46545F4E4F545F4F574E45445F42595F46524F4D5F41444452455353000000 PUSH1 0x44 DUP3 ADD MSTORE SWAP1 MLOAD SWAP1 DUP2 SWAP1 SUB PUSH1 0x64 ADD SWAP1 REVERT JUMPDEST PUSH1 0x0 DUP3 DUP2 MSTORE PUSH1 0x20 DUP2 SWAP1 MSTORE PUSH1 0x40 SWAP1 KECCAK256 DUP1 SLOAD PUSH32 0xFFFFFFFFFFFFFFFFFFFFFFFF0000000000000000000000000000000000000000 AND PUSH20 0xFFFFFFFFFFFFFFFFFFFFFFFFFFFFFFFFFFFFFFFF DUP13 AND OR SWAP1 SSTORE PUSH2 0xDE1 JUMP JUMPDEST PUSH1 0x0 DUP3 DUP2 MSTORE PUSH1 0x1 PUSH1 0x20 SWAP1 DUP2 MSTORE PUSH1 0x40 DUP1 DUP4 KECCAK256 PUSH20 0xFFFFFFFFFFFFFFFFFFFFFFFFFFFFFFFFFFFFFFFF DUP16 AND DUP5 MSTORE SWAP1 SWAP2 MSTORE SWAP1 KECCAK256 SLOAD PUSH2 0xD02 SWAP1 DUP3 PUSH2 0x244F JUMP JUMPDEST PUSH1 0x1 PUSH1 0x0 DUP5 DUP2 MSTORE PUSH1 0x20 ADD SWAP1 DUP2 MSTORE PUSH1 0x20 ADD PUSH1 0x0 KECCAK256 PUSH1 0x0 DUP14 PUSH20 0xFFFFFFFFFFFFFFFFFFFFFFFFFFFFFFFFFFFFFFFF AND PUSH20 0xFFFFFFFFFFFFFFFFFFFFFFFFFFFFFFFFFFFFFFFF AND DUP2 MSTORE PUSH1 0x20 ADD SWAP1 DUP2 MSTORE PUSH1 0x20 ADD PUSH1 0x0 KECCAK256 DUP2 SWAP1 SSTORE POP PUSH2 0xDB0 PUSH1 0x1 PUSH1 0x0 DUP5 DUP2 MSTORE PUSH1 0x20 ADD SWAP1 DUP2 MSTORE PUSH1 0x20 ADD PUSH1 0x0 KECCAK256 PUSH1 0x0 DUP13 PUSH20 0xFFFFFFFFFFFFFFFFFFFFFFFFFFFFFFFFFFFFFFFF AND PUSH20 0xFFFFFFFFFFFFFFFFFFFFFFFFFFFFFFFFFFFFFFFF AND DUP2 MSTORE PUSH1 0x20 ADD SWAP1 DUP2 MSTORE PUSH1 0x20 ADD PUSH1 0x0 KECCAK256 SLOAD DUP3 PUSH2 0x24C6 JUMP JUMPDEST PUSH1 0x0 DUP4 DUP2 MSTORE PUSH1 0x1 PUSH1 0x20 SWAP1 DUP2 MSTORE PUSH1 0x40 DUP1 DUP4 KECCAK256 PUSH20 0xFFFFFFFFFFFFFFFFFFFFFFFFFFFFFFFFFFFFFFFF DUP16 AND DUP5 MSTORE SWAP1 SWAP2 MSTORE SWAP1 KECCAK256 SSTORE JUMPDEST POP POP PUSH1 0x1 ADD PUSH2 0xB2F JUMP JUMPDEST POP DUP7 PUSH20 0xFFFFFFFFFFFFFFFFFFFFFFFFFFFFFFFFFFFFFFFF AND DUP9 PUSH20 0xFFFFFFFFFFFFFFFFFFFFFFFFFFFFFFFFFFFFFFFF AND CALLER PUSH20 0xFFFFFFFFFFFFFFFFFFFFFFFFFFFFFFFFFFFFFFFF AND PUSH32 0x4A39DC06D4C0DBC64B70AF90FD698A233A518AA5D07E595D983B8C0526C8F7FB DUP10 DUP10 DUP10 DUP10 PUSH1 0x40 MLOAD DUP1 DUP1 PUSH1 0x20 ADD DUP1 PUSH1 0x20 ADD DUP4 DUP2 SUB DUP4 MSTORE DUP8 DUP8 DUP3 DUP2 DUP2 MSTORE PUSH1 0x20 ADD SWAP3 POP PUSH1 0x20 MUL DUP1 DUP3 DUP5 CALLDATACOPY PUSH1 0x0 DUP4 DUP3 ADD MSTORE PUSH1 0x1F ADD PUSH32 0xFFFFFFFFFFFFFFFFFFFFFFFFFFFFFFFFFFFFFFFFFFFFFFFFFFFFFFFFFFFFFFE0 AND SWAP1 SWAP2 ADD DUP5 DUP2 SUB DUP4 MSTORE DUP6 DUP2 MSTORE PUSH1 0x20 SWAP1 DUP2 ADD SWAP2 POP DUP7 SWAP1 DUP7 MUL DUP1 DUP3 DUP5 CALLDATACOPY PUSH1 0x0 DUP4 DUP3 ADD MSTORE PUSH1 0x40 MLOAD PUSH1 0x1F SWAP1 SWAP2 ADD PUSH32 0xFFFFFFFFFFFFFFFFFFFFFFFFFFFFFFFFFFFFFFFFFFFFFFFFFFFFFFFFFFFFFFE0 AND SWAP1 SWAP3 ADD DUP3 SWAP1 SUB SWAP9 POP SWAP1 SWAP7 POP POP POP POP POP POP POP LOG4 PUSH2 0xF1F DUP8 PUSH20 0xFFFFFFFFFFFFFFFFFFFFFFFFFFFFFFFFFFFFFFFF AND PUSH2 0x253A JUMP JUMPDEST ISZERO PUSH2 0x1188 JUMPI PUSH1 0x0 DUP8 PUSH20 0xFFFFFFFFFFFFFFFFFFFFFFFFFFFFFFFFFFFFFFFF AND PUSH4 0xBC197C81 CALLER DUP12 DUP11 DUP11 DUP11 DUP11 DUP11 DUP11 PUSH1 0x40 MLOAD DUP10 PUSH4 0xFFFFFFFF AND PUSH1 0xE0 SHL DUP2 MSTORE PUSH1 0x4 ADD DUP1 DUP10 PUSH20 0xFFFFFFFFFFFFFFFFFFFFFFFFFFFFFFFFFFFFFFFF AND PUSH20 0xFFFFFFFFFFFFFFFFFFFFFFFFFFFFFFFFFFFFFFFF AND DUP2 MSTORE PUSH1 0x20 ADD DUP9 PUSH20 0xFFFFFFFFFFFFFFFFFFFFFFFFFFFFFFFFFFFFFFFF AND PUSH20 0xFFFFFFFFFFFFFFFFFFFFFFFFFFFFFFFFFFFFFFFF AND DUP2 MSTORE PUSH1 0x20 ADD DUP1 PUSH1 0x20 ADD DUP1 PUSH1 0x20 ADD DUP1 PUSH1 0x20 ADD DUP5 DUP2 SUB DUP5 MSTORE DUP11 DUP11 DUP3 DUP2 DUP2 MSTORE PUSH1 0x20 ADD SWAP3 POP PUSH1 0x20 MUL DUP1 DUP3 DUP5 CALLDATACOPY PUSH1 0x0 DUP4 DUP3 ADD MSTORE PUSH1 0x1F ADD PUSH32 0xFFFFFFFFFFFFFFFFFFFFFFFFFFFFFFFFFFFFFFFFFFFFFFFFFFFFFFFFFFFFFFE0 AND SWAP1 SWAP2 ADD DUP6 DUP2 SUB DUP5 MSTORE DUP9 DUP2 MSTORE PUSH1 0x20 SWAP1 DUP2 ADD SWAP2 POP DUP10 SWAP1 DUP10 MUL DUP1 DUP3 DUP5 CALLDATACOPY PUSH1 0x0 DUP4 DUP3 ADD MSTORE PUSH1 0x1F ADD PUSH32 0xFFFFFFFFFFFFFFFFFFFFFFFFFFFFFFFFFFFFFFFFFFFFFFFFFFFFFFFFFFFFFFE0 AND SWAP1 SWAP2 ADD DUP6 DUP2 SUB DUP4 MSTORE DUP7 DUP2 MSTORE PUSH1 0x20 ADD SWAP1 POP DUP7 DUP7 DUP1 DUP3 DUP5 CALLDATACOPY PUSH1 0x0 DUP2 DUP5 ADD MSTORE PUSH1 0x1F NOT PUSH1 0x1F DUP3 ADD AND SWAP1 POP DUP1 DUP4 ADD SWAP3 POP POP POP SWAP12 POP POP POP POP POP POP POP POP POP POP POP POP PUSH1 0x20 PUSH1 0x40 MLOAD DUP1 DUP4 SUB DUP2 PUSH1 0x0 DUP8 DUP1 EXTCODESIZE ISZERO DUP1 ISZERO PUSH2 0x10A8 JUMPI PUSH1 0x0 DUP1 REVERT JUMPDEST POP GAS CALL ISZERO DUP1 ISZERO PUSH2 0x10BC JUMPI RETURNDATASIZE PUSH1 0x0 DUP1 RETURNDATACOPY RETURNDATASIZE PUSH1 0x0 REVERT JUMPDEST POP POP POP POP PUSH1 0x40 MLOAD RETURNDATASIZE PUSH1 0x20 DUP2 LT ISZERO PUSH2 0x10D2 JUMPI PUSH1 0x0 DUP1 REVERT JUMPDEST POP MLOAD SWAP1 POP PUSH32 0xFFFFFFFF00000000000000000000000000000000000000000000000000000000 DUP2 AND PUSH32 0xBC197C8100000000000000000000000000000000000000000000000000000000 EQ PUSH2 0x1186 JUMPI PUSH1 0x40 DUP1 MLOAD PUSH32 0x8C379A000000000000000000000000000000000000000000000000000000000 DUP2 MSTORE PUSH1 0x20 PUSH1 0x4 DUP3 ADD MSTORE PUSH1 0x19 PUSH1 0x24 DUP3 ADD MSTORE PUSH32 0x4241445F52454345495645525F52455455524E5F56414C554500000000000000 PUSH1 0x44 DUP3 ADD MSTORE SWAP1 MLOAD SWAP1 DUP2 SWAP1 SUB PUSH1 0x64 ADD SWAP1 REVERT JUMPDEST POP JUMPDEST POP POP POP POP POP POP POP POP JUMP JUMPDEST PUSH1 0x60 DUP4 DUP3 EQ PUSH2 0x11EC JUMPI PUSH1 0x40 MLOAD PUSH32 0x8C379A000000000000000000000000000000000000000000000000000000000 DUP2 MSTORE PUSH1 0x4 ADD DUP1 DUP1 PUSH1 0x20 ADD DUP3 DUP2 SUB DUP3 MSTORE PUSH1 0x24 DUP2 MSTORE PUSH1 0x20 ADD DUP1 PUSH2 0x256E PUSH1 0x24 SWAP2 CODECOPY PUSH1 0x40 ADD SWAP2 POP POP PUSH1 0x40 MLOAD DUP1 SWAP2 SUB SWAP1 REVERT JUMPDEST PUSH1 0x40 DUP1 MLOAD DUP6 DUP2 MSTORE PUSH1 0x20 DUP1 DUP8 MUL DUP3 ADD ADD SWAP1 SWAP2 MSTORE DUP5 DUP1 ISZERO PUSH2 0x1215 JUMPI DUP2 PUSH1 0x20 ADD PUSH1 0x20 DUP3 MUL DUP1 CODESIZE DUP4 CODECOPY ADD SWAP1 POP JUMPDEST POP SWAP1 POP PUSH1 0x0 JUMPDEST DUP5 DUP2 LT ISZERO PUSH2 0x134E JUMPI PUSH1 0x0 DUP5 DUP5 DUP4 DUP2 DUP2 LT PUSH2 0x1231 JUMPI INVALID JUMPDEST SWAP1 POP PUSH1 0x20 MUL ADD CALLDATALOAD SWAP1 POP PUSH2 0x1243 DUP2 PUSH2 0x1357 JUMP JUMPDEST ISZERO PUSH2 0x12B9 JUMPI DUP7 DUP7 DUP4 DUP2 DUP2 LT PUSH2 0x1254 JUMPI INVALID JUMPDEST PUSH1 0x0 DUP5 DUP2 MSTORE PUSH1 0x20 DUP2 DUP2 MSTORE PUSH1 0x40 SWAP1 SWAP2 KECCAK256 SLOAD SWAP2 MUL SWAP3 SWAP1 SWAP3 ADD CALLDATALOAD PUSH20 0xFFFFFFFFFFFFFFFFFFFFFFFFFFFFFFFFFFFFFFFF SWAP1 DUP2 AND SWAP3 AND SWAP2 SWAP1 SWAP2 EQ SWAP1 POP PUSH2 0x1296 JUMPI PUSH1 0x0 PUSH2 0x1299 JUMP JUMPDEST PUSH1 0x1 JUMPDEST PUSH1 0xFF AND DUP4 DUP4 DUP2 MLOAD DUP2 LT PUSH2 0x12A8 JUMPI INVALID JUMPDEST PUSH1 0x20 MUL PUSH1 0x20 ADD ADD DUP2 DUP2 MSTORE POP POP PUSH2 0x1345 JUMP JUMPDEST PUSH1 0x0 DUP2 DUP2 MSTORE PUSH1 0x1 PUSH1 0x20 MSTORE PUSH1 0x40 DUP2 KECCAK256 SWAP1 DUP9 DUP9 DUP6 DUP2 DUP2 LT PUSH2 0x12D4 JUMPI INVALID JUMPDEST SWAP1 POP PUSH1 0x20 MUL ADD CALLDATALOAD PUSH20 0xFFFFFFFFFFFFFFFFFFFFFFFFFFFFFFFFFFFFFFFF AND PUSH20 0xFFFFFFFFFFFFFFFFFFFFFFFFFFFFFFFFFFFFFFFF AND PUSH20 0xFFFFFFFFFFFFFFFFFFFFFFFFFFFFFFFFFFFFFFFF AND DUP2 MSTORE PUSH1 0x20 ADD SWAP1 DUP2 MSTORE PUSH1 0x20 ADD PUSH1 0x0 KECCAK256 SLOAD DUP4 DUP4 DUP2 MLOAD DUP2 LT PUSH2 0x1338 JUMPI INVALID JUMPDEST PUSH1 0x20 MUL PUSH1 0x20 ADD ADD DUP2 DUP2 MSTORE POP POP JUMPDEST POP PUSH1 0x1 ADD PUSH2 0x121B JUMP JUMPDEST POP SWAP5 SWAP4 POP POP POP POP JUMP JUMPDEST PUSH1 0x0 PUSH32 0x8000000000000000000000000000000000000000000000000000000000000000 DUP1 DUP4 AND EQ DUP1 ISZERO PUSH2 0x960 JUMPI POP POP PUSH16 0xFFFFFFFFFFFFFFFFFFFFFFFFFFFFFFFF AND ISZERO ISZERO SWAP1 JUMP JUMPDEST PUSH1 0x0 SWAP1 DUP2 MSTORE PUSH1 0x20 DUP2 SWAP1 MSTORE PUSH1 0x40 SWAP1 KECCAK256 SLOAD PUSH20 0xFFFFFFFFFFFFFFFFFFFFFFFFFFFFFFFFFFFFFFFF AND SWAP1 JUMP JUMPDEST PUSH32 0xFFFFFFFFFFFFFFFFFFFFFFFFFFFFFFFF00000000000000000000000000000000 AND SWAP1 JUMP JUMPDEST PUSH1 0x0 PUSH32 0x8000000000000000000000000000000000000000000000000000000000000000 DUP1 DUP4 AND EQ DUP1 ISZERO PUSH2 0x960 JUMPI POP POP PUSH16 0xFFFFFFFFFFFFFFFFFFFFFFFFFFFFFFFF AND ISZERO SWAP1 JUMP JUMPDEST PUSH1 0x0 DUP6 DUP2 MSTORE PUSH1 0x4 PUSH1 0x20 MSTORE PUSH1 0x40 SWAP1 KECCAK256 SLOAD DUP6 SWAP1 PUSH20 0xFFFFFFFFFFFFFFFFFFFFFFFFFFFFFFFFFFFFFFFF AND CALLER EQ PUSH2 0x1461 JUMPI PUSH1 0x0 DUP1 REVERT JUMPDEST PUSH2 0x146A DUP7 PUSH2 0x190E JUMP JUMPDEST PUSH2 0x14BF JUMPI PUSH1 0x40 MLOAD PUSH32 0x8C379A000000000000000000000000000000000000000000000000000000000 DUP2 MSTORE PUSH1 0x4 ADD DUP1 DUP1 PUSH1 0x20 ADD DUP3 DUP2 SUB DUP3 MSTORE PUSH1 0x2D DUP2 MSTORE PUSH1 0x20 ADD DUP1 PUSH2 0x2592 PUSH1 0x2D SWAP2 CODECOPY PUSH1 0x40 ADD SWAP2 POP POP PUSH1 0x40 MLOAD DUP1 SWAP2 SUB SWAP1 REVERT JUMPDEST PUSH1 0x0 JUMPDEST DUP5 DUP2 LT ISZERO PUSH2 0x1757 JUMPI PUSH1 0x0 DUP7 DUP7 DUP4 DUP2 DUP2 LT PUSH2 0x14D8 JUMPI INVALID JUMPDEST SWAP1 POP PUSH1 0x20 MUL ADD CALLDATALOAD PUSH20 0xFFFFFFFFFFFFFFFFFFFFFFFFFFFFFFFFFFFFFFFF AND SWAP1 POP PUSH1 0x0 DUP6 DUP6 DUP5 DUP2 DUP2 LT PUSH2 0x1505 JUMPI INVALID JUMPDEST PUSH1 0x0 DUP13 DUP2 MSTORE PUSH1 0x1 PUSH1 0x20 SWAP1 DUP2 MSTORE PUSH1 0x40 DUP1 DUP4 KECCAK256 PUSH20 0xFFFFFFFFFFFFFFFFFFFFFFFFFFFFFFFFFFFFFFFF DUP10 AND DUP5 MSTORE DUP3 MSTORE SWAP1 SWAP2 KECCAK256 SLOAD SWAP2 MUL SWAP3 SWAP1 SWAP3 ADD CALLDATALOAD SWAP3 POP PUSH2 0x154A SWAP2 DUP4 SWAP2 POP PUSH2 0x24C6 JUMP JUMPDEST PUSH1 0x0 DUP11 DUP2 MSTORE PUSH1 0x1 PUSH1 0x20 SWAP1 DUP2 MSTORE PUSH1 0x40 DUP1 DUP4 KECCAK256 PUSH20 0xFFFFFFFFFFFFFFFFFFFFFFFFFFFFFFFFFFFFFFFF DUP8 AND DUP1 DUP6 MSTORE SWAP1 DUP4 MSTORE DUP2 DUP5 KECCAK256 SWAP5 SWAP1 SWAP5 SSTORE DUP1 MLOAD DUP14 DUP2 MSTORE SWAP2 DUP3 ADD DUP6 SWAP1 MSTORE DUP1 MLOAD CALLER SWAP3 PUSH32 0xC3D58168C5AE7397731D063D5BBF3D657854427343F4C083240F7AACAA2D0F62 SWAP3 SWAP1 DUP3 SWAP1 SUB ADD SWAP1 LOG4 PUSH2 0x15D6 DUP3 PUSH20 0xFFFFFFFFFFFFFFFFFFFFFFFFFFFFFFFFFFFFFFFF AND PUSH2 0x253A JUMP JUMPDEST ISZERO PUSH2 0x174D JUMPI PUSH1 0x40 DUP1 MLOAD PUSH32 0xF23A6E6100000000000000000000000000000000000000000000000000000000 DUP2 MSTORE CALLER PUSH1 0x4 DUP3 ADD DUP2 SWAP1 MSTORE PUSH1 0x24 DUP3 ADD MSTORE PUSH1 0x44 DUP2 ADD DUP12 SWAP1 MSTORE PUSH1 0x64 DUP2 ADD DUP4 SWAP1 MSTORE PUSH1 0xA0 PUSH1 0x84 DUP3 ADD MSTORE PUSH1 0x0 PUSH1 0xA4 DUP3 ADD DUP2 SWAP1 MSTORE SWAP2 MLOAD PUSH20 0xFFFFFFFFFFFFFFFFFFFFFFFFFFFFFFFFFFFFFFFF DUP6 AND SWAP2 PUSH4 0xF23A6E61 SWAP2 PUSH1 0xE4 DUP1 DUP4 ADD SWAP3 PUSH1 0x20 SWAP3 SWAP2 SWAP1 DUP3 SWAP1 SUB ADD DUP2 DUP8 DUP8 DUP1 EXTCODESIZE ISZERO DUP1 ISZERO PUSH2 0x166D JUMPI PUSH1 0x0 DUP1 REVERT JUMPDEST POP GAS CALL ISZERO DUP1 ISZERO PUSH2 0x1681 JUMPI RETURNDATASIZE PUSH1 0x0 DUP1 RETURNDATACOPY RETURNDATASIZE PUSH1 0x0 REVERT JUMPDEST POP POP POP POP PUSH1 0x40 MLOAD RETURNDATASIZE PUSH1 0x20 DUP2 LT ISZERO PUSH2 0x1697 JUMPI PUSH1 0x0 DUP1 REVERT JUMPDEST POP MLOAD SWAP1 POP PUSH32 0xFFFFFFFF00000000000000000000000000000000000000000000000000000000 DUP2 AND PUSH32 0xF23A6E6100000000000000000000000000000000000000000000000000000000 EQ PUSH2 0x174B JUMPI PUSH1 0x40 DUP1 MLOAD PUSH32 0x8C379A000000000000000000000000000000000000000000000000000000000 DUP2 MSTORE PUSH1 0x20 PUSH1 0x4 DUP3 ADD MSTORE PUSH1 0x19 PUSH1 0x24 DUP3 ADD MSTORE PUSH32 0x4241445F52454345495645525F52455455524E5F56414C554500000000000000 PUSH1 0x44 DUP3 ADD MSTORE SWAP1 MLOAD SWAP1 DUP2 SWAP1 SUB PUSH1 0x64 ADD SWAP1 REVERT JUMPDEST POP JUMPDEST POP POP PUSH1 0x1 ADD PUSH2 0x14C2 JUMP JUMPDEST POP POP POP POP POP POP POP JUMP JUMPDEST PUSH16 0xFFFFFFFFFFFFFFFFFFFFFFFFFFFFFFFF AND SWAP1 JUMP JUMPDEST PUSH1 0x0 DUP4 DUP2 MSTORE PUSH1 0x4 PUSH1 0x20 SWAP1 DUP2 MSTORE PUSH1 0x40 DUP1 DUP4 KECCAK256 DUP1 SLOAD PUSH32 0xFFFFFFFFFFFFFFFFFFFFFFFF0000000000000000000000000000000000000000 AND CALLER SWAP1 DUP2 OR SWAP1 SWAP2 SSTORE DUP2 MLOAD DUP8 DUP2 MSTORE SWAP3 DUP4 ADD DUP5 SWAP1 MSTORE DUP2 MLOAD DUP5 SWAP4 SWAP2 SWAP3 PUSH32 0xC3D58168C5AE7397731D063D5BBF3D657854427343F4C083240F7AACAA2D0F62 SWAP3 DUP3 SWAP1 SUB ADD SWAP1 LOG4 DUP1 ISZERO PUSH2 0x1870 JUMPI DUP3 PUSH32 0x6BB7FF708619BA0610CBA295A58592E0451DEE2622938C8755667688DAF3529B DUP4 DUP4 PUSH1 0x40 MLOAD DUP1 DUP1 PUSH1 0x20 ADD DUP3 DUP2 SUB DUP3 MSTORE DUP5 DUP5 DUP3 DUP2 DUP2 MSTORE PUSH1 0x20 ADD SWAP3 POP DUP1 DUP3 DUP5 CALLDATACOPY PUSH1 0x0 DUP4 DUP3 ADD MSTORE PUSH1 0x40 MLOAD PUSH1 0x1F SWAP1 SWAP2 ADD PUSH32 0xFFFFFFFFFFFFFFFFFFFFFFFFFFFFFFFFFFFFFFFFFFFFFFFFFFFFFFFFFFFFFFE0 AND SWAP1 SWAP3 ADD DUP3 SWAP1 SUB SWAP6 POP SWAP1 SWAP4 POP POP POP POP LOG2 JUMPDEST POP POP POP JUMP JUMPDEST CALLER PUSH1 0x0 DUP2 DUP2 MSTORE PUSH1 0x2 PUSH1 0x20 SWAP1 DUP2 MSTORE PUSH1 0x40 DUP1 DUP4 KECCAK256 PUSH20 0xFFFFFFFFFFFFFFFFFFFFFFFFFFFFFFFFFFFFFFFF DUP8 AND DUP1 DUP6 MSTORE SWAP1 DUP4 MSTORE SWAP3 DUP2 SWAP1 KECCAK256 DUP1 SLOAD PUSH32 0xFFFFFFFFFFFFFFFFFFFFFFFFFFFFFFFFFFFFFFFFFFFFFFFFFFFFFFFFFFFFFF00 AND DUP7 ISZERO ISZERO SWAP1 DUP2 OR SWAP1 SWAP2 SSTORE DUP2 MLOAD SWAP1 DUP2 MSTORE SWAP1 MLOAD SWAP3 SWAP4 SWAP3 PUSH32 0x17307EAB39AB6107E8899845AD3D59BD9653F200F220920489CA2B5937696C31 SWAP3 SWAP2 DUP2 SWAP1 SUB SWAP1 SWAP2 ADD SWAP1 LOG3 POP POP JUMP JUMPDEST PUSH32 0x8000000000000000000000000000000000000000000000000000000000000000 AND ISZERO SWAP1 JUMP JUMPDEST PUSH1 0x3 DUP1 SLOAD PUSH1 0x1 ADD SWAP1 DUP2 SWAP1 SSTORE PUSH1 0x80 SHL DUP2 ISZERO PUSH2 0x196B JUMPI PUSH32 0x8000000000000000000000000000000000000000000000000000000000000000 OR JUMPDEST PUSH1 0x0 DUP2 DUP2 MSTORE PUSH1 0x4 PUSH1 0x20 SWAP1 DUP2 MSTORE PUSH1 0x40 DUP1 DUP4 KECCAK256 DUP1 SLOAD PUSH32 0xFFFFFFFFFFFFFFFFFFFFFFFF0000000000000000000000000000000000000000 AND CALLER SWAP1 DUP2 OR SWAP1 SWAP2 SSTORE DUP2 MLOAD DUP6 DUP2 MSTORE SWAP3 DUP4 ADD DUP5 SWAP1 MSTORE DUP2 MLOAD DUP5 SWAP4 SWAP2 SWAP3 PUSH32 0xC3D58168C5AE7397731D063D5BBF3D657854427343F4C083240F7AACAA2D0F62 SWAP3 DUP3 SWAP1 SUB ADD SWAP1 LOG4 DUP3 ISZERO PUSH2 0x1A66 JUMPI DUP1 PUSH32 0x6BB7FF708619BA0610CBA295A58592E0451DEE2622938C8755667688DAF3529B DUP6 DUP6 PUSH1 0x40 MLOAD DUP1 DUP1 PUSH1 0x20 ADD DUP3 DUP2 SUB DUP3 MSTORE DUP5 DUP5 DUP3 DUP2 DUP2 MSTORE PUSH1 0x20 ADD SWAP3 POP DUP1 DUP3 DUP5 CALLDATACOPY PUSH1 0x0 DUP4 DUP3 ADD MSTORE PUSH1 0x40 MLOAD PUSH1 0x1F SWAP1 SWAP2 ADD PUSH32 0xFFFFFFFFFFFFFFFFFFFFFFFFFFFFFFFFFFFFFFFFFFFFFFFFFFFFFFFFFFFFFFE0 AND SWAP1 SWAP3 ADD DUP3 SWAP1 SUB SWAP6 POP SWAP1 SWAP4 POP POP POP POP LOG2 JUMPDEST SWAP4 SWAP3 POP POP POP JUMP JUMPDEST PUSH1 0x4 PUSH1 0x20 MSTORE PUSH1 0x0 SWAP1 DUP2 MSTORE PUSH1 0x40 SWAP1 KECCAK256 SLOAD PUSH20 0xFFFFFFFFFFFFFFFFFFFFFFFFFFFFFFFFFFFFFFFF AND DUP2 JUMP JUMPDEST PUSH32 0xF23A6E6100000000000000000000000000000000000000000000000000000000 DUP2 JUMP JUMPDEST PUSH32 0x8000000000000000000000000000000000000000000000000000000000000000 SWAP1 DUP2 AND EQ SWAP1 JUMP JUMPDEST PUSH20 0xFFFFFFFFFFFFFFFFFFFFFFFFFFFFFFFFFFFFFFFF SWAP2 DUP3 AND PUSH1 0x0 SWAP1 DUP2 MSTORE PUSH1 0x2 PUSH1 0x20 SWAP1 DUP2 MSTORE PUSH1 0x40 DUP1 DUP4 KECCAK256 SWAP4 SWAP1 SWAP5 AND DUP3 MSTORE SWAP2 SWAP1 SWAP2 MSTORE KECCAK256 SLOAD PUSH1 0xFF AND SWAP1 JUMP JUMPDEST PUSH20 0xFFFFFFFFFFFFFFFFFFFFFFFFFFFFFFFFFFFFFFFF DUP6 AND PUSH2 0x1B9E JUMPI PUSH1 0x40 DUP1 MLOAD PUSH32 0x8C379A000000000000000000000000000000000000000000000000000000000 DUP2 MSTORE PUSH1 0x20 PUSH1 0x4 DUP3 ADD MSTORE PUSH1 0x1F PUSH1 0x24 DUP3 ADD MSTORE PUSH32 0x43414E4E4F545F5452414E534645525F544F5F414444524553535F5A45524F00 PUSH1 0x44 DUP3 ADD MSTORE SWAP1 MLOAD SWAP1 DUP2 SWAP1 SUB PUSH1 0x64 ADD SWAP1 REVERT JUMPDEST PUSH20 0xFFFFFFFFFFFFFFFFFFFFFFFFFFFFFFFFFFFFFFFF DUP7 AND CALLER EQ DUP1 PUSH2 0x1BF7 JUMPI POP PUSH20 0xFFFFFFFFFFFFFFFFFFFFFFFFFFFFFFFFFFFFFFFF DUP7 AND PUSH1 0x0 SWAP1 DUP2 MSTORE PUSH1 0x2 PUSH1 0x20 SWAP1 DUP2 MSTORE PUSH1 0x40 DUP1 DUP4 KECCAK256 CALLER DUP5 MSTORE SWAP1 SWAP2 MSTORE SWAP1 KECCAK256 SLOAD PUSH1 0xFF AND ISZERO ISZERO PUSH1 0x1 EQ JUMPDEST PUSH2 0x1C62 JUMPI PUSH1 0x40 DUP1 MLOAD PUSH32 0x8C379A000000000000000000000000000000000000000000000000000000000 DUP2 MSTORE PUSH1 0x20 PUSH1 0x4 DUP3 ADD MSTORE PUSH1 0x16 PUSH1 0x24 DUP3 ADD MSTORE PUSH32 0x494E53554646494349454E545F414C4C4F57414E434500000000000000000000 PUSH1 0x44 DUP3 ADD MSTORE SWAP1 MLOAD SWAP1 DUP2 SWAP1 SUB PUSH1 0x64 ADD SWAP1 REVERT JUMPDEST PUSH2 0x1C6B DUP5 PUSH2 0x1AB9 JUMP JUMPDEST ISZERO PUSH2 0x1DC5 JUMPI DUP3 PUSH1 0x1 EQ PUSH2 0x1CDF JUMPI PUSH1 0x40 DUP1 MLOAD PUSH32 0x8C379A000000000000000000000000000000000000000000000000000000000 DUP2 MSTORE PUSH1 0x20 PUSH1 0x4 DUP3 ADD MSTORE PUSH1 0x1C PUSH1 0x24 DUP3 ADD MSTORE PUSH32 0x414D4F554E545F455155414C5F544F5F4F4E455F524551554952454400000000 PUSH1 0x44 DUP3 ADD MSTORE SWAP1 MLOAD SWAP1 DUP2 SWAP1 SUB PUSH1 0x64 ADD SWAP1 REVERT JUMPDEST PUSH1 0x0 DUP5 DUP2 MSTORE PUSH1 0x20 DUP2 SWAP1 MSTORE PUSH1 0x40 SWAP1 KECCAK256 SLOAD PUSH20 0xFFFFFFFFFFFFFFFFFFFFFFFFFFFFFFFFFFFFFFFF DUP8 DUP2 AND SWAP2 AND EQ PUSH2 0x1D74 JUMPI PUSH1 0x40 DUP1 MLOAD PUSH32 0x8C379A000000000000000000000000000000000000000000000000000000000 DUP2 MSTORE PUSH1 0x20 PUSH1 0x4 DUP3 ADD MSTORE PUSH1 0x1D PUSH1 0x24 DUP3 ADD MSTORE PUSH32 0x4E46545F4E4F545F4F574E45445F42595F46524F4D5F41444452455353000000 PUSH1 0x44 DUP3 ADD MSTORE SWAP1 MLOAD SWAP1 DUP2 SWAP1 SUB PUSH1 0x64 ADD SWAP1 REVERT JUMPDEST PUSH1 0x0 DUP5 DUP2 MSTORE PUSH1 0x20 DUP2 SWAP1 MSTORE PUSH1 0x40 SWAP1 KECCAK256 DUP1 SLOAD PUSH32 0xFFFFFFFFFFFFFFFFFFFFFFFF0000000000000000000000000000000000000000 AND PUSH20 0xFFFFFFFFFFFFFFFFFFFFFFFFFFFFFFFFFFFFFFFF DUP8 AND OR SWAP1 SSTORE PUSH2 0x1E74 JUMP JUMPDEST PUSH1 0x0 DUP5 DUP2 MSTORE PUSH1 0x1 PUSH1 0x20 SWAP1 DUP2 MSTORE PUSH1 0x40 DUP1 DUP4 KECCAK256 PUSH20 0xFFFFFFFFFFFFFFFFFFFFFFFFFFFFFFFFFFFFFFFF DUP11 AND DUP5 MSTORE SWAP1 SWAP2 MSTORE SWAP1 KECCAK256 SLOAD PUSH2 0x1DFF SWAP1 DUP5 PUSH2 0x244F JUMP JUMPDEST PUSH1 0x0 DUP6 DUP2 MSTORE PUSH1 0x1 PUSH1 0x20 SWAP1 DUP2 MSTORE PUSH1 0x40 DUP1 DUP4 KECCAK256 PUSH20 0xFFFFFFFFFFFFFFFFFFFFFFFFFFFFFFFFFFFFFFFF DUP12 DUP2 AND DUP6 MSTORE SWAP3 MSTORE DUP1 DUP4 KECCAK256 SWAP4 SWAP1 SWAP4 SSTORE DUP8 AND DUP2 MSTORE KECCAK256 SLOAD PUSH2 0x1E43 SWAP1 DUP5 PUSH2 0x24C6 JUMP JUMPDEST PUSH1 0x0 DUP6 DUP2 MSTORE PUSH1 0x1 PUSH1 0x20 SWAP1 DUP2 MSTORE PUSH1 0x40 DUP1 DUP4 KECCAK256 PUSH20 0xFFFFFFFFFFFFFFFFFFFFFFFFFFFFFFFFFFFFFFFF DUP11 AND DUP5 MSTORE SWAP1 SWAP2 MSTORE SWAP1 KECCAK256 SSTORE JUMPDEST DUP5 PUSH20 0xFFFFFFFFFFFFFFFFFFFFFFFFFFFFFFFFFFFFFFFF AND DUP7 PUSH20 0xFFFFFFFFFFFFFFFFFFFFFFFFFFFFFFFFFFFFFFFF AND CALLER PUSH20 0xFFFFFFFFFFFFFFFFFFFFFFFFFFFFFFFFFFFFFFFF AND PUSH32 0xC3D58168C5AE7397731D063D5BBF3D657854427343F4C083240F7AACAA2D0F62 DUP8 DUP8 PUSH1 0x40 MLOAD DUP1 DUP4 DUP2 MSTORE PUSH1 0x20 ADD DUP3 DUP2 MSTORE PUSH1 0x20 ADD SWAP3 POP POP POP PUSH1 0x40 MLOAD DUP1 SWAP2 SUB SWAP1 LOG4 PUSH2 0x1F17 DUP6 PUSH20 0xFFFFFFFFFFFFFFFFFFFFFFFFFFFFFFFFFFFFFFFF AND PUSH2 0x253A JUMP JUMPDEST ISZERO PUSH2 0x20F3 JUMPI PUSH1 0x0 DUP6 PUSH20 0xFFFFFFFFFFFFFFFFFFFFFFFFFFFFFFFFFFFFFFFF AND PUSH4 0xF23A6E61 CALLER DUP10 DUP9 DUP9 DUP9 DUP9 PUSH1 0x40 MLOAD DUP8 PUSH4 0xFFFFFFFF AND PUSH1 0xE0 SHL DUP2 MSTORE PUSH1 0x4 ADD DUP1 DUP8 PUSH20 0xFFFFFFFFFFFFFFFFFFFFFFFFFFFFFFFFFFFFFFFF AND PUSH20 0xFFFFFFFFFFFFFFFFFFFFFFFFFFFFFFFFFFFFFFFF AND DUP2 MSTORE PUSH1 0x20 ADD DUP7 PUSH20 0xFFFFFFFFFFFFFFFFFFFFFFFFFFFFFFFFFFFFFFFF AND PUSH20 0xFFFFFFFFFFFFFFFFFFFFFFFFFFFFFFFFFFFFFFFF AND DUP2 MSTORE PUSH1 0x20 ADD DUP6 DUP2 MSTORE PUSH1 0x20 ADD DUP5 DUP2 MSTORE PUSH1 0x20 ADD DUP1 PUSH1 0x20 ADD DUP3 DUP2 SUB DUP3 MSTORE DUP5 DUP5 DUP3 DUP2 DUP2 MSTORE PUSH1 0x20 ADD SWAP3 POP DUP1 DUP3 DUP5 CALLDATACOPY PUSH1 0x0 DUP2 DUP5 ADD MSTORE PUSH1 0x1F NOT PUSH1 0x1F DUP3 ADD AND SWAP1 POP DUP1 DUP4 ADD SWAP3 POP POP POP SWAP8 POP POP POP POP POP POP POP POP PUSH1 0x20 PUSH1 0x40 MLOAD DUP1 DUP4 SUB DUP2 PUSH1 0x0 DUP8 DUP1 EXTCODESIZE ISZERO DUP1 ISZERO PUSH2 0x2015 JUMPI PUSH1 0x0 DUP1 REVERT JUMPDEST POP GAS CALL ISZERO DUP1 ISZERO PUSH2 0x2029 JUMPI RETURNDATASIZE PUSH1 0x0 DUP1 RETURNDATACOPY RETURNDATASIZE PUSH1 0x0 REVERT JUMPDEST POP POP POP POP PUSH1 0x40 MLOAD RETURNDATASIZE PUSH1 0x20 DUP2 LT ISZERO PUSH2 0x203F JUMPI PUSH1 0x0 DUP1 REVERT JUMPDEST POP MLOAD SWAP1 POP PUSH32 0xFFFFFFFF00000000000000000000000000000000000000000000000000000000 DUP2 AND PUSH32 0xF23A6E6100000000000000000000000000000000000000000000000000000000 EQ PUSH2 0x1757 JUMPI PUSH1 0x40 DUP1 MLOAD PUSH32 0x8C379A000000000000000000000000000000000000000000000000000000000 DUP2 MSTORE PUSH1 0x20 PUSH1 0x4 DUP3 ADD MSTORE PUSH1 0x19 PUSH1 0x24 DUP3 ADD MSTORE PUSH32 0x4241445F52454345495645525F52455455524E5F56414C554500000000000000 PUSH1 0x44 DUP3 ADD MSTORE SWAP1 MLOAD SWAP1 DUP2 SWAP1 SUB PUSH1 0x64 ADD SWAP1 REVERT JUMPDEST POP POP POP POP POP POP JUMP JUMPDEST PUSH1 0x0 DUP4 DUP2 MSTORE PUSH1 0x4 PUSH1 0x20 MSTORE PUSH1 0x40 SWAP1 KECCAK256 SLOAD DUP4 SWAP1 PUSH20 0xFFFFFFFFFFFFFFFFFFFFFFFFFFFFFFFFFFFFFFFF AND CALLER EQ PUSH2 0x212D JUMPI PUSH1 0x0 DUP1 REVERT JUMPDEST PUSH2 0x2136 DUP5 PUSH2 0x1AB9 JUMP JUMPDEST PUSH2 0x218B JUMPI PUSH1 0x40 MLOAD PUSH32 0x8C379A000000000000000000000000000000000000000000000000000000000 DUP2 MSTORE PUSH1 0x4 ADD DUP1 DUP1 PUSH1 0x20 ADD DUP3 DUP2 SUB DUP3 MSTORE PUSH1 0x2D DUP2 MSTORE PUSH1 0x20 ADD DUP1 PUSH2 0x2541 PUSH1 0x2D SWAP2 CODECOPY PUSH1 0x40 ADD SWAP2 POP POP PUSH1 0x40 MLOAD DUP1 SWAP2 SUB SWAP1 REVERT JUMPDEST PUSH1 0x0 DUP5 DUP2 MSTORE PUSH1 0x5 PUSH1 0x20 MSTORE PUSH1 0x40 DUP2 KECCAK256 SLOAD PUSH1 0x1 ADD SWAP1 JUMPDEST DUP4 DUP2 LT ISZERO PUSH2 0x23F7 JUMPI PUSH1 0x0 DUP6 DUP6 DUP4 DUP2 DUP2 LT PUSH2 0x21B5 JUMPI INVALID JUMPDEST DUP5 DUP7 ADD DUP11 OR PUSH1 0x0 DUP2 DUP2 MSTORE PUSH1 0x20 DUP2 DUP2 MSTORE PUSH1 0x40 DUP1 DUP4 KECCAK256 DUP1 SLOAD SWAP6 DUP4 MUL SWAP8 SWAP1 SWAP8 ADD CALLDATALOAD PUSH20 0xFFFFFFFFFFFFFFFFFFFFFFFFFFFFFFFFFFFFFFFF AND PUSH32 0xFFFFFFFFFFFFFFFFFFFFFFFF0000000000000000000000000000000000000000 SWAP1 SWAP6 AND DUP6 OR SWAP1 SWAP7 SSTORE DUP6 MLOAD DUP4 DUP2 MSTORE PUSH1 0x1 SWAP2 DUP2 ADD SWAP2 SWAP1 SWAP2 MSTORE DUP6 MLOAD SWAP4 SWAP7 POP SWAP2 SWAP5 DUP7 SWAP5 POP SWAP1 SWAP3 CALLER SWAP3 PUSH32 0xC3D58168C5AE7397731D063D5BBF3D657854427343F4C083240F7AACAA2D0F62 SWAP3 SWAP1 DUP3 SWAP1 SUB ADD SWAP1 LOG4 PUSH2 0x2276 DUP3 PUSH20 0xFFFFFFFFFFFFFFFFFFFFFFFFFFFFFFFFFFFFFFFF AND PUSH2 0x253A JUMP JUMPDEST ISZERO PUSH2 0x23ED JUMPI PUSH1 0x40 DUP1 MLOAD PUSH32 0xF23A6E6100000000000000000000000000000000000000000000000000000000 DUP2 MSTORE CALLER PUSH1 0x4 DUP3 ADD DUP2 SWAP1 MSTORE PUSH1 0x24 DUP3 ADD MSTORE PUSH1 0x44 DUP2 ADD DUP4 SWAP1 MSTORE PUSH1 0x1 PUSH1 0x64 DUP3 ADD MSTORE PUSH1 0xA0 PUSH1 0x84 DUP3 ADD MSTORE PUSH1 0x0 PUSH1 0xA4 DUP3 ADD DUP2 SWAP1 MSTORE SWAP2 MLOAD PUSH20 0xFFFFFFFFFFFFFFFFFFFFFFFFFFFFFFFFFFFFFFFF DUP6 AND SWAP2 PUSH4 0xF23A6E61 SWAP2 PUSH1 0xE4 DUP1 DUP4 ADD SWAP3 PUSH1 0x20 SWAP3 SWAP2 SWAP1 DUP3 SWAP1 SUB ADD DUP2 DUP8 DUP8 DUP1 EXTCODESIZE ISZERO DUP1 ISZERO PUSH2 0x230D JUMPI PUSH1 0x0 DUP1 REVERT JUMPDEST POP GAS CALL ISZERO DUP1 ISZERO PUSH2 0x2321 JUMPI RETURNDATASIZE PUSH1 0x0 DUP1 RETURNDATACOPY RETURNDATASIZE PUSH1 0x0 REVERT JUMPDEST POP POP POP POP PUSH1 0x40 MLOAD RETURNDATASIZE PUSH1 0x20 DUP2 LT ISZERO PUSH2 0x2337 JUMPI PUSH1 0x0 DUP1 REVERT JUMPDEST POP MLOAD SWAP1 POP PUSH32 0xFFFFFFFF00000000000000000000000000000000000000000000000000000000 DUP2 AND PUSH32 0xF23A6E6100000000000000000000000000000000000000000000000000000000 EQ PUSH2 0x23EB JUMPI PUSH1 0x40 DUP1 MLOAD PUSH32 0x8C379A000000000000000000000000000000000000000000000000000000000 DUP2 MSTORE PUSH1 0x20 PUSH1 0x4 DUP3 ADD MSTORE PUSH1 0x19 PUSH1 0x24 DUP3 ADD MSTORE PUSH32 0x4241445F52454345495645525F52455455524E5F56414C554500000000000000 PUSH1 0x44 DUP3 ADD MSTORE SWAP1 MLOAD SWAP1 DUP2 SWAP1 SUB PUSH1 0x64 ADD SWAP1 REVERT JUMPDEST POP JUMPDEST POP POP PUSH1 0x1 ADD PUSH2 0x219F JUMP JUMPDEST POP PUSH1 0x0 DUP6 DUP2 MSTORE PUSH1 0x5 PUSH1 0x20 MSTORE PUSH1 0x40 SWAP1 KECCAK256 SLOAD PUSH2 0x2412 SWAP1 DUP5 SWAP1 PUSH2 0x24C6 JUMP JUMPDEST PUSH1 0x0 SWAP6 DUP7 MSTORE PUSH1 0x5 PUSH1 0x20 MSTORE PUSH1 0x40 SWAP1 SWAP6 KECCAK256 SWAP5 SWAP1 SWAP5 SSTORE POP POP POP POP JUMP JUMPDEST PUSH32 0xBC197C8100000000000000000000000000000000000000000000000000000000 DUP2 JUMP JUMPDEST PUSH1 0x0 DUP3 DUP3 GT ISZERO PUSH2 0x24C0 JUMPI PUSH1 0x40 DUP1 MLOAD PUSH32 0x8C379A000000000000000000000000000000000000000000000000000000000 DUP2 MSTORE PUSH1 0x20 PUSH1 0x4 DUP3 ADD MSTORE PUSH1 0x11 PUSH1 0x24 DUP3 ADD MSTORE PUSH32 0x55494E543235365F554E444552464C4F57000000000000000000000000000000 PUSH1 0x44 DUP3 ADD MSTORE SWAP1 MLOAD SWAP1 DUP2 SWAP1 SUB PUSH1 0x64 ADD SWAP1 REVERT JUMPDEST POP SWAP1 SUB SWAP1 JUMP JUMPDEST PUSH1 0x0 DUP3 DUP3 ADD DUP4 DUP2 LT ISZERO PUSH2 0x1A66 JUMPI PUSH1 0x40 DUP1 MLOAD PUSH32 0x8C379A000000000000000000000000000000000000000000000000000000000 DUP2 MSTORE PUSH1 0x20 PUSH1 0x4 DUP3 ADD MSTORE PUSH1 0x10 PUSH1 0x24 DUP3 ADD MSTORE PUSH32 0x55494E543235365F4F564552464C4F5700000000000000000000000000000000 PUSH1 0x44 DUP3 ADD MSTORE SWAP1 MLOAD SWAP1 DUP2 SWAP1 SUB PUSH1 0x64 ADD SWAP1 REVERT JUMPDEST EXTCODESIZE ISZERO ISZERO SWAP1 JUMP INVALID SLOAD MSTORE 0x49 GASLIMIT DIFFICULTY 0x5f SLOAD 0x4f 0x5f 0x4d 0x49 0x4e SLOAD 0x5f 0x4e 0x4f 0x4e 0x5f 0x46 SSTORE 0x4e 0x47 0x49 TIMESTAMP 0x4c GASLIMIT 0x5f 0x46 0x4f MSTORE 0x5f 0x46 SSTORE 0x4e 0x47 0x49 TIMESTAMP 0x4c GASLIMIT 0x5f SLOAD 0x4f 0x4b GASLIMIT 0x4e 0x4f JUMPI 0x4e GASLIMIT MSTORE MSTORE8 0x5f COINBASE 0x4e DIFFICULTY 0x5f 0x49 DIFFICULTY MSTORE8 0x5f 0x4d SSTORE MSTORE8 SLOAD 0x5f 0x48 COINBASE JUMP GASLIMIT 0x5f MSTORE8 COINBASE 0x4d GASLIMIT 0x5f 0x4c GASLIMIT 0x4e 0x47 SLOAD 0x48 SLOAD MSTORE 0x49 GASLIMIT DIFFICULTY 0x5f SLOAD 0x4f 0x5f 0x4d 0x49 0x4e SLOAD 0x5f 0x46 SSTORE 0x4e 0x47 0x49 TIMESTAMP 0x4c GASLIMIT 0x5f 0x46 0x4f MSTORE 0x5f 0x4e 0x4f 0x4e 0x5f 0x46 SSTORE 0x4e 0x47 0x49 TIMESTAMP 0x4c GASLIMIT 0x5f SLOAD 0x4f 0x4b GASLIMIT 0x4e LOG2 PUSH6 0x627A7A723058 KECCAK256 PUSH18 0x77C510168916D2D40B2BA599CBC5234B9502 DUP6 PUSH22 0x36180DA56966857482F3E664736F6C634300050A0032 "
			}
		}
	},
	"sourceTreeHashHex": "0x0c81bea6b13cb7ba7e0159bb3f68f31168a7f63351eb1109d2b42856958db5c1",
	"compiler": {
		"name": "solc",
		"version": "soljson-v0.5.10+commit.5a6ea5b1.js",
		"settings": {
			"optimizer": {
				"enabled": true,
				"runs": 1000000
			},
			"outputSelection": {
				"*": {
					"*": [
						"abi",
						"devdoc",
						"evm.bytecode.object",
						"evm.bytecode.sourceMap",
						"evm.deployedBytecode.object",
						"evm.deployedBytecode.sourceMap"
					]
				}
			},
			"evmVersion": "constantinople",
			"remappings": [
				"@0x/contracts-utils=/Users/fabioberger/Documents/projects/0x_project/0x-monorepo-one/contracts/erc1155/node_modules/@0x/contracts-utils"
			]
		}
	}
}