{
	"schemaVersion": "2.0.0",
	"contractName": "ExchangeWrapper",
	"compilerOutput": {
		"abi": [
			{
				"constant": false,
				"inputs": [
					{
						"components": [
							{
								"name": "makerAddress",
								"type": "address"
							},
							{
								"name": "takerAddress",
								"type": "address"
							},
							{
								"name": "feeRecipientAddress",
								"type": "address"
							},
							{
								"name": "senderAddress",
								"type": "address"
							},
							{
								"name": "makerAssetAmount",
								"type": "uint256"
							},
							{
								"name": "takerAssetAmount",
								"type": "uint256"
							},
							{
								"name": "makerFee",
								"type": "uint256"
							},
							{
								"name": "takerFee",
								"type": "uint256"
							},
							{
								"name": "expirationTimeSeconds",
								"type": "uint256"
							},
							{
								"name": "salt",
								"type": "uint256"
							},
							{
								"name": "makerAssetData",
								"type": "bytes"
							},
							{
								"name": "takerAssetData",
								"type": "bytes"
							}
						],
						"name": "order",
						"type": "tuple"
					},
					{
						"name": "takerAssetFillAmount",
						"type": "uint256"
					},
					{
						"name": "salt",
						"type": "uint256"
					},
					{
						"name": "orderSignature",
						"type": "bytes"
					},
					{
						"name": "takerSignature",
						"type": "bytes"
					}
				],
				"name": "fillOrder",
				"outputs": [],
				"payable": false,
				"stateMutability": "nonpayable",
				"type": "function"
			},
			{
				"constant": false,
				"inputs": [
					{
						"name": "targetOrderEpoch",
						"type": "uint256"
					},
					{
						"name": "salt",
						"type": "uint256"
					},
					{
						"name": "makerSignature",
						"type": "bytes"
					}
				],
				"name": "cancelOrdersUpTo",
				"outputs": [],
				"payable": false,
				"stateMutability": "nonpayable",
				"type": "function"
			},
			{
				"inputs": [
					{
						"name": "_exchange",
						"type": "address"
					}
				],
				"payable": false,
				"stateMutability": "nonpayable",
				"type": "constructor"
			}
		],
		"devdoc": {
			"methods": {
				"cancelOrdersUpTo(uint256,uint256,bytes)": {
					"details": "Cancels all orders created by sender with a salt less than or equal to the targetOrderEpoch      and senderAddress equal to this contract.",
					"params": {
						"makerSignature": "Proof that maker wishes to call this function with given params.",
						"salt": "Arbitrary value to gaurantee uniqueness of 0x transaction hash.",
						"targetOrderEpoch": "Orders created with a salt less or equal to this value will be cancelled."
					}
				},
				"fillOrder((address,address,address,address,uint256,uint256,uint256,uint256,uint256,uint256,bytes,bytes),uint256,uint256,bytes,bytes)": {
					"details": "Fills an order using `msg.sender` as the taker.",
					"params": {
						"order": "Order struct containing order specifications.",
						"orderSignature": "Proof that order has been created by maker.",
						"salt": "Arbitrary value to gaurantee uniqueness of 0x transaction hash.",
						"takerAssetFillAmount": "Desired amount of takerAsset to sell.",
						"takerSignature": "Proof that taker wishes to call this function with given params."
					}
				}
			}
		},
		"evm": {
			"bytecode": {
				"linkReferences": {},
				"object": "0x608060405234801561001057600080fd5b5060405161093038038061093083398101604081905261002f91610054565b600080546001600160a01b0319166001600160a01b0392909216919091179055610084565b60006020828403121561006657600080fd5b81516001600160a01b038116811461007d57600080fd5b9392505050565b61089d806100936000396000f3fe608060405234801561001057600080fd5b50600436106100365760003560e01c8063a2dbfe651461003b578063f7de1c8b14610050575b600080fd5b61004e6100493660046103b5565b610063565b005b61004e61005e366004610531565b6101b5565b60405133906060907fb4be83d5000000000000000000000000000000000000000000000000000000009061009f90899089908890602401610634565b604080517fffffffffffffffffffffffffffffffffffffffffffffffffffffffffffffffe08184030181529181526020820180517bffffffffffffffffffffffffffffffffffffffffffffffffffffffff167fffffffff000000000000000000000000000000000000000000000000000000009094169390931790925260005491517fbfc8bfce00000000000000000000000000000000000000000000000000000000815290925073ffffffffffffffffffffffffffffffffffffffff9091169063bfc8bfce9061017a9088908690869089906004016107e1565b600060405180830381600087803b15801561019457600080fd5b505af11580156101a8573d6000803e3d6000fd5b5050505050505050505050565b60405133906060907f4f9559b100000000000000000000000000000000000000000000000000000000906101ed908890602401610750565b604080517fffffffffffffffffffffffffffffffffffffffffffffffffffffffffffffffe08184030181529181526020820180517bffffffffffffffffffffffffffffffffffffffffffffffffffffffff167fffffffff000000000000000000000000000000000000000000000000000000009094169390931790925260005491517fbfc8bfce00000000000000000000000000000000000000000000000000000000815290925073ffffffffffffffffffffffffffffffffffffffff9091169063bfc8bfce906102ca908890869086908a908a90600401610759565b600060405180830381600087803b1580156102e457600080fd5b505af11580156102f8573d6000803e3d6000fd5b50505050505050505050565b803573ffffffffffffffffffffffffffffffffffffffff8116811461032857600080fd5b92915050565b600082601f83011261033e578081fd5b813567ffffffffffffffff811115610354578182fd5b61038560207fffffffffffffffffffffffffffffffffffffffffffffffffffffffffffffffe0601f84011601610833565b915080825283602082850101111561039c57600080fd5b8060208401602084013760009082016020015292915050565b600080600080600060a086880312156103cc578081fd5b853567ffffffffffffffff808211156103e3578283fd5b610180918801808a038313156103f7578384fd5b61040083610833565b61040a8b83610304565b81526104198b60208401610304565b602082015261042b8b60408401610304565b604082015261043d8b60608401610304565b60608201526080820135608082015260a082013560a082015260c082013560c082015260e082013560e0820152610100935083820135848201526101209350838201358482015261014093508382013583811115610499578586fd5b6104a58c82850161032e565b8583015250610160935083820135838111156104bf578586fd5b6104cb8c82850161032e565b85830152508098505050602088013595506040880135945060608801359150808211156104f6578283fd5b61050289838a0161032e565b93506080880135915080821115610517578283fd5b506105248882890161032e565b9150509295509295909350565b6000806000806060858703121561054757600080fd5b8435935060208501359250604085013567ffffffffffffffff8082111561056c578384fd5b81870188601f82011261057d578485fd5b803592508183111561058d578485fd5b88602084830101111561059e578485fd5b959894975050602090940194505050565b73ffffffffffffffffffffffffffffffffffffffff169052565b6000815180845260005b818110156105ef576020818501810151868301820152016105d3565b81811115610601576000602083870101525b50601f017fffffffffffffffffffffffffffffffffffffffffffffffffffffffffffffffe0169290920160200192915050565b60006060825261018061064b6060840187516105af565b602086015161065d60808501826105af565b50604086015161067060a08501826105af565b50606086015161068360c08501826105af565b50608086015160e084015260a0860151610100818186015260c08801519150610120828187015260e089015192506101408381880152828a0151935061016092508383880152818a015185880152808a015193505050826101a08601526106ee6101e08601836105c9565b9250808801519150507fffffffffffffffffffffffffffffffffffffffffffffffffffffffffffffffa0848303016101c085015261072c82826105c9565b866020860152848103604086015261074481876105c9565b98975050505050505050565b90815260200190565b600086825273ffffffffffffffffffffffffffffffffffffffff861660208301526080604083015261078e60808301866105c9565b82810360608401528381528385602083013760006020858301015260207fffffffffffffffffffffffffffffffffffffffffffffffffffffffffffffffe0601f8601168201019150509695505050505050565b600085825273ffffffffffffffffffffffffffffffffffffffff851660208301526080604083015261081660808301856105c9565b828103606084015261082881856105c9565b979650505050505050565b60405181810167ffffffffffffffff8111828210171561085257600080fd5b60405291905056fea365627a7a72305820bf01a31c0bfd3b13e2ca5484b7e827a1997eca94e395e55a4309e29a1021444e6c6578706572696d656e74616cf564736f6c634300050a0040",
				"opcodes": "PUSH1 0x80 PUSH1 0x40 MSTORE CALLVALUE DUP1 ISZERO PUSH2 0x10 JUMPI PUSH1 0x0 DUP1 REVERT JUMPDEST POP PUSH1 0x40 MLOAD PUSH2 0x930 CODESIZE SUB DUP1 PUSH2 0x930 DUP4 CODECOPY DUP2 ADD PUSH1 0x40 DUP2 SWAP1 MSTORE PUSH2 0x2F SWAP2 PUSH2 0x54 JUMP JUMPDEST PUSH1 0x0 DUP1 SLOAD PUSH1 0x1 PUSH1 0x1 PUSH1 0xA0 SHL SUB NOT AND PUSH1 0x1 PUSH1 0x1 PUSH1 0xA0 SHL SUB SWAP3 SWAP1 SWAP3 AND SWAP2 SWAP1 SWAP2 OR SWAP1 SSTORE PUSH2 0x84 JUMP JUMPDEST PUSH1 0x0 PUSH1 0x20 DUP3 DUP5 SUB SLT ISZERO PUSH2 0x66 JUMPI PUSH1 0x0 DUP1 REVERT JUMPDEST DUP2 MLOAD PUSH1 0x1 PUSH1 0x1 PUSH1 0xA0 SHL SUB DUP2 AND DUP2 EQ PUSH2 0x7D JUMPI PUSH1 0x0 DUP1 REVERT JUMPDEST SWAP4 SWAP3 POP POP POP JUMP JUMPDEST PUSH2 0x89D DUP1 PUSH2 0x93 PUSH1 0x0 CODECOPY PUSH1 0x0 RETURN INVALID PUSH1 0x80 PUSH1 0x40 MSTORE CALLVALUE DUP1 ISZERO PUSH2 0x10 JUMPI PUSH1 0x0 DUP1 REVERT JUMPDEST POP PUSH1 0x4 CALLDATASIZE LT PUSH2 0x36 JUMPI PUSH1 0x0 CALLDATALOAD PUSH1 0xE0 SHR DUP1 PUSH4 0xA2DBFE65 EQ PUSH2 0x3B JUMPI DUP1 PUSH4 0xF7DE1C8B EQ PUSH2 0x50 JUMPI JUMPDEST PUSH1 0x0 DUP1 REVERT JUMPDEST PUSH2 0x4E PUSH2 0x49 CALLDATASIZE PUSH1 0x4 PUSH2 0x3B5 JUMP JUMPDEST PUSH2 0x63 JUMP JUMPDEST STOP JUMPDEST PUSH2 0x4E PUSH2 0x5E CALLDATASIZE PUSH1 0x4 PUSH2 0x531 JUMP JUMPDEST PUSH2 0x1B5 JUMP JUMPDEST PUSH1 0x40 MLOAD CALLER SWAP1 PUSH1 0x60 SWAP1 PUSH32 0xB4BE83D500000000000000000000000000000000000000000000000000000000 SWAP1 PUSH2 0x9F SWAP1 DUP10 SWAP1 DUP10 SWAP1 DUP9 SWAP1 PUSH1 0x24 ADD PUSH2 0x634 JUMP JUMPDEST PUSH1 0x40 DUP1 MLOAD PUSH32 0xFFFFFFFFFFFFFFFFFFFFFFFFFFFFFFFFFFFFFFFFFFFFFFFFFFFFFFFFFFFFFFE0 DUP2 DUP5 SUB ADD DUP2 MSTORE SWAP2 DUP2 MSTORE PUSH1 0x20 DUP3 ADD DUP1 MLOAD PUSH28 0xFFFFFFFFFFFFFFFFFFFFFFFFFFFFFFFFFFFFFFFFFFFFFFFFFFFFFFFF AND PUSH32 0xFFFFFFFF00000000000000000000000000000000000000000000000000000000 SWAP1 SWAP5 AND SWAP4 SWAP1 SWAP4 OR SWAP1 SWAP3 MSTORE PUSH1 0x0 SLOAD SWAP2 MLOAD PUSH32 0xBFC8BFCE00000000000000000000000000000000000000000000000000000000 DUP2 MSTORE SWAP1 SWAP3 POP PUSH20 0xFFFFFFFFFFFFFFFFFFFFFFFFFFFFFFFFFFFFFFFF SWAP1 SWAP2 AND SWAP1 PUSH4 0xBFC8BFCE SWAP1 PUSH2 0x17A SWAP1 DUP9 SWAP1 DUP7 SWAP1 DUP7 SWAP1 DUP10 SWAP1 PUSH1 0x4 ADD PUSH2 0x7E1 JUMP JUMPDEST PUSH1 0x0 PUSH1 0x40 MLOAD DUP1 DUP4 SUB DUP2 PUSH1 0x0 DUP8 DUP1 EXTCODESIZE ISZERO DUP1 ISZERO PUSH2 0x194 JUMPI PUSH1 0x0 DUP1 REVERT JUMPDEST POP GAS CALL ISZERO DUP1 ISZERO PUSH2 0x1A8 JUMPI RETURNDATASIZE PUSH1 0x0 DUP1 RETURNDATACOPY RETURNDATASIZE PUSH1 0x0 REVERT JUMPDEST POP POP POP POP POP POP POP POP POP POP POP JUMP JUMPDEST PUSH1 0x40 MLOAD CALLER SWAP1 PUSH1 0x60 SWAP1 PUSH32 0x4F9559B100000000000000000000000000000000000000000000000000000000 SWAP1 PUSH2 0x1ED SWAP1 DUP9 SWAP1 PUSH1 0x24 ADD PUSH2 0x750 JUMP JUMPDEST PUSH1 0x40 DUP1 MLOAD PUSH32 0xFFFFFFFFFFFFFFFFFFFFFFFFFFFFFFFFFFFFFFFFFFFFFFFFFFFFFFFFFFFFFFE0 DUP2 DUP5 SUB ADD DUP2 MSTORE SWAP2 DUP2 MSTORE PUSH1 0x20 DUP3 ADD DUP1 MLOAD PUSH28 0xFFFFFFFFFFFFFFFFFFFFFFFFFFFFFFFFFFFFFFFFFFFFFFFFFFFFFFFF AND PUSH32 0xFFFFFFFF00000000000000000000000000000000000000000000000000000000 SWAP1 SWAP5 AND SWAP4 SWAP1 SWAP4 OR SWAP1 SWAP3 MSTORE PUSH1 0x0 SLOAD SWAP2 MLOAD PUSH32 0xBFC8BFCE00000000000000000000000000000000000000000000000000000000 DUP2 MSTORE SWAP1 SWAP3 POP PUSH20 0xFFFFFFFFFFFFFFFFFFFFFFFFFFFFFFFFFFFFFFFF SWAP1 SWAP2 AND SWAP1 PUSH4 0xBFC8BFCE SWAP1 PUSH2 0x2CA SWAP1 DUP9 SWAP1 DUP7 SWAP1 DUP7 SWAP1 DUP11 SWAP1 DUP11 SWAP1 PUSH1 0x4 ADD PUSH2 0x759 JUMP JUMPDEST PUSH1 0x0 PUSH1 0x40 MLOAD DUP1 DUP4 SUB DUP2 PUSH1 0x0 DUP8 DUP1 EXTCODESIZE ISZERO DUP1 ISZERO PUSH2 0x2E4 JUMPI PUSH1 0x0 DUP1 REVERT JUMPDEST POP GAS CALL ISZERO DUP1 ISZERO PUSH2 0x2F8 JUMPI RETURNDATASIZE PUSH1 0x0 DUP1 RETURNDATACOPY RETURNDATASIZE PUSH1 0x0 REVERT JUMPDEST POP POP POP POP POP POP POP POP POP POP JUMP JUMPDEST DUP1 CALLDATALOAD PUSH20 0xFFFFFFFFFFFFFFFFFFFFFFFFFFFFFFFFFFFFFFFF DUP2 AND DUP2 EQ PUSH2 0x328 JUMPI PUSH1 0x0 DUP1 REVERT JUMPDEST SWAP3 SWAP2 POP POP JUMP JUMPDEST PUSH1 0x0 DUP3 PUSH1 0x1F DUP4 ADD SLT PUSH2 0x33E JUMPI DUP1 DUP2 REVERT JUMPDEST DUP2 CALLDATALOAD PUSH8 0xFFFFFFFFFFFFFFFF DUP2 GT ISZERO PUSH2 0x354 JUMPI DUP2 DUP3 REVERT JUMPDEST PUSH2 0x385 PUSH1 0x20 PUSH32 0xFFFFFFFFFFFFFFFFFFFFFFFFFFFFFFFFFFFFFFFFFFFFFFFFFFFFFFFFFFFFFFE0 PUSH1 0x1F DUP5 ADD AND ADD PUSH2 0x833 JUMP JUMPDEST SWAP2 POP DUP1 DUP3 MSTORE DUP4 PUSH1 0x20 DUP3 DUP6 ADD ADD GT ISZERO PUSH2 0x39C JUMPI PUSH1 0x0 DUP1 REVERT JUMPDEST DUP1 PUSH1 0x20 DUP5 ADD PUSH1 0x20 DUP5 ADD CALLDATACOPY PUSH1 0x0 SWAP1 DUP3 ADD PUSH1 0x20 ADD MSTORE SWAP3 SWAP2 POP POP JUMP JUMPDEST PUSH1 0x0 DUP1 PUSH1 0x0 DUP1 PUSH1 0x0 PUSH1 0xA0 DUP7 DUP9 SUB SLT ISZERO PUSH2 0x3CC JUMPI DUP1 DUP2 REVERT JUMPDEST DUP6 CALLDATALOAD PUSH8 0xFFFFFFFFFFFFFFFF DUP1 DUP3 GT ISZERO PUSH2 0x3E3 JUMPI DUP3 DUP4 REVERT JUMPDEST PUSH2 0x180 SWAP2 DUP9 ADD DUP1 DUP11 SUB DUP4 SGT ISZERO PUSH2 0x3F7 JUMPI DUP4 DUP5 REVERT JUMPDEST PUSH2 0x400 DUP4 PUSH2 0x833 JUMP JUMPDEST PUSH2 0x40A DUP12 DUP4 PUSH2 0x304 JUMP JUMPDEST DUP2 MSTORE PUSH2 0x419 DUP12 PUSH1 0x20 DUP5 ADD PUSH2 0x304 JUMP JUMPDEST PUSH1 0x20 DUP3 ADD MSTORE PUSH2 0x42B DUP12 PUSH1 0x40 DUP5 ADD PUSH2 0x304 JUMP JUMPDEST PUSH1 0x40 DUP3 ADD MSTORE PUSH2 0x43D DUP12 PUSH1 0x60 DUP5 ADD PUSH2 0x304 JUMP JUMPDEST PUSH1 0x60 DUP3 ADD MSTORE PUSH1 0x80 DUP3 ADD CALLDATALOAD PUSH1 0x80 DUP3 ADD MSTORE PUSH1 0xA0 DUP3 ADD CALLDATALOAD PUSH1 0xA0 DUP3 ADD MSTORE PUSH1 0xC0 DUP3 ADD CALLDATALOAD PUSH1 0xC0 DUP3 ADD MSTORE PUSH1 0xE0 DUP3 ADD CALLDATALOAD PUSH1 0xE0 DUP3 ADD MSTORE PUSH2 0x100 SWAP4 POP DUP4 DUP3 ADD CALLDATALOAD DUP5 DUP3 ADD MSTORE PUSH2 0x120 SWAP4 POP DUP4 DUP3 ADD CALLDATALOAD DUP5 DUP3 ADD MSTORE PUSH2 0x140 SWAP4 POP DUP4 DUP3 ADD CALLDATALOAD DUP4 DUP2 GT ISZERO PUSH2 0x499 JUMPI DUP6 DUP7 REVERT JUMPDEST PUSH2 0x4A5 DUP13 DUP3 DUP6 ADD PUSH2 0x32E JUMP JUMPDEST DUP6 DUP4 ADD MSTORE POP PUSH2 0x160 SWAP4 POP DUP4 DUP3 ADD CALLDATALOAD DUP4 DUP2 GT ISZERO PUSH2 0x4BF JUMPI DUP6 DUP7 REVERT JUMPDEST PUSH2 0x4CB DUP13 DUP3 DUP6 ADD PUSH2 0x32E JUMP JUMPDEST DUP6 DUP4 ADD MSTORE POP DUP1 SWAP9 POP POP POP PUSH1 0x20 DUP9 ADD CALLDATALOAD SWAP6 POP PUSH1 0x40 DUP9 ADD CALLDATALOAD SWAP5 POP PUSH1 0x60 DUP9 ADD CALLDATALOAD SWAP2 POP DUP1 DUP3 GT ISZERO PUSH2 0x4F6 JUMPI DUP3 DUP4 REVERT JUMPDEST PUSH2 0x502 DUP10 DUP4 DUP11 ADD PUSH2 0x32E JUMP JUMPDEST SWAP4 POP PUSH1 0x80 DUP9 ADD CALLDATALOAD SWAP2 POP DUP1 DUP3 GT ISZERO PUSH2 0x517 JUMPI DUP3 DUP4 REVERT JUMPDEST POP PUSH2 0x524 DUP9 DUP3 DUP10 ADD PUSH2 0x32E JUMP JUMPDEST SWAP2 POP POP SWAP3 SWAP6 POP SWAP3 SWAP6 SWAP1 SWAP4 POP JUMP JUMPDEST PUSH1 0x0 DUP1 PUSH1 0x0 DUP1 PUSH1 0x60 DUP6 DUP8 SUB SLT ISZERO PUSH2 0x547 JUMPI PUSH1 0x0 DUP1 REVERT JUMPDEST DUP5 CALLDATALOAD SWAP4 POP PUSH1 0x20 DUP6 ADD CALLDATALOAD SWAP3 POP PUSH1 0x40 DUP6 ADD CALLDATALOAD PUSH8 0xFFFFFFFFFFFFFFFF DUP1 DUP3 GT ISZERO PUSH2 0x56C JUMPI DUP4 DUP5 REVERT JUMPDEST DUP2 DUP8 ADD DUP9 PUSH1 0x1F DUP3 ADD SLT PUSH2 0x57D JUMPI DUP5 DUP6 REVERT JUMPDEST DUP1 CALLDATALOAD SWAP3 POP DUP2 DUP4 GT ISZERO PUSH2 0x58D JUMPI DUP5 DUP6 REVERT JUMPDEST DUP9 PUSH1 0x20 DUP5 DUP4 ADD ADD GT ISZERO PUSH2 0x59E JUMPI DUP5 DUP6 REVERT JUMPDEST SWAP6 SWAP9 SWAP5 SWAP8 POP POP PUSH1 0x20 SWAP1 SWAP5 ADD SWAP5 POP POP POP JUMP JUMPDEST PUSH20 0xFFFFFFFFFFFFFFFFFFFFFFFFFFFFFFFFFFFFFFFF AND SWAP1 MSTORE JUMP JUMPDEST PUSH1 0x0 DUP2 MLOAD DUP1 DUP5 MSTORE PUSH1 0x0 JUMPDEST DUP2 DUP2 LT ISZERO PUSH2 0x5EF JUMPI PUSH1 0x20 DUP2 DUP6 ADD DUP2 ADD MLOAD DUP7 DUP4 ADD DUP3 ADD MSTORE ADD PUSH2 0x5D3 JUMP JUMPDEST DUP2 DUP2 GT ISZERO PUSH2 0x601 JUMPI PUSH1 0x0 PUSH1 0x20 DUP4 DUP8 ADD ADD MSTORE JUMPDEST POP PUSH1 0x1F ADD PUSH32 0xFFFFFFFFFFFFFFFFFFFFFFFFFFFFFFFFFFFFFFFFFFFFFFFFFFFFFFFFFFFFFFE0 AND SWAP3 SWAP1 SWAP3 ADD PUSH1 0x20 ADD SWAP3 SWAP2 POP POP JUMP JUMPDEST PUSH1 0x0 PUSH1 0x60 DUP3 MSTORE PUSH2 0x180 PUSH2 0x64B PUSH1 0x60 DUP5 ADD DUP8 MLOAD PUSH2 0x5AF JUMP JUMPDEST PUSH1 0x20 DUP7 ADD MLOAD PUSH2 0x65D PUSH1 0x80 DUP6 ADD DUP3 PUSH2 0x5AF JUMP JUMPDEST POP PUSH1 0x40 DUP7 ADD MLOAD PUSH2 0x670 PUSH1 0xA0 DUP6 ADD DUP3 PUSH2 0x5AF JUMP JUMPDEST POP PUSH1 0x60 DUP7 ADD MLOAD PUSH2 0x683 PUSH1 0xC0 DUP6 ADD DUP3 PUSH2 0x5AF JUMP JUMPDEST POP PUSH1 0x80 DUP7 ADD MLOAD PUSH1 0xE0 DUP5 ADD MSTORE PUSH1 0xA0 DUP7 ADD MLOAD PUSH2 0x100 DUP2 DUP2 DUP7 ADD MSTORE PUSH1 0xC0 DUP9 ADD MLOAD SWAP2 POP PUSH2 0x120 DUP3 DUP2 DUP8 ADD MSTORE PUSH1 0xE0 DUP10 ADD MLOAD SWAP3 POP PUSH2 0x140 DUP4 DUP2 DUP9 ADD MSTORE DUP3 DUP11 ADD MLOAD SWAP4 POP PUSH2 0x160 SWAP3 POP DUP4 DUP4 DUP9 ADD MSTORE DUP2 DUP11 ADD MLOAD DUP6 DUP9 ADD MSTORE DUP1 DUP11 ADD MLOAD SWAP4 POP POP POP DUP3 PUSH2 0x1A0 DUP7 ADD MSTORE PUSH2 0x6EE PUSH2 0x1E0 DUP7 ADD DUP4 PUSH2 0x5C9 JUMP JUMPDEST SWAP3 POP DUP1 DUP9 ADD MLOAD SWAP2 POP POP PUSH32 0xFFFFFFFFFFFFFFFFFFFFFFFFFFFFFFFFFFFFFFFFFFFFFFFFFFFFFFFFFFFFFFA0 DUP5 DUP4 SUB ADD PUSH2 0x1C0 DUP6 ADD MSTORE PUSH2 0x72C DUP3 DUP3 PUSH2 0x5C9 JUMP JUMPDEST DUP7 PUSH1 0x20 DUP7 ADD MSTORE DUP5 DUP2 SUB PUSH1 0x40 DUP7 ADD MSTORE PUSH2 0x744 DUP2 DUP8 PUSH2 0x5C9 JUMP JUMPDEST SWAP9 SWAP8 POP POP POP POP POP POP POP POP JUMP JUMPDEST SWAP1 DUP2 MSTORE PUSH1 0x20 ADD SWAP1 JUMP JUMPDEST PUSH1 0x0 DUP7 DUP3 MSTORE PUSH20 0xFFFFFFFFFFFFFFFFFFFFFFFFFFFFFFFFFFFFFFFF DUP7 AND PUSH1 0x20 DUP4 ADD MSTORE PUSH1 0x80 PUSH1 0x40 DUP4 ADD MSTORE PUSH2 0x78E PUSH1 0x80 DUP4 ADD DUP7 PUSH2 0x5C9 JUMP JUMPDEST DUP3 DUP2 SUB PUSH1 0x60 DUP5 ADD MSTORE DUP4 DUP2 MSTORE DUP4 DUP6 PUSH1 0x20 DUP4 ADD CALLDATACOPY PUSH1 0x0 PUSH1 0x20 DUP6 DUP4 ADD ADD MSTORE PUSH1 0x20 PUSH32 0xFFFFFFFFFFFFFFFFFFFFFFFFFFFFFFFFFFFFFFFFFFFFFFFFFFFFFFFFFFFFFFE0 PUSH1 0x1F DUP7 ADD AND DUP3 ADD ADD SWAP2 POP POP SWAP7 SWAP6 POP POP POP POP POP POP JUMP JUMPDEST PUSH1 0x0 DUP6 DUP3 MSTORE PUSH20 0xFFFFFFFFFFFFFFFFFFFFFFFFFFFFFFFFFFFFFFFF DUP6 AND PUSH1 0x20 DUP4 ADD MSTORE PUSH1 0x80 PUSH1 0x40 DUP4 ADD MSTORE PUSH2 0x816 PUSH1 0x80 DUP4 ADD DUP6 PUSH2 0x5C9 JUMP JUMPDEST DUP3 DUP2 SUB PUSH1 0x60 DUP5 ADD MSTORE PUSH2 0x828 DUP2 DUP6 PUSH2 0x5C9 JUMP JUMPDEST SWAP8 SWAP7 POP POP POP POP POP POP POP JUMP JUMPDEST PUSH1 0x40 MLOAD DUP2 DUP2 ADD PUSH8 0xFFFFFFFFFFFFFFFF DUP2 GT DUP3 DUP3 LT OR ISZERO PUSH2 0x852 JUMPI PUSH1 0x0 DUP1 REVERT JUMPDEST PUSH1 0x40 MSTORE SWAP2 SWAP1 POP JUMP INVALID LOG3 PUSH6 0x627A7A723058 KECCAK256 0xbf ADD LOG3 SHR SIGNEXTEND REVERT EXTCODESIZE SGT 0xe2 0xca SLOAD DUP5 0xb7 0xe8 0x27 LOG1 SWAP10 PUSH31 0xCA94E395E55A4309E29A1021444E6C6578706572696D656E74616CF564736F PUSH13 0x634300050A0040000000000000 "
			}
		}
	},
	"sourceTreeHashHex": "0xdc6572d5c56513d3df4576adc1d31fd99a03510cb339f03ba863eb7c958ac1ed",
	"compiler": {
		"name": "solc",
		"version": "soljson-v0.5.10+commit.5a6ea5b1.js",
		"settings": {
			"optimizer": {
				"enabled": true,
				"runs": 1000000,
				"details": {
					"yul": true,
					"deduplicate": true,
					"cse": true,
					"constantOptimizer": true
				}
			},
			"outputSelection": {
				"*": {
					"*": [
						"abi",
						"devdoc",
						"evm.bytecode.object",
						"evm.bytecode.sourceMap",
						"evm.deployedBytecode.object",
						"evm.deployedBytecode.sourceMap"
					]
				}
			},
			"evmVersion": "constantinople",
			"remappings": [
				"@0x/contracts-exchange-libs=/Users/fabioberger/Documents/projects/0x_project/0x-monorepo-one/contracts/exchange/node_modules/@0x/contracts-exchange-libs",
				"@0x/contracts-utils=/Users/fabioberger/Documents/projects/0x_project/0x-monorepo-one/contracts/exchange/node_modules/@0x/contracts-utils",
				"@0x/contracts-erc20=/Users/fabioberger/Documents/projects/0x_project/0x-monorepo-one/contracts/exchange/node_modules/@0x/contracts-erc20"
			]
		}
	}
}