{
	"schemaVersion": "2.0.0",
	"contractName": "TestExchangeInternals",
	"compilerOutput": {
		"abi": [
			{
				"constant": true,
				"inputs": [
					{
						"name": "numerator",
						"type": "uint256"
					},
					{
						"name": "denominator",
						"type": "uint256"
					},
					{
						"name": "target",
						"type": "uint256"
					}
				],
				"name": "publicIsRoundingErrorFloor",
				"outputs": [
					{
						"name": "isError",
						"type": "bool"
					}
				],
				"payable": false,
				"stateMutability": "pure",
				"type": "function"
			},
			{
				"constant": false,
				"inputs": [
					{
						"components": [
							{
								"name": "makerAddress",
								"type": "address"
							},
							{
								"name": "takerAddress",
								"type": "address"
							},
							{
								"name": "feeRecipientAddress",
								"type": "address"
							},
							{
								"name": "senderAddress",
								"type": "address"
							},
							{
								"name": "makerAssetAmount",
								"type": "uint256"
							},
							{
								"name": "takerAssetAmount",
								"type": "uint256"
							},
							{
								"name": "makerFee",
								"type": "uint256"
							},
							{
								"name": "takerFee",
								"type": "uint256"
							},
							{
								"name": "expirationTimeSeconds",
								"type": "uint256"
							},
							{
								"name": "salt",
								"type": "uint256"
							},
							{
								"name": "makerAssetData",
								"type": "bytes"
							},
							{
								"name": "takerAssetData",
								"type": "bytes"
							}
						],
						"name": "order",
						"type": "tuple"
					},
					{
						"name": "takerAddress",
						"type": "address"
					},
					{
						"name": "orderHash",
						"type": "bytes32"
					},
					{
						"name": "orderTakerAssetFilledAmount",
						"type": "uint256"
					},
					{
						"components": [
							{
								"name": "makerAssetFilledAmount",
								"type": "uint256"
							},
							{
								"name": "takerAssetFilledAmount",
								"type": "uint256"
							},
							{
								"name": "makerFeePaid",
								"type": "uint256"
							},
							{
								"name": "takerFeePaid",
								"type": "uint256"
							}
						],
						"name": "fillResults",
						"type": "tuple"
					}
				],
				"name": "publicUpdateFilledState",
				"outputs": [],
				"payable": false,
				"stateMutability": "nonpayable",
				"type": "function"
			},
			{
				"constant": true,
				"inputs": [
					{
						"name": "numerator",
						"type": "uint256"
					},
					{
						"name": "denominator",
						"type": "uint256"
					},
					{
						"name": "target",
						"type": "uint256"
					}
				],
				"name": "publicGetPartialAmountCeil",
				"outputs": [
					{
						"name": "partialAmount",
						"type": "uint256"
					}
				],
				"payable": false,
				"stateMutability": "pure",
				"type": "function"
			},
			{
				"constant": true,
				"inputs": [
					{
						"name": "",
						"type": "bytes32"
					}
				],
				"name": "filled",
				"outputs": [
					{
						"name": "",
						"type": "uint256"
					}
				],
				"payable": false,
				"stateMutability": "view",
				"type": "function"
			},
			{
				"constant": false,
				"inputs": [
					{
						"components": [
							{
								"name": "makerAddress",
								"type": "address"
							},
							{
								"name": "takerAddress",
								"type": "address"
							},
							{
								"name": "feeRecipientAddress",
								"type": "address"
							},
							{
								"name": "senderAddress",
								"type": "address"
							},
							{
								"name": "makerAssetAmount",
								"type": "uint256"
							},
							{
								"name": "takerAssetAmount",
								"type": "uint256"
							},
							{
								"name": "makerFee",
								"type": "uint256"
							},
							{
								"name": "takerFee",
								"type": "uint256"
							},
							{
								"name": "expirationTimeSeconds",
								"type": "uint256"
							},
							{
								"name": "salt",
								"type": "uint256"
							},
							{
								"name": "makerAssetData",
								"type": "bytes"
							},
							{
								"name": "takerAssetData",
								"type": "bytes"
							}
						],
						"name": "orders",
						"type": "tuple[]"
					},
					{
						"name": "takerAssetFillAmounts",
						"type": "uint256[]"
					},
					{
						"name": "signatures",
						"type": "bytes[]"
					}
				],
				"name": "batchFillOrders",
				"outputs": [
					{
						"components": [
							{
								"name": "makerAssetFilledAmount",
								"type": "uint256"
							},
							{
								"name": "takerAssetFilledAmount",
								"type": "uint256"
							},
							{
								"name": "makerFeePaid",
								"type": "uint256"
							},
							{
								"name": "takerFeePaid",
								"type": "uint256"
							}
						],
						"name": "totalFillResults",
						"type": "tuple"
					}
				],
				"payable": false,
				"stateMutability": "nonpayable",
				"type": "function"
			},
			{
				"constant": true,
				"inputs": [
					{
						"name": "",
						"type": "bytes32"
					}
				],
				"name": "cancelled",
				"outputs": [
					{
						"name": "",
						"type": "bool"
					}
				],
				"payable": false,
				"stateMutability": "view",
				"type": "function"
			},
			{
				"constant": false,
				"inputs": [
					{
						"name": "hash",
						"type": "bytes32"
					},
					{
						"name": "signerAddress",
						"type": "address"
					},
					{
						"name": "signature",
						"type": "bytes"
					}
				],
				"name": "preSign",
				"outputs": [],
				"payable": false,
				"stateMutability": "nonpayable",
				"type": "function"
			},
			{
				"constant": false,
				"inputs": [
					{
						"components": [
							{
								"name": "makerAddress",
								"type": "address"
							},
							{
								"name": "takerAddress",
								"type": "address"
							},
							{
								"name": "feeRecipientAddress",
								"type": "address"
							},
							{
								"name": "senderAddress",
								"type": "address"
							},
							{
								"name": "makerAssetAmount",
								"type": "uint256"
							},
							{
								"name": "takerAssetAmount",
								"type": "uint256"
							},
							{
								"name": "makerFee",
								"type": "uint256"
							},
							{
								"name": "takerFee",
								"type": "uint256"
							},
							{
								"name": "expirationTimeSeconds",
								"type": "uint256"
							},
							{
								"name": "salt",
								"type": "uint256"
							},
							{
								"name": "makerAssetData",
								"type": "bytes"
							},
							{
								"name": "takerAssetData",
								"type": "bytes"
							}
						],
						"name": "leftOrder",
						"type": "tuple"
					},
					{
						"components": [
							{
								"name": "makerAddress",
								"type": "address"
							},
							{
								"name": "takerAddress",
								"type": "address"
							},
							{
								"name": "feeRecipientAddress",
								"type": "address"
							},
							{
								"name": "senderAddress",
								"type": "address"
							},
							{
								"name": "makerAssetAmount",
								"type": "uint256"
							},
							{
								"name": "takerAssetAmount",
								"type": "uint256"
							},
							{
								"name": "makerFee",
								"type": "uint256"
							},
							{
								"name": "takerFee",
								"type": "uint256"
							},
							{
								"name": "expirationTimeSeconds",
								"type": "uint256"
							},
							{
								"name": "salt",
								"type": "uint256"
							},
							{
								"name": "makerAssetData",
								"type": "bytes"
							},
							{
								"name": "takerAssetData",
								"type": "bytes"
							}
						],
						"name": "rightOrder",
						"type": "tuple"
					},
					{
						"name": "leftSignature",
						"type": "bytes"
					},
					{
						"name": "rightSignature",
						"type": "bytes"
					}
				],
				"name": "matchOrders",
				"outputs": [
					{
						"components": [
							{
								"components": [
									{
										"name": "makerAssetFilledAmount",
										"type": "uint256"
									},
									{
										"name": "takerAssetFilledAmount",
										"type": "uint256"
									},
									{
										"name": "makerFeePaid",
										"type": "uint256"
									},
									{
										"name": "takerFeePaid",
										"type": "uint256"
									}
								],
								"name": "left",
								"type": "tuple"
							},
							{
								"components": [
									{
										"name": "makerAssetFilledAmount",
										"type": "uint256"
									},
									{
										"name": "takerAssetFilledAmount",
										"type": "uint256"
									},
									{
										"name": "makerFeePaid",
										"type": "uint256"
									},
									{
										"name": "takerFeePaid",
										"type": "uint256"
									}
								],
								"name": "right",
								"type": "tuple"
							},
							{
								"name": "leftMakerAssetSpreadAmount",
								"type": "uint256"
							}
						],
						"name": "matchedFillResults",
						"type": "tuple"
					}
				],
				"payable": false,
				"stateMutability": "nonpayable",
				"type": "function"
			},
			{
				"constant": false,
				"inputs": [
					{
						"components": [
							{
								"name": "makerAddress",
								"type": "address"
							},
							{
								"name": "takerAddress",
								"type": "address"
							},
							{
								"name": "feeRecipientAddress",
								"type": "address"
							},
							{
								"name": "senderAddress",
								"type": "address"
							},
							{
								"name": "makerAssetAmount",
								"type": "uint256"
							},
							{
								"name": "takerAssetAmount",
								"type": "uint256"
							},
							{
								"name": "makerFee",
								"type": "uint256"
							},
							{
								"name": "takerFee",
								"type": "uint256"
							},
							{
								"name": "expirationTimeSeconds",
								"type": "uint256"
							},
							{
								"name": "salt",
								"type": "uint256"
							},
							{
								"name": "makerAssetData",
								"type": "bytes"
							},
							{
								"name": "takerAssetData",
								"type": "bytes"
							}
						],
						"name": "order",
						"type": "tuple"
					},
					{
						"name": "takerAssetFillAmount",
						"type": "uint256"
					},
					{
						"name": "signature",
						"type": "bytes"
					}
				],
				"name": "fillOrderNoThrow",
				"outputs": [
					{
						"components": [
							{
								"name": "makerAssetFilledAmount",
								"type": "uint256"
							},
							{
								"name": "takerAssetFilledAmount",
								"type": "uint256"
							},
							{
								"name": "makerFeePaid",
								"type": "uint256"
							},
							{
								"name": "takerFeePaid",
								"type": "uint256"
							}
						],
						"name": "fillResults",
						"type": "tuple"
					}
				],
				"payable": false,
				"stateMutability": "nonpayable",
				"type": "function"
			},
			{
				"constant": true,
				"inputs": [
					{
						"name": "",
						"type": "bytes4"
					}
				],
				"name": "assetProxies",
				"outputs": [
					{
						"name": "",
						"type": "address"
					}
				],
				"payable": false,
				"stateMutability": "view",
				"type": "function"
			},
			{
				"constant": false,
				"inputs": [
					{
						"components": [
							{
								"name": "makerAddress",
								"type": "address"
							},
							{
								"name": "takerAddress",
								"type": "address"
							},
							{
								"name": "feeRecipientAddress",
								"type": "address"
							},
							{
								"name": "senderAddress",
								"type": "address"
							},
							{
								"name": "makerAssetAmount",
								"type": "uint256"
							},
							{
								"name": "takerAssetAmount",
								"type": "uint256"
							},
							{
								"name": "makerFee",
								"type": "uint256"
							},
							{
								"name": "takerFee",
								"type": "uint256"
							},
							{
								"name": "expirationTimeSeconds",
								"type": "uint256"
							},
							{
								"name": "salt",
								"type": "uint256"
							},
							{
								"name": "makerAssetData",
								"type": "bytes"
							},
							{
								"name": "takerAssetData",
								"type": "bytes"
							}
						],
						"name": "orders",
						"type": "tuple[]"
					}
				],
				"name": "batchCancelOrders",
				"outputs": [],
				"payable": false,
				"stateMutability": "nonpayable",
				"type": "function"
			},
			{
				"constant": false,
				"inputs": [
					{
						"components": [
							{
								"name": "makerAddress",
								"type": "address"
							},
							{
								"name": "takerAddress",
								"type": "address"
							},
							{
								"name": "feeRecipientAddress",
								"type": "address"
							},
							{
								"name": "senderAddress",
								"type": "address"
							},
							{
								"name": "makerAssetAmount",
								"type": "uint256"
							},
							{
								"name": "takerAssetAmount",
								"type": "uint256"
							},
							{
								"name": "makerFee",
								"type": "uint256"
							},
							{
								"name": "takerFee",
								"type": "uint256"
							},
							{
								"name": "expirationTimeSeconds",
								"type": "uint256"
							},
							{
								"name": "salt",
								"type": "uint256"
							},
							{
								"name": "makerAssetData",
								"type": "bytes"
							},
							{
								"name": "takerAssetData",
								"type": "bytes"
							}
						],
						"name": "orders",
						"type": "tuple[]"
					},
					{
						"name": "takerAssetFillAmounts",
						"type": "uint256[]"
					},
					{
						"name": "signatures",
						"type": "bytes[]"
					}
				],
				"name": "batchFillOrKillOrders",
				"outputs": [
					{
						"components": [
							{
								"name": "makerAssetFilledAmount",
								"type": "uint256"
							},
							{
								"name": "takerAssetFilledAmount",
								"type": "uint256"
							},
							{
								"name": "makerFeePaid",
								"type": "uint256"
							},
							{
								"name": "takerFeePaid",
								"type": "uint256"
							}
						],
						"name": "totalFillResults",
						"type": "tuple"
					}
				],
				"payable": false,
				"stateMutability": "nonpayable",
				"type": "function"
			},
			{
				"constant": false,
				"inputs": [
					{
						"name": "targetOrderEpoch",
						"type": "uint256"
					}
				],
				"name": "cancelOrdersUpTo",
				"outputs": [],
				"payable": false,
				"stateMutability": "nonpayable",
				"type": "function"
			},
			{
				"constant": false,
				"inputs": [
					{
						"components": [
							{
								"name": "makerAddress",
								"type": "address"
							},
							{
								"name": "takerAddress",
								"type": "address"
							},
							{
								"name": "feeRecipientAddress",
								"type": "address"
							},
							{
								"name": "senderAddress",
								"type": "address"
							},
							{
								"name": "makerAssetAmount",
								"type": "uint256"
							},
							{
								"name": "takerAssetAmount",
								"type": "uint256"
							},
							{
								"name": "makerFee",
								"type": "uint256"
							},
							{
								"name": "takerFee",
								"type": "uint256"
							},
							{
								"name": "expirationTimeSeconds",
								"type": "uint256"
							},
							{
								"name": "salt",
								"type": "uint256"
							},
							{
								"name": "makerAssetData",
								"type": "bytes"
							},
							{
								"name": "takerAssetData",
								"type": "bytes"
							}
						],
						"name": "orders",
						"type": "tuple[]"
					},
					{
						"name": "takerAssetFillAmounts",
						"type": "uint256[]"
					},
					{
						"name": "signatures",
						"type": "bytes[]"
					}
				],
				"name": "batchFillOrdersNoThrow",
				"outputs": [
					{
						"components": [
							{
								"name": "makerAssetFilledAmount",
								"type": "uint256"
							},
							{
								"name": "takerAssetFilledAmount",
								"type": "uint256"
							},
							{
								"name": "makerFeePaid",
								"type": "uint256"
							},
							{
								"name": "takerFeePaid",
								"type": "uint256"
							}
						],
						"name": "totalFillResults",
						"type": "tuple"
					}
				],
				"payable": false,
				"stateMutability": "nonpayable",
				"type": "function"
			},
			{
				"constant": true,
				"inputs": [
					{
						"name": "assetProxyId",
						"type": "bytes4"
					}
				],
				"name": "getAssetProxy",
				"outputs": [
					{
						"name": "",
						"type": "address"
					}
				],
				"payable": false,
				"stateMutability": "view",
				"type": "function"
			},
			{
				"constant": true,
				"inputs": [
					{
						"name": "",
						"type": "bytes32"
					}
				],
				"name": "transactions",
				"outputs": [
					{
						"name": "",
						"type": "bool"
					}
				],
				"payable": false,
				"stateMutability": "view",
				"type": "function"
			},
			{
				"constant": false,
				"inputs": [
					{
						"components": [
							{
								"name": "makerAddress",
								"type": "address"
							},
							{
								"name": "takerAddress",
								"type": "address"
							},
							{
								"name": "feeRecipientAddress",
								"type": "address"
							},
							{
								"name": "senderAddress",
								"type": "address"
							},
							{
								"name": "makerAssetAmount",
								"type": "uint256"
							},
							{
								"name": "takerAssetAmount",
								"type": "uint256"
							},
							{
								"name": "makerFee",
								"type": "uint256"
							},
							{
								"name": "takerFee",
								"type": "uint256"
							},
							{
								"name": "expirationTimeSeconds",
								"type": "uint256"
							},
							{
								"name": "salt",
								"type": "uint256"
							},
							{
								"name": "makerAssetData",
								"type": "bytes"
							},
							{
								"name": "takerAssetData",
								"type": "bytes"
							}
						],
						"name": "order",
						"type": "tuple"
					},
					{
						"name": "takerAssetFillAmount",
						"type": "uint256"
					},
					{
						"name": "signature",
						"type": "bytes"
					}
				],
				"name": "fillOrKillOrder",
				"outputs": [
					{
						"components": [
							{
								"name": "makerAssetFilledAmount",
								"type": "uint256"
							},
							{
								"name": "takerAssetFilledAmount",
								"type": "uint256"
							},
							{
								"name": "makerFeePaid",
								"type": "uint256"
							},
							{
								"name": "takerFeePaid",
								"type": "uint256"
							}
						],
						"name": "fillResults",
						"type": "tuple"
					}
				],
				"payable": false,
				"stateMutability": "nonpayable",
				"type": "function"
			},
			{
				"constant": true,
				"inputs": [
					{
						"components": [
							{
								"name": "makerAssetFilledAmount",
								"type": "uint256"
							},
							{
								"name": "takerAssetFilledAmount",
								"type": "uint256"
							},
							{
								"name": "makerFeePaid",
								"type": "uint256"
							},
							{
								"name": "takerFeePaid",
								"type": "uint256"
							}
						],
						"name": "totalFillResults",
						"type": "tuple"
					},
					{
						"components": [
							{
								"name": "makerAssetFilledAmount",
								"type": "uint256"
							},
							{
								"name": "takerAssetFilledAmount",
								"type": "uint256"
							},
							{
								"name": "makerFeePaid",
								"type": "uint256"
							},
							{
								"name": "takerFeePaid",
								"type": "uint256"
							}
						],
						"name": "singleFillResults",
						"type": "tuple"
					}
				],
				"name": "publicAddFillResults",
				"outputs": [
					{
						"components": [
							{
								"name": "makerAssetFilledAmount",
								"type": "uint256"
							},
							{
								"name": "takerAssetFilledAmount",
								"type": "uint256"
							},
							{
								"name": "makerFeePaid",
								"type": "uint256"
							},
							{
								"name": "takerFeePaid",
								"type": "uint256"
							}
						],
						"name": "",
						"type": "tuple"
					}
				],
				"payable": false,
				"stateMutability": "pure",
				"type": "function"
			},
			{
				"constant": true,
				"inputs": [
					{
						"name": "numerator",
						"type": "uint256"
					},
					{
						"name": "denominator",
						"type": "uint256"
					},
					{
						"name": "target",
						"type": "uint256"
					}
				],
				"name": "publicIsRoundingErrorCeil",
				"outputs": [
					{
						"name": "isError",
						"type": "bool"
					}
				],
				"payable": false,
				"stateMutability": "pure",
				"type": "function"
			},
			{
				"constant": false,
				"inputs": [
					{
						"name": "validatorAddress",
						"type": "address"
					},
					{
						"name": "approval",
						"type": "bool"
					}
				],
				"name": "setSignatureValidatorApproval",
				"outputs": [],
				"payable": false,
				"stateMutability": "nonpayable",
				"type": "function"
			},
			{
				"constant": true,
				"inputs": [
					{
						"name": "",
						"type": "address"
					},
					{
						"name": "",
						"type": "address"
					}
				],
				"name": "allowedValidators",
				"outputs": [
					{
						"name": "",
						"type": "bool"
					}
				],
				"payable": false,
				"stateMutability": "view",
				"type": "function"
			},
			{
				"constant": false,
				"inputs": [
					{
						"components": [
							{
								"name": "makerAddress",
								"type": "address"
							},
							{
								"name": "takerAddress",
								"type": "address"
							},
							{
								"name": "feeRecipientAddress",
								"type": "address"
							},
							{
								"name": "senderAddress",
								"type": "address"
							},
							{
								"name": "makerAssetAmount",
								"type": "uint256"
							},
							{
								"name": "takerAssetAmount",
								"type": "uint256"
							},
							{
								"name": "makerFee",
								"type": "uint256"
							},
							{
								"name": "takerFee",
								"type": "uint256"
							},
							{
								"name": "expirationTimeSeconds",
								"type": "uint256"
							},
							{
								"name": "salt",
								"type": "uint256"
							},
							{
								"name": "makerAssetData",
								"type": "bytes"
							},
							{
								"name": "takerAssetData",
								"type": "bytes"
							}
						],
						"name": "orders",
						"type": "tuple[]"
					},
					{
						"name": "takerAssetFillAmount",
						"type": "uint256"
					},
					{
						"name": "signatures",
						"type": "bytes[]"
					}
				],
				"name": "marketSellOrders",
				"outputs": [
					{
						"components": [
							{
								"name": "makerAssetFilledAmount",
								"type": "uint256"
							},
							{
								"name": "takerAssetFilledAmount",
								"type": "uint256"
							},
							{
								"name": "makerFeePaid",
								"type": "uint256"
							},
							{
								"name": "takerFeePaid",
								"type": "uint256"
							}
						],
						"name": "totalFillResults",
						"type": "tuple"
					}
				],
				"payable": false,
				"stateMutability": "nonpayable",
				"type": "function"
			},
			{
				"constant": true,
				"inputs": [
					{
						"components": [
							{
								"name": "makerAddress",
								"type": "address"
							},
							{
								"name": "takerAddress",
								"type": "address"
							},
							{
								"name": "feeRecipientAddress",
								"type": "address"
							},
							{
								"name": "senderAddress",
								"type": "address"
							},
							{
								"name": "makerAssetAmount",
								"type": "uint256"
							},
							{
								"name": "takerAssetAmount",
								"type": "uint256"
							},
							{
								"name": "makerFee",
								"type": "uint256"
							},
							{
								"name": "takerFee",
								"type": "uint256"
							},
							{
								"name": "expirationTimeSeconds",
								"type": "uint256"
							},
							{
								"name": "salt",
								"type": "uint256"
							},
							{
								"name": "makerAssetData",
								"type": "bytes"
							},
							{
								"name": "takerAssetData",
								"type": "bytes"
							}
						],
						"name": "orders",
						"type": "tuple[]"
					}
				],
				"name": "getOrdersInfo",
				"outputs": [
					{
						"components": [
							{
								"name": "orderStatus",
								"type": "uint8"
							},
							{
								"name": "orderHash",
								"type": "bytes32"
							},
							{
								"name": "orderTakerAssetFilledAmount",
								"type": "uint256"
							}
						],
						"name": "",
						"type": "tuple[]"
					}
				],
				"payable": false,
				"stateMutability": "view",
				"type": "function"
			},
			{
				"constant": true,
				"inputs": [
					{
						"name": "",
						"type": "bytes32"
					},
					{
						"name": "",
						"type": "address"
					}
				],
				"name": "preSigned",
				"outputs": [
					{
						"name": "",
						"type": "bool"
					}
				],
				"payable": false,
				"stateMutability": "view",
				"type": "function"
			},
			{
				"constant": true,
				"inputs": [],
				"name": "owner",
				"outputs": [
					{
						"name": "",
						"type": "address"
					}
				],
				"payable": false,
				"stateMutability": "view",
				"type": "function"
			},
			{
				"constant": true,
				"inputs": [
					{
						"name": "hash",
						"type": "bytes32"
					},
					{
						"name": "signerAddress",
						"type": "address"
					},
					{
						"name": "signature",
						"type": "bytes"
					}
				],
				"name": "isValidSignature",
				"outputs": [
					{
						"name": "isValid",
						"type": "bool"
					}
				],
				"payable": false,
				"stateMutability": "view",
				"type": "function"
			},
			{
				"constant": false,
				"inputs": [
					{
						"components": [
							{
								"name": "makerAddress",
								"type": "address"
							},
							{
								"name": "takerAddress",
								"type": "address"
							},
							{
								"name": "feeRecipientAddress",
								"type": "address"
							},
							{
								"name": "senderAddress",
								"type": "address"
							},
							{
								"name": "makerAssetAmount",
								"type": "uint256"
							},
							{
								"name": "takerAssetAmount",
								"type": "uint256"
							},
							{
								"name": "makerFee",
								"type": "uint256"
							},
							{
								"name": "takerFee",
								"type": "uint256"
							},
							{
								"name": "expirationTimeSeconds",
								"type": "uint256"
							},
							{
								"name": "salt",
								"type": "uint256"
							},
							{
								"name": "makerAssetData",
								"type": "bytes"
							},
							{
								"name": "takerAssetData",
								"type": "bytes"
							}
						],
						"name": "orders",
						"type": "tuple[]"
					},
					{
						"name": "makerAssetFillAmount",
						"type": "uint256"
					},
					{
						"name": "signatures",
						"type": "bytes[]"
					}
				],
				"name": "marketBuyOrdersNoThrow",
				"outputs": [
					{
						"components": [
							{
								"name": "makerAssetFilledAmount",
								"type": "uint256"
							},
							{
								"name": "takerAssetFilledAmount",
								"type": "uint256"
							},
							{
								"name": "makerFeePaid",
								"type": "uint256"
							},
							{
								"name": "takerFeePaid",
								"type": "uint256"
							}
						],
						"name": "totalFillResults",
						"type": "tuple"
					}
				],
				"payable": false,
				"stateMutability": "nonpayable",
				"type": "function"
			},
			{
				"constant": false,
				"inputs": [
					{
						"components": [
							{
								"name": "makerAddress",
								"type": "address"
							},
							{
								"name": "takerAddress",
								"type": "address"
							},
							{
								"name": "feeRecipientAddress",
								"type": "address"
							},
							{
								"name": "senderAddress",
								"type": "address"
							},
							{
								"name": "makerAssetAmount",
								"type": "uint256"
							},
							{
								"name": "takerAssetAmount",
								"type": "uint256"
							},
							{
								"name": "makerFee",
								"type": "uint256"
							},
							{
								"name": "takerFee",
								"type": "uint256"
							},
							{
								"name": "expirationTimeSeconds",
								"type": "uint256"
							},
							{
								"name": "salt",
								"type": "uint256"
							},
							{
								"name": "makerAssetData",
								"type": "bytes"
							},
							{
								"name": "takerAssetData",
								"type": "bytes"
							}
						],
						"name": "order",
						"type": "tuple"
					},
					{
						"name": "takerAssetFillAmount",
						"type": "uint256"
					},
					{
						"name": "signature",
						"type": "bytes"
					}
				],
				"name": "fillOrder",
				"outputs": [
					{
						"components": [
							{
								"name": "makerAssetFilledAmount",
								"type": "uint256"
							},
							{
								"name": "takerAssetFilledAmount",
								"type": "uint256"
							},
							{
								"name": "makerFeePaid",
								"type": "uint256"
							},
							{
								"name": "takerFeePaid",
								"type": "uint256"
							}
						],
						"name": "fillResults",
						"type": "tuple"
					}
				],
				"payable": false,
				"stateMutability": "nonpayable",
				"type": "function"
			},
			{
				"constant": true,
				"inputs": [
					{
						"name": "numerator",
						"type": "uint256"
					},
					{
						"name": "denominator",
						"type": "uint256"
					},
					{
						"name": "target",
						"type": "uint256"
					}
				],
				"name": "publicGetPartialAmountFloor",
				"outputs": [
					{
						"name": "partialAmount",
						"type": "uint256"
					}
				],
				"payable": false,
				"stateMutability": "pure",
				"type": "function"
			},
			{
				"constant": false,
				"inputs": [
					{
						"name": "salt",
						"type": "uint256"
					},
					{
						"name": "signerAddress",
						"type": "address"
					},
					{
						"name": "data",
						"type": "bytes"
					},
					{
						"name": "signature",
						"type": "bytes"
					}
				],
				"name": "executeTransaction",
				"outputs": [],
				"payable": false,
				"stateMutability": "nonpayable",
				"type": "function"
			},
			{
				"constant": false,
				"inputs": [
					{
						"name": "assetProxy",
						"type": "address"
					}
				],
				"name": "registerAssetProxy",
				"outputs": [],
				"payable": false,
				"stateMutability": "nonpayable",
				"type": "function"
			},
			{
				"constant": true,
				"inputs": [
					{
						"components": [
							{
								"name": "makerAddress",
								"type": "address"
							},
							{
								"name": "takerAddress",
								"type": "address"
							},
							{
								"name": "feeRecipientAddress",
								"type": "address"
							},
							{
								"name": "senderAddress",
								"type": "address"
							},
							{
								"name": "makerAssetAmount",
								"type": "uint256"
							},
							{
								"name": "takerAssetAmount",
								"type": "uint256"
							},
							{
								"name": "makerFee",
								"type": "uint256"
							},
							{
								"name": "takerFee",
								"type": "uint256"
							},
							{
								"name": "expirationTimeSeconds",
								"type": "uint256"
							},
							{
								"name": "salt",
								"type": "uint256"
							},
							{
								"name": "makerAssetData",
								"type": "bytes"
							},
							{
								"name": "takerAssetData",
								"type": "bytes"
							}
						],
						"name": "order",
						"type": "tuple"
					}
				],
				"name": "getOrderInfo",
				"outputs": [
					{
						"components": [
							{
								"name": "orderStatus",
								"type": "uint8"
							},
							{
								"name": "orderHash",
								"type": "bytes32"
							},
							{
								"name": "orderTakerAssetFilledAmount",
								"type": "uint256"
							}
						],
						"name": "orderInfo",
						"type": "tuple"
					}
				],
				"payable": false,
				"stateMutability": "view",
				"type": "function"
			},
			{
				"constant": false,
				"inputs": [
					{
						"components": [
							{
								"name": "makerAddress",
								"type": "address"
							},
							{
								"name": "takerAddress",
								"type": "address"
							},
							{
								"name": "feeRecipientAddress",
								"type": "address"
							},
							{
								"name": "senderAddress",
								"type": "address"
							},
							{
								"name": "makerAssetAmount",
								"type": "uint256"
							},
							{
								"name": "takerAssetAmount",
								"type": "uint256"
							},
							{
								"name": "makerFee",
								"type": "uint256"
							},
							{
								"name": "takerFee",
								"type": "uint256"
							},
							{
								"name": "expirationTimeSeconds",
								"type": "uint256"
							},
							{
								"name": "salt",
								"type": "uint256"
							},
							{
								"name": "makerAssetData",
								"type": "bytes"
							},
							{
								"name": "takerAssetData",
								"type": "bytes"
							}
						],
						"name": "order",
						"type": "tuple"
					}
				],
				"name": "cancelOrder",
				"outputs": [],
				"payable": false,
				"stateMutability": "nonpayable",
				"type": "function"
			},
			{
				"constant": true,
				"inputs": [
					{
						"name": "",
						"type": "address"
					},
					{
						"name": "",
						"type": "address"
					}
				],
				"name": "orderEpoch",
				"outputs": [
					{
						"name": "",
						"type": "uint256"
					}
				],
				"payable": false,
				"stateMutability": "view",
				"type": "function"
			},
			{
				"constant": true,
				"inputs": [],
				"name": "ZRX_ASSET_DATA",
				"outputs": [
					{
						"name": "",
						"type": "bytes"
					}
				],
				"payable": false,
				"stateMutability": "view",
				"type": "function"
			},
			{
				"constant": false,
				"inputs": [
					{
						"components": [
							{
								"name": "makerAddress",
								"type": "address"
							},
							{
								"name": "takerAddress",
								"type": "address"
							},
							{
								"name": "feeRecipientAddress",
								"type": "address"
							},
							{
								"name": "senderAddress",
								"type": "address"
							},
							{
								"name": "makerAssetAmount",
								"type": "uint256"
							},
							{
								"name": "takerAssetAmount",
								"type": "uint256"
							},
							{
								"name": "makerFee",
								"type": "uint256"
							},
							{
								"name": "takerFee",
								"type": "uint256"
							},
							{
								"name": "expirationTimeSeconds",
								"type": "uint256"
							},
							{
								"name": "salt",
								"type": "uint256"
							},
							{
								"name": "makerAssetData",
								"type": "bytes"
							},
							{
								"name": "takerAssetData",
								"type": "bytes"
							}
						],
						"name": "orders",
						"type": "tuple[]"
					},
					{
						"name": "takerAssetFillAmount",
						"type": "uint256"
					},
					{
						"name": "signatures",
						"type": "bytes[]"
					}
				],
				"name": "marketSellOrdersNoThrow",
				"outputs": [
					{
						"components": [
							{
								"name": "makerAssetFilledAmount",
								"type": "uint256"
							},
							{
								"name": "takerAssetFilledAmount",
								"type": "uint256"
							},
							{
								"name": "makerFeePaid",
								"type": "uint256"
							},
							{
								"name": "takerFeePaid",
								"type": "uint256"
							}
						],
						"name": "totalFillResults",
						"type": "tuple"
					}
				],
				"payable": false,
				"stateMutability": "nonpayable",
				"type": "function"
			},
			{
				"constant": true,
				"inputs": [
					{
						"name": "numerator",
						"type": "uint256"
					},
					{
						"name": "denominator",
						"type": "uint256"
					},
					{
						"name": "target",
						"type": "uint256"
					}
				],
				"name": "publicSafeGetPartialAmountFloor",
				"outputs": [
					{
						"name": "partialAmount",
						"type": "uint256"
					}
				],
				"payable": false,
				"stateMutability": "pure",
				"type": "function"
			},
			{
				"constant": true,
				"inputs": [
					{
						"name": "numerator",
						"type": "uint256"
					},
					{
						"name": "denominator",
						"type": "uint256"
					},
					{
						"name": "target",
						"type": "uint256"
					}
				],
				"name": "publicSafeGetPartialAmountCeil",
				"outputs": [
					{
						"name": "partialAmount",
						"type": "uint256"
					}
				],
				"payable": false,
				"stateMutability": "pure",
				"type": "function"
			},
			{
				"constant": true,
				"inputs": [
					{
						"components": [
							{
								"name": "makerAddress",
								"type": "address"
							},
							{
								"name": "takerAddress",
								"type": "address"
							},
							{
								"name": "feeRecipientAddress",
								"type": "address"
							},
							{
								"name": "senderAddress",
								"type": "address"
							},
							{
								"name": "makerAssetAmount",
								"type": "uint256"
							},
							{
								"name": "takerAssetAmount",
								"type": "uint256"
							},
							{
								"name": "makerFee",
								"type": "uint256"
							},
							{
								"name": "takerFee",
								"type": "uint256"
							},
							{
								"name": "expirationTimeSeconds",
								"type": "uint256"
							},
							{
								"name": "salt",
								"type": "uint256"
							},
							{
								"name": "makerAssetData",
								"type": "bytes"
							},
							{
								"name": "takerAssetData",
								"type": "bytes"
							}
						],
						"name": "order",
						"type": "tuple"
					},
					{
						"name": "takerAssetFilledAmount",
						"type": "uint256"
					}
				],
				"name": "publicCalculateFillResults",
				"outputs": [
					{
						"components": [
							{
								"name": "makerAssetFilledAmount",
								"type": "uint256"
							},
							{
								"name": "takerAssetFilledAmount",
								"type": "uint256"
							},
							{
								"name": "makerFeePaid",
								"type": "uint256"
							},
							{
								"name": "takerFeePaid",
								"type": "uint256"
							}
						],
						"name": "fillResults",
						"type": "tuple"
					}
				],
				"payable": false,
				"stateMutability": "pure",
				"type": "function"
			},
			{
				"constant": true,
				"inputs": [],
				"name": "EIP712_DOMAIN_HASH",
				"outputs": [
					{
						"name": "",
						"type": "bytes32"
					}
				],
				"payable": false,
				"stateMutability": "view",
				"type": "function"
			},
			{
				"constant": false,
				"inputs": [
					{
						"components": [
							{
								"name": "makerAddress",
								"type": "address"
							},
							{
								"name": "takerAddress",
								"type": "address"
							},
							{
								"name": "feeRecipientAddress",
								"type": "address"
							},
							{
								"name": "senderAddress",
								"type": "address"
							},
							{
								"name": "makerAssetAmount",
								"type": "uint256"
							},
							{
								"name": "takerAssetAmount",
								"type": "uint256"
							},
							{
								"name": "makerFee",
								"type": "uint256"
							},
							{
								"name": "takerFee",
								"type": "uint256"
							},
							{
								"name": "expirationTimeSeconds",
								"type": "uint256"
							},
							{
								"name": "salt",
								"type": "uint256"
							},
							{
								"name": "makerAssetData",
								"type": "bytes"
							},
							{
								"name": "takerAssetData",
								"type": "bytes"
							}
						],
						"name": "orders",
						"type": "tuple[]"
					},
					{
						"name": "makerAssetFillAmount",
						"type": "uint256"
					},
					{
						"name": "signatures",
						"type": "bytes[]"
					}
				],
				"name": "marketBuyOrders",
				"outputs": [
					{
						"components": [
							{
								"name": "makerAssetFilledAmount",
								"type": "uint256"
							},
							{
								"name": "takerAssetFilledAmount",
								"type": "uint256"
							},
							{
								"name": "makerFeePaid",
								"type": "uint256"
							},
							{
								"name": "takerFeePaid",
								"type": "uint256"
							}
						],
						"name": "totalFillResults",
						"type": "tuple"
					}
				],
				"payable": false,
				"stateMutability": "nonpayable",
				"type": "function"
			},
			{
				"constant": true,
				"inputs": [],
				"name": "currentContextAddress",
				"outputs": [
					{
						"name": "",
						"type": "address"
					}
				],
				"payable": false,
				"stateMutability": "view",
				"type": "function"
			},
			{
				"constant": false,
				"inputs": [
					{
						"name": "newOwner",
						"type": "address"
					}
				],
				"name": "transferOwnership",
				"outputs": [],
				"payable": false,
				"stateMutability": "nonpayable",
				"type": "function"
			},
			{
				"constant": true,
				"inputs": [],
				"name": "VERSION",
				"outputs": [
					{
						"name": "",
						"type": "string"
					}
				],
				"payable": false,
				"stateMutability": "view",
				"type": "function"
			},
			{
				"inputs": [],
				"payable": false,
				"stateMutability": "nonpayable",
				"type": "constructor"
			},
			{
				"anonymous": false,
				"inputs": [
					{
						"indexed": true,
						"name": "signerAddress",
						"type": "address"
					},
					{
						"indexed": true,
						"name": "validatorAddress",
						"type": "address"
					},
					{
						"indexed": false,
						"name": "approved",
						"type": "bool"
					}
				],
				"name": "SignatureValidatorApproval",
				"type": "event"
			},
			{
				"anonymous": false,
				"inputs": [
					{
						"indexed": true,
						"name": "makerAddress",
						"type": "address"
					},
					{
						"indexed": true,
						"name": "feeRecipientAddress",
						"type": "address"
					},
					{
						"indexed": false,
						"name": "takerAddress",
						"type": "address"
					},
					{
						"indexed": false,
						"name": "senderAddress",
						"type": "address"
					},
					{
						"indexed": false,
						"name": "makerAssetFilledAmount",
						"type": "uint256"
					},
					{
						"indexed": false,
						"name": "takerAssetFilledAmount",
						"type": "uint256"
					},
					{
						"indexed": false,
						"name": "makerFeePaid",
						"type": "uint256"
					},
					{
						"indexed": false,
						"name": "takerFeePaid",
						"type": "uint256"
					},
					{
						"indexed": true,
						"name": "orderHash",
						"type": "bytes32"
					},
					{
						"indexed": false,
						"name": "makerAssetData",
						"type": "bytes"
					},
					{
						"indexed": false,
						"name": "takerAssetData",
						"type": "bytes"
					}
				],
				"name": "Fill",
				"type": "event"
			},
			{
				"anonymous": false,
				"inputs": [
					{
						"indexed": true,
						"name": "makerAddress",
						"type": "address"
					},
					{
						"indexed": true,
						"name": "feeRecipientAddress",
						"type": "address"
					},
					{
						"indexed": false,
						"name": "senderAddress",
						"type": "address"
					},
					{
						"indexed": true,
						"name": "orderHash",
						"type": "bytes32"
					},
					{
						"indexed": false,
						"name": "makerAssetData",
						"type": "bytes"
					},
					{
						"indexed": false,
						"name": "takerAssetData",
						"type": "bytes"
					}
				],
				"name": "Cancel",
				"type": "event"
			},
			{
				"anonymous": false,
				"inputs": [
					{
						"indexed": true,
						"name": "makerAddress",
						"type": "address"
					},
					{
						"indexed": true,
						"name": "senderAddress",
						"type": "address"
					},
					{
						"indexed": false,
						"name": "orderEpoch",
						"type": "uint256"
					}
				],
				"name": "CancelUpTo",
				"type": "event"
			},
			{
				"anonymous": false,
				"inputs": [
					{
						"indexed": false,
						"name": "id",
						"type": "bytes4"
					},
					{
						"indexed": false,
						"name": "assetProxy",
						"type": "address"
					}
				],
				"name": "AssetProxyRegistered",
				"type": "event"
			}
		],
		"devdoc": {
			"methods": {
				"batchCancelOrders((address,address,address,address,uint256,uint256,uint256,uint256,uint256,uint256,bytes,bytes)[])": {
					"details": "Synchronously cancels multiple orders in a single transaction.",
					"params": {
						"orders": "Array of order specifications."
					}
				},
				"batchFillOrKillOrders((address,address,address,address,uint256,uint256,uint256,uint256,uint256,uint256,bytes,bytes)[],uint256[],bytes[])": {
					"details": "Synchronously executes multiple calls of fillOrKill.",
					"params": {
						"orders": "Array of order specifications.",
						"signatures": "Proofs that orders have been created by makers.",
						"takerAssetFillAmounts": "Array of desired amounts of takerAsset to sell in orders."
					},
					"return": "Amounts filled and fees paid by makers and taker.         NOTE: makerAssetFilledAmount and takerAssetFilledAmount may include amounts filled of different assets."
				},
				"batchFillOrders((address,address,address,address,uint256,uint256,uint256,uint256,uint256,uint256,bytes,bytes)[],uint256[],bytes[])": {
					"details": "Synchronously executes multiple calls of fillOrder.",
					"params": {
						"orders": "Array of order specifications.",
						"signatures": "Proofs that orders have been created by makers.",
						"takerAssetFillAmounts": "Array of desired amounts of takerAsset to sell in orders."
					},
					"return": "Amounts filled and fees paid by makers and taker.         NOTE: makerAssetFilledAmount and takerAssetFilledAmount may include amounts filled of different assets."
				},
				"batchFillOrdersNoThrow((address,address,address,address,uint256,uint256,uint256,uint256,uint256,uint256,bytes,bytes)[],uint256[],bytes[])": {
					"details": "Fills an order with specified parameters and ECDSA signature.      Returns false if the transaction would otherwise revert.",
					"params": {
						"orders": "Array of order specifications.",
						"signatures": "Proofs that orders have been created by makers.",
						"takerAssetFillAmounts": "Array of desired amounts of takerAsset to sell in orders."
					},
					"return": "Amounts filled and fees paid by makers and taker.         NOTE: makerAssetFilledAmount and takerAssetFilledAmount may include amounts filled of different assets."
				},
				"cancelOrder((address,address,address,address,uint256,uint256,uint256,uint256,uint256,uint256,bytes,bytes))": {
					"details": "After calling, the order can not be filled anymore.      Throws if order is invalid or sender does not have permission to cancel.",
					"params": {
						"order": "Order to cancel. Order must be OrderStatus.FILLABLE."
					}
				},
				"cancelOrdersUpTo(uint256)": {
					"details": "Cancels all orders created by makerAddress with a salt less than or equal to the targetOrderEpoch      and senderAddress equal to msg.sender (or null address if msg.sender == makerAddress).",
					"params": {
						"targetOrderEpoch": "Orders created with a salt less or equal to this value will be cancelled."
					}
				},
				"executeTransaction(uint256,address,bytes,bytes)": {
					"details": "Executes an exchange method call in the context of signer.",
					"params": {
						"data": "AbiV2 encoded calldata.",
						"salt": "Arbitrary number to ensure uniqueness of transaction hash.",
						"signature": "Proof of signer transaction by signer.",
						"signerAddress": "Address of transaction signer."
					}
				},
				"fillOrKillOrder((address,address,address,address,uint256,uint256,uint256,uint256,uint256,uint256,bytes,bytes),uint256,bytes)": {
					"details": "Fills the input order. Reverts if exact takerAssetFillAmount not filled.",
					"params": {
						"order": "Order struct containing order specifications.",
						"signature": "Proof that order has been created by maker.",
						"takerAssetFillAmount": "Desired amount of takerAsset to sell."
					}
				},
				"fillOrder((address,address,address,address,uint256,uint256,uint256,uint256,uint256,uint256,bytes,bytes),uint256,bytes)": {
					"details": "Fills the input order.",
					"params": {
						"order": "Order struct containing order specifications.",
						"signature": "Proof that order has been created by maker.",
						"takerAssetFillAmount": "Desired amount of takerAsset to sell."
					},
					"return": "Amounts filled and fees paid by maker and taker."
				},
				"fillOrderNoThrow((address,address,address,address,uint256,uint256,uint256,uint256,uint256,uint256,bytes,bytes),uint256,bytes)": {
					"details": "Fills the input order.      Returns false if the transaction would otherwise revert.",
					"params": {
						"order": "Order struct containing order specifications.",
						"signature": "Proof that order has been created by maker.",
						"takerAssetFillAmount": "Desired amount of takerAsset to sell."
					},
					"return": "Amounts filled and fees paid by maker and taker."
				},
				"getAssetProxy(bytes4)": {
					"details": "Gets an asset proxy.",
					"params": {
						"assetProxyId": "Id of the asset proxy."
					},
					"return": "The asset proxy registered to assetProxyId. Returns 0x0 if no proxy is registered."
				},
				"getOrderInfo((address,address,address,address,uint256,uint256,uint256,uint256,uint256,uint256,bytes,bytes))": {
					"details": "Gets information about an order: status, hash, and amount filled.",
					"params": {
						"order": "Order to gather information on."
					},
					"return": "OrderInfo Information about the order and its state.         See LibOrder.OrderInfo for a complete description."
				},
				"getOrdersInfo((address,address,address,address,uint256,uint256,uint256,uint256,uint256,uint256,bytes,bytes)[])": {
					"details": "Fetches information for all passed in orders.",
					"params": {
						"orders": "Array of order specifications."
					},
					"return": "Array of OrderInfo instances that correspond to each order."
				},
				"isValidSignature(bytes32,address,bytes)": {
					"details": "Verifies that a hash has been signed by the given signer.",
					"params": {
						"hash": "Any 32 byte hash.",
						"signature": "Proof that the hash has been signed by signer.",
						"signerAddress": "Address that should have signed the given hash."
					},
					"return": "True if the address recovered from the provided signature matches the input signer address."
				},
				"marketBuyOrders((address,address,address,address,uint256,uint256,uint256,uint256,uint256,uint256,bytes,bytes)[],uint256,bytes[])": {
					"details": "Synchronously executes multiple calls of fillOrder until total amount of makerAsset is bought by taker.",
					"params": {
						"makerAssetFillAmount": "Desired amount of makerAsset to buy.",
						"orders": "Array of order specifications.",
						"signatures": "Proofs that orders have been signed by makers."
					},
					"return": "Amounts filled and fees paid by makers and taker."
				},
				"marketBuyOrdersNoThrow((address,address,address,address,uint256,uint256,uint256,uint256,uint256,uint256,bytes,bytes)[],uint256,bytes[])": {
					"details": "Synchronously executes multiple fill orders in a single transaction until total amount is bought by taker.      Returns false if the transaction would otherwise revert.",
					"params": {
						"makerAssetFillAmount": "Desired amount of makerAsset to buy.",
						"orders": "Array of order specifications.",
						"signatures": "Proofs that orders have been signed by makers."
					},
					"return": "Amounts filled and fees paid by makers and taker."
				},
				"marketSellOrders((address,address,address,address,uint256,uint256,uint256,uint256,uint256,uint256,bytes,bytes)[],uint256,bytes[])": {
					"details": "Synchronously executes multiple calls of fillOrder until total amount of takerAsset is sold by taker.",
					"params": {
						"orders": "Array of order specifications.",
						"signatures": "Proofs that orders have been created by makers.",
						"takerAssetFillAmount": "Desired amount of takerAsset to sell."
					},
					"return": "Amounts filled and fees paid by makers and taker."
				},
				"marketSellOrdersNoThrow((address,address,address,address,uint256,uint256,uint256,uint256,uint256,uint256,bytes,bytes)[],uint256,bytes[])": {
					"details": "Synchronously executes multiple calls of fillOrder until total amount of takerAsset is sold by taker.      Returns false if the transaction would otherwise revert.",
					"params": {
						"orders": "Array of order specifications.",
						"signatures": "Proofs that orders have been signed by makers.",
						"takerAssetFillAmount": "Desired amount of takerAsset to sell."
					},
					"return": "Amounts filled and fees paid by makers and taker."
				},
				"matchOrders((address,address,address,address,uint256,uint256,uint256,uint256,uint256,uint256,bytes,bytes),(address,address,address,address,uint256,uint256,uint256,uint256,uint256,uint256,bytes,bytes),bytes,bytes)": {
					"details": "Match two complementary orders that have a profitable spread.      Each order is filled at their respective price point. However, the calculations are      carried out as though the orders are both being filled at the right order's price point.      The profit made by the left order goes to the taker (who matched the two orders).",
					"params": {
						"leftOrder": "First order to match.",
						"leftSignature": "Proof that order was created by the left maker.",
						"rightOrder": "Second order to match.",
						"rightSignature": "Proof that order was created by the right maker."
					},
					"return": "matchedFillResults Amounts filled and fees paid by maker and taker of matched orders."
				},
				"preSign(bytes32,address,bytes)": {
					"details": "Approves a hash on-chain using any valid signature type.      After presigning a hash, the preSign signature type will become valid for that hash and signer.",
					"params": {
						"signature": "Proof that the hash has been signed by signer.",
						"signerAddress": "Address that should have signed the given hash."
					}
				},
				"publicAddFillResults((uint256,uint256,uint256,uint256),(uint256,uint256,uint256,uint256))": {
					"params": {
						"singleFillResults": "Fill results instance that will be added to totalFillResults.",
						"totalFillResults": "Fill results instance that will be added onto."
					},
					"return": "newTotalFillResults The result of adding singleFillResults to totalFilResults."
				},
				"publicCalculateFillResults((address,address,address,address,uint256,uint256,uint256,uint256,uint256,uint256,bytes,bytes),uint256)": {
					"details": "Calculates amounts filled and fees paid by maker and taker.",
					"params": {
						"order": "to be filled.",
						"takerAssetFilledAmount": "Amount of takerAsset that will be filled."
					},
					"return": "fillResults Amounts filled and fees paid by maker and taker."
				},
				"publicGetPartialAmountCeil(uint256,uint256,uint256)": {
					"details": "Calculates partial value given a numerator and denominator.",
					"params": {
						"denominator": "Denominator.",
						"numerator": "Numerator.",
						"target": "Value to calculate partial of."
					},
					"return": "Partial value of target."
				},
				"publicGetPartialAmountFloor(uint256,uint256,uint256)": {
					"details": "Calculates partial value given a numerator and denominator.",
					"params": {
						"denominator": "Denominator.",
						"numerator": "Numerator.",
						"target": "Value to calculate partial of."
					},
					"return": "Partial value of target."
				},
				"publicIsRoundingErrorCeil(uint256,uint256,uint256)": {
					"details": "Checks if rounding error >= 0.1%.",
					"params": {
						"denominator": "Denominator.",
						"numerator": "Numerator.",
						"target": "Value to multiply with numerator/denominator."
					},
					"return": "Rounding error is present."
				},
				"publicIsRoundingErrorFloor(uint256,uint256,uint256)": {
					"details": "Checks if rounding error >= 0.1%.",
					"params": {
						"denominator": "Denominator.",
						"numerator": "Numerator.",
						"target": "Value to multiply with numerator/denominator."
					},
					"return": "Rounding error is present."
				},
				"publicSafeGetPartialAmountCeil(uint256,uint256,uint256)": {
					"details": "Calculates partial value given a numerator and denominator.      Reverts if rounding error is >= 0.1%",
					"params": {
						"denominator": "Denominator.",
						"numerator": "Numerator.",
						"target": "Value to calculate partial of."
					},
					"return": "Partial value of target."
				},
				"publicSafeGetPartialAmountFloor(uint256,uint256,uint256)": {
					"details": "Calculates partial value given a numerator and denominator.      Reverts if rounding error is >= 0.1%",
					"params": {
						"denominator": "Denominator.",
						"numerator": "Numerator.",
						"target": "Value to calculate partial of."
					},
					"return": "Partial value of target."
				},
				"publicUpdateFilledState((address,address,address,address,uint256,uint256,uint256,uint256,uint256,uint256,bytes,bytes),address,bytes32,uint256,(uint256,uint256,uint256,uint256))": {
					"details": "Updates state with results of a fill order.",
					"params": {
						"order": "that was filled.",
						"orderTakerAssetFilledAmount": "Amount of order already filled.",
						"takerAddress": "Address of taker who filled the order."
					},
					"return": "fillResults Amounts filled and fees paid by maker and taker."
				},
				"registerAssetProxy(address)": {
					"details": "Registers an asset proxy to its asset proxy id.      Once an asset proxy is registered, it cannot be unregistered.",
					"params": {
						"assetProxy": "Address of new asset proxy to register."
					}
				},
				"setSignatureValidatorApproval(address,bool)": {
					"details": "Approves/unnapproves a Validator contract to verify signatures on signer's behalf.",
					"params": {
						"approval": "Approval or disapproval of  Validator contract.",
						"validatorAddress": "Address of Validator contract."
					}
				}
			}
		},
		"evm": {
			"bytecode": {
				"linkReferences": {},
				"object": "0x60806040526000805460ff191690553480156200001b57600080fd5b506040805160208101918290526000808252909182916200003f9160019162000154565b5050604051602001620000529062000214565b60408051601f1981840301815282825280516020918201208383018352600b84527f30782050726f746f636f6c0000000000000000000000000000000000000000009382019390935281518083018352600181527f32000000000000000000000000000000000000000000000000000000000000009082015290516200012092917ff0f24618f4c4be1e62e026fb039a20ef96f4495294817d1027ffaa6d1f70e61e917fad7c5bef027816a800da1736444fb58a807ef4c9603b7848673f7e3a68eb14a591309101620001f9565b60408051601f19818403018152919052805160209091012060025550600380546001600160a01b03191633179055620002d5565b828054600181600116156101000203166002900490600052602060002090601f016020900481019282601f106200019757805160ff1916838001178555620001c7565b82800160010185558215620001c7579182015b82811115620001c7578251825591602001919060010190620001aa565b50620001d5929150620001d9565b5090565b620001f691905b80821115620001d55760008155600101620001e0565b90565b93845260208401929092526040830152606082015260800190565b7f454950373132446f6d61696e280000000000000000000000000000000000000081527f737472696e67206e616d652c0000000000000000000000000000000000000000600d8201527f737472696e672076657273696f6e2c000000000000000000000000000000000060198201527f6164647265737320766572696679696e67436f6e74726163740000000000000060288201527f2900000000000000000000000000000000000000000000000000000000000000604182015260420190565b61551480620002e56000396000f3fe608060405234801561001057600080fd5b50600436106102f45760003560e01c80637e9d74dc11610191578063d9bfa73e116100e3578063e0b701e311610097578063eea086ba11610071578063eea086ba14610656578063f2fde38b1461065e578063ffa1ad7414610671576102f4565b8063e0b701e314610628578063e306f7791461063b578063e5fa431b14610643576102f4565b8063dd1c7d18116100c8578063dd1c7d18146105ef578063de30200d14610602578063e0acd33d14610615576102f4565b8063d9bfa73e146105c7578063db123b1a146105da576102f4565b8063b4be83d511610145578063c585bb931161011f578063c585bb9314610581578063c75e0a8114610594578063d46b02c3146105b4576102f4565b8063b4be83d514610548578063be7ada1e1461055b578063bfc8bfce1461056e576102f4565b80638da5cb5b116101765780638da5cb5b1461051a5780639363470214610522578063a3e2038014610535576102f4565b80637e9d74dc146104e757806382c174d014610507576102f4565b80634d0ae5461161024a57806364a3bc15116101fe57806377fcce68116101d857806377fcce68146104ae5780637b8e3514146104c15780637e1d9808146104d4576102f4565b806364a3bc151461047557806366758d7b14610488578063679d2f9a1461049b576102f4565b806350dde1901161022f57806350dde1901461043c578063607041081461044f578063642f2eaf14610462576102f4565b80634d0ae546146104165780634f9559b114610429576102f4565b80632ac12622116102ac5780633e228bae116102865780633e228bae146103d05780633fd3c997146103e35780634ac1478214610403576102f4565b80632ac126221461038a5780633683ef8e1461039d5780633c28d861146103b0576102f4565b806320777f70116102dd57806320777f7014610337578063288cdc9114610357578063297bb70b1461036a576102f4565b80631be23901146102f95780631ea1e3d814610322575b600080fd5b61030c61030736600461460d565b610679565b6040516103199190614b4c565b60405180910390f35b6103356103303660046143bf565b610690565b005b61034a61034536600461460d565b6106a4565b6040516103199190614b57565b61034a61036536600461423b565b6106b1565b61037d61037836600461410c565b6106c3565b60405161031991906153b9565b61030c61039836600461423b565b6107d9565b6103356103ab366004614279565b6107ee565b6103c36103be366004614434565b6108df565b60405161031991906153c7565b61037d6103de366004614522565b610a77565b6103f66103f1366004614323565b610acc565b6040516103199190614a1e565b6103356104113660046140cf565b610af4565b61037d61042436600461410c565b610bb8565b61033561043736600461423b565b610c94565b61037d61044a36600461410c565b610e41565b6103f661045d366004614323565b610eb6565b61030c61047036600461423b565b610f04565b61037d610483366004614522565b610f19565b61037d61049636600461435d565b610fc4565b61030c6104a936600461460d565b610fdf565b6103356104bc366004614092565b610fec565b61030c6104cf36600461405d565b611125565b61037d6104e23660046141e8565b611145565b6104fa6104f53660046140cf565b611296565b6040516103199190614afe565b61030c610515366004614254565b61132a565b6103f661134a565b61030c6105303660046142d4565b611366565b61037d6105433660046141e8565b6117d9565b61037d610556366004614522565b6118d8565b61034a61056936600461460d565b611953565b61033561057c366004614582565b611960565b61033561058f366004614041565b611c2f565b6105a76105a236600461438a565b611e31565b60405161031991906153ff565b6103356105c236600461438a565b611f27565b61034a6105d536600461405d565b611fc3565b6105e2611fe0565b6040516103199190614c1d565b61037d6105fd3660046141e8565b61208b565b61034a61061036600461460d565b612144565b61034a61062336600461460d565b612151565b61037d6106363660046144dd565b61215e565b61034a612170565b61037d6106513660046141e8565b612176565b6103f66122a7565b61033561066c366004614041565b6122c3565b6105e2612374565b60006106868484846123ad565b90505b9392505050565b61069d8585858585612430565b5050505050565b60006106868484846124f2565b60046020526000908152604090205481565b6106cb613cce565b60005460ff1615610711576040517f08c379a0000000000000000000000000000000000000000000000000000000008152600401610708906151db565b60405180910390fd5b600080547fffffffffffffffffffffffffffffffffffffffffffffffffffffffffffffff001660011781558451905b8181146107a85761074f613cce565b61079387838151811061075e57fe5b602002602001015187848151811061077257fe5b602002602001015187858151811061078657fe5b6020026020010151612553565b905061079f84826125f2565b50600101610740565b5050600080547fffffffffffffffffffffffffffffffffffffffffffffffffffffffffffffff001690559392505050565b60056020526000908152604090205460ff1681565b73ffffffffffffffffffffffffffffffffffffffff831633146108825761084c848484848080601f01602080910402602001604051908101604052809392919081815260200183838082843760009201919091525061136692505050565b610882576040517f08c379a000000000000000000000000000000000000000000000000000000000815260040161070890614eea565b5050600091825260076020908152604080842073ffffffffffffffffffffffffffffffffffffffff9093168452919052902080547fffffffffffffffffffffffffffffffffffffffffffffffffffffffffffffff00166001179055565b6108e7613cf6565b60005460ff1615610924576040517f08c379a0000000000000000000000000000000000000000000000000000000008152600401610708906151db565b600080547fffffffffffffffffffffffffffffffffffffffffffffffffffffffffffffff0016600117905561016080860151610140808701919091528601519085015261096f613d24565b61097886611e31565b9050610982613d24565b61098b86611e31565b90506000610997612654565b90506109a588848389612686565b6109b187838388612686565b6109bb8888612818565b6109cf888885604001518560400151612878565b8051602081015190519195506109ea918a9186918190612a01565b602080850151908101519051610a069189918591908190612a01565b610a1f8882856020015186604001518860000151612430565b610a388782846020015185604001518860200151612430565b610a4488888387612b11565b505050600080547fffffffffffffffffffffffffffffffffffffffffffffffffffffffffffffff00169055949350505050565b610a7f613cce565b6060610a8c858585612ce9565b9050608081825160208401305af48015610ac357815183526020820151602084015260408201516040840152606082015160608401525b50509392505050565b600b6020526000908152604090205473ffffffffffffffffffffffffffffffffffffffff1681565b60005460ff1615610b31576040517f08c379a0000000000000000000000000000000000000000000000000000000008152600401610708906151db565b600080547fffffffffffffffffffffffffffffffffffffffffffffffffffffffffffffff001660011781558151905b818114610b8b57610b83838281518110610b7657fe5b6020026020010151612ebe565b600101610b60565b5050600080547fffffffffffffffffffffffffffffffffffffffffffffffffffffffffffffff0016905550565b610bc0613cce565b60005460ff1615610bfd576040517f08c379a0000000000000000000000000000000000000000000000000000000008152600401610708906151db565b600080547fffffffffffffffffffffffffffffffffffffffffffffffffffffffffffffff001660011781558451905b8181146107a857610c3b613cce565b610c7f878381518110610c4a57fe5b6020026020010151878481518110610c5e57fe5b6020026020010151878581518110610c7257fe5b6020026020010151612ee9565b9050610c8b84826125f2565b50600101610c2c565b60005460ff1615610cd1576040517f08c379a0000000000000000000000000000000000000000000000000000000008152600401610708906151db565b600080547fffffffffffffffffffffffffffffffffffffffffffffffffffffffffffffff00166001178155610d04612654565b9050600073ffffffffffffffffffffffffffffffffffffffff82163314610d2b5733610d2e565b60005b73ffffffffffffffffffffffffffffffffffffffff8084166000908152600660209081526040808320938516835292905220549091506001840190808211610da2576040517f08c379a0000000000000000000000000000000000000000000000000000000008152600401610708906150ff565b73ffffffffffffffffffffffffffffffffffffffff80851660008181526006602090815260408083209488168084529490915290819020859055517f82af639571738f4ebd4268fb0363d8957ebe1bbb9e78dba5ebd69eed39b154f090610e0a908690614b57565b60405180910390a35050600080547fffffffffffffffffffffffffffffffffffffffffffffffffffffffffffffff00169055505050565b610e49613cce565b835160005b818114610ac357610e5d613cce565b610ea1878381518110610e6c57fe5b6020026020010151878481518110610e8057fe5b6020026020010151878581518110610e9457fe5b6020026020010151610a77565b9050610ead84826125f2565b50600101610e4e565b7fffffffff0000000000000000000000000000000000000000000000000000000081166000908152600b602052604090205473ffffffffffffffffffffffffffffffffffffffff165b919050565b60096020526000908152604090205460ff1681565b610f21613cce565b60005460ff1615610f5e576040517f08c379a0000000000000000000000000000000000000000000000000000000008152600401610708906151db565b600080547fffffffffffffffffffffffffffffffffffffffffffffffffffffffffffffff00166001179055610f94848484612ee9565b600080547fffffffffffffffffffffffffffffffffffffffffffffffffffffffffffffff00169055949350505050565b610fcc613cce565b610fd683836125f2565b50815b92915050565b6000610686848484612f3b565b60005460ff1615611029576040517f08c379a0000000000000000000000000000000000000000000000000000000008152600401610708906151db565b600080547fffffffffffffffffffffffffffffffffffffffffffffffffffffffffffffff0016600117815561105c612654565b73ffffffffffffffffffffffffffffffffffffffff8181166000818152600860209081526040808320948916808452949091529081902080547fffffffffffffffffffffffffffffffffffffffffffffffffffffffffffffff00168715151790555192935090917fa8656e308026eeabce8f0bc18048433252318ab80ac79da0b3d3d8697dfba891906110f0908690614b4c565b60405180910390a35050600080547fffffffffffffffffffffffffffffffffffffffffffffffffffffffffffffff0016905550565b600860209081526000928352604080842090915290825290205460ff1681565b61114d613cce565b60005460ff161561118a576040517f08c379a0000000000000000000000000000000000000000000000000000000008152600401610708906151db565b600080547fffffffffffffffffffffffffffffffffffffffffffffffffffffffffffffff00166001178155845160609186916111c257fe5b60209081029190910101516101600151855190915060005b81811461126457828782815181106111ee57fe5b60200260200101516101600181905250600061120e878660200151612fbc565b9050611218613cce565b61123c89848151811061122757fe5b60200260200101518389868151811061078657fe5b905061124886826125f2565b8786602001511061125a575050611264565b50506001016111da565b505050600080547fffffffffffffffffffffffffffffffffffffffffffffffffffffffffffffff001690559392505050565b60606000825190506060816040519080825280602002602001820160405280156112da57816020015b6112c7613d24565b8152602001906001900390816112bf5790505b50905060005b828114611322576113038582815181106112f657fe5b6020026020010151611e31565b82828151811061130f57fe5b60209081029190910101526001016112e0565b509392505050565b600760209081526000928352604080842090915290825290205460ff1681565b60035473ffffffffffffffffffffffffffffffffffffffff1681565b6000808251116113a2576040517f08c379a0000000000000000000000000000000000000000000000000000000008152600401610708906150c8565b60006113ad83612ffe565b60f81c9050600781106113ec576040517f08c379a000000000000000000000000000000000000000000000000000000000815260040161070890614da0565b60008160ff1660078111156113fd57fe5b905060008080808085600781111561141157fe5b1415611449576040517f08c379a000000000000000000000000000000000000000000000000000000000815260040161070890615091565b600185600781111561145757fe5b14156114a657875115611496576040517f08c379a000000000000000000000000000000000000000000000000000000000815260040161070890615382565b5060009550610689945050505050565b60028560078111156114b457fe5b14156115c95787516041146114f5576040517f08c379a000000000000000000000000000000000000000000000000000000000815260040161070890614c30565b8760008151811061150257fe5b016020015160f81c935061151d88600163ffffffff61309c16565b925061153088602163ffffffff61309c16565b915060018a858585604051600081526020016040526040516115559493929190614bb7565b6020604051602081039080840390855afa158015611577573d6000803e3d6000fd5b50506040517fffffffffffffffffffffffffffffffffffffffffffffffffffffffffffffffe0015173ffffffffffffffffffffffffffffffffffffffff8b811691161497506106899650505050505050565b60038560078111156115d757fe5b141561169e578751604114611618576040517f08c379a000000000000000000000000000000000000000000000000000000000815260040161070890614c30565b8760008151811061162557fe5b016020015160f81c935061164088600163ffffffff61309c16565b925061165388602163ffffffff61309c16565b915060018a604051602001611668919061476f565b60405160208183030381529060405280519060200120858585604051600081526020016040526040516115559493929190614bb7565b60048560078111156116ac57fe5b14156116cb576116bd8a8a8a6130e5565b965061068995505050505050565b60058560078111156116d957fe5b14156117525760006116ea8961323a565b73ffffffffffffffffffffffffffffffffffffffff808c1660009081526008602090815260408083209385168352929052205490915060ff16611737576000975050505050505050610689565b611743818c8c8c6132b1565b97506106899650505050505050565b600685600781111561176057fe5b14156117a757505050600087815260076020908152604080832073ffffffffffffffffffffffffffffffffffffffff8a16845290915290205460ff16935061068992505050565b6040517f08c379a000000000000000000000000000000000000000000000000000000000815260040161070890614da0565b6117e1613cce565b6060846000815181106117f057fe5b60209081029190910101516101400151855190915060005b8181146118ce578287828151811061181c57fe5b60200260200101516101400181905250600061183c878660000151612fbc565b9050600061187989848151811061184f57fe5b602002602001015160a001518a858151811061186757fe5b6020026020010151608001518461340d565b9050611883613cce565b6118a78a858151811061189257fe5b6020026020010151838a8781518110610e9457fe5b90506118b387826125f2565b865189116118c3575050506118ce565b505050600101611808565b5050509392505050565b6118e0613cce565b60005460ff161561191d576040517f08c379a0000000000000000000000000000000000000000000000000000000008152600401610708906151db565b600080547fffffffffffffffffffffffffffffffffffffffffffffffffffffffffffffff00166001179055610f94848484612553565b600061068684848461340d565b600a5473ffffffffffffffffffffffffffffffffffffffff16156119b0576040517f08c379a0000000000000000000000000000000000000000000000000000000008152600401610708906151db565b60006119fb6119f6888888888080601f01602080910402602001604051908101604052809392919081815260200183838082843760009201919091525061345592505050565b6134dd565b60008181526009602052604090205490915060ff1615611a47576040517f08c379a000000000000000000000000000000000000000000000000000000000815260040161070890614eb3565b73ffffffffffffffffffffffffffffffffffffffff86163314611b1c57611aa5818785858080601f01602080910402602001604051908101604052809392919081815260200183838082843760009201919091525061136692505050565b611adb576040517f08c379a00000000000000000000000000000000000000000000000000000000081526004016107089061534b565b600a80547fffffffffffffffffffffffff00000000000000000000000000000000000000001673ffffffffffffffffffffffffffffffffffffffff88161790555b60008181526009602052604080822080547fffffffffffffffffffffffffffffffffffffffffffffffffffffffffffffff00166001179055513090611b649088908890614740565b600060405180830381855af49150503d8060008114611b9f576040519150601f19603f3d011682016040523d82523d6000602084013e611ba4565b606091505b5050905080611bdf576040517f08c379a000000000000000000000000000000000000000000000000000000000815260040161070890614f58565b73ffffffffffffffffffffffffffffffffffffffff87163314611c2557600a80547fffffffffffffffffffffffff00000000000000000000000000000000000000001690555b5050505050505050565b60035473ffffffffffffffffffffffffffffffffffffffff163314611c80576040517f08c379a000000000000000000000000000000000000000000000000000000000815260040161070890615212565b60008173ffffffffffffffffffffffffffffffffffffffff1663ae25532e6040518163ffffffff1660e01b815260040160206040518083038186803b158015611cc857600080fd5b505afa158015611cdc573d6000803e3d6000fd5b505050506040513d601f19601f82011682018060405250611d009190810190614340565b7fffffffff0000000000000000000000000000000000000000000000000000000081166000908152600b602052604090205490915073ffffffffffffffffffffffffffffffffffffffff168015611d83576040517f08c379a000000000000000000000000000000000000000000000000000000000815260040161070890614d0c565b7fffffffff0000000000000000000000000000000000000000000000000000000082166000908152600b60205260409081902080547fffffffffffffffffffffffff00000000000000000000000000000000000000001673ffffffffffffffffffffffffffffffffffffffff8616179055517fd2c6b762299c609bdb96520b58a49bfb80186934d4f71a86a367571a15c0319490611e249084908690614bd5565b60405180910390a1505050565b611e39613d24565b611e428261351a565b602080830182905260009182526004905260409081902054908201526080820151611e745760015b60ff168152610eff565b60a0820151611e84576002611e6a565b8160a00151816040015110611e9a576005611e6a565b8161010001514210611ead576004611e6a565b60208082015160009081526005909152604090205460ff1615611ed1576006611e6a565b610120820151825173ffffffffffffffffffffffffffffffffffffffff90811660009081526006602090815260408083206060880151909416835292905220541115611f1e576006611e6a565b60038152919050565b60005460ff1615611f64576040517f08c379a0000000000000000000000000000000000000000000000000000000008152600401610708906151db565b600080547fffffffffffffffffffffffffffffffffffffffffffffffffffffffffffffff00166001179055611f9881612ebe565b50600080547fffffffffffffffffffffffffffffffffffffffffffffffffffffffffffffff00169055565b600660209081526000928352604080842090915290825290205481565b60018054604080516020600284861615610100027fffffffffffffffffffffffffffffffffffffffffffffffffffffffffffffffff0190941693909304601f810184900484028201840190925281815292918301828280156120835780601f1061205857610100808354040283529160200191612083565b820191906000526020600020905b81548152906001019060200180831161206657829003601f168201915b505050505081565b612093613cce565b6060846000815181106120a257fe5b60209081029190910101516101600151855190915060005b8181146118ce57828782815181106120ce57fe5b6020026020010151610160018190525060006120ee878660200151612fbc565b90506120f8613cce565b61211c89848151811061210757fe5b602002602001015183898681518110610e9457fe5b905061212886826125f2565b8786602001511061213a5750506118ce565b50506001016120ba565b6000610686848484613528565b60006106868484846135a5565b612166613cce565b6106898383613622565b60025481565b61217e613cce565b60005460ff16156121bb576040517f08c379a0000000000000000000000000000000000000000000000000000000008152600401610708906151db565b600080547fffffffffffffffffffffffffffffffffffffffffffffffffffffffffffffff00166001178155845160609186916121f357fe5b60209081029190910101516101400151855190915060005b818114611264578287828151811061221f57fe5b60200260200101516101400181905250600061223f878660000151612fbc565b9050600061225289848151811061184f57fe5b905061225c613cce565b6122808a858151811061226b57fe5b6020026020010151838a878151811061078657fe5b905061228c87826125f2565b8651891161229c57505050611264565b50505060010161220b565b600a5473ffffffffffffffffffffffffffffffffffffffff1681565b60035473ffffffffffffffffffffffffffffffffffffffff163314612314576040517f08c379a000000000000000000000000000000000000000000000000000000000815260040161070890615212565b73ffffffffffffffffffffffffffffffffffffffff81161561237157600380547fffffffffffffffffffffffff00000000000000000000000000000000000000001673ffffffffffffffffffffffffffffffffffffffff83161790555b50565b6040518060400160405280600581526020017f332e302e3000000000000000000000000000000000000000000000000000000081525081565b60008083116123e8576040517f08c379a000000000000000000000000000000000000000000000000000000000815260040161070890614dd7565b8115806123f3575083155b1561240057506000610689565b6000838061240a57fe5b85840990506124198584613683565b6124256103e883613683565b101595945050505050565b61243e8282602001516136d7565b600460008581526020019081526020016000208190555082856040015173ffffffffffffffffffffffffffffffffffffffff16866000015173ffffffffffffffffffffffffffffffffffffffff167f0bcc4c97732e47d9946f229edb95f5b6323f601300e4690de719993f3c371129873386600001518760200151886040015189606001518e61014001518f61016001516040516124e3989796959493929190614a8a565b60405180910390a45050505050565b600080831161252d576040517f08c379a000000000000000000000000000000000000000000000000000000000815260040161070890614dd7565b61068661254d61253d8685613683565b612548866001612fbc565b6136d7565b84613716565b61255b613cce565b612563613d24565b61256c85611e31565b90506000612578612654565b905061258686838387612686565b600061259a8760a001518460400151612fbc565b905060006125a8878361372b565b90506125bb888589848960000151612a01565b6125c58882613622565b94506125dc88848660200151876040015189612430565b6125e788848761373a565b505050509392505050565b8151815161260091906136d7565b82526020808301519082015161261691906136d7565b60208301526040808301519082015161262f91906136d7565b60408301526060808301519082015161264891906136d7565b60609092019190915250565b600a5460009073ffffffffffffffffffffffffffffffffffffffff1681811561267d578161267f565b335b9250505090565b825160ff166003146126c4576040517f08c379a0000000000000000000000000000000000000000000000000000000008152600401610708906152a6565b606084015173ffffffffffffffffffffffffffffffffffffffff161561273757606084015173ffffffffffffffffffffffffffffffffffffffff163314612737576040517f08c379a0000000000000000000000000000000000000000000000000000000008152600401610708906152dd565b602084015173ffffffffffffffffffffffffffffffffffffffff16156127c0578173ffffffffffffffffffffffffffffffffffffffff16846020015173ffffffffffffffffffffffffffffffffffffffff16146127c0576040517f08c379a000000000000000000000000000000000000000000000000000000000815260040161070890614c67565b6040830151612812576127dc8360200151856000015183611366565b612812576040517f08c379a000000000000000000000000000000000000000000000000000000000815260040161070890614e0e565b50505050565b61282a8260a001518260a00151613683565b61283c83608001518360800151613683565b1015612874576040517f08c379a000000000000000000000000000000000000000000000000000000000815260040161070890615314565b5050565b612880613cf6565b60006128908660a0015185612fbc565b905060006128a787608001518860a0015184613528565b905060006128b98760a0015186612fbc565b905060006128d088608001518960a0015184613528565b90508084106129135760208086018051839052805182018490525151865182015260808a015160a08b015187519092015161290b9290613528565b855152612950565b845183905284516020908101859052855181015190860180519190915260a089015160808a015191515161294792906135a5565b60208087015101525b84515160208087015101516129659190612fbc565b604086015284515160808a015160c08b0151612982929190613528565b85516040015284516020015160a08a015160e08b01516129a3929190613528565b855160600152602085015151608089015160c08a01516129c4929190613528565b856020015160400181815250506129ec8560200151602001518960a001518a60e00151613528565b60208601516060015250505050949350505050565b82612a38576040517f08c379a000000000000000000000000000000000000000000000000000000000815260040161070890614fc6565b82821115612a72576040517f08c379a000000000000000000000000000000000000000000000000000000000815260040161070890614f8f565b8460a00151612a858560400151846136d7565b1115612abd576040517f08c379a000000000000000000000000000000000000000000000000000000000815260040161070890614c9e565b612acb856080015183613683565b612ad9828760a00151613683565b111561069d576040517f08c379a0000000000000000000000000000000000000000000000000000000008152600401610708906151a4565b60018054604080516020601f60027fffffffffffffffffffffffffffffffffffffffffffffffffffffffffffffffff6101008789161502019095169490940493840181900481028201810190925282815260609390929091830182828015612bba5780601f10612b8f57610100808354040283529160200191612bba565b820191906000526020600020905b815481529060010190602001808311612b9d57829003601f168201915b50505050509050612be285610140015186600001518660000151856020015160200151613844565b61014084015184518651845160200151612bfe93929190613844565b612c178561014001518660000151858560400151613844565b612c338186600001518760400151856000015160400151613844565b612c4f8185600001518660400151856020015160400151613844565b836040015173ffffffffffffffffffffffffffffffffffffffff16856040015173ffffffffffffffffffffffffffffffffffffffff161415612cb957612cb481848760400151612caf8660000151606001518760200151606001516136d7565b613844565b61069d565b612cd181848760400151856000015160600151613844565b61069d81848660400151856020015160600151613844565b604080517fb4be83d5000000000000000000000000000000000000000000000000000000006020808301919091526060602483018181528751608485019081528884015160a48601529488015160c48501529087015160e4840152608087015161010484015260a087015161012484015260c087015161014484015260e08701516101648401526101008701516101848401526101208701516101a4840152610140870180516101c485019081526101608901516101e486015261018090525180516102048501819052939461022486019492936044870193919281019190601f82010460005b81811015612dee578351885260209788019790930192600101612dd0565b5050505080840361016091820152870151805180855260209485019460009281019190601f8201045b80841015612e3a5782518752602087019650602083019250600184019350612e17565b505050868252918303602091820190815285518085529382019360009391928781019190601f8201045b80861015612e875782518752602087019650602083019250600186019550612e64565b5050507fffffffffffffffffffffffffffffffffffffffffffffffffffffffffffffffe08585030185525050506040529392505050565b612ec6613d24565b612ecf82611e31565b9050612edb82826139e9565b612874828260200151613b14565b612ef1613cce565b612efc848484612553565b905082816020015114610689576040517f08c379a00000000000000000000000000000000000000000000000000000000081526004016107089061516d565b6000808311612f76576040517f08c379a000000000000000000000000000000000000000000000000000000000815260040161070890614dd7565b811580612f81575083155b15612f8e57506000610689565b60008380612f9857fe5b858409905083612fa88583612fbc565b81612faf57fe5b0690506124198584613683565b600082821115612ff8576040517f08c379a000000000000000000000000000000000000000000000000000000000815260040161070890614cd5565b50900390565b60008082511161303a576040517f08c379a000000000000000000000000000000000000000000000000000000000815260040161070890615034565b8160018351038151811061304a57fe5b016020015182517fffffffffffffffffffffffffffffffffffffffffffffffffffffffffffffffff01909252507fff000000000000000000000000000000000000000000000000000000000000001690565b600081602001835110156130dc576040517f08c379a000000000000000000000000000000000000000000000000000000000815260040161070890614d43565b50016020015190565b6040516000906060907f1626ba7e00000000000000000000000000000000000000000000000000000000906131209087908690602401614b9e565b604080517fffffffffffffffffffffffffffffffffffffffffffffffffffffffffffffffe0818403018152919052602080820180517bffffffffffffffffffffffffffffffffffffffffffffffffffffffff167fffffffff00000000000000000000000000000000000000000000000000000000909416939093178352815191935090829081885afa8080156131bd576001811461322e576125e7565b7f08c379a0000000000000000000000000000000000000000000000000000000006000527c20000000000000000000000000000000000000000000000000000000006020527c0c57414c4c45545f4552524f5200000000000000000000000000000000604052600060605260646000fd5b50505195945050505050565b6000601482511015613278576040517f08c379a000000000000000000000000000000000000000000000000000000000815260040161070890615249565b613286826014845103613bbb565b82517fffffffffffffffffffffffffffffffffffffffffffffffffffffffffffffffec019092525090565b6040516000906060907f9363470200000000000000000000000000000000000000000000000000000000906132ee90879087908790602401614b60565b604080517fffffffffffffffffffffffffffffffffffffffffffffffffffffffffffffffe0818403018152919052602080820180517bffffffffffffffffffffffffffffffffffffffffffffffffffffffff167fffffffff000000000000000000000000000000000000000000000000000000009094169390931783528151919350908290818a5afa80801561338b57600181146133fc57613401565b7f08c379a0000000000000000000000000000000000000000000000000000000006000527c20000000000000000000000000000000000000000000000000000000006020527c0f56414c494441544f525f4552524f5200000000000000000000000000604052600060605260646000fd5b825194505b50505050949350505050565b6000808311613448576040517f08c379a000000000000000000000000000000000000000000000000000000000815260040161070890614dd7565b61068661254d8584613683565b600080604051602001613467906147a0565b604080517fffffffffffffffffffffffffffffffffffffffffffffffffffffffffffffffe0818403018152828252805160209182012086518783012090845290830188905273ffffffffffffffffffffffffffffffffffffffff8716918301919091526060820152608090209150509392505050565b600280546040517f190100000000000000000000000000000000000000000000000000000000000081529182015260228101919091526042902090565b6000610fd96119f683613c1a565b6000808311613563576040517f08c379a000000000000000000000000000000000000000000000000000000000815260040161070890614dd7565b61356e8484846123ad565b15613448576040517f08c379a000000000000000000000000000000000000000000000000000000000815260040161070890614f21565b60008083116135e0576040517f08c379a000000000000000000000000000000000000000000000000000000000815260040161070890614dd7565b6135eb848484612f3b565b1561252d576040517f08c379a000000000000000000000000000000000000000000000000000000000815260040161070890614f21565b61362a613cce565b6020810182905260a08301516080840151613646918491613528565b808252608084015160c085015161365e929190613528565b604082015260a083015160e0840151613678918491613528565b606082015292915050565b60008261369257506000610fd9565b8282028284828161369f57fe5b0414610689576040517f08c379a000000000000000000000000000000000000000000000000000000000815260040161070890614e7c565b600082820183811015610689576040517f08c379a000000000000000000000000000000000000000000000000000000000815260040161070890614e7c565b60008082848161372257fe5b04949350505050565b6000818310610fd65781610689565b60018054604080516020601f60027fffffffffffffffffffffffffffffffffffffffffffffffffffffffffffffffff61010087891615020190951694909404938401819004810282018101909252828152606093909290918301828280156137e35780601f106137b8576101008083540402835291602001916137e3565b820191906000526020600020905b8154815290600101906020018083116137c657829003601f168201915b505050505090506138038461014001518560000151858560000151613844565b61381c8461016001518486600001518560200151613844565b61383481856000015186604001518560400151613844565b6128128184866040015185606001515b60008111801561388057508173ffffffffffffffffffffffffffffffffffffffff168373ffffffffffffffffffffffffffffffffffffffff1614155b156128125760038451116138c0576040517f08c379a000000000000000000000000000000000000000000000000000000000815260040161070890615136565b6020848101517fffffffff00000000000000000000000000000000000000000000000000000000166000818152600b90925260409091205473ffffffffffffffffffffffffffffffffffffffff1680613945576040517f08c379a000000000000000000000000000000000000000000000000000000000815260040161070890614ffd565b60405186517fa85e59e40000000000000000000000000000000000000000000000000000000082526080600483015273ffffffffffffffffffffffffffffffffffffffff87811660248401528616604483015260648201859052608480830191603f01660fffffffffffe0168301015b808210156139d05788518252602098890198909101906139b5565b61020083848303856000885af191505080611c25573d82fd5b805160ff16600314613a27576040517f08c379a0000000000000000000000000000000000000000000000000000000008152600401610708906152a6565b606082015173ffffffffffffffffffffffffffffffffffffffff1615613a9a57606082015173ffffffffffffffffffffffffffffffffffffffff163314613a9a576040517f08c379a0000000000000000000000000000000000000000000000000000000008152600401610708906152dd565b6000613aa4612654565b90508073ffffffffffffffffffffffffffffffffffffffff16836000015173ffffffffffffffffffffffffffffffffffffffff1614613b0f576040517f08c379a000000000000000000000000000000000000000000000000000000000815260040161070890614e45565b505050565b6000818152600560205260409081902080547fffffffffffffffffffffffffffffffffffffffffffffffffffffffffffffff001660011790558281015183516101408501516101608601519351859473ffffffffffffffffffffffffffffffffffffffff9485169493909316927fdc47b3613d9fe400085f6dbdc99453462279057e6207385042827ed6b1a62cf792613baf92339290614a3f565b60405180910390a45050565b60008160140183511015613bfb576040517f08c379a000000000000000000000000000000000000000000000000000000000815260040161070890615249565b50016014015173ffffffffffffffffffffffffffffffffffffffff1690565b600080604051602001613c2c90614861565b6040516020818303038152906040528051906020012090506000836101400151604051613c599190614753565b604051809103902090506000846101600151604051613c789190614753565b6040519081900390207fffffffffffffffffffffffffffffffffffffffffffffffffffffffffffffffe0860180516101408801805161016090990180519784529581529285526101a08220915295905250525090565b6040518060800160405280600081526020016000815260200160008152602001600081525090565b604051806101200160405280613d0a613cce565b8152602001613d17613cce565b8152602001600081525090565b604080516060810182526000808252602082018190529181019190915290565b803573ffffffffffffffffffffffffffffffffffffffff81168114610fd957600080fd5b600082601f830112613d78578081fd5b8135613d8b613d8682615434565b61540d565b8181529150602080830190840160005b83811015613dc857613db38760208435890101613e76565b83526020928301929190910190600101613d9b565b5050505092915050565b600082601f830112613de2578081fd5b8135613df0613d8682615434565b8181529150602080830190840160005b83811015613dc857613e188760208435890101613f42565b83526020928301929190910190600101613e00565b60008083601f840112613e3f57600080fd5b50813567ffffffffffffffff811115613e5757600080fd5b602083019150836020828501011115613e6f57600080fd5b9250929050565b600082601f830112613e86578081fd5b813567ffffffffffffffff811115613e9c578182fd5b613ecd60207fffffffffffffffffffffffffffffffffffffffffffffffffffffffffffffffe0601f8401160161540d565b9150808252836020828501011115613ee457600080fd5b8060208401602084013760009082016020015292915050565b600060808284031215613f0e578081fd5b613f18608061540d565b90508135815260208201356020820152604082013560408201526060820135606082015292915050565b6000610180808385031215613f55578182fd5b613f5e8161540d565b915050613f6b8383613d44565b8152613f7a8360208401613d44565b6020820152613f8c8360408401613d44565b6040820152613f9e8360608401613d44565b60608201526080820135608082015260a082013560a082015260c082013560c082015260e082013560e08201526101008083013581830152506101208083013581830152506101408083013567ffffffffffffffff8082111561400057600080fd5b61400c86838701613e76565b8385015261016092508285013591508082111561402857600080fd5b5061403585828601613e76565b82840152505092915050565b60006020828403121561405357600080fd5b6106898383613d44565b6000806040838503121561407057600080fd5b61407a8484613d44565b91506140898460208501613d44565b90509250929050565b600080604083850312156140a557600080fd5b6140af8484613d44565b9150602083013580151581146140c457600080fd5b809150509250929050565b6000602082840312156140e157600080fd5b813567ffffffffffffffff8111156140f857600080fd5b61410484828501613dd2565b949350505050565b600080600060608486031215614120578081fd5b833567ffffffffffffffff80821115614137578283fd5b61414387838801613dd2565b9450602091508186013581811115614159578384fd5b80870188601f82011261416a578485fd5b8035915061417a613d8683615434565b82815284810190828601868502840187018c1015614196578788fd5b8793505b848410156141b857803583526001939093019291860191860161419a565b50965050505060408601359150808211156141d1578283fd5b506141de86828701613d68565b9150509250925092565b6000806000606084860312156141fc578081fd5b833567ffffffffffffffff80821115614213578283fd5b61421f87838801613dd2565b94506020860135935060408601359150808211156141d1578283fd5b60006020828403121561424d57600080fd5b5035919050565b6000806040838503121561426757600080fd5b8235915060208301356140c481615481565b6000806000806060858703121561428f57600080fd5b843593506142a08660208701613d44565b9250604085013567ffffffffffffffff8111156142bc57600080fd5b6142c887828801613e2d565b95989497509550505050565b6000806000606084860312156142e957600080fd5b8335925060208401356142fb81615481565b9150604084013567ffffffffffffffff81111561431757600080fd5b6141de86828701613e76565b60006020828403121561433557600080fd5b8135610689816154a3565b60006020828403121561435257600080fd5b8151610689816154a3565b600080610100838503121561437157600080fd5b61437b8484613efd565b91506140898460808501613efd565b60006020828403121561439c57600080fd5b813567ffffffffffffffff8111156143b357600080fd5b61410484828501613f42565b600080600080600061010086880312156143d857600080fd5b853567ffffffffffffffff8111156143ef57600080fd5b6143fb88828901613f42565b95505061440b8760208801613d44565b935060408601359250606086013591506144288760808801613efd565b90509295509295909350565b60008060008060808587031215614449578182fd5b843567ffffffffffffffff80821115614460578384fd5b61446c88838901613f42565b95506020870135915080821115614481578384fd5b61448d88838901613f42565b945060408701359150808211156144a2578384fd5b6144ae88838901613e76565b935060608701359150808211156144c457600080fd5b506144d187828801613e76565b91505092959194509250565b600080604083850312156144f057600080fd5b823567ffffffffffffffff81111561450757600080fd5b61451385828601613f42565b95602094909401359450505050565b600080600060608486031215614536578081fd5b833567ffffffffffffffff8082111561454d578283fd5b61455987838801613f42565b9450602086013593506040860135915080821115614575578283fd5b506141de86828701613e76565b6000806000806000806080878903121561459b57600080fd5b863595506145ac8860208901613d44565b9450604087013567ffffffffffffffff808211156145c957600080fd5b6145d58a838b01613e2d565b909650945060608901359150808211156145ee57600080fd5b506145fb89828a01613e2d565b979a9699509497509295939492505050565b60008060006060848603121561462257600080fd5b505081359360208301359350604090920135919050565b60008151808452614651816020860160208601615455565b601f017fffffffffffffffffffffffffffffffffffffffffffffffffffffffffffffffe0169290920160200192915050565b7f6279746573206d616b65724173736574446174612c0000000000000000000000815260150190565b7f62797465732074616b6572417373657444617461000000000000000000000000815260140190565b7f2900000000000000000000000000000000000000000000000000000000000000815260010190565b805182526020810151602083015260408101516040830152606081015160608301525050565b805160ff16825260208082015190830152604090810151910152565b6000828483375060009101908152919050565b60008251614765818460208701615455565b9190910192915050565b7f19457468657265756d205369676e6564204d6573736167653a0a3332000000008152601c810191909152603c0190565b7f5a65726f45785472616e73616374696f6e28000000000000000000000000000081527f75696e743235362073616c742c0000000000000000000000000000000000000060128201527f61646472657373207369676e6572416464726573732c00000000000000000000601f8201527f627974657320646174610000000000000000000000000000000000000000000060358201527f2900000000000000000000000000000000000000000000000000000000000000603f82015260400190565b60007f4f7264657228000000000000000000000000000000000000000000000000000082527f61646472657373206d616b6572416464726573732c000000000000000000000060068301527f616464726573732074616b6572416464726573732c0000000000000000000000601b8301527f6164647265737320666565526563697069656e74416464726573732c0000000060308301527f616464726573732073656e646572416464726573732c00000000000000000000604c8301527f75696e74323536206d616b65724173736574416d6f756e742c0000000000000060628301527f75696e743235362074616b65724173736574416d6f756e742c00000000000000607b8301527f75696e74323536206d616b65724665652c00000000000000000000000000000060948301527f75696e743235362074616b65724665652c00000000000000000000000000000060a58301527f75696e743235362065787069726174696f6e54696d655365636f6e64732c000060b68301527f75696e743235362073616c742c0000000000000000000000000000000000000060d4830152610fd9614a19614a1460e18501614683565b6146ac565b6146d5565b73ffffffffffffffffffffffffffffffffffffffff91909116815260200190565b600073ffffffffffffffffffffffffffffffffffffffff8516825260606020830152614a6e6060830185614639565b8281036040840152614a808185614639565b9695505050505050565b600061010073ffffffffffffffffffffffffffffffffffffffff808c168452808b166020850152508860408401528760608401528660808401528560a08401528060c0840152614adc81840186614639565b83810360e0850152614aee8186614639565b9c9b505050505050505050505050565b602080825282518282018190526000918401906040840190835b81811015614b4157614b2b838551614724565b6020939093019260609290920191600101614b18565b509095945050505050565b901515815260200190565b90815260200190565b600084825273ffffffffffffffffffffffffffffffffffffffff8416602083015260606040830152614b956060830184614639565b95945050505050565b6000838252604060208301526106866040830184614639565b93845260ff9290921660208401526040830152606082015260800190565b7fffffffff0000000000000000000000000000000000000000000000000000000092909216825273ffffffffffffffffffffffffffffffffffffffff16602082015260400190565b6000602082526106896020830184614639565b60208082526012908201527f4c454e4754485f36355f52455155495245440000000000000000000000000000604082015260600190565b6020808252600d908201527f494e56414c49445f54414b455200000000000000000000000000000000000000604082015260600190565b6020808252600e908201527f4f524445525f4f56455246494c4c000000000000000000000000000000000000604082015260600190565b60208082526011908201527f55494e543235365f554e444552464c4f57000000000000000000000000000000604082015260600190565b6020808252601a908201527f41535345545f50524f58595f414c52454144595f455849535453000000000000604082015260600190565b60208082526026908201527f475245415445525f4f525f455155414c5f544f5f33325f4c454e4754485f524560408201527f5155495245440000000000000000000000000000000000000000000000000000606082015260800190565b60208082526015908201527f5349474e41545552455f554e535550504f525445440000000000000000000000604082015260600190565b60208082526010908201527f4449564953494f4e5f42595f5a45524f00000000000000000000000000000000604082015260600190565b60208082526017908201527f494e56414c49445f4f524445525f5349474e4154555245000000000000000000604082015260600190565b6020808252600d908201527f494e56414c49445f4d414b455200000000000000000000000000000000000000604082015260600190565b60208082526010908201527f55494e543235365f4f564552464c4f5700000000000000000000000000000000604082015260600190565b6020808252600f908201527f494e56414c49445f54585f484153480000000000000000000000000000000000604082015260600190565b60208082526011908201527f494e56414c49445f5349474e4154555245000000000000000000000000000000604082015260600190565b6020808252600e908201527f524f554e44494e475f4552524f52000000000000000000000000000000000000604082015260600190565b60208082526010908201527f4641494c45445f455845435554494f4e00000000000000000000000000000000604082015260600190565b6020808252600d908201527f54414b45525f4f56455250415900000000000000000000000000000000000000604082015260600190565b60208082526014908201527f494e56414c49445f54414b45525f414d4f554e54000000000000000000000000604082015260600190565b6020808252601a908201527f41535345545f50524f58595f444f45535f4e4f545f4558495354000000000000604082015260600190565b60208082526021908201527f475245415445525f5448414e5f5a45524f5f4c454e4754485f5245515549524560408201527f4400000000000000000000000000000000000000000000000000000000000000606082015260800190565b60208082526011908201527f5349474e41545552455f494c4c4547414c000000000000000000000000000000604082015260600190565b6020808252601e908201527f4c454e4754485f475245415445525f5448414e5f305f52455155495245440000604082015260600190565b60208082526017908201527f494e56414c49445f4e45575f4f524445525f45504f4348000000000000000000604082015260600190565b6020808252601e908201527f4c454e4754485f475245415445525f5448414e5f335f52455155495245440000604082015260600190565b60208082526014908201527f434f4d504c4554455f46494c4c5f4641494c4544000000000000000000000000604082015260600190565b60208082526012908201527f494e56414c49445f46494c4c5f50524943450000000000000000000000000000604082015260600190565b60208082526012908201527f5245454e5452414e43595f494c4c4547414c0000000000000000000000000000604082015260600190565b60208082526013908201527f4f4e4c595f434f4e54524143545f4f574e455200000000000000000000000000604082015260600190565b60208082526026908201527f475245415445525f4f525f455155414c5f544f5f32305f4c454e4754485f524560408201527f5155495245440000000000000000000000000000000000000000000000000000606082015260800190565b60208082526010908201527f4f524445525f554e46494c4c41424c4500000000000000000000000000000000604082015260600190565b6020808252600e908201527f494e56414c49445f53454e444552000000000000000000000000000000000000604082015260600190565b60208082526018908201527f4e454741544956455f5350524541445f52455155495245440000000000000000604082015260600190565b60208082526014908201527f494e56414c49445f54585f5349474e4154555245000000000000000000000000604082015260600190565b60208082526011908201527f4c454e4754485f305f5245515549524544000000000000000000000000000000604082015260600190565b60808101610fd982846146fe565b6000610120820190506153db8284516146fe565b60208301516153ed60808401826146fe565b50604083015161010083015292915050565b60608101610fd98284614724565b60405181810167ffffffffffffffff8111828210171561542c57600080fd5b604052919050565b600067ffffffffffffffff82111561544b57600080fd5b5060209081020190565b60005b83811015615470578181015183820152602001615458565b838111156128125750506000910152565b73ffffffffffffffffffffffffffffffffffffffff8116811461237157600080fd5b7fffffffff000000000000000000000000000000000000000000000000000000008116811461237157600080fdfea365627a7a72305820ebe049a873318e73940eff27799c21c922c750f0078d0cf0400094da0002d34a6c6578706572696d656e74616cf564736f6c634300050a0040",
				"opcodes": "PUSH1 0x80 PUSH1 0x40 MSTORE PUSH1 0x0 DUP1 SLOAD PUSH1 0xFF NOT AND SWAP1 SSTORE CALLVALUE DUP1 ISZERO PUSH3 0x1B JUMPI PUSH1 0x0 DUP1 REVERT JUMPDEST POP PUSH1 0x40 DUP1 MLOAD PUSH1 0x20 DUP2 ADD SWAP2 DUP3 SWAP1 MSTORE PUSH1 0x0 DUP1 DUP3 MSTORE SWAP1 SWAP2 DUP3 SWAP2 PUSH3 0x3F SWAP2 PUSH1 0x1 SWAP2 PUSH3 0x154 JUMP JUMPDEST POP POP PUSH1 0x40 MLOAD PUSH1 0x20 ADD PUSH3 0x52 SWAP1 PUSH3 0x214 JUMP JUMPDEST PUSH1 0x40 DUP1 MLOAD PUSH1 0x1F NOT DUP2 DUP5 SUB ADD DUP2 MSTORE DUP3 DUP3 MSTORE DUP1 MLOAD PUSH1 0x20 SWAP2 DUP3 ADD KECCAK256 DUP4 DUP4 ADD DUP4 MSTORE PUSH1 0xB DUP5 MSTORE PUSH32 0x30782050726F746F636F6C000000000000000000000000000000000000000000 SWAP4 DUP3 ADD SWAP4 SWAP1 SWAP4 MSTORE DUP2 MLOAD DUP1 DUP4 ADD DUP4 MSTORE PUSH1 0x1 DUP2 MSTORE PUSH32 0x3200000000000000000000000000000000000000000000000000000000000000 SWAP1 DUP3 ADD MSTORE SWAP1 MLOAD PUSH3 0x120 SWAP3 SWAP2 PUSH32 0xF0F24618F4C4BE1E62E026FB039A20EF96F4495294817D1027FFAA6D1F70E61E SWAP2 PUSH32 0xAD7C5BEF027816A800DA1736444FB58A807EF4C9603B7848673F7E3A68EB14A5 SWAP2 ADDRESS SWAP2 ADD PUSH3 0x1F9 JUMP JUMPDEST PUSH1 0x40 DUP1 MLOAD PUSH1 0x1F NOT DUP2 DUP5 SUB ADD DUP2 MSTORE SWAP2 SWAP1 MSTORE DUP1 MLOAD PUSH1 0x20 SWAP1 SWAP2 ADD KECCAK256 PUSH1 0x2 SSTORE POP PUSH1 0x3 DUP1 SLOAD PUSH1 0x1 PUSH1 0x1 PUSH1 0xA0 SHL SUB NOT AND CALLER OR SWAP1 SSTORE PUSH3 0x2D5 JUMP JUMPDEST DUP3 DUP1 SLOAD PUSH1 0x1 DUP2 PUSH1 0x1 AND ISZERO PUSH2 0x100 MUL SUB AND PUSH1 0x2 SWAP1 DIV SWAP1 PUSH1 0x0 MSTORE PUSH1 0x20 PUSH1 0x0 KECCAK256 SWAP1 PUSH1 0x1F ADD PUSH1 0x20 SWAP1 DIV DUP2 ADD SWAP3 DUP3 PUSH1 0x1F LT PUSH3 0x197 JUMPI DUP1 MLOAD PUSH1 0xFF NOT AND DUP4 DUP1 ADD OR DUP6 SSTORE PUSH3 0x1C7 JUMP JUMPDEST DUP3 DUP1 ADD PUSH1 0x1 ADD DUP6 SSTORE DUP3 ISZERO PUSH3 0x1C7 JUMPI SWAP2 DUP3 ADD JUMPDEST DUP3 DUP2 GT ISZERO PUSH3 0x1C7 JUMPI DUP3 MLOAD DUP3 SSTORE SWAP2 PUSH1 0x20 ADD SWAP2 SWAP1 PUSH1 0x1 ADD SWAP1 PUSH3 0x1AA JUMP JUMPDEST POP PUSH3 0x1D5 SWAP3 SWAP2 POP PUSH3 0x1D9 JUMP JUMPDEST POP SWAP1 JUMP JUMPDEST PUSH3 0x1F6 SWAP2 SWAP1 JUMPDEST DUP1 DUP3 GT ISZERO PUSH3 0x1D5 JUMPI PUSH1 0x0 DUP2 SSTORE PUSH1 0x1 ADD PUSH3 0x1E0 JUMP JUMPDEST SWAP1 JUMP JUMPDEST SWAP4 DUP5 MSTORE PUSH1 0x20 DUP5 ADD SWAP3 SWAP1 SWAP3 MSTORE PUSH1 0x40 DUP4 ADD MSTORE PUSH1 0x60 DUP3 ADD MSTORE PUSH1 0x80 ADD SWAP1 JUMP JUMPDEST PUSH32 0x454950373132446F6D61696E2800000000000000000000000000000000000000 DUP2 MSTORE PUSH32 0x737472696E67206E616D652C0000000000000000000000000000000000000000 PUSH1 0xD DUP3 ADD MSTORE PUSH32 0x737472696E672076657273696F6E2C0000000000000000000000000000000000 PUSH1 0x19 DUP3 ADD MSTORE PUSH32 0x6164647265737320766572696679696E67436F6E747261637400000000000000 PUSH1 0x28 DUP3 ADD MSTORE PUSH32 0x2900000000000000000000000000000000000000000000000000000000000000 PUSH1 0x41 DUP3 ADD MSTORE PUSH1 0x42 ADD SWAP1 JUMP JUMPDEST PUSH2 0x5514 DUP1 PUSH3 0x2E5 PUSH1 0x0 CODECOPY PUSH1 0x0 RETURN INVALID PUSH1 0x80 PUSH1 0x40 MSTORE CALLVALUE DUP1 ISZERO PUSH2 0x10 JUMPI PUSH1 0x0 DUP1 REVERT JUMPDEST POP PUSH1 0x4 CALLDATASIZE LT PUSH2 0x2F4 JUMPI PUSH1 0x0 CALLDATALOAD PUSH1 0xE0 SHR DUP1 PUSH4 0x7E9D74DC GT PUSH2 0x191 JUMPI DUP1 PUSH4 0xD9BFA73E GT PUSH2 0xE3 JUMPI DUP1 PUSH4 0xE0B701E3 GT PUSH2 0x97 JUMPI DUP1 PUSH4 0xEEA086BA GT PUSH2 0x71 JUMPI DUP1 PUSH4 0xEEA086BA EQ PUSH2 0x656 JUMPI DUP1 PUSH4 0xF2FDE38B EQ PUSH2 0x65E JUMPI DUP1 PUSH4 0xFFA1AD74 EQ PUSH2 0x671 JUMPI PUSH2 0x2F4 JUMP JUMPDEST DUP1 PUSH4 0xE0B701E3 EQ PUSH2 0x628 JUMPI DUP1 PUSH4 0xE306F779 EQ PUSH2 0x63B JUMPI DUP1 PUSH4 0xE5FA431B EQ PUSH2 0x643 JUMPI PUSH2 0x2F4 JUMP JUMPDEST DUP1 PUSH4 0xDD1C7D18 GT PUSH2 0xC8 JUMPI DUP1 PUSH4 0xDD1C7D18 EQ PUSH2 0x5EF JUMPI DUP1 PUSH4 0xDE30200D EQ PUSH2 0x602 JUMPI DUP1 PUSH4 0xE0ACD33D EQ PUSH2 0x615 JUMPI PUSH2 0x2F4 JUMP JUMPDEST DUP1 PUSH4 0xD9BFA73E EQ PUSH2 0x5C7 JUMPI DUP1 PUSH4 0xDB123B1A EQ PUSH2 0x5DA JUMPI PUSH2 0x2F4 JUMP JUMPDEST DUP1 PUSH4 0xB4BE83D5 GT PUSH2 0x145 JUMPI DUP1 PUSH4 0xC585BB93 GT PUSH2 0x11F JUMPI DUP1 PUSH4 0xC585BB93 EQ PUSH2 0x581 JUMPI DUP1 PUSH4 0xC75E0A81 EQ PUSH2 0x594 JUMPI DUP1 PUSH4 0xD46B02C3 EQ PUSH2 0x5B4 JUMPI PUSH2 0x2F4 JUMP JUMPDEST DUP1 PUSH4 0xB4BE83D5 EQ PUSH2 0x548 JUMPI DUP1 PUSH4 0xBE7ADA1E EQ PUSH2 0x55B JUMPI DUP1 PUSH4 0xBFC8BFCE EQ PUSH2 0x56E JUMPI PUSH2 0x2F4 JUMP JUMPDEST DUP1 PUSH4 0x8DA5CB5B GT PUSH2 0x176 JUMPI DUP1 PUSH4 0x8DA5CB5B EQ PUSH2 0x51A JUMPI DUP1 PUSH4 0x93634702 EQ PUSH2 0x522 JUMPI DUP1 PUSH4 0xA3E20380 EQ PUSH2 0x535 JUMPI PUSH2 0x2F4 JUMP JUMPDEST DUP1 PUSH4 0x7E9D74DC EQ PUSH2 0x4E7 JUMPI DUP1 PUSH4 0x82C174D0 EQ PUSH2 0x507 JUMPI PUSH2 0x2F4 JUMP JUMPDEST DUP1 PUSH4 0x4D0AE546 GT PUSH2 0x24A JUMPI DUP1 PUSH4 0x64A3BC15 GT PUSH2 0x1FE JUMPI DUP1 PUSH4 0x77FCCE68 GT PUSH2 0x1D8 JUMPI DUP1 PUSH4 0x77FCCE68 EQ PUSH2 0x4AE JUMPI DUP1 PUSH4 0x7B8E3514 EQ PUSH2 0x4C1 JUMPI DUP1 PUSH4 0x7E1D9808 EQ PUSH2 0x4D4 JUMPI PUSH2 0x2F4 JUMP JUMPDEST DUP1 PUSH4 0x64A3BC15 EQ PUSH2 0x475 JUMPI DUP1 PUSH4 0x66758D7B EQ PUSH2 0x488 JUMPI DUP1 PUSH4 0x679D2F9A EQ PUSH2 0x49B JUMPI PUSH2 0x2F4 JUMP JUMPDEST DUP1 PUSH4 0x50DDE190 GT PUSH2 0x22F JUMPI DUP1 PUSH4 0x50DDE190 EQ PUSH2 0x43C JUMPI DUP1 PUSH4 0x60704108 EQ PUSH2 0x44F JUMPI DUP1 PUSH4 0x642F2EAF EQ PUSH2 0x462 JUMPI PUSH2 0x2F4 JUMP JUMPDEST DUP1 PUSH4 0x4D0AE546 EQ PUSH2 0x416 JUMPI DUP1 PUSH4 0x4F9559B1 EQ PUSH2 0x429 JUMPI PUSH2 0x2F4 JUMP JUMPDEST DUP1 PUSH4 0x2AC12622 GT PUSH2 0x2AC JUMPI DUP1 PUSH4 0x3E228BAE GT PUSH2 0x286 JUMPI DUP1 PUSH4 0x3E228BAE EQ PUSH2 0x3D0 JUMPI DUP1 PUSH4 0x3FD3C997 EQ PUSH2 0x3E3 JUMPI DUP1 PUSH4 0x4AC14782 EQ PUSH2 0x403 JUMPI PUSH2 0x2F4 JUMP JUMPDEST DUP1 PUSH4 0x2AC12622 EQ PUSH2 0x38A JUMPI DUP1 PUSH4 0x3683EF8E EQ PUSH2 0x39D JUMPI DUP1 PUSH4 0x3C28D861 EQ PUSH2 0x3B0 JUMPI PUSH2 0x2F4 JUMP JUMPDEST DUP1 PUSH4 0x20777F70 GT PUSH2 0x2DD JUMPI DUP1 PUSH4 0x20777F70 EQ PUSH2 0x337 JUMPI DUP1 PUSH4 0x288CDC91 EQ PUSH2 0x357 JUMPI DUP1 PUSH4 0x297BB70B EQ PUSH2 0x36A JUMPI PUSH2 0x2F4 JUMP JUMPDEST DUP1 PUSH4 0x1BE23901 EQ PUSH2 0x2F9 JUMPI DUP1 PUSH4 0x1EA1E3D8 EQ PUSH2 0x322 JUMPI JUMPDEST PUSH1 0x0 DUP1 REVERT JUMPDEST PUSH2 0x30C PUSH2 0x307 CALLDATASIZE PUSH1 0x4 PUSH2 0x460D JUMP JUMPDEST PUSH2 0x679 JUMP JUMPDEST PUSH1 0x40 MLOAD PUSH2 0x319 SWAP2 SWAP1 PUSH2 0x4B4C JUMP JUMPDEST PUSH1 0x40 MLOAD DUP1 SWAP2 SUB SWAP1 RETURN JUMPDEST PUSH2 0x335 PUSH2 0x330 CALLDATASIZE PUSH1 0x4 PUSH2 0x43BF JUMP JUMPDEST PUSH2 0x690 JUMP JUMPDEST STOP JUMPDEST PUSH2 0x34A PUSH2 0x345 CALLDATASIZE PUSH1 0x4 PUSH2 0x460D JUMP JUMPDEST PUSH2 0x6A4 JUMP JUMPDEST PUSH1 0x40 MLOAD PUSH2 0x319 SWAP2 SWAP1 PUSH2 0x4B57 JUMP JUMPDEST PUSH2 0x34A PUSH2 0x365 CALLDATASIZE PUSH1 0x4 PUSH2 0x423B JUMP JUMPDEST PUSH2 0x6B1 JUMP JUMPDEST PUSH2 0x37D PUSH2 0x378 CALLDATASIZE PUSH1 0x4 PUSH2 0x410C JUMP JUMPDEST PUSH2 0x6C3 JUMP JUMPDEST PUSH1 0x40 MLOAD PUSH2 0x319 SWAP2 SWAP1 PUSH2 0x53B9 JUMP JUMPDEST PUSH2 0x30C PUSH2 0x398 CALLDATASIZE PUSH1 0x4 PUSH2 0x423B JUMP JUMPDEST PUSH2 0x7D9 JUMP JUMPDEST PUSH2 0x335 PUSH2 0x3AB CALLDATASIZE PUSH1 0x4 PUSH2 0x4279 JUMP JUMPDEST PUSH2 0x7EE JUMP JUMPDEST PUSH2 0x3C3 PUSH2 0x3BE CALLDATASIZE PUSH1 0x4 PUSH2 0x4434 JUMP JUMPDEST PUSH2 0x8DF JUMP JUMPDEST PUSH1 0x40 MLOAD PUSH2 0x319 SWAP2 SWAP1 PUSH2 0x53C7 JUMP JUMPDEST PUSH2 0x37D PUSH2 0x3DE CALLDATASIZE PUSH1 0x4 PUSH2 0x4522 JUMP JUMPDEST PUSH2 0xA77 JUMP JUMPDEST PUSH2 0x3F6 PUSH2 0x3F1 CALLDATASIZE PUSH1 0x4 PUSH2 0x4323 JUMP JUMPDEST PUSH2 0xACC JUMP JUMPDEST PUSH1 0x40 MLOAD PUSH2 0x319 SWAP2 SWAP1 PUSH2 0x4A1E JUMP JUMPDEST PUSH2 0x335 PUSH2 0x411 CALLDATASIZE PUSH1 0x4 PUSH2 0x40CF JUMP JUMPDEST PUSH2 0xAF4 JUMP JUMPDEST PUSH2 0x37D PUSH2 0x424 CALLDATASIZE PUSH1 0x4 PUSH2 0x410C JUMP JUMPDEST PUSH2 0xBB8 JUMP JUMPDEST PUSH2 0x335 PUSH2 0x437 CALLDATASIZE PUSH1 0x4 PUSH2 0x423B JUMP JUMPDEST PUSH2 0xC94 JUMP JUMPDEST PUSH2 0x37D PUSH2 0x44A CALLDATASIZE PUSH1 0x4 PUSH2 0x410C JUMP JUMPDEST PUSH2 0xE41 JUMP JUMPDEST PUSH2 0x3F6 PUSH2 0x45D CALLDATASIZE PUSH1 0x4 PUSH2 0x4323 JUMP JUMPDEST PUSH2 0xEB6 JUMP JUMPDEST PUSH2 0x30C PUSH2 0x470 CALLDATASIZE PUSH1 0x4 PUSH2 0x423B JUMP JUMPDEST PUSH2 0xF04 JUMP JUMPDEST PUSH2 0x37D PUSH2 0x483 CALLDATASIZE PUSH1 0x4 PUSH2 0x4522 JUMP JUMPDEST PUSH2 0xF19 JUMP JUMPDEST PUSH2 0x37D PUSH2 0x496 CALLDATASIZE PUSH1 0x4 PUSH2 0x435D JUMP JUMPDEST PUSH2 0xFC4 JUMP JUMPDEST PUSH2 0x30C PUSH2 0x4A9 CALLDATASIZE PUSH1 0x4 PUSH2 0x460D JUMP JUMPDEST PUSH2 0xFDF JUMP JUMPDEST PUSH2 0x335 PUSH2 0x4BC CALLDATASIZE PUSH1 0x4 PUSH2 0x4092 JUMP JUMPDEST PUSH2 0xFEC JUMP JUMPDEST PUSH2 0x30C PUSH2 0x4CF CALLDATASIZE PUSH1 0x4 PUSH2 0x405D JUMP JUMPDEST PUSH2 0x1125 JUMP JUMPDEST PUSH2 0x37D PUSH2 0x4E2 CALLDATASIZE PUSH1 0x4 PUSH2 0x41E8 JUMP JUMPDEST PUSH2 0x1145 JUMP JUMPDEST PUSH2 0x4FA PUSH2 0x4F5 CALLDATASIZE PUSH1 0x4 PUSH2 0x40CF JUMP JUMPDEST PUSH2 0x1296 JUMP JUMPDEST PUSH1 0x40 MLOAD PUSH2 0x319 SWAP2 SWAP1 PUSH2 0x4AFE JUMP JUMPDEST PUSH2 0x30C PUSH2 0x515 CALLDATASIZE PUSH1 0x4 PUSH2 0x4254 JUMP JUMPDEST PUSH2 0x132A JUMP JUMPDEST PUSH2 0x3F6 PUSH2 0x134A JUMP JUMPDEST PUSH2 0x30C PUSH2 0x530 CALLDATASIZE PUSH1 0x4 PUSH2 0x42D4 JUMP JUMPDEST PUSH2 0x1366 JUMP JUMPDEST PUSH2 0x37D PUSH2 0x543 CALLDATASIZE PUSH1 0x4 PUSH2 0x41E8 JUMP JUMPDEST PUSH2 0x17D9 JUMP JUMPDEST PUSH2 0x37D PUSH2 0x556 CALLDATASIZE PUSH1 0x4 PUSH2 0x4522 JUMP JUMPDEST PUSH2 0x18D8 JUMP JUMPDEST PUSH2 0x34A PUSH2 0x569 CALLDATASIZE PUSH1 0x4 PUSH2 0x460D JUMP JUMPDEST PUSH2 0x1953 JUMP JUMPDEST PUSH2 0x335 PUSH2 0x57C CALLDATASIZE PUSH1 0x4 PUSH2 0x4582 JUMP JUMPDEST PUSH2 0x1960 JUMP JUMPDEST PUSH2 0x335 PUSH2 0x58F CALLDATASIZE PUSH1 0x4 PUSH2 0x4041 JUMP JUMPDEST PUSH2 0x1C2F JUMP JUMPDEST PUSH2 0x5A7 PUSH2 0x5A2 CALLDATASIZE PUSH1 0x4 PUSH2 0x438A JUMP JUMPDEST PUSH2 0x1E31 JUMP JUMPDEST PUSH1 0x40 MLOAD PUSH2 0x319 SWAP2 SWAP1 PUSH2 0x53FF JUMP JUMPDEST PUSH2 0x335 PUSH2 0x5C2 CALLDATASIZE PUSH1 0x4 PUSH2 0x438A JUMP JUMPDEST PUSH2 0x1F27 JUMP JUMPDEST PUSH2 0x34A PUSH2 0x5D5 CALLDATASIZE PUSH1 0x4 PUSH2 0x405D JUMP JUMPDEST PUSH2 0x1FC3 JUMP JUMPDEST PUSH2 0x5E2 PUSH2 0x1FE0 JUMP JUMPDEST PUSH1 0x40 MLOAD PUSH2 0x319 SWAP2 SWAP1 PUSH2 0x4C1D JUMP JUMPDEST PUSH2 0x37D PUSH2 0x5FD CALLDATASIZE PUSH1 0x4 PUSH2 0x41E8 JUMP JUMPDEST PUSH2 0x208B JUMP JUMPDEST PUSH2 0x34A PUSH2 0x610 CALLDATASIZE PUSH1 0x4 PUSH2 0x460D JUMP JUMPDEST PUSH2 0x2144 JUMP JUMPDEST PUSH2 0x34A PUSH2 0x623 CALLDATASIZE PUSH1 0x4 PUSH2 0x460D JUMP JUMPDEST PUSH2 0x2151 JUMP JUMPDEST PUSH2 0x37D PUSH2 0x636 CALLDATASIZE PUSH1 0x4 PUSH2 0x44DD JUMP JUMPDEST PUSH2 0x215E JUMP JUMPDEST PUSH2 0x34A PUSH2 0x2170 JUMP JUMPDEST PUSH2 0x37D PUSH2 0x651 CALLDATASIZE PUSH1 0x4 PUSH2 0x41E8 JUMP JUMPDEST PUSH2 0x2176 JUMP JUMPDEST PUSH2 0x3F6 PUSH2 0x22A7 JUMP JUMPDEST PUSH2 0x335 PUSH2 0x66C CALLDATASIZE PUSH1 0x4 PUSH2 0x4041 JUMP JUMPDEST PUSH2 0x22C3 JUMP JUMPDEST PUSH2 0x5E2 PUSH2 0x2374 JUMP JUMPDEST PUSH1 0x0 PUSH2 0x686 DUP5 DUP5 DUP5 PUSH2 0x23AD JUMP JUMPDEST SWAP1 POP JUMPDEST SWAP4 SWAP3 POP POP POP JUMP JUMPDEST PUSH2 0x69D DUP6 DUP6 DUP6 DUP6 DUP6 PUSH2 0x2430 JUMP JUMPDEST POP POP POP POP POP JUMP JUMPDEST PUSH1 0x0 PUSH2 0x686 DUP5 DUP5 DUP5 PUSH2 0x24F2 JUMP JUMPDEST PUSH1 0x4 PUSH1 0x20 MSTORE PUSH1 0x0 SWAP1 DUP2 MSTORE PUSH1 0x40 SWAP1 KECCAK256 SLOAD DUP2 JUMP JUMPDEST PUSH2 0x6CB PUSH2 0x3CCE JUMP JUMPDEST PUSH1 0x0 SLOAD PUSH1 0xFF AND ISZERO PUSH2 0x711 JUMPI PUSH1 0x40 MLOAD PUSH32 0x8C379A000000000000000000000000000000000000000000000000000000000 DUP2 MSTORE PUSH1 0x4 ADD PUSH2 0x708 SWAP1 PUSH2 0x51DB JUMP JUMPDEST PUSH1 0x40 MLOAD DUP1 SWAP2 SUB SWAP1 REVERT JUMPDEST PUSH1 0x0 DUP1 SLOAD PUSH32 0xFFFFFFFFFFFFFFFFFFFFFFFFFFFFFFFFFFFFFFFFFFFFFFFFFFFFFFFFFFFFFF00 AND PUSH1 0x1 OR DUP2 SSTORE DUP5 MLOAD SWAP1 JUMPDEST DUP2 DUP2 EQ PUSH2 0x7A8 JUMPI PUSH2 0x74F PUSH2 0x3CCE JUMP JUMPDEST PUSH2 0x793 DUP8 DUP4 DUP2 MLOAD DUP2 LT PUSH2 0x75E JUMPI INVALID JUMPDEST PUSH1 0x20 MUL PUSH1 0x20 ADD ADD MLOAD DUP8 DUP5 DUP2 MLOAD DUP2 LT PUSH2 0x772 JUMPI INVALID JUMPDEST PUSH1 0x20 MUL PUSH1 0x20 ADD ADD MLOAD DUP8 DUP6 DUP2 MLOAD DUP2 LT PUSH2 0x786 JUMPI INVALID JUMPDEST PUSH1 0x20 MUL PUSH1 0x20 ADD ADD MLOAD PUSH2 0x2553 JUMP JUMPDEST SWAP1 POP PUSH2 0x79F DUP5 DUP3 PUSH2 0x25F2 JUMP JUMPDEST POP PUSH1 0x1 ADD PUSH2 0x740 JUMP JUMPDEST POP POP PUSH1 0x0 DUP1 SLOAD PUSH32 0xFFFFFFFFFFFFFFFFFFFFFFFFFFFFFFFFFFFFFFFFFFFFFFFFFFFFFFFFFFFFFF00 AND SWAP1 SSTORE SWAP4 SWAP3 POP POP POP JUMP JUMPDEST PUSH1 0x5 PUSH1 0x20 MSTORE PUSH1 0x0 SWAP1 DUP2 MSTORE PUSH1 0x40 SWAP1 KECCAK256 SLOAD PUSH1 0xFF AND DUP2 JUMP JUMPDEST PUSH20 0xFFFFFFFFFFFFFFFFFFFFFFFFFFFFFFFFFFFFFFFF DUP4 AND CALLER EQ PUSH2 0x882 JUMPI PUSH2 0x84C DUP5 DUP5 DUP5 DUP5 DUP1 DUP1 PUSH1 0x1F ADD PUSH1 0x20 DUP1 SWAP2 DIV MUL PUSH1 0x20 ADD PUSH1 0x40 MLOAD SWAP1 DUP2 ADD PUSH1 0x40 MSTORE DUP1 SWAP4 SWAP3 SWAP2 SWAP1 DUP2 DUP2 MSTORE PUSH1 0x20 ADD DUP4 DUP4 DUP1 DUP3 DUP5 CALLDATACOPY PUSH1 0x0 SWAP3 ADD SWAP2 SWAP1 SWAP2 MSTORE POP PUSH2 0x1366 SWAP3 POP POP POP JUMP JUMPDEST PUSH2 0x882 JUMPI PUSH1 0x40 MLOAD PUSH32 0x8C379A000000000000000000000000000000000000000000000000000000000 DUP2 MSTORE PUSH1 0x4 ADD PUSH2 0x708 SWAP1 PUSH2 0x4EEA JUMP JUMPDEST POP POP PUSH1 0x0 SWAP2 DUP3 MSTORE PUSH1 0x7 PUSH1 0x20 SWAP1 DUP2 MSTORE PUSH1 0x40 DUP1 DUP5 KECCAK256 PUSH20 0xFFFFFFFFFFFFFFFFFFFFFFFFFFFFFFFFFFFFFFFF SWAP1 SWAP4 AND DUP5 MSTORE SWAP2 SWAP1 MSTORE SWAP1 KECCAK256 DUP1 SLOAD PUSH32 0xFFFFFFFFFFFFFFFFFFFFFFFFFFFFFFFFFFFFFFFFFFFFFFFFFFFFFFFFFFFFFF00 AND PUSH1 0x1 OR SWAP1 SSTORE JUMP JUMPDEST PUSH2 0x8E7 PUSH2 0x3CF6 JUMP JUMPDEST PUSH1 0x0 SLOAD PUSH1 0xFF AND ISZERO PUSH2 0x924 JUMPI PUSH1 0x40 MLOAD PUSH32 0x8C379A000000000000000000000000000000000000000000000000000000000 DUP2 MSTORE PUSH1 0x4 ADD PUSH2 0x708 SWAP1 PUSH2 0x51DB JUMP JUMPDEST PUSH1 0x0 DUP1 SLOAD PUSH32 0xFFFFFFFFFFFFFFFFFFFFFFFFFFFFFFFFFFFFFFFFFFFFFFFFFFFFFFFFFFFFFF00 AND PUSH1 0x1 OR SWAP1 SSTORE PUSH2 0x160 DUP1 DUP7 ADD MLOAD PUSH2 0x140 DUP1 DUP8 ADD SWAP2 SWAP1 SWAP2 MSTORE DUP7 ADD MLOAD SWAP1 DUP6 ADD MSTORE PUSH2 0x96F PUSH2 0x3D24 JUMP JUMPDEST PUSH2 0x978 DUP7 PUSH2 0x1E31 JUMP JUMPDEST SWAP1 POP PUSH2 0x982 PUSH2 0x3D24 JUMP JUMPDEST PUSH2 0x98B DUP7 PUSH2 0x1E31 JUMP JUMPDEST SWAP1 POP PUSH1 0x0 PUSH2 0x997 PUSH2 0x2654 JUMP JUMPDEST SWAP1 POP PUSH2 0x9A5 DUP9 DUP5 DUP4 DUP10 PUSH2 0x2686 JUMP JUMPDEST PUSH2 0x9B1 DUP8 DUP4 DUP4 DUP9 PUSH2 0x2686 JUMP JUMPDEST PUSH2 0x9BB DUP9 DUP9 PUSH2 0x2818 JUMP JUMPDEST PUSH2 0x9CF DUP9 DUP9 DUP6 PUSH1 0x40 ADD MLOAD DUP6 PUSH1 0x40 ADD MLOAD PUSH2 0x2878 JUMP JUMPDEST DUP1 MLOAD PUSH1 0x20 DUP2 ADD MLOAD SWAP1 MLOAD SWAP2 SWAP6 POP PUSH2 0x9EA SWAP2 DUP11 SWAP2 DUP7 SWAP2 DUP2 SWAP1 PUSH2 0x2A01 JUMP JUMPDEST PUSH1 0x20 DUP1 DUP6 ADD MLOAD SWAP1 DUP2 ADD MLOAD SWAP1 MLOAD PUSH2 0xA06 SWAP2 DUP10 SWAP2 DUP6 SWAP2 SWAP1 DUP2 SWAP1 PUSH2 0x2A01 JUMP JUMPDEST PUSH2 0xA1F DUP9 DUP3 DUP6 PUSH1 0x20 ADD MLOAD DUP7 PUSH1 0x40 ADD MLOAD DUP9 PUSH1 0x0 ADD MLOAD PUSH2 0x2430 JUMP JUMPDEST PUSH2 0xA38 DUP8 DUP3 DUP5 PUSH1 0x20 ADD MLOAD DUP6 PUSH1 0x40 ADD MLOAD DUP9 PUSH1 0x20 ADD MLOAD PUSH2 0x2430 JUMP JUMPDEST PUSH2 0xA44 DUP9 DUP9 DUP4 DUP8 PUSH2 0x2B11 JUMP JUMPDEST POP POP POP PUSH1 0x0 DUP1 SLOAD PUSH32 0xFFFFFFFFFFFFFFFFFFFFFFFFFFFFFFFFFFFFFFFFFFFFFFFFFFFFFFFFFFFFFF00 AND SWAP1 SSTORE SWAP5 SWAP4 POP POP POP POP JUMP JUMPDEST PUSH2 0xA7F PUSH2 0x3CCE JUMP JUMPDEST PUSH1 0x60 PUSH2 0xA8C DUP6 DUP6 DUP6 PUSH2 0x2CE9 JUMP JUMPDEST SWAP1 POP PUSH1 0x80 DUP2 DUP3 MLOAD PUSH1 0x20 DUP5 ADD ADDRESS GAS DELEGATECALL DUP1 ISZERO PUSH2 0xAC3 JUMPI DUP2 MLOAD DUP4 MSTORE PUSH1 0x20 DUP3 ADD MLOAD PUSH1 0x20 DUP5 ADD MSTORE PUSH1 0x40 DUP3 ADD MLOAD PUSH1 0x40 DUP5 ADD MSTORE PUSH1 0x60 DUP3 ADD MLOAD PUSH1 0x60 DUP5 ADD MSTORE JUMPDEST POP POP SWAP4 SWAP3 POP POP POP JUMP JUMPDEST PUSH1 0xB PUSH1 0x20 MSTORE PUSH1 0x0 SWAP1 DUP2 MSTORE PUSH1 0x40 SWAP1 KECCAK256 SLOAD PUSH20 0xFFFFFFFFFFFFFFFFFFFFFFFFFFFFFFFFFFFFFFFF AND DUP2 JUMP JUMPDEST PUSH1 0x0 SLOAD PUSH1 0xFF AND ISZERO PUSH2 0xB31 JUMPI PUSH1 0x40 MLOAD PUSH32 0x8C379A000000000000000000000000000000000000000000000000000000000 DUP2 MSTORE PUSH1 0x4 ADD PUSH2 0x708 SWAP1 PUSH2 0x51DB JUMP JUMPDEST PUSH1 0x0 DUP1 SLOAD PUSH32 0xFFFFFFFFFFFFFFFFFFFFFFFFFFFFFFFFFFFFFFFFFFFFFFFFFFFFFFFFFFFFFF00 AND PUSH1 0x1 OR DUP2 SSTORE DUP2 MLOAD SWAP1 JUMPDEST DUP2 DUP2 EQ PUSH2 0xB8B JUMPI PUSH2 0xB83 DUP4 DUP3 DUP2 MLOAD DUP2 LT PUSH2 0xB76 JUMPI INVALID JUMPDEST PUSH1 0x20 MUL PUSH1 0x20 ADD ADD MLOAD PUSH2 0x2EBE JUMP JUMPDEST PUSH1 0x1 ADD PUSH2 0xB60 JUMP JUMPDEST POP POP PUSH1 0x0 DUP1 SLOAD PUSH32 0xFFFFFFFFFFFFFFFFFFFFFFFFFFFFFFFFFFFFFFFFFFFFFFFFFFFFFFFFFFFFFF00 AND SWAP1 SSTORE POP JUMP JUMPDEST PUSH2 0xBC0 PUSH2 0x3CCE JUMP JUMPDEST PUSH1 0x0 SLOAD PUSH1 0xFF AND ISZERO PUSH2 0xBFD JUMPI PUSH1 0x40 MLOAD PUSH32 0x8C379A000000000000000000000000000000000000000000000000000000000 DUP2 MSTORE PUSH1 0x4 ADD PUSH2 0x708 SWAP1 PUSH2 0x51DB JUMP JUMPDEST PUSH1 0x0 DUP1 SLOAD PUSH32 0xFFFFFFFFFFFFFFFFFFFFFFFFFFFFFFFFFFFFFFFFFFFFFFFFFFFFFFFFFFFFFF00 AND PUSH1 0x1 OR DUP2 SSTORE DUP5 MLOAD SWAP1 JUMPDEST DUP2 DUP2 EQ PUSH2 0x7A8 JUMPI PUSH2 0xC3B PUSH2 0x3CCE JUMP JUMPDEST PUSH2 0xC7F DUP8 DUP4 DUP2 MLOAD DUP2 LT PUSH2 0xC4A JUMPI INVALID JUMPDEST PUSH1 0x20 MUL PUSH1 0x20 ADD ADD MLOAD DUP8 DUP5 DUP2 MLOAD DUP2 LT PUSH2 0xC5E JUMPI INVALID JUMPDEST PUSH1 0x20 MUL PUSH1 0x20 ADD ADD MLOAD DUP8 DUP6 DUP2 MLOAD DUP2 LT PUSH2 0xC72 JUMPI INVALID JUMPDEST PUSH1 0x20 MUL PUSH1 0x20 ADD ADD MLOAD PUSH2 0x2EE9 JUMP JUMPDEST SWAP1 POP PUSH2 0xC8B DUP5 DUP3 PUSH2 0x25F2 JUMP JUMPDEST POP PUSH1 0x1 ADD PUSH2 0xC2C JUMP JUMPDEST PUSH1 0x0 SLOAD PUSH1 0xFF AND ISZERO PUSH2 0xCD1 JUMPI PUSH1 0x40 MLOAD PUSH32 0x8C379A000000000000000000000000000000000000000000000000000000000 DUP2 MSTORE PUSH1 0x4 ADD PUSH2 0x708 SWAP1 PUSH2 0x51DB JUMP JUMPDEST PUSH1 0x0 DUP1 SLOAD PUSH32 0xFFFFFFFFFFFFFFFFFFFFFFFFFFFFFFFFFFFFFFFFFFFFFFFFFFFFFFFFFFFFFF00 AND PUSH1 0x1 OR DUP2 SSTORE PUSH2 0xD04 PUSH2 0x2654 JUMP JUMPDEST SWAP1 POP PUSH1 0x0 PUSH20 0xFFFFFFFFFFFFFFFFFFFFFFFFFFFFFFFFFFFFFFFF DUP3 AND CALLER EQ PUSH2 0xD2B JUMPI CALLER PUSH2 0xD2E JUMP JUMPDEST PUSH1 0x0 JUMPDEST PUSH20 0xFFFFFFFFFFFFFFFFFFFFFFFFFFFFFFFFFFFFFFFF DUP1 DUP5 AND PUSH1 0x0 SWAP1 DUP2 MSTORE PUSH1 0x6 PUSH1 0x20 SWAP1 DUP2 MSTORE PUSH1 0x40 DUP1 DUP4 KECCAK256 SWAP4 DUP6 AND DUP4 MSTORE SWAP3 SWAP1 MSTORE KECCAK256 SLOAD SWAP1 SWAP2 POP PUSH1 0x1 DUP5 ADD SWAP1 DUP1 DUP3 GT PUSH2 0xDA2 JUMPI PUSH1 0x40 MLOAD PUSH32 0x8C379A000000000000000000000000000000000000000000000000000000000 DUP2 MSTORE PUSH1 0x4 ADD PUSH2 0x708 SWAP1 PUSH2 0x50FF JUMP JUMPDEST PUSH20 0xFFFFFFFFFFFFFFFFFFFFFFFFFFFFFFFFFFFFFFFF DUP1 DUP6 AND PUSH1 0x0 DUP2 DUP2 MSTORE PUSH1 0x6 PUSH1 0x20 SWAP1 DUP2 MSTORE PUSH1 0x40 DUP1 DUP4 KECCAK256 SWAP5 DUP9 AND DUP1 DUP5 MSTORE SWAP5 SWAP1 SWAP2 MSTORE SWAP1 DUP2 SWAP1 KECCAK256 DUP6 SWAP1 SSTORE MLOAD PUSH32 0x82AF639571738F4EBD4268FB0363D8957EBE1BBB9E78DBA5EBD69EED39B154F0 SWAP1 PUSH2 0xE0A SWAP1 DUP7 SWAP1 PUSH2 0x4B57 JUMP JUMPDEST PUSH1 0x40 MLOAD DUP1 SWAP2 SUB SWAP1 LOG3 POP POP PUSH1 0x0 DUP1 SLOAD PUSH32 0xFFFFFFFFFFFFFFFFFFFFFFFFFFFFFFFFFFFFFFFFFFFFFFFFFFFFFFFFFFFFFF00 AND SWAP1 SSTORE POP POP POP JUMP JUMPDEST PUSH2 0xE49 PUSH2 0x3CCE JUMP JUMPDEST DUP4 MLOAD PUSH1 0x0 JUMPDEST DUP2 DUP2 EQ PUSH2 0xAC3 JUMPI PUSH2 0xE5D PUSH2 0x3CCE JUMP JUMPDEST PUSH2 0xEA1 DUP8 DUP4 DUP2 MLOAD DUP2 LT PUSH2 0xE6C JUMPI INVALID JUMPDEST PUSH1 0x20 MUL PUSH1 0x20 ADD ADD MLOAD DUP8 DUP5 DUP2 MLOAD DUP2 LT PUSH2 0xE80 JUMPI INVALID JUMPDEST PUSH1 0x20 MUL PUSH1 0x20 ADD ADD MLOAD DUP8 DUP6 DUP2 MLOAD DUP2 LT PUSH2 0xE94 JUMPI INVALID JUMPDEST PUSH1 0x20 MUL PUSH1 0x20 ADD ADD MLOAD PUSH2 0xA77 JUMP JUMPDEST SWAP1 POP PUSH2 0xEAD DUP5 DUP3 PUSH2 0x25F2 JUMP JUMPDEST POP PUSH1 0x1 ADD PUSH2 0xE4E JUMP JUMPDEST PUSH32 0xFFFFFFFF00000000000000000000000000000000000000000000000000000000 DUP2 AND PUSH1 0x0 SWAP1 DUP2 MSTORE PUSH1 0xB PUSH1 0x20 MSTORE PUSH1 0x40 SWAP1 KECCAK256 SLOAD PUSH20 0xFFFFFFFFFFFFFFFFFFFFFFFFFFFFFFFFFFFFFFFF AND JUMPDEST SWAP2 SWAP1 POP JUMP JUMPDEST PUSH1 0x9 PUSH1 0x20 MSTORE PUSH1 0x0 SWAP1 DUP2 MSTORE PUSH1 0x40 SWAP1 KECCAK256 SLOAD PUSH1 0xFF AND DUP2 JUMP JUMPDEST PUSH2 0xF21 PUSH2 0x3CCE JUMP JUMPDEST PUSH1 0x0 SLOAD PUSH1 0xFF AND ISZERO PUSH2 0xF5E JUMPI PUSH1 0x40 MLOAD PUSH32 0x8C379A000000000000000000000000000000000000000000000000000000000 DUP2 MSTORE PUSH1 0x4 ADD PUSH2 0x708 SWAP1 PUSH2 0x51DB JUMP JUMPDEST PUSH1 0x0 DUP1 SLOAD PUSH32 0xFFFFFFFFFFFFFFFFFFFFFFFFFFFFFFFFFFFFFFFFFFFFFFFFFFFFFFFFFFFFFF00 AND PUSH1 0x1 OR SWAP1 SSTORE PUSH2 0xF94 DUP5 DUP5 DUP5 PUSH2 0x2EE9 JUMP JUMPDEST PUSH1 0x0 DUP1 SLOAD PUSH32 0xFFFFFFFFFFFFFFFFFFFFFFFFFFFFFFFFFFFFFFFFFFFFFFFFFFFFFFFFFFFFFF00 AND SWAP1 SSTORE SWAP5 SWAP4 POP POP POP POP JUMP JUMPDEST PUSH2 0xFCC PUSH2 0x3CCE JUMP JUMPDEST PUSH2 0xFD6 DUP4 DUP4 PUSH2 0x25F2 JUMP JUMPDEST POP DUP2 JUMPDEST SWAP3 SWAP2 POP POP JUMP JUMPDEST PUSH1 0x0 PUSH2 0x686 DUP5 DUP5 DUP5 PUSH2 0x2F3B JUMP JUMPDEST PUSH1 0x0 SLOAD PUSH1 0xFF AND ISZERO PUSH2 0x1029 JUMPI PUSH1 0x40 MLOAD PUSH32 0x8C379A000000000000000000000000000000000000000000000000000000000 DUP2 MSTORE PUSH1 0x4 ADD PUSH2 0x708 SWAP1 PUSH2 0x51DB JUMP JUMPDEST PUSH1 0x0 DUP1 SLOAD PUSH32 0xFFFFFFFFFFFFFFFFFFFFFFFFFFFFFFFFFFFFFFFFFFFFFFFFFFFFFFFFFFFFFF00 AND PUSH1 0x1 OR DUP2 SSTORE PUSH2 0x105C PUSH2 0x2654 JUMP JUMPDEST PUSH20 0xFFFFFFFFFFFFFFFFFFFFFFFFFFFFFFFFFFFFFFFF DUP2 DUP2 AND PUSH1 0x0 DUP2 DUP2 MSTORE PUSH1 0x8 PUSH1 0x20 SWAP1 DUP2 MSTORE PUSH1 0x40 DUP1 DUP4 KECCAK256 SWAP5 DUP10 AND DUP1 DUP5 MSTORE SWAP5 SWAP1 SWAP2 MSTORE SWAP1 DUP2 SWAP1 KECCAK256 DUP1 SLOAD PUSH32 0xFFFFFFFFFFFFFFFFFFFFFFFFFFFFFFFFFFFFFFFFFFFFFFFFFFFFFFFFFFFFFF00 AND DUP8 ISZERO ISZERO OR SWAP1 SSTORE MLOAD SWAP3 SWAP4 POP SWAP1 SWAP2 PUSH32 0xA8656E308026EEABCE8F0BC18048433252318AB80AC79DA0B3D3D8697DFBA891 SWAP1 PUSH2 0x10F0 SWAP1 DUP7 SWAP1 PUSH2 0x4B4C JUMP JUMPDEST PUSH1 0x40 MLOAD DUP1 SWAP2 SUB SWAP1 LOG3 POP POP PUSH1 0x0 DUP1 SLOAD PUSH32 0xFFFFFFFFFFFFFFFFFFFFFFFFFFFFFFFFFFFFFFFFFFFFFFFFFFFFFFFFFFFFFF00 AND SWAP1 SSTORE POP JUMP JUMPDEST PUSH1 0x8 PUSH1 0x20 SWAP1 DUP2 MSTORE PUSH1 0x0 SWAP3 DUP4 MSTORE PUSH1 0x40 DUP1 DUP5 KECCAK256 SWAP1 SWAP2 MSTORE SWAP1 DUP3 MSTORE SWAP1 KECCAK256 SLOAD PUSH1 0xFF AND DUP2 JUMP JUMPDEST PUSH2 0x114D PUSH2 0x3CCE JUMP JUMPDEST PUSH1 0x0 SLOAD PUSH1 0xFF AND ISZERO PUSH2 0x118A JUMPI PUSH1 0x40 MLOAD PUSH32 0x8C379A000000000000000000000000000000000000000000000000000000000 DUP2 MSTORE PUSH1 0x4 ADD PUSH2 0x708 SWAP1 PUSH2 0x51DB JUMP JUMPDEST PUSH1 0x0 DUP1 SLOAD PUSH32 0xFFFFFFFFFFFFFFFFFFFFFFFFFFFFFFFFFFFFFFFFFFFFFFFFFFFFFFFFFFFFFF00 AND PUSH1 0x1 OR DUP2 SSTORE DUP5 MLOAD PUSH1 0x60 SWAP2 DUP7 SWAP2 PUSH2 0x11C2 JUMPI INVALID JUMPDEST PUSH1 0x20 SWAP1 DUP2 MUL SWAP2 SWAP1 SWAP2 ADD ADD MLOAD PUSH2 0x160 ADD MLOAD DUP6 MLOAD SWAP1 SWAP2 POP PUSH1 0x0 JUMPDEST DUP2 DUP2 EQ PUSH2 0x1264 JUMPI DUP3 DUP8 DUP3 DUP2 MLOAD DUP2 LT PUSH2 0x11EE JUMPI INVALID JUMPDEST PUSH1 0x20 MUL PUSH1 0x20 ADD ADD MLOAD PUSH2 0x160 ADD DUP2 SWAP1 MSTORE POP PUSH1 0x0 PUSH2 0x120E DUP8 DUP7 PUSH1 0x20 ADD MLOAD PUSH2 0x2FBC JUMP JUMPDEST SWAP1 POP PUSH2 0x1218 PUSH2 0x3CCE JUMP JUMPDEST PUSH2 0x123C DUP10 DUP5 DUP2 MLOAD DUP2 LT PUSH2 0x1227 JUMPI INVALID JUMPDEST PUSH1 0x20 MUL PUSH1 0x20 ADD ADD MLOAD DUP4 DUP10 DUP7 DUP2 MLOAD DUP2 LT PUSH2 0x786 JUMPI INVALID JUMPDEST SWAP1 POP PUSH2 0x1248 DUP7 DUP3 PUSH2 0x25F2 JUMP JUMPDEST DUP8 DUP7 PUSH1 0x20 ADD MLOAD LT PUSH2 0x125A JUMPI POP POP PUSH2 0x1264 JUMP JUMPDEST POP POP PUSH1 0x1 ADD PUSH2 0x11DA JUMP JUMPDEST POP POP POP PUSH1 0x0 DUP1 SLOAD PUSH32 0xFFFFFFFFFFFFFFFFFFFFFFFFFFFFFFFFFFFFFFFFFFFFFFFFFFFFFFFFFFFFFF00 AND SWAP1 SSTORE SWAP4 SWAP3 POP POP POP JUMP JUMPDEST PUSH1 0x60 PUSH1 0x0 DUP3 MLOAD SWAP1 POP PUSH1 0x60 DUP2 PUSH1 0x40 MLOAD SWAP1 DUP1 DUP3 MSTORE DUP1 PUSH1 0x20 MUL PUSH1 0x20 ADD DUP3 ADD PUSH1 0x40 MSTORE DUP1 ISZERO PUSH2 0x12DA JUMPI DUP2 PUSH1 0x20 ADD JUMPDEST PUSH2 0x12C7 PUSH2 0x3D24 JUMP JUMPDEST DUP2 MSTORE PUSH1 0x20 ADD SWAP1 PUSH1 0x1 SWAP1 SUB SWAP1 DUP2 PUSH2 0x12BF JUMPI SWAP1 POP JUMPDEST POP SWAP1 POP PUSH1 0x0 JUMPDEST DUP3 DUP2 EQ PUSH2 0x1322 JUMPI PUSH2 0x1303 DUP6 DUP3 DUP2 MLOAD DUP2 LT PUSH2 0x12F6 JUMPI INVALID JUMPDEST PUSH1 0x20 MUL PUSH1 0x20 ADD ADD MLOAD PUSH2 0x1E31 JUMP JUMPDEST DUP3 DUP3 DUP2 MLOAD DUP2 LT PUSH2 0x130F JUMPI INVALID JUMPDEST PUSH1 0x20 SWAP1 DUP2 MUL SWAP2 SWAP1 SWAP2 ADD ADD MSTORE PUSH1 0x1 ADD PUSH2 0x12E0 JUMP JUMPDEST POP SWAP4 SWAP3 POP POP POP JUMP JUMPDEST PUSH1 0x7 PUSH1 0x20 SWAP1 DUP2 MSTORE PUSH1 0x0 SWAP3 DUP4 MSTORE PUSH1 0x40 DUP1 DUP5 KECCAK256 SWAP1 SWAP2 MSTORE SWAP1 DUP3 MSTORE SWAP1 KECCAK256 SLOAD PUSH1 0xFF AND DUP2 JUMP JUMPDEST PUSH1 0x3 SLOAD PUSH20 0xFFFFFFFFFFFFFFFFFFFFFFFFFFFFFFFFFFFFFFFF AND DUP2 JUMP JUMPDEST PUSH1 0x0 DUP1 DUP3 MLOAD GT PUSH2 0x13A2 JUMPI PUSH1 0x40 MLOAD PUSH32 0x8C379A000000000000000000000000000000000000000000000000000000000 DUP2 MSTORE PUSH1 0x4 ADD PUSH2 0x708 SWAP1 PUSH2 0x50C8 JUMP JUMPDEST PUSH1 0x0 PUSH2 0x13AD DUP4 PUSH2 0x2FFE JUMP JUMPDEST PUSH1 0xF8 SHR SWAP1 POP PUSH1 0x7 DUP2 LT PUSH2 0x13EC JUMPI PUSH1 0x40 MLOAD PUSH32 0x8C379A000000000000000000000000000000000000000000000000000000000 DUP2 MSTORE PUSH1 0x4 ADD PUSH2 0x708 SWAP1 PUSH2 0x4DA0 JUMP JUMPDEST PUSH1 0x0 DUP2 PUSH1 0xFF AND PUSH1 0x7 DUP2 GT ISZERO PUSH2 0x13FD JUMPI INVALID JUMPDEST SWAP1 POP PUSH1 0x0 DUP1 DUP1 DUP1 DUP1 DUP6 PUSH1 0x7 DUP2 GT ISZERO PUSH2 0x1411 JUMPI INVALID JUMPDEST EQ ISZERO PUSH2 0x1449 JUMPI PUSH1 0x40 MLOAD PUSH32 0x8C379A000000000000000000000000000000000000000000000000000000000 DUP2 MSTORE PUSH1 0x4 ADD PUSH2 0x708 SWAP1 PUSH2 0x5091 JUMP JUMPDEST PUSH1 0x1 DUP6 PUSH1 0x7 DUP2 GT ISZERO PUSH2 0x1457 JUMPI INVALID JUMPDEST EQ ISZERO PUSH2 0x14A6 JUMPI DUP8 MLOAD ISZERO PUSH2 0x1496 JUMPI PUSH1 0x40 MLOAD PUSH32 0x8C379A000000000000000000000000000000000000000000000000000000000 DUP2 MSTORE PUSH1 0x4 ADD PUSH2 0x708 SWAP1 PUSH2 0x5382 JUMP JUMPDEST POP PUSH1 0x0 SWAP6 POP PUSH2 0x689 SWAP5 POP POP POP POP POP JUMP JUMPDEST PUSH1 0x2 DUP6 PUSH1 0x7 DUP2 GT ISZERO PUSH2 0x14B4 JUMPI INVALID JUMPDEST EQ ISZERO PUSH2 0x15C9 JUMPI DUP8 MLOAD PUSH1 0x41 EQ PUSH2 0x14F5 JUMPI PUSH1 0x40 MLOAD PUSH32 0x8C379A000000000000000000000000000000000000000000000000000000000 DUP2 MSTORE PUSH1 0x4 ADD PUSH2 0x708 SWAP1 PUSH2 0x4C30 JUMP JUMPDEST DUP8 PUSH1 0x0 DUP2 MLOAD DUP2 LT PUSH2 0x1502 JUMPI INVALID JUMPDEST ADD PUSH1 0x20 ADD MLOAD PUSH1 0xF8 SHR SWAP4 POP PUSH2 0x151D DUP9 PUSH1 0x1 PUSH4 0xFFFFFFFF PUSH2 0x309C AND JUMP JUMPDEST SWAP3 POP PUSH2 0x1530 DUP9 PUSH1 0x21 PUSH4 0xFFFFFFFF PUSH2 0x309C AND JUMP JUMPDEST SWAP2 POP PUSH1 0x1 DUP11 DUP6 DUP6 DUP6 PUSH1 0x40 MLOAD PUSH1 0x0 DUP2 MSTORE PUSH1 0x20 ADD PUSH1 0x40 MSTORE PUSH1 0x40 MLOAD PUSH2 0x1555 SWAP5 SWAP4 SWAP3 SWAP2 SWAP1 PUSH2 0x4BB7 JUMP JUMPDEST PUSH1 0x20 PUSH1 0x40 MLOAD PUSH1 0x20 DUP2 SUB SWAP1 DUP1 DUP5 SUB SWAP1 DUP6 GAS STATICCALL ISZERO DUP1 ISZERO PUSH2 0x1577 JUMPI RETURNDATASIZE PUSH1 0x0 DUP1 RETURNDATACOPY RETURNDATASIZE PUSH1 0x0 REVERT JUMPDEST POP POP PUSH1 0x40 MLOAD PUSH32 0xFFFFFFFFFFFFFFFFFFFFFFFFFFFFFFFFFFFFFFFFFFFFFFFFFFFFFFFFFFFFFFE0 ADD MLOAD PUSH20 0xFFFFFFFFFFFFFFFFFFFFFFFFFFFFFFFFFFFFFFFF DUP12 DUP2 AND SWAP2 AND EQ SWAP8 POP PUSH2 0x689 SWAP7 POP POP POP POP POP POP POP JUMP JUMPDEST PUSH1 0x3 DUP6 PUSH1 0x7 DUP2 GT ISZERO PUSH2 0x15D7 JUMPI INVALID JUMPDEST EQ ISZERO PUSH2 0x169E JUMPI DUP8 MLOAD PUSH1 0x41 EQ PUSH2 0x1618 JUMPI PUSH1 0x40 MLOAD PUSH32 0x8C379A000000000000000000000000000000000000000000000000000000000 DUP2 MSTORE PUSH1 0x4 ADD PUSH2 0x708 SWAP1 PUSH2 0x4C30 JUMP JUMPDEST DUP8 PUSH1 0x0 DUP2 MLOAD DUP2 LT PUSH2 0x1625 JUMPI INVALID JUMPDEST ADD PUSH1 0x20 ADD MLOAD PUSH1 0xF8 SHR SWAP4 POP PUSH2 0x1640 DUP9 PUSH1 0x1 PUSH4 0xFFFFFFFF PUSH2 0x309C AND JUMP JUMPDEST SWAP3 POP PUSH2 0x1653 DUP9 PUSH1 0x21 PUSH4 0xFFFFFFFF PUSH2 0x309C AND JUMP JUMPDEST SWAP2 POP PUSH1 0x1 DUP11 PUSH1 0x40 MLOAD PUSH1 0x20 ADD PUSH2 0x1668 SWAP2 SWAP1 PUSH2 0x476F JUMP JUMPDEST PUSH1 0x40 MLOAD PUSH1 0x20 DUP2 DUP4 SUB SUB DUP2 MSTORE SWAP1 PUSH1 0x40 MSTORE DUP1 MLOAD SWAP1 PUSH1 0x20 ADD KECCAK256 DUP6 DUP6 DUP6 PUSH1 0x40 MLOAD PUSH1 0x0 DUP2 MSTORE PUSH1 0x20 ADD PUSH1 0x40 MSTORE PUSH1 0x40 MLOAD PUSH2 0x1555 SWAP5 SWAP4 SWAP3 SWAP2 SWAP1 PUSH2 0x4BB7 JUMP JUMPDEST PUSH1 0x4 DUP6 PUSH1 0x7 DUP2 GT ISZERO PUSH2 0x16AC JUMPI INVALID JUMPDEST EQ ISZERO PUSH2 0x16CB JUMPI PUSH2 0x16BD DUP11 DUP11 DUP11 PUSH2 0x30E5 JUMP JUMPDEST SWAP7 POP PUSH2 0x689 SWAP6 POP POP POP POP POP POP JUMP JUMPDEST PUSH1 0x5 DUP6 PUSH1 0x7 DUP2 GT ISZERO PUSH2 0x16D9 JUMPI INVALID JUMPDEST EQ ISZERO PUSH2 0x1752 JUMPI PUSH1 0x0 PUSH2 0x16EA DUP10 PUSH2 0x323A JUMP JUMPDEST PUSH20 0xFFFFFFFFFFFFFFFFFFFFFFFFFFFFFFFFFFFFFFFF DUP1 DUP13 AND PUSH1 0x0 SWAP1 DUP2 MSTORE PUSH1 0x8 PUSH1 0x20 SWAP1 DUP2 MSTORE PUSH1 0x40 DUP1 DUP4 KECCAK256 SWAP4 DUP6 AND DUP4 MSTORE SWAP3 SWAP1 MSTORE KECCAK256 SLOAD SWAP1 SWAP2 POP PUSH1 0xFF AND PUSH2 0x1737 JUMPI PUSH1 0x0 SWAP8 POP POP POP POP POP POP POP POP PUSH2 0x689 JUMP JUMPDEST PUSH2 0x1743 DUP2 DUP13 DUP13 DUP13 PUSH2 0x32B1 JUMP JUMPDEST SWAP8 POP PUSH2 0x689 SWAP7 POP POP POP POP POP POP POP JUMP JUMPDEST PUSH1 0x6 DUP6 PUSH1 0x7 DUP2 GT ISZERO PUSH2 0x1760 JUMPI INVALID JUMPDEST EQ ISZERO PUSH2 0x17A7 JUMPI POP POP POP PUSH1 0x0 DUP8 DUP2 MSTORE PUSH1 0x7 PUSH1 0x20 SWAP1 DUP2 MSTORE PUSH1 0x40 DUP1 DUP4 KECCAK256 PUSH20 0xFFFFFFFFFFFFFFFFFFFFFFFFFFFFFFFFFFFFFFFF DUP11 AND DUP5 MSTORE SWAP1 SWAP2 MSTORE SWAP1 KECCAK256 SLOAD PUSH1 0xFF AND SWAP4 POP PUSH2 0x689 SWAP3 POP POP POP JUMP JUMPDEST PUSH1 0x40 MLOAD PUSH32 0x8C379A000000000000000000000000000000000000000000000000000000000 DUP2 MSTORE PUSH1 0x4 ADD PUSH2 0x708 SWAP1 PUSH2 0x4DA0 JUMP JUMPDEST PUSH2 0x17E1 PUSH2 0x3CCE JUMP JUMPDEST PUSH1 0x60 DUP5 PUSH1 0x0 DUP2 MLOAD DUP2 LT PUSH2 0x17F0 JUMPI INVALID JUMPDEST PUSH1 0x20 SWAP1 DUP2 MUL SWAP2 SWAP1 SWAP2 ADD ADD MLOAD PUSH2 0x140 ADD MLOAD DUP6 MLOAD SWAP1 SWAP2 POP PUSH1 0x0 JUMPDEST DUP2 DUP2 EQ PUSH2 0x18CE JUMPI DUP3 DUP8 DUP3 DUP2 MLOAD DUP2 LT PUSH2 0x181C JUMPI INVALID JUMPDEST PUSH1 0x20 MUL PUSH1 0x20 ADD ADD MLOAD PUSH2 0x140 ADD DUP2 SWAP1 MSTORE POP PUSH1 0x0 PUSH2 0x183C DUP8 DUP7 PUSH1 0x0 ADD MLOAD PUSH2 0x2FBC JUMP JUMPDEST SWAP1 POP PUSH1 0x0 PUSH2 0x1879 DUP10 DUP5 DUP2 MLOAD DUP2 LT PUSH2 0x184F JUMPI INVALID JUMPDEST PUSH1 0x20 MUL PUSH1 0x20 ADD ADD MLOAD PUSH1 0xA0 ADD MLOAD DUP11 DUP6 DUP2 MLOAD DUP2 LT PUSH2 0x1867 JUMPI INVALID JUMPDEST PUSH1 0x20 MUL PUSH1 0x20 ADD ADD MLOAD PUSH1 0x80 ADD MLOAD DUP5 PUSH2 0x340D JUMP JUMPDEST SWAP1 POP PUSH2 0x1883 PUSH2 0x3CCE JUMP JUMPDEST PUSH2 0x18A7 DUP11 DUP6 DUP2 MLOAD DUP2 LT PUSH2 0x1892 JUMPI INVALID JUMPDEST PUSH1 0x20 MUL PUSH1 0x20 ADD ADD MLOAD DUP4 DUP11 DUP8 DUP2 MLOAD DUP2 LT PUSH2 0xE94 JUMPI INVALID JUMPDEST SWAP1 POP PUSH2 0x18B3 DUP8 DUP3 PUSH2 0x25F2 JUMP JUMPDEST DUP7 MLOAD DUP10 GT PUSH2 0x18C3 JUMPI POP POP POP PUSH2 0x18CE JUMP JUMPDEST POP POP POP PUSH1 0x1 ADD PUSH2 0x1808 JUMP JUMPDEST POP POP POP SWAP4 SWAP3 POP POP POP JUMP JUMPDEST PUSH2 0x18E0 PUSH2 0x3CCE JUMP JUMPDEST PUSH1 0x0 SLOAD PUSH1 0xFF AND ISZERO PUSH2 0x191D JUMPI PUSH1 0x40 MLOAD PUSH32 0x8C379A000000000000000000000000000000000000000000000000000000000 DUP2 MSTORE PUSH1 0x4 ADD PUSH2 0x708 SWAP1 PUSH2 0x51DB JUMP JUMPDEST PUSH1 0x0 DUP1 SLOAD PUSH32 0xFFFFFFFFFFFFFFFFFFFFFFFFFFFFFFFFFFFFFFFFFFFFFFFFFFFFFFFFFFFFFF00 AND PUSH1 0x1 OR SWAP1 SSTORE PUSH2 0xF94 DUP5 DUP5 DUP5 PUSH2 0x2553 JUMP JUMPDEST PUSH1 0x0 PUSH2 0x686 DUP5 DUP5 DUP5 PUSH2 0x340D JUMP JUMPDEST PUSH1 0xA SLOAD PUSH20 0xFFFFFFFFFFFFFFFFFFFFFFFFFFFFFFFFFFFFFFFF AND ISZERO PUSH2 0x19B0 JUMPI PUSH1 0x40 MLOAD PUSH32 0x8C379A000000000000000000000000000000000000000000000000000000000 DUP2 MSTORE PUSH1 0x4 ADD PUSH2 0x708 SWAP1 PUSH2 0x51DB JUMP JUMPDEST PUSH1 0x0 PUSH2 0x19FB PUSH2 0x19F6 DUP9 DUP9 DUP9 DUP9 DUP1 DUP1 PUSH1 0x1F ADD PUSH1 0x20 DUP1 SWAP2 DIV MUL PUSH1 0x20 ADD PUSH1 0x40 MLOAD SWAP1 DUP2 ADD PUSH1 0x40 MSTORE DUP1 SWAP4 SWAP3 SWAP2 SWAP1 DUP2 DUP2 MSTORE PUSH1 0x20 ADD DUP4 DUP4 DUP1 DUP3 DUP5 CALLDATACOPY PUSH1 0x0 SWAP3 ADD SWAP2 SWAP1 SWAP2 MSTORE POP PUSH2 0x3455 SWAP3 POP POP POP JUMP JUMPDEST PUSH2 0x34DD JUMP JUMPDEST PUSH1 0x0 DUP2 DUP2 MSTORE PUSH1 0x9 PUSH1 0x20 MSTORE PUSH1 0x40 SWAP1 KECCAK256 SLOAD SWAP1 SWAP2 POP PUSH1 0xFF AND ISZERO PUSH2 0x1A47 JUMPI PUSH1 0x40 MLOAD PUSH32 0x8C379A000000000000000000000000000000000000000000000000000000000 DUP2 MSTORE PUSH1 0x4 ADD PUSH2 0x708 SWAP1 PUSH2 0x4EB3 JUMP JUMPDEST PUSH20 0xFFFFFFFFFFFFFFFFFFFFFFFFFFFFFFFFFFFFFFFF DUP7 AND CALLER EQ PUSH2 0x1B1C JUMPI PUSH2 0x1AA5 DUP2 DUP8 DUP6 DUP6 DUP1 DUP1 PUSH1 0x1F ADD PUSH1 0x20 DUP1 SWAP2 DIV MUL PUSH1 0x20 ADD PUSH1 0x40 MLOAD SWAP1 DUP2 ADD PUSH1 0x40 MSTORE DUP1 SWAP4 SWAP3 SWAP2 SWAP1 DUP2 DUP2 MSTORE PUSH1 0x20 ADD DUP4 DUP4 DUP1 DUP3 DUP5 CALLDATACOPY PUSH1 0x0 SWAP3 ADD SWAP2 SWAP1 SWAP2 MSTORE POP PUSH2 0x1366 SWAP3 POP POP POP JUMP JUMPDEST PUSH2 0x1ADB JUMPI PUSH1 0x40 MLOAD PUSH32 0x8C379A000000000000000000000000000000000000000000000000000000000 DUP2 MSTORE PUSH1 0x4 ADD PUSH2 0x708 SWAP1 PUSH2 0x534B JUMP JUMPDEST PUSH1 0xA DUP1 SLOAD PUSH32 0xFFFFFFFFFFFFFFFFFFFFFFFF0000000000000000000000000000000000000000 AND PUSH20 0xFFFFFFFFFFFFFFFFFFFFFFFFFFFFFFFFFFFFFFFF DUP9 AND OR SWAP1 SSTORE JUMPDEST PUSH1 0x0 DUP2 DUP2 MSTORE PUSH1 0x9 PUSH1 0x20 MSTORE PUSH1 0x40 DUP1 DUP3 KECCAK256 DUP1 SLOAD PUSH32 0xFFFFFFFFFFFFFFFFFFFFFFFFFFFFFFFFFFFFFFFFFFFFFFFFFFFFFFFFFFFFFF00 AND PUSH1 0x1 OR SWAP1 SSTORE MLOAD ADDRESS SWAP1 PUSH2 0x1B64 SWAP1 DUP9 SWAP1 DUP9 SWAP1 PUSH2 0x4740 JUMP JUMPDEST PUSH1 0x0 PUSH1 0x40 MLOAD DUP1 DUP4 SUB DUP2 DUP6 GAS DELEGATECALL SWAP2 POP POP RETURNDATASIZE DUP1 PUSH1 0x0 DUP2 EQ PUSH2 0x1B9F JUMPI PUSH1 0x40 MLOAD SWAP2 POP PUSH1 0x1F NOT PUSH1 0x3F RETURNDATASIZE ADD AND DUP3 ADD PUSH1 0x40 MSTORE RETURNDATASIZE DUP3 MSTORE RETURNDATASIZE PUSH1 0x0 PUSH1 0x20 DUP5 ADD RETURNDATACOPY PUSH2 0x1BA4 JUMP JUMPDEST PUSH1 0x60 SWAP2 POP JUMPDEST POP POP SWAP1 POP DUP1 PUSH2 0x1BDF JUMPI PUSH1 0x40 MLOAD PUSH32 0x8C379A000000000000000000000000000000000000000000000000000000000 DUP2 MSTORE PUSH1 0x4 ADD PUSH2 0x708 SWAP1 PUSH2 0x4F58 JUMP JUMPDEST PUSH20 0xFFFFFFFFFFFFFFFFFFFFFFFFFFFFFFFFFFFFFFFF DUP8 AND CALLER EQ PUSH2 0x1C25 JUMPI PUSH1 0xA DUP1 SLOAD PUSH32 0xFFFFFFFFFFFFFFFFFFFFFFFF0000000000000000000000000000000000000000 AND SWAP1 SSTORE JUMPDEST POP POP POP POP POP POP POP POP JUMP JUMPDEST PUSH1 0x3 SLOAD PUSH20 0xFFFFFFFFFFFFFFFFFFFFFFFFFFFFFFFFFFFFFFFF AND CALLER EQ PUSH2 0x1C80 JUMPI PUSH1 0x40 MLOAD PUSH32 0x8C379A000000000000000000000000000000000000000000000000000000000 DUP2 MSTORE PUSH1 0x4 ADD PUSH2 0x708 SWAP1 PUSH2 0x5212 JUMP JUMPDEST PUSH1 0x0 DUP2 PUSH20 0xFFFFFFFFFFFFFFFFFFFFFFFFFFFFFFFFFFFFFFFF AND PUSH4 0xAE25532E PUSH1 0x40 MLOAD DUP2 PUSH4 0xFFFFFFFF AND PUSH1 0xE0 SHL DUP2 MSTORE PUSH1 0x4 ADD PUSH1 0x20 PUSH1 0x40 MLOAD DUP1 DUP4 SUB DUP2 DUP7 DUP1 EXTCODESIZE ISZERO DUP1 ISZERO PUSH2 0x1CC8 JUMPI PUSH1 0x0 DUP1 REVERT JUMPDEST POP GAS STATICCALL ISZERO DUP1 ISZERO PUSH2 0x1CDC JUMPI RETURNDATASIZE PUSH1 0x0 DUP1 RETURNDATACOPY RETURNDATASIZE PUSH1 0x0 REVERT JUMPDEST POP POP POP POP PUSH1 0x40 MLOAD RETURNDATASIZE PUSH1 0x1F NOT PUSH1 0x1F DUP3 ADD AND DUP3 ADD DUP1 PUSH1 0x40 MSTORE POP PUSH2 0x1D00 SWAP2 SWAP1 DUP2 ADD SWAP1 PUSH2 0x4340 JUMP JUMPDEST PUSH32 0xFFFFFFFF00000000000000000000000000000000000000000000000000000000 DUP2 AND PUSH1 0x0 SWAP1 DUP2 MSTORE PUSH1 0xB PUSH1 0x20 MSTORE PUSH1 0x40 SWAP1 KECCAK256 SLOAD SWAP1 SWAP2 POP PUSH20 0xFFFFFFFFFFFFFFFFFFFFFFFFFFFFFFFFFFFFFFFF AND DUP1 ISZERO PUSH2 0x1D83 JUMPI PUSH1 0x40 MLOAD PUSH32 0x8C379A000000000000000000000000000000000000000000000000000000000 DUP2 MSTORE PUSH1 0x4 ADD PUSH2 0x708 SWAP1 PUSH2 0x4D0C JUMP JUMPDEST PUSH32 0xFFFFFFFF00000000000000000000000000000000000000000000000000000000 DUP3 AND PUSH1 0x0 SWAP1 DUP2 MSTORE PUSH1 0xB PUSH1 0x20 MSTORE PUSH1 0x40 SWAP1 DUP2 SWAP1 KECCAK256 DUP1 SLOAD PUSH32 0xFFFFFFFFFFFFFFFFFFFFFFFF0000000000000000000000000000000000000000 AND PUSH20 0xFFFFFFFFFFFFFFFFFFFFFFFFFFFFFFFFFFFFFFFF DUP7 AND OR SWAP1 SSTORE MLOAD PUSH32 0xD2C6B762299C609BDB96520B58A49BFB80186934D4F71A86A367571A15C03194 SWAP1 PUSH2 0x1E24 SWAP1 DUP5 SWAP1 DUP7 SWAP1 PUSH2 0x4BD5 JUMP JUMPDEST PUSH1 0x40 MLOAD DUP1 SWAP2 SUB SWAP1 LOG1 POP POP POP JUMP JUMPDEST PUSH2 0x1E39 PUSH2 0x3D24 JUMP JUMPDEST PUSH2 0x1E42 DUP3 PUSH2 0x351A JUMP JUMPDEST PUSH1 0x20 DUP1 DUP4 ADD DUP3 SWAP1 MSTORE PUSH1 0x0 SWAP2 DUP3 MSTORE PUSH1 0x4 SWAP1 MSTORE PUSH1 0x40 SWAP1 DUP2 SWAP1 KECCAK256 SLOAD SWAP1 DUP3 ADD MSTORE PUSH1 0x80 DUP3 ADD MLOAD PUSH2 0x1E74 JUMPI PUSH1 0x1 JUMPDEST PUSH1 0xFF AND DUP2 MSTORE PUSH2 0xEFF JUMP JUMPDEST PUSH1 0xA0 DUP3 ADD MLOAD PUSH2 0x1E84 JUMPI PUSH1 0x2 PUSH2 0x1E6A JUMP JUMPDEST DUP2 PUSH1 0xA0 ADD MLOAD DUP2 PUSH1 0x40 ADD MLOAD LT PUSH2 0x1E9A JUMPI PUSH1 0x5 PUSH2 0x1E6A JUMP JUMPDEST DUP2 PUSH2 0x100 ADD MLOAD TIMESTAMP LT PUSH2 0x1EAD JUMPI PUSH1 0x4 PUSH2 0x1E6A JUMP JUMPDEST PUSH1 0x20 DUP1 DUP3 ADD MLOAD PUSH1 0x0 SWAP1 DUP2 MSTORE PUSH1 0x5 SWAP1 SWAP2 MSTORE PUSH1 0x40 SWAP1 KECCAK256 SLOAD PUSH1 0xFF AND ISZERO PUSH2 0x1ED1 JUMPI PUSH1 0x6 PUSH2 0x1E6A JUMP JUMPDEST PUSH2 0x120 DUP3 ADD MLOAD DUP3 MLOAD PUSH20 0xFFFFFFFFFFFFFFFFFFFFFFFFFFFFFFFFFFFFFFFF SWAP1 DUP2 AND PUSH1 0x0 SWAP1 DUP2 MSTORE PUSH1 0x6 PUSH1 0x20 SWAP1 DUP2 MSTORE PUSH1 0x40 DUP1 DUP4 KECCAK256 PUSH1 0x60 DUP9 ADD MLOAD SWAP1 SWAP5 AND DUP4 MSTORE SWAP3 SWAP1 MSTORE KECCAK256 SLOAD GT ISZERO PUSH2 0x1F1E JUMPI PUSH1 0x6 PUSH2 0x1E6A JUMP JUMPDEST PUSH1 0x3 DUP2 MSTORE SWAP2 SWAP1 POP JUMP JUMPDEST PUSH1 0x0 SLOAD PUSH1 0xFF AND ISZERO PUSH2 0x1F64 JUMPI PUSH1 0x40 MLOAD PUSH32 0x8C379A000000000000000000000000000000000000000000000000000000000 DUP2 MSTORE PUSH1 0x4 ADD PUSH2 0x708 SWAP1 PUSH2 0x51DB JUMP JUMPDEST PUSH1 0x0 DUP1 SLOAD PUSH32 0xFFFFFFFFFFFFFFFFFFFFFFFFFFFFFFFFFFFFFFFFFFFFFFFFFFFFFFFFFFFFFF00 AND PUSH1 0x1 OR SWAP1 SSTORE PUSH2 0x1F98 DUP2 PUSH2 0x2EBE JUMP JUMPDEST POP PUSH1 0x0 DUP1 SLOAD PUSH32 0xFFFFFFFFFFFFFFFFFFFFFFFFFFFFFFFFFFFFFFFFFFFFFFFFFFFFFFFFFFFFFF00 AND SWAP1 SSTORE JUMP JUMPDEST PUSH1 0x6 PUSH1 0x20 SWAP1 DUP2 MSTORE PUSH1 0x0 SWAP3 DUP4 MSTORE PUSH1 0x40 DUP1 DUP5 KECCAK256 SWAP1 SWAP2 MSTORE SWAP1 DUP3 MSTORE SWAP1 KECCAK256 SLOAD DUP2 JUMP JUMPDEST PUSH1 0x1 DUP1 SLOAD PUSH1 0x40 DUP1 MLOAD PUSH1 0x20 PUSH1 0x2 DUP5 DUP7 AND ISZERO PUSH2 0x100 MUL PUSH32 0xFFFFFFFFFFFFFFFFFFFFFFFFFFFFFFFFFFFFFFFFFFFFFFFFFFFFFFFFFFFFFFFF ADD SWAP1 SWAP5 AND SWAP4 SWAP1 SWAP4 DIV PUSH1 0x1F DUP2 ADD DUP5 SWAP1 DIV DUP5 MUL DUP3 ADD DUP5 ADD SWAP1 SWAP3 MSTORE DUP2 DUP2 MSTORE SWAP3 SWAP2 DUP4 ADD DUP3 DUP3 DUP1 ISZERO PUSH2 0x2083 JUMPI DUP1 PUSH1 0x1F LT PUSH2 0x2058 JUMPI PUSH2 0x100 DUP1 DUP4 SLOAD DIV MUL DUP4 MSTORE SWAP2 PUSH1 0x20 ADD SWAP2 PUSH2 0x2083 JUMP JUMPDEST DUP3 ADD SWAP2 SWAP1 PUSH1 0x0 MSTORE PUSH1 0x20 PUSH1 0x0 KECCAK256 SWAP1 JUMPDEST DUP2 SLOAD DUP2 MSTORE SWAP1 PUSH1 0x1 ADD SWAP1 PUSH1 0x20 ADD DUP1 DUP4 GT PUSH2 0x2066 JUMPI DUP3 SWAP1 SUB PUSH1 0x1F AND DUP3 ADD SWAP2 JUMPDEST POP POP POP POP POP DUP2 JUMP JUMPDEST PUSH2 0x2093 PUSH2 0x3CCE JUMP JUMPDEST PUSH1 0x60 DUP5 PUSH1 0x0 DUP2 MLOAD DUP2 LT PUSH2 0x20A2 JUMPI INVALID JUMPDEST PUSH1 0x20 SWAP1 DUP2 MUL SWAP2 SWAP1 SWAP2 ADD ADD MLOAD PUSH2 0x160 ADD MLOAD DUP6 MLOAD SWAP1 SWAP2 POP PUSH1 0x0 JUMPDEST DUP2 DUP2 EQ PUSH2 0x18CE JUMPI DUP3 DUP8 DUP3 DUP2 MLOAD DUP2 LT PUSH2 0x20CE JUMPI INVALID JUMPDEST PUSH1 0x20 MUL PUSH1 0x20 ADD ADD MLOAD PUSH2 0x160 ADD DUP2 SWAP1 MSTORE POP PUSH1 0x0 PUSH2 0x20EE DUP8 DUP7 PUSH1 0x20 ADD MLOAD PUSH2 0x2FBC JUMP JUMPDEST SWAP1 POP PUSH2 0x20F8 PUSH2 0x3CCE JUMP JUMPDEST PUSH2 0x211C DUP10 DUP5 DUP2 MLOAD DUP2 LT PUSH2 0x2107 JUMPI INVALID JUMPDEST PUSH1 0x20 MUL PUSH1 0x20 ADD ADD MLOAD DUP4 DUP10 DUP7 DUP2 MLOAD DUP2 LT PUSH2 0xE94 JUMPI INVALID JUMPDEST SWAP1 POP PUSH2 0x2128 DUP7 DUP3 PUSH2 0x25F2 JUMP JUMPDEST DUP8 DUP7 PUSH1 0x20 ADD MLOAD LT PUSH2 0x213A JUMPI POP POP PUSH2 0x18CE JUMP JUMPDEST POP POP PUSH1 0x1 ADD PUSH2 0x20BA JUMP JUMPDEST PUSH1 0x0 PUSH2 0x686 DUP5 DUP5 DUP5 PUSH2 0x3528 JUMP JUMPDEST PUSH1 0x0 PUSH2 0x686 DUP5 DUP5 DUP5 PUSH2 0x35A5 JUMP JUMPDEST PUSH2 0x2166 PUSH2 0x3CCE JUMP JUMPDEST PUSH2 0x689 DUP4 DUP4 PUSH2 0x3622 JUMP JUMPDEST PUSH1 0x2 SLOAD DUP2 JUMP JUMPDEST PUSH2 0x217E PUSH2 0x3CCE JUMP JUMPDEST PUSH1 0x0 SLOAD PUSH1 0xFF AND ISZERO PUSH2 0x21BB JUMPI PUSH1 0x40 MLOAD PUSH32 0x8C379A000000000000000000000000000000000000000000000000000000000 DUP2 MSTORE PUSH1 0x4 ADD PUSH2 0x708 SWAP1 PUSH2 0x51DB JUMP JUMPDEST PUSH1 0x0 DUP1 SLOAD PUSH32 0xFFFFFFFFFFFFFFFFFFFFFFFFFFFFFFFFFFFFFFFFFFFFFFFFFFFFFFFFFFFFFF00 AND PUSH1 0x1 OR DUP2 SSTORE DUP5 MLOAD PUSH1 0x60 SWAP2 DUP7 SWAP2 PUSH2 0x21F3 JUMPI INVALID JUMPDEST PUSH1 0x20 SWAP1 DUP2 MUL SWAP2 SWAP1 SWAP2 ADD ADD MLOAD PUSH2 0x140 ADD MLOAD DUP6 MLOAD SWAP1 SWAP2 POP PUSH1 0x0 JUMPDEST DUP2 DUP2 EQ PUSH2 0x1264 JUMPI DUP3 DUP8 DUP3 DUP2 MLOAD DUP2 LT PUSH2 0x221F JUMPI INVALID JUMPDEST PUSH1 0x20 MUL PUSH1 0x20 ADD ADD MLOAD PUSH2 0x140 ADD DUP2 SWAP1 MSTORE POP PUSH1 0x0 PUSH2 0x223F DUP8 DUP7 PUSH1 0x0 ADD MLOAD PUSH2 0x2FBC JUMP JUMPDEST SWAP1 POP PUSH1 0x0 PUSH2 0x2252 DUP10 DUP5 DUP2 MLOAD DUP2 LT PUSH2 0x184F JUMPI INVALID JUMPDEST SWAP1 POP PUSH2 0x225C PUSH2 0x3CCE JUMP JUMPDEST PUSH2 0x2280 DUP11 DUP6 DUP2 MLOAD DUP2 LT PUSH2 0x226B JUMPI INVALID JUMPDEST PUSH1 0x20 MUL PUSH1 0x20 ADD ADD MLOAD DUP4 DUP11 DUP8 DUP2 MLOAD DUP2 LT PUSH2 0x786 JUMPI INVALID JUMPDEST SWAP1 POP PUSH2 0x228C DUP8 DUP3 PUSH2 0x25F2 JUMP JUMPDEST DUP7 MLOAD DUP10 GT PUSH2 0x229C JUMPI POP POP POP PUSH2 0x1264 JUMP JUMPDEST POP POP POP PUSH1 0x1 ADD PUSH2 0x220B JUMP JUMPDEST PUSH1 0xA SLOAD PUSH20 0xFFFFFFFFFFFFFFFFFFFFFFFFFFFFFFFFFFFFFFFF AND DUP2 JUMP JUMPDEST PUSH1 0x3 SLOAD PUSH20 0xFFFFFFFFFFFFFFFFFFFFFFFFFFFFFFFFFFFFFFFF AND CALLER EQ PUSH2 0x2314 JUMPI PUSH1 0x40 MLOAD PUSH32 0x8C379A000000000000000000000000000000000000000000000000000000000 DUP2 MSTORE PUSH1 0x4 ADD PUSH2 0x708 SWAP1 PUSH2 0x5212 JUMP JUMPDEST PUSH20 0xFFFFFFFFFFFFFFFFFFFFFFFFFFFFFFFFFFFFFFFF DUP2 AND ISZERO PUSH2 0x2371 JUMPI PUSH1 0x3 DUP1 SLOAD PUSH32 0xFFFFFFFFFFFFFFFFFFFFFFFF0000000000000000000000000000000000000000 AND PUSH20 0xFFFFFFFFFFFFFFFFFFFFFFFFFFFFFFFFFFFFFFFF DUP4 AND OR SWAP1 SSTORE JUMPDEST POP JUMP JUMPDEST PUSH1 0x40 MLOAD DUP1 PUSH1 0x40 ADD PUSH1 0x40 MSTORE DUP1 PUSH1 0x5 DUP2 MSTORE PUSH1 0x20 ADD PUSH32 0x332E302E30000000000000000000000000000000000000000000000000000000 DUP2 MSTORE POP DUP2 JUMP JUMPDEST PUSH1 0x0 DUP1 DUP4 GT PUSH2 0x23E8 JUMPI PUSH1 0x40 MLOAD PUSH32 0x8C379A000000000000000000000000000000000000000000000000000000000 DUP2 MSTORE PUSH1 0x4 ADD PUSH2 0x708 SWAP1 PUSH2 0x4DD7 JUMP JUMPDEST DUP2 ISZERO DUP1 PUSH2 0x23F3 JUMPI POP DUP4 ISZERO JUMPDEST ISZERO PUSH2 0x2400 JUMPI POP PUSH1 0x0 PUSH2 0x689 JUMP JUMPDEST PUSH1 0x0 DUP4 DUP1 PUSH2 0x240A JUMPI INVALID JUMPDEST DUP6 DUP5 MULMOD SWAP1 POP PUSH2 0x2419 DUP6 DUP5 PUSH2 0x3683 JUMP JUMPDEST PUSH2 0x2425 PUSH2 0x3E8 DUP4 PUSH2 0x3683 JUMP JUMPDEST LT ISZERO SWAP6 SWAP5 POP POP POP POP POP JUMP JUMPDEST PUSH2 0x243E DUP3 DUP3 PUSH1 0x20 ADD MLOAD PUSH2 0x36D7 JUMP JUMPDEST PUSH1 0x4 PUSH1 0x0 DUP6 DUP2 MSTORE PUSH1 0x20 ADD SWAP1 DUP2 MSTORE PUSH1 0x20 ADD PUSH1 0x0 KECCAK256 DUP2 SWAP1 SSTORE POP DUP3 DUP6 PUSH1 0x40 ADD MLOAD PUSH20 0xFFFFFFFFFFFFFFFFFFFFFFFFFFFFFFFFFFFFFFFF AND DUP7 PUSH1 0x0 ADD MLOAD PUSH20 0xFFFFFFFFFFFFFFFFFFFFFFFFFFFFFFFFFFFFFFFF AND PUSH32 0xBCC4C97732E47D9946F229EDB95F5B6323F601300E4690DE719993F3C371129 DUP8 CALLER DUP7 PUSH1 0x0 ADD MLOAD DUP8 PUSH1 0x20 ADD MLOAD DUP9 PUSH1 0x40 ADD MLOAD DUP10 PUSH1 0x60 ADD MLOAD DUP15 PUSH2 0x140 ADD MLOAD DUP16 PUSH2 0x160 ADD MLOAD PUSH1 0x40 MLOAD PUSH2 0x24E3 SWAP9 SWAP8 SWAP7 SWAP6 SWAP5 SWAP4 SWAP3 SWAP2 SWAP1 PUSH2 0x4A8A JUMP JUMPDEST PUSH1 0x40 MLOAD DUP1 SWAP2 SUB SWAP1 LOG4 POP POP POP POP POP JUMP JUMPDEST PUSH1 0x0 DUP1 DUP4 GT PUSH2 0x252D JUMPI PUSH1 0x40 MLOAD PUSH32 0x8C379A000000000000000000000000000000000000000000000000000000000 DUP2 MSTORE PUSH1 0x4 ADD PUSH2 0x708 SWAP1 PUSH2 0x4DD7 JUMP JUMPDEST PUSH2 0x686 PUSH2 0x254D PUSH2 0x253D DUP7 DUP6 PUSH2 0x3683 JUMP JUMPDEST PUSH2 0x2548 DUP7 PUSH1 0x1 PUSH2 0x2FBC JUMP JUMPDEST PUSH2 0x36D7 JUMP JUMPDEST DUP5 PUSH2 0x3716 JUMP JUMPDEST PUSH2 0x255B PUSH2 0x3CCE JUMP JUMPDEST PUSH2 0x2563 PUSH2 0x3D24 JUMP JUMPDEST PUSH2 0x256C DUP6 PUSH2 0x1E31 JUMP JUMPDEST SWAP1 POP PUSH1 0x0 PUSH2 0x2578 PUSH2 0x2654 JUMP JUMPDEST SWAP1 POP PUSH2 0x2586 DUP7 DUP4 DUP4 DUP8 PUSH2 0x2686 JUMP JUMPDEST PUSH1 0x0 PUSH2 0x259A DUP8 PUSH1 0xA0 ADD MLOAD DUP5 PUSH1 0x40 ADD MLOAD PUSH2 0x2FBC JUMP JUMPDEST SWAP1 POP PUSH1 0x0 PUSH2 0x25A8 DUP8 DUP4 PUSH2 0x372B JUMP JUMPDEST SWAP1 POP PUSH2 0x25BB DUP9 DUP6 DUP10 DUP5 DUP10 PUSH1 0x0 ADD MLOAD PUSH2 0x2A01 JUMP JUMPDEST PUSH2 0x25C5 DUP9 DUP3 PUSH2 0x3622 JUMP JUMPDEST SWAP5 POP PUSH2 0x25DC DUP9 DUP5 DUP7 PUSH1 0x20 ADD MLOAD DUP8 PUSH1 0x40 ADD MLOAD DUP10 PUSH2 0x2430 JUMP JUMPDEST PUSH2 0x25E7 DUP9 DUP5 DUP8 PUSH2 0x373A JUMP JUMPDEST POP POP POP POP SWAP4 SWAP3 POP POP POP JUMP JUMPDEST DUP2 MLOAD DUP2 MLOAD PUSH2 0x2600 SWAP2 SWAP1 PUSH2 0x36D7 JUMP JUMPDEST DUP3 MSTORE PUSH1 0x20 DUP1 DUP4 ADD MLOAD SWAP1 DUP3 ADD MLOAD PUSH2 0x2616 SWAP2 SWAP1 PUSH2 0x36D7 JUMP JUMPDEST PUSH1 0x20 DUP4 ADD MSTORE PUSH1 0x40 DUP1 DUP4 ADD MLOAD SWAP1 DUP3 ADD MLOAD PUSH2 0x262F SWAP2 SWAP1 PUSH2 0x36D7 JUMP JUMPDEST PUSH1 0x40 DUP4 ADD MSTORE PUSH1 0x60 DUP1 DUP4 ADD MLOAD SWAP1 DUP3 ADD MLOAD PUSH2 0x2648 SWAP2 SWAP1 PUSH2 0x36D7 JUMP JUMPDEST PUSH1 0x60 SWAP1 SWAP3 ADD SWAP2 SWAP1 SWAP2 MSTORE POP JUMP JUMPDEST PUSH1 0xA SLOAD PUSH1 0x0 SWAP1 PUSH20 0xFFFFFFFFFFFFFFFFFFFFFFFFFFFFFFFFFFFFFFFF AND DUP2 DUP2 ISZERO PUSH2 0x267D JUMPI DUP2 PUSH2 0x267F JUMP JUMPDEST CALLER JUMPDEST SWAP3 POP POP POP SWAP1 JUMP JUMPDEST DUP3 MLOAD PUSH1 0xFF AND PUSH1 0x3 EQ PUSH2 0x26C4 JUMPI PUSH1 0x40 MLOAD PUSH32 0x8C379A000000000000000000000000000000000000000000000000000000000 DUP2 MSTORE PUSH1 0x4 ADD PUSH2 0x708 SWAP1 PUSH2 0x52A6 JUMP JUMPDEST PUSH1 0x60 DUP5 ADD MLOAD PUSH20 0xFFFFFFFFFFFFFFFFFFFFFFFFFFFFFFFFFFFFFFFF AND ISZERO PUSH2 0x2737 JUMPI PUSH1 0x60 DUP5 ADD MLOAD PUSH20 0xFFFFFFFFFFFFFFFFFFFFFFFFFFFFFFFFFFFFFFFF AND CALLER EQ PUSH2 0x2737 JUMPI PUSH1 0x40 MLOAD PUSH32 0x8C379A000000000000000000000000000000000000000000000000000000000 DUP2 MSTORE PUSH1 0x4 ADD PUSH2 0x708 SWAP1 PUSH2 0x52DD JUMP JUMPDEST PUSH1 0x20 DUP5 ADD MLOAD PUSH20 0xFFFFFFFFFFFFFFFFFFFFFFFFFFFFFFFFFFFFFFFF AND ISZERO PUSH2 0x27C0 JUMPI DUP2 PUSH20 0xFFFFFFFFFFFFFFFFFFFFFFFFFFFFFFFFFFFFFFFF AND DUP5 PUSH1 0x20 ADD MLOAD PUSH20 0xFFFFFFFFFFFFFFFFFFFFFFFFFFFFFFFFFFFFFFFF AND EQ PUSH2 0x27C0 JUMPI PUSH1 0x40 MLOAD PUSH32 0x8C379A000000000000000000000000000000000000000000000000000000000 DUP2 MSTORE PUSH1 0x4 ADD PUSH2 0x708 SWAP1 PUSH2 0x4C67 JUMP JUMPDEST PUSH1 0x40 DUP4 ADD MLOAD PUSH2 0x2812 JUMPI PUSH2 0x27DC DUP4 PUSH1 0x20 ADD MLOAD DUP6 PUSH1 0x0 ADD MLOAD DUP4 PUSH2 0x1366 JUMP JUMPDEST PUSH2 0x2812 JUMPI PUSH1 0x40 MLOAD PUSH32 0x8C379A000000000000000000000000000000000000000000000000000000000 DUP2 MSTORE PUSH1 0x4 ADD PUSH2 0x708 SWAP1 PUSH2 0x4E0E JUMP JUMPDEST POP POP POP POP JUMP JUMPDEST PUSH2 0x282A DUP3 PUSH1 0xA0 ADD MLOAD DUP3 PUSH1 0xA0 ADD MLOAD PUSH2 0x3683 JUMP JUMPDEST PUSH2 0x283C DUP4 PUSH1 0x80 ADD MLOAD DUP4 PUSH1 0x80 ADD MLOAD PUSH2 0x3683 JUMP JUMPDEST LT ISZERO PUSH2 0x2874 JUMPI PUSH1 0x40 MLOAD PUSH32 0x8C379A000000000000000000000000000000000000000000000000000000000 DUP2 MSTORE PUSH1 0x4 ADD PUSH2 0x708 SWAP1 PUSH2 0x5314 JUMP JUMPDEST POP POP JUMP JUMPDEST PUSH2 0x2880 PUSH2 0x3CF6 JUMP JUMPDEST PUSH1 0x0 PUSH2 0x2890 DUP7 PUSH1 0xA0 ADD MLOAD DUP6 PUSH2 0x2FBC JUMP JUMPDEST SWAP1 POP PUSH1 0x0 PUSH2 0x28A7 DUP8 PUSH1 0x80 ADD MLOAD DUP9 PUSH1 0xA0 ADD MLOAD DUP5 PUSH2 0x3528 JUMP JUMPDEST SWAP1 POP PUSH1 0x0 PUSH2 0x28B9 DUP8 PUSH1 0xA0 ADD MLOAD DUP7 PUSH2 0x2FBC JUMP JUMPDEST SWAP1 POP PUSH1 0x0 PUSH2 0x28D0 DUP9 PUSH1 0x80 ADD MLOAD DUP10 PUSH1 0xA0 ADD MLOAD DUP5 PUSH2 0x3528 JUMP JUMPDEST SWAP1 POP DUP1 DUP5 LT PUSH2 0x2913 JUMPI PUSH1 0x20 DUP1 DUP7 ADD DUP1 MLOAD DUP4 SWAP1 MSTORE DUP1 MLOAD DUP3 ADD DUP5 SWAP1 MSTORE MLOAD MLOAD DUP7 MLOAD DUP3 ADD MSTORE PUSH1 0x80 DUP11 ADD MLOAD PUSH1 0xA0 DUP12 ADD MLOAD DUP8 MLOAD SWAP1 SWAP3 ADD MLOAD PUSH2 0x290B SWAP3 SWAP1 PUSH2 0x3528 JUMP JUMPDEST DUP6 MLOAD MSTORE PUSH2 0x2950 JUMP JUMPDEST DUP5 MLOAD DUP4 SWAP1 MSTORE DUP5 MLOAD PUSH1 0x20 SWAP1 DUP2 ADD DUP6 SWAP1 MSTORE DUP6 MLOAD DUP2 ADD MLOAD SWAP1 DUP7 ADD DUP1 MLOAD SWAP2 SWAP1 SWAP2 MSTORE PUSH1 0xA0 DUP10 ADD MLOAD PUSH1 0x80 DUP11 ADD MLOAD SWAP2 MLOAD MLOAD PUSH2 0x2947 SWAP3 SWAP1 PUSH2 0x35A5 JUMP JUMPDEST PUSH1 0x20 DUP1 DUP8 ADD MLOAD ADD MSTORE JUMPDEST DUP5 MLOAD MLOAD PUSH1 0x20 DUP1 DUP8 ADD MLOAD ADD MLOAD PUSH2 0x2965 SWAP2 SWAP1 PUSH2 0x2FBC JUMP JUMPDEST PUSH1 0x40 DUP7 ADD MSTORE DUP5 MLOAD MLOAD PUSH1 0x80 DUP11 ADD MLOAD PUSH1 0xC0 DUP12 ADD MLOAD PUSH2 0x2982 SWAP3 SWAP2 SWAP1 PUSH2 0x3528 JUMP JUMPDEST DUP6 MLOAD PUSH1 0x40 ADD MSTORE DUP5 MLOAD PUSH1 0x20 ADD MLOAD PUSH1 0xA0 DUP11 ADD MLOAD PUSH1 0xE0 DUP12 ADD MLOAD PUSH2 0x29A3 SWAP3 SWAP2 SWAP1 PUSH2 0x3528 JUMP JUMPDEST DUP6 MLOAD PUSH1 0x60 ADD MSTORE PUSH1 0x20 DUP6 ADD MLOAD MLOAD PUSH1 0x80 DUP10 ADD MLOAD PUSH1 0xC0 DUP11 ADD MLOAD PUSH2 0x29C4 SWAP3 SWAP2 SWAP1 PUSH2 0x3528 JUMP JUMPDEST DUP6 PUSH1 0x20 ADD MLOAD PUSH1 0x40 ADD DUP2 DUP2 MSTORE POP POP PUSH2 0x29EC DUP6 PUSH1 0x20 ADD MLOAD PUSH1 0x20 ADD MLOAD DUP10 PUSH1 0xA0 ADD MLOAD DUP11 PUSH1 0xE0 ADD MLOAD PUSH2 0x3528 JUMP JUMPDEST PUSH1 0x20 DUP7 ADD MLOAD PUSH1 0x60 ADD MSTORE POP POP POP POP SWAP5 SWAP4 POP POP POP POP JUMP JUMPDEST DUP3 PUSH2 0x2A38 JUMPI PUSH1 0x40 MLOAD PUSH32 0x8C379A000000000000000000000000000000000000000000000000000000000 DUP2 MSTORE PUSH1 0x4 ADD PUSH2 0x708 SWAP1 PUSH2 0x4FC6 JUMP JUMPDEST DUP3 DUP3 GT ISZERO PUSH2 0x2A72 JUMPI PUSH1 0x40 MLOAD PUSH32 0x8C379A000000000000000000000000000000000000000000000000000000000 DUP2 MSTORE PUSH1 0x4 ADD PUSH2 0x708 SWAP1 PUSH2 0x4F8F JUMP JUMPDEST DUP5 PUSH1 0xA0 ADD MLOAD PUSH2 0x2A85 DUP6 PUSH1 0x40 ADD MLOAD DUP5 PUSH2 0x36D7 JUMP JUMPDEST GT ISZERO PUSH2 0x2ABD JUMPI PUSH1 0x40 MLOAD PUSH32 0x8C379A000000000000000000000000000000000000000000000000000000000 DUP2 MSTORE PUSH1 0x4 ADD PUSH2 0x708 SWAP1 PUSH2 0x4C9E JUMP JUMPDEST PUSH2 0x2ACB DUP6 PUSH1 0x80 ADD MLOAD DUP4 PUSH2 0x3683 JUMP JUMPDEST PUSH2 0x2AD9 DUP3 DUP8 PUSH1 0xA0 ADD MLOAD PUSH2 0x3683 JUMP JUMPDEST GT ISZERO PUSH2 0x69D JUMPI PUSH1 0x40 MLOAD PUSH32 0x8C379A000000000000000000000000000000000000000000000000000000000 DUP2 MSTORE PUSH1 0x4 ADD PUSH2 0x708 SWAP1 PUSH2 0x51A4 JUMP JUMPDEST PUSH1 0x1 DUP1 SLOAD PUSH1 0x40 DUP1 MLOAD PUSH1 0x20 PUSH1 0x1F PUSH1 0x2 PUSH32 0xFFFFFFFFFFFFFFFFFFFFFFFFFFFFFFFFFFFFFFFFFFFFFFFFFFFFFFFFFFFFFFFF PUSH2 0x100 DUP8 DUP10 AND ISZERO MUL ADD SWAP1 SWAP6 AND SWAP5 SWAP1 SWAP5 DIV SWAP4 DUP5 ADD DUP2 SWAP1 DIV DUP2 MUL DUP3 ADD DUP2 ADD SWAP1 SWAP3 MSTORE DUP3 DUP2 MSTORE PUSH1 0x60 SWAP4 SWAP1 SWAP3 SWAP1 SWAP2 DUP4 ADD DUP3 DUP3 DUP1 ISZERO PUSH2 0x2BBA JUMPI DUP1 PUSH1 0x1F LT PUSH2 0x2B8F JUMPI PUSH2 0x100 DUP1 DUP4 SLOAD DIV MUL DUP4 MSTORE SWAP2 PUSH1 0x20 ADD SWAP2 PUSH2 0x2BBA JUMP JUMPDEST DUP3 ADD SWAP2 SWAP1 PUSH1 0x0 MSTORE PUSH1 0x20 PUSH1 0x0 KECCAK256 SWAP1 JUMPDEST DUP2 SLOAD DUP2 MSTORE SWAP1 PUSH1 0x1 ADD SWAP1 PUSH1 0x20 ADD DUP1 DUP4 GT PUSH2 0x2B9D JUMPI DUP3 SWAP1 SUB PUSH1 0x1F AND DUP3 ADD SWAP2 JUMPDEST POP POP POP POP POP SWAP1 POP PUSH2 0x2BE2 DUP6 PUSH2 0x140 ADD MLOAD DUP7 PUSH1 0x0 ADD MLOAD DUP7 PUSH1 0x0 ADD MLOAD DUP6 PUSH1 0x20 ADD MLOAD PUSH1 0x20 ADD MLOAD PUSH2 0x3844 JUMP JUMPDEST PUSH2 0x140 DUP5 ADD MLOAD DUP5 MLOAD DUP7 MLOAD DUP5 MLOAD PUSH1 0x20 ADD MLOAD PUSH2 0x2BFE SWAP4 SWAP3 SWAP2 SWAP1 PUSH2 0x3844 JUMP JUMPDEST PUSH2 0x2C17 DUP6 PUSH2 0x140 ADD MLOAD DUP7 PUSH1 0x0 ADD MLOAD DUP6 DUP6 PUSH1 0x40 ADD MLOAD PUSH2 0x3844 JUMP JUMPDEST PUSH2 0x2C33 DUP2 DUP7 PUSH1 0x0 ADD MLOAD DUP8 PUSH1 0x40 ADD MLOAD DUP6 PUSH1 0x0 ADD MLOAD PUSH1 0x40 ADD MLOAD PUSH2 0x3844 JUMP JUMPDEST PUSH2 0x2C4F DUP2 DUP6 PUSH1 0x0 ADD MLOAD DUP7 PUSH1 0x40 ADD MLOAD DUP6 PUSH1 0x20 ADD MLOAD PUSH1 0x40 ADD MLOAD PUSH2 0x3844 JUMP JUMPDEST DUP4 PUSH1 0x40 ADD MLOAD PUSH20 0xFFFFFFFFFFFFFFFFFFFFFFFFFFFFFFFFFFFFFFFF AND DUP6 PUSH1 0x40 ADD MLOAD PUSH20 0xFFFFFFFFFFFFFFFFFFFFFFFFFFFFFFFFFFFFFFFF AND EQ ISZERO PUSH2 0x2CB9 JUMPI PUSH2 0x2CB4 DUP2 DUP5 DUP8 PUSH1 0x40 ADD MLOAD PUSH2 0x2CAF DUP7 PUSH1 0x0 ADD MLOAD PUSH1 0x60 ADD MLOAD DUP8 PUSH1 0x20 ADD MLOAD PUSH1 0x60 ADD MLOAD PUSH2 0x36D7 JUMP JUMPDEST PUSH2 0x3844 JUMP JUMPDEST PUSH2 0x69D JUMP JUMPDEST PUSH2 0x2CD1 DUP2 DUP5 DUP8 PUSH1 0x40 ADD MLOAD DUP6 PUSH1 0x0 ADD MLOAD PUSH1 0x60 ADD MLOAD PUSH2 0x3844 JUMP JUMPDEST PUSH2 0x69D DUP2 DUP5 DUP7 PUSH1 0x40 ADD MLOAD DUP6 PUSH1 0x20 ADD MLOAD PUSH1 0x60 ADD MLOAD PUSH2 0x3844 JUMP JUMPDEST PUSH1 0x40 DUP1 MLOAD PUSH32 0xB4BE83D500000000000000000000000000000000000000000000000000000000 PUSH1 0x20 DUP1 DUP4 ADD SWAP2 SWAP1 SWAP2 MSTORE PUSH1 0x60 PUSH1 0x24 DUP4 ADD DUP2 DUP2 MSTORE DUP8 MLOAD PUSH1 0x84 DUP6 ADD SWAP1 DUP2 MSTORE DUP9 DUP5 ADD MLOAD PUSH1 0xA4 DUP7 ADD MSTORE SWAP5 DUP9 ADD MLOAD PUSH1 0xC4 DUP6 ADD MSTORE SWAP1 DUP8 ADD MLOAD PUSH1 0xE4 DUP5 ADD MSTORE PUSH1 0x80 DUP8 ADD MLOAD PUSH2 0x104 DUP5 ADD MSTORE PUSH1 0xA0 DUP8 ADD MLOAD PUSH2 0x124 DUP5 ADD MSTORE PUSH1 0xC0 DUP8 ADD MLOAD PUSH2 0x144 DUP5 ADD MSTORE PUSH1 0xE0 DUP8 ADD MLOAD PUSH2 0x164 DUP5 ADD MSTORE PUSH2 0x100 DUP8 ADD MLOAD PUSH2 0x184 DUP5 ADD MSTORE PUSH2 0x120 DUP8 ADD MLOAD PUSH2 0x1A4 DUP5 ADD MSTORE PUSH2 0x140 DUP8 ADD DUP1 MLOAD PUSH2 0x1C4 DUP6 ADD SWAP1 DUP2 MSTORE PUSH2 0x160 DUP10 ADD MLOAD PUSH2 0x1E4 DUP7 ADD MSTORE PUSH2 0x180 SWAP1 MSTORE MLOAD DUP1 MLOAD PUSH2 0x204 DUP6 ADD DUP2 SWAP1 MSTORE SWAP4 SWAP5 PUSH2 0x224 DUP7 ADD SWAP5 SWAP3 SWAP4 PUSH1 0x44 DUP8 ADD SWAP4 SWAP2 SWAP3 DUP2 ADD SWAP2 SWAP1 PUSH1 0x1F DUP3 ADD DIV PUSH1 0x0 JUMPDEST DUP2 DUP2 LT ISZERO PUSH2 0x2DEE JUMPI DUP4 MLOAD DUP9 MSTORE PUSH1 0x20 SWAP8 DUP9 ADD SWAP8 SWAP1 SWAP4 ADD SWAP3 PUSH1 0x1 ADD PUSH2 0x2DD0 JUMP JUMPDEST POP POP POP POP DUP1 DUP5 SUB PUSH2 0x160 SWAP2 DUP3 ADD MSTORE DUP8 ADD MLOAD DUP1 MLOAD DUP1 DUP6 MSTORE PUSH1 0x20 SWAP5 DUP6 ADD SWAP5 PUSH1 0x0 SWAP3 DUP2 ADD SWAP2 SWAP1 PUSH1 0x1F DUP3 ADD DIV JUMPDEST DUP1 DUP5 LT ISZERO PUSH2 0x2E3A JUMPI DUP3 MLOAD DUP8 MSTORE PUSH1 0x20 DUP8 ADD SWAP7 POP PUSH1 0x20 DUP4 ADD SWAP3 POP PUSH1 0x1 DUP5 ADD SWAP4 POP PUSH2 0x2E17 JUMP JUMPDEST POP POP POP DUP7 DUP3 MSTORE SWAP2 DUP4 SUB PUSH1 0x20 SWAP2 DUP3 ADD SWAP1 DUP2 MSTORE DUP6 MLOAD DUP1 DUP6 MSTORE SWAP4 DUP3 ADD SWAP4 PUSH1 0x0 SWAP4 SWAP2 SWAP3 DUP8 DUP2 ADD SWAP2 SWAP1 PUSH1 0x1F DUP3 ADD DIV JUMPDEST DUP1 DUP7 LT ISZERO PUSH2 0x2E87 JUMPI DUP3 MLOAD DUP8 MSTORE PUSH1 0x20 DUP8 ADD SWAP7 POP PUSH1 0x20 DUP4 ADD SWAP3 POP PUSH1 0x1 DUP7 ADD SWAP6 POP PUSH2 0x2E64 JUMP JUMPDEST POP POP POP PUSH32 0xFFFFFFFFFFFFFFFFFFFFFFFFFFFFFFFFFFFFFFFFFFFFFFFFFFFFFFFFFFFFFFE0 DUP6 DUP6 SUB ADD DUP6 MSTORE POP POP POP PUSH1 0x40 MSTORE SWAP4 SWAP3 POP POP POP JUMP JUMPDEST PUSH2 0x2EC6 PUSH2 0x3D24 JUMP JUMPDEST PUSH2 0x2ECF DUP3 PUSH2 0x1E31 JUMP JUMPDEST SWAP1 POP PUSH2 0x2EDB DUP3 DUP3 PUSH2 0x39E9 JUMP JUMPDEST PUSH2 0x2874 DUP3 DUP3 PUSH1 0x20 ADD MLOAD PUSH2 0x3B14 JUMP JUMPDEST PUSH2 0x2EF1 PUSH2 0x3CCE JUMP JUMPDEST PUSH2 0x2EFC DUP5 DUP5 DUP5 PUSH2 0x2553 JUMP JUMPDEST SWAP1 POP DUP3 DUP2 PUSH1 0x20 ADD MLOAD EQ PUSH2 0x689 JUMPI PUSH1 0x40 MLOAD PUSH32 0x8C379A000000000000000000000000000000000000000000000000000000000 DUP2 MSTORE PUSH1 0x4 ADD PUSH2 0x708 SWAP1 PUSH2 0x516D JUMP JUMPDEST PUSH1 0x0 DUP1 DUP4 GT PUSH2 0x2F76 JUMPI PUSH1 0x40 MLOAD PUSH32 0x8C379A000000000000000000000000000000000000000000000000000000000 DUP2 MSTORE PUSH1 0x4 ADD PUSH2 0x708 SWAP1 PUSH2 0x4DD7 JUMP JUMPDEST DUP2 ISZERO DUP1 PUSH2 0x2F81 JUMPI POP DUP4 ISZERO JUMPDEST ISZERO PUSH2 0x2F8E JUMPI POP PUSH1 0x0 PUSH2 0x689 JUMP JUMPDEST PUSH1 0x0 DUP4 DUP1 PUSH2 0x2F98 JUMPI INVALID JUMPDEST DUP6 DUP5 MULMOD SWAP1 POP DUP4 PUSH2 0x2FA8 DUP6 DUP4 PUSH2 0x2FBC JUMP JUMPDEST DUP2 PUSH2 0x2FAF JUMPI INVALID JUMPDEST MOD SWAP1 POP PUSH2 0x2419 DUP6 DUP5 PUSH2 0x3683 JUMP JUMPDEST PUSH1 0x0 DUP3 DUP3 GT ISZERO PUSH2 0x2FF8 JUMPI PUSH1 0x40 MLOAD PUSH32 0x8C379A000000000000000000000000000000000000000000000000000000000 DUP2 MSTORE PUSH1 0x4 ADD PUSH2 0x708 SWAP1 PUSH2 0x4CD5 JUMP JUMPDEST POP SWAP1 SUB SWAP1 JUMP JUMPDEST PUSH1 0x0 DUP1 DUP3 MLOAD GT PUSH2 0x303A JUMPI PUSH1 0x40 MLOAD PUSH32 0x8C379A000000000000000000000000000000000000000000000000000000000 DUP2 MSTORE PUSH1 0x4 ADD PUSH2 0x708 SWAP1 PUSH2 0x5034 JUMP JUMPDEST DUP2 PUSH1 0x1 DUP4 MLOAD SUB DUP2 MLOAD DUP2 LT PUSH2 0x304A JUMPI INVALID JUMPDEST ADD PUSH1 0x20 ADD MLOAD DUP3 MLOAD PUSH32 0xFFFFFFFFFFFFFFFFFFFFFFFFFFFFFFFFFFFFFFFFFFFFFFFFFFFFFFFFFFFFFFFF ADD SWAP1 SWAP3 MSTORE POP PUSH32 0xFF00000000000000000000000000000000000000000000000000000000000000 AND SWAP1 JUMP JUMPDEST PUSH1 0x0 DUP2 PUSH1 0x20 ADD DUP4 MLOAD LT ISZERO PUSH2 0x30DC JUMPI PUSH1 0x40 MLOAD PUSH32 0x8C379A000000000000000000000000000000000000000000000000000000000 DUP2 MSTORE PUSH1 0x4 ADD PUSH2 0x708 SWAP1 PUSH2 0x4D43 JUMP JUMPDEST POP ADD PUSH1 0x20 ADD MLOAD SWAP1 JUMP JUMPDEST PUSH1 0x40 MLOAD PUSH1 0x0 SWAP1 PUSH1 0x60 SWAP1 PUSH32 0x1626BA7E00000000000000000000000000000000000000000000000000000000 SWAP1 PUSH2 0x3120 SWAP1 DUP8 SWAP1 DUP7 SWAP1 PUSH1 0x24 ADD PUSH2 0x4B9E JUMP JUMPDEST PUSH1 0x40 DUP1 MLOAD PUSH32 0xFFFFFFFFFFFFFFFFFFFFFFFFFFFFFFFFFFFFFFFFFFFFFFFFFFFFFFFFFFFFFFE0 DUP2 DUP5 SUB ADD DUP2 MSTORE SWAP2 SWAP1 MSTORE PUSH1 0x20 DUP1 DUP3 ADD DUP1 MLOAD PUSH28 0xFFFFFFFFFFFFFFFFFFFFFFFFFFFFFFFFFFFFFFFFFFFFFFFFFFFFFFFF AND PUSH32 0xFFFFFFFF00000000000000000000000000000000000000000000000000000000 SWAP1 SWAP5 AND SWAP4 SWAP1 SWAP4 OR DUP4 MSTORE DUP2 MLOAD SWAP2 SWAP4 POP SWAP1 DUP3 SWAP1 DUP2 DUP9 GAS STATICCALL DUP1 DUP1 ISZERO PUSH2 0x31BD JUMPI PUSH1 0x1 DUP2 EQ PUSH2 0x322E JUMPI PUSH2 0x25E7 JUMP JUMPDEST PUSH32 0x8C379A000000000000000000000000000000000000000000000000000000000 PUSH1 0x0 MSTORE PUSH29 0x2000000000000000000000000000000000000000000000000000000000 PUSH1 0x20 MSTORE PUSH29 0xC57414C4C45545F4552524F5200000000000000000000000000000000 PUSH1 0x40 MSTORE PUSH1 0x0 PUSH1 0x60 MSTORE PUSH1 0x64 PUSH1 0x0 REVERT JUMPDEST POP POP MLOAD SWAP6 SWAP5 POP POP POP POP POP JUMP JUMPDEST PUSH1 0x0 PUSH1 0x14 DUP3 MLOAD LT ISZERO PUSH2 0x3278 JUMPI PUSH1 0x40 MLOAD PUSH32 0x8C379A000000000000000000000000000000000000000000000000000000000 DUP2 MSTORE PUSH1 0x4 ADD PUSH2 0x708 SWAP1 PUSH2 0x5249 JUMP JUMPDEST PUSH2 0x3286 DUP3 PUSH1 0x14 DUP5 MLOAD SUB PUSH2 0x3BBB JUMP JUMPDEST DUP3 MLOAD PUSH32 0xFFFFFFFFFFFFFFFFFFFFFFFFFFFFFFFFFFFFFFFFFFFFFFFFFFFFFFFFFFFFFFEC ADD SWAP1 SWAP3 MSTORE POP SWAP1 JUMP JUMPDEST PUSH1 0x40 MLOAD PUSH1 0x0 SWAP1 PUSH1 0x60 SWAP1 PUSH32 0x9363470200000000000000000000000000000000000000000000000000000000 SWAP1 PUSH2 0x32EE SWAP1 DUP8 SWAP1 DUP8 SWAP1 DUP8 SWAP1 PUSH1 0x24 ADD PUSH2 0x4B60 JUMP JUMPDEST PUSH1 0x40 DUP1 MLOAD PUSH32 0xFFFFFFFFFFFFFFFFFFFFFFFFFFFFFFFFFFFFFFFFFFFFFFFFFFFFFFFFFFFFFFE0 DUP2 DUP5 SUB ADD DUP2 MSTORE SWAP2 SWAP1 MSTORE PUSH1 0x20 DUP1 DUP3 ADD DUP1 MLOAD PUSH28 0xFFFFFFFFFFFFFFFFFFFFFFFFFFFFFFFFFFFFFFFFFFFFFFFFFFFFFFFF AND PUSH32 0xFFFFFFFF00000000000000000000000000000000000000000000000000000000 SWAP1 SWAP5 AND SWAP4 SWAP1 SWAP4 OR DUP4 MSTORE DUP2 MLOAD SWAP2 SWAP4 POP SWAP1 DUP3 SWAP1 DUP2 DUP11 GAS STATICCALL DUP1 DUP1 ISZERO PUSH2 0x338B JUMPI PUSH1 0x1 DUP2 EQ PUSH2 0x33FC JUMPI PUSH2 0x3401 JUMP JUMPDEST PUSH32 0x8C379A000000000000000000000000000000000000000000000000000000000 PUSH1 0x0 MSTORE PUSH29 0x2000000000000000000000000000000000000000000000000000000000 PUSH1 0x20 MSTORE PUSH29 0xF56414C494441544F525F4552524F5200000000000000000000000000 PUSH1 0x40 MSTORE PUSH1 0x0 PUSH1 0x60 MSTORE PUSH1 0x64 PUSH1 0x0 REVERT JUMPDEST DUP3 MLOAD SWAP5 POP JUMPDEST POP POP POP POP SWAP5 SWAP4 POP POP POP POP JUMP JUMPDEST PUSH1 0x0 DUP1 DUP4 GT PUSH2 0x3448 JUMPI PUSH1 0x40 MLOAD PUSH32 0x8C379A000000000000000000000000000000000000000000000000000000000 DUP2 MSTORE PUSH1 0x4 ADD PUSH2 0x708 SWAP1 PUSH2 0x4DD7 JUMP JUMPDEST PUSH2 0x686 PUSH2 0x254D DUP6 DUP5 PUSH2 0x3683 JUMP JUMPDEST PUSH1 0x0 DUP1 PUSH1 0x40 MLOAD PUSH1 0x20 ADD PUSH2 0x3467 SWAP1 PUSH2 0x47A0 JUMP JUMPDEST PUSH1 0x40 DUP1 MLOAD PUSH32 0xFFFFFFFFFFFFFFFFFFFFFFFFFFFFFFFFFFFFFFFFFFFFFFFFFFFFFFFFFFFFFFE0 DUP2 DUP5 SUB ADD DUP2 MSTORE DUP3 DUP3 MSTORE DUP1 MLOAD PUSH1 0x20 SWAP2 DUP3 ADD KECCAK256 DUP7 MLOAD DUP8 DUP4 ADD KECCAK256 SWAP1 DUP5 MSTORE SWAP1 DUP4 ADD DUP9 SWAP1 MSTORE PUSH20 0xFFFFFFFFFFFFFFFFFFFFFFFFFFFFFFFFFFFFFFFF DUP8 AND SWAP2 DUP4 ADD SWAP2 SWAP1 SWAP2 MSTORE PUSH1 0x60 DUP3 ADD MSTORE PUSH1 0x80 SWAP1 KECCAK256 SWAP2 POP POP SWAP4 SWAP3 POP POP POP JUMP JUMPDEST PUSH1 0x2 DUP1 SLOAD PUSH1 0x40 MLOAD PUSH32 0x1901000000000000000000000000000000000000000000000000000000000000 DUP2 MSTORE SWAP2 DUP3 ADD MSTORE PUSH1 0x22 DUP2 ADD SWAP2 SWAP1 SWAP2 MSTORE PUSH1 0x42 SWAP1 KECCAK256 SWAP1 JUMP JUMPDEST PUSH1 0x0 PUSH2 0xFD9 PUSH2 0x19F6 DUP4 PUSH2 0x3C1A JUMP JUMPDEST PUSH1 0x0 DUP1 DUP4 GT PUSH2 0x3563 JUMPI PUSH1 0x40 MLOAD PUSH32 0x8C379A000000000000000000000000000000000000000000000000000000000 DUP2 MSTORE PUSH1 0x4 ADD PUSH2 0x708 SWAP1 PUSH2 0x4DD7 JUMP JUMPDEST PUSH2 0x356E DUP5 DUP5 DUP5 PUSH2 0x23AD JUMP JUMPDEST ISZERO PUSH2 0x3448 JUMPI PUSH1 0x40 MLOAD PUSH32 0x8C379A000000000000000000000000000000000000000000000000000000000 DUP2 MSTORE PUSH1 0x4 ADD PUSH2 0x708 SWAP1 PUSH2 0x4F21 JUMP JUMPDEST PUSH1 0x0 DUP1 DUP4 GT PUSH2 0x35E0 JUMPI PUSH1 0x40 MLOAD PUSH32 0x8C379A000000000000000000000000000000000000000000000000000000000 DUP2 MSTORE PUSH1 0x4 ADD PUSH2 0x708 SWAP1 PUSH2 0x4DD7 JUMP JUMPDEST PUSH2 0x35EB DUP5 DUP5 DUP5 PUSH2 0x2F3B JUMP JUMPDEST ISZERO PUSH2 0x252D JUMPI PUSH1 0x40 MLOAD PUSH32 0x8C379A000000000000000000000000000000000000000000000000000000000 DUP2 MSTORE PUSH1 0x4 ADD PUSH2 0x708 SWAP1 PUSH2 0x4F21 JUMP JUMPDEST PUSH2 0x362A PUSH2 0x3CCE JUMP JUMPDEST PUSH1 0x20 DUP2 ADD DUP3 SWAP1 MSTORE PUSH1 0xA0 DUP4 ADD MLOAD PUSH1 0x80 DUP5 ADD MLOAD PUSH2 0x3646 SWAP2 DUP5 SWAP2 PUSH2 0x3528 JUMP JUMPDEST DUP1 DUP3 MSTORE PUSH1 0x80 DUP5 ADD MLOAD PUSH1 0xC0 DUP6 ADD MLOAD PUSH2 0x365E SWAP3 SWAP2 SWAP1 PUSH2 0x3528 JUMP JUMPDEST PUSH1 0x40 DUP3 ADD MSTORE PUSH1 0xA0 DUP4 ADD MLOAD PUSH1 0xE0 DUP5 ADD MLOAD PUSH2 0x3678 SWAP2 DUP5 SWAP2 PUSH2 0x3528 JUMP JUMPDEST PUSH1 0x60 DUP3 ADD MSTORE SWAP3 SWAP2 POP POP JUMP JUMPDEST PUSH1 0x0 DUP3 PUSH2 0x3692 JUMPI POP PUSH1 0x0 PUSH2 0xFD9 JUMP JUMPDEST DUP3 DUP3 MUL DUP3 DUP5 DUP3 DUP2 PUSH2 0x369F JUMPI INVALID JUMPDEST DIV EQ PUSH2 0x689 JUMPI PUSH1 0x40 MLOAD PUSH32 0x8C379A000000000000000000000000000000000000000000000000000000000 DUP2 MSTORE PUSH1 0x4 ADD PUSH2 0x708 SWAP1 PUSH2 0x4E7C JUMP JUMPDEST PUSH1 0x0 DUP3 DUP3 ADD DUP4 DUP2 LT ISZERO PUSH2 0x689 JUMPI PUSH1 0x40 MLOAD PUSH32 0x8C379A000000000000000000000000000000000000000000000000000000000 DUP2 MSTORE PUSH1 0x4 ADD PUSH2 0x708 SWAP1 PUSH2 0x4E7C JUMP JUMPDEST PUSH1 0x0 DUP1 DUP3 DUP5 DUP2 PUSH2 0x3722 JUMPI INVALID JUMPDEST DIV SWAP5 SWAP4 POP POP POP POP JUMP JUMPDEST PUSH1 0x0 DUP2 DUP4 LT PUSH2 0xFD6 JUMPI DUP2 PUSH2 0x689 JUMP JUMPDEST PUSH1 0x1 DUP1 SLOAD PUSH1 0x40 DUP1 MLOAD PUSH1 0x20 PUSH1 0x1F PUSH1 0x2 PUSH32 0xFFFFFFFFFFFFFFFFFFFFFFFFFFFFFFFFFFFFFFFFFFFFFFFFFFFFFFFFFFFFFFFF PUSH2 0x100 DUP8 DUP10 AND ISZERO MUL ADD SWAP1 SWAP6 AND SWAP5 SWAP1 SWAP5 DIV SWAP4 DUP5 ADD DUP2 SWAP1 DIV DUP2 MUL DUP3 ADD DUP2 ADD SWAP1 SWAP3 MSTORE DUP3 DUP2 MSTORE PUSH1 0x60 SWAP4 SWAP1 SWAP3 SWAP1 SWAP2 DUP4 ADD DUP3 DUP3 DUP1 ISZERO PUSH2 0x37E3 JUMPI DUP1 PUSH1 0x1F LT PUSH2 0x37B8 JUMPI PUSH2 0x100 DUP1 DUP4 SLOAD DIV MUL DUP4 MSTORE SWAP2 PUSH1 0x20 ADD SWAP2 PUSH2 0x37E3 JUMP JUMPDEST DUP3 ADD SWAP2 SWAP1 PUSH1 0x0 MSTORE PUSH1 0x20 PUSH1 0x0 KECCAK256 SWAP1 JUMPDEST DUP2 SLOAD DUP2 MSTORE SWAP1 PUSH1 0x1 ADD SWAP1 PUSH1 0x20 ADD DUP1 DUP4 GT PUSH2 0x37C6 JUMPI DUP3 SWAP1 SUB PUSH1 0x1F AND DUP3 ADD SWAP2 JUMPDEST POP POP POP POP POP SWAP1 POP PUSH2 0x3803 DUP5 PUSH2 0x140 ADD MLOAD DUP6 PUSH1 0x0 ADD MLOAD DUP6 DUP6 PUSH1 0x0 ADD MLOAD PUSH2 0x3844 JUMP JUMPDEST PUSH2 0x381C DUP5 PUSH2 0x160 ADD MLOAD DUP5 DUP7 PUSH1 0x0 ADD MLOAD DUP6 PUSH1 0x20 ADD MLOAD PUSH2 0x3844 JUMP JUMPDEST PUSH2 0x3834 DUP2 DUP6 PUSH1 0x0 ADD MLOAD DUP7 PUSH1 0x40 ADD MLOAD DUP6 PUSH1 0x40 ADD MLOAD PUSH2 0x3844 JUMP JUMPDEST PUSH2 0x2812 DUP2 DUP5 DUP7 PUSH1 0x40 ADD MLOAD DUP6 PUSH1 0x60 ADD MLOAD JUMPDEST PUSH1 0x0 DUP2 GT DUP1 ISZERO PUSH2 0x3880 JUMPI POP DUP2 PUSH20 0xFFFFFFFFFFFFFFFFFFFFFFFFFFFFFFFFFFFFFFFF AND DUP4 PUSH20 0xFFFFFFFFFFFFFFFFFFFFFFFFFFFFFFFFFFFFFFFF AND EQ ISZERO JUMPDEST ISZERO PUSH2 0x2812 JUMPI PUSH1 0x3 DUP5 MLOAD GT PUSH2 0x38C0 JUMPI PUSH1 0x40 MLOAD PUSH32 0x8C379A000000000000000000000000000000000000000000000000000000000 DUP2 MSTORE PUSH1 0x4 ADD PUSH2 0x708 SWAP1 PUSH2 0x5136 JUMP JUMPDEST PUSH1 0x20 DUP5 DUP2 ADD MLOAD PUSH32 0xFFFFFFFF00000000000000000000000000000000000000000000000000000000 AND PUSH1 0x0 DUP2 DUP2 MSTORE PUSH1 0xB SWAP1 SWAP3 MSTORE PUSH1 0x40 SWAP1 SWAP2 KECCAK256 SLOAD PUSH20 0xFFFFFFFFFFFFFFFFFFFFFFFFFFFFFFFFFFFFFFFF AND DUP1 PUSH2 0x3945 JUMPI PUSH1 0x40 MLOAD PUSH32 0x8C379A000000000000000000000000000000000000000000000000000000000 DUP2 MSTORE PUSH1 0x4 ADD PUSH2 0x708 SWAP1 PUSH2 0x4FFD JUMP JUMPDEST PUSH1 0x40 MLOAD DUP7 MLOAD PUSH32 0xA85E59E400000000000000000000000000000000000000000000000000000000 DUP3 MSTORE PUSH1 0x80 PUSH1 0x4 DUP4 ADD MSTORE PUSH20 0xFFFFFFFFFFFFFFFFFFFFFFFFFFFFFFFFFFFFFFFF DUP8 DUP2 AND PUSH1 0x24 DUP5 ADD MSTORE DUP7 AND PUSH1 0x44 DUP4 ADD MSTORE PUSH1 0x64 DUP3 ADD DUP6 SWAP1 MSTORE PUSH1 0x84 DUP1 DUP4 ADD SWAP2 PUSH1 0x3F ADD PUSH7 0xFFFFFFFFFFFE0 AND DUP4 ADD ADD JUMPDEST DUP1 DUP3 LT ISZERO PUSH2 0x39D0 JUMPI DUP9 MLOAD DUP3 MSTORE PUSH1 0x20 SWAP9 DUP10 ADD SWAP9 SWAP1 SWAP2 ADD SWAP1 PUSH2 0x39B5 JUMP JUMPDEST PUSH2 0x200 DUP4 DUP5 DUP4 SUB DUP6 PUSH1 0x0 DUP9 GAS CALL SWAP2 POP POP DUP1 PUSH2 0x1C25 JUMPI RETURNDATASIZE DUP3 REVERT JUMPDEST DUP1 MLOAD PUSH1 0xFF AND PUSH1 0x3 EQ PUSH2 0x3A27 JUMPI PUSH1 0x40 MLOAD PUSH32 0x8C379A000000000000000000000000000000000000000000000000000000000 DUP2 MSTORE PUSH1 0x4 ADD PUSH2 0x708 SWAP1 PUSH2 0x52A6 JUMP JUMPDEST PUSH1 0x60 DUP3 ADD MLOAD PUSH20 0xFFFFFFFFFFFFFFFFFFFFFFFFFFFFFFFFFFFFFFFF AND ISZERO PUSH2 0x3A9A JUMPI PUSH1 0x60 DUP3 ADD MLOAD PUSH20 0xFFFFFFFFFFFFFFFFFFFFFFFFFFFFFFFFFFFFFFFF AND CALLER EQ PUSH2 0x3A9A JUMPI PUSH1 0x40 MLOAD PUSH32 0x8C379A000000000000000000000000000000000000000000000000000000000 DUP2 MSTORE PUSH1 0x4 ADD PUSH2 0x708 SWAP1 PUSH2 0x52DD JUMP JUMPDEST PUSH1 0x0 PUSH2 0x3AA4 PUSH2 0x2654 JUMP JUMPDEST SWAP1 POP DUP1 PUSH20 0xFFFFFFFFFFFFFFFFFFFFFFFFFFFFFFFFFFFFFFFF AND DUP4 PUSH1 0x0 ADD MLOAD PUSH20 0xFFFFFFFFFFFFFFFFFFFFFFFFFFFFFFFFFFFFFFFF AND EQ PUSH2 0x3B0F JUMPI PUSH1 0x40 MLOAD PUSH32 0x8C379A000000000000000000000000000000000000000000000000000000000 DUP2 MSTORE PUSH1 0x4 ADD PUSH2 0x708 SWAP1 PUSH2 0x4E45 JUMP JUMPDEST POP POP POP JUMP JUMPDEST PUSH1 0x0 DUP2 DUP2 MSTORE PUSH1 0x5 PUSH1 0x20 MSTORE PUSH1 0x40 SWAP1 DUP2 SWAP1 KECCAK256 DUP1 SLOAD PUSH32 0xFFFFFFFFFFFFFFFFFFFFFFFFFFFFFFFFFFFFFFFFFFFFFFFFFFFFFFFFFFFFFF00 AND PUSH1 0x1 OR SWAP1 SSTORE DUP3 DUP2 ADD MLOAD DUP4 MLOAD PUSH2 0x140 DUP6 ADD MLOAD PUSH2 0x160 DUP7 ADD MLOAD SWAP4 MLOAD DUP6 SWAP5 PUSH20 0xFFFFFFFFFFFFFFFFFFFFFFFFFFFFFFFFFFFFFFFF SWAP5 DUP6 AND SWAP5 SWAP4 SWAP1 SWAP4 AND SWAP3 PUSH32 0xDC47B3613D9FE400085F6DBDC99453462279057E6207385042827ED6B1A62CF7 SWAP3 PUSH2 0x3BAF SWAP3 CALLER SWAP3 SWAP1 PUSH2 0x4A3F JUMP JUMPDEST PUSH1 0x40 MLOAD DUP1 SWAP2 SUB SWAP1 LOG4 POP POP JUMP JUMPDEST PUSH1 0x0 DUP2 PUSH1 0x14 ADD DUP4 MLOAD LT ISZERO PUSH2 0x3BFB JUMPI PUSH1 0x40 MLOAD PUSH32 0x8C379A000000000000000000000000000000000000000000000000000000000 DUP2 MSTORE PUSH1 0x4 ADD PUSH2 0x708 SWAP1 PUSH2 0x5249 JUMP JUMPDEST POP ADD PUSH1 0x14 ADD MLOAD PUSH20 0xFFFFFFFFFFFFFFFFFFFFFFFFFFFFFFFFFFFFFFFF AND SWAP1 JUMP JUMPDEST PUSH1 0x0 DUP1 PUSH1 0x40 MLOAD PUSH1 0x20 ADD PUSH2 0x3C2C SWAP1 PUSH2 0x4861 JUMP JUMPDEST PUSH1 0x40 MLOAD PUSH1 0x20 DUP2 DUP4 SUB SUB DUP2 MSTORE SWAP1 PUSH1 0x40 MSTORE DUP1 MLOAD SWAP1 PUSH1 0x20 ADD KECCAK256 SWAP1 POP PUSH1 0x0 DUP4 PUSH2 0x140 ADD MLOAD PUSH1 0x40 MLOAD PUSH2 0x3C59 SWAP2 SWAP1 PUSH2 0x4753 JUMP JUMPDEST PUSH1 0x40 MLOAD DUP1 SWAP2 SUB SWAP1 KECCAK256 SWAP1 POP PUSH1 0x0 DUP5 PUSH2 0x160 ADD MLOAD PUSH1 0x40 MLOAD PUSH2 0x3C78 SWAP2 SWAP1 PUSH2 0x4753 JUMP JUMPDEST PUSH1 0x40 MLOAD SWAP1 DUP2 SWAP1 SUB SWAP1 KECCAK256 PUSH32 0xFFFFFFFFFFFFFFFFFFFFFFFFFFFFFFFFFFFFFFFFFFFFFFFFFFFFFFFFFFFFFFE0 DUP7 ADD DUP1 MLOAD PUSH2 0x140 DUP9 ADD DUP1 MLOAD PUSH2 0x160 SWAP1 SWAP10 ADD DUP1 MLOAD SWAP8 DUP5 MSTORE SWAP6 DUP2 MSTORE SWAP3 DUP6 MSTORE PUSH2 0x1A0 DUP3 KECCAK256 SWAP2 MSTORE SWAP6 SWAP1 MSTORE POP MSTORE POP SWAP1 JUMP JUMPDEST PUSH1 0x40 MLOAD DUP1 PUSH1 0x80 ADD PUSH1 0x40 MSTORE DUP1 PUSH1 0x0 DUP2 MSTORE PUSH1 0x20 ADD PUSH1 0x0 DUP2 MSTORE PUSH1 0x20 ADD PUSH1 0x0 DUP2 MSTORE PUSH1 0x20 ADD PUSH1 0x0 DUP2 MSTORE POP SWAP1 JUMP JUMPDEST PUSH1 0x40 MLOAD DUP1 PUSH2 0x120 ADD PUSH1 0x40 MSTORE DUP1 PUSH2 0x3D0A PUSH2 0x3CCE JUMP JUMPDEST DUP2 MSTORE PUSH1 0x20 ADD PUSH2 0x3D17 PUSH2 0x3CCE JUMP JUMPDEST DUP2 MSTORE PUSH1 0x20 ADD PUSH1 0x0 DUP2 MSTORE POP SWAP1 JUMP JUMPDEST PUSH1 0x40 DUP1 MLOAD PUSH1 0x60 DUP2 ADD DUP3 MSTORE PUSH1 0x0 DUP1 DUP3 MSTORE PUSH1 0x20 DUP3 ADD DUP2 SWAP1 MSTORE SWAP2 DUP2 ADD SWAP2 SWAP1 SWAP2 MSTORE SWAP1 JUMP JUMPDEST DUP1 CALLDATALOAD PUSH20 0xFFFFFFFFFFFFFFFFFFFFFFFFFFFFFFFFFFFFFFFF DUP2 AND DUP2 EQ PUSH2 0xFD9 JUMPI PUSH1 0x0 DUP1 REVERT JUMPDEST PUSH1 0x0 DUP3 PUSH1 0x1F DUP4 ADD SLT PUSH2 0x3D78 JUMPI DUP1 DUP2 REVERT JUMPDEST DUP2 CALLDATALOAD PUSH2 0x3D8B PUSH2 0x3D86 DUP3 PUSH2 0x5434 JUMP JUMPDEST PUSH2 0x540D JUMP JUMPDEST DUP2 DUP2 MSTORE SWAP2 POP PUSH1 0x20 DUP1 DUP4 ADD SWAP1 DUP5 ADD PUSH1 0x0 JUMPDEST DUP4 DUP2 LT ISZERO PUSH2 0x3DC8 JUMPI PUSH2 0x3DB3 DUP8 PUSH1 0x20 DUP5 CALLDATALOAD DUP10 ADD ADD PUSH2 0x3E76 JUMP JUMPDEST DUP4 MSTORE PUSH1 0x20 SWAP3 DUP4 ADD SWAP3 SWAP2 SWAP1 SWAP2 ADD SWAP1 PUSH1 0x1 ADD PUSH2 0x3D9B JUMP JUMPDEST POP POP POP POP SWAP3 SWAP2 POP POP JUMP JUMPDEST PUSH1 0x0 DUP3 PUSH1 0x1F DUP4 ADD SLT PUSH2 0x3DE2 JUMPI DUP1 DUP2 REVERT JUMPDEST DUP2 CALLDATALOAD PUSH2 0x3DF0 PUSH2 0x3D86 DUP3 PUSH2 0x5434 JUMP JUMPDEST DUP2 DUP2 MSTORE SWAP2 POP PUSH1 0x20 DUP1 DUP4 ADD SWAP1 DUP5 ADD PUSH1 0x0 JUMPDEST DUP4 DUP2 LT ISZERO PUSH2 0x3DC8 JUMPI PUSH2 0x3E18 DUP8 PUSH1 0x20 DUP5 CALLDATALOAD DUP10 ADD ADD PUSH2 0x3F42 JUMP JUMPDEST DUP4 MSTORE PUSH1 0x20 SWAP3 DUP4 ADD SWAP3 SWAP2 SWAP1 SWAP2 ADD SWAP1 PUSH1 0x1 ADD PUSH2 0x3E00 JUMP JUMPDEST PUSH1 0x0 DUP1 DUP4 PUSH1 0x1F DUP5 ADD SLT PUSH2 0x3E3F JUMPI PUSH1 0x0 DUP1 REVERT JUMPDEST POP DUP2 CALLDATALOAD PUSH8 0xFFFFFFFFFFFFFFFF DUP2 GT ISZERO PUSH2 0x3E57 JUMPI PUSH1 0x0 DUP1 REVERT JUMPDEST PUSH1 0x20 DUP4 ADD SWAP2 POP DUP4 PUSH1 0x20 DUP3 DUP6 ADD ADD GT ISZERO PUSH2 0x3E6F JUMPI PUSH1 0x0 DUP1 REVERT JUMPDEST SWAP3 POP SWAP3 SWAP1 POP JUMP JUMPDEST PUSH1 0x0 DUP3 PUSH1 0x1F DUP4 ADD SLT PUSH2 0x3E86 JUMPI DUP1 DUP2 REVERT JUMPDEST DUP2 CALLDATALOAD PUSH8 0xFFFFFFFFFFFFFFFF DUP2 GT ISZERO PUSH2 0x3E9C JUMPI DUP2 DUP3 REVERT JUMPDEST PUSH2 0x3ECD PUSH1 0x20 PUSH32 0xFFFFFFFFFFFFFFFFFFFFFFFFFFFFFFFFFFFFFFFFFFFFFFFFFFFFFFFFFFFFFFE0 PUSH1 0x1F DUP5 ADD AND ADD PUSH2 0x540D JUMP JUMPDEST SWAP2 POP DUP1 DUP3 MSTORE DUP4 PUSH1 0x20 DUP3 DUP6 ADD ADD GT ISZERO PUSH2 0x3EE4 JUMPI PUSH1 0x0 DUP1 REVERT JUMPDEST DUP1 PUSH1 0x20 DUP5 ADD PUSH1 0x20 DUP5 ADD CALLDATACOPY PUSH1 0x0 SWAP1 DUP3 ADD PUSH1 0x20 ADD MSTORE SWAP3 SWAP2 POP POP JUMP JUMPDEST PUSH1 0x0 PUSH1 0x80 DUP3 DUP5 SUB SLT ISZERO PUSH2 0x3F0E JUMPI DUP1 DUP2 REVERT JUMPDEST PUSH2 0x3F18 PUSH1 0x80 PUSH2 0x540D JUMP JUMPDEST SWAP1 POP DUP2 CALLDATALOAD DUP2 MSTORE PUSH1 0x20 DUP3 ADD CALLDATALOAD PUSH1 0x20 DUP3 ADD MSTORE PUSH1 0x40 DUP3 ADD CALLDATALOAD PUSH1 0x40 DUP3 ADD MSTORE PUSH1 0x60 DUP3 ADD CALLDATALOAD PUSH1 0x60 DUP3 ADD MSTORE SWAP3 SWAP2 POP POP JUMP JUMPDEST PUSH1 0x0 PUSH2 0x180 DUP1 DUP4 DUP6 SUB SLT ISZERO PUSH2 0x3F55 JUMPI DUP2 DUP3 REVERT JUMPDEST PUSH2 0x3F5E DUP2 PUSH2 0x540D JUMP JUMPDEST SWAP2 POP POP PUSH2 0x3F6B DUP4 DUP4 PUSH2 0x3D44 JUMP JUMPDEST DUP2 MSTORE PUSH2 0x3F7A DUP4 PUSH1 0x20 DUP5 ADD PUSH2 0x3D44 JUMP JUMPDEST PUSH1 0x20 DUP3 ADD MSTORE PUSH2 0x3F8C DUP4 PUSH1 0x40 DUP5 ADD PUSH2 0x3D44 JUMP JUMPDEST PUSH1 0x40 DUP3 ADD MSTORE PUSH2 0x3F9E DUP4 PUSH1 0x60 DUP5 ADD PUSH2 0x3D44 JUMP JUMPDEST PUSH1 0x60 DUP3 ADD MSTORE PUSH1 0x80 DUP3 ADD CALLDATALOAD PUSH1 0x80 DUP3 ADD MSTORE PUSH1 0xA0 DUP3 ADD CALLDATALOAD PUSH1 0xA0 DUP3 ADD MSTORE PUSH1 0xC0 DUP3 ADD CALLDATALOAD PUSH1 0xC0 DUP3 ADD MSTORE PUSH1 0xE0 DUP3 ADD CALLDATALOAD PUSH1 0xE0 DUP3 ADD MSTORE PUSH2 0x100 DUP1 DUP4 ADD CALLDATALOAD DUP2 DUP4 ADD MSTORE POP PUSH2 0x120 DUP1 DUP4 ADD CALLDATALOAD DUP2 DUP4 ADD MSTORE POP PUSH2 0x140 DUP1 DUP4 ADD CALLDATALOAD PUSH8 0xFFFFFFFFFFFFFFFF DUP1 DUP3 GT ISZERO PUSH2 0x4000 JUMPI PUSH1 0x0 DUP1 REVERT JUMPDEST PUSH2 0x400C DUP7 DUP4 DUP8 ADD PUSH2 0x3E76 JUMP JUMPDEST DUP4 DUP6 ADD MSTORE PUSH2 0x160 SWAP3 POP DUP3 DUP6 ADD CALLDATALOAD SWAP2 POP DUP1 DUP3 GT ISZERO PUSH2 0x4028 JUMPI PUSH1 0x0 DUP1 REVERT JUMPDEST POP PUSH2 0x4035 DUP6 DUP3 DUP7 ADD PUSH2 0x3E76 JUMP JUMPDEST DUP3 DUP5 ADD MSTORE POP POP SWAP3 SWAP2 POP POP JUMP JUMPDEST PUSH1 0x0 PUSH1 0x20 DUP3 DUP5 SUB SLT ISZERO PUSH2 0x4053 JUMPI PUSH1 0x0 DUP1 REVERT JUMPDEST PUSH2 0x689 DUP4 DUP4 PUSH2 0x3D44 JUMP JUMPDEST PUSH1 0x0 DUP1 PUSH1 0x40 DUP4 DUP6 SUB SLT ISZERO PUSH2 0x4070 JUMPI PUSH1 0x0 DUP1 REVERT JUMPDEST PUSH2 0x407A DUP5 DUP5 PUSH2 0x3D44 JUMP JUMPDEST SWAP2 POP PUSH2 0x4089 DUP5 PUSH1 0x20 DUP6 ADD PUSH2 0x3D44 JUMP JUMPDEST SWAP1 POP SWAP3 POP SWAP3 SWAP1 POP JUMP JUMPDEST PUSH1 0x0 DUP1 PUSH1 0x40 DUP4 DUP6 SUB SLT ISZERO PUSH2 0x40A5 JUMPI PUSH1 0x0 DUP1 REVERT JUMPDEST PUSH2 0x40AF DUP5 DUP5 PUSH2 0x3D44 JUMP JUMPDEST SWAP2 POP PUSH1 0x20 DUP4 ADD CALLDATALOAD DUP1 ISZERO ISZERO DUP2 EQ PUSH2 0x40C4 JUMPI PUSH1 0x0 DUP1 REVERT JUMPDEST DUP1 SWAP2 POP POP SWAP3 POP SWAP3 SWAP1 POP JUMP JUMPDEST PUSH1 0x0 PUSH1 0x20 DUP3 DUP5 SUB SLT ISZERO PUSH2 0x40E1 JUMPI PUSH1 0x0 DUP1 REVERT JUMPDEST DUP2 CALLDATALOAD PUSH8 0xFFFFFFFFFFFFFFFF DUP2 GT ISZERO PUSH2 0x40F8 JUMPI PUSH1 0x0 DUP1 REVERT JUMPDEST PUSH2 0x4104 DUP5 DUP3 DUP6 ADD PUSH2 0x3DD2 JUMP JUMPDEST SWAP5 SWAP4 POP POP POP POP JUMP JUMPDEST PUSH1 0x0 DUP1 PUSH1 0x0 PUSH1 0x60 DUP5 DUP7 SUB SLT ISZERO PUSH2 0x4120 JUMPI DUP1 DUP2 REVERT JUMPDEST DUP4 CALLDATALOAD PUSH8 0xFFFFFFFFFFFFFFFF DUP1 DUP3 GT ISZERO PUSH2 0x4137 JUMPI DUP3 DUP4 REVERT JUMPDEST PUSH2 0x4143 DUP8 DUP4 DUP9 ADD PUSH2 0x3DD2 JUMP JUMPDEST SWAP5 POP PUSH1 0x20 SWAP2 POP DUP2 DUP7 ADD CALLDATALOAD DUP2 DUP2 GT ISZERO PUSH2 0x4159 JUMPI DUP4 DUP5 REVERT JUMPDEST DUP1 DUP8 ADD DUP9 PUSH1 0x1F DUP3 ADD SLT PUSH2 0x416A JUMPI DUP5 DUP6 REVERT JUMPDEST DUP1 CALLDATALOAD SWAP2 POP PUSH2 0x417A PUSH2 0x3D86 DUP4 PUSH2 0x5434 JUMP JUMPDEST DUP3 DUP2 MSTORE DUP5 DUP2 ADD SWAP1 DUP3 DUP7 ADD DUP7 DUP6 MUL DUP5 ADD DUP8 ADD DUP13 LT ISZERO PUSH2 0x4196 JUMPI DUP8 DUP9 REVERT JUMPDEST DUP8 SWAP4 POP JUMPDEST DUP5 DUP5 LT ISZERO PUSH2 0x41B8 JUMPI DUP1 CALLDATALOAD DUP4 MSTORE PUSH1 0x1 SWAP4 SWAP1 SWAP4 ADD SWAP3 SWAP2 DUP7 ADD SWAP2 DUP7 ADD PUSH2 0x419A JUMP JUMPDEST POP SWAP7 POP POP POP POP PUSH1 0x40 DUP7 ADD CALLDATALOAD SWAP2 POP DUP1 DUP3 GT ISZERO PUSH2 0x41D1 JUMPI DUP3 DUP4 REVERT JUMPDEST POP PUSH2 0x41DE DUP7 DUP3 DUP8 ADD PUSH2 0x3D68 JUMP JUMPDEST SWAP2 POP POP SWAP3 POP SWAP3 POP SWAP3 JUMP JUMPDEST PUSH1 0x0 DUP1 PUSH1 0x0 PUSH1 0x60 DUP5 DUP7 SUB SLT ISZERO PUSH2 0x41FC JUMPI DUP1 DUP2 REVERT JUMPDEST DUP4 CALLDATALOAD PUSH8 0xFFFFFFFFFFFFFFFF DUP1 DUP3 GT ISZERO PUSH2 0x4213 JUMPI DUP3 DUP4 REVERT JUMPDEST PUSH2 0x421F DUP8 DUP4 DUP9 ADD PUSH2 0x3DD2 JUMP JUMPDEST SWAP5 POP PUSH1 0x20 DUP7 ADD CALLDATALOAD SWAP4 POP PUSH1 0x40 DUP7 ADD CALLDATALOAD SWAP2 POP DUP1 DUP3 GT ISZERO PUSH2 0x41D1 JUMPI DUP3 DUP4 REVERT JUMPDEST PUSH1 0x0 PUSH1 0x20 DUP3 DUP5 SUB SLT ISZERO PUSH2 0x424D JUMPI PUSH1 0x0 DUP1 REVERT JUMPDEST POP CALLDATALOAD SWAP2 SWAP1 POP JUMP JUMPDEST PUSH1 0x0 DUP1 PUSH1 0x40 DUP4 DUP6 SUB SLT ISZERO PUSH2 0x4267 JUMPI PUSH1 0x0 DUP1 REVERT JUMPDEST DUP3 CALLDATALOAD SWAP2 POP PUSH1 0x20 DUP4 ADD CALLDATALOAD PUSH2 0x40C4 DUP2 PUSH2 0x5481 JUMP JUMPDEST PUSH1 0x0 DUP1 PUSH1 0x0 DUP1 PUSH1 0x60 DUP6 DUP8 SUB SLT ISZERO PUSH2 0x428F JUMPI PUSH1 0x0 DUP1 REVERT JUMPDEST DUP5 CALLDATALOAD SWAP4 POP PUSH2 0x42A0 DUP7 PUSH1 0x20 DUP8 ADD PUSH2 0x3D44 JUMP JUMPDEST SWAP3 POP PUSH1 0x40 DUP6 ADD CALLDATALOAD PUSH8 0xFFFFFFFFFFFFFFFF DUP2 GT ISZERO PUSH2 0x42BC JUMPI PUSH1 0x0 DUP1 REVERT JUMPDEST PUSH2 0x42C8 DUP8 DUP3 DUP9 ADD PUSH2 0x3E2D JUMP JUMPDEST SWAP6 SWAP9 SWAP5 SWAP8 POP SWAP6 POP POP POP POP JUMP JUMPDEST PUSH1 0x0 DUP1 PUSH1 0x0 PUSH1 0x60 DUP5 DUP7 SUB SLT ISZERO PUSH2 0x42E9 JUMPI PUSH1 0x0 DUP1 REVERT JUMPDEST DUP4 CALLDATALOAD SWAP3 POP PUSH1 0x20 DUP5 ADD CALLDATALOAD PUSH2 0x42FB DUP2 PUSH2 0x5481 JUMP JUMPDEST SWAP2 POP PUSH1 0x40 DUP5 ADD CALLDATALOAD PUSH8 0xFFFFFFFFFFFFFFFF DUP2 GT ISZERO PUSH2 0x4317 JUMPI PUSH1 0x0 DUP1 REVERT JUMPDEST PUSH2 0x41DE DUP7 DUP3 DUP8 ADD PUSH2 0x3E76 JUMP JUMPDEST PUSH1 0x0 PUSH1 0x20 DUP3 DUP5 SUB SLT ISZERO PUSH2 0x4335 JUMPI PUSH1 0x0 DUP1 REVERT JUMPDEST DUP2 CALLDATALOAD PUSH2 0x689 DUP2 PUSH2 0x54A3 JUMP JUMPDEST PUSH1 0x0 PUSH1 0x20 DUP3 DUP5 SUB SLT ISZERO PUSH2 0x4352 JUMPI PUSH1 0x0 DUP1 REVERT JUMPDEST DUP2 MLOAD PUSH2 0x689 DUP2 PUSH2 0x54A3 JUMP JUMPDEST PUSH1 0x0 DUP1 PUSH2 0x100 DUP4 DUP6 SUB SLT ISZERO PUSH2 0x4371 JUMPI PUSH1 0x0 DUP1 REVERT JUMPDEST PUSH2 0x437B DUP5 DUP5 PUSH2 0x3EFD JUMP JUMPDEST SWAP2 POP PUSH2 0x4089 DUP5 PUSH1 0x80 DUP6 ADD PUSH2 0x3EFD JUMP JUMPDEST PUSH1 0x0 PUSH1 0x20 DUP3 DUP5 SUB SLT ISZERO PUSH2 0x439C JUMPI PUSH1 0x0 DUP1 REVERT JUMPDEST DUP2 CALLDATALOAD PUSH8 0xFFFFFFFFFFFFFFFF DUP2 GT ISZERO PUSH2 0x43B3 JUMPI PUSH1 0x0 DUP1 REVERT JUMPDEST PUSH2 0x4104 DUP5 DUP3 DUP6 ADD PUSH2 0x3F42 JUMP JUMPDEST PUSH1 0x0 DUP1 PUSH1 0x0 DUP1 PUSH1 0x0 PUSH2 0x100 DUP7 DUP9 SUB SLT ISZERO PUSH2 0x43D8 JUMPI PUSH1 0x0 DUP1 REVERT JUMPDEST DUP6 CALLDATALOAD PUSH8 0xFFFFFFFFFFFFFFFF DUP2 GT ISZERO PUSH2 0x43EF JUMPI PUSH1 0x0 DUP1 REVERT JUMPDEST PUSH2 0x43FB DUP9 DUP3 DUP10 ADD PUSH2 0x3F42 JUMP JUMPDEST SWAP6 POP POP PUSH2 0x440B DUP8 PUSH1 0x20 DUP9 ADD PUSH2 0x3D44 JUMP JUMPDEST SWAP4 POP PUSH1 0x40 DUP7 ADD CALLDATALOAD SWAP3 POP PUSH1 0x60 DUP7 ADD CALLDATALOAD SWAP2 POP PUSH2 0x4428 DUP8 PUSH1 0x80 DUP9 ADD PUSH2 0x3EFD JUMP JUMPDEST SWAP1 POP SWAP3 SWAP6 POP SWAP3 SWAP6 SWAP1 SWAP4 POP JUMP JUMPDEST PUSH1 0x0 DUP1 PUSH1 0x0 DUP1 PUSH1 0x80 DUP6 DUP8 SUB SLT ISZERO PUSH2 0x4449 JUMPI DUP2 DUP3 REVERT JUMPDEST DUP5 CALLDATALOAD PUSH8 0xFFFFFFFFFFFFFFFF DUP1 DUP3 GT ISZERO PUSH2 0x4460 JUMPI DUP4 DUP5 REVERT JUMPDEST PUSH2 0x446C DUP9 DUP4 DUP10 ADD PUSH2 0x3F42 JUMP JUMPDEST SWAP6 POP PUSH1 0x20 DUP8 ADD CALLDATALOAD SWAP2 POP DUP1 DUP3 GT ISZERO PUSH2 0x4481 JUMPI DUP4 DUP5 REVERT JUMPDEST PUSH2 0x448D DUP9 DUP4 DUP10 ADD PUSH2 0x3F42 JUMP JUMPDEST SWAP5 POP PUSH1 0x40 DUP8 ADD CALLDATALOAD SWAP2 POP DUP1 DUP3 GT ISZERO PUSH2 0x44A2 JUMPI DUP4 DUP5 REVERT JUMPDEST PUSH2 0x44AE DUP9 DUP4 DUP10 ADD PUSH2 0x3E76 JUMP JUMPDEST SWAP4 POP PUSH1 0x60 DUP8 ADD CALLDATALOAD SWAP2 POP DUP1 DUP3 GT ISZERO PUSH2 0x44C4 JUMPI PUSH1 0x0 DUP1 REVERT JUMPDEST POP PUSH2 0x44D1 DUP8 DUP3 DUP9 ADD PUSH2 0x3E76 JUMP JUMPDEST SWAP2 POP POP SWAP3 SWAP6 SWAP2 SWAP5 POP SWAP3 POP JUMP JUMPDEST PUSH1 0x0 DUP1 PUSH1 0x40 DUP4 DUP6 SUB SLT ISZERO PUSH2 0x44F0 JUMPI PUSH1 0x0 DUP1 REVERT JUMPDEST DUP3 CALLDATALOAD PUSH8 0xFFFFFFFFFFFFFFFF DUP2 GT ISZERO PUSH2 0x4507 JUMPI PUSH1 0x0 DUP1 REVERT JUMPDEST PUSH2 0x4513 DUP6 DUP3 DUP7 ADD PUSH2 0x3F42 JUMP JUMPDEST SWAP6 PUSH1 0x20 SWAP5 SWAP1 SWAP5 ADD CALLDATALOAD SWAP5 POP POP POP POP JUMP JUMPDEST PUSH1 0x0 DUP1 PUSH1 0x0 PUSH1 0x60 DUP5 DUP7 SUB SLT ISZERO PUSH2 0x4536 JUMPI DUP1 DUP2 REVERT JUMPDEST DUP4 CALLDATALOAD PUSH8 0xFFFFFFFFFFFFFFFF DUP1 DUP3 GT ISZERO PUSH2 0x454D JUMPI DUP3 DUP4 REVERT JUMPDEST PUSH2 0x4559 DUP8 DUP4 DUP9 ADD PUSH2 0x3F42 JUMP JUMPDEST SWAP5 POP PUSH1 0x20 DUP7 ADD CALLDATALOAD SWAP4 POP PUSH1 0x40 DUP7 ADD CALLDATALOAD SWAP2 POP DUP1 DUP3 GT ISZERO PUSH2 0x4575 JUMPI DUP3 DUP4 REVERT JUMPDEST POP PUSH2 0x41DE DUP7 DUP3 DUP8 ADD PUSH2 0x3E76 JUMP JUMPDEST PUSH1 0x0 DUP1 PUSH1 0x0 DUP1 PUSH1 0x0 DUP1 PUSH1 0x80 DUP8 DUP10 SUB SLT ISZERO PUSH2 0x459B JUMPI PUSH1 0x0 DUP1 REVERT JUMPDEST DUP7 CALLDATALOAD SWAP6 POP PUSH2 0x45AC DUP9 PUSH1 0x20 DUP10 ADD PUSH2 0x3D44 JUMP JUMPDEST SWAP5 POP PUSH1 0x40 DUP8 ADD CALLDATALOAD PUSH8 0xFFFFFFFFFFFFFFFF DUP1 DUP3 GT ISZERO PUSH2 0x45C9 JUMPI PUSH1 0x0 DUP1 REVERT JUMPDEST PUSH2 0x45D5 DUP11 DUP4 DUP12 ADD PUSH2 0x3E2D JUMP JUMPDEST SWAP1 SWAP7 POP SWAP5 POP PUSH1 0x60 DUP10 ADD CALLDATALOAD SWAP2 POP DUP1 DUP3 GT ISZERO PUSH2 0x45EE JUMPI PUSH1 0x0 DUP1 REVERT JUMPDEST POP PUSH2 0x45FB DUP10 DUP3 DUP11 ADD PUSH2 0x3E2D JUMP JUMPDEST SWAP8 SWAP11 SWAP7 SWAP10 POP SWAP5 SWAP8 POP SWAP3 SWAP6 SWAP4 SWAP5 SWAP3 POP POP POP JUMP JUMPDEST PUSH1 0x0 DUP1 PUSH1 0x0 PUSH1 0x60 DUP5 DUP7 SUB SLT ISZERO PUSH2 0x4622 JUMPI PUSH1 0x0 DUP1 REVERT JUMPDEST POP POP DUP2 CALLDATALOAD SWAP4 PUSH1 0x20 DUP4 ADD CALLDATALOAD SWAP4 POP PUSH1 0x40 SWAP1 SWAP3 ADD CALLDATALOAD SWAP2 SWAP1 POP JUMP JUMPDEST PUSH1 0x0 DUP2 MLOAD DUP1 DUP5 MSTORE PUSH2 0x4651 DUP2 PUSH1 0x20 DUP7 ADD PUSH1 0x20 DUP7 ADD PUSH2 0x5455 JUMP JUMPDEST PUSH1 0x1F ADD PUSH32 0xFFFFFFFFFFFFFFFFFFFFFFFFFFFFFFFFFFFFFFFFFFFFFFFFFFFFFFFFFFFFFFE0 AND SWAP3 SWAP1 SWAP3 ADD PUSH1 0x20 ADD SWAP3 SWAP2 POP POP JUMP JUMPDEST PUSH32 0x6279746573206D616B65724173736574446174612C0000000000000000000000 DUP2 MSTORE PUSH1 0x15 ADD SWAP1 JUMP JUMPDEST PUSH32 0x62797465732074616B6572417373657444617461000000000000000000000000 DUP2 MSTORE PUSH1 0x14 ADD SWAP1 JUMP JUMPDEST PUSH32 0x2900000000000000000000000000000000000000000000000000000000000000 DUP2 MSTORE PUSH1 0x1 ADD SWAP1 JUMP JUMPDEST DUP1 MLOAD DUP3 MSTORE PUSH1 0x20 DUP2 ADD MLOAD PUSH1 0x20 DUP4 ADD MSTORE PUSH1 0x40 DUP2 ADD MLOAD PUSH1 0x40 DUP4 ADD MSTORE PUSH1 0x60 DUP2 ADD MLOAD PUSH1 0x60 DUP4 ADD MSTORE POP POP JUMP JUMPDEST DUP1 MLOAD PUSH1 0xFF AND DUP3 MSTORE PUSH1 0x20 DUP1 DUP3 ADD MLOAD SWAP1 DUP4 ADD MSTORE PUSH1 0x40 SWAP1 DUP2 ADD MLOAD SWAP2 ADD MSTORE JUMP JUMPDEST PUSH1 0x0 DUP3 DUP5 DUP4 CALLDATACOPY POP PUSH1 0x0 SWAP2 ADD SWAP1 DUP2 MSTORE SWAP2 SWAP1 POP JUMP JUMPDEST PUSH1 0x0 DUP3 MLOAD PUSH2 0x4765 DUP2 DUP5 PUSH1 0x20 DUP8 ADD PUSH2 0x5455 JUMP JUMPDEST SWAP2 SWAP1 SWAP2 ADD SWAP3 SWAP2 POP POP JUMP JUMPDEST PUSH32 0x19457468657265756D205369676E6564204D6573736167653A0A333200000000 DUP2 MSTORE PUSH1 0x1C DUP2 ADD SWAP2 SWAP1 SWAP2 MSTORE PUSH1 0x3C ADD SWAP1 JUMP JUMPDEST PUSH32 0x5A65726F45785472616E73616374696F6E280000000000000000000000000000 DUP2 MSTORE PUSH32 0x75696E743235362073616C742C00000000000000000000000000000000000000 PUSH1 0x12 DUP3 ADD MSTORE PUSH32 0x61646472657373207369676E6572416464726573732C00000000000000000000 PUSH1 0x1F DUP3 ADD MSTORE PUSH32 0x6279746573206461746100000000000000000000000000000000000000000000 PUSH1 0x35 DUP3 ADD MSTORE PUSH32 0x2900000000000000000000000000000000000000000000000000000000000000 PUSH1 0x3F DUP3 ADD MSTORE PUSH1 0x40 ADD SWAP1 JUMP JUMPDEST PUSH1 0x0 PUSH32 0x4F72646572280000000000000000000000000000000000000000000000000000 DUP3 MSTORE PUSH32 0x61646472657373206D616B6572416464726573732C0000000000000000000000 PUSH1 0x6 DUP4 ADD MSTORE PUSH32 0x616464726573732074616B6572416464726573732C0000000000000000000000 PUSH1 0x1B DUP4 ADD MSTORE PUSH32 0x6164647265737320666565526563697069656E74416464726573732C00000000 PUSH1 0x30 DUP4 ADD MSTORE PUSH32 0x616464726573732073656E646572416464726573732C00000000000000000000 PUSH1 0x4C DUP4 ADD MSTORE PUSH32 0x75696E74323536206D616B65724173736574416D6F756E742C00000000000000 PUSH1 0x62 DUP4 ADD MSTORE PUSH32 0x75696E743235362074616B65724173736574416D6F756E742C00000000000000 PUSH1 0x7B DUP4 ADD MSTORE PUSH32 0x75696E74323536206D616B65724665652C000000000000000000000000000000 PUSH1 0x94 DUP4 ADD MSTORE PUSH32 0x75696E743235362074616B65724665652C000000000000000000000000000000 PUSH1 0xA5 DUP4 ADD MSTORE PUSH32 0x75696E743235362065787069726174696F6E54696D655365636F6E64732C0000 PUSH1 0xB6 DUP4 ADD MSTORE PUSH32 0x75696E743235362073616C742C00000000000000000000000000000000000000 PUSH1 0xD4 DUP4 ADD MSTORE PUSH2 0xFD9 PUSH2 0x4A19 PUSH2 0x4A14 PUSH1 0xE1 DUP6 ADD PUSH2 0x4683 JUMP JUMPDEST PUSH2 0x46AC JUMP JUMPDEST PUSH2 0x46D5 JUMP JUMPDEST PUSH20 0xFFFFFFFFFFFFFFFFFFFFFFFFFFFFFFFFFFFFFFFF SWAP2 SWAP1 SWAP2 AND DUP2 MSTORE PUSH1 0x20 ADD SWAP1 JUMP JUMPDEST PUSH1 0x0 PUSH20 0xFFFFFFFFFFFFFFFFFFFFFFFFFFFFFFFFFFFFFFFF DUP6 AND DUP3 MSTORE PUSH1 0x60 PUSH1 0x20 DUP4 ADD MSTORE PUSH2 0x4A6E PUSH1 0x60 DUP4 ADD DUP6 PUSH2 0x4639 JUMP JUMPDEST DUP3 DUP2 SUB PUSH1 0x40 DUP5 ADD MSTORE PUSH2 0x4A80 DUP2 DUP6 PUSH2 0x4639 JUMP JUMPDEST SWAP7 SWAP6 POP POP POP POP POP POP JUMP JUMPDEST PUSH1 0x0 PUSH2 0x100 PUSH20 0xFFFFFFFFFFFFFFFFFFFFFFFFFFFFFFFFFFFFFFFF DUP1 DUP13 AND DUP5 MSTORE DUP1 DUP12 AND PUSH1 0x20 DUP6 ADD MSTORE POP DUP9 PUSH1 0x40 DUP5 ADD MSTORE DUP8 PUSH1 0x60 DUP5 ADD MSTORE DUP7 PUSH1 0x80 DUP5 ADD MSTORE DUP6 PUSH1 0xA0 DUP5 ADD MSTORE DUP1 PUSH1 0xC0 DUP5 ADD MSTORE PUSH2 0x4ADC DUP2 DUP5 ADD DUP7 PUSH2 0x4639 JUMP JUMPDEST DUP4 DUP2 SUB PUSH1 0xE0 DUP6 ADD MSTORE PUSH2 0x4AEE DUP2 DUP7 PUSH2 0x4639 JUMP JUMPDEST SWAP13 SWAP12 POP POP POP POP POP POP POP POP POP POP POP POP JUMP JUMPDEST PUSH1 0x20 DUP1 DUP3 MSTORE DUP3 MLOAD DUP3 DUP3 ADD DUP2 SWAP1 MSTORE PUSH1 0x0 SWAP2 DUP5 ADD SWAP1 PUSH1 0x40 DUP5 ADD SWAP1 DUP4 JUMPDEST DUP2 DUP2 LT ISZERO PUSH2 0x4B41 JUMPI PUSH2 0x4B2B DUP4 DUP6 MLOAD PUSH2 0x4724 JUMP JUMPDEST PUSH1 0x20 SWAP4 SWAP1 SWAP4 ADD SWAP3 PUSH1 0x60 SWAP3 SWAP1 SWAP3 ADD SWAP2 PUSH1 0x1 ADD PUSH2 0x4B18 JUMP JUMPDEST POP SWAP1 SWAP6 SWAP5 POP POP POP POP POP JUMP JUMPDEST SWAP1 ISZERO ISZERO DUP2 MSTORE PUSH1 0x20 ADD SWAP1 JUMP JUMPDEST SWAP1 DUP2 MSTORE PUSH1 0x20 ADD SWAP1 JUMP JUMPDEST PUSH1 0x0 DUP5 DUP3 MSTORE PUSH20 0xFFFFFFFFFFFFFFFFFFFFFFFFFFFFFFFFFFFFFFFF DUP5 AND PUSH1 0x20 DUP4 ADD MSTORE PUSH1 0x60 PUSH1 0x40 DUP4 ADD MSTORE PUSH2 0x4B95 PUSH1 0x60 DUP4 ADD DUP5 PUSH2 0x4639 JUMP JUMPDEST SWAP6 SWAP5 POP POP POP POP POP JUMP JUMPDEST PUSH1 0x0 DUP4 DUP3 MSTORE PUSH1 0x40 PUSH1 0x20 DUP4 ADD MSTORE PUSH2 0x686 PUSH1 0x40 DUP4 ADD DUP5 PUSH2 0x4639 JUMP JUMPDEST SWAP4 DUP5 MSTORE PUSH1 0xFF SWAP3 SWAP1 SWAP3 AND PUSH1 0x20 DUP5 ADD MSTORE PUSH1 0x40 DUP4 ADD MSTORE PUSH1 0x60 DUP3 ADD MSTORE PUSH1 0x80 ADD SWAP1 JUMP JUMPDEST PUSH32 0xFFFFFFFF00000000000000000000000000000000000000000000000000000000 SWAP3 SWAP1 SWAP3 AND DUP3 MSTORE PUSH20 0xFFFFFFFFFFFFFFFFFFFFFFFFFFFFFFFFFFFFFFFF AND PUSH1 0x20 DUP3 ADD MSTORE PUSH1 0x40 ADD SWAP1 JUMP JUMPDEST PUSH1 0x0 PUSH1 0x20 DUP3 MSTORE PUSH2 0x689 PUSH1 0x20 DUP4 ADD DUP5 PUSH2 0x4639 JUMP JUMPDEST PUSH1 0x20 DUP1 DUP3 MSTORE PUSH1 0x12 SWAP1 DUP3 ADD MSTORE PUSH32 0x4C454E4754485F36355F52455155495245440000000000000000000000000000 PUSH1 0x40 DUP3 ADD MSTORE PUSH1 0x60 ADD SWAP1 JUMP JUMPDEST PUSH1 0x20 DUP1 DUP3 MSTORE PUSH1 0xD SWAP1 DUP3 ADD MSTORE PUSH32 0x494E56414C49445F54414B455200000000000000000000000000000000000000 PUSH1 0x40 DUP3 ADD MSTORE PUSH1 0x60 ADD SWAP1 JUMP JUMPDEST PUSH1 0x20 DUP1 DUP3 MSTORE PUSH1 0xE SWAP1 DUP3 ADD MSTORE PUSH32 0x4F524445525F4F56455246494C4C000000000000000000000000000000000000 PUSH1 0x40 DUP3 ADD MSTORE PUSH1 0x60 ADD SWAP1 JUMP JUMPDEST PUSH1 0x20 DUP1 DUP3 MSTORE PUSH1 0x11 SWAP1 DUP3 ADD MSTORE PUSH32 0x55494E543235365F554E444552464C4F57000000000000000000000000000000 PUSH1 0x40 DUP3 ADD MSTORE PUSH1 0x60 ADD SWAP1 JUMP JUMPDEST PUSH1 0x20 DUP1 DUP3 MSTORE PUSH1 0x1A SWAP1 DUP3 ADD MSTORE PUSH32 0x41535345545F50524F58595F414C52454144595F455849535453000000000000 PUSH1 0x40 DUP3 ADD MSTORE PUSH1 0x60 ADD SWAP1 JUMP JUMPDEST PUSH1 0x20 DUP1 DUP3 MSTORE PUSH1 0x26 SWAP1 DUP3 ADD MSTORE PUSH32 0x475245415445525F4F525F455155414C5F544F5F33325F4C454E4754485F5245 PUSH1 0x40 DUP3 ADD MSTORE PUSH32 0x5155495245440000000000000000000000000000000000000000000000000000 PUSH1 0x60 DUP3 ADD MSTORE PUSH1 0x80 ADD SWAP1 JUMP JUMPDEST PUSH1 0x20 DUP1 DUP3 MSTORE PUSH1 0x15 SWAP1 DUP3 ADD MSTORE PUSH32 0x5349474E41545552455F554E535550504F525445440000000000000000000000 PUSH1 0x40 DUP3 ADD MSTORE PUSH1 0x60 ADD SWAP1 JUMP JUMPDEST PUSH1 0x20 DUP1 DUP3 MSTORE PUSH1 0x10 SWAP1 DUP3 ADD MSTORE PUSH32 0x4449564953494F4E5F42595F5A45524F00000000000000000000000000000000 PUSH1 0x40 DUP3 ADD MSTORE PUSH1 0x60 ADD SWAP1 JUMP JUMPDEST PUSH1 0x20 DUP1 DUP3 MSTORE PUSH1 0x17 SWAP1 DUP3 ADD MSTORE PUSH32 0x494E56414C49445F4F524445525F5349474E4154555245000000000000000000 PUSH1 0x40 DUP3 ADD MSTORE PUSH1 0x60 ADD SWAP1 JUMP JUMPDEST PUSH1 0x20 DUP1 DUP3 MSTORE PUSH1 0xD SWAP1 DUP3 ADD MSTORE PUSH32 0x494E56414C49445F4D414B455200000000000000000000000000000000000000 PUSH1 0x40 DUP3 ADD MSTORE PUSH1 0x60 ADD SWAP1 JUMP JUMPDEST PUSH1 0x20 DUP1 DUP3 MSTORE PUSH1 0x10 SWAP1 DUP3 ADD MSTORE PUSH32 0x55494E543235365F4F564552464C4F5700000000000000000000000000000000 PUSH1 0x40 DUP3 ADD MSTORE PUSH1 0x60 ADD SWAP1 JUMP JUMPDEST PUSH1 0x20 DUP1 DUP3 MSTORE PUSH1 0xF SWAP1 DUP3 ADD MSTORE PUSH32 0x494E56414C49445F54585F484153480000000000000000000000000000000000 PUSH1 0x40 DUP3 ADD MSTORE PUSH1 0x60 ADD SWAP1 JUMP JUMPDEST PUSH1 0x20 DUP1 DUP3 MSTORE PUSH1 0x11 SWAP1 DUP3 ADD MSTORE PUSH32 0x494E56414C49445F5349474E4154555245000000000000000000000000000000 PUSH1 0x40 DUP3 ADD MSTORE PUSH1 0x60 ADD SWAP1 JUMP JUMPDEST PUSH1 0x20 DUP1 DUP3 MSTORE PUSH1 0xE SWAP1 DUP3 ADD MSTORE PUSH32 0x524F554E44494E475F4552524F52000000000000000000000000000000000000 PUSH1 0x40 DUP3 ADD MSTORE PUSH1 0x60 ADD SWAP1 JUMP JUMPDEST PUSH1 0x20 DUP1 DUP3 MSTORE PUSH1 0x10 SWAP1 DUP3 ADD MSTORE PUSH32 0x4641494C45445F455845435554494F4E00000000000000000000000000000000 PUSH1 0x40 DUP3 ADD MSTORE PUSH1 0x60 ADD SWAP1 JUMP JUMPDEST PUSH1 0x20 DUP1 DUP3 MSTORE PUSH1 0xD SWAP1 DUP3 ADD MSTORE PUSH32 0x54414B45525F4F56455250415900000000000000000000000000000000000000 PUSH1 0x40 DUP3 ADD MSTORE PUSH1 0x60 ADD SWAP1 JUMP JUMPDEST PUSH1 0x20 DUP1 DUP3 MSTORE PUSH1 0x14 SWAP1 DUP3 ADD MSTORE PUSH32 0x494E56414C49445F54414B45525F414D4F554E54000000000000000000000000 PUSH1 0x40 DUP3 ADD MSTORE PUSH1 0x60 ADD SWAP1 JUMP JUMPDEST PUSH1 0x20 DUP1 DUP3 MSTORE PUSH1 0x1A SWAP1 DUP3 ADD MSTORE PUSH32 0x41535345545F50524F58595F444F45535F4E4F545F4558495354000000000000 PUSH1 0x40 DUP3 ADD MSTORE PUSH1 0x60 ADD SWAP1 JUMP JUMPDEST PUSH1 0x20 DUP1 DUP3 MSTORE PUSH1 0x21 SWAP1 DUP3 ADD MSTORE PUSH32 0x475245415445525F5448414E5F5A45524F5F4C454E4754485F52455155495245 PUSH1 0x40 DUP3 ADD MSTORE PUSH32 0x4400000000000000000000000000000000000000000000000000000000000000 PUSH1 0x60 DUP3 ADD MSTORE PUSH1 0x80 ADD SWAP1 JUMP JUMPDEST PUSH1 0x20 DUP1 DUP3 MSTORE PUSH1 0x11 SWAP1 DUP3 ADD MSTORE PUSH32 0x5349474E41545552455F494C4C4547414C000000000000000000000000000000 PUSH1 0x40 DUP3 ADD MSTORE PUSH1 0x60 ADD SWAP1 JUMP JUMPDEST PUSH1 0x20 DUP1 DUP3 MSTORE PUSH1 0x1E SWAP1 DUP3 ADD MSTORE PUSH32 0x4C454E4754485F475245415445525F5448414E5F305F52455155495245440000 PUSH1 0x40 DUP3 ADD MSTORE PUSH1 0x60 ADD SWAP1 JUMP JUMPDEST PUSH1 0x20 DUP1 DUP3 MSTORE PUSH1 0x17 SWAP1 DUP3 ADD MSTORE PUSH32 0x494E56414C49445F4E45575F4F524445525F45504F4348000000000000000000 PUSH1 0x40 DUP3 ADD MSTORE PUSH1 0x60 ADD SWAP1 JUMP JUMPDEST PUSH1 0x20 DUP1 DUP3 MSTORE PUSH1 0x1E SWAP1 DUP3 ADD MSTORE PUSH32 0x4C454E4754485F475245415445525F5448414E5F335F52455155495245440000 PUSH1 0x40 DUP3 ADD MSTORE PUSH1 0x60 ADD SWAP1 JUMP JUMPDEST PUSH1 0x20 DUP1 DUP3 MSTORE PUSH1 0x14 SWAP1 DUP3 ADD MSTORE PUSH32 0x434F4D504C4554455F46494C4C5F4641494C4544000000000000000000000000 PUSH1 0x40 DUP3 ADD MSTORE PUSH1 0x60 ADD SWAP1 JUMP JUMPDEST PUSH1 0x20 DUP1 DUP3 MSTORE PUSH1 0x12 SWAP1 DUP3 ADD MSTORE PUSH32 0x494E56414C49445F46494C4C5F50524943450000000000000000000000000000 PUSH1 0x40 DUP3 ADD MSTORE PUSH1 0x60 ADD SWAP1 JUMP JUMPDEST PUSH1 0x20 DUP1 DUP3 MSTORE PUSH1 0x12 SWAP1 DUP3 ADD MSTORE PUSH32 0x5245454E5452414E43595F494C4C4547414C0000000000000000000000000000 PUSH1 0x40 DUP3 ADD MSTORE PUSH1 0x60 ADD SWAP1 JUMP JUMPDEST PUSH1 0x20 DUP1 DUP3 MSTORE PUSH1 0x13 SWAP1 DUP3 ADD MSTORE PUSH32 0x4F4E4C595F434F4E54524143545F4F574E455200000000000000000000000000 PUSH1 0x40 DUP3 ADD MSTORE PUSH1 0x60 ADD SWAP1 JUMP JUMPDEST PUSH1 0x20 DUP1 DUP3 MSTORE PUSH1 0x26 SWAP1 DUP3 ADD MSTORE PUSH32 0x475245415445525F4F525F455155414C5F544F5F32305F4C454E4754485F5245 PUSH1 0x40 DUP3 ADD MSTORE PUSH32 0x5155495245440000000000000000000000000000000000000000000000000000 PUSH1 0x60 DUP3 ADD MSTORE PUSH1 0x80 ADD SWAP1 JUMP JUMPDEST PUSH1 0x20 DUP1 DUP3 MSTORE PUSH1 0x10 SWAP1 DUP3 ADD MSTORE PUSH32 0x4F524445525F554E46494C4C41424C4500000000000000000000000000000000 PUSH1 0x40 DUP3 ADD MSTORE PUSH1 0x60 ADD SWAP1 JUMP JUMPDEST PUSH1 0x20 DUP1 DUP3 MSTORE PUSH1 0xE SWAP1 DUP3 ADD MSTORE PUSH32 0x494E56414C49445F53454E444552000000000000000000000000000000000000 PUSH1 0x40 DUP3 ADD MSTORE PUSH1 0x60 ADD SWAP1 JUMP JUMPDEST PUSH1 0x20 DUP1 DUP3 MSTORE PUSH1 0x18 SWAP1 DUP3 ADD MSTORE PUSH32 0x4E454741544956455F5350524541445F52455155495245440000000000000000 PUSH1 0x40 DUP3 ADD MSTORE PUSH1 0x60 ADD SWAP1 JUMP JUMPDEST PUSH1 0x20 DUP1 DUP3 MSTORE PUSH1 0x14 SWAP1 DUP3 ADD MSTORE PUSH32 0x494E56414C49445F54585F5349474E4154555245000000000000000000000000 PUSH1 0x40 DUP3 ADD MSTORE PUSH1 0x60 ADD SWAP1 JUMP JUMPDEST PUSH1 0x20 DUP1 DUP3 MSTORE PUSH1 0x11 SWAP1 DUP3 ADD MSTORE PUSH32 0x4C454E4754485F305F5245515549524544000000000000000000000000000000 PUSH1 0x40 DUP3 ADD MSTORE PUSH1 0x60 ADD SWAP1 JUMP JUMPDEST PUSH1 0x80 DUP2 ADD PUSH2 0xFD9 DUP3 DUP5 PUSH2 0x46FE JUMP JUMPDEST PUSH1 0x0 PUSH2 0x120 DUP3 ADD SWAP1 POP PUSH2 0x53DB DUP3 DUP5 MLOAD PUSH2 0x46FE JUMP JUMPDEST PUSH1 0x20 DUP4 ADD MLOAD PUSH2 0x53ED PUSH1 0x80 DUP5 ADD DUP3 PUSH2 0x46FE JUMP JUMPDEST POP PUSH1 0x40 DUP4 ADD MLOAD PUSH2 0x100 DUP4 ADD MSTORE SWAP3 SWAP2 POP POP JUMP JUMPDEST PUSH1 0x60 DUP2 ADD PUSH2 0xFD9 DUP3 DUP5 PUSH2 0x4724 JUMP JUMPDEST PUSH1 0x40 MLOAD DUP2 DUP2 ADD PUSH8 0xFFFFFFFFFFFFFFFF DUP2 GT DUP3 DUP3 LT OR ISZERO PUSH2 0x542C JUMPI PUSH1 0x0 DUP1 REVERT JUMPDEST PUSH1 0x40 MSTORE SWAP2 SWAP1 POP JUMP JUMPDEST PUSH1 0x0 PUSH8 0xFFFFFFFFFFFFFFFF DUP3 GT ISZERO PUSH2 0x544B JUMPI PUSH1 0x0 DUP1 REVERT JUMPDEST POP PUSH1 0x20 SWAP1 DUP2 MUL ADD SWAP1 JUMP JUMPDEST PUSH1 0x0 JUMPDEST DUP4 DUP2 LT ISZERO PUSH2 0x5470 JUMPI DUP2 DUP2 ADD MLOAD DUP4 DUP3 ADD MSTORE PUSH1 0x20 ADD PUSH2 0x5458 JUMP JUMPDEST DUP4 DUP2 GT ISZERO PUSH2 0x2812 JUMPI POP POP PUSH1 0x0 SWAP2 ADD MSTORE JUMP JUMPDEST PUSH20 0xFFFFFFFFFFFFFFFFFFFFFFFFFFFFFFFFFFFFFFFF DUP2 AND DUP2 EQ PUSH2 0x2371 JUMPI PUSH1 0x0 DUP1 REVERT JUMPDEST PUSH32 0xFFFFFFFF00000000000000000000000000000000000000000000000000000000 DUP2 AND DUP2 EQ PUSH2 0x2371 JUMPI PUSH1 0x0 DUP1 REVERT INVALID LOG3 PUSH6 0x627A7A723058 KECCAK256 0xeb 0xe0 0x49 0xa8 PUSH20 0x318E73940EFF27799C21C922C750F0078D0CF040 STOP SWAP5 0xda STOP MUL 0xd3 0x4a PUSH13 0x6578706572696D656E74616CF5 PUSH5 0x736F6C6343 STOP SDIV EXP STOP BLOCKHASH "
			}
		}
	},
	"sourceTreeHashHex": "0x3777868de522b11bf7294002a26c4633a400d7159b22e1994769de2da0659360",
	"compiler": {
		"name": "solc",
		"version": "soljson-v0.5.10+commit.5a6ea5b1.js",
		"settings": {
			"optimizer": {
				"enabled": true,
				"runs": 1000000,
				"details": {
					"yul": true,
					"deduplicate": true,
					"cse": true,
					"constantOptimizer": true
				}
			},
			"outputSelection": {
				"*": {
					"*": [
						"abi",
						"devdoc",
						"evm.bytecode.object",
						"evm.bytecode.sourceMap",
						"evm.deployedBytecode.object",
						"evm.deployedBytecode.sourceMap"
					]
				}
			},
			"evmVersion": "constantinople",
			"remappings": [
				"@0x/contracts-exchange-libs=/Users/fabioberger/Documents/projects/0x_project/0x-monorepo-one/contracts/exchange/node_modules/@0x/contracts-exchange-libs",
				"@0x/contracts-utils=/Users/fabioberger/Documents/projects/0x_project/0x-monorepo-one/contracts/exchange/node_modules/@0x/contracts-utils",
				"@0x/contracts-erc20=/Users/fabioberger/Documents/projects/0x_project/0x-monorepo-one/contracts/exchange/node_modules/@0x/contracts-erc20"
			]
		}
	}
}