{
	"schemaVersion": "2.0.0",
	"contractName": "Validator",
	"compilerOutput": {
		"abi": [
			{
				"constant": true,
				"inputs": [
					{
						"name": "hash",
						"type": "bytes32"
					},
					{
						"name": "signerAddress",
						"type": "address"
					},
					{
						"name": "signature",
						"type": "bytes"
					}
				],
				"name": "isValidSignature",
				"outputs": [
					{
						"name": "isValid",
						"type": "bool"
					}
				],
				"payable": false,
				"stateMutability": "view",
				"type": "function"
			},
			{
				"inputs": [
					{
						"name": "validSigner",
						"type": "address"
					}
				],
				"payable": false,
				"stateMutability": "nonpayable",
				"type": "constructor"
			}
		],
		"devdoc": {
			"methods": {
				"constructor": {
					"details": "constructs a new `Validator` with a single valid signer.",
					"params": {
						"validSigner": "The sole, valid signer."
					}
				},
				"isValidSignature(bytes32,address,bytes)": {
					"details": "Verifies that a signature is valid. `signer` must match `VALID_SIGNER`.",
					"params": {
						"hash": "Message hash that is signed.",
						"signature": "Proof of signing.",
						"signerAddress": "Address that should have signed the given hash."
					},
					"return": "Validity of signature."
				}
			}
		},
		"evm": {
			"bytecode": {
				"linkReferences": {},
				"object": "0x608060405234801561001057600080fd5b5060405161018c38038061018c8339818101604052602081101561003357600080fd5b5051600080546001600160a01b039092166001600160a01b0319909216919091179055610127806100656000396000f3fe6080604052348015600f57600080fd5b506004361060285760003560e01c80639363470214602d575b600080fd5b60b960048036036060811015604157600080fd5b81359173ffffffffffffffffffffffffffffffffffffffff60208201351691810190606081016040820135640100000000811115607d57600080fd5b820183602082011115608e57600080fd5b8035906020019184600183028401116401000000008311171560af57600080fd5b50909250905060cd565b604080519115158252519081900360200190f35b505060005473ffffffffffffffffffffffffffffffffffffffff90811691161491905056fea265627a7a72305820ea1bdec96915487f4338fb2e14d14d38fd66f89f5bda6b6af245814d7efb15a264736f6c634300050a0032",
				"opcodes": "PUSH1 0x80 PUSH1 0x40 MSTORE CALLVALUE DUP1 ISZERO PUSH2 0x10 JUMPI PUSH1 0x0 DUP1 REVERT JUMPDEST POP PUSH1 0x40 MLOAD PUSH2 0x18C CODESIZE SUB DUP1 PUSH2 0x18C DUP4 CODECOPY DUP2 DUP2 ADD PUSH1 0x40 MSTORE PUSH1 0x20 DUP2 LT ISZERO PUSH2 0x33 JUMPI PUSH1 0x0 DUP1 REVERT JUMPDEST POP MLOAD PUSH1 0x0 DUP1 SLOAD PUSH1 0x1 PUSH1 0x1 PUSH1 0xA0 SHL SUB SWAP1 SWAP3 AND PUSH1 0x1 PUSH1 0x1 PUSH1 0xA0 SHL SUB NOT SWAP1 SWAP3 AND SWAP2 SWAP1 SWAP2 OR SWAP1 SSTORE PUSH2 0x127 DUP1 PUSH2 0x65 PUSH1 0x0 CODECOPY PUSH1 0x0 RETURN INVALID PUSH1 0x80 PUSH1 0x40 MSTORE CALLVALUE DUP1 ISZERO PUSH1 0xF JUMPI PUSH1 0x0 DUP1 REVERT JUMPDEST POP PUSH1 0x4 CALLDATASIZE LT PUSH1 0x28 JUMPI PUSH1 0x0 CALLDATALOAD PUSH1 0xE0 SHR DUP1 PUSH4 0x93634702 EQ PUSH1 0x2D JUMPI JUMPDEST PUSH1 0x0 DUP1 REVERT JUMPDEST PUSH1 0xB9 PUSH1 0x4 DUP1 CALLDATASIZE SUB PUSH1 0x60 DUP2 LT ISZERO PUSH1 0x41 JUMPI PUSH1 0x0 DUP1 REVERT JUMPDEST DUP2 CALLDATALOAD SWAP2 PUSH20 0xFFFFFFFFFFFFFFFFFFFFFFFFFFFFFFFFFFFFFFFF PUSH1 0x20 DUP3 ADD CALLDATALOAD AND SWAP2 DUP2 ADD SWAP1 PUSH1 0x60 DUP2 ADD PUSH1 0x40 DUP3 ADD CALLDATALOAD PUSH5 0x100000000 DUP2 GT ISZERO PUSH1 0x7D JUMPI PUSH1 0x0 DUP1 REVERT JUMPDEST DUP3 ADD DUP4 PUSH1 0x20 DUP3 ADD GT ISZERO PUSH1 0x8E JUMPI PUSH1 0x0 DUP1 REVERT JUMPDEST DUP1 CALLDATALOAD SWAP1 PUSH1 0x20 ADD SWAP2 DUP5 PUSH1 0x1 DUP4 MUL DUP5 ADD GT PUSH5 0x100000000 DUP4 GT OR ISZERO PUSH1 0xAF JUMPI PUSH1 0x0 DUP1 REVERT JUMPDEST POP SWAP1 SWAP3 POP SWAP1 POP PUSH1 0xCD JUMP JUMPDEST PUSH1 0x40 DUP1 MLOAD SWAP2 ISZERO ISZERO DUP3 MSTORE MLOAD SWAP1 DUP2 SWAP1 SUB PUSH1 0x20 ADD SWAP1 RETURN JUMPDEST POP POP PUSH1 0x0 SLOAD PUSH20 0xFFFFFFFFFFFFFFFFFFFFFFFFFFFFFFFFFFFFFFFF SWAP1 DUP2 AND SWAP2 AND EQ SWAP2 SWAP1 POP JUMP INVALID LOG2 PUSH6 0x627A7A723058 KECCAK256 0xea SHL 0xde 0xc9 PUSH10 0x15487F4338FB2E14D14D CODESIZE REVERT PUSH7 0xF89F5BDA6B6AF2 GASLIMIT DUP2 0x4d PUSH31 0xFB15A264736F6C634300050A00320000000000000000000000000000000000 "
			}
		}
	},
	"sourceTreeHashHex": "0x5a763711e96ab2cf0f7fa97d02ec2219b41ec6785f6eed79a61e2d9a2f85c92c",
	"compiler": {
		"name": "solc",
		"version": "soljson-v0.5.10+commit.5a6ea5b1.js",
		"settings": {
			"optimizer": {
				"enabled": true,
				"runs": 1000000,
				"details": {
					"yul": true,
					"deduplicate": true,
					"cse": true,
					"constantOptimizer": true
				}
			},
			"outputSelection": {
				"*": {
					"*": [
						"abi",
						"devdoc",
						"evm.bytecode.object",
						"evm.bytecode.sourceMap",
						"evm.deployedBytecode.object",
						"evm.deployedBytecode.sourceMap"
					]
				}
			},
			"evmVersion": "constantinople",
			"remappings": [
				"@0x/contracts-exchange-libs=/Users/fabioberger/Documents/projects/0x_project/0x-monorepo-one/contracts/exchange/node_modules/@0x/contracts-exchange-libs",
				"@0x/contracts-utils=/Users/fabioberger/Documents/projects/0x_project/0x-monorepo-one/contracts/exchange/node_modules/@0x/contracts-utils",
				"@0x/contracts-erc20=/Users/fabioberger/Documents/projects/0x_project/0x-monorepo-one/contracts/exchange/node_modules/@0x/contracts-erc20"
			]
		}
	}
}