{
	"schemaVersion": "2.0.0",
	"contractName": "Whitelist",
	"compilerOutput": {
		"abi": [
			{
				"constant": false,
				"inputs": [
					{
						"components": [
							{
								"name": "makerAddress",
								"type": "address"
							},
							{
								"name": "takerAddress",
								"type": "address"
							},
							{
								"name": "feeRecipientAddress",
								"type": "address"
							},
							{
								"name": "senderAddress",
								"type": "address"
							},
							{
								"name": "makerAssetAmount",
								"type": "uint256"
							},
							{
								"name": "takerAssetAmount",
								"type": "uint256"
							},
							{
								"name": "makerFee",
								"type": "uint256"
							},
							{
								"name": "takerFee",
								"type": "uint256"
							},
							{
								"name": "expirationTimeSeconds",
								"type": "uint256"
							},
							{
								"name": "salt",
								"type": "uint256"
							},
							{
								"name": "makerAssetData",
								"type": "bytes"
							},
							{
								"name": "takerAssetData",
								"type": "bytes"
							}
						],
						"name": "order",
						"type": "tuple"
					},
					{
						"name": "takerAssetFillAmount",
						"type": "uint256"
					},
					{
						"name": "salt",
						"type": "uint256"
					},
					{
						"name": "orderSignature",
						"type": "bytes"
					}
				],
				"name": "fillOrderIfWhitelisted",
				"outputs": [],
				"payable": false,
				"stateMutability": "nonpayable",
				"type": "function"
			},
			{
				"constant": true,
				"inputs": [
					{
						"name": "",
						"type": "address"
					}
				],
				"name": "isWhitelisted",
				"outputs": [
					{
						"name": "",
						"type": "bool"
					}
				],
				"payable": false,
				"stateMutability": "view",
				"type": "function"
			},
			{
				"constant": true,
				"inputs": [],
				"name": "owner",
				"outputs": [
					{
						"name": "",
						"type": "address"
					}
				],
				"payable": false,
				"stateMutability": "view",
				"type": "function"
			},
			{
				"constant": true,
				"inputs": [
					{
						"name": "hash",
						"type": "bytes32"
					},
					{
						"name": "signerAddress",
						"type": "address"
					},
					{
						"name": "signature",
						"type": "bytes"
					}
				],
				"name": "isValidSignature",
				"outputs": [
					{
						"name": "isValid",
						"type": "bool"
					}
				],
				"payable": false,
				"stateMutability": "view",
				"type": "function"
			},
			{
				"constant": false,
				"inputs": [
					{
						"name": "target",
						"type": "address"
					},
					{
						"name": "isApproved",
						"type": "bool"
					}
				],
				"name": "updateWhitelistStatus",
				"outputs": [],
				"payable": false,
				"stateMutability": "nonpayable",
				"type": "function"
			},
			{
				"constant": false,
				"inputs": [
					{
						"name": "newOwner",
						"type": "address"
					}
				],
				"name": "transferOwnership",
				"outputs": [],
				"payable": false,
				"stateMutability": "nonpayable",
				"type": "function"
			},
			{
				"inputs": [
					{
						"name": "_exchange",
						"type": "address"
					}
				],
				"payable": false,
				"stateMutability": "nonpayable",
				"type": "constructor"
			}
		],
		"evm": {
			"bytecode": {
				"linkReferences": {},
				"object": "0x608060405234801561001057600080fd5b5060405160208062000dc383398101806040526100309190810190610152565b60008054336001600160a01b031991821617909155600280549091166001600160a01b03831617905560405161008c9030907f050000000000000000000000000000000000000000000000000000000000000090602001610182565b604051602081830303815290604052600390805190602001906100b09291906100b7565b50506101c0565b828054600181600116156101000203166002900490600052602060002090601f016020900481019282601f106100f857805160ff1916838001178555610125565b82800160010185558215610125579182015b8281111561012557825182559160200191906001019061010a565b50610131929150610135565b5090565b61014f91905b80821115610131576000815560010161013b565b90565b60006020828403121561016457600080fd5b81516001600160a01b038116811461017b57600080fd5b9392505050565b6001600160a01b039290921660601b82527fff0000000000000000000000000000000000000000000000000000000000000016601482015260150190565b610bf380620001d06000396000f3fe608060405234801561001057600080fd5b50600436106100725760003560e01c8063936347021161005057806393634702146100ca578063c07732a3146100dd578063f2fde38b146100f057610072565b8063141da876146100775780633af32abf1461008c5780638da5cb5b146100b5575b600080fd5b61008a610085366004610695565b610103565b005b61009f61009a3660046105b0565b610355565b6040516100ac9190610894565b60405180910390f35b6100bd61036a565b6040516100ac9190610873565b61009f6100d8366004610610565b610386565b61008a6100eb3660046105d3565b6103a7565b61008a6100fe3660046105b0565b61044e565b33328114610146576040517f08c379a000000000000000000000000000000000000000000000000000000000815260040161013d90610944565b60405180910390fd5b845173ffffffffffffffffffffffffffffffffffffffff1660009081526001602052604090205460ff166101a6576040517f08c379a000000000000000000000000000000000000000000000000000000000815260040161013d9061090d565b73ffffffffffffffffffffffffffffffffffffffff811660009081526001602052604090205460ff16610205576040517f08c379a000000000000000000000000000000000000000000000000000000000815260040161013d9061089f565b6040516060907fb4be83d5000000000000000000000000000000000000000000000000000000009061023f9088908890879060240161097b565b604080517fffffffffffffffffffffffffffffffffffffffffffffffffffffffffffffffe08184030181529181526020820180517bffffffffffffffffffffffffffffffffffffffffffffffffffffffff167fffffffff000000000000000000000000000000000000000000000000000000009094169390931790925260025491517fbfc8bfce00000000000000000000000000000000000000000000000000000000815290925073ffffffffffffffffffffffffffffffffffffffff9091169063bfc8bfce9061031b90879086908690600390600401610a97565b600060405180830381600087803b15801561033557600080fd5b505af1158015610349573d6000803e3d6000fd5b50505050505050505050565b60016020526000908152604090205460ff1681565b60005473ffffffffffffffffffffffffffffffffffffffff1681565b73ffffffffffffffffffffffffffffffffffffffff83163214949350505050565b60005473ffffffffffffffffffffffffffffffffffffffff1633146103f8576040517f08c379a000000000000000000000000000000000000000000000000000000000815260040161013d906108d6565b73ffffffffffffffffffffffffffffffffffffffff91909116600090815260016020526040902080547fffffffffffffffffffffffffffffffffffffffffffffffffffffffffffffff0016911515919091179055565b60005473ffffffffffffffffffffffffffffffffffffffff16331461049f576040517f08c379a000000000000000000000000000000000000000000000000000000000815260040161013d906108d6565b73ffffffffffffffffffffffffffffffffffffffff8116156104fc57600080547fffffffffffffffffffffffff00000000000000000000000000000000000000001673ffffffffffffffffffffffffffffffffffffffff83161790555b50565b803573ffffffffffffffffffffffffffffffffffffffff8116811461052357600080fd5b92915050565b600082601f830112610539578081fd5b813567ffffffffffffffff81111561054f578182fd5b61058060207fffffffffffffffffffffffffffffffffffffffffffffffffffffffffffffffe0601f84011601610b7d565b915080825283602082850101111561059757600080fd5b8060208401602084013760009082016020015292915050565b6000602082840312156105c257600080fd5b6105cc83836104ff565b9392505050565b600080604083850312156105e657600080fd5b6105f084846104ff565b91506020830135801515811461060557600080fd5b809150509250929050565b60008060008060608587031215610625578182fd5b8435935061063686602087016104ff565b9250604085013567ffffffffffffffff80821115610652578384fd5b81870188601f820112610663578485fd5b8035925081831115610673578485fd5b886020848301011115610684578485fd5b959894975050602090940194505050565b600080600080608085870312156106aa578384fd5b843567ffffffffffffffff808211156106c1578586fd5b6101809187018089038313156106d5578687fd5b6106de83610b7d565b6106e88a836104ff565b81526106f78a602084016104ff565b60208201526107098a604084016104ff565b604082015261071b8a606084016104ff565b60608201526080820135608082015260a082013560a082015260c082013560c082015260e082013560e0820152610100935083820135848201526101209350838201358482015261014093508382013583811115610777578889fd5b6107838b828501610529565b85830152506101609350838201358381111561079d578889fd5b6107a98b828501610529565b85830152508097505050602087013594506040870135935060608701359150808211156107d557600080fd5b506107e287828801610529565b91505092959194509250565b73ffffffffffffffffffffffffffffffffffffffff169052565b6000815180845260005b8181101561082e57602081850181015186830182015201610812565b81811115610840576000602083870101525b50601f017fffffffffffffffffffffffffffffffffffffffffffffffffffffffffffffffe0169290920160200192915050565b73ffffffffffffffffffffffffffffffffffffffff91909116815260200190565b901515815260200190565b60208082526015908201527f54414b45525f4e4f545f57484954454c49535445440000000000000000000000604082015260600190565b60208082526013908201527f4f4e4c595f434f4e54524143545f4f574e455200000000000000000000000000604082015260600190565b60208082526015908201527f4d414b45525f4e4f545f57484954454c49535445440000000000000000000000604082015260600190565b6020808252600e908201527f494e56414c49445f53454e444552000000000000000000000000000000000000604082015260600190565b6000606082526101806109926060840187516107ee565b60208601516109a460808501826107ee565b5060408601516109b760a08501826107ee565b5060608601516109ca60c08501826107ee565b50608086015160e084015260a0860151610100818186015260c08801519150610120828187015260e089015192506101408381880152828a0151935061016092508383880152818a015185880152808a015193505050826101a0860152610a356101e0860183610808565b9250808801519150507fffffffffffffffffffffffffffffffffffffffffffffffffffffffffffffffa0848303016101c0850152610a738282610808565b8660208601528481036040860152610a8b8187610808565b98975050505050505050565b600085825273ffffffffffffffffffffffffffffffffffffffff8516602083015260806040830152610acc6080830185610808565b8281036060840152600084546001811660008114610af15760018114610b3057610b6f565b610b01607f600284041685610bb0565b7fffffffffffffffffffffffffffffffffffffffffffffffffffffffffffffff00831681526020019250610b6f565b60028204610b3e8186610bb0565b610b4789610ba4565b60005b83811015610b6657815483820152600190910190602001610b4a565b91909101945050505b509098975050505050505050565b60405181810167ffffffffffffffff81118282101715610b9c57600080fd5b604052919050565b60009081526020902090565b9081526020019056fea265627a7a7230582030142b91e8a0c8ea4dbc0431f962e470f668a8d6ce3966524f761cf4abd95eb36c6578706572696d656e74616cf50037",
				"opcodes": "PUSH1 0x80 PUSH1 0x40 MSTORE CALLVALUE DUP1 ISZERO PUSH2 0x10 JUMPI PUSH1 0x0 DUP1 REVERT JUMPDEST POP PUSH1 0x40 MLOAD PUSH1 0x20 DUP1 PUSH3 0xDC3 DUP4 CODECOPY DUP2 ADD DUP1 PUSH1 0x40 MSTORE PUSH2 0x30 SWAP2 SWAP1 DUP2 ADD SWAP1 PUSH2 0x152 JUMP JUMPDEST PUSH1 0x0 DUP1 SLOAD CALLER PUSH1 0x1 PUSH1 0x1 PUSH1 0xA0 SHL SUB NOT SWAP2 DUP3 AND OR SWAP1 SWAP2 SSTORE PUSH1 0x2 DUP1 SLOAD SWAP1 SWAP2 AND PUSH1 0x1 PUSH1 0x1 PUSH1 0xA0 SHL SUB DUP4 AND OR SWAP1 SSTORE PUSH1 0x40 MLOAD PUSH2 0x8C SWAP1 ADDRESS SWAP1 PUSH32 0x500000000000000000000000000000000000000000000000000000000000000 SWAP1 PUSH1 0x20 ADD PUSH2 0x182 JUMP JUMPDEST PUSH1 0x40 MLOAD PUSH1 0x20 DUP2 DUP4 SUB SUB DUP2 MSTORE SWAP1 PUSH1 0x40 MSTORE PUSH1 0x3 SWAP1 DUP1 MLOAD SWAP1 PUSH1 0x20 ADD SWAP1 PUSH2 0xB0 SWAP3 SWAP2 SWAP1 PUSH2 0xB7 JUMP JUMPDEST POP POP PUSH2 0x1C0 JUMP JUMPDEST DUP3 DUP1 SLOAD PUSH1 0x1 DUP2 PUSH1 0x1 AND ISZERO PUSH2 0x100 MUL SUB AND PUSH1 0x2 SWAP1 DIV SWAP1 PUSH1 0x0 MSTORE PUSH1 0x20 PUSH1 0x0 KECCAK256 SWAP1 PUSH1 0x1F ADD PUSH1 0x20 SWAP1 DIV DUP2 ADD SWAP3 DUP3 PUSH1 0x1F LT PUSH2 0xF8 JUMPI DUP1 MLOAD PUSH1 0xFF NOT AND DUP4 DUP1 ADD OR DUP6 SSTORE PUSH2 0x125 JUMP JUMPDEST DUP3 DUP1 ADD PUSH1 0x1 ADD DUP6 SSTORE DUP3 ISZERO PUSH2 0x125 JUMPI SWAP2 DUP3 ADD JUMPDEST DUP3 DUP2 GT ISZERO PUSH2 0x125 JUMPI DUP3 MLOAD DUP3 SSTORE SWAP2 PUSH1 0x20 ADD SWAP2 SWAP1 PUSH1 0x1 ADD SWAP1 PUSH2 0x10A JUMP JUMPDEST POP PUSH2 0x131 SWAP3 SWAP2 POP PUSH2 0x135 JUMP JUMPDEST POP SWAP1 JUMP JUMPDEST PUSH2 0x14F SWAP2 SWAP1 JUMPDEST DUP1 DUP3 GT ISZERO PUSH2 0x131 JUMPI PUSH1 0x0 DUP2 SSTORE PUSH1 0x1 ADD PUSH2 0x13B JUMP JUMPDEST SWAP1 JUMP JUMPDEST PUSH1 0x0 PUSH1 0x20 DUP3 DUP5 SUB SLT ISZERO PUSH2 0x164 JUMPI PUSH1 0x0 DUP1 REVERT JUMPDEST DUP2 MLOAD PUSH1 0x1 PUSH1 0x1 PUSH1 0xA0 SHL SUB DUP2 AND DUP2 EQ PUSH2 0x17B JUMPI PUSH1 0x0 DUP1 REVERT JUMPDEST SWAP4 SWAP3 POP POP POP JUMP JUMPDEST PUSH1 0x1 PUSH1 0x1 PUSH1 0xA0 SHL SUB SWAP3 SWAP1 SWAP3 AND PUSH1 0x60 SHL DUP3 MSTORE PUSH32 0xFF00000000000000000000000000000000000000000000000000000000000000 AND PUSH1 0x14 DUP3 ADD MSTORE PUSH1 0x15 ADD SWAP1 JUMP JUMPDEST PUSH2 0xBF3 DUP1 PUSH3 0x1D0 PUSH1 0x0 CODECOPY PUSH1 0x0 RETURN INVALID PUSH1 0x80 PUSH1 0x40 MSTORE CALLVALUE DUP1 ISZERO PUSH2 0x10 JUMPI PUSH1 0x0 DUP1 REVERT JUMPDEST POP PUSH1 0x4 CALLDATASIZE LT PUSH2 0x72 JUMPI PUSH1 0x0 CALLDATALOAD PUSH1 0xE0 SHR DUP1 PUSH4 0x93634702 GT PUSH2 0x50 JUMPI DUP1 PUSH4 0x93634702 EQ PUSH2 0xCA JUMPI DUP1 PUSH4 0xC07732A3 EQ PUSH2 0xDD JUMPI DUP1 PUSH4 0xF2FDE38B EQ PUSH2 0xF0 JUMPI PUSH2 0x72 JUMP JUMPDEST DUP1 PUSH4 0x141DA876 EQ PUSH2 0x77 JUMPI DUP1 PUSH4 0x3AF32ABF EQ PUSH2 0x8C JUMPI DUP1 PUSH4 0x8DA5CB5B EQ PUSH2 0xB5 JUMPI JUMPDEST PUSH1 0x0 DUP1 REVERT JUMPDEST PUSH2 0x8A PUSH2 0x85 CALLDATASIZE PUSH1 0x4 PUSH2 0x695 JUMP JUMPDEST PUSH2 0x103 JUMP JUMPDEST STOP JUMPDEST PUSH2 0x9F PUSH2 0x9A CALLDATASIZE PUSH1 0x4 PUSH2 0x5B0 JUMP JUMPDEST PUSH2 0x355 JUMP JUMPDEST PUSH1 0x40 MLOAD PUSH2 0xAC SWAP2 SWAP1 PUSH2 0x894 JUMP JUMPDEST PUSH1 0x40 MLOAD DUP1 SWAP2 SUB SWAP1 RETURN JUMPDEST PUSH2 0xBD PUSH2 0x36A JUMP JUMPDEST PUSH1 0x40 MLOAD PUSH2 0xAC SWAP2 SWAP1 PUSH2 0x873 JUMP JUMPDEST PUSH2 0x9F PUSH2 0xD8 CALLDATASIZE PUSH1 0x4 PUSH2 0x610 JUMP JUMPDEST PUSH2 0x386 JUMP JUMPDEST PUSH2 0x8A PUSH2 0xEB CALLDATASIZE PUSH1 0x4 PUSH2 0x5D3 JUMP JUMPDEST PUSH2 0x3A7 JUMP JUMPDEST PUSH2 0x8A PUSH2 0xFE CALLDATASIZE PUSH1 0x4 PUSH2 0x5B0 JUMP JUMPDEST PUSH2 0x44E JUMP JUMPDEST CALLER ORIGIN DUP2 EQ PUSH2 0x146 JUMPI PUSH1 0x40 MLOAD PUSH32 0x8C379A000000000000000000000000000000000000000000000000000000000 DUP2 MSTORE PUSH1 0x4 ADD PUSH2 0x13D SWAP1 PUSH2 0x944 JUMP JUMPDEST PUSH1 0x40 MLOAD DUP1 SWAP2 SUB SWAP1 REVERT JUMPDEST DUP5 MLOAD PUSH20 0xFFFFFFFFFFFFFFFFFFFFFFFFFFFFFFFFFFFFFFFF AND PUSH1 0x0 SWAP1 DUP2 MSTORE PUSH1 0x1 PUSH1 0x20 MSTORE PUSH1 0x40 SWAP1 KECCAK256 SLOAD PUSH1 0xFF AND PUSH2 0x1A6 JUMPI PUSH1 0x40 MLOAD PUSH32 0x8C379A000000000000000000000000000000000000000000000000000000000 DUP2 MSTORE PUSH1 0x4 ADD PUSH2 0x13D SWAP1 PUSH2 0x90D JUMP JUMPDEST PUSH20 0xFFFFFFFFFFFFFFFFFFFFFFFFFFFFFFFFFFFFFFFF DUP2 AND PUSH1 0x0 SWAP1 DUP2 MSTORE PUSH1 0x1 PUSH1 0x20 MSTORE PUSH1 0x40 SWAP1 KECCAK256 SLOAD PUSH1 0xFF AND PUSH2 0x205 JUMPI PUSH1 0x40 MLOAD PUSH32 0x8C379A000000000000000000000000000000000000000000000000000000000 DUP2 MSTORE PUSH1 0x4 ADD PUSH2 0x13D SWAP1 PUSH2 0x89F JUMP JUMPDEST PUSH1 0x40 MLOAD PUSH1 0x60 SWAP1 PUSH32 0xB4BE83D500000000000000000000000000000000000000000000000000000000 SWAP1 PUSH2 0x23F SWAP1 DUP9 SWAP1 DUP9 SWAP1 DUP8 SWAP1 PUSH1 0x24 ADD PUSH2 0x97B JUMP JUMPDEST PUSH1 0x40 DUP1 MLOAD PUSH32 0xFFFFFFFFFFFFFFFFFFFFFFFFFFFFFFFFFFFFFFFFFFFFFFFFFFFFFFFFFFFFFFE0 DUP2 DUP5 SUB ADD DUP2 MSTORE SWAP2 DUP2 MSTORE PUSH1 0x20 DUP3 ADD DUP1 MLOAD PUSH28 0xFFFFFFFFFFFFFFFFFFFFFFFFFFFFFFFFFFFFFFFFFFFFFFFFFFFFFFFF AND PUSH32 0xFFFFFFFF00000000000000000000000000000000000000000000000000000000 SWAP1 SWAP5 AND SWAP4 SWAP1 SWAP4 OR SWAP1 SWAP3 MSTORE PUSH1 0x2 SLOAD SWAP2 MLOAD PUSH32 0xBFC8BFCE00000000000000000000000000000000000000000000000000000000 DUP2 MSTORE SWAP1 SWAP3 POP PUSH20 0xFFFFFFFFFFFFFFFFFFFFFFFFFFFFFFFFFFFFFFFF SWAP1 SWAP2 AND SWAP1 PUSH4 0xBFC8BFCE SWAP1 PUSH2 0x31B SWAP1 DUP8 SWAP1 DUP7 SWAP1 DUP7 SWAP1 PUSH1 0x3 SWAP1 PUSH1 0x4 ADD PUSH2 0xA97 JUMP JUMPDEST PUSH1 0x0 PUSH1 0x40 MLOAD DUP1 DUP4 SUB DUP2 PUSH1 0x0 DUP8 DUP1 EXTCODESIZE ISZERO DUP1 ISZERO PUSH2 0x335 JUMPI PUSH1 0x0 DUP1 REVERT JUMPDEST POP GAS CALL ISZERO DUP1 ISZERO PUSH2 0x349 JUMPI RETURNDATASIZE PUSH1 0x0 DUP1 RETURNDATACOPY RETURNDATASIZE PUSH1 0x0 REVERT JUMPDEST POP POP POP POP POP POP POP POP POP POP JUMP JUMPDEST PUSH1 0x1 PUSH1 0x20 MSTORE PUSH1 0x0 SWAP1 DUP2 MSTORE PUSH1 0x40 SWAP1 KECCAK256 SLOAD PUSH1 0xFF AND DUP2 JUMP JUMPDEST PUSH1 0x0 SLOAD PUSH20 0xFFFFFFFFFFFFFFFFFFFFFFFFFFFFFFFFFFFFFFFF AND DUP2 JUMP JUMPDEST PUSH20 0xFFFFFFFFFFFFFFFFFFFFFFFFFFFFFFFFFFFFFFFF DUP4 AND ORIGIN EQ SWAP5 SWAP4 POP POP POP POP JUMP JUMPDEST PUSH1 0x0 SLOAD PUSH20 0xFFFFFFFFFFFFFFFFFFFFFFFFFFFFFFFFFFFFFFFF AND CALLER EQ PUSH2 0x3F8 JUMPI PUSH1 0x40 MLOAD PUSH32 0x8C379A000000000000000000000000000000000000000000000000000000000 DUP2 MSTORE PUSH1 0x4 ADD PUSH2 0x13D SWAP1 PUSH2 0x8D6 JUMP JUMPDEST PUSH20 0xFFFFFFFFFFFFFFFFFFFFFFFFFFFFFFFFFFFFFFFF SWAP2 SWAP1 SWAP2 AND PUSH1 0x0 SWAP1 DUP2 MSTORE PUSH1 0x1 PUSH1 0x20 MSTORE PUSH1 0x40 SWAP1 KECCAK256 DUP1 SLOAD PUSH32 0xFFFFFFFFFFFFFFFFFFFFFFFFFFFFFFFFFFFFFFFFFFFFFFFFFFFFFFFFFFFFFF00 AND SWAP2 ISZERO ISZERO SWAP2 SWAP1 SWAP2 OR SWAP1 SSTORE JUMP JUMPDEST PUSH1 0x0 SLOAD PUSH20 0xFFFFFFFFFFFFFFFFFFFFFFFFFFFFFFFFFFFFFFFF AND CALLER EQ PUSH2 0x49F JUMPI PUSH1 0x40 MLOAD PUSH32 0x8C379A000000000000000000000000000000000000000000000000000000000 DUP2 MSTORE PUSH1 0x4 ADD PUSH2 0x13D SWAP1 PUSH2 0x8D6 JUMP JUMPDEST PUSH20 0xFFFFFFFFFFFFFFFFFFFFFFFFFFFFFFFFFFFFFFFF DUP2 AND ISZERO PUSH2 0x4FC JUMPI PUSH1 0x0 DUP1 SLOAD PUSH32 0xFFFFFFFFFFFFFFFFFFFFFFFF0000000000000000000000000000000000000000 AND PUSH20 0xFFFFFFFFFFFFFFFFFFFFFFFFFFFFFFFFFFFFFFFF DUP4 AND OR SWAP1 SSTORE JUMPDEST POP JUMP JUMPDEST DUP1 CALLDATALOAD PUSH20 0xFFFFFFFFFFFFFFFFFFFFFFFFFFFFFFFFFFFFFFFF DUP2 AND DUP2 EQ PUSH2 0x523 JUMPI PUSH1 0x0 DUP1 REVERT JUMPDEST SWAP3 SWAP2 POP POP JUMP JUMPDEST PUSH1 0x0 DUP3 PUSH1 0x1F DUP4 ADD SLT PUSH2 0x539 JUMPI DUP1 DUP2 REVERT JUMPDEST DUP2 CALLDATALOAD PUSH8 0xFFFFFFFFFFFFFFFF DUP2 GT ISZERO PUSH2 0x54F JUMPI DUP2 DUP3 REVERT JUMPDEST PUSH2 0x580 PUSH1 0x20 PUSH32 0xFFFFFFFFFFFFFFFFFFFFFFFFFFFFFFFFFFFFFFFFFFFFFFFFFFFFFFFFFFFFFFE0 PUSH1 0x1F DUP5 ADD AND ADD PUSH2 0xB7D JUMP JUMPDEST SWAP2 POP DUP1 DUP3 MSTORE DUP4 PUSH1 0x20 DUP3 DUP6 ADD ADD GT ISZERO PUSH2 0x597 JUMPI PUSH1 0x0 DUP1 REVERT JUMPDEST DUP1 PUSH1 0x20 DUP5 ADD PUSH1 0x20 DUP5 ADD CALLDATACOPY PUSH1 0x0 SWAP1 DUP3 ADD PUSH1 0x20 ADD MSTORE SWAP3 SWAP2 POP POP JUMP JUMPDEST PUSH1 0x0 PUSH1 0x20 DUP3 DUP5 SUB SLT ISZERO PUSH2 0x5C2 JUMPI PUSH1 0x0 DUP1 REVERT JUMPDEST PUSH2 0x5CC DUP4 DUP4 PUSH2 0x4FF JUMP JUMPDEST SWAP4 SWAP3 POP POP POP JUMP JUMPDEST PUSH1 0x0 DUP1 PUSH1 0x40 DUP4 DUP6 SUB SLT ISZERO PUSH2 0x5E6 JUMPI PUSH1 0x0 DUP1 REVERT JUMPDEST PUSH2 0x5F0 DUP5 DUP5 PUSH2 0x4FF JUMP JUMPDEST SWAP2 POP PUSH1 0x20 DUP4 ADD CALLDATALOAD DUP1 ISZERO ISZERO DUP2 EQ PUSH2 0x605 JUMPI PUSH1 0x0 DUP1 REVERT JUMPDEST DUP1 SWAP2 POP POP SWAP3 POP SWAP3 SWAP1 POP JUMP JUMPDEST PUSH1 0x0 DUP1 PUSH1 0x0 DUP1 PUSH1 0x60 DUP6 DUP8 SUB SLT ISZERO PUSH2 0x625 JUMPI DUP2 DUP3 REVERT JUMPDEST DUP5 CALLDATALOAD SWAP4 POP PUSH2 0x636 DUP7 PUSH1 0x20 DUP8 ADD PUSH2 0x4FF JUMP JUMPDEST SWAP3 POP PUSH1 0x40 DUP6 ADD CALLDATALOAD PUSH8 0xFFFFFFFFFFFFFFFF DUP1 DUP3 GT ISZERO PUSH2 0x652 JUMPI DUP4 DUP5 REVERT JUMPDEST DUP2 DUP8 ADD DUP9 PUSH1 0x1F DUP3 ADD SLT PUSH2 0x663 JUMPI DUP5 DUP6 REVERT JUMPDEST DUP1 CALLDATALOAD SWAP3 POP DUP2 DUP4 GT ISZERO PUSH2 0x673 JUMPI DUP5 DUP6 REVERT JUMPDEST DUP9 PUSH1 0x20 DUP5 DUP4 ADD ADD GT ISZERO PUSH2 0x684 JUMPI DUP5 DUP6 REVERT JUMPDEST SWAP6 SWAP9 SWAP5 SWAP8 POP POP PUSH1 0x20 SWAP1 SWAP5 ADD SWAP5 POP POP POP JUMP JUMPDEST PUSH1 0x0 DUP1 PUSH1 0x0 DUP1 PUSH1 0x80 DUP6 DUP8 SUB SLT ISZERO PUSH2 0x6AA JUMPI DUP4 DUP5 REVERT JUMPDEST DUP5 CALLDATALOAD PUSH8 0xFFFFFFFFFFFFFFFF DUP1 DUP3 GT ISZERO PUSH2 0x6C1 JUMPI DUP6 DUP7 REVERT JUMPDEST PUSH2 0x180 SWAP2 DUP8 ADD DUP1 DUP10 SUB DUP4 SGT ISZERO PUSH2 0x6D5 JUMPI DUP7 DUP8 REVERT JUMPDEST PUSH2 0x6DE DUP4 PUSH2 0xB7D JUMP JUMPDEST PUSH2 0x6E8 DUP11 DUP4 PUSH2 0x4FF JUMP JUMPDEST DUP2 MSTORE PUSH2 0x6F7 DUP11 PUSH1 0x20 DUP5 ADD PUSH2 0x4FF JUMP JUMPDEST PUSH1 0x20 DUP3 ADD MSTORE PUSH2 0x709 DUP11 PUSH1 0x40 DUP5 ADD PUSH2 0x4FF JUMP JUMPDEST PUSH1 0x40 DUP3 ADD MSTORE PUSH2 0x71B DUP11 PUSH1 0x60 DUP5 ADD PUSH2 0x4FF JUMP JUMPDEST PUSH1 0x60 DUP3 ADD MSTORE PUSH1 0x80 DUP3 ADD CALLDATALOAD PUSH1 0x80 DUP3 ADD MSTORE PUSH1 0xA0 DUP3 ADD CALLDATALOAD PUSH1 0xA0 DUP3 ADD MSTORE PUSH1 0xC0 DUP3 ADD CALLDATALOAD PUSH1 0xC0 DUP3 ADD MSTORE PUSH1 0xE0 DUP3 ADD CALLDATALOAD PUSH1 0xE0 DUP3 ADD MSTORE PUSH2 0x100 SWAP4 POP DUP4 DUP3 ADD CALLDATALOAD DUP5 DUP3 ADD MSTORE PUSH2 0x120 SWAP4 POP DUP4 DUP3 ADD CALLDATALOAD DUP5 DUP3 ADD MSTORE PUSH2 0x140 SWAP4 POP DUP4 DUP3 ADD CALLDATALOAD DUP4 DUP2 GT ISZERO PUSH2 0x777 JUMPI DUP9 DUP10 REVERT JUMPDEST PUSH2 0x783 DUP12 DUP3 DUP6 ADD PUSH2 0x529 JUMP JUMPDEST DUP6 DUP4 ADD MSTORE POP PUSH2 0x160 SWAP4 POP DUP4 DUP3 ADD CALLDATALOAD DUP4 DUP2 GT ISZERO PUSH2 0x79D JUMPI DUP9 DUP10 REVERT JUMPDEST PUSH2 0x7A9 DUP12 DUP3 DUP6 ADD PUSH2 0x529 JUMP JUMPDEST DUP6 DUP4 ADD MSTORE POP DUP1 SWAP8 POP POP POP PUSH1 0x20 DUP8 ADD CALLDATALOAD SWAP5 POP PUSH1 0x40 DUP8 ADD CALLDATALOAD SWAP4 POP PUSH1 0x60 DUP8 ADD CALLDATALOAD SWAP2 POP DUP1 DUP3 GT ISZERO PUSH2 0x7D5 JUMPI PUSH1 0x0 DUP1 REVERT JUMPDEST POP PUSH2 0x7E2 DUP8 DUP3 DUP9 ADD PUSH2 0x529 JUMP JUMPDEST SWAP2 POP POP SWAP3 SWAP6 SWAP2 SWAP5 POP SWAP3 POP JUMP JUMPDEST PUSH20 0xFFFFFFFFFFFFFFFFFFFFFFFFFFFFFFFFFFFFFFFF AND SWAP1 MSTORE JUMP JUMPDEST PUSH1 0x0 DUP2 MLOAD DUP1 DUP5 MSTORE PUSH1 0x0 JUMPDEST DUP2 DUP2 LT ISZERO PUSH2 0x82E JUMPI PUSH1 0x20 DUP2 DUP6 ADD DUP2 ADD MLOAD DUP7 DUP4 ADD DUP3 ADD MSTORE ADD PUSH2 0x812 JUMP JUMPDEST DUP2 DUP2 GT ISZERO PUSH2 0x840 JUMPI PUSH1 0x0 PUSH1 0x20 DUP4 DUP8 ADD ADD MSTORE JUMPDEST POP PUSH1 0x1F ADD PUSH32 0xFFFFFFFFFFFFFFFFFFFFFFFFFFFFFFFFFFFFFFFFFFFFFFFFFFFFFFFFFFFFFFE0 AND SWAP3 SWAP1 SWAP3 ADD PUSH1 0x20 ADD SWAP3 SWAP2 POP POP JUMP JUMPDEST PUSH20 0xFFFFFFFFFFFFFFFFFFFFFFFFFFFFFFFFFFFFFFFF SWAP2 SWAP1 SWAP2 AND DUP2 MSTORE PUSH1 0x20 ADD SWAP1 JUMP JUMPDEST SWAP1 ISZERO ISZERO DUP2 MSTORE PUSH1 0x20 ADD SWAP1 JUMP JUMPDEST PUSH1 0x20 DUP1 DUP3 MSTORE PUSH1 0x15 SWAP1 DUP3 ADD MSTORE PUSH32 0x54414B45525F4E4F545F57484954454C49535445440000000000000000000000 PUSH1 0x40 DUP3 ADD MSTORE PUSH1 0x60 ADD SWAP1 JUMP JUMPDEST PUSH1 0x20 DUP1 DUP3 MSTORE PUSH1 0x13 SWAP1 DUP3 ADD MSTORE PUSH32 0x4F4E4C595F434F4E54524143545F4F574E455200000000000000000000000000 PUSH1 0x40 DUP3 ADD MSTORE PUSH1 0x60 ADD SWAP1 JUMP JUMPDEST PUSH1 0x20 DUP1 DUP3 MSTORE PUSH1 0x15 SWAP1 DUP3 ADD MSTORE PUSH32 0x4D414B45525F4E4F545F57484954454C49535445440000000000000000000000 PUSH1 0x40 DUP3 ADD MSTORE PUSH1 0x60 ADD SWAP1 JUMP JUMPDEST PUSH1 0x20 DUP1 DUP3 MSTORE PUSH1 0xE SWAP1 DUP3 ADD MSTORE PUSH32 0x494E56414C49445F53454E444552000000000000000000000000000000000000 PUSH1 0x40 DUP3 ADD MSTORE PUSH1 0x60 ADD SWAP1 JUMP JUMPDEST PUSH1 0x0 PUSH1 0x60 DUP3 MSTORE PUSH2 0x180 PUSH2 0x992 PUSH1 0x60 DUP5 ADD DUP8 MLOAD PUSH2 0x7EE JUMP JUMPDEST PUSH1 0x20 DUP7 ADD MLOAD PUSH2 0x9A4 PUSH1 0x80 DUP6 ADD DUP3 PUSH2 0x7EE JUMP JUMPDEST POP PUSH1 0x40 DUP7 ADD MLOAD PUSH2 0x9B7 PUSH1 0xA0 DUP6 ADD DUP3 PUSH2 0x7EE JUMP JUMPDEST POP PUSH1 0x60 DUP7 ADD MLOAD PUSH2 0x9CA PUSH1 0xC0 DUP6 ADD DUP3 PUSH2 0x7EE JUMP JUMPDEST POP PUSH1 0x80 DUP7 ADD MLOAD PUSH1 0xE0 DUP5 ADD MSTORE PUSH1 0xA0 DUP7 ADD MLOAD PUSH2 0x100 DUP2 DUP2 DUP7 ADD MSTORE PUSH1 0xC0 DUP9 ADD MLOAD SWAP2 POP PUSH2 0x120 DUP3 DUP2 DUP8 ADD MSTORE PUSH1 0xE0 DUP10 ADD MLOAD SWAP3 POP PUSH2 0x140 DUP4 DUP2 DUP9 ADD MSTORE DUP3 DUP11 ADD MLOAD SWAP4 POP PUSH2 0x160 SWAP3 POP DUP4 DUP4 DUP9 ADD MSTORE DUP2 DUP11 ADD MLOAD DUP6 DUP9 ADD MSTORE DUP1 DUP11 ADD MLOAD SWAP4 POP POP POP DUP3 PUSH2 0x1A0 DUP7 ADD MSTORE PUSH2 0xA35 PUSH2 0x1E0 DUP7 ADD DUP4 PUSH2 0x808 JUMP JUMPDEST SWAP3 POP DUP1 DUP9 ADD MLOAD SWAP2 POP POP PUSH32 0xFFFFFFFFFFFFFFFFFFFFFFFFFFFFFFFFFFFFFFFFFFFFFFFFFFFFFFFFFFFFFFA0 DUP5 DUP4 SUB ADD PUSH2 0x1C0 DUP6 ADD MSTORE PUSH2 0xA73 DUP3 DUP3 PUSH2 0x808 JUMP JUMPDEST DUP7 PUSH1 0x20 DUP7 ADD MSTORE DUP5 DUP2 SUB PUSH1 0x40 DUP7 ADD MSTORE PUSH2 0xA8B DUP2 DUP8 PUSH2 0x808 JUMP JUMPDEST SWAP9 SWAP8 POP POP POP POP POP POP POP POP JUMP JUMPDEST PUSH1 0x0 DUP6 DUP3 MSTORE PUSH20 0xFFFFFFFFFFFFFFFFFFFFFFFFFFFFFFFFFFFFFFFF DUP6 AND PUSH1 0x20 DUP4 ADD MSTORE PUSH1 0x80 PUSH1 0x40 DUP4 ADD MSTORE PUSH2 0xACC PUSH1 0x80 DUP4 ADD DUP6 PUSH2 0x808 JUMP JUMPDEST DUP3 DUP2 SUB PUSH1 0x60 DUP5 ADD MSTORE PUSH1 0x0 DUP5 SLOAD PUSH1 0x1 DUP2 AND PUSH1 0x0 DUP2 EQ PUSH2 0xAF1 JUMPI PUSH1 0x1 DUP2 EQ PUSH2 0xB30 JUMPI PUSH2 0xB6F JUMP JUMPDEST PUSH2 0xB01 PUSH1 0x7F PUSH1 0x2 DUP5 DIV AND DUP6 PUSH2 0xBB0 JUMP JUMPDEST PUSH32 0xFFFFFFFFFFFFFFFFFFFFFFFFFFFFFFFFFFFFFFFFFFFFFFFFFFFFFFFFFFFFFF00 DUP4 AND DUP2 MSTORE PUSH1 0x20 ADD SWAP3 POP PUSH2 0xB6F JUMP JUMPDEST PUSH1 0x2 DUP3 DIV PUSH2 0xB3E DUP2 DUP7 PUSH2 0xBB0 JUMP JUMPDEST PUSH2 0xB47 DUP10 PUSH2 0xBA4 JUMP JUMPDEST PUSH1 0x0 JUMPDEST DUP4 DUP2 LT ISZERO PUSH2 0xB66 JUMPI DUP2 SLOAD DUP4 DUP3 ADD MSTORE PUSH1 0x1 SWAP1 SWAP2 ADD SWAP1 PUSH1 0x20 ADD PUSH2 0xB4A JUMP JUMPDEST SWAP2 SWAP1 SWAP2 ADD SWAP5 POP POP POP JUMPDEST POP SWAP1 SWAP9 SWAP8 POP POP POP POP POP POP POP POP JUMP JUMPDEST PUSH1 0x40 MLOAD DUP2 DUP2 ADD PUSH8 0xFFFFFFFFFFFFFFFF DUP2 GT DUP3 DUP3 LT OR ISZERO PUSH2 0xB9C JUMPI PUSH1 0x0 DUP1 REVERT JUMPDEST PUSH1 0x40 MSTORE SWAP2 SWAP1 POP JUMP JUMPDEST PUSH1 0x0 SWAP1 DUP2 MSTORE PUSH1 0x20 SWAP1 KECCAK256 SWAP1 JUMP JUMPDEST SWAP1 DUP2 MSTORE PUSH1 0x20 ADD SWAP1 JUMP INVALID LOG2 PUSH6 0x627A7A723058 KECCAK256 ADDRESS EQ 0x2b SWAP2 0xe8 LOG0 0xc8 0xea 0x4d 0xbc DIV BALANCE 0xf9 PUSH3 0xE470F6 PUSH9 0xA8D6CE3966524F761C DELEGATECALL 0xab 0xd9 0x5e 0xb3 PUSH13 0x6578706572696D656E74616CF5 STOP CALLDATACOPY "
			}
		}
	},
	"sourceTreeHashHex": "0x4eeb134f3a21214bbb46f2f60cd63c5520941718f55bbcfd8360f879ea5bf78a",
	"compiler": {
		"name": "solc",
		"version": "soljson-v0.5.8+commit.23d335f2.js",
		"settings": {
			"optimizer": {
				"enabled": true,
				"runs": 1000000,
				"details": {
					"yul": true,
					"deduplicate": true,
					"cse": true,
					"constantOptimizer": true
				}
			},
			"outputSelection": {
				"*": {
					"*": [
						"abi",
						"evm.bytecode.object",
						"evm.bytecode.sourceMap",
						"evm.deployedBytecode.object",
						"evm.deployedBytecode.sourceMap"
					]
				}
			},
			"evmVersion": "constantinople",
			"remappings": [
				"@0x/contracts-exchange-libs=/Users/fabioberger/Documents/projects/0x_project/0x-monorepo-one/contracts/exchange/node_modules/@0x/contracts-exchange-libs",
				"@0x/contracts-utils=/Users/fabioberger/Documents/projects/0x_project/0x-monorepo-one/contracts/exchange/node_modules/@0x/contracts-utils",
				"@0x/contracts-erc20=/Users/fabioberger/Documents/projects/0x_project/0x-monorepo-one/contracts/exchange/node_modules/@0x/contracts-erc20"
			]
		}
	}
}