{
    "schemaVersion": "2.0.0",
    "contractName": "Exchange",
    "compilerOutput": {
        "abi": [
            {
                "constant": true,
                "inputs": [
                    {
                        "name": "",
                        "type": "bytes32"
                    }
                ],
                "name": "filled",
                "outputs": [
                    {
                        "name": "",
                        "type": "uint256"
                    }
                ],
                "payable": false,
                "stateMutability": "view",
                "type": "function"
            },
            {
                "constant": false,
                "inputs": [
                    {
                        "components": [
                            {
                                "name": "makerAddress",
                                "type": "address"
                            },
                            {
                                "name": "takerAddress",
                                "type": "address"
                            },
                            {
                                "name": "feeRecipientAddress",
                                "type": "address"
                            },
                            {
                                "name": "senderAddress",
                                "type": "address"
                            },
                            {
                                "name": "makerAssetAmount",
                                "type": "uint256"
                            },
                            {
                                "name": "takerAssetAmount",
                                "type": "uint256"
                            },
                            {
                                "name": "makerFee",
                                "type": "uint256"
                            },
                            {
                                "name": "takerFee",
                                "type": "uint256"
                            },
                            {
                                "name": "expirationTimeSeconds",
                                "type": "uint256"
                            },
                            {
                                "name": "salt",
                                "type": "uint256"
                            },
                            {
                                "name": "makerAssetData",
                                "type": "bytes"
                            },
                            {
                                "name": "takerAssetData",
                                "type": "bytes"
                            }
                        ],
                        "name": "orders",
                        "type": "tuple[]"
                    },
                    {
                        "name": "takerAssetFillAmounts",
                        "type": "uint256[]"
                    },
                    {
                        "name": "signatures",
                        "type": "bytes[]"
                    }
                ],
                "name": "batchFillOrders",
                "outputs": [
                    {
                        "components": [
                            {
                                "name": "makerAssetFilledAmount",
                                "type": "uint256"
                            },
                            {
                                "name": "takerAssetFilledAmount",
                                "type": "uint256"
                            },
                            {
                                "name": "makerFeePaid",
                                "type": "uint256"
                            },
                            {
                                "name": "takerFeePaid",
                                "type": "uint256"
                            }
                        ],
                        "name": "totalFillResults",
                        "type": "tuple"
                    }
                ],
                "payable": false,
                "stateMutability": "nonpayable",
                "type": "function"
            },
            {
                "constant": true,
                "inputs": [
                    {
                        "name": "",
                        "type": "bytes32"
                    }
                ],
                "name": "cancelled",
                "outputs": [
                    {
                        "name": "",
                        "type": "bool"
                    }
                ],
                "payable": false,
                "stateMutability": "view",
                "type": "function"
            },
            {
                "constant": false,
                "inputs": [
                    {
                        "name": "hash",
                        "type": "bytes32"
                    },
                    {
                        "name": "signerAddress",
                        "type": "address"
                    },
                    {
                        "name": "signature",
                        "type": "bytes"
                    }
                ],
                "name": "preSign",
                "outputs": [],
                "payable": false,
                "stateMutability": "nonpayable",
                "type": "function"
            },
            {
                "constant": false,
                "inputs": [
                    {
                        "components": [
                            {
                                "name": "makerAddress",
                                "type": "address"
                            },
                            {
                                "name": "takerAddress",
                                "type": "address"
                            },
                            {
                                "name": "feeRecipientAddress",
                                "type": "address"
                            },
                            {
                                "name": "senderAddress",
                                "type": "address"
                            },
                            {
                                "name": "makerAssetAmount",
                                "type": "uint256"
                            },
                            {
                                "name": "takerAssetAmount",
                                "type": "uint256"
                            },
                            {
                                "name": "makerFee",
                                "type": "uint256"
                            },
                            {
                                "name": "takerFee",
                                "type": "uint256"
                            },
                            {
                                "name": "expirationTimeSeconds",
                                "type": "uint256"
                            },
                            {
                                "name": "salt",
                                "type": "uint256"
                            },
                            {
                                "name": "makerAssetData",
                                "type": "bytes"
                            },
                            {
                                "name": "takerAssetData",
                                "type": "bytes"
                            }
                        ],
                        "name": "leftOrder",
                        "type": "tuple"
                    },
                    {
                        "components": [
                            {
                                "name": "makerAddress",
                                "type": "address"
                            },
                            {
                                "name": "takerAddress",
                                "type": "address"
                            },
                            {
                                "name": "feeRecipientAddress",
                                "type": "address"
                            },
                            {
                                "name": "senderAddress",
                                "type": "address"
                            },
                            {
                                "name": "makerAssetAmount",
                                "type": "uint256"
                            },
                            {
                                "name": "takerAssetAmount",
                                "type": "uint256"
                            },
                            {
                                "name": "makerFee",
                                "type": "uint256"
                            },
                            {
                                "name": "takerFee",
                                "type": "uint256"
                            },
                            {
                                "name": "expirationTimeSeconds",
                                "type": "uint256"
                            },
                            {
                                "name": "salt",
                                "type": "uint256"
                            },
                            {
                                "name": "makerAssetData",
                                "type": "bytes"
                            },
                            {
                                "name": "takerAssetData",
                                "type": "bytes"
                            }
                        ],
                        "name": "rightOrder",
                        "type": "tuple"
                    },
                    {
                        "name": "leftSignature",
                        "type": "bytes"
                    },
                    {
                        "name": "rightSignature",
                        "type": "bytes"
                    }
                ],
                "name": "matchOrders",
                "outputs": [
                    {
                        "components": [
                            {
                                "components": [
                                    {
                                        "name": "makerAssetFilledAmount",
                                        "type": "uint256"
                                    },
                                    {
                                        "name": "takerAssetFilledAmount",
                                        "type": "uint256"
                                    },
                                    {
                                        "name": "makerFeePaid",
                                        "type": "uint256"
                                    },
                                    {
                                        "name": "takerFeePaid",
                                        "type": "uint256"
                                    }
                                ],
                                "name": "left",
                                "type": "tuple"
                            },
                            {
                                "components": [
                                    {
                                        "name": "makerAssetFilledAmount",
                                        "type": "uint256"
                                    },
                                    {
                                        "name": "takerAssetFilledAmount",
                                        "type": "uint256"
                                    },
                                    {
                                        "name": "makerFeePaid",
                                        "type": "uint256"
                                    },
                                    {
                                        "name": "takerFeePaid",
                                        "type": "uint256"
                                    }
                                ],
                                "name": "right",
                                "type": "tuple"
                            },
                            {
                                "name": "leftMakerAssetSpreadAmount",
                                "type": "uint256"
                            }
                        ],
                        "name": "matchedFillResults",
                        "type": "tuple"
                    }
                ],
                "payable": false,
                "stateMutability": "nonpayable",
                "type": "function"
            },
            {
                "constant": false,
                "inputs": [
                    {
                        "components": [
                            {
                                "name": "makerAddress",
                                "type": "address"
                            },
                            {
                                "name": "takerAddress",
                                "type": "address"
                            },
                            {
                                "name": "feeRecipientAddress",
                                "type": "address"
                            },
                            {
                                "name": "senderAddress",
                                "type": "address"
                            },
                            {
                                "name": "makerAssetAmount",
                                "type": "uint256"
                            },
                            {
                                "name": "takerAssetAmount",
                                "type": "uint256"
                            },
                            {
                                "name": "makerFee",
                                "type": "uint256"
                            },
                            {
                                "name": "takerFee",
                                "type": "uint256"
                            },
                            {
                                "name": "expirationTimeSeconds",
                                "type": "uint256"
                            },
                            {
                                "name": "salt",
                                "type": "uint256"
                            },
                            {
                                "name": "makerAssetData",
                                "type": "bytes"
                            },
                            {
                                "name": "takerAssetData",
                                "type": "bytes"
                            }
                        ],
                        "name": "order",
                        "type": "tuple"
                    },
                    {
                        "name": "takerAssetFillAmount",
                        "type": "uint256"
                    },
                    {
                        "name": "signature",
                        "type": "bytes"
                    }
                ],
                "name": "fillOrderNoThrow",
                "outputs": [
                    {
                        "components": [
                            {
                                "name": "makerAssetFilledAmount",
                                "type": "uint256"
                            },
                            {
                                "name": "takerAssetFilledAmount",
                                "type": "uint256"
                            },
                            {
                                "name": "makerFeePaid",
                                "type": "uint256"
                            },
                            {
                                "name": "takerFeePaid",
                                "type": "uint256"
                            }
                        ],
                        "name": "fillResults",
                        "type": "tuple"
                    }
                ],
                "payable": false,
                "stateMutability": "nonpayable",
                "type": "function"
            },
            {
                "constant": true,
                "inputs": [
                    {
                        "name": "",
                        "type": "bytes4"
                    }
                ],
                "name": "assetProxies",
                "outputs": [
                    {
                        "name": "",
                        "type": "address"
                    }
                ],
                "payable": false,
                "stateMutability": "view",
                "type": "function"
            },
            {
                "constant": false,
                "inputs": [
                    {
                        "components": [
                            {
                                "name": "makerAddress",
                                "type": "address"
                            },
                            {
                                "name": "takerAddress",
                                "type": "address"
                            },
                            {
                                "name": "feeRecipientAddress",
                                "type": "address"
                            },
                            {
                                "name": "senderAddress",
                                "type": "address"
                            },
                            {
                                "name": "makerAssetAmount",
                                "type": "uint256"
                            },
                            {
                                "name": "takerAssetAmount",
                                "type": "uint256"
                            },
                            {
                                "name": "makerFee",
                                "type": "uint256"
                            },
                            {
                                "name": "takerFee",
                                "type": "uint256"
                            },
                            {
                                "name": "expirationTimeSeconds",
                                "type": "uint256"
                            },
                            {
                                "name": "salt",
                                "type": "uint256"
                            },
                            {
                                "name": "makerAssetData",
                                "type": "bytes"
                            },
                            {
                                "name": "takerAssetData",
                                "type": "bytes"
                            }
                        ],
                        "name": "orders",
                        "type": "tuple[]"
                    }
                ],
                "name": "batchCancelOrders",
                "outputs": [],
                "payable": false,
                "stateMutability": "nonpayable",
                "type": "function"
            },
            {
                "constant": false,
                "inputs": [
                    {
                        "components": [
                            {
                                "name": "makerAddress",
                                "type": "address"
                            },
                            {
                                "name": "takerAddress",
                                "type": "address"
                            },
                            {
                                "name": "feeRecipientAddress",
                                "type": "address"
                            },
                            {
                                "name": "senderAddress",
                                "type": "address"
                            },
                            {
                                "name": "makerAssetAmount",
                                "type": "uint256"
                            },
                            {
                                "name": "takerAssetAmount",
                                "type": "uint256"
                            },
                            {
                                "name": "makerFee",
                                "type": "uint256"
                            },
                            {
                                "name": "takerFee",
                                "type": "uint256"
                            },
                            {
                                "name": "expirationTimeSeconds",
                                "type": "uint256"
                            },
                            {
                                "name": "salt",
                                "type": "uint256"
                            },
                            {
                                "name": "makerAssetData",
                                "type": "bytes"
                            },
                            {
                                "name": "takerAssetData",
                                "type": "bytes"
                            }
                        ],
                        "name": "orders",
                        "type": "tuple[]"
                    },
                    {
                        "name": "takerAssetFillAmounts",
                        "type": "uint256[]"
                    },
                    {
                        "name": "signatures",
                        "type": "bytes[]"
                    }
                ],
                "name": "batchFillOrKillOrders",
                "outputs": [
                    {
                        "components": [
                            {
                                "name": "makerAssetFilledAmount",
                                "type": "uint256"
                            },
                            {
                                "name": "takerAssetFilledAmount",
                                "type": "uint256"
                            },
                            {
                                "name": "makerFeePaid",
                                "type": "uint256"
                            },
                            {
                                "name": "takerFeePaid",
                                "type": "uint256"
                            }
                        ],
                        "name": "totalFillResults",
                        "type": "tuple"
                    }
                ],
                "payable": false,
                "stateMutability": "nonpayable",
                "type": "function"
            },
            {
                "constant": false,
                "inputs": [
                    {
                        "name": "targetOrderEpoch",
                        "type": "uint256"
                    }
                ],
                "name": "cancelOrdersUpTo",
                "outputs": [],
                "payable": false,
                "stateMutability": "nonpayable",
                "type": "function"
            },
            {
                "constant": false,
                "inputs": [
                    {
                        "components": [
                            {
                                "name": "makerAddress",
                                "type": "address"
                            },
                            {
                                "name": "takerAddress",
                                "type": "address"
                            },
                            {
                                "name": "feeRecipientAddress",
                                "type": "address"
                            },
                            {
                                "name": "senderAddress",
                                "type": "address"
                            },
                            {
                                "name": "makerAssetAmount",
                                "type": "uint256"
                            },
                            {
                                "name": "takerAssetAmount",
                                "type": "uint256"
                            },
                            {
                                "name": "makerFee",
                                "type": "uint256"
                            },
                            {
                                "name": "takerFee",
                                "type": "uint256"
                            },
                            {
                                "name": "expirationTimeSeconds",
                                "type": "uint256"
                            },
                            {
                                "name": "salt",
                                "type": "uint256"
                            },
                            {
                                "name": "makerAssetData",
                                "type": "bytes"
                            },
                            {
                                "name": "takerAssetData",
                                "type": "bytes"
                            }
                        ],
                        "name": "orders",
                        "type": "tuple[]"
                    },
                    {
                        "name": "takerAssetFillAmounts",
                        "type": "uint256[]"
                    },
                    {
                        "name": "signatures",
                        "type": "bytes[]"
                    }
                ],
                "name": "batchFillOrdersNoThrow",
                "outputs": [
                    {
                        "components": [
                            {
                                "name": "makerAssetFilledAmount",
                                "type": "uint256"
                            },
                            {
                                "name": "takerAssetFilledAmount",
                                "type": "uint256"
                            },
                            {
                                "name": "makerFeePaid",
                                "type": "uint256"
                            },
                            {
                                "name": "takerFeePaid",
                                "type": "uint256"
                            }
                        ],
                        "name": "totalFillResults",
                        "type": "tuple"
                    }
                ],
                "payable": false,
                "stateMutability": "nonpayable",
                "type": "function"
            },
            {
                "constant": true,
                "inputs": [
                    {
                        "name": "assetProxyId",
                        "type": "bytes4"
                    }
                ],
                "name": "getAssetProxy",
                "outputs": [
                    {
                        "name": "",
                        "type": "address"
                    }
                ],
                "payable": false,
                "stateMutability": "view",
                "type": "function"
            },
            {
                "constant": true,
                "inputs": [
                    {
                        "name": "",
                        "type": "bytes32"
                    }
                ],
                "name": "transactions",
                "outputs": [
                    {
                        "name": "",
                        "type": "bool"
                    }
                ],
                "payable": false,
                "stateMutability": "view",
                "type": "function"
            },
            {
                "constant": false,
                "inputs": [
                    {
                        "components": [
                            {
                                "name": "makerAddress",
                                "type": "address"
                            },
                            {
                                "name": "takerAddress",
                                "type": "address"
                            },
                            {
                                "name": "feeRecipientAddress",
                                "type": "address"
                            },
                            {
                                "name": "senderAddress",
                                "type": "address"
                            },
                            {
                                "name": "makerAssetAmount",
                                "type": "uint256"
                            },
                            {
                                "name": "takerAssetAmount",
                                "type": "uint256"
                            },
                            {
                                "name": "makerFee",
                                "type": "uint256"
                            },
                            {
                                "name": "takerFee",
                                "type": "uint256"
                            },
                            {
                                "name": "expirationTimeSeconds",
                                "type": "uint256"
                            },
                            {
                                "name": "salt",
                                "type": "uint256"
                            },
                            {
                                "name": "makerAssetData",
                                "type": "bytes"
                            },
                            {
                                "name": "takerAssetData",
                                "type": "bytes"
                            }
                        ],
                        "name": "order",
                        "type": "tuple"
                    },
                    {
                        "name": "takerAssetFillAmount",
                        "type": "uint256"
                    },
                    {
                        "name": "signature",
                        "type": "bytes"
                    }
                ],
                "name": "fillOrKillOrder",
                "outputs": [
                    {
                        "components": [
                            {
                                "name": "makerAssetFilledAmount",
                                "type": "uint256"
                            },
                            {
                                "name": "takerAssetFilledAmount",
                                "type": "uint256"
                            },
                            {
                                "name": "makerFeePaid",
                                "type": "uint256"
                            },
                            {
                                "name": "takerFeePaid",
                                "type": "uint256"
                            }
                        ],
                        "name": "fillResults",
                        "type": "tuple"
                    }
                ],
                "payable": false,
                "stateMutability": "nonpayable",
                "type": "function"
            },
            {
                "constant": false,
                "inputs": [
                    {
                        "name": "validatorAddress",
                        "type": "address"
                    },
                    {
                        "name": "approval",
                        "type": "bool"
                    }
                ],
                "name": "setSignatureValidatorApproval",
                "outputs": [],
                "payable": false,
                "stateMutability": "nonpayable",
                "type": "function"
            },
            {
                "constant": true,
                "inputs": [
                    {
                        "name": "",
                        "type": "address"
                    },
                    {
                        "name": "",
                        "type": "address"
                    }
                ],
                "name": "allowedValidators",
                "outputs": [
                    {
                        "name": "",
                        "type": "bool"
                    }
                ],
                "payable": false,
                "stateMutability": "view",
                "type": "function"
            },
            {
                "constant": false,
                "inputs": [
                    {
                        "components": [
                            {
                                "name": "makerAddress",
                                "type": "address"
                            },
                            {
                                "name": "takerAddress",
                                "type": "address"
                            },
                            {
                                "name": "feeRecipientAddress",
                                "type": "address"
                            },
                            {
                                "name": "senderAddress",
                                "type": "address"
                            },
                            {
                                "name": "makerAssetAmount",
                                "type": "uint256"
                            },
                            {
                                "name": "takerAssetAmount",
                                "type": "uint256"
                            },
                            {
                                "name": "makerFee",
                                "type": "uint256"
                            },
                            {
                                "name": "takerFee",
                                "type": "uint256"
                            },
                            {
                                "name": "expirationTimeSeconds",
                                "type": "uint256"
                            },
                            {
                                "name": "salt",
                                "type": "uint256"
                            },
                            {
                                "name": "makerAssetData",
                                "type": "bytes"
                            },
                            {
                                "name": "takerAssetData",
                                "type": "bytes"
                            }
                        ],
                        "name": "orders",
                        "type": "tuple[]"
                    },
                    {
                        "name": "takerAssetFillAmount",
                        "type": "uint256"
                    },
                    {
                        "name": "signatures",
                        "type": "bytes[]"
                    }
                ],
                "name": "marketSellOrders",
                "outputs": [
                    {
                        "components": [
                            {
                                "name": "makerAssetFilledAmount",
                                "type": "uint256"
                            },
                            {
                                "name": "takerAssetFilledAmount",
                                "type": "uint256"
                            },
                            {
                                "name": "makerFeePaid",
                                "type": "uint256"
                            },
                            {
                                "name": "takerFeePaid",
                                "type": "uint256"
                            }
                        ],
                        "name": "totalFillResults",
                        "type": "tuple"
                    }
                ],
                "payable": false,
                "stateMutability": "nonpayable",
                "type": "function"
            },
            {
                "constant": true,
                "inputs": [
                    {
                        "components": [
                            {
                                "name": "makerAddress",
                                "type": "address"
                            },
                            {
                                "name": "takerAddress",
                                "type": "address"
                            },
                            {
                                "name": "feeRecipientAddress",
                                "type": "address"
                            },
                            {
                                "name": "senderAddress",
                                "type": "address"
                            },
                            {
                                "name": "makerAssetAmount",
                                "type": "uint256"
                            },
                            {
                                "name": "takerAssetAmount",
                                "type": "uint256"
                            },
                            {
                                "name": "makerFee",
                                "type": "uint256"
                            },
                            {
                                "name": "takerFee",
                                "type": "uint256"
                            },
                            {
                                "name": "expirationTimeSeconds",
                                "type": "uint256"
                            },
                            {
                                "name": "salt",
                                "type": "uint256"
                            },
                            {
                                "name": "makerAssetData",
                                "type": "bytes"
                            },
                            {
                                "name": "takerAssetData",
                                "type": "bytes"
                            }
                        ],
                        "name": "orders",
                        "type": "tuple[]"
                    }
                ],
                "name": "getOrdersInfo",
                "outputs": [
                    {
                        "components": [
                            {
                                "name": "orderStatus",
                                "type": "uint8"
                            },
                            {
                                "name": "orderHash",
                                "type": "bytes32"
                            },
                            {
                                "name": "orderTakerAssetFilledAmount",
                                "type": "uint256"
                            }
                        ],
                        "name": "",
                        "type": "tuple[]"
                    }
                ],
                "payable": false,
                "stateMutability": "view",
                "type": "function"
            },
            {
                "constant": true,
                "inputs": [
                    {
                        "name": "",
                        "type": "bytes32"
                    },
                    {
                        "name": "",
                        "type": "address"
                    }
                ],
                "name": "preSigned",
                "outputs": [
                    {
                        "name": "",
                        "type": "bool"
                    }
                ],
                "payable": false,
                "stateMutability": "view",
                "type": "function"
            },
            {
                "constant": true,
                "inputs": [],
                "name": "owner",
                "outputs": [
                    {
                        "name": "",
                        "type": "address"
                    }
                ],
                "payable": false,
                "stateMutability": "view",
                "type": "function"
            },
            {
                "constant": true,
                "inputs": [
                    {
                        "name": "hash",
                        "type": "bytes32"
                    },
                    {
                        "name": "signerAddress",
                        "type": "address"
                    },
                    {
                        "name": "signature",
                        "type": "bytes"
                    }
                ],
                "name": "isValidSignature",
                "outputs": [
                    {
                        "name": "isValid",
                        "type": "bool"
                    }
                ],
                "payable": false,
                "stateMutability": "view",
                "type": "function"
            },
            {
                "constant": false,
                "inputs": [
                    {
                        "components": [
                            {
                                "name": "makerAddress",
                                "type": "address"
                            },
                            {
                                "name": "takerAddress",
                                "type": "address"
                            },
                            {
                                "name": "feeRecipientAddress",
                                "type": "address"
                            },
                            {
                                "name": "senderAddress",
                                "type": "address"
                            },
                            {
                                "name": "makerAssetAmount",
                                "type": "uint256"
                            },
                            {
                                "name": "takerAssetAmount",
                                "type": "uint256"
                            },
                            {
                                "name": "makerFee",
                                "type": "uint256"
                            },
                            {
                                "name": "takerFee",
                                "type": "uint256"
                            },
                            {
                                "name": "expirationTimeSeconds",
                                "type": "uint256"
                            },
                            {
                                "name": "salt",
                                "type": "uint256"
                            },
                            {
                                "name": "makerAssetData",
                                "type": "bytes"
                            },
                            {
                                "name": "takerAssetData",
                                "type": "bytes"
                            }
                        ],
                        "name": "orders",
                        "type": "tuple[]"
                    },
                    {
                        "name": "makerAssetFillAmount",
                        "type": "uint256"
                    },
                    {
                        "name": "signatures",
                        "type": "bytes[]"
                    }
                ],
                "name": "marketBuyOrdersNoThrow",
                "outputs": [
                    {
                        "components": [
                            {
                                "name": "makerAssetFilledAmount",
                                "type": "uint256"
                            },
                            {
                                "name": "takerAssetFilledAmount",
                                "type": "uint256"
                            },
                            {
                                "name": "makerFeePaid",
                                "type": "uint256"
                            },
                            {
                                "name": "takerFeePaid",
                                "type": "uint256"
                            }
                        ],
                        "name": "totalFillResults",
                        "type": "tuple"
                    }
                ],
                "payable": false,
                "stateMutability": "nonpayable",
                "type": "function"
            },
            {
                "constant": false,
                "inputs": [
                    {
                        "components": [
                            {
                                "name": "makerAddress",
                                "type": "address"
                            },
                            {
                                "name": "takerAddress",
                                "type": "address"
                            },
                            {
                                "name": "feeRecipientAddress",
                                "type": "address"
                            },
                            {
                                "name": "senderAddress",
                                "type": "address"
                            },
                            {
                                "name": "makerAssetAmount",
                                "type": "uint256"
                            },
                            {
                                "name": "takerAssetAmount",
                                "type": "uint256"
                            },
                            {
                                "name": "makerFee",
                                "type": "uint256"
                            },
                            {
                                "name": "takerFee",
                                "type": "uint256"
                            },
                            {
                                "name": "expirationTimeSeconds",
                                "type": "uint256"
                            },
                            {
                                "name": "salt",
                                "type": "uint256"
                            },
                            {
                                "name": "makerAssetData",
                                "type": "bytes"
                            },
                            {
                                "name": "takerAssetData",
                                "type": "bytes"
                            }
                        ],
                        "name": "order",
                        "type": "tuple"
                    },
                    {
                        "name": "takerAssetFillAmount",
                        "type": "uint256"
                    },
                    {
                        "name": "signature",
                        "type": "bytes"
                    }
                ],
                "name": "fillOrder",
                "outputs": [
                    {
                        "components": [
                            {
                                "name": "makerAssetFilledAmount",
                                "type": "uint256"
                            },
                            {
                                "name": "takerAssetFilledAmount",
                                "type": "uint256"
                            },
                            {
                                "name": "makerFeePaid",
                                "type": "uint256"
                            },
                            {
                                "name": "takerFeePaid",
                                "type": "uint256"
                            }
                        ],
                        "name": "fillResults",
                        "type": "tuple"
                    }
                ],
                "payable": false,
                "stateMutability": "nonpayable",
                "type": "function"
            },
            {
                "constant": false,
                "inputs": [
                    {
                        "name": "salt",
                        "type": "uint256"
                    },
                    {
                        "name": "signerAddress",
                        "type": "address"
                    },
                    {
                        "name": "data",
                        "type": "bytes"
                    },
                    {
                        "name": "signature",
                        "type": "bytes"
                    }
                ],
                "name": "executeTransaction",
                "outputs": [],
                "payable": false,
                "stateMutability": "nonpayable",
                "type": "function"
            },
            {
                "constant": false,
                "inputs": [
                    {
                        "name": "assetProxy",
                        "type": "address"
                    }
                ],
                "name": "registerAssetProxy",
                "outputs": [],
                "payable": false,
                "stateMutability": "nonpayable",
                "type": "function"
            },
            {
                "constant": true,
                "inputs": [
                    {
                        "components": [
                            {
                                "name": "makerAddress",
                                "type": "address"
                            },
                            {
                                "name": "takerAddress",
                                "type": "address"
                            },
                            {
                                "name": "feeRecipientAddress",
                                "type": "address"
                            },
                            {
                                "name": "senderAddress",
                                "type": "address"
                            },
                            {
                                "name": "makerAssetAmount",
                                "type": "uint256"
                            },
                            {
                                "name": "takerAssetAmount",
                                "type": "uint256"
                            },
                            {
                                "name": "makerFee",
                                "type": "uint256"
                            },
                            {
                                "name": "takerFee",
                                "type": "uint256"
                            },
                            {
                                "name": "expirationTimeSeconds",
                                "type": "uint256"
                            },
                            {
                                "name": "salt",
                                "type": "uint256"
                            },
                            {
                                "name": "makerAssetData",
                                "type": "bytes"
                            },
                            {
                                "name": "takerAssetData",
                                "type": "bytes"
                            }
                        ],
                        "name": "order",
                        "type": "tuple"
                    }
                ],
                "name": "getOrderInfo",
                "outputs": [
                    {
                        "components": [
                            {
                                "name": "orderStatus",
                                "type": "uint8"
                            },
                            {
                                "name": "orderHash",
                                "type": "bytes32"
                            },
                            {
                                "name": "orderTakerAssetFilledAmount",
                                "type": "uint256"
                            }
                        ],
                        "name": "orderInfo",
                        "type": "tuple"
                    }
                ],
                "payable": false,
                "stateMutability": "view",
                "type": "function"
            },
            {
                "constant": false,
                "inputs": [
                    {
                        "components": [
                            {
                                "name": "makerAddress",
                                "type": "address"
                            },
                            {
                                "name": "takerAddress",
                                "type": "address"
                            },
                            {
                                "name": "feeRecipientAddress",
                                "type": "address"
                            },
                            {
                                "name": "senderAddress",
                                "type": "address"
                            },
                            {
                                "name": "makerAssetAmount",
                                "type": "uint256"
                            },
                            {
                                "name": "takerAssetAmount",
                                "type": "uint256"
                            },
                            {
                                "name": "makerFee",
                                "type": "uint256"
                            },
                            {
                                "name": "takerFee",
                                "type": "uint256"
                            },
                            {
                                "name": "expirationTimeSeconds",
                                "type": "uint256"
                            },
                            {
                                "name": "salt",
                                "type": "uint256"
                            },
                            {
                                "name": "makerAssetData",
                                "type": "bytes"
                            },
                            {
                                "name": "takerAssetData",
                                "type": "bytes"
                            }
                        ],
                        "name": "order",
                        "type": "tuple"
                    }
                ],
                "name": "cancelOrder",
                "outputs": [],
                "payable": false,
                "stateMutability": "nonpayable",
                "type": "function"
            },
            {
                "constant": true,
                "inputs": [
                    {
                        "name": "",
                        "type": "address"
                    },
                    {
                        "name": "",
                        "type": "address"
                    }
                ],
                "name": "orderEpoch",
                "outputs": [
                    {
                        "name": "",
                        "type": "uint256"
                    }
                ],
                "payable": false,
                "stateMutability": "view",
                "type": "function"
            },
            {
                "constant": true,
                "inputs": [],
                "name": "ZRX_ASSET_DATA",
                "outputs": [
                    {
                        "name": "",
                        "type": "bytes"
                    }
                ],
                "payable": false,
                "stateMutability": "view",
                "type": "function"
            },
            {
                "constant": false,
                "inputs": [
                    {
                        "components": [
                            {
                                "name": "makerAddress",
                                "type": "address"
                            },
                            {
                                "name": "takerAddress",
                                "type": "address"
                            },
                            {
                                "name": "feeRecipientAddress",
                                "type": "address"
                            },
                            {
                                "name": "senderAddress",
                                "type": "address"
                            },
                            {
                                "name": "makerAssetAmount",
                                "type": "uint256"
                            },
                            {
                                "name": "takerAssetAmount",
                                "type": "uint256"
                            },
                            {
                                "name": "makerFee",
                                "type": "uint256"
                            },
                            {
                                "name": "takerFee",
                                "type": "uint256"
                            },
                            {
                                "name": "expirationTimeSeconds",
                                "type": "uint256"
                            },
                            {
                                "name": "salt",
                                "type": "uint256"
                            },
                            {
                                "name": "makerAssetData",
                                "type": "bytes"
                            },
                            {
                                "name": "takerAssetData",
                                "type": "bytes"
                            }
                        ],
                        "name": "orders",
                        "type": "tuple[]"
                    },
                    {
                        "name": "takerAssetFillAmount",
                        "type": "uint256"
                    },
                    {
                        "name": "signatures",
                        "type": "bytes[]"
                    }
                ],
                "name": "marketSellOrdersNoThrow",
                "outputs": [
                    {
                        "components": [
                            {
                                "name": "makerAssetFilledAmount",
                                "type": "uint256"
                            },
                            {
                                "name": "takerAssetFilledAmount",
                                "type": "uint256"
                            },
                            {
                                "name": "makerFeePaid",
                                "type": "uint256"
                            },
                            {
                                "name": "takerFeePaid",
                                "type": "uint256"
                            }
                        ],
                        "name": "totalFillResults",
                        "type": "tuple"
                    }
                ],
                "payable": false,
                "stateMutability": "nonpayable",
                "type": "function"
            },
            {
                "constant": true,
                "inputs": [],
                "name": "EIP712_DOMAIN_HASH",
                "outputs": [
                    {
                        "name": "",
                        "type": "bytes32"
                    }
                ],
                "payable": false,
                "stateMutability": "view",
                "type": "function"
            },
            {
                "constant": false,
                "inputs": [
                    {
                        "components": [
                            {
                                "name": "makerAddress",
                                "type": "address"
                            },
                            {
                                "name": "takerAddress",
                                "type": "address"
                            },
                            {
                                "name": "feeRecipientAddress",
                                "type": "address"
                            },
                            {
                                "name": "senderAddress",
                                "type": "address"
                            },
                            {
                                "name": "makerAssetAmount",
                                "type": "uint256"
                            },
                            {
                                "name": "takerAssetAmount",
                                "type": "uint256"
                            },
                            {
                                "name": "makerFee",
                                "type": "uint256"
                            },
                            {
                                "name": "takerFee",
                                "type": "uint256"
                            },
                            {
                                "name": "expirationTimeSeconds",
                                "type": "uint256"
                            },
                            {
                                "name": "salt",
                                "type": "uint256"
                            },
                            {
                                "name": "makerAssetData",
                                "type": "bytes"
                            },
                            {
                                "name": "takerAssetData",
                                "type": "bytes"
                            }
                        ],
                        "name": "orders",
                        "type": "tuple[]"
                    },
                    {
                        "name": "makerAssetFillAmount",
                        "type": "uint256"
                    },
                    {
                        "name": "signatures",
                        "type": "bytes[]"
                    }
                ],
                "name": "marketBuyOrders",
                "outputs": [
                    {
                        "components": [
                            {
                                "name": "makerAssetFilledAmount",
                                "type": "uint256"
                            },
                            {
                                "name": "takerAssetFilledAmount",
                                "type": "uint256"
                            },
                            {
                                "name": "makerFeePaid",
                                "type": "uint256"
                            },
                            {
                                "name": "takerFeePaid",
                                "type": "uint256"
                            }
                        ],
                        "name": "totalFillResults",
                        "type": "tuple"
                    }
                ],
                "payable": false,
                "stateMutability": "nonpayable",
                "type": "function"
            },
            {
                "constant": true,
                "inputs": [],
                "name": "currentContextAddress",
                "outputs": [
                    {
                        "name": "",
                        "type": "address"
                    }
                ],
                "payable": false,
                "stateMutability": "view",
                "type": "function"
            },
            {
                "constant": false,
                "inputs": [
                    {
                        "name": "newOwner",
                        "type": "address"
                    }
                ],
                "name": "transferOwnership",
                "outputs": [],
                "payable": false,
                "stateMutability": "nonpayable",
                "type": "function"
            },
            {
                "constant": true,
                "inputs": [],
                "name": "VERSION",
                "outputs": [
                    {
                        "name": "",
                        "type": "string"
                    }
                ],
                "payable": false,
                "stateMutability": "view",
                "type": "function"
            },
            {
                "inputs": [
                    {
                        "name": "_zrxAssetData",
                        "type": "bytes"
                    }
                ],
                "payable": false,
                "stateMutability": "nonpayable",
                "type": "constructor"
            },
            {
                "anonymous": false,
                "inputs": [
                    {
                        "indexed": true,
                        "name": "signerAddress",
                        "type": "address"
                    },
                    {
                        "indexed": true,
                        "name": "validatorAddress",
                        "type": "address"
                    },
                    {
                        "indexed": false,
                        "name": "approved",
                        "type": "bool"
                    }
                ],
                "name": "SignatureValidatorApproval",
                "type": "event"
            },
            {
                "anonymous": false,
                "inputs": [
                    {
                        "indexed": true,
                        "name": "makerAddress",
                        "type": "address"
                    },
                    {
                        "indexed": true,
                        "name": "feeRecipientAddress",
                        "type": "address"
                    },
                    {
                        "indexed": false,
                        "name": "takerAddress",
                        "type": "address"
                    },
                    {
                        "indexed": false,
                        "name": "senderAddress",
                        "type": "address"
                    },
                    {
                        "indexed": false,
                        "name": "makerAssetFilledAmount",
                        "type": "uint256"
                    },
                    {
                        "indexed": false,
                        "name": "takerAssetFilledAmount",
                        "type": "uint256"
                    },
                    {
                        "indexed": false,
                        "name": "makerFeePaid",
                        "type": "uint256"
                    },
                    {
                        "indexed": false,
                        "name": "takerFeePaid",
                        "type": "uint256"
                    },
                    {
                        "indexed": true,
                        "name": "orderHash",
                        "type": "bytes32"
                    },
                    {
                        "indexed": false,
                        "name": "makerAssetData",
                        "type": "bytes"
                    },
                    {
                        "indexed": false,
                        "name": "takerAssetData",
                        "type": "bytes"
                    }
                ],
                "name": "Fill",
                "type": "event"
            },
            {
                "anonymous": false,
                "inputs": [
                    {
                        "indexed": true,
                        "name": "makerAddress",
                        "type": "address"
                    },
                    {
                        "indexed": true,
                        "name": "feeRecipientAddress",
                        "type": "address"
                    },
                    {
                        "indexed": false,
                        "name": "senderAddress",
                        "type": "address"
                    },
                    {
                        "indexed": true,
                        "name": "orderHash",
                        "type": "bytes32"
                    },
                    {
                        "indexed": false,
                        "name": "makerAssetData",
                        "type": "bytes"
                    },
                    {
                        "indexed": false,
                        "name": "takerAssetData",
                        "type": "bytes"
                    }
                ],
                "name": "Cancel",
                "type": "event"
            },
            {
                "anonymous": false,
                "inputs": [
                    {
                        "indexed": true,
                        "name": "makerAddress",
                        "type": "address"
                    },
                    {
                        "indexed": true,
                        "name": "senderAddress",
                        "type": "address"
                    },
                    {
                        "indexed": false,
                        "name": "orderEpoch",
                        "type": "uint256"
                    }
                ],
                "name": "CancelUpTo",
                "type": "event"
            },
            {
                "anonymous": false,
                "inputs": [
                    {
                        "indexed": false,
                        "name": "id",
                        "type": "bytes4"
                    },
                    {
                        "indexed": false,
                        "name": "assetProxy",
                        "type": "address"
                    }
                ],
                "name": "AssetProxyRegistered",
                "type": "event"
            }
        ],
        "devdoc": {
            "methods": {
                "batchCancelOrders((address,address,address,address,uint256,uint256,uint256,uint256,uint256,uint256,bytes,bytes)[])": {
                    "details": "Synchronously cancels multiple orders in a single transaction.",
                    "params": {
                        "orders": "Array of order specifications."
                    }
                },
                "batchFillOrKillOrders((address,address,address,address,uint256,uint256,uint256,uint256,uint256,uint256,bytes,bytes)[],uint256[],bytes[])": {
                    "details": "Synchronously executes multiple calls of fillOrKill.",
                    "params": {
                        "orders": "Array of order specifications.",
                        "signatures": "Proofs that orders have been created by makers.",
                        "takerAssetFillAmounts": "Array of desired amounts of takerAsset to sell in orders."
                    },
                    "return": "Amounts filled and fees paid by makers and taker.         NOTE: makerAssetFilledAmount and takerAssetFilledAmount may include amounts filled of different assets."
                },
                "batchFillOrders((address,address,address,address,uint256,uint256,uint256,uint256,uint256,uint256,bytes,bytes)[],uint256[],bytes[])": {
                    "details": "Synchronously executes multiple calls of fillOrder.",
                    "params": {
                        "orders": "Array of order specifications.",
                        "signatures": "Proofs that orders have been created by makers.",
                        "takerAssetFillAmounts": "Array of desired amounts of takerAsset to sell in orders."
                    },
                    "return": "Amounts filled and fees paid by makers and taker.         NOTE: makerAssetFilledAmount and takerAssetFilledAmount may include amounts filled of different assets."
                },
                "batchFillOrdersNoThrow((address,address,address,address,uint256,uint256,uint256,uint256,uint256,uint256,bytes,bytes)[],uint256[],bytes[])": {
                    "details": "Fills an order with specified parameters and ECDSA signature.      Returns false if the transaction would otherwise revert.",
                    "params": {
                        "orders": "Array of order specifications.",
                        "signatures": "Proofs that orders have been created by makers.",
                        "takerAssetFillAmounts": "Array of desired amounts of takerAsset to sell in orders."
                    },
                    "return": "Amounts filled and fees paid by makers and taker.         NOTE: makerAssetFilledAmount and takerAssetFilledAmount may include amounts filled of different assets."
                },
                "cancelOrder((address,address,address,address,uint256,uint256,uint256,uint256,uint256,uint256,bytes,bytes))": {
                    "details": "After calling, the order can not be filled anymore.      Throws if order is invalid or sender does not have permission to cancel.",
                    "params": {
                        "order": "Order to cancel. Order must be OrderStatus.FILLABLE."
                    }
                },
                "cancelOrdersUpTo(uint256)": {
                    "details": "Cancels all orders created by makerAddress with a salt less than or equal to the targetOrderEpoch      and senderAddress equal to msg.sender (or null address if msg.sender == makerAddress).",
                    "params": {
                        "targetOrderEpoch": "Orders created with a salt less or equal to this value will be cancelled."
                    }
                },
                "executeTransaction(uint256,address,bytes,bytes)": {
                    "details": "Executes an exchange method call in the context of signer.",
                    "params": {
                        "data": "AbiV2 encoded calldata.",
                        "salt": "Arbitrary number to ensure uniqueness of transaction hash.",
                        "signature": "Proof of signer transaction by signer.",
                        "signerAddress": "Address of transaction signer."
                    }
                },
                "fillOrKillOrder((address,address,address,address,uint256,uint256,uint256,uint256,uint256,uint256,bytes,bytes),uint256,bytes)": {
                    "details": "Fills the input order. Reverts if exact takerAssetFillAmount not filled.",
                    "params": {
                        "order": "Order struct containing order specifications.",
                        "signature": "Proof that order has been created by maker.",
                        "takerAssetFillAmount": "Desired amount of takerAsset to sell."
                    }
                },
                "fillOrder((address,address,address,address,uint256,uint256,uint256,uint256,uint256,uint256,bytes,bytes),uint256,bytes)": {
                    "details": "Fills the input order.",
                    "params": {
                        "order": "Order struct containing order specifications.",
                        "signature": "Proof that order has been created by maker.",
                        "takerAssetFillAmount": "Desired amount of takerAsset to sell."
                    },
                    "return": "Amounts filled and fees paid by maker and taker."
                },
                "fillOrderNoThrow((address,address,address,address,uint256,uint256,uint256,uint256,uint256,uint256,bytes,bytes),uint256,bytes)": {
                    "details": "Fills the input order.      Returns false if the transaction would otherwise revert.",
                    "params": {
                        "order": "Order struct containing order specifications.",
                        "signature": "Proof that order has been created by maker.",
                        "takerAssetFillAmount": "Desired amount of takerAsset to sell."
                    },
                    "return": "Amounts filled and fees paid by maker and taker."
                },
                "getAssetProxy(bytes4)": {
                    "details": "Gets an asset proxy.",
                    "params": {
                        "assetProxyId": "Id of the asset proxy."
                    },
                    "return": "The asset proxy registered to assetProxyId. Returns 0x0 if no proxy is registered."
                },
                "getOrderInfo((address,address,address,address,uint256,uint256,uint256,uint256,uint256,uint256,bytes,bytes))": {
                    "details": "Gets information about an order: status, hash, and amount filled.",
                    "params": {
                        "order": "Order to gather information on."
                    },
                    "return": "OrderInfo Information about the order and its state.         See LibOrder.OrderInfo for a complete description."
                },
                "getOrdersInfo((address,address,address,address,uint256,uint256,uint256,uint256,uint256,uint256,bytes,bytes)[])": {
                    "details": "Fetches information for all passed in orders.",
                    "params": {
                        "orders": "Array of order specifications."
                    },
                    "return": "Array of OrderInfo instances that correspond to each order."
                },
                "isValidSignature(bytes32,address,bytes)": {
                    "details": "Verifies that a hash has been signed by the given signer.",
                    "params": {
                        "hash": "Any 32 byte hash.",
                        "signature": "Proof that the hash has been signed by signer.",
                        "signerAddress": "Address that should have signed the given hash."
                    },
                    "return": "True if the address recovered from the provided signature matches the input signer address."
                },
                "marketBuyOrders((address,address,address,address,uint256,uint256,uint256,uint256,uint256,uint256,bytes,bytes)[],uint256,bytes[])": {
                    "details": "Synchronously executes multiple calls of fillOrder until total amount of makerAsset is bought by taker.",
                    "params": {
                        "makerAssetFillAmount": "Desired amount of makerAsset to buy.",
                        "orders": "Array of order specifications.",
                        "signatures": "Proofs that orders have been signed by makers."
                    },
                    "return": "Amounts filled and fees paid by makers and taker."
                },
                "marketBuyOrdersNoThrow((address,address,address,address,uint256,uint256,uint256,uint256,uint256,uint256,bytes,bytes)[],uint256,bytes[])": {
                    "details": "Synchronously executes multiple fill orders in a single transaction until total amount is bought by taker.      Returns false if the transaction would otherwise revert.",
                    "params": {
                        "makerAssetFillAmount": "Desired amount of makerAsset to buy.",
                        "orders": "Array of order specifications.",
                        "signatures": "Proofs that orders have been signed by makers."
                    },
                    "return": "Amounts filled and fees paid by makers and taker."
                },
                "marketSellOrders((address,address,address,address,uint256,uint256,uint256,uint256,uint256,uint256,bytes,bytes)[],uint256,bytes[])": {
                    "details": "Synchronously executes multiple calls of fillOrder until total amount of takerAsset is sold by taker.",
                    "params": {
                        "orders": "Array of order specifications.",
                        "signatures": "Proofs that orders have been created by makers.",
                        "takerAssetFillAmount": "Desired amount of takerAsset to sell."
                    },
                    "return": "Amounts filled and fees paid by makers and taker."
                },
                "marketSellOrdersNoThrow((address,address,address,address,uint256,uint256,uint256,uint256,uint256,uint256,bytes,bytes)[],uint256,bytes[])": {
                    "details": "Synchronously executes multiple calls of fillOrder until total amount of takerAsset is sold by taker.      Returns false if the transaction would otherwise revert.",
                    "params": {
                        "orders": "Array of order specifications.",
                        "signatures": "Proofs that orders have been signed by makers.",
                        "takerAssetFillAmount": "Desired amount of takerAsset to sell."
                    },
                    "return": "Amounts filled and fees paid by makers and taker."
                },
                "matchOrders((address,address,address,address,uint256,uint256,uint256,uint256,uint256,uint256,bytes,bytes),(address,address,address,address,uint256,uint256,uint256,uint256,uint256,uint256,bytes,bytes),bytes,bytes)": {
                    "details": "Match two complementary orders that have a profitable spread.      Each order is filled at their respective price point. However, the calculations are      carried out as though the orders are both being filled at the right order's price point.      The profit made by the left order goes to the taker (who matched the two orders).",
                    "params": {
                        "leftOrder": "First order to match.",
                        "leftSignature": "Proof that order was created by the left maker.",
                        "rightOrder": "Second order to match.",
                        "rightSignature": "Proof that order was created by the right maker."
                    },
                    "return": "matchedFillResults Amounts filled and fees paid by maker and taker of matched orders."
                },
                "preSign(bytes32,address,bytes)": {
                    "details": "Approves a hash on-chain using any valid signature type.      After presigning a hash, the preSign signature type will become valid for that hash and signer.",
                    "params": {
                        "signature": "Proof that the hash has been signed by signer.",
                        "signerAddress": "Address that should have signed the given hash."
                    }
                },
                "registerAssetProxy(address)": {
                    "details": "Registers an asset proxy to its asset proxy id.      Once an asset proxy is registered, it cannot be unregistered.",
                    "params": {
                        "assetProxy": "Address of new asset proxy to register."
                    }
                },
                "setSignatureValidatorApproval(address,bool)": {
                    "details": "Approves/unnapproves a Validator contract to verify signatures on signer's behalf.",
                    "params": {
                        "approval": "Approval or disapproval of  Validator contract.",
                        "validatorAddress": "Address of Validator contract."
                    }
                }
            }
        },
        "evm": {
            "bytecode": {
                "linkReferences": {},
                "object": "0x60806040526000805460ff191690553480156200001b57600080fd5b5060405162005560380380620055608339810160408190526200003e916200020f565b80518190620000559060019060208401906200016a565b50506040516020016200006890620002ed565b60408051601f1981840301815282825280516020918201208383018352600b84527f30782050726f746f636f6c0000000000000000000000000000000000000000009382019390935281518083018352600181527f32000000000000000000000000000000000000000000000000000000000000009082015290516200013692917ff0f24618f4c4be1e62e026fb039a20ef96f4495294817d1027ffaa6d1f70e61e917fad7c5bef027816a800da1736444fb58a807ef4c9603b7848673f7e3a68eb14a591309101620002d2565b60408051601f19818403018152919052805160209091012060025550600380546001600160a01b03191633179055620003ae565b828054600181600116156101000203166002900490600052602060002090601f016020900481019282601f10620001ad57805160ff1916838001178555620001dd565b82800160010185558215620001dd579182015b82811115620001dd578251825591602001919060010190620001c0565b50620001eb929150620001ef565b5090565b6200020c91905b80821115620001eb5760008155600101620001f6565b90565b6000602080838503121562000222578182fd5b82516001600160401b038082111562000239578384fd5b81850186601f8201126200024b578485fd5b80519250818311156200025c578485fd5b604051601f8401601f19168101850183811182821017156200027c578687fd5b604052838152818401850188101562000293578586fd5b8592505b83831015620002b6578183018501518184018601529184019162000297565b83831115620002c757858585830101525b979650505050505050565b93845260208401929092526040830152606082015260800190565b7f454950373132446f6d61696e280000000000000000000000000000000000000081527f737472696e67206e616d652c0000000000000000000000000000000000000000600d8201527f737472696e672076657273696f6e2c000000000000000000000000000000000060198201527f6164647265737320766572696679696e67436f6e74726163740000000000000060288201527f2900000000000000000000000000000000000000000000000000000000000000604182015260420190565b6151a280620003be6000396000f3fe608060405234801561001057600080fd5b50600436106102415760003560e01c80637e9d74dc11610145578063d46b02c3116100bd578063e306f7791161008c578063eea086ba11610071578063eea086ba146104f8578063f2fde38b14610500578063ffa1ad741461051357610241565b8063e306f779146104dd578063e5fa431b146104e557610241565b8063d46b02c31461048f578063d9bfa73e146104a2578063db123b1a146104b5578063dd1c7d18146104ca57610241565b8063a3e2038011610114578063bfc8bfce116100f9578063bfc8bfce14610449578063c585bb931461045c578063c75e0a811461046f57610241565b8063a3e2038014610423578063b4be83d51461043657610241565b80637e9d74dc146103d557806382c174d0146103f55780638da5cb5b14610408578063936347021461041057610241565b80634d0ae546116101d8578063642f2eaf116101a757806377fcce681161018c57806377fcce681461039c5780637b8e3514146103af5780637e1d9808146103c257610241565b8063642f2eaf1461037657806364a3bc151461038957610241565b80634d0ae5461461032a5780634f9559b11461033d57806350dde19014610350578063607041081461036357610241565b80633c28d861116102145780633c28d861146102c45780633e228bae146102e45780633fd3c997146102f75780634ac147821461031757610241565b8063288cdc9114610246578063297bb70b1461026f5780632ac126221461028f5780633683ef8e146102af575b600080fd5b610259610254366004613fdc565b61051b565b60405161026691906147e5565b60405180910390f35b61028261027d366004613ead565b61052d565b6040516102669190615047565b6102a261029d366004613fdc565b610643565b60405161026691906147da565b6102c26102bd36600461401a565b610658565b005b6102d76102d2366004614133565b610749565b6040516102669190615055565b6102826102f23660046141dc565b6108e1565b61030a6103053660046140c4565b610937565b60405161026691906146ac565b6102c2610325366004613e78565b61095f565b610282610338366004613ead565b610a23565b6102c261034b366004613fdc565b610aff565b61028261035e366004613ead565b610cac565b61030a6103713660046140c4565b610d21565b6102a2610384366004613fdc565b610d6f565b6102826103973660046141dc565b610d84565b6102c26103aa366004613e3b565b610e2f565b6102a26103bd366004613e06565b610f68565b6102826103d0366004613f89565b610f88565b6103e86103e3366004613e78565b6110d9565b604051610266919061478c565b6102a2610403366004613ff5565b61116d565b61030a61118d565b6102a261041e366004614075565b6111a9565b610282610431366004613f89565b61161c565b6102826104443660046141dc565b61171b565b6102c261045736600461423c565b611796565b6102c261046a366004613dea565b611a65565b61048261047d3660046140fe565b611c67565b604051610266919061508d565b6102c261049d3660046140fe565b611d5d565b6102596104b0366004613e06565b611df9565b6104bd611e16565b60405161026691906148ab565b6102826104d8366004613f89565b611ec1565b610259611f7a565b6102826104f3366004613f89565b611f80565b61030a6120b1565b6102c261050e366004613dea565b6120cd565b6104bd61217e565b60046020526000908152604090205481565b610535613abc565b60005460ff161561057b576040517f08c379a000000000000000000000000000000000000000000000000000000000815260040161057290614e69565b60405180910390fd5b600080547fffffffffffffffffffffffffffffffffffffffffffffffffffffffffffffff001660011781558451905b818114610612576105b9613abc565b6105fd8783815181106105c857fe5b60200260200101518784815181106105dc57fe5b60200260200101518785815181106105f057fe5b60200260200101516121b7565b90506106098482612256565b506001016105aa565b5050600080547fffffffffffffffffffffffffffffffffffffffffffffffffffffffffffffff001690559392505050565b60056020526000908152604090205460ff1681565b73ffffffffffffffffffffffffffffffffffffffff831633146106ec576106b6848484848080601f0160208091040260200160405190810160405280939291908181526020018383808284376000920191909152506111a992505050565b6106ec576040517f08c379a000000000000000000000000000000000000000000000000000000000815260040161057290614b78565b5050600091825260076020908152604080842073ffffffffffffffffffffffffffffffffffffffff9093168452919052902080547fffffffffffffffffffffffffffffffffffffffffffffffffffffffffffffff00166001179055565b610751613ae4565b60005460ff161561078e576040517f08c379a000000000000000000000000000000000000000000000000000000000815260040161057290614e69565b600080547fffffffffffffffffffffffffffffffffffffffffffffffffffffffffffffff001660011790556101608086015161014080870191909152860151908501526107d9613b12565b6107e286611c67565b90506107ec613b12565b6107f586611c67565b905060006108016122b8565b905061080f888483896122ea565b61081b878383886122ea565b610825888861247c565b6108398888856040015185604001516124dc565b805160208101519051919550610854918a9186918190612665565b6020808501519081015190516108709189918591908190612665565b610889888285602001518660400151886000015161277c565b6108a2878284602001518560400151886020015161277c565b6108ae8888838761283e565b505050600080547fffffffffffffffffffffffffffffffffffffffffffffffffffffffffffffff00169055949350505050565b6108e9613abc565b60606108f6858585612a16565b9050608081825160208401305af4801561092d57815183526020820151602084015260408201516040840152606082015160608401525b50505b9392505050565b600b6020526000908152604090205473ffffffffffffffffffffffffffffffffffffffff1681565b60005460ff161561099c576040517f08c379a000000000000000000000000000000000000000000000000000000000815260040161057290614e69565b600080547fffffffffffffffffffffffffffffffffffffffffffffffffffffffffffffff001660011781558151905b8181146109f6576109ee8382815181106109e157fe5b6020026020010151612beb565b6001016109cb565b5050600080547fffffffffffffffffffffffffffffffffffffffffffffffffffffffffffffff0016905550565b610a2b613abc565b60005460ff1615610a68576040517f08c379a000000000000000000000000000000000000000000000000000000000815260040161057290614e69565b600080547fffffffffffffffffffffffffffffffffffffffffffffffffffffffffffffff001660011781558451905b81811461061257610aa6613abc565b610aea878381518110610ab557fe5b6020026020010151878481518110610ac957fe5b6020026020010151878581518110610add57fe5b6020026020010151612c16565b9050610af68482612256565b50600101610a97565b60005460ff1615610b3c576040517f08c379a000000000000000000000000000000000000000000000000000000000815260040161057290614e69565b600080547fffffffffffffffffffffffffffffffffffffffffffffffffffffffffffffff00166001178155610b6f6122b8565b9050600073ffffffffffffffffffffffffffffffffffffffff82163314610b965733610b99565b60005b73ffffffffffffffffffffffffffffffffffffffff8084166000908152600660209081526040808320938516835292905220549091506001840190808211610c0d576040517f08c379a000000000000000000000000000000000000000000000000000000000815260040161057290614d8d565b73ffffffffffffffffffffffffffffffffffffffff80851660008181526006602090815260408083209488168084529490915290819020859055517f82af639571738f4ebd4268fb0363d8957ebe1bbb9e78dba5ebd69eed39b154f090610c759086906147e5565b60405180910390a35050600080547fffffffffffffffffffffffffffffffffffffffffffffffffffffffffffffff00169055505050565b610cb4613abc565b835160005b81811461092d57610cc8613abc565b610d0c878381518110610cd757fe5b6020026020010151878481518110610ceb57fe5b6020026020010151878581518110610cff57fe5b60200260200101516108e1565b9050610d188482612256565b50600101610cb9565b7fffffffff0000000000000000000000000000000000000000000000000000000081166000908152600b602052604090205473ffffffffffffffffffffffffffffffffffffffff165b919050565b60096020526000908152604090205460ff1681565b610d8c613abc565b60005460ff1615610dc9576040517f08c379a000000000000000000000000000000000000000000000000000000000815260040161057290614e69565b600080547fffffffffffffffffffffffffffffffffffffffffffffffffffffffffffffff00166001179055610dff848484612c16565b600080547fffffffffffffffffffffffffffffffffffffffffffffffffffffffffffffff00169055949350505050565b60005460ff1615610e6c576040517f08c379a000000000000000000000000000000000000000000000000000000000815260040161057290614e69565b600080547fffffffffffffffffffffffffffffffffffffffffffffffffffffffffffffff00166001178155610e9f6122b8565b73ffffffffffffffffffffffffffffffffffffffff8181166000818152600860209081526040808320948916808452949091529081902080547fffffffffffffffffffffffffffffffffffffffffffffffffffffffffffffff00168715151790555192935090917fa8656e308026eeabce8f0bc18048433252318ab80ac79da0b3d3d8697dfba89190610f339086906147da565b60405180910390a35050600080547fffffffffffffffffffffffffffffffffffffffffffffffffffffffffffffff0016905550565b600860209081526000928352604080842090915290825290205460ff1681565b610f90613abc565b60005460ff1615610fcd576040517f08c379a000000000000000000000000000000000000000000000000000000000815260040161057290614e69565b600080547fffffffffffffffffffffffffffffffffffffffffffffffffffffffffffffff001660011781558451606091869161100557fe5b60209081029190910101516101600151855190915060005b8181146110a7578287828151811061103157fe5b602002602001015161016001819052506000611051878660200151612c68565b905061105b613abc565b61107f89848151811061106a57fe5b6020026020010151838986815181106105f057fe5b905061108b8682612256565b8786602001511061109d5750506110a7565b505060010161101d565b505050600080547fffffffffffffffffffffffffffffffffffffffffffffffffffffffffffffff001690559392505050565b606060008251905060608160405190808252806020026020018201604052801561111d57816020015b61110a613b12565b8152602001906001900390816111025790505b50905060005b8281146111655761114685828151811061113957fe5b6020026020010151611c67565b82828151811061115257fe5b6020908102919091010152600101611123565b509392505050565b600760209081526000928352604080842090915290825290205460ff1681565b60035473ffffffffffffffffffffffffffffffffffffffff1681565b6000808251116111e5576040517f08c379a000000000000000000000000000000000000000000000000000000000815260040161057290614d56565b60006111f083612caf565b60f81c90506007811061122f576040517f08c379a000000000000000000000000000000000000000000000000000000000815260040161057290614a2e565b60008160ff16600781111561124057fe5b905060008080808085600781111561125457fe5b141561128c576040517f08c379a000000000000000000000000000000000000000000000000000000000815260040161057290614d1f565b600185600781111561129a57fe5b14156112e9578751156112d9576040517f08c379a000000000000000000000000000000000000000000000000000000000815260040161057290615010565b5060009550610930945050505050565b60028560078111156112f757fe5b141561140c578751604114611338576040517f08c379a0000000000000000000000000000000000000000000000000000000008152600401610572906148be565b8760008151811061134557fe5b016020015160f81c935061136088600163ffffffff612d4d16565b925061137388602163ffffffff612d4d16565b915060018a858585604051600081526020016040526040516113989493929190614845565b6020604051602081039080840390855afa1580156113ba573d6000803e3d6000fd5b50506040517fffffffffffffffffffffffffffffffffffffffffffffffffffffffffffffffe0015173ffffffffffffffffffffffffffffffffffffffff8b811691161497506109309650505050505050565b600385600781111561141a57fe5b14156114e157875160411461145b576040517f08c379a0000000000000000000000000000000000000000000000000000000008152600401610572906148be565b8760008151811061146857fe5b016020015160f81c935061148388600163ffffffff612d4d16565b925061149688602163ffffffff612d4d16565b915060018a6040516020016114ab91906143fd565b60405160208183030381529060405280519060200120858585604051600081526020016040526040516113989493929190614845565b60048560078111156114ef57fe5b141561150e576115008a8a8a612d96565b965061093095505050505050565b600585600781111561151c57fe5b141561159557600061152d89612eeb565b73ffffffffffffffffffffffffffffffffffffffff808c1660009081526008602090815260408083209385168352929052205490915060ff1661157a576000975050505050505050610930565b611586818c8c8c612f62565b97506109309650505050505050565b60068560078111156115a357fe5b14156115ea57505050600087815260076020908152604080832073ffffffffffffffffffffffffffffffffffffffff8a16845290915290205460ff16935061093092505050565b6040517f08c379a000000000000000000000000000000000000000000000000000000000815260040161057290614a2e565b611624613abc565b60608460008151811061163357fe5b60209081029190910101516101400151855190915060005b818114611711578287828151811061165f57fe5b60200260200101516101400181905250600061167f878660000151612c68565b905060006116bc89848151811061169257fe5b602002602001015160a001518a85815181106116aa57fe5b602002602001015160800151846130be565b90506116c6613abc565b6116ea8a85815181106116d557fe5b6020026020010151838a8781518110610cff57fe5b90506116f68782612256565b8651891161170657505050611711565b50505060010161164b565b5050509392505050565b611723613abc565b60005460ff1615611760576040517f08c379a000000000000000000000000000000000000000000000000000000000815260040161057290614e69565b600080547fffffffffffffffffffffffffffffffffffffffffffffffffffffffffffffff00166001179055610dff8484846121b7565b600a5473ffffffffffffffffffffffffffffffffffffffff16156117e6576040517f08c379a000000000000000000000000000000000000000000000000000000000815260040161057290614e69565b600061183161182c888888888080601f01602080910402602001604051908101604052809392919081815260200183838082843760009201919091525061311492505050565b61319c565b60008181526009602052604090205490915060ff161561187d576040517f08c379a000000000000000000000000000000000000000000000000000000000815260040161057290614b41565b73ffffffffffffffffffffffffffffffffffffffff86163314611952576118db818785858080601f0160208091040260200160405190810160405280939291908181526020018383808284376000920191909152506111a992505050565b611911576040517f08c379a000000000000000000000000000000000000000000000000000000000815260040161057290614fd9565b600a80547fffffffffffffffffffffffff00000000000000000000000000000000000000001673ffffffffffffffffffffffffffffffffffffffff88161790555b60008181526009602052604080822080547fffffffffffffffffffffffffffffffffffffffffffffffffffffffffffffff0016600117905551309061199a90889088906143ce565b600060405180830381855af49150503d80600081146119d5576040519150601f19603f3d011682016040523d82523d6000602084013e6119da565b606091505b5050905080611a15576040517f08c379a000000000000000000000000000000000000000000000000000000000815260040161057290614be6565b73ffffffffffffffffffffffffffffffffffffffff87163314611a5b57600a80547fffffffffffffffffffffffff00000000000000000000000000000000000000001690555b5050505050505050565b60035473ffffffffffffffffffffffffffffffffffffffff163314611ab6576040517f08c379a000000000000000000000000000000000000000000000000000000000815260040161057290614ea0565b60008173ffffffffffffffffffffffffffffffffffffffff1663ae25532e6040518163ffffffff1660e01b815260040160206040518083038186803b158015611afe57600080fd5b505afa158015611b12573d6000803e3d6000fd5b505050506040513d601f19601f82011682018060405250611b3691908101906140e1565b7fffffffff0000000000000000000000000000000000000000000000000000000081166000908152600b602052604090205490915073ffffffffffffffffffffffffffffffffffffffff168015611bb9576040517f08c379a00000000000000000000000000000000000000000000000000000000081526004016105729061499a565b7fffffffff0000000000000000000000000000000000000000000000000000000082166000908152600b60205260409081902080547fffffffffffffffffffffffff00000000000000000000000000000000000000001673ffffffffffffffffffffffffffffffffffffffff8616179055517fd2c6b762299c609bdb96520b58a49bfb80186934d4f71a86a367571a15c0319490611c5a9084908690614863565b60405180910390a1505050565b611c6f613b12565b611c78826131d9565b602080830182905260009182526004905260409081902054908201526080820151611caa5760015b60ff168152610d6a565b60a0820151611cba576002611ca0565b8160a00151816040015110611cd0576005611ca0565b8161010001514210611ce3576004611ca0565b60208082015160009081526005909152604090205460ff1615611d07576006611ca0565b610120820151825173ffffffffffffffffffffffffffffffffffffffff90811660009081526006602090815260408083206060880151909416835292905220541115611d54576006611ca0565b60038152919050565b60005460ff1615611d9a576040517f08c379a000000000000000000000000000000000000000000000000000000000815260040161057290614e69565b600080547fffffffffffffffffffffffffffffffffffffffffffffffffffffffffffffff00166001179055611dce81612beb565b50600080547fffffffffffffffffffffffffffffffffffffffffffffffffffffffffffffff00169055565b600660209081526000928352604080842090915290825290205481565b60018054604080516020600284861615610100027fffffffffffffffffffffffffffffffffffffffffffffffffffffffffffffffff0190941693909304601f81018490048402820184019092528181529291830182828015611eb95780601f10611e8e57610100808354040283529160200191611eb9565b820191906000526020600020905b815481529060010190602001808311611e9c57829003601f168201915b505050505081565b611ec9613abc565b606084600081518110611ed857fe5b60209081029190910101516101600151855190915060005b8181146117115782878281518110611f0457fe5b602002602001015161016001819052506000611f24878660200151612c68565b9050611f2e613abc565b611f52898481518110611f3d57fe5b602002602001015183898681518110610cff57fe5b9050611f5e8682612256565b87866020015110611f70575050611711565b5050600101611ef0565b60025481565b611f88613abc565b60005460ff1615611fc5576040517f08c379a000000000000000000000000000000000000000000000000000000000815260040161057290614e69565b600080547fffffffffffffffffffffffffffffffffffffffffffffffffffffffffffffff0016600117815584516060918691611ffd57fe5b60209081029190910101516101400151855190915060005b8181146110a7578287828151811061202957fe5b602002602001015161014001819052506000612049878660000151612c68565b9050600061205c89848151811061169257fe5b9050612066613abc565b61208a8a858151811061207557fe5b6020026020010151838a87815181106105f057fe5b90506120968782612256565b865189116120a6575050506110a7565b505050600101612015565b600a5473ffffffffffffffffffffffffffffffffffffffff1681565b60035473ffffffffffffffffffffffffffffffffffffffff16331461211e576040517f08c379a000000000000000000000000000000000000000000000000000000000815260040161057290614ea0565b73ffffffffffffffffffffffffffffffffffffffff81161561217b57600380547fffffffffffffffffffffffff00000000000000000000000000000000000000001673ffffffffffffffffffffffffffffffffffffffff83161790555b50565b6040518060400160405280600581526020017f332e302e3000000000000000000000000000000000000000000000000000000081525081565b6121bf613abc565b6121c7613b12565b6121d085611c67565b905060006121dc6122b8565b90506121ea868383876122ea565b60006121fe8760a001518460400151612c68565b9050600061220c87836131e7565b905061221f888589848960000151612665565b61222988826131fd565b94506122408884866020015187604001518961277c565b61224b88848761325e565b505050509392505050565b81518151612264919061336c565b82526020808301519082015161227a919061336c565b602083015260408083015190820151612293919061336c565b6040830152606080830151908201516122ac919061336c565b60609092019190915250565b600a5460009073ffffffffffffffffffffffffffffffffffffffff168181156122e157816122e3565b335b9250505090565b825160ff16600314612328576040517f08c379a000000000000000000000000000000000000000000000000000000000815260040161057290614f34565b606084015173ffffffffffffffffffffffffffffffffffffffff161561239b57606084015173ffffffffffffffffffffffffffffffffffffffff16331461239b576040517f08c379a000000000000000000000000000000000000000000000000000000000815260040161057290614f6b565b602084015173ffffffffffffffffffffffffffffffffffffffff1615612424578173ffffffffffffffffffffffffffffffffffffffff16846020015173ffffffffffffffffffffffffffffffffffffffff1614612424576040517f08c379a0000000000000000000000000000000000000000000000000000000008152600401610572906148f5565b60408301516124765761244083602001518560000151836111a9565b612476576040517f08c379a000000000000000000000000000000000000000000000000000000000815260040161057290614a9c565b50505050565b61248e8260a001518260a001516133ab565b6124a0836080015183608001516133ab565b10156124d8576040517f08c379a000000000000000000000000000000000000000000000000000000000815260040161057290614fa2565b5050565b6124e4613ae4565b60006124f48660a0015185612c68565b9050600061250b87608001518860a00151846133ff565b9050600061251d8760a0015186612c68565b9050600061253488608001518960a00151846133ff565b90508084106125775760208086018051839052805182018490525151865182015260808a015160a08b015187519092015161256f92906133ff565b8551526125b4565b845183905284516020908101859052855181015190860180519190915260a089015160808a01519151516125ab929061347c565b60208087015101525b84515160208087015101516125c99190612c68565b604086015284515160808a015160c08b01516125e69291906133ff565b85516040015284516020015160a08a015160e08b01516126079291906133ff565b855160600152602085015151608089015160c08a01516126289291906133ff565b856020015160400181815250506126508560200151602001518960a001518a60e001516133ff565b60208601516060015250505050949350505050565b8261269c576040517f08c379a000000000000000000000000000000000000000000000000000000000815260040161057290614c54565b828211156126d6576040517f08c379a000000000000000000000000000000000000000000000000000000000815260040161057290614c1d565b8460a001516126e985604001518461336c565b1115612721576040517f08c379a00000000000000000000000000000000000000000000000000000000081526004016105729061492c565b61272f8560800151836133ab565b61273d828760a001516133ab565b1115612775576040517f08c379a000000000000000000000000000000000000000000000000000000000815260040161057290614e32565b5050505050565b61278a82826020015161336c565b600460008581526020019081526020016000208190555082856040015173ffffffffffffffffffffffffffffffffffffffff16866000015173ffffffffffffffffffffffffffffffffffffffff167f0bcc4c97732e47d9946f229edb95f5b6323f601300e4690de719993f3c371129873386600001518760200151886040015189606001518e61014001518f610160015160405161282f989796959493929190614718565b60405180910390a45050505050565b60018054604080516020601f60027fffffffffffffffffffffffffffffffffffffffffffffffffffffffffffffffff61010087891615020190951694909404938401819004810282018101909252828152606093909290918301828280156128e75780601f106128bc576101008083540402835291602001916128e7565b820191906000526020600020905b8154815290600101906020018083116128ca57829003601f168201915b5050505050905061290f85610140015186600001518660000151856020015160200151613519565b6101408401518451865184516020015161292b93929190613519565b6129448561014001518660000151858560400151613519565b6129608186600001518760400151856000015160400151613519565b61297c8185600001518660400151856020015160400151613519565b836040015173ffffffffffffffffffffffffffffffffffffffff16856040015173ffffffffffffffffffffffffffffffffffffffff1614156129e6576129e1818487604001516129dc86600001516060015187602001516060015161336c565b613519565b612775565b6129fe81848760400151856000015160600151613519565b61277581848660400151856020015160600151613519565b604080517fb4be83d5000000000000000000000000000000000000000000000000000000006020808301919091526060602483018181528751608485019081528884015160a48601529488015160c48501529087015160e4840152608087015161010484015260a087015161012484015260c087015161014484015260e08701516101648401526101008701516101848401526101208701516101a4840152610140870180516101c485019081526101608901516101e486015261018090525180516102048501819052939461022486019492936044870193919281019190601f82010460005b81811015612b1b578351885260209788019790930192600101612afd565b5050505080840361016091820152870151805180855260209485019460009281019190601f8201045b80841015612b675782518752602087019650602083019250600184019350612b44565b505050868252918303602091820190815285518085529382019360009391928781019190601f8201045b80861015612bb45782518752602087019650602083019250600186019550612b91565b5050507fffffffffffffffffffffffffffffffffffffffffffffffffffffffffffffffe08585030185525050506040529392505050565b612bf3613b12565b612bfc82611c67565b9050612c0882826136be565b6124d88282602001516137e9565b612c1e613abc565b612c298484846121b7565b905082816020015114610930576040517f08c379a000000000000000000000000000000000000000000000000000000000815260040161057290614dfb565b600082821115612ca4576040517f08c379a000000000000000000000000000000000000000000000000000000000815260040161057290614963565b508082035b92915050565b600080825111612ceb576040517f08c379a000000000000000000000000000000000000000000000000000000000815260040161057290614cc2565b81600183510381518110612cfb57fe5b016020015182517fffffffffffffffffffffffffffffffffffffffffffffffffffffffffffffffff01909252507fff000000000000000000000000000000000000000000000000000000000000001690565b60008160200183511015612d8d576040517f08c379a0000000000000000000000000000000000000000000000000000000008152600401610572906149d1565b50016020015190565b6040516000906060907f1626ba7e0000000000000000000000000000000000000000000000000000000090612dd1908790869060240161482c565b604080517fffffffffffffffffffffffffffffffffffffffffffffffffffffffffffffffe0818403018152919052602080820180517bffffffffffffffffffffffffffffffffffffffffffffffffffffffff167fffffffff00000000000000000000000000000000000000000000000000000000909416939093178352815191935090829081885afa808015612e6e5760018114612edf5761224b565b7f08c379a0000000000000000000000000000000000000000000000000000000006000527c20000000000000000000000000000000000000000000000000000000006020527c0c57414c4c45545f4552524f5200000000000000000000000000000000604052600060605260646000fd5b50505195945050505050565b6000601482511015612f29576040517f08c379a000000000000000000000000000000000000000000000000000000000815260040161057290614ed7565b612f37826014845103613890565b82517fffffffffffffffffffffffffffffffffffffffffffffffffffffffffffffffec019092525090565b6040516000906060907f936347020000000000000000000000000000000000000000000000000000000090612f9f908790879087906024016147ee565b604080517fffffffffffffffffffffffffffffffffffffffffffffffffffffffffffffffe0818403018152919052602080820180517bffffffffffffffffffffffffffffffffffffffffffffffffffffffff167fffffffff000000000000000000000000000000000000000000000000000000009094169390931783528151919350908290818a5afa80801561303c57600181146130ad576130b2565b7f08c379a0000000000000000000000000000000000000000000000000000000006000527c20000000000000000000000000000000000000000000000000000000006020527c0f56414c494441544f525f4552524f5200000000000000000000000000604052600060605260646000fd5b825194505b50505050949350505050565b60008083116130f9576040517f08c379a000000000000000000000000000000000000000000000000000000000815260040161057290614a65565b61310c61310685846133ab565b846138ef565b949350505050565b6000806040516020016131269061442e565b604080517fffffffffffffffffffffffffffffffffffffffffffffffffffffffffffffffe0818403018152828252805160209182012086518783012090845290830188905273ffffffffffffffffffffffffffffffffffffffff8716918301919091526060820152608090209150509392505050565b600280546040517f190100000000000000000000000000000000000000000000000000000000000081529182015260228101919091526042902090565b6000612ca961182c83613904565b60008183106131f65781610930565b5090919050565b613205613abc565b6020810182905260a083015160808401516132219184916133ff565b808252608084015160c08501516132399291906133ff565b604082015260a083015160e08401516132539184916133ff565b606082015292915050565b60018054604080516020601f60027fffffffffffffffffffffffffffffffffffffffffffffffffffffffffffffffff61010087891615020190951694909404938401819004810282018101909252828152606093909290918301828280156133075780601f106132dc57610100808354040283529160200191613307565b820191906000526020600020905b8154815290600101906020018083116132ea57829003601f168201915b505050505090506133278461014001518560000151858560000151613519565b6133408461016001518486600001518560200151613519565b61335881856000015186604001518560400151613519565b612476818486604001518560600151613519565b600082820183811015610930576040517f08c379a000000000000000000000000000000000000000000000000000000000815260040161057290614b0a565b6000826133ba57506000612ca9565b828202828482816133c757fe5b0414610930576040517f08c379a000000000000000000000000000000000000000000000000000000000815260040161057290614b0a565b600080831161343a576040517f08c379a000000000000000000000000000000000000000000000000000000000815260040161057290614a65565b6134458484846139b8565b156130f9576040517f08c379a000000000000000000000000000000000000000000000000000000000815260040161057290614baf565b60008083116134b7576040517f08c379a000000000000000000000000000000000000000000000000000000000815260040161057290614a65565b6134c2848484613a3b565b156134f9576040517f08c379a000000000000000000000000000000000000000000000000000000000815260040161057290614baf565b61310c61310661350986856133ab565b613514866001612c68565b61336c565b60008111801561355557508173ffffffffffffffffffffffffffffffffffffffff168373ffffffffffffffffffffffffffffffffffffffff1614155b15612476576003845111613595576040517f08c379a000000000000000000000000000000000000000000000000000000000815260040161057290614dc4565b6020848101517fffffffff00000000000000000000000000000000000000000000000000000000166000818152600b90925260409091205473ffffffffffffffffffffffffffffffffffffffff168061361a576040517f08c379a000000000000000000000000000000000000000000000000000000000815260040161057290614c8b565b60405186517fa85e59e40000000000000000000000000000000000000000000000000000000082526080600483015273ffffffffffffffffffffffffffffffffffffffff87811660248401528616604483015260648201859052608480830191603f01660fffffffffffe0168301015b808210156136a557885182526020988901989091019061368a565b61020083848303856000885af191505080611a5b573d82fd5b805160ff166003146136fc576040517f08c379a000000000000000000000000000000000000000000000000000000000815260040161057290614f34565b606082015173ffffffffffffffffffffffffffffffffffffffff161561376f57606082015173ffffffffffffffffffffffffffffffffffffffff16331461376f576040517f08c379a000000000000000000000000000000000000000000000000000000000815260040161057290614f6b565b60006137796122b8565b90508073ffffffffffffffffffffffffffffffffffffffff16836000015173ffffffffffffffffffffffffffffffffffffffff16146137e4576040517f08c379a000000000000000000000000000000000000000000000000000000000815260040161057290614ad3565b505050565b6000818152600560205260409081902080547fffffffffffffffffffffffffffffffffffffffffffffffffffffffffffffff001660011790558281015183516101408501516101608601519351859473ffffffffffffffffffffffffffffffffffffffff9485169493909316927fdc47b3613d9fe400085f6dbdc99453462279057e6207385042827ed6b1a62cf792613884923392906146cd565b60405180910390a45050565b600081601401835110156138d0576040517f08c379a000000000000000000000000000000000000000000000000000000000815260040161057290614ed7565b50016014015173ffffffffffffffffffffffffffffffffffffffff1690565b6000808284816138fb57fe5b04949350505050565b600080604051602001613916906144ef565b604051602081830303815290604052805190602001209050600083610140015160405161394391906143e1565b60405180910390209050600084610160015160405161396291906143e1565b6040519081900390207fffffffffffffffffffffffffffffffffffffffffffffffffffffffffffffffe0860180516101408801805161016090990180519784529581529285526101a08220915295905250525090565b60008083116139f3576040517f08c379a000000000000000000000000000000000000000000000000000000000815260040161057290614a65565b8115806139fe575083155b15613a0b57506000610930565b60008380613a1557fe5b8584099050613a2485846133ab565b613a306103e8836133ab565b101595945050505050565b6000808311613a76576040517f08c379a000000000000000000000000000000000000000000000000000000000815260040161057290614a65565b811580613a81575083155b15613a8e57506000610930565b60008380613a9857fe5b858409905083613aa88583612c68565b81613aaf57fe5b069050613a2485846133ab565b6040518060800160405280600081526020016000815260200160008152602001600081525090565b604051806101200160405280613af8613abc565b8152602001613b05613abc565b8152602001600081525090565b604080516060810182526000808252602082018190529181019190915290565b803573ffffffffffffffffffffffffffffffffffffffff81168114612ca957600080fd5b600082601f830112613b66578081fd5b8135613b79613b74826150c2565b61509b565b8181529150602080830190840160005b83811015613bb657613ba18760208435890101613c64565b83526020928301929190910190600101613b89565b5050505092915050565b600082601f830112613bd0578081fd5b8135613bde613b74826150c2565b8181529150602080830190840160005b83811015613bb657613c068760208435890101613ceb565b83526020928301929190910190600101613bee565b60008083601f840112613c2d57600080fd5b50813567ffffffffffffffff811115613c4557600080fd5b602083019150836020828501011115613c5d57600080fd5b9250929050565b600082601f830112613c74578081fd5b813567ffffffffffffffff811115613c8a578182fd5b613cbb60207fffffffffffffffffffffffffffffffffffffffffffffffffffffffffffffffe0601f8401160161509b565b9150808252836020828501011115613cd257600080fd5b8060208401602084013760009082016020015292915050565b6000610180808385031215613cfe578182fd5b613d078161509b565b915050613d148383613b32565b8152613d238360208401613b32565b6020820152613d358360408401613b32565b6040820152613d478360608401613b32565b60608201526080820135608082015260a082013560a082015260c082013560c082015260e082013560e08201526101008083013581830152506101208083013581830152506101408083013567ffffffffffffffff80821115613da957600080fd5b613db586838701613c64565b83850152610160925082850135915080821115613dd157600080fd5b50613dde85828601613c64565b82840152505092915050565b600060208284031215613dfc57600080fd5b6109308383613b32565b60008060408385031215613e1957600080fd5b613e238484613b32565b9150613e328460208501613b32565b90509250929050565b60008060408385031215613e4e57600080fd5b613e588484613b32565b915060208301358015158114613e6d57600080fd5b809150509250929050565b600060208284031215613e8a57600080fd5b813567ffffffffffffffff811115613ea157600080fd5b61310c84828501613bc0565b600080600060608486031215613ec1578081fd5b833567ffffffffffffffff80821115613ed8578283fd5b613ee487838801613bc0565b9450602091508186013581811115613efa578384fd5b80870188601f820112613f0b578485fd5b80359150613f1b613b74836150c2565b82815284810190828601868502840187018c1015613f37578788fd5b8793505b84841015613f59578035835260019390930192918601918601613f3b565b5096505050506040860135915080821115613f72578283fd5b50613f7f86828701613b56565b9150509250925092565b600080600060608486031215613f9d578081fd5b833567ffffffffffffffff80821115613fb4578283fd5b613fc087838801613bc0565b9450602086013593506040860135915080821115613f72578283fd5b600060208284031215613fee57600080fd5b5035919050565b6000806040838503121561400857600080fd5b823591506020830135613e6d8161510f565b6000806000806060858703121561403057600080fd5b843593506140418660208701613b32565b9250604085013567ffffffffffffffff81111561405d57600080fd5b61406987828801613c1b565b95989497509550505050565b60008060006060848603121561408a57600080fd5b83359250602084013561409c8161510f565b9150604084013567ffffffffffffffff8111156140b857600080fd5b613f7f86828701613c64565b6000602082840312156140d657600080fd5b813561093081615131565b6000602082840312156140f357600080fd5b815161093081615131565b60006020828403121561411057600080fd5b813567ffffffffffffffff81111561412757600080fd5b61310c84828501613ceb565b60008060008060808587031215614148578182fd5b843567ffffffffffffffff8082111561415f578384fd5b61416b88838901613ceb565b95506020870135915080821115614180578384fd5b61418c88838901613ceb565b945060408701359150808211156141a1578384fd5b6141ad88838901613c64565b935060608701359150808211156141c357600080fd5b506141d087828801613c64565b91505092959194509250565b6000806000606084860312156141f0578081fd5b833567ffffffffffffffff80821115614207578283fd5b61421387838801613ceb565b945060208601359350604086013591508082111561422f578283fd5b50613f7f86828701613c64565b6000806000806000806080878903121561425557600080fd5b863595506142668860208901613b32565b9450604087013567ffffffffffffffff8082111561428357600080fd5b61428f8a838b01613c1b565b909650945060608901359150808211156142a857600080fd5b506142b589828a01613c1b565b979a9699509497509295939492505050565b600081518084526142df8160208601602086016150e3565b601f017fffffffffffffffffffffffffffffffffffffffffffffffffffffffffffffffe0169290920160200192915050565b7f6279746573206d616b65724173736574446174612c0000000000000000000000815260150190565b7f62797465732074616b6572417373657444617461000000000000000000000000815260140190565b7f2900000000000000000000000000000000000000000000000000000000000000815260010190565b805182526020810151602083015260408101516040830152606081015160608301525050565b805160ff16825260208082015190830152604090810151910152565b6000828483375060009101908152919050565b600082516143f38184602087016150e3565b9190910192915050565b7f19457468657265756d205369676e6564204d6573736167653a0a3332000000008152601c810191909152603c0190565b7f5a65726f45785472616e73616374696f6e28000000000000000000000000000081527f75696e743235362073616c742c0000000000000000000000000000000000000060128201527f61646472657373207369676e6572416464726573732c00000000000000000000601f8201527f627974657320646174610000000000000000000000000000000000000000000060358201527f2900000000000000000000000000000000000000000000000000000000000000603f82015260400190565b60007f4f7264657228000000000000000000000000000000000000000000000000000082527f61646472657373206d616b6572416464726573732c000000000000000000000060068301527f616464726573732074616b6572416464726573732c0000000000000000000000601b8301527f6164647265737320666565526563697069656e74416464726573732c0000000060308301527f616464726573732073656e646572416464726573732c00000000000000000000604c8301527f75696e74323536206d616b65724173736574416d6f756e742c0000000000000060628301527f75696e743235362074616b65724173736574416d6f756e742c00000000000000607b8301527f75696e74323536206d616b65724665652c00000000000000000000000000000060948301527f75696e743235362074616b65724665652c00000000000000000000000000000060a58301527f75696e743235362065787069726174696f6e54696d655365636f6e64732c000060b68301527f75696e743235362073616c742c0000000000000000000000000000000000000060d4830152612ca96146a76146a260e18501614311565b61433a565b614363565b73ffffffffffffffffffffffffffffffffffffffff91909116815260200190565b600073ffffffffffffffffffffffffffffffffffffffff85168252606060208301526146fc60608301856142c7565b828103604084015261470e81856142c7565b9695505050505050565b600061010073ffffffffffffffffffffffffffffffffffffffff808c168452808b166020850152508860408401528760608401528660808401528560a08401528060c084015261476a818401866142c7565b83810360e085015261477c81866142c7565b9c9b505050505050505050505050565b602080825282518282018190526000918401906040840190835b818110156147cf576147b98385516143b2565b60209390930192606092909201916001016147a6565b509095945050505050565b901515815260200190565b90815260200190565b600084825273ffffffffffffffffffffffffffffffffffffffff841660208301526060604083015261482360608301846142c7565b95945050505050565b60008382526040602083015261310c60408301846142c7565b93845260ff9290921660208401526040830152606082015260800190565b7fffffffff0000000000000000000000000000000000000000000000000000000092909216825273ffffffffffffffffffffffffffffffffffffffff16602082015260400190565b60006020825261093060208301846142c7565b60208082526012908201527f4c454e4754485f36355f52455155495245440000000000000000000000000000604082015260600190565b6020808252600d908201527f494e56414c49445f54414b455200000000000000000000000000000000000000604082015260600190565b6020808252600e908201527f4f524445525f4f56455246494c4c000000000000000000000000000000000000604082015260600190565b60208082526011908201527f55494e543235365f554e444552464c4f57000000000000000000000000000000604082015260600190565b6020808252601a908201527f41535345545f50524f58595f414c52454144595f455849535453000000000000604082015260600190565b60208082526026908201527f475245415445525f4f525f455155414c5f544f5f33325f4c454e4754485f524560408201527f5155495245440000000000000000000000000000000000000000000000000000606082015260800190565b60208082526015908201527f5349474e41545552455f554e535550504f525445440000000000000000000000604082015260600190565b60208082526010908201527f4449564953494f4e5f42595f5a45524f00000000000000000000000000000000604082015260600190565b60208082526017908201527f494e56414c49445f4f524445525f5349474e4154555245000000000000000000604082015260600190565b6020808252600d908201527f494e56414c49445f4d414b455200000000000000000000000000000000000000604082015260600190565b60208082526010908201527f55494e543235365f4f564552464c4f5700000000000000000000000000000000604082015260600190565b6020808252600f908201527f494e56414c49445f54585f484153480000000000000000000000000000000000604082015260600190565b60208082526011908201527f494e56414c49445f5349474e4154555245000000000000000000000000000000604082015260600190565b6020808252600e908201527f524f554e44494e475f4552524f52000000000000000000000000000000000000604082015260600190565b60208082526010908201527f4641494c45445f455845435554494f4e00000000000000000000000000000000604082015260600190565b6020808252600d908201527f54414b45525f4f56455250415900000000000000000000000000000000000000604082015260600190565b60208082526014908201527f494e56414c49445f54414b45525f414d4f554e54000000000000000000000000604082015260600190565b6020808252601a908201527f41535345545f50524f58595f444f45535f4e4f545f4558495354000000000000604082015260600190565b60208082526021908201527f475245415445525f5448414e5f5a45524f5f4c454e4754485f5245515549524560408201527f4400000000000000000000000000000000000000000000000000000000000000606082015260800190565b60208082526011908201527f5349474e41545552455f494c4c4547414c000000000000000000000000000000604082015260600190565b6020808252601e908201527f4c454e4754485f475245415445525f5448414e5f305f52455155495245440000604082015260600190565b60208082526017908201527f494e56414c49445f4e45575f4f524445525f45504f4348000000000000000000604082015260600190565b6020808252601e908201527f4c454e4754485f475245415445525f5448414e5f335f52455155495245440000604082015260600190565b60208082526014908201527f434f4d504c4554455f46494c4c5f4641494c4544000000000000000000000000604082015260600190565b60208082526012908201527f494e56414c49445f46494c4c5f50524943450000000000000000000000000000604082015260600190565b60208082526012908201527f5245454e5452414e43595f494c4c4547414c0000000000000000000000000000604082015260600190565b60208082526013908201527f4f4e4c595f434f4e54524143545f4f574e455200000000000000000000000000604082015260600190565b60208082526026908201527f475245415445525f4f525f455155414c5f544f5f32305f4c454e4754485f524560408201527f5155495245440000000000000000000000000000000000000000000000000000606082015260800190565b60208082526010908201527f4f524445525f554e46494c4c41424c4500000000000000000000000000000000604082015260600190565b6020808252600e908201527f494e56414c49445f53454e444552000000000000000000000000000000000000604082015260600190565b60208082526018908201527f4e454741544956455f5350524541445f52455155495245440000000000000000604082015260600190565b60208082526014908201527f494e56414c49445f54585f5349474e4154555245000000000000000000000000604082015260600190565b60208082526011908201527f4c454e4754485f305f5245515549524544000000000000000000000000000000604082015260600190565b60808101612ca9828461438c565b60006101208201905061506982845161438c565b602083015161507b608084018261438c565b50604083015161010083015292915050565b60608101612ca982846143b2565b60405181810167ffffffffffffffff811182821017156150ba57600080fd5b604052919050565b600067ffffffffffffffff8211156150d957600080fd5b5060209081020190565b60005b838110156150fe5781810151838201526020016150e6565b838111156124765750506000910152565b73ffffffffffffffffffffffffffffffffffffffff8116811461217b57600080fd5b7fffffffff000000000000000000000000000000000000000000000000000000008116811461217b57600080fdfea365627a7a723058209516a974dbb35313e7ae9fd4611e5ee970d450de1786c3d8f71b2e80d03e97ec6c6578706572696d656e74616cf564736f6c634300050a0040",
                "opcodes": "PUSH1 0x80 PUSH1 0x40 MSTORE PUSH1 0x0 DUP1 SLOAD PUSH1 0xFF NOT AND SWAP1 SSTORE CALLVALUE DUP1 ISZERO PUSH3 0x1B JUMPI PUSH1 0x0 DUP1 REVERT JUMPDEST POP PUSH1 0x40 MLOAD PUSH3 0x5560 CODESIZE SUB DUP1 PUSH3 0x5560 DUP4 CODECOPY DUP2 ADD PUSH1 0x40 DUP2 SWAP1 MSTORE PUSH3 0x3E SWAP2 PUSH3 0x20F JUMP JUMPDEST DUP1 MLOAD DUP2 SWAP1 PUSH3 0x55 SWAP1 PUSH1 0x1 SWAP1 PUSH1 0x20 DUP5 ADD SWAP1 PUSH3 0x16A JUMP JUMPDEST POP POP PUSH1 0x40 MLOAD PUSH1 0x20 ADD PUSH3 0x68 SWAP1 PUSH3 0x2ED JUMP JUMPDEST PUSH1 0x40 DUP1 MLOAD PUSH1 0x1F NOT DUP2 DUP5 SUB ADD DUP2 MSTORE DUP3 DUP3 MSTORE DUP1 MLOAD PUSH1 0x20 SWAP2 DUP3 ADD KECCAK256 DUP4 DUP4 ADD DUP4 MSTORE PUSH1 0xB DUP5 MSTORE PUSH32 0x30782050726F746F636F6C000000000000000000000000000000000000000000 SWAP4 DUP3 ADD SWAP4 SWAP1 SWAP4 MSTORE DUP2 MLOAD DUP1 DUP4 ADD DUP4 MSTORE PUSH1 0x1 DUP2 MSTORE PUSH32 0x3200000000000000000000000000000000000000000000000000000000000000 SWAP1 DUP3 ADD MSTORE SWAP1 MLOAD PUSH3 0x136 SWAP3 SWAP2 PUSH32 0xF0F24618F4C4BE1E62E026FB039A20EF96F4495294817D1027FFAA6D1F70E61E SWAP2 PUSH32 0xAD7C5BEF027816A800DA1736444FB58A807EF4C9603B7848673F7E3A68EB14A5 SWAP2 ADDRESS SWAP2 ADD PUSH3 0x2D2 JUMP JUMPDEST PUSH1 0x40 DUP1 MLOAD PUSH1 0x1F NOT DUP2 DUP5 SUB ADD DUP2 MSTORE SWAP2 SWAP1 MSTORE DUP1 MLOAD PUSH1 0x20 SWAP1 SWAP2 ADD KECCAK256 PUSH1 0x2 SSTORE POP PUSH1 0x3 DUP1 SLOAD PUSH1 0x1 PUSH1 0x1 PUSH1 0xA0 SHL SUB NOT AND CALLER OR SWAP1 SSTORE PUSH3 0x3AE JUMP JUMPDEST DUP3 DUP1 SLOAD PUSH1 0x1 DUP2 PUSH1 0x1 AND ISZERO PUSH2 0x100 MUL SUB AND PUSH1 0x2 SWAP1 DIV SWAP1 PUSH1 0x0 MSTORE PUSH1 0x20 PUSH1 0x0 KECCAK256 SWAP1 PUSH1 0x1F ADD PUSH1 0x20 SWAP1 DIV DUP2 ADD SWAP3 DUP3 PUSH1 0x1F LT PUSH3 0x1AD JUMPI DUP1 MLOAD PUSH1 0xFF NOT AND DUP4 DUP1 ADD OR DUP6 SSTORE PUSH3 0x1DD JUMP JUMPDEST DUP3 DUP1 ADD PUSH1 0x1 ADD DUP6 SSTORE DUP3 ISZERO PUSH3 0x1DD JUMPI SWAP2 DUP3 ADD JUMPDEST DUP3 DUP2 GT ISZERO PUSH3 0x1DD JUMPI DUP3 MLOAD DUP3 SSTORE SWAP2 PUSH1 0x20 ADD SWAP2 SWAP1 PUSH1 0x1 ADD SWAP1 PUSH3 0x1C0 JUMP JUMPDEST POP PUSH3 0x1EB SWAP3 SWAP2 POP PUSH3 0x1EF JUMP JUMPDEST POP SWAP1 JUMP JUMPDEST PUSH3 0x20C SWAP2 SWAP1 JUMPDEST DUP1 DUP3 GT ISZERO PUSH3 0x1EB JUMPI PUSH1 0x0 DUP2 SSTORE PUSH1 0x1 ADD PUSH3 0x1F6 JUMP JUMPDEST SWAP1 JUMP JUMPDEST PUSH1 0x0 PUSH1 0x20 DUP1 DUP4 DUP6 SUB SLT ISZERO PUSH3 0x222 JUMPI DUP2 DUP3 REVERT JUMPDEST DUP3 MLOAD PUSH1 0x1 PUSH1 0x1 PUSH1 0x40 SHL SUB DUP1 DUP3 GT ISZERO PUSH3 0x239 JUMPI DUP4 DUP5 REVERT JUMPDEST DUP2 DUP6 ADD DUP7 PUSH1 0x1F DUP3 ADD SLT PUSH3 0x24B JUMPI DUP5 DUP6 REVERT JUMPDEST DUP1 MLOAD SWAP3 POP DUP2 DUP4 GT ISZERO PUSH3 0x25C JUMPI DUP5 DUP6 REVERT JUMPDEST PUSH1 0x40 MLOAD PUSH1 0x1F DUP5 ADD PUSH1 0x1F NOT AND DUP2 ADD DUP6 ADD DUP4 DUP2 GT DUP3 DUP3 LT OR ISZERO PUSH3 0x27C JUMPI DUP7 DUP8 REVERT JUMPDEST PUSH1 0x40 MSTORE DUP4 DUP2 MSTORE DUP2 DUP5 ADD DUP6 ADD DUP9 LT ISZERO PUSH3 0x293 JUMPI DUP6 DUP7 REVERT JUMPDEST DUP6 SWAP3 POP JUMPDEST DUP4 DUP4 LT ISZERO PUSH3 0x2B6 JUMPI DUP2 DUP4 ADD DUP6 ADD MLOAD DUP2 DUP5 ADD DUP7 ADD MSTORE SWAP2 DUP5 ADD SWAP2 PUSH3 0x297 JUMP JUMPDEST DUP4 DUP4 GT ISZERO PUSH3 0x2C7 JUMPI DUP6 DUP6 DUP6 DUP4 ADD ADD MSTORE JUMPDEST SWAP8 SWAP7 POP POP POP POP POP POP POP JUMP JUMPDEST SWAP4 DUP5 MSTORE PUSH1 0x20 DUP5 ADD SWAP3 SWAP1 SWAP3 MSTORE PUSH1 0x40 DUP4 ADD MSTORE PUSH1 0x60 DUP3 ADD MSTORE PUSH1 0x80 ADD SWAP1 JUMP JUMPDEST PUSH32 0x454950373132446F6D61696E2800000000000000000000000000000000000000 DUP2 MSTORE PUSH32 0x737472696E67206E616D652C0000000000000000000000000000000000000000 PUSH1 0xD DUP3 ADD MSTORE PUSH32 0x737472696E672076657273696F6E2C0000000000000000000000000000000000 PUSH1 0x19 DUP3 ADD MSTORE PUSH32 0x6164647265737320766572696679696E67436F6E747261637400000000000000 PUSH1 0x28 DUP3 ADD MSTORE PUSH32 0x2900000000000000000000000000000000000000000000000000000000000000 PUSH1 0x41 DUP3 ADD MSTORE PUSH1 0x42 ADD SWAP1 JUMP JUMPDEST PUSH2 0x51A2 DUP1 PUSH3 0x3BE PUSH1 0x0 CODECOPY PUSH1 0x0 RETURN INVALID PUSH1 0x80 PUSH1 0x40 MSTORE CALLVALUE DUP1 ISZERO PUSH2 0x10 JUMPI PUSH1 0x0 DUP1 REVERT JUMPDEST POP PUSH1 0x4 CALLDATASIZE LT PUSH2 0x241 JUMPI PUSH1 0x0 CALLDATALOAD PUSH1 0xE0 SHR DUP1 PUSH4 0x7E9D74DC GT PUSH2 0x145 JUMPI DUP1 PUSH4 0xD46B02C3 GT PUSH2 0xBD JUMPI DUP1 PUSH4 0xE306F779 GT PUSH2 0x8C JUMPI DUP1 PUSH4 0xEEA086BA GT PUSH2 0x71 JUMPI DUP1 PUSH4 0xEEA086BA EQ PUSH2 0x4F8 JUMPI DUP1 PUSH4 0xF2FDE38B EQ PUSH2 0x500 JUMPI DUP1 PUSH4 0xFFA1AD74 EQ PUSH2 0x513 JUMPI PUSH2 0x241 JUMP JUMPDEST DUP1 PUSH4 0xE306F779 EQ PUSH2 0x4DD JUMPI DUP1 PUSH4 0xE5FA431B EQ PUSH2 0x4E5 JUMPI PUSH2 0x241 JUMP JUMPDEST DUP1 PUSH4 0xD46B02C3 EQ PUSH2 0x48F JUMPI DUP1 PUSH4 0xD9BFA73E EQ PUSH2 0x4A2 JUMPI DUP1 PUSH4 0xDB123B1A EQ PUSH2 0x4B5 JUMPI DUP1 PUSH4 0xDD1C7D18 EQ PUSH2 0x4CA JUMPI PUSH2 0x241 JUMP JUMPDEST DUP1 PUSH4 0xA3E20380 GT PUSH2 0x114 JUMPI DUP1 PUSH4 0xBFC8BFCE GT PUSH2 0xF9 JUMPI DUP1 PUSH4 0xBFC8BFCE EQ PUSH2 0x449 JUMPI DUP1 PUSH4 0xC585BB93 EQ PUSH2 0x45C JUMPI DUP1 PUSH4 0xC75E0A81 EQ PUSH2 0x46F JUMPI PUSH2 0x241 JUMP JUMPDEST DUP1 PUSH4 0xA3E20380 EQ PUSH2 0x423 JUMPI DUP1 PUSH4 0xB4BE83D5 EQ PUSH2 0x436 JUMPI PUSH2 0x241 JUMP JUMPDEST DUP1 PUSH4 0x7E9D74DC EQ PUSH2 0x3D5 JUMPI DUP1 PUSH4 0x82C174D0 EQ PUSH2 0x3F5 JUMPI DUP1 PUSH4 0x8DA5CB5B EQ PUSH2 0x408 JUMPI DUP1 PUSH4 0x93634702 EQ PUSH2 0x410 JUMPI PUSH2 0x241 JUMP JUMPDEST DUP1 PUSH4 0x4D0AE546 GT PUSH2 0x1D8 JUMPI DUP1 PUSH4 0x642F2EAF GT PUSH2 0x1A7 JUMPI DUP1 PUSH4 0x77FCCE68 GT PUSH2 0x18C JUMPI DUP1 PUSH4 0x77FCCE68 EQ PUSH2 0x39C JUMPI DUP1 PUSH4 0x7B8E3514 EQ PUSH2 0x3AF JUMPI DUP1 PUSH4 0x7E1D9808 EQ PUSH2 0x3C2 JUMPI PUSH2 0x241 JUMP JUMPDEST DUP1 PUSH4 0x642F2EAF EQ PUSH2 0x376 JUMPI DUP1 PUSH4 0x64A3BC15 EQ PUSH2 0x389 JUMPI PUSH2 0x241 JUMP JUMPDEST DUP1 PUSH4 0x4D0AE546 EQ PUSH2 0x32A JUMPI DUP1 PUSH4 0x4F9559B1 EQ PUSH2 0x33D JUMPI DUP1 PUSH4 0x50DDE190 EQ PUSH2 0x350 JUMPI DUP1 PUSH4 0x60704108 EQ PUSH2 0x363 JUMPI PUSH2 0x241 JUMP JUMPDEST DUP1 PUSH4 0x3C28D861 GT PUSH2 0x214 JUMPI DUP1 PUSH4 0x3C28D861 EQ PUSH2 0x2C4 JUMPI DUP1 PUSH4 0x3E228BAE EQ PUSH2 0x2E4 JUMPI DUP1 PUSH4 0x3FD3C997 EQ PUSH2 0x2F7 JUMPI DUP1 PUSH4 0x4AC14782 EQ PUSH2 0x317 JUMPI PUSH2 0x241 JUMP JUMPDEST DUP1 PUSH4 0x288CDC91 EQ PUSH2 0x246 JUMPI DUP1 PUSH4 0x297BB70B EQ PUSH2 0x26F JUMPI DUP1 PUSH4 0x2AC12622 EQ PUSH2 0x28F JUMPI DUP1 PUSH4 0x3683EF8E EQ PUSH2 0x2AF JUMPI JUMPDEST PUSH1 0x0 DUP1 REVERT JUMPDEST PUSH2 0x259 PUSH2 0x254 CALLDATASIZE PUSH1 0x4 PUSH2 0x3FDC JUMP JUMPDEST PUSH2 0x51B JUMP JUMPDEST PUSH1 0x40 MLOAD PUSH2 0x266 SWAP2 SWAP1 PUSH2 0x47E5 JUMP JUMPDEST PUSH1 0x40 MLOAD DUP1 SWAP2 SUB SWAP1 RETURN JUMPDEST PUSH2 0x282 PUSH2 0x27D CALLDATASIZE PUSH1 0x4 PUSH2 0x3EAD JUMP JUMPDEST PUSH2 0x52D JUMP JUMPDEST PUSH1 0x40 MLOAD PUSH2 0x266 SWAP2 SWAP1 PUSH2 0x5047 JUMP JUMPDEST PUSH2 0x2A2 PUSH2 0x29D CALLDATASIZE PUSH1 0x4 PUSH2 0x3FDC JUMP JUMPDEST PUSH2 0x643 JUMP JUMPDEST PUSH1 0x40 MLOAD PUSH2 0x266 SWAP2 SWAP1 PUSH2 0x47DA JUMP JUMPDEST PUSH2 0x2C2 PUSH2 0x2BD CALLDATASIZE PUSH1 0x4 PUSH2 0x401A JUMP JUMPDEST PUSH2 0x658 JUMP JUMPDEST STOP JUMPDEST PUSH2 0x2D7 PUSH2 0x2D2 CALLDATASIZE PUSH1 0x4 PUSH2 0x4133 JUMP JUMPDEST PUSH2 0x749 JUMP JUMPDEST PUSH1 0x40 MLOAD PUSH2 0x266 SWAP2 SWAP1 PUSH2 0x5055 JUMP JUMPDEST PUSH2 0x282 PUSH2 0x2F2 CALLDATASIZE PUSH1 0x4 PUSH2 0x41DC JUMP JUMPDEST PUSH2 0x8E1 JUMP JUMPDEST PUSH2 0x30A PUSH2 0x305 CALLDATASIZE PUSH1 0x4 PUSH2 0x40C4 JUMP JUMPDEST PUSH2 0x937 JUMP JUMPDEST PUSH1 0x40 MLOAD PUSH2 0x266 SWAP2 SWAP1 PUSH2 0x46AC JUMP JUMPDEST PUSH2 0x2C2 PUSH2 0x325 CALLDATASIZE PUSH1 0x4 PUSH2 0x3E78 JUMP JUMPDEST PUSH2 0x95F JUMP JUMPDEST PUSH2 0x282 PUSH2 0x338 CALLDATASIZE PUSH1 0x4 PUSH2 0x3EAD JUMP JUMPDEST PUSH2 0xA23 JUMP JUMPDEST PUSH2 0x2C2 PUSH2 0x34B CALLDATASIZE PUSH1 0x4 PUSH2 0x3FDC JUMP JUMPDEST PUSH2 0xAFF JUMP JUMPDEST PUSH2 0x282 PUSH2 0x35E CALLDATASIZE PUSH1 0x4 PUSH2 0x3EAD JUMP JUMPDEST PUSH2 0xCAC JUMP JUMPDEST PUSH2 0x30A PUSH2 0x371 CALLDATASIZE PUSH1 0x4 PUSH2 0x40C4 JUMP JUMPDEST PUSH2 0xD21 JUMP JUMPDEST PUSH2 0x2A2 PUSH2 0x384 CALLDATASIZE PUSH1 0x4 PUSH2 0x3FDC JUMP JUMPDEST PUSH2 0xD6F JUMP JUMPDEST PUSH2 0x282 PUSH2 0x397 CALLDATASIZE PUSH1 0x4 PUSH2 0x41DC JUMP JUMPDEST PUSH2 0xD84 JUMP JUMPDEST PUSH2 0x2C2 PUSH2 0x3AA CALLDATASIZE PUSH1 0x4 PUSH2 0x3E3B JUMP JUMPDEST PUSH2 0xE2F JUMP JUMPDEST PUSH2 0x2A2 PUSH2 0x3BD CALLDATASIZE PUSH1 0x4 PUSH2 0x3E06 JUMP JUMPDEST PUSH2 0xF68 JUMP JUMPDEST PUSH2 0x282 PUSH2 0x3D0 CALLDATASIZE PUSH1 0x4 PUSH2 0x3F89 JUMP JUMPDEST PUSH2 0xF88 JUMP JUMPDEST PUSH2 0x3E8 PUSH2 0x3E3 CALLDATASIZE PUSH1 0x4 PUSH2 0x3E78 JUMP JUMPDEST PUSH2 0x10D9 JUMP JUMPDEST PUSH1 0x40 MLOAD PUSH2 0x266 SWAP2 SWAP1 PUSH2 0x478C JUMP JUMPDEST PUSH2 0x2A2 PUSH2 0x403 CALLDATASIZE PUSH1 0x4 PUSH2 0x3FF5 JUMP JUMPDEST PUSH2 0x116D JUMP JUMPDEST PUSH2 0x30A PUSH2 0x118D JUMP JUMPDEST PUSH2 0x2A2 PUSH2 0x41E CALLDATASIZE PUSH1 0x4 PUSH2 0x4075 JUMP JUMPDEST PUSH2 0x11A9 JUMP JUMPDEST PUSH2 0x282 PUSH2 0x431 CALLDATASIZE PUSH1 0x4 PUSH2 0x3F89 JUMP JUMPDEST PUSH2 0x161C JUMP JUMPDEST PUSH2 0x282 PUSH2 0x444 CALLDATASIZE PUSH1 0x4 PUSH2 0x41DC JUMP JUMPDEST PUSH2 0x171B JUMP JUMPDEST PUSH2 0x2C2 PUSH2 0x457 CALLDATASIZE PUSH1 0x4 PUSH2 0x423C JUMP JUMPDEST PUSH2 0x1796 JUMP JUMPDEST PUSH2 0x2C2 PUSH2 0x46A CALLDATASIZE PUSH1 0x4 PUSH2 0x3DEA JUMP JUMPDEST PUSH2 0x1A65 JUMP JUMPDEST PUSH2 0x482 PUSH2 0x47D CALLDATASIZE PUSH1 0x4 PUSH2 0x40FE JUMP JUMPDEST PUSH2 0x1C67 JUMP JUMPDEST PUSH1 0x40 MLOAD PUSH2 0x266 SWAP2 SWAP1 PUSH2 0x508D JUMP JUMPDEST PUSH2 0x2C2 PUSH2 0x49D CALLDATASIZE PUSH1 0x4 PUSH2 0x40FE JUMP JUMPDEST PUSH2 0x1D5D JUMP JUMPDEST PUSH2 0x259 PUSH2 0x4B0 CALLDATASIZE PUSH1 0x4 PUSH2 0x3E06 JUMP JUMPDEST PUSH2 0x1DF9 JUMP JUMPDEST PUSH2 0x4BD PUSH2 0x1E16 JUMP JUMPDEST PUSH1 0x40 MLOAD PUSH2 0x266 SWAP2 SWAP1 PUSH2 0x48AB JUMP JUMPDEST PUSH2 0x282 PUSH2 0x4D8 CALLDATASIZE PUSH1 0x4 PUSH2 0x3F89 JUMP JUMPDEST PUSH2 0x1EC1 JUMP JUMPDEST PUSH2 0x259 PUSH2 0x1F7A JUMP JUMPDEST PUSH2 0x282 PUSH2 0x4F3 CALLDATASIZE PUSH1 0x4 PUSH2 0x3F89 JUMP JUMPDEST PUSH2 0x1F80 JUMP JUMPDEST PUSH2 0x30A PUSH2 0x20B1 JUMP JUMPDEST PUSH2 0x2C2 PUSH2 0x50E CALLDATASIZE PUSH1 0x4 PUSH2 0x3DEA JUMP JUMPDEST PUSH2 0x20CD JUMP JUMPDEST PUSH2 0x4BD PUSH2 0x217E JUMP JUMPDEST PUSH1 0x4 PUSH1 0x20 MSTORE PUSH1 0x0 SWAP1 DUP2 MSTORE PUSH1 0x40 SWAP1 KECCAK256 SLOAD DUP2 JUMP JUMPDEST PUSH2 0x535 PUSH2 0x3ABC JUMP JUMPDEST PUSH1 0x0 SLOAD PUSH1 0xFF AND ISZERO PUSH2 0x57B JUMPI PUSH1 0x40 MLOAD PUSH32 0x8C379A000000000000000000000000000000000000000000000000000000000 DUP2 MSTORE PUSH1 0x4 ADD PUSH2 0x572 SWAP1 PUSH2 0x4E69 JUMP JUMPDEST PUSH1 0x40 MLOAD DUP1 SWAP2 SUB SWAP1 REVERT JUMPDEST PUSH1 0x0 DUP1 SLOAD PUSH32 0xFFFFFFFFFFFFFFFFFFFFFFFFFFFFFFFFFFFFFFFFFFFFFFFFFFFFFFFFFFFFFF00 AND PUSH1 0x1 OR DUP2 SSTORE DUP5 MLOAD SWAP1 JUMPDEST DUP2 DUP2 EQ PUSH2 0x612 JUMPI PUSH2 0x5B9 PUSH2 0x3ABC JUMP JUMPDEST PUSH2 0x5FD DUP8 DUP4 DUP2 MLOAD DUP2 LT PUSH2 0x5C8 JUMPI INVALID JUMPDEST PUSH1 0x20 MUL PUSH1 0x20 ADD ADD MLOAD DUP8 DUP5 DUP2 MLOAD DUP2 LT PUSH2 0x5DC JUMPI INVALID JUMPDEST PUSH1 0x20 MUL PUSH1 0x20 ADD ADD MLOAD DUP8 DUP6 DUP2 MLOAD DUP2 LT PUSH2 0x5F0 JUMPI INVALID JUMPDEST PUSH1 0x20 MUL PUSH1 0x20 ADD ADD MLOAD PUSH2 0x21B7 JUMP JUMPDEST SWAP1 POP PUSH2 0x609 DUP5 DUP3 PUSH2 0x2256 JUMP JUMPDEST POP PUSH1 0x1 ADD PUSH2 0x5AA JUMP JUMPDEST POP POP PUSH1 0x0 DUP1 SLOAD PUSH32 0xFFFFFFFFFFFFFFFFFFFFFFFFFFFFFFFFFFFFFFFFFFFFFFFFFFFFFFFFFFFFFF00 AND SWAP1 SSTORE SWAP4 SWAP3 POP POP POP JUMP JUMPDEST PUSH1 0x5 PUSH1 0x20 MSTORE PUSH1 0x0 SWAP1 DUP2 MSTORE PUSH1 0x40 SWAP1 KECCAK256 SLOAD PUSH1 0xFF AND DUP2 JUMP JUMPDEST PUSH20 0xFFFFFFFFFFFFFFFFFFFFFFFFFFFFFFFFFFFFFFFF DUP4 AND CALLER EQ PUSH2 0x6EC JUMPI PUSH2 0x6B6 DUP5 DUP5 DUP5 DUP5 DUP1 DUP1 PUSH1 0x1F ADD PUSH1 0x20 DUP1 SWAP2 DIV MUL PUSH1 0x20 ADD PUSH1 0x40 MLOAD SWAP1 DUP2 ADD PUSH1 0x40 MSTORE DUP1 SWAP4 SWAP3 SWAP2 SWAP1 DUP2 DUP2 MSTORE PUSH1 0x20 ADD DUP4 DUP4 DUP1 DUP3 DUP5 CALLDATACOPY PUSH1 0x0 SWAP3 ADD SWAP2 SWAP1 SWAP2 MSTORE POP PUSH2 0x11A9 SWAP3 POP POP POP JUMP JUMPDEST PUSH2 0x6EC JUMPI PUSH1 0x40 MLOAD PUSH32 0x8C379A000000000000000000000000000000000000000000000000000000000 DUP2 MSTORE PUSH1 0x4 ADD PUSH2 0x572 SWAP1 PUSH2 0x4B78 JUMP JUMPDEST POP POP PUSH1 0x0 SWAP2 DUP3 MSTORE PUSH1 0x7 PUSH1 0x20 SWAP1 DUP2 MSTORE PUSH1 0x40 DUP1 DUP5 KECCAK256 PUSH20 0xFFFFFFFFFFFFFFFFFFFFFFFFFFFFFFFFFFFFFFFF SWAP1 SWAP4 AND DUP5 MSTORE SWAP2 SWAP1 MSTORE SWAP1 KECCAK256 DUP1 SLOAD PUSH32 0xFFFFFFFFFFFFFFFFFFFFFFFFFFFFFFFFFFFFFFFFFFFFFFFFFFFFFFFFFFFFFF00 AND PUSH1 0x1 OR SWAP1 SSTORE JUMP JUMPDEST PUSH2 0x751 PUSH2 0x3AE4 JUMP JUMPDEST PUSH1 0x0 SLOAD PUSH1 0xFF AND ISZERO PUSH2 0x78E JUMPI PUSH1 0x40 MLOAD PUSH32 0x8C379A000000000000000000000000000000000000000000000000000000000 DUP2 MSTORE PUSH1 0x4 ADD PUSH2 0x572 SWAP1 PUSH2 0x4E69 JUMP JUMPDEST PUSH1 0x0 DUP1 SLOAD PUSH32 0xFFFFFFFFFFFFFFFFFFFFFFFFFFFFFFFFFFFFFFFFFFFFFFFFFFFFFFFFFFFFFF00 AND PUSH1 0x1 OR SWAP1 SSTORE PUSH2 0x160 DUP1 DUP7 ADD MLOAD PUSH2 0x140 DUP1 DUP8 ADD SWAP2 SWAP1 SWAP2 MSTORE DUP7 ADD MLOAD SWAP1 DUP6 ADD MSTORE PUSH2 0x7D9 PUSH2 0x3B12 JUMP JUMPDEST PUSH2 0x7E2 DUP7 PUSH2 0x1C67 JUMP JUMPDEST SWAP1 POP PUSH2 0x7EC PUSH2 0x3B12 JUMP JUMPDEST PUSH2 0x7F5 DUP7 PUSH2 0x1C67 JUMP JUMPDEST SWAP1 POP PUSH1 0x0 PUSH2 0x801 PUSH2 0x22B8 JUMP JUMPDEST SWAP1 POP PUSH2 0x80F DUP9 DUP5 DUP4 DUP10 PUSH2 0x22EA JUMP JUMPDEST PUSH2 0x81B DUP8 DUP4 DUP4 DUP9 PUSH2 0x22EA JUMP JUMPDEST PUSH2 0x825 DUP9 DUP9 PUSH2 0x247C JUMP JUMPDEST PUSH2 0x839 DUP9 DUP9 DUP6 PUSH1 0x40 ADD MLOAD DUP6 PUSH1 0x40 ADD MLOAD PUSH2 0x24DC JUMP JUMPDEST DUP1 MLOAD PUSH1 0x20 DUP2 ADD MLOAD SWAP1 MLOAD SWAP2 SWAP6 POP PUSH2 0x854 SWAP2 DUP11 SWAP2 DUP7 SWAP2 DUP2 SWAP1 PUSH2 0x2665 JUMP JUMPDEST PUSH1 0x20 DUP1 DUP6 ADD MLOAD SWAP1 DUP2 ADD MLOAD SWAP1 MLOAD PUSH2 0x870 SWAP2 DUP10 SWAP2 DUP6 SWAP2 SWAP1 DUP2 SWAP1 PUSH2 0x2665 JUMP JUMPDEST PUSH2 0x889 DUP9 DUP3 DUP6 PUSH1 0x20 ADD MLOAD DUP7 PUSH1 0x40 ADD MLOAD DUP9 PUSH1 0x0 ADD MLOAD PUSH2 0x277C JUMP JUMPDEST PUSH2 0x8A2 DUP8 DUP3 DUP5 PUSH1 0x20 ADD MLOAD DUP6 PUSH1 0x40 ADD MLOAD DUP9 PUSH1 0x20 ADD MLOAD PUSH2 0x277C JUMP JUMPDEST PUSH2 0x8AE DUP9 DUP9 DUP4 DUP8 PUSH2 0x283E JUMP JUMPDEST POP POP POP PUSH1 0x0 DUP1 SLOAD PUSH32 0xFFFFFFFFFFFFFFFFFFFFFFFFFFFFFFFFFFFFFFFFFFFFFFFFFFFFFFFFFFFFFF00 AND SWAP1 SSTORE SWAP5 SWAP4 POP POP POP POP JUMP JUMPDEST PUSH2 0x8E9 PUSH2 0x3ABC JUMP JUMPDEST PUSH1 0x60 PUSH2 0x8F6 DUP6 DUP6 DUP6 PUSH2 0x2A16 JUMP JUMPDEST SWAP1 POP PUSH1 0x80 DUP2 DUP3 MLOAD PUSH1 0x20 DUP5 ADD ADDRESS GAS DELEGATECALL DUP1 ISZERO PUSH2 0x92D JUMPI DUP2 MLOAD DUP4 MSTORE PUSH1 0x20 DUP3 ADD MLOAD PUSH1 0x20 DUP5 ADD MSTORE PUSH1 0x40 DUP3 ADD MLOAD PUSH1 0x40 DUP5 ADD MSTORE PUSH1 0x60 DUP3 ADD MLOAD PUSH1 0x60 DUP5 ADD MSTORE JUMPDEST POP POP JUMPDEST SWAP4 SWAP3 POP POP POP JUMP JUMPDEST PUSH1 0xB PUSH1 0x20 MSTORE PUSH1 0x0 SWAP1 DUP2 MSTORE PUSH1 0x40 SWAP1 KECCAK256 SLOAD PUSH20 0xFFFFFFFFFFFFFFFFFFFFFFFFFFFFFFFFFFFFFFFF AND DUP2 JUMP JUMPDEST PUSH1 0x0 SLOAD PUSH1 0xFF AND ISZERO PUSH2 0x99C JUMPI PUSH1 0x40 MLOAD PUSH32 0x8C379A000000000000000000000000000000000000000000000000000000000 DUP2 MSTORE PUSH1 0x4 ADD PUSH2 0x572 SWAP1 PUSH2 0x4E69 JUMP JUMPDEST PUSH1 0x0 DUP1 SLOAD PUSH32 0xFFFFFFFFFFFFFFFFFFFFFFFFFFFFFFFFFFFFFFFFFFFFFFFFFFFFFFFFFFFFFF00 AND PUSH1 0x1 OR DUP2 SSTORE DUP2 MLOAD SWAP1 JUMPDEST DUP2 DUP2 EQ PUSH2 0x9F6 JUMPI PUSH2 0x9EE DUP4 DUP3 DUP2 MLOAD DUP2 LT PUSH2 0x9E1 JUMPI INVALID JUMPDEST PUSH1 0x20 MUL PUSH1 0x20 ADD ADD MLOAD PUSH2 0x2BEB JUMP JUMPDEST PUSH1 0x1 ADD PUSH2 0x9CB JUMP JUMPDEST POP POP PUSH1 0x0 DUP1 SLOAD PUSH32 0xFFFFFFFFFFFFFFFFFFFFFFFFFFFFFFFFFFFFFFFFFFFFFFFFFFFFFFFFFFFFFF00 AND SWAP1 SSTORE POP JUMP JUMPDEST PUSH2 0xA2B PUSH2 0x3ABC JUMP JUMPDEST PUSH1 0x0 SLOAD PUSH1 0xFF AND ISZERO PUSH2 0xA68 JUMPI PUSH1 0x40 MLOAD PUSH32 0x8C379A000000000000000000000000000000000000000000000000000000000 DUP2 MSTORE PUSH1 0x4 ADD PUSH2 0x572 SWAP1 PUSH2 0x4E69 JUMP JUMPDEST PUSH1 0x0 DUP1 SLOAD PUSH32 0xFFFFFFFFFFFFFFFFFFFFFFFFFFFFFFFFFFFFFFFFFFFFFFFFFFFFFFFFFFFFFF00 AND PUSH1 0x1 OR DUP2 SSTORE DUP5 MLOAD SWAP1 JUMPDEST DUP2 DUP2 EQ PUSH2 0x612 JUMPI PUSH2 0xAA6 PUSH2 0x3ABC JUMP JUMPDEST PUSH2 0xAEA DUP8 DUP4 DUP2 MLOAD DUP2 LT PUSH2 0xAB5 JUMPI INVALID JUMPDEST PUSH1 0x20 MUL PUSH1 0x20 ADD ADD MLOAD DUP8 DUP5 DUP2 MLOAD DUP2 LT PUSH2 0xAC9 JUMPI INVALID JUMPDEST PUSH1 0x20 MUL PUSH1 0x20 ADD ADD MLOAD DUP8 DUP6 DUP2 MLOAD DUP2 LT PUSH2 0xADD JUMPI INVALID JUMPDEST PUSH1 0x20 MUL PUSH1 0x20 ADD ADD MLOAD PUSH2 0x2C16 JUMP JUMPDEST SWAP1 POP PUSH2 0xAF6 DUP5 DUP3 PUSH2 0x2256 JUMP JUMPDEST POP PUSH1 0x1 ADD PUSH2 0xA97 JUMP JUMPDEST PUSH1 0x0 SLOAD PUSH1 0xFF AND ISZERO PUSH2 0xB3C JUMPI PUSH1 0x40 MLOAD PUSH32 0x8C379A000000000000000000000000000000000000000000000000000000000 DUP2 MSTORE PUSH1 0x4 ADD PUSH2 0x572 SWAP1 PUSH2 0x4E69 JUMP JUMPDEST PUSH1 0x0 DUP1 SLOAD PUSH32 0xFFFFFFFFFFFFFFFFFFFFFFFFFFFFFFFFFFFFFFFFFFFFFFFFFFFFFFFFFFFFFF00 AND PUSH1 0x1 OR DUP2 SSTORE PUSH2 0xB6F PUSH2 0x22B8 JUMP JUMPDEST SWAP1 POP PUSH1 0x0 PUSH20 0xFFFFFFFFFFFFFFFFFFFFFFFFFFFFFFFFFFFFFFFF DUP3 AND CALLER EQ PUSH2 0xB96 JUMPI CALLER PUSH2 0xB99 JUMP JUMPDEST PUSH1 0x0 JUMPDEST PUSH20 0xFFFFFFFFFFFFFFFFFFFFFFFFFFFFFFFFFFFFFFFF DUP1 DUP5 AND PUSH1 0x0 SWAP1 DUP2 MSTORE PUSH1 0x6 PUSH1 0x20 SWAP1 DUP2 MSTORE PUSH1 0x40 DUP1 DUP4 KECCAK256 SWAP4 DUP6 AND DUP4 MSTORE SWAP3 SWAP1 MSTORE KECCAK256 SLOAD SWAP1 SWAP2 POP PUSH1 0x1 DUP5 ADD SWAP1 DUP1 DUP3 GT PUSH2 0xC0D JUMPI PUSH1 0x40 MLOAD PUSH32 0x8C379A000000000000000000000000000000000000000000000000000000000 DUP2 MSTORE PUSH1 0x4 ADD PUSH2 0x572 SWAP1 PUSH2 0x4D8D JUMP JUMPDEST PUSH20 0xFFFFFFFFFFFFFFFFFFFFFFFFFFFFFFFFFFFFFFFF DUP1 DUP6 AND PUSH1 0x0 DUP2 DUP2 MSTORE PUSH1 0x6 PUSH1 0x20 SWAP1 DUP2 MSTORE PUSH1 0x40 DUP1 DUP4 KECCAK256 SWAP5 DUP9 AND DUP1 DUP5 MSTORE SWAP5 SWAP1 SWAP2 MSTORE SWAP1 DUP2 SWAP1 KECCAK256 DUP6 SWAP1 SSTORE MLOAD PUSH32 0x82AF639571738F4EBD4268FB0363D8957EBE1BBB9E78DBA5EBD69EED39B154F0 SWAP1 PUSH2 0xC75 SWAP1 DUP7 SWAP1 PUSH2 0x47E5 JUMP JUMPDEST PUSH1 0x40 MLOAD DUP1 SWAP2 SUB SWAP1 LOG3 POP POP PUSH1 0x0 DUP1 SLOAD PUSH32 0xFFFFFFFFFFFFFFFFFFFFFFFFFFFFFFFFFFFFFFFFFFFFFFFFFFFFFFFFFFFFFF00 AND SWAP1 SSTORE POP POP POP JUMP JUMPDEST PUSH2 0xCB4 PUSH2 0x3ABC JUMP JUMPDEST DUP4 MLOAD PUSH1 0x0 JUMPDEST DUP2 DUP2 EQ PUSH2 0x92D JUMPI PUSH2 0xCC8 PUSH2 0x3ABC JUMP JUMPDEST PUSH2 0xD0C DUP8 DUP4 DUP2 MLOAD DUP2 LT PUSH2 0xCD7 JUMPI INVALID JUMPDEST PUSH1 0x20 MUL PUSH1 0x20 ADD ADD MLOAD DUP8 DUP5 DUP2 MLOAD DUP2 LT PUSH2 0xCEB JUMPI INVALID JUMPDEST PUSH1 0x20 MUL PUSH1 0x20 ADD ADD MLOAD DUP8 DUP6 DUP2 MLOAD DUP2 LT PUSH2 0xCFF JUMPI INVALID JUMPDEST PUSH1 0x20 MUL PUSH1 0x20 ADD ADD MLOAD PUSH2 0x8E1 JUMP JUMPDEST SWAP1 POP PUSH2 0xD18 DUP5 DUP3 PUSH2 0x2256 JUMP JUMPDEST POP PUSH1 0x1 ADD PUSH2 0xCB9 JUMP JUMPDEST PUSH32 0xFFFFFFFF00000000000000000000000000000000000000000000000000000000 DUP2 AND PUSH1 0x0 SWAP1 DUP2 MSTORE PUSH1 0xB PUSH1 0x20 MSTORE PUSH1 0x40 SWAP1 KECCAK256 SLOAD PUSH20 0xFFFFFFFFFFFFFFFFFFFFFFFFFFFFFFFFFFFFFFFF AND JUMPDEST SWAP2 SWAP1 POP JUMP JUMPDEST PUSH1 0x9 PUSH1 0x20 MSTORE PUSH1 0x0 SWAP1 DUP2 MSTORE PUSH1 0x40 SWAP1 KECCAK256 SLOAD PUSH1 0xFF AND DUP2 JUMP JUMPDEST PUSH2 0xD8C PUSH2 0x3ABC JUMP JUMPDEST PUSH1 0x0 SLOAD PUSH1 0xFF AND ISZERO PUSH2 0xDC9 JUMPI PUSH1 0x40 MLOAD PUSH32 0x8C379A000000000000000000000000000000000000000000000000000000000 DUP2 MSTORE PUSH1 0x4 ADD PUSH2 0x572 SWAP1 PUSH2 0x4E69 JUMP JUMPDEST PUSH1 0x0 DUP1 SLOAD PUSH32 0xFFFFFFFFFFFFFFFFFFFFFFFFFFFFFFFFFFFFFFFFFFFFFFFFFFFFFFFFFFFFFF00 AND PUSH1 0x1 OR SWAP1 SSTORE PUSH2 0xDFF DUP5 DUP5 DUP5 PUSH2 0x2C16 JUMP JUMPDEST PUSH1 0x0 DUP1 SLOAD PUSH32 0xFFFFFFFFFFFFFFFFFFFFFFFFFFFFFFFFFFFFFFFFFFFFFFFFFFFFFFFFFFFFFF00 AND SWAP1 SSTORE SWAP5 SWAP4 POP POP POP POP JUMP JUMPDEST PUSH1 0x0 SLOAD PUSH1 0xFF AND ISZERO PUSH2 0xE6C JUMPI PUSH1 0x40 MLOAD PUSH32 0x8C379A000000000000000000000000000000000000000000000000000000000 DUP2 MSTORE PUSH1 0x4 ADD PUSH2 0x572 SWAP1 PUSH2 0x4E69 JUMP JUMPDEST PUSH1 0x0 DUP1 SLOAD PUSH32 0xFFFFFFFFFFFFFFFFFFFFFFFFFFFFFFFFFFFFFFFFFFFFFFFFFFFFFFFFFFFFFF00 AND PUSH1 0x1 OR DUP2 SSTORE PUSH2 0xE9F PUSH2 0x22B8 JUMP JUMPDEST PUSH20 0xFFFFFFFFFFFFFFFFFFFFFFFFFFFFFFFFFFFFFFFF DUP2 DUP2 AND PUSH1 0x0 DUP2 DUP2 MSTORE PUSH1 0x8 PUSH1 0x20 SWAP1 DUP2 MSTORE PUSH1 0x40 DUP1 DUP4 KECCAK256 SWAP5 DUP10 AND DUP1 DUP5 MSTORE SWAP5 SWAP1 SWAP2 MSTORE SWAP1 DUP2 SWAP1 KECCAK256 DUP1 SLOAD PUSH32 0xFFFFFFFFFFFFFFFFFFFFFFFFFFFFFFFFFFFFFFFFFFFFFFFFFFFFFFFFFFFFFF00 AND DUP8 ISZERO ISZERO OR SWAP1 SSTORE MLOAD SWAP3 SWAP4 POP SWAP1 SWAP2 PUSH32 0xA8656E308026EEABCE8F0BC18048433252318AB80AC79DA0B3D3D8697DFBA891 SWAP1 PUSH2 0xF33 SWAP1 DUP7 SWAP1 PUSH2 0x47DA JUMP JUMPDEST PUSH1 0x40 MLOAD DUP1 SWAP2 SUB SWAP1 LOG3 POP POP PUSH1 0x0 DUP1 SLOAD PUSH32 0xFFFFFFFFFFFFFFFFFFFFFFFFFFFFFFFFFFFFFFFFFFFFFFFFFFFFFFFFFFFFFF00 AND SWAP1 SSTORE POP JUMP JUMPDEST PUSH1 0x8 PUSH1 0x20 SWAP1 DUP2 MSTORE PUSH1 0x0 SWAP3 DUP4 MSTORE PUSH1 0x40 DUP1 DUP5 KECCAK256 SWAP1 SWAP2 MSTORE SWAP1 DUP3 MSTORE SWAP1 KECCAK256 SLOAD PUSH1 0xFF AND DUP2 JUMP JUMPDEST PUSH2 0xF90 PUSH2 0x3ABC JUMP JUMPDEST PUSH1 0x0 SLOAD PUSH1 0xFF AND ISZERO PUSH2 0xFCD JUMPI PUSH1 0x40 MLOAD PUSH32 0x8C379A000000000000000000000000000000000000000000000000000000000 DUP2 MSTORE PUSH1 0x4 ADD PUSH2 0x572 SWAP1 PUSH2 0x4E69 JUMP JUMPDEST PUSH1 0x0 DUP1 SLOAD PUSH32 0xFFFFFFFFFFFFFFFFFFFFFFFFFFFFFFFFFFFFFFFFFFFFFFFFFFFFFFFFFFFFFF00 AND PUSH1 0x1 OR DUP2 SSTORE DUP5 MLOAD PUSH1 0x60 SWAP2 DUP7 SWAP2 PUSH2 0x1005 JUMPI INVALID JUMPDEST PUSH1 0x20 SWAP1 DUP2 MUL SWAP2 SWAP1 SWAP2 ADD ADD MLOAD PUSH2 0x160 ADD MLOAD DUP6 MLOAD SWAP1 SWAP2 POP PUSH1 0x0 JUMPDEST DUP2 DUP2 EQ PUSH2 0x10A7 JUMPI DUP3 DUP8 DUP3 DUP2 MLOAD DUP2 LT PUSH2 0x1031 JUMPI INVALID JUMPDEST PUSH1 0x20 MUL PUSH1 0x20 ADD ADD MLOAD PUSH2 0x160 ADD DUP2 SWAP1 MSTORE POP PUSH1 0x0 PUSH2 0x1051 DUP8 DUP7 PUSH1 0x20 ADD MLOAD PUSH2 0x2C68 JUMP JUMPDEST SWAP1 POP PUSH2 0x105B PUSH2 0x3ABC JUMP JUMPDEST PUSH2 0x107F DUP10 DUP5 DUP2 MLOAD DUP2 LT PUSH2 0x106A JUMPI INVALID JUMPDEST PUSH1 0x20 MUL PUSH1 0x20 ADD ADD MLOAD DUP4 DUP10 DUP7 DUP2 MLOAD DUP2 LT PUSH2 0x5F0 JUMPI INVALID JUMPDEST SWAP1 POP PUSH2 0x108B DUP7 DUP3 PUSH2 0x2256 JUMP JUMPDEST DUP8 DUP7 PUSH1 0x20 ADD MLOAD LT PUSH2 0x109D JUMPI POP POP PUSH2 0x10A7 JUMP JUMPDEST POP POP PUSH1 0x1 ADD PUSH2 0x101D JUMP JUMPDEST POP POP POP PUSH1 0x0 DUP1 SLOAD PUSH32 0xFFFFFFFFFFFFFFFFFFFFFFFFFFFFFFFFFFFFFFFFFFFFFFFFFFFFFFFFFFFFFF00 AND SWAP1 SSTORE SWAP4 SWAP3 POP POP POP JUMP JUMPDEST PUSH1 0x60 PUSH1 0x0 DUP3 MLOAD SWAP1 POP PUSH1 0x60 DUP2 PUSH1 0x40 MLOAD SWAP1 DUP1 DUP3 MSTORE DUP1 PUSH1 0x20 MUL PUSH1 0x20 ADD DUP3 ADD PUSH1 0x40 MSTORE DUP1 ISZERO PUSH2 0x111D JUMPI DUP2 PUSH1 0x20 ADD JUMPDEST PUSH2 0x110A PUSH2 0x3B12 JUMP JUMPDEST DUP2 MSTORE PUSH1 0x20 ADD SWAP1 PUSH1 0x1 SWAP1 SUB SWAP1 DUP2 PUSH2 0x1102 JUMPI SWAP1 POP JUMPDEST POP SWAP1 POP PUSH1 0x0 JUMPDEST DUP3 DUP2 EQ PUSH2 0x1165 JUMPI PUSH2 0x1146 DUP6 DUP3 DUP2 MLOAD DUP2 LT PUSH2 0x1139 JUMPI INVALID JUMPDEST PUSH1 0x20 MUL PUSH1 0x20 ADD ADD MLOAD PUSH2 0x1C67 JUMP JUMPDEST DUP3 DUP3 DUP2 MLOAD DUP2 LT PUSH2 0x1152 JUMPI INVALID JUMPDEST PUSH1 0x20 SWAP1 DUP2 MUL SWAP2 SWAP1 SWAP2 ADD ADD MSTORE PUSH1 0x1 ADD PUSH2 0x1123 JUMP JUMPDEST POP SWAP4 SWAP3 POP POP POP JUMP JUMPDEST PUSH1 0x7 PUSH1 0x20 SWAP1 DUP2 MSTORE PUSH1 0x0 SWAP3 DUP4 MSTORE PUSH1 0x40 DUP1 DUP5 KECCAK256 SWAP1 SWAP2 MSTORE SWAP1 DUP3 MSTORE SWAP1 KECCAK256 SLOAD PUSH1 0xFF AND DUP2 JUMP JUMPDEST PUSH1 0x3 SLOAD PUSH20 0xFFFFFFFFFFFFFFFFFFFFFFFFFFFFFFFFFFFFFFFF AND DUP2 JUMP JUMPDEST PUSH1 0x0 DUP1 DUP3 MLOAD GT PUSH2 0x11E5 JUMPI PUSH1 0x40 MLOAD PUSH32 0x8C379A000000000000000000000000000000000000000000000000000000000 DUP2 MSTORE PUSH1 0x4 ADD PUSH2 0x572 SWAP1 PUSH2 0x4D56 JUMP JUMPDEST PUSH1 0x0 PUSH2 0x11F0 DUP4 PUSH2 0x2CAF JUMP JUMPDEST PUSH1 0xF8 SHR SWAP1 POP PUSH1 0x7 DUP2 LT PUSH2 0x122F JUMPI PUSH1 0x40 MLOAD PUSH32 0x8C379A000000000000000000000000000000000000000000000000000000000 DUP2 MSTORE PUSH1 0x4 ADD PUSH2 0x572 SWAP1 PUSH2 0x4A2E JUMP JUMPDEST PUSH1 0x0 DUP2 PUSH1 0xFF AND PUSH1 0x7 DUP2 GT ISZERO PUSH2 0x1240 JUMPI INVALID JUMPDEST SWAP1 POP PUSH1 0x0 DUP1 DUP1 DUP1 DUP1 DUP6 PUSH1 0x7 DUP2 GT ISZERO PUSH2 0x1254 JUMPI INVALID JUMPDEST EQ ISZERO PUSH2 0x128C JUMPI PUSH1 0x40 MLOAD PUSH32 0x8C379A000000000000000000000000000000000000000000000000000000000 DUP2 MSTORE PUSH1 0x4 ADD PUSH2 0x572 SWAP1 PUSH2 0x4D1F JUMP JUMPDEST PUSH1 0x1 DUP6 PUSH1 0x7 DUP2 GT ISZERO PUSH2 0x129A JUMPI INVALID JUMPDEST EQ ISZERO PUSH2 0x12E9 JUMPI DUP8 MLOAD ISZERO PUSH2 0x12D9 JUMPI PUSH1 0x40 MLOAD PUSH32 0x8C379A000000000000000000000000000000000000000000000000000000000 DUP2 MSTORE PUSH1 0x4 ADD PUSH2 0x572 SWAP1 PUSH2 0x5010 JUMP JUMPDEST POP PUSH1 0x0 SWAP6 POP PUSH2 0x930 SWAP5 POP POP POP POP POP JUMP JUMPDEST PUSH1 0x2 DUP6 PUSH1 0x7 DUP2 GT ISZERO PUSH2 0x12F7 JUMPI INVALID JUMPDEST EQ ISZERO PUSH2 0x140C JUMPI DUP8 MLOAD PUSH1 0x41 EQ PUSH2 0x1338 JUMPI PUSH1 0x40 MLOAD PUSH32 0x8C379A000000000000000000000000000000000000000000000000000000000 DUP2 MSTORE PUSH1 0x4 ADD PUSH2 0x572 SWAP1 PUSH2 0x48BE JUMP JUMPDEST DUP8 PUSH1 0x0 DUP2 MLOAD DUP2 LT PUSH2 0x1345 JUMPI INVALID JUMPDEST ADD PUSH1 0x20 ADD MLOAD PUSH1 0xF8 SHR SWAP4 POP PUSH2 0x1360 DUP9 PUSH1 0x1 PUSH4 0xFFFFFFFF PUSH2 0x2D4D AND JUMP JUMPDEST SWAP3 POP PUSH2 0x1373 DUP9 PUSH1 0x21 PUSH4 0xFFFFFFFF PUSH2 0x2D4D AND JUMP JUMPDEST SWAP2 POP PUSH1 0x1 DUP11 DUP6 DUP6 DUP6 PUSH1 0x40 MLOAD PUSH1 0x0 DUP2 MSTORE PUSH1 0x20 ADD PUSH1 0x40 MSTORE PUSH1 0x40 MLOAD PUSH2 0x1398 SWAP5 SWAP4 SWAP3 SWAP2 SWAP1 PUSH2 0x4845 JUMP JUMPDEST PUSH1 0x20 PUSH1 0x40 MLOAD PUSH1 0x20 DUP2 SUB SWAP1 DUP1 DUP5 SUB SWAP1 DUP6 GAS STATICCALL ISZERO DUP1 ISZERO PUSH2 0x13BA JUMPI RETURNDATASIZE PUSH1 0x0 DUP1 RETURNDATACOPY RETURNDATASIZE PUSH1 0x0 REVERT JUMPDEST POP POP PUSH1 0x40 MLOAD PUSH32 0xFFFFFFFFFFFFFFFFFFFFFFFFFFFFFFFFFFFFFFFFFFFFFFFFFFFFFFFFFFFFFFE0 ADD MLOAD PUSH20 0xFFFFFFFFFFFFFFFFFFFFFFFFFFFFFFFFFFFFFFFF DUP12 DUP2 AND SWAP2 AND EQ SWAP8 POP PUSH2 0x930 SWAP7 POP POP POP POP POP POP POP JUMP JUMPDEST PUSH1 0x3 DUP6 PUSH1 0x7 DUP2 GT ISZERO PUSH2 0x141A JUMPI INVALID JUMPDEST EQ ISZERO PUSH2 0x14E1 JUMPI DUP8 MLOAD PUSH1 0x41 EQ PUSH2 0x145B JUMPI PUSH1 0x40 MLOAD PUSH32 0x8C379A000000000000000000000000000000000000000000000000000000000 DUP2 MSTORE PUSH1 0x4 ADD PUSH2 0x572 SWAP1 PUSH2 0x48BE JUMP JUMPDEST DUP8 PUSH1 0x0 DUP2 MLOAD DUP2 LT PUSH2 0x1468 JUMPI INVALID JUMPDEST ADD PUSH1 0x20 ADD MLOAD PUSH1 0xF8 SHR SWAP4 POP PUSH2 0x1483 DUP9 PUSH1 0x1 PUSH4 0xFFFFFFFF PUSH2 0x2D4D AND JUMP JUMPDEST SWAP3 POP PUSH2 0x1496 DUP9 PUSH1 0x21 PUSH4 0xFFFFFFFF PUSH2 0x2D4D AND JUMP JUMPDEST SWAP2 POP PUSH1 0x1 DUP11 PUSH1 0x40 MLOAD PUSH1 0x20 ADD PUSH2 0x14AB SWAP2 SWAP1 PUSH2 0x43FD JUMP JUMPDEST PUSH1 0x40 MLOAD PUSH1 0x20 DUP2 DUP4 SUB SUB DUP2 MSTORE SWAP1 PUSH1 0x40 MSTORE DUP1 MLOAD SWAP1 PUSH1 0x20 ADD KECCAK256 DUP6 DUP6 DUP6 PUSH1 0x40 MLOAD PUSH1 0x0 DUP2 MSTORE PUSH1 0x20 ADD PUSH1 0x40 MSTORE PUSH1 0x40 MLOAD PUSH2 0x1398 SWAP5 SWAP4 SWAP3 SWAP2 SWAP1 PUSH2 0x4845 JUMP JUMPDEST PUSH1 0x4 DUP6 PUSH1 0x7 DUP2 GT ISZERO PUSH2 0x14EF JUMPI INVALID JUMPDEST EQ ISZERO PUSH2 0x150E JUMPI PUSH2 0x1500 DUP11 DUP11 DUP11 PUSH2 0x2D96 JUMP JUMPDEST SWAP7 POP PUSH2 0x930 SWAP6 POP POP POP POP POP POP JUMP JUMPDEST PUSH1 0x5 DUP6 PUSH1 0x7 DUP2 GT ISZERO PUSH2 0x151C JUMPI INVALID JUMPDEST EQ ISZERO PUSH2 0x1595 JUMPI PUSH1 0x0 PUSH2 0x152D DUP10 PUSH2 0x2EEB JUMP JUMPDEST PUSH20 0xFFFFFFFFFFFFFFFFFFFFFFFFFFFFFFFFFFFFFFFF DUP1 DUP13 AND PUSH1 0x0 SWAP1 DUP2 MSTORE PUSH1 0x8 PUSH1 0x20 SWAP1 DUP2 MSTORE PUSH1 0x40 DUP1 DUP4 KECCAK256 SWAP4 DUP6 AND DUP4 MSTORE SWAP3 SWAP1 MSTORE KECCAK256 SLOAD SWAP1 SWAP2 POP PUSH1 0xFF AND PUSH2 0x157A JUMPI PUSH1 0x0 SWAP8 POP POP POP POP POP POP POP POP PUSH2 0x930 JUMP JUMPDEST PUSH2 0x1586 DUP2 DUP13 DUP13 DUP13 PUSH2 0x2F62 JUMP JUMPDEST SWAP8 POP PUSH2 0x930 SWAP7 POP POP POP POP POP POP POP JUMP JUMPDEST PUSH1 0x6 DUP6 PUSH1 0x7 DUP2 GT ISZERO PUSH2 0x15A3 JUMPI INVALID JUMPDEST EQ ISZERO PUSH2 0x15EA JUMPI POP POP POP PUSH1 0x0 DUP8 DUP2 MSTORE PUSH1 0x7 PUSH1 0x20 SWAP1 DUP2 MSTORE PUSH1 0x40 DUP1 DUP4 KECCAK256 PUSH20 0xFFFFFFFFFFFFFFFFFFFFFFFFFFFFFFFFFFFFFFFF DUP11 AND DUP5 MSTORE SWAP1 SWAP2 MSTORE SWAP1 KECCAK256 SLOAD PUSH1 0xFF AND SWAP4 POP PUSH2 0x930 SWAP3 POP POP POP JUMP JUMPDEST PUSH1 0x40 MLOAD PUSH32 0x8C379A000000000000000000000000000000000000000000000000000000000 DUP2 MSTORE PUSH1 0x4 ADD PUSH2 0x572 SWAP1 PUSH2 0x4A2E JUMP JUMPDEST PUSH2 0x1624 PUSH2 0x3ABC JUMP JUMPDEST PUSH1 0x60 DUP5 PUSH1 0x0 DUP2 MLOAD DUP2 LT PUSH2 0x1633 JUMPI INVALID JUMPDEST PUSH1 0x20 SWAP1 DUP2 MUL SWAP2 SWAP1 SWAP2 ADD ADD MLOAD PUSH2 0x140 ADD MLOAD DUP6 MLOAD SWAP1 SWAP2 POP PUSH1 0x0 JUMPDEST DUP2 DUP2 EQ PUSH2 0x1711 JUMPI DUP3 DUP8 DUP3 DUP2 MLOAD DUP2 LT PUSH2 0x165F JUMPI INVALID JUMPDEST PUSH1 0x20 MUL PUSH1 0x20 ADD ADD MLOAD PUSH2 0x140 ADD DUP2 SWAP1 MSTORE POP PUSH1 0x0 PUSH2 0x167F DUP8 DUP7 PUSH1 0x0 ADD MLOAD PUSH2 0x2C68 JUMP JUMPDEST SWAP1 POP PUSH1 0x0 PUSH2 0x16BC DUP10 DUP5 DUP2 MLOAD DUP2 LT PUSH2 0x1692 JUMPI INVALID JUMPDEST PUSH1 0x20 MUL PUSH1 0x20 ADD ADD MLOAD PUSH1 0xA0 ADD MLOAD DUP11 DUP6 DUP2 MLOAD DUP2 LT PUSH2 0x16AA JUMPI INVALID JUMPDEST PUSH1 0x20 MUL PUSH1 0x20 ADD ADD MLOAD PUSH1 0x80 ADD MLOAD DUP5 PUSH2 0x30BE JUMP JUMPDEST SWAP1 POP PUSH2 0x16C6 PUSH2 0x3ABC JUMP JUMPDEST PUSH2 0x16EA DUP11 DUP6 DUP2 MLOAD DUP2 LT PUSH2 0x16D5 JUMPI INVALID JUMPDEST PUSH1 0x20 MUL PUSH1 0x20 ADD ADD MLOAD DUP4 DUP11 DUP8 DUP2 MLOAD DUP2 LT PUSH2 0xCFF JUMPI INVALID JUMPDEST SWAP1 POP PUSH2 0x16F6 DUP8 DUP3 PUSH2 0x2256 JUMP JUMPDEST DUP7 MLOAD DUP10 GT PUSH2 0x1706 JUMPI POP POP POP PUSH2 0x1711 JUMP JUMPDEST POP POP POP PUSH1 0x1 ADD PUSH2 0x164B JUMP JUMPDEST POP POP POP SWAP4 SWAP3 POP POP POP JUMP JUMPDEST PUSH2 0x1723 PUSH2 0x3ABC JUMP JUMPDEST PUSH1 0x0 SLOAD PUSH1 0xFF AND ISZERO PUSH2 0x1760 JUMPI PUSH1 0x40 MLOAD PUSH32 0x8C379A000000000000000000000000000000000000000000000000000000000 DUP2 MSTORE PUSH1 0x4 ADD PUSH2 0x572 SWAP1 PUSH2 0x4E69 JUMP JUMPDEST PUSH1 0x0 DUP1 SLOAD PUSH32 0xFFFFFFFFFFFFFFFFFFFFFFFFFFFFFFFFFFFFFFFFFFFFFFFFFFFFFFFFFFFFFF00 AND PUSH1 0x1 OR SWAP1 SSTORE PUSH2 0xDFF DUP5 DUP5 DUP5 PUSH2 0x21B7 JUMP JUMPDEST PUSH1 0xA SLOAD PUSH20 0xFFFFFFFFFFFFFFFFFFFFFFFFFFFFFFFFFFFFFFFF AND ISZERO PUSH2 0x17E6 JUMPI PUSH1 0x40 MLOAD PUSH32 0x8C379A000000000000000000000000000000000000000000000000000000000 DUP2 MSTORE PUSH1 0x4 ADD PUSH2 0x572 SWAP1 PUSH2 0x4E69 JUMP JUMPDEST PUSH1 0x0 PUSH2 0x1831 PUSH2 0x182C DUP9 DUP9 DUP9 DUP9 DUP1 DUP1 PUSH1 0x1F ADD PUSH1 0x20 DUP1 SWAP2 DIV MUL PUSH1 0x20 ADD PUSH1 0x40 MLOAD SWAP1 DUP2 ADD PUSH1 0x40 MSTORE DUP1 SWAP4 SWAP3 SWAP2 SWAP1 DUP2 DUP2 MSTORE PUSH1 0x20 ADD DUP4 DUP4 DUP1 DUP3 DUP5 CALLDATACOPY PUSH1 0x0 SWAP3 ADD SWAP2 SWAP1 SWAP2 MSTORE POP PUSH2 0x3114 SWAP3 POP POP POP JUMP JUMPDEST PUSH2 0x319C JUMP JUMPDEST PUSH1 0x0 DUP2 DUP2 MSTORE PUSH1 0x9 PUSH1 0x20 MSTORE PUSH1 0x40 SWAP1 KECCAK256 SLOAD SWAP1 SWAP2 POP PUSH1 0xFF AND ISZERO PUSH2 0x187D JUMPI PUSH1 0x40 MLOAD PUSH32 0x8C379A000000000000000000000000000000000000000000000000000000000 DUP2 MSTORE PUSH1 0x4 ADD PUSH2 0x572 SWAP1 PUSH2 0x4B41 JUMP JUMPDEST PUSH20 0xFFFFFFFFFFFFFFFFFFFFFFFFFFFFFFFFFFFFFFFF DUP7 AND CALLER EQ PUSH2 0x1952 JUMPI PUSH2 0x18DB DUP2 DUP8 DUP6 DUP6 DUP1 DUP1 PUSH1 0x1F ADD PUSH1 0x20 DUP1 SWAP2 DIV MUL PUSH1 0x20 ADD PUSH1 0x40 MLOAD SWAP1 DUP2 ADD PUSH1 0x40 MSTORE DUP1 SWAP4 SWAP3 SWAP2 SWAP1 DUP2 DUP2 MSTORE PUSH1 0x20 ADD DUP4 DUP4 DUP1 DUP3 DUP5 CALLDATACOPY PUSH1 0x0 SWAP3 ADD SWAP2 SWAP1 SWAP2 MSTORE POP PUSH2 0x11A9 SWAP3 POP POP POP JUMP JUMPDEST PUSH2 0x1911 JUMPI PUSH1 0x40 MLOAD PUSH32 0x8C379A000000000000000000000000000000000000000000000000000000000 DUP2 MSTORE PUSH1 0x4 ADD PUSH2 0x572 SWAP1 PUSH2 0x4FD9 JUMP JUMPDEST PUSH1 0xA DUP1 SLOAD PUSH32 0xFFFFFFFFFFFFFFFFFFFFFFFF0000000000000000000000000000000000000000 AND PUSH20 0xFFFFFFFFFFFFFFFFFFFFFFFFFFFFFFFFFFFFFFFF DUP9 AND OR SWAP1 SSTORE JUMPDEST PUSH1 0x0 DUP2 DUP2 MSTORE PUSH1 0x9 PUSH1 0x20 MSTORE PUSH1 0x40 DUP1 DUP3 KECCAK256 DUP1 SLOAD PUSH32 0xFFFFFFFFFFFFFFFFFFFFFFFFFFFFFFFFFFFFFFFFFFFFFFFFFFFFFFFFFFFFFF00 AND PUSH1 0x1 OR SWAP1 SSTORE MLOAD ADDRESS SWAP1 PUSH2 0x199A SWAP1 DUP9 SWAP1 DUP9 SWAP1 PUSH2 0x43CE JUMP JUMPDEST PUSH1 0x0 PUSH1 0x40 MLOAD DUP1 DUP4 SUB DUP2 DUP6 GAS DELEGATECALL SWAP2 POP POP RETURNDATASIZE DUP1 PUSH1 0x0 DUP2 EQ PUSH2 0x19D5 JUMPI PUSH1 0x40 MLOAD SWAP2 POP PUSH1 0x1F NOT PUSH1 0x3F RETURNDATASIZE ADD AND DUP3 ADD PUSH1 0x40 MSTORE RETURNDATASIZE DUP3 MSTORE RETURNDATASIZE PUSH1 0x0 PUSH1 0x20 DUP5 ADD RETURNDATACOPY PUSH2 0x19DA JUMP JUMPDEST PUSH1 0x60 SWAP2 POP JUMPDEST POP POP SWAP1 POP DUP1 PUSH2 0x1A15 JUMPI PUSH1 0x40 MLOAD PUSH32 0x8C379A000000000000000000000000000000000000000000000000000000000 DUP2 MSTORE PUSH1 0x4 ADD PUSH2 0x572 SWAP1 PUSH2 0x4BE6 JUMP JUMPDEST PUSH20 0xFFFFFFFFFFFFFFFFFFFFFFFFFFFFFFFFFFFFFFFF DUP8 AND CALLER EQ PUSH2 0x1A5B JUMPI PUSH1 0xA DUP1 SLOAD PUSH32 0xFFFFFFFFFFFFFFFFFFFFFFFF0000000000000000000000000000000000000000 AND SWAP1 SSTORE JUMPDEST POP POP POP POP POP POP POP POP JUMP JUMPDEST PUSH1 0x3 SLOAD PUSH20 0xFFFFFFFFFFFFFFFFFFFFFFFFFFFFFFFFFFFFFFFF AND CALLER EQ PUSH2 0x1AB6 JUMPI PUSH1 0x40 MLOAD PUSH32 0x8C379A000000000000000000000000000000000000000000000000000000000 DUP2 MSTORE PUSH1 0x4 ADD PUSH2 0x572 SWAP1 PUSH2 0x4EA0 JUMP JUMPDEST PUSH1 0x0 DUP2 PUSH20 0xFFFFFFFFFFFFFFFFFFFFFFFFFFFFFFFFFFFFFFFF AND PUSH4 0xAE25532E PUSH1 0x40 MLOAD DUP2 PUSH4 0xFFFFFFFF AND PUSH1 0xE0 SHL DUP2 MSTORE PUSH1 0x4 ADD PUSH1 0x20 PUSH1 0x40 MLOAD DUP1 DUP4 SUB DUP2 DUP7 DUP1 EXTCODESIZE ISZERO DUP1 ISZERO PUSH2 0x1AFE JUMPI PUSH1 0x0 DUP1 REVERT JUMPDEST POP GAS STATICCALL ISZERO DUP1 ISZERO PUSH2 0x1B12 JUMPI RETURNDATASIZE PUSH1 0x0 DUP1 RETURNDATACOPY RETURNDATASIZE PUSH1 0x0 REVERT JUMPDEST POP POP POP POP PUSH1 0x40 MLOAD RETURNDATASIZE PUSH1 0x1F NOT PUSH1 0x1F DUP3 ADD AND DUP3 ADD DUP1 PUSH1 0x40 MSTORE POP PUSH2 0x1B36 SWAP2 SWAP1 DUP2 ADD SWAP1 PUSH2 0x40E1 JUMP JUMPDEST PUSH32 0xFFFFFFFF00000000000000000000000000000000000000000000000000000000 DUP2 AND PUSH1 0x0 SWAP1 DUP2 MSTORE PUSH1 0xB PUSH1 0x20 MSTORE PUSH1 0x40 SWAP1 KECCAK256 SLOAD SWAP1 SWAP2 POP PUSH20 0xFFFFFFFFFFFFFFFFFFFFFFFFFFFFFFFFFFFFFFFF AND DUP1 ISZERO PUSH2 0x1BB9 JUMPI PUSH1 0x40 MLOAD PUSH32 0x8C379A000000000000000000000000000000000000000000000000000000000 DUP2 MSTORE PUSH1 0x4 ADD PUSH2 0x572 SWAP1 PUSH2 0x499A JUMP JUMPDEST PUSH32 0xFFFFFFFF00000000000000000000000000000000000000000000000000000000 DUP3 AND PUSH1 0x0 SWAP1 DUP2 MSTORE PUSH1 0xB PUSH1 0x20 MSTORE PUSH1 0x40 SWAP1 DUP2 SWAP1 KECCAK256 DUP1 SLOAD PUSH32 0xFFFFFFFFFFFFFFFFFFFFFFFF0000000000000000000000000000000000000000 AND PUSH20 0xFFFFFFFFFFFFFFFFFFFFFFFFFFFFFFFFFFFFFFFF DUP7 AND OR SWAP1 SSTORE MLOAD PUSH32 0xD2C6B762299C609BDB96520B58A49BFB80186934D4F71A86A367571A15C03194 SWAP1 PUSH2 0x1C5A SWAP1 DUP5 SWAP1 DUP7 SWAP1 PUSH2 0x4863 JUMP JUMPDEST PUSH1 0x40 MLOAD DUP1 SWAP2 SUB SWAP1 LOG1 POP POP POP JUMP JUMPDEST PUSH2 0x1C6F PUSH2 0x3B12 JUMP JUMPDEST PUSH2 0x1C78 DUP3 PUSH2 0x31D9 JUMP JUMPDEST PUSH1 0x20 DUP1 DUP4 ADD DUP3 SWAP1 MSTORE PUSH1 0x0 SWAP2 DUP3 MSTORE PUSH1 0x4 SWAP1 MSTORE PUSH1 0x40 SWAP1 DUP2 SWAP1 KECCAK256 SLOAD SWAP1 DUP3 ADD MSTORE PUSH1 0x80 DUP3 ADD MLOAD PUSH2 0x1CAA JUMPI PUSH1 0x1 JUMPDEST PUSH1 0xFF AND DUP2 MSTORE PUSH2 0xD6A JUMP JUMPDEST PUSH1 0xA0 DUP3 ADD MLOAD PUSH2 0x1CBA JUMPI PUSH1 0x2 PUSH2 0x1CA0 JUMP JUMPDEST DUP2 PUSH1 0xA0 ADD MLOAD DUP2 PUSH1 0x40 ADD MLOAD LT PUSH2 0x1CD0 JUMPI PUSH1 0x5 PUSH2 0x1CA0 JUMP JUMPDEST DUP2 PUSH2 0x100 ADD MLOAD TIMESTAMP LT PUSH2 0x1CE3 JUMPI PUSH1 0x4 PUSH2 0x1CA0 JUMP JUMPDEST PUSH1 0x20 DUP1 DUP3 ADD MLOAD PUSH1 0x0 SWAP1 DUP2 MSTORE PUSH1 0x5 SWAP1 SWAP2 MSTORE PUSH1 0x40 SWAP1 KECCAK256 SLOAD PUSH1 0xFF AND ISZERO PUSH2 0x1D07 JUMPI PUSH1 0x6 PUSH2 0x1CA0 JUMP JUMPDEST PUSH2 0x120 DUP3 ADD MLOAD DUP3 MLOAD PUSH20 0xFFFFFFFFFFFFFFFFFFFFFFFFFFFFFFFFFFFFFFFF SWAP1 DUP2 AND PUSH1 0x0 SWAP1 DUP2 MSTORE PUSH1 0x6 PUSH1 0x20 SWAP1 DUP2 MSTORE PUSH1 0x40 DUP1 DUP4 KECCAK256 PUSH1 0x60 DUP9 ADD MLOAD SWAP1 SWAP5 AND DUP4 MSTORE SWAP3 SWAP1 MSTORE KECCAK256 SLOAD GT ISZERO PUSH2 0x1D54 JUMPI PUSH1 0x6 PUSH2 0x1CA0 JUMP JUMPDEST PUSH1 0x3 DUP2 MSTORE SWAP2 SWAP1 POP JUMP JUMPDEST PUSH1 0x0 SLOAD PUSH1 0xFF AND ISZERO PUSH2 0x1D9A JUMPI PUSH1 0x40 MLOAD PUSH32 0x8C379A000000000000000000000000000000000000000000000000000000000 DUP2 MSTORE PUSH1 0x4 ADD PUSH2 0x572 SWAP1 PUSH2 0x4E69 JUMP JUMPDEST PUSH1 0x0 DUP1 SLOAD PUSH32 0xFFFFFFFFFFFFFFFFFFFFFFFFFFFFFFFFFFFFFFFFFFFFFFFFFFFFFFFFFFFFFF00 AND PUSH1 0x1 OR SWAP1 SSTORE PUSH2 0x1DCE DUP2 PUSH2 0x2BEB JUMP JUMPDEST POP PUSH1 0x0 DUP1 SLOAD PUSH32 0xFFFFFFFFFFFFFFFFFFFFFFFFFFFFFFFFFFFFFFFFFFFFFFFFFFFFFFFFFFFFFF00 AND SWAP1 SSTORE JUMP JUMPDEST PUSH1 0x6 PUSH1 0x20 SWAP1 DUP2 MSTORE PUSH1 0x0 SWAP3 DUP4 MSTORE PUSH1 0x40 DUP1 DUP5 KECCAK256 SWAP1 SWAP2 MSTORE SWAP1 DUP3 MSTORE SWAP1 KECCAK256 SLOAD DUP2 JUMP JUMPDEST PUSH1 0x1 DUP1 SLOAD PUSH1 0x40 DUP1 MLOAD PUSH1 0x20 PUSH1 0x2 DUP5 DUP7 AND ISZERO PUSH2 0x100 MUL PUSH32 0xFFFFFFFFFFFFFFFFFFFFFFFFFFFFFFFFFFFFFFFFFFFFFFFFFFFFFFFFFFFFFFFF ADD SWAP1 SWAP5 AND SWAP4 SWAP1 SWAP4 DIV PUSH1 0x1F DUP2 ADD DUP5 SWAP1 DIV DUP5 MUL DUP3 ADD DUP5 ADD SWAP1 SWAP3 MSTORE DUP2 DUP2 MSTORE SWAP3 SWAP2 DUP4 ADD DUP3 DUP3 DUP1 ISZERO PUSH2 0x1EB9 JUMPI DUP1 PUSH1 0x1F LT PUSH2 0x1E8E JUMPI PUSH2 0x100 DUP1 DUP4 SLOAD DIV MUL DUP4 MSTORE SWAP2 PUSH1 0x20 ADD SWAP2 PUSH2 0x1EB9 JUMP JUMPDEST DUP3 ADD SWAP2 SWAP1 PUSH1 0x0 MSTORE PUSH1 0x20 PUSH1 0x0 KECCAK256 SWAP1 JUMPDEST DUP2 SLOAD DUP2 MSTORE SWAP1 PUSH1 0x1 ADD SWAP1 PUSH1 0x20 ADD DUP1 DUP4 GT PUSH2 0x1E9C JUMPI DUP3 SWAP1 SUB PUSH1 0x1F AND DUP3 ADD SWAP2 JUMPDEST POP POP POP POP POP DUP2 JUMP JUMPDEST PUSH2 0x1EC9 PUSH2 0x3ABC JUMP JUMPDEST PUSH1 0x60 DUP5 PUSH1 0x0 DUP2 MLOAD DUP2 LT PUSH2 0x1ED8 JUMPI INVALID JUMPDEST PUSH1 0x20 SWAP1 DUP2 MUL SWAP2 SWAP1 SWAP2 ADD ADD MLOAD PUSH2 0x160 ADD MLOAD DUP6 MLOAD SWAP1 SWAP2 POP PUSH1 0x0 JUMPDEST DUP2 DUP2 EQ PUSH2 0x1711 JUMPI DUP3 DUP8 DUP3 DUP2 MLOAD DUP2 LT PUSH2 0x1F04 JUMPI INVALID JUMPDEST PUSH1 0x20 MUL PUSH1 0x20 ADD ADD MLOAD PUSH2 0x160 ADD DUP2 SWAP1 MSTORE POP PUSH1 0x0 PUSH2 0x1F24 DUP8 DUP7 PUSH1 0x20 ADD MLOAD PUSH2 0x2C68 JUMP JUMPDEST SWAP1 POP PUSH2 0x1F2E PUSH2 0x3ABC JUMP JUMPDEST PUSH2 0x1F52 DUP10 DUP5 DUP2 MLOAD DUP2 LT PUSH2 0x1F3D JUMPI INVALID JUMPDEST PUSH1 0x20 MUL PUSH1 0x20 ADD ADD MLOAD DUP4 DUP10 DUP7 DUP2 MLOAD DUP2 LT PUSH2 0xCFF JUMPI INVALID JUMPDEST SWAP1 POP PUSH2 0x1F5E DUP7 DUP3 PUSH2 0x2256 JUMP JUMPDEST DUP8 DUP7 PUSH1 0x20 ADD MLOAD LT PUSH2 0x1F70 JUMPI POP POP PUSH2 0x1711 JUMP JUMPDEST POP POP PUSH1 0x1 ADD PUSH2 0x1EF0 JUMP JUMPDEST PUSH1 0x2 SLOAD DUP2 JUMP JUMPDEST PUSH2 0x1F88 PUSH2 0x3ABC JUMP JUMPDEST PUSH1 0x0 SLOAD PUSH1 0xFF AND ISZERO PUSH2 0x1FC5 JUMPI PUSH1 0x40 MLOAD PUSH32 0x8C379A000000000000000000000000000000000000000000000000000000000 DUP2 MSTORE PUSH1 0x4 ADD PUSH2 0x572 SWAP1 PUSH2 0x4E69 JUMP JUMPDEST PUSH1 0x0 DUP1 SLOAD PUSH32 0xFFFFFFFFFFFFFFFFFFFFFFFFFFFFFFFFFFFFFFFFFFFFFFFFFFFFFFFFFFFFFF00 AND PUSH1 0x1 OR DUP2 SSTORE DUP5 MLOAD PUSH1 0x60 SWAP2 DUP7 SWAP2 PUSH2 0x1FFD JUMPI INVALID JUMPDEST PUSH1 0x20 SWAP1 DUP2 MUL SWAP2 SWAP1 SWAP2 ADD ADD MLOAD PUSH2 0x140 ADD MLOAD DUP6 MLOAD SWAP1 SWAP2 POP PUSH1 0x0 JUMPDEST DUP2 DUP2 EQ PUSH2 0x10A7 JUMPI DUP3 DUP8 DUP3 DUP2 MLOAD DUP2 LT PUSH2 0x2029 JUMPI INVALID JUMPDEST PUSH1 0x20 MUL PUSH1 0x20 ADD ADD MLOAD PUSH2 0x140 ADD DUP2 SWAP1 MSTORE POP PUSH1 0x0 PUSH2 0x2049 DUP8 DUP7 PUSH1 0x0 ADD MLOAD PUSH2 0x2C68 JUMP JUMPDEST SWAP1 POP PUSH1 0x0 PUSH2 0x205C DUP10 DUP5 DUP2 MLOAD DUP2 LT PUSH2 0x1692 JUMPI INVALID JUMPDEST SWAP1 POP PUSH2 0x2066 PUSH2 0x3ABC JUMP JUMPDEST PUSH2 0x208A DUP11 DUP6 DUP2 MLOAD DUP2 LT PUSH2 0x2075 JUMPI INVALID JUMPDEST PUSH1 0x20 MUL PUSH1 0x20 ADD ADD MLOAD DUP4 DUP11 DUP8 DUP2 MLOAD DUP2 LT PUSH2 0x5F0 JUMPI INVALID JUMPDEST SWAP1 POP PUSH2 0x2096 DUP8 DUP3 PUSH2 0x2256 JUMP JUMPDEST DUP7 MLOAD DUP10 GT PUSH2 0x20A6 JUMPI POP POP POP PUSH2 0x10A7 JUMP JUMPDEST POP POP POP PUSH1 0x1 ADD PUSH2 0x2015 JUMP JUMPDEST PUSH1 0xA SLOAD PUSH20 0xFFFFFFFFFFFFFFFFFFFFFFFFFFFFFFFFFFFFFFFF AND DUP2 JUMP JUMPDEST PUSH1 0x3 SLOAD PUSH20 0xFFFFFFFFFFFFFFFFFFFFFFFFFFFFFFFFFFFFFFFF AND CALLER EQ PUSH2 0x211E JUMPI PUSH1 0x40 MLOAD PUSH32 0x8C379A000000000000000000000000000000000000000000000000000000000 DUP2 MSTORE PUSH1 0x4 ADD PUSH2 0x572 SWAP1 PUSH2 0x4EA0 JUMP JUMPDEST PUSH20 0xFFFFFFFFFFFFFFFFFFFFFFFFFFFFFFFFFFFFFFFF DUP2 AND ISZERO PUSH2 0x217B JUMPI PUSH1 0x3 DUP1 SLOAD PUSH32 0xFFFFFFFFFFFFFFFFFFFFFFFF0000000000000000000000000000000000000000 AND PUSH20 0xFFFFFFFFFFFFFFFFFFFFFFFFFFFFFFFFFFFFFFFF DUP4 AND OR SWAP1 SSTORE JUMPDEST POP JUMP JUMPDEST PUSH1 0x40 MLOAD DUP1 PUSH1 0x40 ADD PUSH1 0x40 MSTORE DUP1 PUSH1 0x5 DUP2 MSTORE PUSH1 0x20 ADD PUSH32 0x332E302E30000000000000000000000000000000000000000000000000000000 DUP2 MSTORE POP DUP2 JUMP JUMPDEST PUSH2 0x21BF PUSH2 0x3ABC JUMP JUMPDEST PUSH2 0x21C7 PUSH2 0x3B12 JUMP JUMPDEST PUSH2 0x21D0 DUP6 PUSH2 0x1C67 JUMP JUMPDEST SWAP1 POP PUSH1 0x0 PUSH2 0x21DC PUSH2 0x22B8 JUMP JUMPDEST SWAP1 POP PUSH2 0x21EA DUP7 DUP4 DUP4 DUP8 PUSH2 0x22EA JUMP JUMPDEST PUSH1 0x0 PUSH2 0x21FE DUP8 PUSH1 0xA0 ADD MLOAD DUP5 PUSH1 0x40 ADD MLOAD PUSH2 0x2C68 JUMP JUMPDEST SWAP1 POP PUSH1 0x0 PUSH2 0x220C DUP8 DUP4 PUSH2 0x31E7 JUMP JUMPDEST SWAP1 POP PUSH2 0x221F DUP9 DUP6 DUP10 DUP5 DUP10 PUSH1 0x0 ADD MLOAD PUSH2 0x2665 JUMP JUMPDEST PUSH2 0x2229 DUP9 DUP3 PUSH2 0x31FD JUMP JUMPDEST SWAP5 POP PUSH2 0x2240 DUP9 DUP5 DUP7 PUSH1 0x20 ADD MLOAD DUP8 PUSH1 0x40 ADD MLOAD DUP10 PUSH2 0x277C JUMP JUMPDEST PUSH2 0x224B DUP9 DUP5 DUP8 PUSH2 0x325E JUMP JUMPDEST POP POP POP POP SWAP4 SWAP3 POP POP POP JUMP JUMPDEST DUP2 MLOAD DUP2 MLOAD PUSH2 0x2264 SWAP2 SWAP1 PUSH2 0x336C JUMP JUMPDEST DUP3 MSTORE PUSH1 0x20 DUP1 DUP4 ADD MLOAD SWAP1 DUP3 ADD MLOAD PUSH2 0x227A SWAP2 SWAP1 PUSH2 0x336C JUMP JUMPDEST PUSH1 0x20 DUP4 ADD MSTORE PUSH1 0x40 DUP1 DUP4 ADD MLOAD SWAP1 DUP3 ADD MLOAD PUSH2 0x2293 SWAP2 SWAP1 PUSH2 0x336C JUMP JUMPDEST PUSH1 0x40 DUP4 ADD MSTORE PUSH1 0x60 DUP1 DUP4 ADD MLOAD SWAP1 DUP3 ADD MLOAD PUSH2 0x22AC SWAP2 SWAP1 PUSH2 0x336C JUMP JUMPDEST PUSH1 0x60 SWAP1 SWAP3 ADD SWAP2 SWAP1 SWAP2 MSTORE POP JUMP JUMPDEST PUSH1 0xA SLOAD PUSH1 0x0 SWAP1 PUSH20 0xFFFFFFFFFFFFFFFFFFFFFFFFFFFFFFFFFFFFFFFF AND DUP2 DUP2 ISZERO PUSH2 0x22E1 JUMPI DUP2 PUSH2 0x22E3 JUMP JUMPDEST CALLER JUMPDEST SWAP3 POP POP POP SWAP1 JUMP JUMPDEST DUP3 MLOAD PUSH1 0xFF AND PUSH1 0x3 EQ PUSH2 0x2328 JUMPI PUSH1 0x40 MLOAD PUSH32 0x8C379A000000000000000000000000000000000000000000000000000000000 DUP2 MSTORE PUSH1 0x4 ADD PUSH2 0x572 SWAP1 PUSH2 0x4F34 JUMP JUMPDEST PUSH1 0x60 DUP5 ADD MLOAD PUSH20 0xFFFFFFFFFFFFFFFFFFFFFFFFFFFFFFFFFFFFFFFF AND ISZERO PUSH2 0x239B JUMPI PUSH1 0x60 DUP5 ADD MLOAD PUSH20 0xFFFFFFFFFFFFFFFFFFFFFFFFFFFFFFFFFFFFFFFF AND CALLER EQ PUSH2 0x239B JUMPI PUSH1 0x40 MLOAD PUSH32 0x8C379A000000000000000000000000000000000000000000000000000000000 DUP2 MSTORE PUSH1 0x4 ADD PUSH2 0x572 SWAP1 PUSH2 0x4F6B JUMP JUMPDEST PUSH1 0x20 DUP5 ADD MLOAD PUSH20 0xFFFFFFFFFFFFFFFFFFFFFFFFFFFFFFFFFFFFFFFF AND ISZERO PUSH2 0x2424 JUMPI DUP2 PUSH20 0xFFFFFFFFFFFFFFFFFFFFFFFFFFFFFFFFFFFFFFFF AND DUP5 PUSH1 0x20 ADD MLOAD PUSH20 0xFFFFFFFFFFFFFFFFFFFFFFFFFFFFFFFFFFFFFFFF AND EQ PUSH2 0x2424 JUMPI PUSH1 0x40 MLOAD PUSH32 0x8C379A000000000000000000000000000000000000000000000000000000000 DUP2 MSTORE PUSH1 0x4 ADD PUSH2 0x572 SWAP1 PUSH2 0x48F5 JUMP JUMPDEST PUSH1 0x40 DUP4 ADD MLOAD PUSH2 0x2476 JUMPI PUSH2 0x2440 DUP4 PUSH1 0x20 ADD MLOAD DUP6 PUSH1 0x0 ADD MLOAD DUP4 PUSH2 0x11A9 JUMP JUMPDEST PUSH2 0x2476 JUMPI PUSH1 0x40 MLOAD PUSH32 0x8C379A000000000000000000000000000000000000000000000000000000000 DUP2 MSTORE PUSH1 0x4 ADD PUSH2 0x572 SWAP1 PUSH2 0x4A9C JUMP JUMPDEST POP POP POP POP JUMP JUMPDEST PUSH2 0x248E DUP3 PUSH1 0xA0 ADD MLOAD DUP3 PUSH1 0xA0 ADD MLOAD PUSH2 0x33AB JUMP JUMPDEST PUSH2 0x24A0 DUP4 PUSH1 0x80 ADD MLOAD DUP4 PUSH1 0x80 ADD MLOAD PUSH2 0x33AB JUMP JUMPDEST LT ISZERO PUSH2 0x24D8 JUMPI PUSH1 0x40 MLOAD PUSH32 0x8C379A000000000000000000000000000000000000000000000000000000000 DUP2 MSTORE PUSH1 0x4 ADD PUSH2 0x572 SWAP1 PUSH2 0x4FA2 JUMP JUMPDEST POP POP JUMP JUMPDEST PUSH2 0x24E4 PUSH2 0x3AE4 JUMP JUMPDEST PUSH1 0x0 PUSH2 0x24F4 DUP7 PUSH1 0xA0 ADD MLOAD DUP6 PUSH2 0x2C68 JUMP JUMPDEST SWAP1 POP PUSH1 0x0 PUSH2 0x250B DUP8 PUSH1 0x80 ADD MLOAD DUP9 PUSH1 0xA0 ADD MLOAD DUP5 PUSH2 0x33FF JUMP JUMPDEST SWAP1 POP PUSH1 0x0 PUSH2 0x251D DUP8 PUSH1 0xA0 ADD MLOAD DUP7 PUSH2 0x2C68 JUMP JUMPDEST SWAP1 POP PUSH1 0x0 PUSH2 0x2534 DUP9 PUSH1 0x80 ADD MLOAD DUP10 PUSH1 0xA0 ADD MLOAD DUP5 PUSH2 0x33FF JUMP JUMPDEST SWAP1 POP DUP1 DUP5 LT PUSH2 0x2577 JUMPI PUSH1 0x20 DUP1 DUP7 ADD DUP1 MLOAD DUP4 SWAP1 MSTORE DUP1 MLOAD DUP3 ADD DUP5 SWAP1 MSTORE MLOAD MLOAD DUP7 MLOAD DUP3 ADD MSTORE PUSH1 0x80 DUP11 ADD MLOAD PUSH1 0xA0 DUP12 ADD MLOAD DUP8 MLOAD SWAP1 SWAP3 ADD MLOAD PUSH2 0x256F SWAP3 SWAP1 PUSH2 0x33FF JUMP JUMPDEST DUP6 MLOAD MSTORE PUSH2 0x25B4 JUMP JUMPDEST DUP5 MLOAD DUP4 SWAP1 MSTORE DUP5 MLOAD PUSH1 0x20 SWAP1 DUP2 ADD DUP6 SWAP1 MSTORE DUP6 MLOAD DUP2 ADD MLOAD SWAP1 DUP7 ADD DUP1 MLOAD SWAP2 SWAP1 SWAP2 MSTORE PUSH1 0xA0 DUP10 ADD MLOAD PUSH1 0x80 DUP11 ADD MLOAD SWAP2 MLOAD MLOAD PUSH2 0x25AB SWAP3 SWAP1 PUSH2 0x347C JUMP JUMPDEST PUSH1 0x20 DUP1 DUP8 ADD MLOAD ADD MSTORE JUMPDEST DUP5 MLOAD MLOAD PUSH1 0x20 DUP1 DUP8 ADD MLOAD ADD MLOAD PUSH2 0x25C9 SWAP2 SWAP1 PUSH2 0x2C68 JUMP JUMPDEST PUSH1 0x40 DUP7 ADD MSTORE DUP5 MLOAD MLOAD PUSH1 0x80 DUP11 ADD MLOAD PUSH1 0xC0 DUP12 ADD MLOAD PUSH2 0x25E6 SWAP3 SWAP2 SWAP1 PUSH2 0x33FF JUMP JUMPDEST DUP6 MLOAD PUSH1 0x40 ADD MSTORE DUP5 MLOAD PUSH1 0x20 ADD MLOAD PUSH1 0xA0 DUP11 ADD MLOAD PUSH1 0xE0 DUP12 ADD MLOAD PUSH2 0x2607 SWAP3 SWAP2 SWAP1 PUSH2 0x33FF JUMP JUMPDEST DUP6 MLOAD PUSH1 0x60 ADD MSTORE PUSH1 0x20 DUP6 ADD MLOAD MLOAD PUSH1 0x80 DUP10 ADD MLOAD PUSH1 0xC0 DUP11 ADD MLOAD PUSH2 0x2628 SWAP3 SWAP2 SWAP1 PUSH2 0x33FF JUMP JUMPDEST DUP6 PUSH1 0x20 ADD MLOAD PUSH1 0x40 ADD DUP2 DUP2 MSTORE POP POP PUSH2 0x2650 DUP6 PUSH1 0x20 ADD MLOAD PUSH1 0x20 ADD MLOAD DUP10 PUSH1 0xA0 ADD MLOAD DUP11 PUSH1 0xE0 ADD MLOAD PUSH2 0x33FF JUMP JUMPDEST PUSH1 0x20 DUP7 ADD MLOAD PUSH1 0x60 ADD MSTORE POP POP POP POP SWAP5 SWAP4 POP POP POP POP JUMP JUMPDEST DUP3 PUSH2 0x269C JUMPI PUSH1 0x40 MLOAD PUSH32 0x8C379A000000000000000000000000000000000000000000000000000000000 DUP2 MSTORE PUSH1 0x4 ADD PUSH2 0x572 SWAP1 PUSH2 0x4C54 JUMP JUMPDEST DUP3 DUP3 GT ISZERO PUSH2 0x26D6 JUMPI PUSH1 0x40 MLOAD PUSH32 0x8C379A000000000000000000000000000000000000000000000000000000000 DUP2 MSTORE PUSH1 0x4 ADD PUSH2 0x572 SWAP1 PUSH2 0x4C1D JUMP JUMPDEST DUP5 PUSH1 0xA0 ADD MLOAD PUSH2 0x26E9 DUP6 PUSH1 0x40 ADD MLOAD DUP5 PUSH2 0x336C JUMP JUMPDEST GT ISZERO PUSH2 0x2721 JUMPI PUSH1 0x40 MLOAD PUSH32 0x8C379A000000000000000000000000000000000000000000000000000000000 DUP2 MSTORE PUSH1 0x4 ADD PUSH2 0x572 SWAP1 PUSH2 0x492C JUMP JUMPDEST PUSH2 0x272F DUP6 PUSH1 0x80 ADD MLOAD DUP4 PUSH2 0x33AB JUMP JUMPDEST PUSH2 0x273D DUP3 DUP8 PUSH1 0xA0 ADD MLOAD PUSH2 0x33AB JUMP JUMPDEST GT ISZERO PUSH2 0x2775 JUMPI PUSH1 0x40 MLOAD PUSH32 0x8C379A000000000000000000000000000000000000000000000000000000000 DUP2 MSTORE PUSH1 0x4 ADD PUSH2 0x572 SWAP1 PUSH2 0x4E32 JUMP JUMPDEST POP POP POP POP POP JUMP JUMPDEST PUSH2 0x278A DUP3 DUP3 PUSH1 0x20 ADD MLOAD PUSH2 0x336C JUMP JUMPDEST PUSH1 0x4 PUSH1 0x0 DUP6 DUP2 MSTORE PUSH1 0x20 ADD SWAP1 DUP2 MSTORE PUSH1 0x20 ADD PUSH1 0x0 KECCAK256 DUP2 SWAP1 SSTORE POP DUP3 DUP6 PUSH1 0x40 ADD MLOAD PUSH20 0xFFFFFFFFFFFFFFFFFFFFFFFFFFFFFFFFFFFFFFFF AND DUP7 PUSH1 0x0 ADD MLOAD PUSH20 0xFFFFFFFFFFFFFFFFFFFFFFFFFFFFFFFFFFFFFFFF AND PUSH32 0xBCC4C97732E47D9946F229EDB95F5B6323F601300E4690DE719993F3C371129 DUP8 CALLER DUP7 PUSH1 0x0 ADD MLOAD DUP8 PUSH1 0x20 ADD MLOAD DUP9 PUSH1 0x40 ADD MLOAD DUP10 PUSH1 0x60 ADD MLOAD DUP15 PUSH2 0x140 ADD MLOAD DUP16 PUSH2 0x160 ADD MLOAD PUSH1 0x40 MLOAD PUSH2 0x282F SWAP9 SWAP8 SWAP7 SWAP6 SWAP5 SWAP4 SWAP3 SWAP2 SWAP1 PUSH2 0x4718 JUMP JUMPDEST PUSH1 0x40 MLOAD DUP1 SWAP2 SUB SWAP1 LOG4 POP POP POP POP POP JUMP JUMPDEST PUSH1 0x1 DUP1 SLOAD PUSH1 0x40 DUP1 MLOAD PUSH1 0x20 PUSH1 0x1F PUSH1 0x2 PUSH32 0xFFFFFFFFFFFFFFFFFFFFFFFFFFFFFFFFFFFFFFFFFFFFFFFFFFFFFFFFFFFFFFFF PUSH2 0x100 DUP8 DUP10 AND ISZERO MUL ADD SWAP1 SWAP6 AND SWAP5 SWAP1 SWAP5 DIV SWAP4 DUP5 ADD DUP2 SWAP1 DIV DUP2 MUL DUP3 ADD DUP2 ADD SWAP1 SWAP3 MSTORE DUP3 DUP2 MSTORE PUSH1 0x60 SWAP4 SWAP1 SWAP3 SWAP1 SWAP2 DUP4 ADD DUP3 DUP3 DUP1 ISZERO PUSH2 0x28E7 JUMPI DUP1 PUSH1 0x1F LT PUSH2 0x28BC JUMPI PUSH2 0x100 DUP1 DUP4 SLOAD DIV MUL DUP4 MSTORE SWAP2 PUSH1 0x20 ADD SWAP2 PUSH2 0x28E7 JUMP JUMPDEST DUP3 ADD SWAP2 SWAP1 PUSH1 0x0 MSTORE PUSH1 0x20 PUSH1 0x0 KECCAK256 SWAP1 JUMPDEST DUP2 SLOAD DUP2 MSTORE SWAP1 PUSH1 0x1 ADD SWAP1 PUSH1 0x20 ADD DUP1 DUP4 GT PUSH2 0x28CA JUMPI DUP3 SWAP1 SUB PUSH1 0x1F AND DUP3 ADD SWAP2 JUMPDEST POP POP POP POP POP SWAP1 POP PUSH2 0x290F DUP6 PUSH2 0x140 ADD MLOAD DUP7 PUSH1 0x0 ADD MLOAD DUP7 PUSH1 0x0 ADD MLOAD DUP6 PUSH1 0x20 ADD MLOAD PUSH1 0x20 ADD MLOAD PUSH2 0x3519 JUMP JUMPDEST PUSH2 0x140 DUP5 ADD MLOAD DUP5 MLOAD DUP7 MLOAD DUP5 MLOAD PUSH1 0x20 ADD MLOAD PUSH2 0x292B SWAP4 SWAP3 SWAP2 SWAP1 PUSH2 0x3519 JUMP JUMPDEST PUSH2 0x2944 DUP6 PUSH2 0x140 ADD MLOAD DUP7 PUSH1 0x0 ADD MLOAD DUP6 DUP6 PUSH1 0x40 ADD MLOAD PUSH2 0x3519 JUMP JUMPDEST PUSH2 0x2960 DUP2 DUP7 PUSH1 0x0 ADD MLOAD DUP8 PUSH1 0x40 ADD MLOAD DUP6 PUSH1 0x0 ADD MLOAD PUSH1 0x40 ADD MLOAD PUSH2 0x3519 JUMP JUMPDEST PUSH2 0x297C DUP2 DUP6 PUSH1 0x0 ADD MLOAD DUP7 PUSH1 0x40 ADD MLOAD DUP6 PUSH1 0x20 ADD MLOAD PUSH1 0x40 ADD MLOAD PUSH2 0x3519 JUMP JUMPDEST DUP4 PUSH1 0x40 ADD MLOAD PUSH20 0xFFFFFFFFFFFFFFFFFFFFFFFFFFFFFFFFFFFFFFFF AND DUP6 PUSH1 0x40 ADD MLOAD PUSH20 0xFFFFFFFFFFFFFFFFFFFFFFFFFFFFFFFFFFFFFFFF AND EQ ISZERO PUSH2 0x29E6 JUMPI PUSH2 0x29E1 DUP2 DUP5 DUP8 PUSH1 0x40 ADD MLOAD PUSH2 0x29DC DUP7 PUSH1 0x0 ADD MLOAD PUSH1 0x60 ADD MLOAD DUP8 PUSH1 0x20 ADD MLOAD PUSH1 0x60 ADD MLOAD PUSH2 0x336C JUMP JUMPDEST PUSH2 0x3519 JUMP JUMPDEST PUSH2 0x2775 JUMP JUMPDEST PUSH2 0x29FE DUP2 DUP5 DUP8 PUSH1 0x40 ADD MLOAD DUP6 PUSH1 0x0 ADD MLOAD PUSH1 0x60 ADD MLOAD PUSH2 0x3519 JUMP JUMPDEST PUSH2 0x2775 DUP2 DUP5 DUP7 PUSH1 0x40 ADD MLOAD DUP6 PUSH1 0x20 ADD MLOAD PUSH1 0x60 ADD MLOAD PUSH2 0x3519 JUMP JUMPDEST PUSH1 0x40 DUP1 MLOAD PUSH32 0xB4BE83D500000000000000000000000000000000000000000000000000000000 PUSH1 0x20 DUP1 DUP4 ADD SWAP2 SWAP1 SWAP2 MSTORE PUSH1 0x60 PUSH1 0x24 DUP4 ADD DUP2 DUP2 MSTORE DUP8 MLOAD PUSH1 0x84 DUP6 ADD SWAP1 DUP2 MSTORE DUP9 DUP5 ADD MLOAD PUSH1 0xA4 DUP7 ADD MSTORE SWAP5 DUP9 ADD MLOAD PUSH1 0xC4 DUP6 ADD MSTORE SWAP1 DUP8 ADD MLOAD PUSH1 0xE4 DUP5 ADD MSTORE PUSH1 0x80 DUP8 ADD MLOAD PUSH2 0x104 DUP5 ADD MSTORE PUSH1 0xA0 DUP8 ADD MLOAD PUSH2 0x124 DUP5 ADD MSTORE PUSH1 0xC0 DUP8 ADD MLOAD PUSH2 0x144 DUP5 ADD MSTORE PUSH1 0xE0 DUP8 ADD MLOAD PUSH2 0x164 DUP5 ADD MSTORE PUSH2 0x100 DUP8 ADD MLOAD PUSH2 0x184 DUP5 ADD MSTORE PUSH2 0x120 DUP8 ADD MLOAD PUSH2 0x1A4 DUP5 ADD MSTORE PUSH2 0x140 DUP8 ADD DUP1 MLOAD PUSH2 0x1C4 DUP6 ADD SWAP1 DUP2 MSTORE PUSH2 0x160 DUP10 ADD MLOAD PUSH2 0x1E4 DUP7 ADD MSTORE PUSH2 0x180 SWAP1 MSTORE MLOAD DUP1 MLOAD PUSH2 0x204 DUP6 ADD DUP2 SWAP1 MSTORE SWAP4 SWAP5 PUSH2 0x224 DUP7 ADD SWAP5 SWAP3 SWAP4 PUSH1 0x44 DUP8 ADD SWAP4 SWAP2 SWAP3 DUP2 ADD SWAP2 SWAP1 PUSH1 0x1F DUP3 ADD DIV PUSH1 0x0 JUMPDEST DUP2 DUP2 LT ISZERO PUSH2 0x2B1B JUMPI DUP4 MLOAD DUP9 MSTORE PUSH1 0x20 SWAP8 DUP9 ADD SWAP8 SWAP1 SWAP4 ADD SWAP3 PUSH1 0x1 ADD PUSH2 0x2AFD JUMP JUMPDEST POP POP POP POP DUP1 DUP5 SUB PUSH2 0x160 SWAP2 DUP3 ADD MSTORE DUP8 ADD MLOAD DUP1 MLOAD DUP1 DUP6 MSTORE PUSH1 0x20 SWAP5 DUP6 ADD SWAP5 PUSH1 0x0 SWAP3 DUP2 ADD SWAP2 SWAP1 PUSH1 0x1F DUP3 ADD DIV JUMPDEST DUP1 DUP5 LT ISZERO PUSH2 0x2B67 JUMPI DUP3 MLOAD DUP8 MSTORE PUSH1 0x20 DUP8 ADD SWAP7 POP PUSH1 0x20 DUP4 ADD SWAP3 POP PUSH1 0x1 DUP5 ADD SWAP4 POP PUSH2 0x2B44 JUMP JUMPDEST POP POP POP DUP7 DUP3 MSTORE SWAP2 DUP4 SUB PUSH1 0x20 SWAP2 DUP3 ADD SWAP1 DUP2 MSTORE DUP6 MLOAD DUP1 DUP6 MSTORE SWAP4 DUP3 ADD SWAP4 PUSH1 0x0 SWAP4 SWAP2 SWAP3 DUP8 DUP2 ADD SWAP2 SWAP1 PUSH1 0x1F DUP3 ADD DIV JUMPDEST DUP1 DUP7 LT ISZERO PUSH2 0x2BB4 JUMPI DUP3 MLOAD DUP8 MSTORE PUSH1 0x20 DUP8 ADD SWAP7 POP PUSH1 0x20 DUP4 ADD SWAP3 POP PUSH1 0x1 DUP7 ADD SWAP6 POP PUSH2 0x2B91 JUMP JUMPDEST POP POP POP PUSH32 0xFFFFFFFFFFFFFFFFFFFFFFFFFFFFFFFFFFFFFFFFFFFFFFFFFFFFFFFFFFFFFFE0 DUP6 DUP6 SUB ADD DUP6 MSTORE POP POP POP PUSH1 0x40 MSTORE SWAP4 SWAP3 POP POP POP JUMP JUMPDEST PUSH2 0x2BF3 PUSH2 0x3B12 JUMP JUMPDEST PUSH2 0x2BFC DUP3 PUSH2 0x1C67 JUMP JUMPDEST SWAP1 POP PUSH2 0x2C08 DUP3 DUP3 PUSH2 0x36BE JUMP JUMPDEST PUSH2 0x24D8 DUP3 DUP3 PUSH1 0x20 ADD MLOAD PUSH2 0x37E9 JUMP JUMPDEST PUSH2 0x2C1E PUSH2 0x3ABC JUMP JUMPDEST PUSH2 0x2C29 DUP5 DUP5 DUP5 PUSH2 0x21B7 JUMP JUMPDEST SWAP1 POP DUP3 DUP2 PUSH1 0x20 ADD MLOAD EQ PUSH2 0x930 JUMPI PUSH1 0x40 MLOAD PUSH32 0x8C379A000000000000000000000000000000000000000000000000000000000 DUP2 MSTORE PUSH1 0x4 ADD PUSH2 0x572 SWAP1 PUSH2 0x4DFB JUMP JUMPDEST PUSH1 0x0 DUP3 DUP3 GT ISZERO PUSH2 0x2CA4 JUMPI PUSH1 0x40 MLOAD PUSH32 0x8C379A000000000000000000000000000000000000000000000000000000000 DUP2 MSTORE PUSH1 0x4 ADD PUSH2 0x572 SWAP1 PUSH2 0x4963 JUMP JUMPDEST POP DUP1 DUP3 SUB JUMPDEST SWAP3 SWAP2 POP POP JUMP JUMPDEST PUSH1 0x0 DUP1 DUP3 MLOAD GT PUSH2 0x2CEB JUMPI PUSH1 0x40 MLOAD PUSH32 0x8C379A000000000000000000000000000000000000000000000000000000000 DUP2 MSTORE PUSH1 0x4 ADD PUSH2 0x572 SWAP1 PUSH2 0x4CC2 JUMP JUMPDEST DUP2 PUSH1 0x1 DUP4 MLOAD SUB DUP2 MLOAD DUP2 LT PUSH2 0x2CFB JUMPI INVALID JUMPDEST ADD PUSH1 0x20 ADD MLOAD DUP3 MLOAD PUSH32 0xFFFFFFFFFFFFFFFFFFFFFFFFFFFFFFFFFFFFFFFFFFFFFFFFFFFFFFFFFFFFFFFF ADD SWAP1 SWAP3 MSTORE POP PUSH32 0xFF00000000000000000000000000000000000000000000000000000000000000 AND SWAP1 JUMP JUMPDEST PUSH1 0x0 DUP2 PUSH1 0x20 ADD DUP4 MLOAD LT ISZERO PUSH2 0x2D8D JUMPI PUSH1 0x40 MLOAD PUSH32 0x8C379A000000000000000000000000000000000000000000000000000000000 DUP2 MSTORE PUSH1 0x4 ADD PUSH2 0x572 SWAP1 PUSH2 0x49D1 JUMP JUMPDEST POP ADD PUSH1 0x20 ADD MLOAD SWAP1 JUMP JUMPDEST PUSH1 0x40 MLOAD PUSH1 0x0 SWAP1 PUSH1 0x60 SWAP1 PUSH32 0x1626BA7E00000000000000000000000000000000000000000000000000000000 SWAP1 PUSH2 0x2DD1 SWAP1 DUP8 SWAP1 DUP7 SWAP1 PUSH1 0x24 ADD PUSH2 0x482C JUMP JUMPDEST PUSH1 0x40 DUP1 MLOAD PUSH32 0xFFFFFFFFFFFFFFFFFFFFFFFFFFFFFFFFFFFFFFFFFFFFFFFFFFFFFFFFFFFFFFE0 DUP2 DUP5 SUB ADD DUP2 MSTORE SWAP2 SWAP1 MSTORE PUSH1 0x20 DUP1 DUP3 ADD DUP1 MLOAD PUSH28 0xFFFFFFFFFFFFFFFFFFFFFFFFFFFFFFFFFFFFFFFFFFFFFFFFFFFFFFFF AND PUSH32 0xFFFFFFFF00000000000000000000000000000000000000000000000000000000 SWAP1 SWAP5 AND SWAP4 SWAP1 SWAP4 OR DUP4 MSTORE DUP2 MLOAD SWAP2 SWAP4 POP SWAP1 DUP3 SWAP1 DUP2 DUP9 GAS STATICCALL DUP1 DUP1 ISZERO PUSH2 0x2E6E JUMPI PUSH1 0x1 DUP2 EQ PUSH2 0x2EDF JUMPI PUSH2 0x224B JUMP JUMPDEST PUSH32 0x8C379A000000000000000000000000000000000000000000000000000000000 PUSH1 0x0 MSTORE PUSH29 0x2000000000000000000000000000000000000000000000000000000000 PUSH1 0x20 MSTORE PUSH29 0xC57414C4C45545F4552524F5200000000000000000000000000000000 PUSH1 0x40 MSTORE PUSH1 0x0 PUSH1 0x60 MSTORE PUSH1 0x64 PUSH1 0x0 REVERT JUMPDEST POP POP MLOAD SWAP6 SWAP5 POP POP POP POP POP JUMP JUMPDEST PUSH1 0x0 PUSH1 0x14 DUP3 MLOAD LT ISZERO PUSH2 0x2F29 JUMPI PUSH1 0x40 MLOAD PUSH32 0x8C379A000000000000000000000000000000000000000000000000000000000 DUP2 MSTORE PUSH1 0x4 ADD PUSH2 0x572 SWAP1 PUSH2 0x4ED7 JUMP JUMPDEST PUSH2 0x2F37 DUP3 PUSH1 0x14 DUP5 MLOAD SUB PUSH2 0x3890 JUMP JUMPDEST DUP3 MLOAD PUSH32 0xFFFFFFFFFFFFFFFFFFFFFFFFFFFFFFFFFFFFFFFFFFFFFFFFFFFFFFFFFFFFFFEC ADD SWAP1 SWAP3 MSTORE POP SWAP1 JUMP JUMPDEST PUSH1 0x40 MLOAD PUSH1 0x0 SWAP1 PUSH1 0x60 SWAP1 PUSH32 0x9363470200000000000000000000000000000000000000000000000000000000 SWAP1 PUSH2 0x2F9F SWAP1 DUP8 SWAP1 DUP8 SWAP1 DUP8 SWAP1 PUSH1 0x24 ADD PUSH2 0x47EE JUMP JUMPDEST PUSH1 0x40 DUP1 MLOAD PUSH32 0xFFFFFFFFFFFFFFFFFFFFFFFFFFFFFFFFFFFFFFFFFFFFFFFFFFFFFFFFFFFFFFE0 DUP2 DUP5 SUB ADD DUP2 MSTORE SWAP2 SWAP1 MSTORE PUSH1 0x20 DUP1 DUP3 ADD DUP1 MLOAD PUSH28 0xFFFFFFFFFFFFFFFFFFFFFFFFFFFFFFFFFFFFFFFFFFFFFFFFFFFFFFFF AND PUSH32 0xFFFFFFFF00000000000000000000000000000000000000000000000000000000 SWAP1 SWAP5 AND SWAP4 SWAP1 SWAP4 OR DUP4 MSTORE DUP2 MLOAD SWAP2 SWAP4 POP SWAP1 DUP3 SWAP1 DUP2 DUP11 GAS STATICCALL DUP1 DUP1 ISZERO PUSH2 0x303C JUMPI PUSH1 0x1 DUP2 EQ PUSH2 0x30AD JUMPI PUSH2 0x30B2 JUMP JUMPDEST PUSH32 0x8C379A000000000000000000000000000000000000000000000000000000000 PUSH1 0x0 MSTORE PUSH29 0x2000000000000000000000000000000000000000000000000000000000 PUSH1 0x20 MSTORE PUSH29 0xF56414C494441544F525F4552524F5200000000000000000000000000 PUSH1 0x40 MSTORE PUSH1 0x0 PUSH1 0x60 MSTORE PUSH1 0x64 PUSH1 0x0 REVERT JUMPDEST DUP3 MLOAD SWAP5 POP JUMPDEST POP POP POP POP SWAP5 SWAP4 POP POP POP POP JUMP JUMPDEST PUSH1 0x0 DUP1 DUP4 GT PUSH2 0x30F9 JUMPI PUSH1 0x40 MLOAD PUSH32 0x8C379A000000000000000000000000000000000000000000000000000000000 DUP2 MSTORE PUSH1 0x4 ADD PUSH2 0x572 SWAP1 PUSH2 0x4A65 JUMP JUMPDEST PUSH2 0x310C PUSH2 0x3106 DUP6 DUP5 PUSH2 0x33AB JUMP JUMPDEST DUP5 PUSH2 0x38EF JUMP JUMPDEST SWAP5 SWAP4 POP POP POP POP JUMP JUMPDEST PUSH1 0x0 DUP1 PUSH1 0x40 MLOAD PUSH1 0x20 ADD PUSH2 0x3126 SWAP1 PUSH2 0x442E JUMP JUMPDEST PUSH1 0x40 DUP1 MLOAD PUSH32 0xFFFFFFFFFFFFFFFFFFFFFFFFFFFFFFFFFFFFFFFFFFFFFFFFFFFFFFFFFFFFFFE0 DUP2 DUP5 SUB ADD DUP2 MSTORE DUP3 DUP3 MSTORE DUP1 MLOAD PUSH1 0x20 SWAP2 DUP3 ADD KECCAK256 DUP7 MLOAD DUP8 DUP4 ADD KECCAK256 SWAP1 DUP5 MSTORE SWAP1 DUP4 ADD DUP9 SWAP1 MSTORE PUSH20 0xFFFFFFFFFFFFFFFFFFFFFFFFFFFFFFFFFFFFFFFF DUP8 AND SWAP2 DUP4 ADD SWAP2 SWAP1 SWAP2 MSTORE PUSH1 0x60 DUP3 ADD MSTORE PUSH1 0x80 SWAP1 KECCAK256 SWAP2 POP POP SWAP4 SWAP3 POP POP POP JUMP JUMPDEST PUSH1 0x2 DUP1 SLOAD PUSH1 0x40 MLOAD PUSH32 0x1901000000000000000000000000000000000000000000000000000000000000 DUP2 MSTORE SWAP2 DUP3 ADD MSTORE PUSH1 0x22 DUP2 ADD SWAP2 SWAP1 SWAP2 MSTORE PUSH1 0x42 SWAP1 KECCAK256 SWAP1 JUMP JUMPDEST PUSH1 0x0 PUSH2 0x2CA9 PUSH2 0x182C DUP4 PUSH2 0x3904 JUMP JUMPDEST PUSH1 0x0 DUP2 DUP4 LT PUSH2 0x31F6 JUMPI DUP2 PUSH2 0x930 JUMP JUMPDEST POP SWAP1 SWAP2 SWAP1 POP JUMP JUMPDEST PUSH2 0x3205 PUSH2 0x3ABC JUMP JUMPDEST PUSH1 0x20 DUP2 ADD DUP3 SWAP1 MSTORE PUSH1 0xA0 DUP4 ADD MLOAD PUSH1 0x80 DUP5 ADD MLOAD PUSH2 0x3221 SWAP2 DUP5 SWAP2 PUSH2 0x33FF JUMP JUMPDEST DUP1 DUP3 MSTORE PUSH1 0x80 DUP5 ADD MLOAD PUSH1 0xC0 DUP6 ADD MLOAD PUSH2 0x3239 SWAP3 SWAP2 SWAP1 PUSH2 0x33FF JUMP JUMPDEST PUSH1 0x40 DUP3 ADD MSTORE PUSH1 0xA0 DUP4 ADD MLOAD PUSH1 0xE0 DUP5 ADD MLOAD PUSH2 0x3253 SWAP2 DUP5 SWAP2 PUSH2 0x33FF JUMP JUMPDEST PUSH1 0x60 DUP3 ADD MSTORE SWAP3 SWAP2 POP POP JUMP JUMPDEST PUSH1 0x1 DUP1 SLOAD PUSH1 0x40 DUP1 MLOAD PUSH1 0x20 PUSH1 0x1F PUSH1 0x2 PUSH32 0xFFFFFFFFFFFFFFFFFFFFFFFFFFFFFFFFFFFFFFFFFFFFFFFFFFFFFFFFFFFFFFFF PUSH2 0x100 DUP8 DUP10 AND ISZERO MUL ADD SWAP1 SWAP6 AND SWAP5 SWAP1 SWAP5 DIV SWAP4 DUP5 ADD DUP2 SWAP1 DIV DUP2 MUL DUP3 ADD DUP2 ADD SWAP1 SWAP3 MSTORE DUP3 DUP2 MSTORE PUSH1 0x60 SWAP4 SWAP1 SWAP3 SWAP1 SWAP2 DUP4 ADD DUP3 DUP3 DUP1 ISZERO PUSH2 0x3307 JUMPI DUP1 PUSH1 0x1F LT PUSH2 0x32DC JUMPI PUSH2 0x100 DUP1 DUP4 SLOAD DIV MUL DUP4 MSTORE SWAP2 PUSH1 0x20 ADD SWAP2 PUSH2 0x3307 JUMP JUMPDEST DUP3 ADD SWAP2 SWAP1 PUSH1 0x0 MSTORE PUSH1 0x20 PUSH1 0x0 KECCAK256 SWAP1 JUMPDEST DUP2 SLOAD DUP2 MSTORE SWAP1 PUSH1 0x1 ADD SWAP1 PUSH1 0x20 ADD DUP1 DUP4 GT PUSH2 0x32EA JUMPI DUP3 SWAP1 SUB PUSH1 0x1F AND DUP3 ADD SWAP2 JUMPDEST POP POP POP POP POP SWAP1 POP PUSH2 0x3327 DUP5 PUSH2 0x140 ADD MLOAD DUP6 PUSH1 0x0 ADD MLOAD DUP6 DUP6 PUSH1 0x0 ADD MLOAD PUSH2 0x3519 JUMP JUMPDEST PUSH2 0x3340 DUP5 PUSH2 0x160 ADD MLOAD DUP5 DUP7 PUSH1 0x0 ADD MLOAD DUP6 PUSH1 0x20 ADD MLOAD PUSH2 0x3519 JUMP JUMPDEST PUSH2 0x3358 DUP2 DUP6 PUSH1 0x0 ADD MLOAD DUP7 PUSH1 0x40 ADD MLOAD DUP6 PUSH1 0x40 ADD MLOAD PUSH2 0x3519 JUMP JUMPDEST PUSH2 0x2476 DUP2 DUP5 DUP7 PUSH1 0x40 ADD MLOAD DUP6 PUSH1 0x60 ADD MLOAD PUSH2 0x3519 JUMP JUMPDEST PUSH1 0x0 DUP3 DUP3 ADD DUP4 DUP2 LT ISZERO PUSH2 0x930 JUMPI PUSH1 0x40 MLOAD PUSH32 0x8C379A000000000000000000000000000000000000000000000000000000000 DUP2 MSTORE PUSH1 0x4 ADD PUSH2 0x572 SWAP1 PUSH2 0x4B0A JUMP JUMPDEST PUSH1 0x0 DUP3 PUSH2 0x33BA JUMPI POP PUSH1 0x0 PUSH2 0x2CA9 JUMP JUMPDEST DUP3 DUP3 MUL DUP3 DUP5 DUP3 DUP2 PUSH2 0x33C7 JUMPI INVALID JUMPDEST DIV EQ PUSH2 0x930 JUMPI PUSH1 0x40 MLOAD PUSH32 0x8C379A000000000000000000000000000000000000000000000000000000000 DUP2 MSTORE PUSH1 0x4 ADD PUSH2 0x572 SWAP1 PUSH2 0x4B0A JUMP JUMPDEST PUSH1 0x0 DUP1 DUP4 GT PUSH2 0x343A JUMPI PUSH1 0x40 MLOAD PUSH32 0x8C379A000000000000000000000000000000000000000000000000000000000 DUP2 MSTORE PUSH1 0x4 ADD PUSH2 0x572 SWAP1 PUSH2 0x4A65 JUMP JUMPDEST PUSH2 0x3445 DUP5 DUP5 DUP5 PUSH2 0x39B8 JUMP JUMPDEST ISZERO PUSH2 0x30F9 JUMPI PUSH1 0x40 MLOAD PUSH32 0x8C379A000000000000000000000000000000000000000000000000000000000 DUP2 MSTORE PUSH1 0x4 ADD PUSH2 0x572 SWAP1 PUSH2 0x4BAF JUMP JUMPDEST PUSH1 0x0 DUP1 DUP4 GT PUSH2 0x34B7 JUMPI PUSH1 0x40 MLOAD PUSH32 0x8C379A000000000000000000000000000000000000000000000000000000000 DUP2 MSTORE PUSH1 0x4 ADD PUSH2 0x572 SWAP1 PUSH2 0x4A65 JUMP JUMPDEST PUSH2 0x34C2 DUP5 DUP5 DUP5 PUSH2 0x3A3B JUMP JUMPDEST ISZERO PUSH2 0x34F9 JUMPI PUSH1 0x40 MLOAD PUSH32 0x8C379A000000000000000000000000000000000000000000000000000000000 DUP2 MSTORE PUSH1 0x4 ADD PUSH2 0x572 SWAP1 PUSH2 0x4BAF JUMP JUMPDEST PUSH2 0x310C PUSH2 0x3106 PUSH2 0x3509 DUP7 DUP6 PUSH2 0x33AB JUMP JUMPDEST PUSH2 0x3514 DUP7 PUSH1 0x1 PUSH2 0x2C68 JUMP JUMPDEST PUSH2 0x336C JUMP JUMPDEST PUSH1 0x0 DUP2 GT DUP1 ISZERO PUSH2 0x3555 JUMPI POP DUP2 PUSH20 0xFFFFFFFFFFFFFFFFFFFFFFFFFFFFFFFFFFFFFFFF AND DUP4 PUSH20 0xFFFFFFFFFFFFFFFFFFFFFFFFFFFFFFFFFFFFFFFF AND EQ ISZERO JUMPDEST ISZERO PUSH2 0x2476 JUMPI PUSH1 0x3 DUP5 MLOAD GT PUSH2 0x3595 JUMPI PUSH1 0x40 MLOAD PUSH32 0x8C379A000000000000000000000000000000000000000000000000000000000 DUP2 MSTORE PUSH1 0x4 ADD PUSH2 0x572 SWAP1 PUSH2 0x4DC4 JUMP JUMPDEST PUSH1 0x20 DUP5 DUP2 ADD MLOAD PUSH32 0xFFFFFFFF00000000000000000000000000000000000000000000000000000000 AND PUSH1 0x0 DUP2 DUP2 MSTORE PUSH1 0xB SWAP1 SWAP3 MSTORE PUSH1 0x40 SWAP1 SWAP2 KECCAK256 SLOAD PUSH20 0xFFFFFFFFFFFFFFFFFFFFFFFFFFFFFFFFFFFFFFFF AND DUP1 PUSH2 0x361A JUMPI PUSH1 0x40 MLOAD PUSH32 0x8C379A000000000000000000000000000000000000000000000000000000000 DUP2 MSTORE PUSH1 0x4 ADD PUSH2 0x572 SWAP1 PUSH2 0x4C8B JUMP JUMPDEST PUSH1 0x40 MLOAD DUP7 MLOAD PUSH32 0xA85E59E400000000000000000000000000000000000000000000000000000000 DUP3 MSTORE PUSH1 0x80 PUSH1 0x4 DUP4 ADD MSTORE PUSH20 0xFFFFFFFFFFFFFFFFFFFFFFFFFFFFFFFFFFFFFFFF DUP8 DUP2 AND PUSH1 0x24 DUP5 ADD MSTORE DUP7 AND PUSH1 0x44 DUP4 ADD MSTORE PUSH1 0x64 DUP3 ADD DUP6 SWAP1 MSTORE PUSH1 0x84 DUP1 DUP4 ADD SWAP2 PUSH1 0x3F ADD PUSH7 0xFFFFFFFFFFFE0 AND DUP4 ADD ADD JUMPDEST DUP1 DUP3 LT ISZERO PUSH2 0x36A5 JUMPI DUP9 MLOAD DUP3 MSTORE PUSH1 0x20 SWAP9 DUP10 ADD SWAP9 SWAP1 SWAP2 ADD SWAP1 PUSH2 0x368A JUMP JUMPDEST PUSH2 0x200 DUP4 DUP5 DUP4 SUB DUP6 PUSH1 0x0 DUP9 GAS CALL SWAP2 POP POP DUP1 PUSH2 0x1A5B JUMPI RETURNDATASIZE DUP3 REVERT JUMPDEST DUP1 MLOAD PUSH1 0xFF AND PUSH1 0x3 EQ PUSH2 0x36FC JUMPI PUSH1 0x40 MLOAD PUSH32 0x8C379A000000000000000000000000000000000000000000000000000000000 DUP2 MSTORE PUSH1 0x4 ADD PUSH2 0x572 SWAP1 PUSH2 0x4F34 JUMP JUMPDEST PUSH1 0x60 DUP3 ADD MLOAD PUSH20 0xFFFFFFFFFFFFFFFFFFFFFFFFFFFFFFFFFFFFFFFF AND ISZERO PUSH2 0x376F JUMPI PUSH1 0x60 DUP3 ADD MLOAD PUSH20 0xFFFFFFFFFFFFFFFFFFFFFFFFFFFFFFFFFFFFFFFF AND CALLER EQ PUSH2 0x376F JUMPI PUSH1 0x40 MLOAD PUSH32 0x8C379A000000000000000000000000000000000000000000000000000000000 DUP2 MSTORE PUSH1 0x4 ADD PUSH2 0x572 SWAP1 PUSH2 0x4F6B JUMP JUMPDEST PUSH1 0x0 PUSH2 0x3779 PUSH2 0x22B8 JUMP JUMPDEST SWAP1 POP DUP1 PUSH20 0xFFFFFFFFFFFFFFFFFFFFFFFFFFFFFFFFFFFFFFFF AND DUP4 PUSH1 0x0 ADD MLOAD PUSH20 0xFFFFFFFFFFFFFFFFFFFFFFFFFFFFFFFFFFFFFFFF AND EQ PUSH2 0x37E4 JUMPI PUSH1 0x40 MLOAD PUSH32 0x8C379A000000000000000000000000000000000000000000000000000000000 DUP2 MSTORE PUSH1 0x4 ADD PUSH2 0x572 SWAP1 PUSH2 0x4AD3 JUMP JUMPDEST POP POP POP JUMP JUMPDEST PUSH1 0x0 DUP2 DUP2 MSTORE PUSH1 0x5 PUSH1 0x20 MSTORE PUSH1 0x40 SWAP1 DUP2 SWAP1 KECCAK256 DUP1 SLOAD PUSH32 0xFFFFFFFFFFFFFFFFFFFFFFFFFFFFFFFFFFFFFFFFFFFFFFFFFFFFFFFFFFFFFF00 AND PUSH1 0x1 OR SWAP1 SSTORE DUP3 DUP2 ADD MLOAD DUP4 MLOAD PUSH2 0x140 DUP6 ADD MLOAD PUSH2 0x160 DUP7 ADD MLOAD SWAP4 MLOAD DUP6 SWAP5 PUSH20 0xFFFFFFFFFFFFFFFFFFFFFFFFFFFFFFFFFFFFFFFF SWAP5 DUP6 AND SWAP5 SWAP4 SWAP1 SWAP4 AND SWAP3 PUSH32 0xDC47B3613D9FE400085F6DBDC99453462279057E6207385042827ED6B1A62CF7 SWAP3 PUSH2 0x3884 SWAP3 CALLER SWAP3 SWAP1 PUSH2 0x46CD JUMP JUMPDEST PUSH1 0x40 MLOAD DUP1 SWAP2 SUB SWAP1 LOG4 POP POP JUMP JUMPDEST PUSH1 0x0 DUP2 PUSH1 0x14 ADD DUP4 MLOAD LT ISZERO PUSH2 0x38D0 JUMPI PUSH1 0x40 MLOAD PUSH32 0x8C379A000000000000000000000000000000000000000000000000000000000 DUP2 MSTORE PUSH1 0x4 ADD PUSH2 0x572 SWAP1 PUSH2 0x4ED7 JUMP JUMPDEST POP ADD PUSH1 0x14 ADD MLOAD PUSH20 0xFFFFFFFFFFFFFFFFFFFFFFFFFFFFFFFFFFFFFFFF AND SWAP1 JUMP JUMPDEST PUSH1 0x0 DUP1 DUP3 DUP5 DUP2 PUSH2 0x38FB JUMPI INVALID JUMPDEST DIV SWAP5 SWAP4 POP POP POP POP JUMP JUMPDEST PUSH1 0x0 DUP1 PUSH1 0x40 MLOAD PUSH1 0x20 ADD PUSH2 0x3916 SWAP1 PUSH2 0x44EF JUMP JUMPDEST PUSH1 0x40 MLOAD PUSH1 0x20 DUP2 DUP4 SUB SUB DUP2 MSTORE SWAP1 PUSH1 0x40 MSTORE DUP1 MLOAD SWAP1 PUSH1 0x20 ADD KECCAK256 SWAP1 POP PUSH1 0x0 DUP4 PUSH2 0x140 ADD MLOAD PUSH1 0x40 MLOAD PUSH2 0x3943 SWAP2 SWAP1 PUSH2 0x43E1 JUMP JUMPDEST PUSH1 0x40 MLOAD DUP1 SWAP2 SUB SWAP1 KECCAK256 SWAP1 POP PUSH1 0x0 DUP5 PUSH2 0x160 ADD MLOAD PUSH1 0x40 MLOAD PUSH2 0x3962 SWAP2 SWAP1 PUSH2 0x43E1 JUMP JUMPDEST PUSH1 0x40 MLOAD SWAP1 DUP2 SWAP1 SUB SWAP1 KECCAK256 PUSH32 0xFFFFFFFFFFFFFFFFFFFFFFFFFFFFFFFFFFFFFFFFFFFFFFFFFFFFFFFFFFFFFFE0 DUP7 ADD DUP1 MLOAD PUSH2 0x140 DUP9 ADD DUP1 MLOAD PUSH2 0x160 SWAP1 SWAP10 ADD DUP1 MLOAD SWAP8 DUP5 MSTORE SWAP6 DUP2 MSTORE SWAP3 DUP6 MSTORE PUSH2 0x1A0 DUP3 KECCAK256 SWAP2 MSTORE SWAP6 SWAP1 MSTORE POP MSTORE POP SWAP1 JUMP JUMPDEST PUSH1 0x0 DUP1 DUP4 GT PUSH2 0x39F3 JUMPI PUSH1 0x40 MLOAD PUSH32 0x8C379A000000000000000000000000000000000000000000000000000000000 DUP2 MSTORE PUSH1 0x4 ADD PUSH2 0x572 SWAP1 PUSH2 0x4A65 JUMP JUMPDEST DUP2 ISZERO DUP1 PUSH2 0x39FE JUMPI POP DUP4 ISZERO JUMPDEST ISZERO PUSH2 0x3A0B JUMPI POP PUSH1 0x0 PUSH2 0x930 JUMP JUMPDEST PUSH1 0x0 DUP4 DUP1 PUSH2 0x3A15 JUMPI INVALID JUMPDEST DUP6 DUP5 MULMOD SWAP1 POP PUSH2 0x3A24 DUP6 DUP5 PUSH2 0x33AB JUMP JUMPDEST PUSH2 0x3A30 PUSH2 0x3E8 DUP4 PUSH2 0x33AB JUMP JUMPDEST LT ISZERO SWAP6 SWAP5 POP POP POP POP POP JUMP JUMPDEST PUSH1 0x0 DUP1 DUP4 GT PUSH2 0x3A76 JUMPI PUSH1 0x40 MLOAD PUSH32 0x8C379A000000000000000000000000000000000000000000000000000000000 DUP2 MSTORE PUSH1 0x4 ADD PUSH2 0x572 SWAP1 PUSH2 0x4A65 JUMP JUMPDEST DUP2 ISZERO DUP1 PUSH2 0x3A81 JUMPI POP DUP4 ISZERO JUMPDEST ISZERO PUSH2 0x3A8E JUMPI POP PUSH1 0x0 PUSH2 0x930 JUMP JUMPDEST PUSH1 0x0 DUP4 DUP1 PUSH2 0x3A98 JUMPI INVALID JUMPDEST DUP6 DUP5 MULMOD SWAP1 POP DUP4 PUSH2 0x3AA8 DUP6 DUP4 PUSH2 0x2C68 JUMP JUMPDEST DUP2 PUSH2 0x3AAF JUMPI INVALID JUMPDEST MOD SWAP1 POP PUSH2 0x3A24 DUP6 DUP5 PUSH2 0x33AB JUMP JUMPDEST PUSH1 0x40 MLOAD DUP1 PUSH1 0x80 ADD PUSH1 0x40 MSTORE DUP1 PUSH1 0x0 DUP2 MSTORE PUSH1 0x20 ADD PUSH1 0x0 DUP2 MSTORE PUSH1 0x20 ADD PUSH1 0x0 DUP2 MSTORE PUSH1 0x20 ADD PUSH1 0x0 DUP2 MSTORE POP SWAP1 JUMP JUMPDEST PUSH1 0x40 MLOAD DUP1 PUSH2 0x120 ADD PUSH1 0x40 MSTORE DUP1 PUSH2 0x3AF8 PUSH2 0x3ABC JUMP JUMPDEST DUP2 MSTORE PUSH1 0x20 ADD PUSH2 0x3B05 PUSH2 0x3ABC JUMP JUMPDEST DUP2 MSTORE PUSH1 0x20 ADD PUSH1 0x0 DUP2 MSTORE POP SWAP1 JUMP JUMPDEST PUSH1 0x40 DUP1 MLOAD PUSH1 0x60 DUP2 ADD DUP3 MSTORE PUSH1 0x0 DUP1 DUP3 MSTORE PUSH1 0x20 DUP3 ADD DUP2 SWAP1 MSTORE SWAP2 DUP2 ADD SWAP2 SWAP1 SWAP2 MSTORE SWAP1 JUMP JUMPDEST DUP1 CALLDATALOAD PUSH20 0xFFFFFFFFFFFFFFFFFFFFFFFFFFFFFFFFFFFFFFFF DUP2 AND DUP2 EQ PUSH2 0x2CA9 JUMPI PUSH1 0x0 DUP1 REVERT JUMPDEST PUSH1 0x0 DUP3 PUSH1 0x1F DUP4 ADD SLT PUSH2 0x3B66 JUMPI DUP1 DUP2 REVERT JUMPDEST DUP2 CALLDATALOAD PUSH2 0x3B79 PUSH2 0x3B74 DUP3 PUSH2 0x50C2 JUMP JUMPDEST PUSH2 0x509B JUMP JUMPDEST DUP2 DUP2 MSTORE SWAP2 POP PUSH1 0x20 DUP1 DUP4 ADD SWAP1 DUP5 ADD PUSH1 0x0 JUMPDEST DUP4 DUP2 LT ISZERO PUSH2 0x3BB6 JUMPI PUSH2 0x3BA1 DUP8 PUSH1 0x20 DUP5 CALLDATALOAD DUP10 ADD ADD PUSH2 0x3C64 JUMP JUMPDEST DUP4 MSTORE PUSH1 0x20 SWAP3 DUP4 ADD SWAP3 SWAP2 SWAP1 SWAP2 ADD SWAP1 PUSH1 0x1 ADD PUSH2 0x3B89 JUMP JUMPDEST POP POP POP POP SWAP3 SWAP2 POP POP JUMP JUMPDEST PUSH1 0x0 DUP3 PUSH1 0x1F DUP4 ADD SLT PUSH2 0x3BD0 JUMPI DUP1 DUP2 REVERT JUMPDEST DUP2 CALLDATALOAD PUSH2 0x3BDE PUSH2 0x3B74 DUP3 PUSH2 0x50C2 JUMP JUMPDEST DUP2 DUP2 MSTORE SWAP2 POP PUSH1 0x20 DUP1 DUP4 ADD SWAP1 DUP5 ADD PUSH1 0x0 JUMPDEST DUP4 DUP2 LT ISZERO PUSH2 0x3BB6 JUMPI PUSH2 0x3C06 DUP8 PUSH1 0x20 DUP5 CALLDATALOAD DUP10 ADD ADD PUSH2 0x3CEB JUMP JUMPDEST DUP4 MSTORE PUSH1 0x20 SWAP3 DUP4 ADD SWAP3 SWAP2 SWAP1 SWAP2 ADD SWAP1 PUSH1 0x1 ADD PUSH2 0x3BEE JUMP JUMPDEST PUSH1 0x0 DUP1 DUP4 PUSH1 0x1F DUP5 ADD SLT PUSH2 0x3C2D JUMPI PUSH1 0x0 DUP1 REVERT JUMPDEST POP DUP2 CALLDATALOAD PUSH8 0xFFFFFFFFFFFFFFFF DUP2 GT ISZERO PUSH2 0x3C45 JUMPI PUSH1 0x0 DUP1 REVERT JUMPDEST PUSH1 0x20 DUP4 ADD SWAP2 POP DUP4 PUSH1 0x20 DUP3 DUP6 ADD ADD GT ISZERO PUSH2 0x3C5D JUMPI PUSH1 0x0 DUP1 REVERT JUMPDEST SWAP3 POP SWAP3 SWAP1 POP JUMP JUMPDEST PUSH1 0x0 DUP3 PUSH1 0x1F DUP4 ADD SLT PUSH2 0x3C74 JUMPI DUP1 DUP2 REVERT JUMPDEST DUP2 CALLDATALOAD PUSH8 0xFFFFFFFFFFFFFFFF DUP2 GT ISZERO PUSH2 0x3C8A JUMPI DUP2 DUP3 REVERT JUMPDEST PUSH2 0x3CBB PUSH1 0x20 PUSH32 0xFFFFFFFFFFFFFFFFFFFFFFFFFFFFFFFFFFFFFFFFFFFFFFFFFFFFFFFFFFFFFFE0 PUSH1 0x1F DUP5 ADD AND ADD PUSH2 0x509B JUMP JUMPDEST SWAP2 POP DUP1 DUP3 MSTORE DUP4 PUSH1 0x20 DUP3 DUP6 ADD ADD GT ISZERO PUSH2 0x3CD2 JUMPI PUSH1 0x0 DUP1 REVERT JUMPDEST DUP1 PUSH1 0x20 DUP5 ADD PUSH1 0x20 DUP5 ADD CALLDATACOPY PUSH1 0x0 SWAP1 DUP3 ADD PUSH1 0x20 ADD MSTORE SWAP3 SWAP2 POP POP JUMP JUMPDEST PUSH1 0x0 PUSH2 0x180 DUP1 DUP4 DUP6 SUB SLT ISZERO PUSH2 0x3CFE JUMPI DUP2 DUP3 REVERT JUMPDEST PUSH2 0x3D07 DUP2 PUSH2 0x509B JUMP JUMPDEST SWAP2 POP POP PUSH2 0x3D14 DUP4 DUP4 PUSH2 0x3B32 JUMP JUMPDEST DUP2 MSTORE PUSH2 0x3D23 DUP4 PUSH1 0x20 DUP5 ADD PUSH2 0x3B32 JUMP JUMPDEST PUSH1 0x20 DUP3 ADD MSTORE PUSH2 0x3D35 DUP4 PUSH1 0x40 DUP5 ADD PUSH2 0x3B32 JUMP JUMPDEST PUSH1 0x40 DUP3 ADD MSTORE PUSH2 0x3D47 DUP4 PUSH1 0x60 DUP5 ADD PUSH2 0x3B32 JUMP JUMPDEST PUSH1 0x60 DUP3 ADD MSTORE PUSH1 0x80 DUP3 ADD CALLDATALOAD PUSH1 0x80 DUP3 ADD MSTORE PUSH1 0xA0 DUP3 ADD CALLDATALOAD PUSH1 0xA0 DUP3 ADD MSTORE PUSH1 0xC0 DUP3 ADD CALLDATALOAD PUSH1 0xC0 DUP3 ADD MSTORE PUSH1 0xE0 DUP3 ADD CALLDATALOAD PUSH1 0xE0 DUP3 ADD MSTORE PUSH2 0x100 DUP1 DUP4 ADD CALLDATALOAD DUP2 DUP4 ADD MSTORE POP PUSH2 0x120 DUP1 DUP4 ADD CALLDATALOAD DUP2 DUP4 ADD MSTORE POP PUSH2 0x140 DUP1 DUP4 ADD CALLDATALOAD PUSH8 0xFFFFFFFFFFFFFFFF DUP1 DUP3 GT ISZERO PUSH2 0x3DA9 JUMPI PUSH1 0x0 DUP1 REVERT JUMPDEST PUSH2 0x3DB5 DUP7 DUP4 DUP8 ADD PUSH2 0x3C64 JUMP JUMPDEST DUP4 DUP6 ADD MSTORE PUSH2 0x160 SWAP3 POP DUP3 DUP6 ADD CALLDATALOAD SWAP2 POP DUP1 DUP3 GT ISZERO PUSH2 0x3DD1 JUMPI PUSH1 0x0 DUP1 REVERT JUMPDEST POP PUSH2 0x3DDE DUP6 DUP3 DUP7 ADD PUSH2 0x3C64 JUMP JUMPDEST DUP3 DUP5 ADD MSTORE POP POP SWAP3 SWAP2 POP POP JUMP JUMPDEST PUSH1 0x0 PUSH1 0x20 DUP3 DUP5 SUB SLT ISZERO PUSH2 0x3DFC JUMPI PUSH1 0x0 DUP1 REVERT JUMPDEST PUSH2 0x930 DUP4 DUP4 PUSH2 0x3B32 JUMP JUMPDEST PUSH1 0x0 DUP1 PUSH1 0x40 DUP4 DUP6 SUB SLT ISZERO PUSH2 0x3E19 JUMPI PUSH1 0x0 DUP1 REVERT JUMPDEST PUSH2 0x3E23 DUP5 DUP5 PUSH2 0x3B32 JUMP JUMPDEST SWAP2 POP PUSH2 0x3E32 DUP5 PUSH1 0x20 DUP6 ADD PUSH2 0x3B32 JUMP JUMPDEST SWAP1 POP SWAP3 POP SWAP3 SWAP1 POP JUMP JUMPDEST PUSH1 0x0 DUP1 PUSH1 0x40 DUP4 DUP6 SUB SLT ISZERO PUSH2 0x3E4E JUMPI PUSH1 0x0 DUP1 REVERT JUMPDEST PUSH2 0x3E58 DUP5 DUP5 PUSH2 0x3B32 JUMP JUMPDEST SWAP2 POP PUSH1 0x20 DUP4 ADD CALLDATALOAD DUP1 ISZERO ISZERO DUP2 EQ PUSH2 0x3E6D JUMPI PUSH1 0x0 DUP1 REVERT JUMPDEST DUP1 SWAP2 POP POP SWAP3 POP SWAP3 SWAP1 POP JUMP JUMPDEST PUSH1 0x0 PUSH1 0x20 DUP3 DUP5 SUB SLT ISZERO PUSH2 0x3E8A JUMPI PUSH1 0x0 DUP1 REVERT JUMPDEST DUP2 CALLDATALOAD PUSH8 0xFFFFFFFFFFFFFFFF DUP2 GT ISZERO PUSH2 0x3EA1 JUMPI PUSH1 0x0 DUP1 REVERT JUMPDEST PUSH2 0x310C DUP5 DUP3 DUP6 ADD PUSH2 0x3BC0 JUMP JUMPDEST PUSH1 0x0 DUP1 PUSH1 0x0 PUSH1 0x60 DUP5 DUP7 SUB SLT ISZERO PUSH2 0x3EC1 JUMPI DUP1 DUP2 REVERT JUMPDEST DUP4 CALLDATALOAD PUSH8 0xFFFFFFFFFFFFFFFF DUP1 DUP3 GT ISZERO PUSH2 0x3ED8 JUMPI DUP3 DUP4 REVERT JUMPDEST PUSH2 0x3EE4 DUP8 DUP4 DUP9 ADD PUSH2 0x3BC0 JUMP JUMPDEST SWAP5 POP PUSH1 0x20 SWAP2 POP DUP2 DUP7 ADD CALLDATALOAD DUP2 DUP2 GT ISZERO PUSH2 0x3EFA JUMPI DUP4 DUP5 REVERT JUMPDEST DUP1 DUP8 ADD DUP9 PUSH1 0x1F DUP3 ADD SLT PUSH2 0x3F0B JUMPI DUP5 DUP6 REVERT JUMPDEST DUP1 CALLDATALOAD SWAP2 POP PUSH2 0x3F1B PUSH2 0x3B74 DUP4 PUSH2 0x50C2 JUMP JUMPDEST DUP3 DUP2 MSTORE DUP5 DUP2 ADD SWAP1 DUP3 DUP7 ADD DUP7 DUP6 MUL DUP5 ADD DUP8 ADD DUP13 LT ISZERO PUSH2 0x3F37 JUMPI DUP8 DUP9 REVERT JUMPDEST DUP8 SWAP4 POP JUMPDEST DUP5 DUP5 LT ISZERO PUSH2 0x3F59 JUMPI DUP1 CALLDATALOAD DUP4 MSTORE PUSH1 0x1 SWAP4 SWAP1 SWAP4 ADD SWAP3 SWAP2 DUP7 ADD SWAP2 DUP7 ADD PUSH2 0x3F3B JUMP JUMPDEST POP SWAP7 POP POP POP POP PUSH1 0x40 DUP7 ADD CALLDATALOAD SWAP2 POP DUP1 DUP3 GT ISZERO PUSH2 0x3F72 JUMPI DUP3 DUP4 REVERT JUMPDEST POP PUSH2 0x3F7F DUP7 DUP3 DUP8 ADD PUSH2 0x3B56 JUMP JUMPDEST SWAP2 POP POP SWAP3 POP SWAP3 POP SWAP3 JUMP JUMPDEST PUSH1 0x0 DUP1 PUSH1 0x0 PUSH1 0x60 DUP5 DUP7 SUB SLT ISZERO PUSH2 0x3F9D JUMPI DUP1 DUP2 REVERT JUMPDEST DUP4 CALLDATALOAD PUSH8 0xFFFFFFFFFFFFFFFF DUP1 DUP3 GT ISZERO PUSH2 0x3FB4 JUMPI DUP3 DUP4 REVERT JUMPDEST PUSH2 0x3FC0 DUP8 DUP4 DUP9 ADD PUSH2 0x3BC0 JUMP JUMPDEST SWAP5 POP PUSH1 0x20 DUP7 ADD CALLDATALOAD SWAP4 POP PUSH1 0x40 DUP7 ADD CALLDATALOAD SWAP2 POP DUP1 DUP3 GT ISZERO PUSH2 0x3F72 JUMPI DUP3 DUP4 REVERT JUMPDEST PUSH1 0x0 PUSH1 0x20 DUP3 DUP5 SUB SLT ISZERO PUSH2 0x3FEE JUMPI PUSH1 0x0 DUP1 REVERT JUMPDEST POP CALLDATALOAD SWAP2 SWAP1 POP JUMP JUMPDEST PUSH1 0x0 DUP1 PUSH1 0x40 DUP4 DUP6 SUB SLT ISZERO PUSH2 0x4008 JUMPI PUSH1 0x0 DUP1 REVERT JUMPDEST DUP3 CALLDATALOAD SWAP2 POP PUSH1 0x20 DUP4 ADD CALLDATALOAD PUSH2 0x3E6D DUP2 PUSH2 0x510F JUMP JUMPDEST PUSH1 0x0 DUP1 PUSH1 0x0 DUP1 PUSH1 0x60 DUP6 DUP8 SUB SLT ISZERO PUSH2 0x4030 JUMPI PUSH1 0x0 DUP1 REVERT JUMPDEST DUP5 CALLDATALOAD SWAP4 POP PUSH2 0x4041 DUP7 PUSH1 0x20 DUP8 ADD PUSH2 0x3B32 JUMP JUMPDEST SWAP3 POP PUSH1 0x40 DUP6 ADD CALLDATALOAD PUSH8 0xFFFFFFFFFFFFFFFF DUP2 GT ISZERO PUSH2 0x405D JUMPI PUSH1 0x0 DUP1 REVERT JUMPDEST PUSH2 0x4069 DUP8 DUP3 DUP9 ADD PUSH2 0x3C1B JUMP JUMPDEST SWAP6 SWAP9 SWAP5 SWAP8 POP SWAP6 POP POP POP POP JUMP JUMPDEST PUSH1 0x0 DUP1 PUSH1 0x0 PUSH1 0x60 DUP5 DUP7 SUB SLT ISZERO PUSH2 0x408A JUMPI PUSH1 0x0 DUP1 REVERT JUMPDEST DUP4 CALLDATALOAD SWAP3 POP PUSH1 0x20 DUP5 ADD CALLDATALOAD PUSH2 0x409C DUP2 PUSH2 0x510F JUMP JUMPDEST SWAP2 POP PUSH1 0x40 DUP5 ADD CALLDATALOAD PUSH8 0xFFFFFFFFFFFFFFFF DUP2 GT ISZERO PUSH2 0x40B8 JUMPI PUSH1 0x0 DUP1 REVERT JUMPDEST PUSH2 0x3F7F DUP7 DUP3 DUP8 ADD PUSH2 0x3C64 JUMP JUMPDEST PUSH1 0x0 PUSH1 0x20 DUP3 DUP5 SUB SLT ISZERO PUSH2 0x40D6 JUMPI PUSH1 0x0 DUP1 REVERT JUMPDEST DUP2 CALLDATALOAD PUSH2 0x930 DUP2 PUSH2 0x5131 JUMP JUMPDEST PUSH1 0x0 PUSH1 0x20 DUP3 DUP5 SUB SLT ISZERO PUSH2 0x40F3 JUMPI PUSH1 0x0 DUP1 REVERT JUMPDEST DUP2 MLOAD PUSH2 0x930 DUP2 PUSH2 0x5131 JUMP JUMPDEST PUSH1 0x0 PUSH1 0x20 DUP3 DUP5 SUB SLT ISZERO PUSH2 0x4110 JUMPI PUSH1 0x0 DUP1 REVERT JUMPDEST DUP2 CALLDATALOAD PUSH8 0xFFFFFFFFFFFFFFFF DUP2 GT ISZERO PUSH2 0x4127 JUMPI PUSH1 0x0 DUP1 REVERT JUMPDEST PUSH2 0x310C DUP5 DUP3 DUP6 ADD PUSH2 0x3CEB JUMP JUMPDEST PUSH1 0x0 DUP1 PUSH1 0x0 DUP1 PUSH1 0x80 DUP6 DUP8 SUB SLT ISZERO PUSH2 0x4148 JUMPI DUP2 DUP3 REVERT JUMPDEST DUP5 CALLDATALOAD PUSH8 0xFFFFFFFFFFFFFFFF DUP1 DUP3 GT ISZERO PUSH2 0x415F JUMPI DUP4 DUP5 REVERT JUMPDEST PUSH2 0x416B DUP9 DUP4 DUP10 ADD PUSH2 0x3CEB JUMP JUMPDEST SWAP6 POP PUSH1 0x20 DUP8 ADD CALLDATALOAD SWAP2 POP DUP1 DUP3 GT ISZERO PUSH2 0x4180 JUMPI DUP4 DUP5 REVERT JUMPDEST PUSH2 0x418C DUP9 DUP4 DUP10 ADD PUSH2 0x3CEB JUMP JUMPDEST SWAP5 POP PUSH1 0x40 DUP8 ADD CALLDATALOAD SWAP2 POP DUP1 DUP3 GT ISZERO PUSH2 0x41A1 JUMPI DUP4 DUP5 REVERT JUMPDEST PUSH2 0x41AD DUP9 DUP4 DUP10 ADD PUSH2 0x3C64 JUMP JUMPDEST SWAP4 POP PUSH1 0x60 DUP8 ADD CALLDATALOAD SWAP2 POP DUP1 DUP3 GT ISZERO PUSH2 0x41C3 JUMPI PUSH1 0x0 DUP1 REVERT JUMPDEST POP PUSH2 0x41D0 DUP8 DUP3 DUP9 ADD PUSH2 0x3C64 JUMP JUMPDEST SWAP2 POP POP SWAP3 SWAP6 SWAP2 SWAP5 POP SWAP3 POP JUMP JUMPDEST PUSH1 0x0 DUP1 PUSH1 0x0 PUSH1 0x60 DUP5 DUP7 SUB SLT ISZERO PUSH2 0x41F0 JUMPI DUP1 DUP2 REVERT JUMPDEST DUP4 CALLDATALOAD PUSH8 0xFFFFFFFFFFFFFFFF DUP1 DUP3 GT ISZERO PUSH2 0x4207 JUMPI DUP3 DUP4 REVERT JUMPDEST PUSH2 0x4213 DUP8 DUP4 DUP9 ADD PUSH2 0x3CEB JUMP JUMPDEST SWAP5 POP PUSH1 0x20 DUP7 ADD CALLDATALOAD SWAP4 POP PUSH1 0x40 DUP7 ADD CALLDATALOAD SWAP2 POP DUP1 DUP3 GT ISZERO PUSH2 0x422F JUMPI DUP3 DUP4 REVERT JUMPDEST POP PUSH2 0x3F7F DUP7 DUP3 DUP8 ADD PUSH2 0x3C64 JUMP JUMPDEST PUSH1 0x0 DUP1 PUSH1 0x0 DUP1 PUSH1 0x0 DUP1 PUSH1 0x80 DUP8 DUP10 SUB SLT ISZERO PUSH2 0x4255 JUMPI PUSH1 0x0 DUP1 REVERT JUMPDEST DUP7 CALLDATALOAD SWAP6 POP PUSH2 0x4266 DUP9 PUSH1 0x20 DUP10 ADD PUSH2 0x3B32 JUMP JUMPDEST SWAP5 POP PUSH1 0x40 DUP8 ADD CALLDATALOAD PUSH8 0xFFFFFFFFFFFFFFFF DUP1 DUP3 GT ISZERO PUSH2 0x4283 JUMPI PUSH1 0x0 DUP1 REVERT JUMPDEST PUSH2 0x428F DUP11 DUP4 DUP12 ADD PUSH2 0x3C1B JUMP JUMPDEST SWAP1 SWAP7 POP SWAP5 POP PUSH1 0x60 DUP10 ADD CALLDATALOAD SWAP2 POP DUP1 DUP3 GT ISZERO PUSH2 0x42A8 JUMPI PUSH1 0x0 DUP1 REVERT JUMPDEST POP PUSH2 0x42B5 DUP10 DUP3 DUP11 ADD PUSH2 0x3C1B JUMP JUMPDEST SWAP8 SWAP11 SWAP7 SWAP10 POP SWAP5 SWAP8 POP SWAP3 SWAP6 SWAP4 SWAP5 SWAP3 POP POP POP JUMP JUMPDEST PUSH1 0x0 DUP2 MLOAD DUP1 DUP5 MSTORE PUSH2 0x42DF DUP2 PUSH1 0x20 DUP7 ADD PUSH1 0x20 DUP7 ADD PUSH2 0x50E3 JUMP JUMPDEST PUSH1 0x1F ADD PUSH32 0xFFFFFFFFFFFFFFFFFFFFFFFFFFFFFFFFFFFFFFFFFFFFFFFFFFFFFFFFFFFFFFE0 AND SWAP3 SWAP1 SWAP3 ADD PUSH1 0x20 ADD SWAP3 SWAP2 POP POP JUMP JUMPDEST PUSH32 0x6279746573206D616B65724173736574446174612C0000000000000000000000 DUP2 MSTORE PUSH1 0x15 ADD SWAP1 JUMP JUMPDEST PUSH32 0x62797465732074616B6572417373657444617461000000000000000000000000 DUP2 MSTORE PUSH1 0x14 ADD SWAP1 JUMP JUMPDEST PUSH32 0x2900000000000000000000000000000000000000000000000000000000000000 DUP2 MSTORE PUSH1 0x1 ADD SWAP1 JUMP JUMPDEST DUP1 MLOAD DUP3 MSTORE PUSH1 0x20 DUP2 ADD MLOAD PUSH1 0x20 DUP4 ADD MSTORE PUSH1 0x40 DUP2 ADD MLOAD PUSH1 0x40 DUP4 ADD MSTORE PUSH1 0x60 DUP2 ADD MLOAD PUSH1 0x60 DUP4 ADD MSTORE POP POP JUMP JUMPDEST DUP1 MLOAD PUSH1 0xFF AND DUP3 MSTORE PUSH1 0x20 DUP1 DUP3 ADD MLOAD SWAP1 DUP4 ADD MSTORE PUSH1 0x40 SWAP1 DUP2 ADD MLOAD SWAP2 ADD MSTORE JUMP JUMPDEST PUSH1 0x0 DUP3 DUP5 DUP4 CALLDATACOPY POP PUSH1 0x0 SWAP2 ADD SWAP1 DUP2 MSTORE SWAP2 SWAP1 POP JUMP JUMPDEST PUSH1 0x0 DUP3 MLOAD PUSH2 0x43F3 DUP2 DUP5 PUSH1 0x20 DUP8 ADD PUSH2 0x50E3 JUMP JUMPDEST SWAP2 SWAP1 SWAP2 ADD SWAP3 SWAP2 POP POP JUMP JUMPDEST PUSH32 0x19457468657265756D205369676E6564204D6573736167653A0A333200000000 DUP2 MSTORE PUSH1 0x1C DUP2 ADD SWAP2 SWAP1 SWAP2 MSTORE PUSH1 0x3C ADD SWAP1 JUMP JUMPDEST PUSH32 0x5A65726F45785472616E73616374696F6E280000000000000000000000000000 DUP2 MSTORE PUSH32 0x75696E743235362073616C742C00000000000000000000000000000000000000 PUSH1 0x12 DUP3 ADD MSTORE PUSH32 0x61646472657373207369676E6572416464726573732C00000000000000000000 PUSH1 0x1F DUP3 ADD MSTORE PUSH32 0x6279746573206461746100000000000000000000000000000000000000000000 PUSH1 0x35 DUP3 ADD MSTORE PUSH32 0x2900000000000000000000000000000000000000000000000000000000000000 PUSH1 0x3F DUP3 ADD MSTORE PUSH1 0x40 ADD SWAP1 JUMP JUMPDEST PUSH1 0x0 PUSH32 0x4F72646572280000000000000000000000000000000000000000000000000000 DUP3 MSTORE PUSH32 0x61646472657373206D616B6572416464726573732C0000000000000000000000 PUSH1 0x6 DUP4 ADD MSTORE PUSH32 0x616464726573732074616B6572416464726573732C0000000000000000000000 PUSH1 0x1B DUP4 ADD MSTORE PUSH32 0x6164647265737320666565526563697069656E74416464726573732C00000000 PUSH1 0x30 DUP4 ADD MSTORE PUSH32 0x616464726573732073656E646572416464726573732C00000000000000000000 PUSH1 0x4C DUP4 ADD MSTORE PUSH32 0x75696E74323536206D616B65724173736574416D6F756E742C00000000000000 PUSH1 0x62 DUP4 ADD MSTORE PUSH32 0x75696E743235362074616B65724173736574416D6F756E742C00000000000000 PUSH1 0x7B DUP4 ADD MSTORE PUSH32 0x75696E74323536206D616B65724665652C000000000000000000000000000000 PUSH1 0x94 DUP4 ADD MSTORE PUSH32 0x75696E743235362074616B65724665652C000000000000000000000000000000 PUSH1 0xA5 DUP4 ADD MSTORE PUSH32 0x75696E743235362065787069726174696F6E54696D655365636F6E64732C0000 PUSH1 0xB6 DUP4 ADD MSTORE PUSH32 0x75696E743235362073616C742C00000000000000000000000000000000000000 PUSH1 0xD4 DUP4 ADD MSTORE PUSH2 0x2CA9 PUSH2 0x46A7 PUSH2 0x46A2 PUSH1 0xE1 DUP6 ADD PUSH2 0x4311 JUMP JUMPDEST PUSH2 0x433A JUMP JUMPDEST PUSH2 0x4363 JUMP JUMPDEST PUSH20 0xFFFFFFFFFFFFFFFFFFFFFFFFFFFFFFFFFFFFFFFF SWAP2 SWAP1 SWAP2 AND DUP2 MSTORE PUSH1 0x20 ADD SWAP1 JUMP JUMPDEST PUSH1 0x0 PUSH20 0xFFFFFFFFFFFFFFFFFFFFFFFFFFFFFFFFFFFFFFFF DUP6 AND DUP3 MSTORE PUSH1 0x60 PUSH1 0x20 DUP4 ADD MSTORE PUSH2 0x46FC PUSH1 0x60 DUP4 ADD DUP6 PUSH2 0x42C7 JUMP JUMPDEST DUP3 DUP2 SUB PUSH1 0x40 DUP5 ADD MSTORE PUSH2 0x470E DUP2 DUP6 PUSH2 0x42C7 JUMP JUMPDEST SWAP7 SWAP6 POP POP POP POP POP POP JUMP JUMPDEST PUSH1 0x0 PUSH2 0x100 PUSH20 0xFFFFFFFFFFFFFFFFFFFFFFFFFFFFFFFFFFFFFFFF DUP1 DUP13 AND DUP5 MSTORE DUP1 DUP12 AND PUSH1 0x20 DUP6 ADD MSTORE POP DUP9 PUSH1 0x40 DUP5 ADD MSTORE DUP8 PUSH1 0x60 DUP5 ADD MSTORE DUP7 PUSH1 0x80 DUP5 ADD MSTORE DUP6 PUSH1 0xA0 DUP5 ADD MSTORE DUP1 PUSH1 0xC0 DUP5 ADD MSTORE PUSH2 0x476A DUP2 DUP5 ADD DUP7 PUSH2 0x42C7 JUMP JUMPDEST DUP4 DUP2 SUB PUSH1 0xE0 DUP6 ADD MSTORE PUSH2 0x477C DUP2 DUP7 PUSH2 0x42C7 JUMP JUMPDEST SWAP13 SWAP12 POP POP POP POP POP POP POP POP POP POP POP POP JUMP JUMPDEST PUSH1 0x20 DUP1 DUP3 MSTORE DUP3 MLOAD DUP3 DUP3 ADD DUP2 SWAP1 MSTORE PUSH1 0x0 SWAP2 DUP5 ADD SWAP1 PUSH1 0x40 DUP5 ADD SWAP1 DUP4 JUMPDEST DUP2 DUP2 LT ISZERO PUSH2 0x47CF JUMPI PUSH2 0x47B9 DUP4 DUP6 MLOAD PUSH2 0x43B2 JUMP JUMPDEST PUSH1 0x20 SWAP4 SWAP1 SWAP4 ADD SWAP3 PUSH1 0x60 SWAP3 SWAP1 SWAP3 ADD SWAP2 PUSH1 0x1 ADD PUSH2 0x47A6 JUMP JUMPDEST POP SWAP1 SWAP6 SWAP5 POP POP POP POP POP JUMP JUMPDEST SWAP1 ISZERO ISZERO DUP2 MSTORE PUSH1 0x20 ADD SWAP1 JUMP JUMPDEST SWAP1 DUP2 MSTORE PUSH1 0x20 ADD SWAP1 JUMP JUMPDEST PUSH1 0x0 DUP5 DUP3 MSTORE PUSH20 0xFFFFFFFFFFFFFFFFFFFFFFFFFFFFFFFFFFFFFFFF DUP5 AND PUSH1 0x20 DUP4 ADD MSTORE PUSH1 0x60 PUSH1 0x40 DUP4 ADD MSTORE PUSH2 0x4823 PUSH1 0x60 DUP4 ADD DUP5 PUSH2 0x42C7 JUMP JUMPDEST SWAP6 SWAP5 POP POP POP POP POP JUMP JUMPDEST PUSH1 0x0 DUP4 DUP3 MSTORE PUSH1 0x40 PUSH1 0x20 DUP4 ADD MSTORE PUSH2 0x310C PUSH1 0x40 DUP4 ADD DUP5 PUSH2 0x42C7 JUMP JUMPDEST SWAP4 DUP5 MSTORE PUSH1 0xFF SWAP3 SWAP1 SWAP3 AND PUSH1 0x20 DUP5 ADD MSTORE PUSH1 0x40 DUP4 ADD MSTORE PUSH1 0x60 DUP3 ADD MSTORE PUSH1 0x80 ADD SWAP1 JUMP JUMPDEST PUSH32 0xFFFFFFFF00000000000000000000000000000000000000000000000000000000 SWAP3 SWAP1 SWAP3 AND DUP3 MSTORE PUSH20 0xFFFFFFFFFFFFFFFFFFFFFFFFFFFFFFFFFFFFFFFF AND PUSH1 0x20 DUP3 ADD MSTORE PUSH1 0x40 ADD SWAP1 JUMP JUMPDEST PUSH1 0x0 PUSH1 0x20 DUP3 MSTORE PUSH2 0x930 PUSH1 0x20 DUP4 ADD DUP5 PUSH2 0x42C7 JUMP JUMPDEST PUSH1 0x20 DUP1 DUP3 MSTORE PUSH1 0x12 SWAP1 DUP3 ADD MSTORE PUSH32 0x4C454E4754485F36355F52455155495245440000000000000000000000000000 PUSH1 0x40 DUP3 ADD MSTORE PUSH1 0x60 ADD SWAP1 JUMP JUMPDEST PUSH1 0x20 DUP1 DUP3 MSTORE PUSH1 0xD SWAP1 DUP3 ADD MSTORE PUSH32 0x494E56414C49445F54414B455200000000000000000000000000000000000000 PUSH1 0x40 DUP3 ADD MSTORE PUSH1 0x60 ADD SWAP1 JUMP JUMPDEST PUSH1 0x20 DUP1 DUP3 MSTORE PUSH1 0xE SWAP1 DUP3 ADD MSTORE PUSH32 0x4F524445525F4F56455246494C4C000000000000000000000000000000000000 PUSH1 0x40 DUP3 ADD MSTORE PUSH1 0x60 ADD SWAP1 JUMP JUMPDEST PUSH1 0x20 DUP1 DUP3 MSTORE PUSH1 0x11 SWAP1 DUP3 ADD MSTORE PUSH32 0x55494E543235365F554E444552464C4F57000000000000000000000000000000 PUSH1 0x40 DUP3 ADD MSTORE PUSH1 0x60 ADD SWAP1 JUMP JUMPDEST PUSH1 0x20 DUP1 DUP3 MSTORE PUSH1 0x1A SWAP1 DUP3 ADD MSTORE PUSH32 0x41535345545F50524F58595F414C52454144595F455849535453000000000000 PUSH1 0x40 DUP3 ADD MSTORE PUSH1 0x60 ADD SWAP1 JUMP JUMPDEST PUSH1 0x20 DUP1 DUP3 MSTORE PUSH1 0x26 SWAP1 DUP3 ADD MSTORE PUSH32 0x475245415445525F4F525F455155414C5F544F5F33325F4C454E4754485F5245 PUSH1 0x40 DUP3 ADD MSTORE PUSH32 0x5155495245440000000000000000000000000000000000000000000000000000 PUSH1 0x60 DUP3 ADD MSTORE PUSH1 0x80 ADD SWAP1 JUMP JUMPDEST PUSH1 0x20 DUP1 DUP3 MSTORE PUSH1 0x15 SWAP1 DUP3 ADD MSTORE PUSH32 0x5349474E41545552455F554E535550504F525445440000000000000000000000 PUSH1 0x40 DUP3 ADD MSTORE PUSH1 0x60 ADD SWAP1 JUMP JUMPDEST PUSH1 0x20 DUP1 DUP3 MSTORE PUSH1 0x10 SWAP1 DUP3 ADD MSTORE PUSH32 0x4449564953494F4E5F42595F5A45524F00000000000000000000000000000000 PUSH1 0x40 DUP3 ADD MSTORE PUSH1 0x60 ADD SWAP1 JUMP JUMPDEST PUSH1 0x20 DUP1 DUP3 MSTORE PUSH1 0x17 SWAP1 DUP3 ADD MSTORE PUSH32 0x494E56414C49445F4F524445525F5349474E4154555245000000000000000000 PUSH1 0x40 DUP3 ADD MSTORE PUSH1 0x60 ADD SWAP1 JUMP JUMPDEST PUSH1 0x20 DUP1 DUP3 MSTORE PUSH1 0xD SWAP1 DUP3 ADD MSTORE PUSH32 0x494E56414C49445F4D414B455200000000000000000000000000000000000000 PUSH1 0x40 DUP3 ADD MSTORE PUSH1 0x60 ADD SWAP1 JUMP JUMPDEST PUSH1 0x20 DUP1 DUP3 MSTORE PUSH1 0x10 SWAP1 DUP3 ADD MSTORE PUSH32 0x55494E543235365F4F564552464C4F5700000000000000000000000000000000 PUSH1 0x40 DUP3 ADD MSTORE PUSH1 0x60 ADD SWAP1 JUMP JUMPDEST PUSH1 0x20 DUP1 DUP3 MSTORE PUSH1 0xF SWAP1 DUP3 ADD MSTORE PUSH32 0x494E56414C49445F54585F484153480000000000000000000000000000000000 PUSH1 0x40 DUP3 ADD MSTORE PUSH1 0x60 ADD SWAP1 JUMP JUMPDEST PUSH1 0x20 DUP1 DUP3 MSTORE PUSH1 0x11 SWAP1 DUP3 ADD MSTORE PUSH32 0x494E56414C49445F5349474E4154555245000000000000000000000000000000 PUSH1 0x40 DUP3 ADD MSTORE PUSH1 0x60 ADD SWAP1 JUMP JUMPDEST PUSH1 0x20 DUP1 DUP3 MSTORE PUSH1 0xE SWAP1 DUP3 ADD MSTORE PUSH32 0x524F554E44494E475F4552524F52000000000000000000000000000000000000 PUSH1 0x40 DUP3 ADD MSTORE PUSH1 0x60 ADD SWAP1 JUMP JUMPDEST PUSH1 0x20 DUP1 DUP3 MSTORE PUSH1 0x10 SWAP1 DUP3 ADD MSTORE PUSH32 0x4641494C45445F455845435554494F4E00000000000000000000000000000000 PUSH1 0x40 DUP3 ADD MSTORE PUSH1 0x60 ADD SWAP1 JUMP JUMPDEST PUSH1 0x20 DUP1 DUP3 MSTORE PUSH1 0xD SWAP1 DUP3 ADD MSTORE PUSH32 0x54414B45525F4F56455250415900000000000000000000000000000000000000 PUSH1 0x40 DUP3 ADD MSTORE PUSH1 0x60 ADD SWAP1 JUMP JUMPDEST PUSH1 0x20 DUP1 DUP3 MSTORE PUSH1 0x14 SWAP1 DUP3 ADD MSTORE PUSH32 0x494E56414C49445F54414B45525F414D4F554E54000000000000000000000000 PUSH1 0x40 DUP3 ADD MSTORE PUSH1 0x60 ADD SWAP1 JUMP JUMPDEST PUSH1 0x20 DUP1 DUP3 MSTORE PUSH1 0x1A SWAP1 DUP3 ADD MSTORE PUSH32 0x41535345545F50524F58595F444F45535F4E4F545F4558495354000000000000 PUSH1 0x40 DUP3 ADD MSTORE PUSH1 0x60 ADD SWAP1 JUMP JUMPDEST PUSH1 0x20 DUP1 DUP3 MSTORE PUSH1 0x21 SWAP1 DUP3 ADD MSTORE PUSH32 0x475245415445525F5448414E5F5A45524F5F4C454E4754485F52455155495245 PUSH1 0x40 DUP3 ADD MSTORE PUSH32 0x4400000000000000000000000000000000000000000000000000000000000000 PUSH1 0x60 DUP3 ADD MSTORE PUSH1 0x80 ADD SWAP1 JUMP JUMPDEST PUSH1 0x20 DUP1 DUP3 MSTORE PUSH1 0x11 SWAP1 DUP3 ADD MSTORE PUSH32 0x5349474E41545552455F494C4C4547414C000000000000000000000000000000 PUSH1 0x40 DUP3 ADD MSTORE PUSH1 0x60 ADD SWAP1 JUMP JUMPDEST PUSH1 0x20 DUP1 DUP3 MSTORE PUSH1 0x1E SWAP1 DUP3 ADD MSTORE PUSH32 0x4C454E4754485F475245415445525F5448414E5F305F52455155495245440000 PUSH1 0x40 DUP3 ADD MSTORE PUSH1 0x60 ADD SWAP1 JUMP JUMPDEST PUSH1 0x20 DUP1 DUP3 MSTORE PUSH1 0x17 SWAP1 DUP3 ADD MSTORE PUSH32 0x494E56414C49445F4E45575F4F524445525F45504F4348000000000000000000 PUSH1 0x40 DUP3 ADD MSTORE PUSH1 0x60 ADD SWAP1 JUMP JUMPDEST PUSH1 0x20 DUP1 DUP3 MSTORE PUSH1 0x1E SWAP1 DUP3 ADD MSTORE PUSH32 0x4C454E4754485F475245415445525F5448414E5F335F52455155495245440000 PUSH1 0x40 DUP3 ADD MSTORE PUSH1 0x60 ADD SWAP1 JUMP JUMPDEST PUSH1 0x20 DUP1 DUP3 MSTORE PUSH1 0x14 SWAP1 DUP3 ADD MSTORE PUSH32 0x434F4D504C4554455F46494C4C5F4641494C4544000000000000000000000000 PUSH1 0x40 DUP3 ADD MSTORE PUSH1 0x60 ADD SWAP1 JUMP JUMPDEST PUSH1 0x20 DUP1 DUP3 MSTORE PUSH1 0x12 SWAP1 DUP3 ADD MSTORE PUSH32 0x494E56414C49445F46494C4C5F50524943450000000000000000000000000000 PUSH1 0x40 DUP3 ADD MSTORE PUSH1 0x60 ADD SWAP1 JUMP JUMPDEST PUSH1 0x20 DUP1 DUP3 MSTORE PUSH1 0x12 SWAP1 DUP3 ADD MSTORE PUSH32 0x5245454E5452414E43595F494C4C4547414C0000000000000000000000000000 PUSH1 0x40 DUP3 ADD MSTORE PUSH1 0x60 ADD SWAP1 JUMP JUMPDEST PUSH1 0x20 DUP1 DUP3 MSTORE PUSH1 0x13 SWAP1 DUP3 ADD MSTORE PUSH32 0x4F4E4C595F434F4E54524143545F4F574E455200000000000000000000000000 PUSH1 0x40 DUP3 ADD MSTORE PUSH1 0x60 ADD SWAP1 JUMP JUMPDEST PUSH1 0x20 DUP1 DUP3 MSTORE PUSH1 0x26 SWAP1 DUP3 ADD MSTORE PUSH32 0x475245415445525F4F525F455155414C5F544F5F32305F4C454E4754485F5245 PUSH1 0x40 DUP3 ADD MSTORE PUSH32 0x5155495245440000000000000000000000000000000000000000000000000000 PUSH1 0x60 DUP3 ADD MSTORE PUSH1 0x80 ADD SWAP1 JUMP JUMPDEST PUSH1 0x20 DUP1 DUP3 MSTORE PUSH1 0x10 SWAP1 DUP3 ADD MSTORE PUSH32 0x4F524445525F554E46494C4C41424C4500000000000000000000000000000000 PUSH1 0x40 DUP3 ADD MSTORE PUSH1 0x60 ADD SWAP1 JUMP JUMPDEST PUSH1 0x20 DUP1 DUP3 MSTORE PUSH1 0xE SWAP1 DUP3 ADD MSTORE PUSH32 0x494E56414C49445F53454E444552000000000000000000000000000000000000 PUSH1 0x40 DUP3 ADD MSTORE PUSH1 0x60 ADD SWAP1 JUMP JUMPDEST PUSH1 0x20 DUP1 DUP3 MSTORE PUSH1 0x18 SWAP1 DUP3 ADD MSTORE PUSH32 0x4E454741544956455F5350524541445F52455155495245440000000000000000 PUSH1 0x40 DUP3 ADD MSTORE PUSH1 0x60 ADD SWAP1 JUMP JUMPDEST PUSH1 0x20 DUP1 DUP3 MSTORE PUSH1 0x14 SWAP1 DUP3 ADD MSTORE PUSH32 0x494E56414C49445F54585F5349474E4154555245000000000000000000000000 PUSH1 0x40 DUP3 ADD MSTORE PUSH1 0x60 ADD SWAP1 JUMP JUMPDEST PUSH1 0x20 DUP1 DUP3 MSTORE PUSH1 0x11 SWAP1 DUP3 ADD MSTORE PUSH32 0x4C454E4754485F305F5245515549524544000000000000000000000000000000 PUSH1 0x40 DUP3 ADD MSTORE PUSH1 0x60 ADD SWAP1 JUMP JUMPDEST PUSH1 0x80 DUP2 ADD PUSH2 0x2CA9 DUP3 DUP5 PUSH2 0x438C JUMP JUMPDEST PUSH1 0x0 PUSH2 0x120 DUP3 ADD SWAP1 POP PUSH2 0x5069 DUP3 DUP5 MLOAD PUSH2 0x438C JUMP JUMPDEST PUSH1 0x20 DUP4 ADD MLOAD PUSH2 0x507B PUSH1 0x80 DUP5 ADD DUP3 PUSH2 0x438C JUMP JUMPDEST POP PUSH1 0x40 DUP4 ADD MLOAD PUSH2 0x100 DUP4 ADD MSTORE SWAP3 SWAP2 POP POP JUMP JUMPDEST PUSH1 0x60 DUP2 ADD PUSH2 0x2CA9 DUP3 DUP5 PUSH2 0x43B2 JUMP JUMPDEST PUSH1 0x40 MLOAD DUP2 DUP2 ADD PUSH8 0xFFFFFFFFFFFFFFFF DUP2 GT DUP3 DUP3 LT OR ISZERO PUSH2 0x50BA JUMPI PUSH1 0x0 DUP1 REVERT JUMPDEST PUSH1 0x40 MSTORE SWAP2 SWAP1 POP JUMP JUMPDEST PUSH1 0x0 PUSH8 0xFFFFFFFFFFFFFFFF DUP3 GT ISZERO PUSH2 0x50D9 JUMPI PUSH1 0x0 DUP1 REVERT JUMPDEST POP PUSH1 0x20 SWAP1 DUP2 MUL ADD SWAP1 JUMP JUMPDEST PUSH1 0x0 JUMPDEST DUP4 DUP2 LT ISZERO PUSH2 0x50FE JUMPI DUP2 DUP2 ADD MLOAD DUP4 DUP3 ADD MSTORE PUSH1 0x20 ADD PUSH2 0x50E6 JUMP JUMPDEST DUP4 DUP2 GT ISZERO PUSH2 0x2476 JUMPI POP POP PUSH1 0x0 SWAP2 ADD MSTORE JUMP JUMPDEST PUSH20 0xFFFFFFFFFFFFFFFFFFFFFFFFFFFFFFFFFFFFFFFF DUP2 AND DUP2 EQ PUSH2 0x217B JUMPI PUSH1 0x0 DUP1 REVERT JUMPDEST PUSH32 0xFFFFFFFF00000000000000000000000000000000000000000000000000000000 DUP2 AND DUP2 EQ PUSH2 0x217B JUMPI PUSH1 0x0 DUP1 REVERT INVALID LOG3 PUSH6 0x627A7A723058 KECCAK256 SWAP6 AND 0xa9 PUSH21 0xDBB35313E7AE9FD4611E5EE970D450DE1786C3D8F7 SHL 0x2e DUP1 0xd0 RETURNDATACOPY SWAP8 0xec PUSH13 0x6578706572696D656E74616CF5 PUSH5 0x736F6C6343 STOP SDIV EXP STOP BLOCKHASH "
            }
        }
    },
    "sourceTreeHashHex": "0xf25070d4f2e0d9fd1fc5d990c1012b83ef50bb7dd79ccd06bfb27743b13b639e",
    "compiler": {
        "name": "solc",
        "version": "soljson-v0.5.10+commit.5a6ea5b1.js",
        "settings": {
            "optimizer": {
                "enabled": true,
                "runs": 1000000,
                "details": {
                    "yul": true,
                    "deduplicate": true,
                    "cse": true,
                    "constantOptimizer": true
                }
            },
            "outputSelection": {
                "*": {
                    "*": [
                        "abi",
                        "devdoc",
                        "evm.bytecode.object",
                        "evm.bytecode.sourceMap",
                        "evm.deployedBytecode.object",
                        "evm.deployedBytecode.sourceMap"
                    ]
                }
            },
            "evmVersion": "constantinople",
            "remappings": [
                "@0x/contracts-exchange-libs=/Users/fabioberger/Documents/projects/0x_project/0x-monorepo-one/contracts/exchange/node_modules/@0x/contracts-exchange-libs",
                "@0x/contracts-utils=/Users/fabioberger/Documents/projects/0x_project/0x-monorepo-one/contracts/exchange/node_modules/@0x/contracts-utils",
                "@0x/contracts-erc20=/Users/fabioberger/Documents/projects/0x_project/0x-monorepo-one/contracts/exchange/node_modules/@0x/contracts-erc20"
            ]
        }
    }
}