{
    "schemaVersion": "2.0.0",
    "contractName": "ReentrantERC20Token",
    "compilerOutput": {
        "abi": [
            {
                "constant": false,
                "inputs": [
                    {
                        "name": "_spender",
                        "type": "address"
                    },
                    {
                        "name": "_value",
                        "type": "uint256"
                    }
                ],
                "name": "approve",
                "outputs": [
                    {
                        "name": "",
                        "type": "bool"
                    }
                ],
                "payable": false,
                "stateMutability": "nonpayable",
                "type": "function"
            },
            {
                "constant": true,
                "inputs": [],
                "name": "totalSupply",
                "outputs": [
                    {
                        "name": "",
                        "type": "uint256"
                    }
                ],
                "payable": false,
                "stateMutability": "view",
                "type": "function"
            },
            {
                "constant": false,
                "inputs": [
                    {
                        "name": "_from",
                        "type": "address"
                    },
                    {
                        "name": "_to",
                        "type": "address"
                    },
                    {
                        "name": "_value",
                        "type": "uint256"
                    }
                ],
                "name": "transferFrom",
                "outputs": [
                    {
                        "name": "",
                        "type": "bool"
                    }
                ],
                "payable": false,
                "stateMutability": "nonpayable",
                "type": "function"
            },
            {
                "constant": true,
                "inputs": [
                    {
                        "name": "_owner",
                        "type": "address"
                    }
                ],
                "name": "balanceOf",
                "outputs": [
                    {
                        "name": "",
                        "type": "uint256"
                    }
                ],
                "payable": false,
                "stateMutability": "view",
                "type": "function"
            },
            {
                "constant": false,
                "inputs": [
                    {
                        "name": "_to",
                        "type": "address"
                    },
                    {
                        "name": "_value",
                        "type": "uint256"
                    }
                ],
                "name": "transfer",
                "outputs": [
                    {
                        "name": "",
                        "type": "bool"
                    }
                ],
                "payable": false,
                "stateMutability": "nonpayable",
                "type": "function"
            },
            {
                "constant": false,
                "inputs": [
                    {
                        "name": "_currentFunctionId",
                        "type": "uint8"
                    }
                ],
                "name": "setCurrentFunction",
                "outputs": [],
                "payable": false,
                "stateMutability": "nonpayable",
                "type": "function"
            },
            {
                "constant": true,
                "inputs": [
                    {
                        "name": "_owner",
                        "type": "address"
                    },
                    {
                        "name": "_spender",
                        "type": "address"
                    }
                ],
                "name": "allowance",
                "outputs": [
                    {
                        "name": "",
                        "type": "uint256"
                    }
                ],
                "payable": false,
                "stateMutability": "view",
                "type": "function"
            },
            {
                "inputs": [
                    {
                        "name": "_exchange",
                        "type": "address"
                    }
                ],
                "payable": false,
                "stateMutability": "nonpayable",
                "type": "constructor"
            },
            {
                "anonymous": false,
                "inputs": [
                    {
                        "indexed": true,
                        "name": "_from",
                        "type": "address"
                    },
                    {
                        "indexed": true,
                        "name": "_to",
                        "type": "address"
                    },
                    {
                        "indexed": false,
                        "name": "_value",
                        "type": "uint256"
                    }
                ],
                "name": "Transfer",
                "type": "event"
            },
            {
                "anonymous": false,
                "inputs": [
                    {
                        "indexed": true,
                        "name": "_owner",
                        "type": "address"
                    },
                    {
                        "indexed": true,
                        "name": "_spender",
                        "type": "address"
                    },
                    {
                        "indexed": false,
                        "name": "_value",
                        "type": "uint256"
                    }
                ],
                "name": "Approval",
                "type": "event"
            }
        ],
        "devdoc": {
            "methods": {
                "allowance(address,address)": {
                    "params": {
                        "_owner": "The address of the account owning tokens",
                        "_spender": "The address of the account able to transfer the tokens"
                    },
                    "return": "Amount of remaining tokens allowed to spent"
                },
                "approve(address,uint256)": {
                    "details": "`msg.sender` approves `_spender` to spend `_value` tokens",
                    "params": {
                        "_spender": "The address of the account able to transfer the tokens",
                        "_value": "The amount of wei to be approved for transfer"
                    },
                    "return": "Always true if the call has enough gas to complete execution"
                },
                "balanceOf(address)": {
                    "details": "Query the balance of owner",
                    "params": {
                        "_owner": "The address from which the balance will be retrieved"
                    },
                    "return": "Balance of owner"
                },
                "setCurrentFunction(uint8)": {
                    "details": "Set the current function that will be called when `transferFrom` is called.",
                    "params": {
                        "_currentFunctionId": "Id that corresponds to function name."
                    }
                },
                "totalSupply()": {
                    "details": "Query total supply of token",
                    "return": "Total supply of token"
                },
                "transfer(address,uint256)": {
                    "details": "send `value` token to `to` from `msg.sender`",
                    "params": {
                        "_to": "The address of the recipient",
                        "_value": "The amount of token to be transferred"
                    },
                    "return": "True if transfer was successful"
                },
                "transferFrom(address,address,uint256)": {
                    "details": "A version of `transferFrom` that attempts to reenter the Exchange contract.",
                    "params": {
                        "_from": "The address of the sender",
                        "_to": "The address of the recipient",
                        "_value": "The amount of token to be transferred"
                    }
                }
            }
        },
        "evm": {
            "bytecode": {
                "linkReferences": {},
                "object": "0x60806040526003805460ff60a01b1916905534801561001d57600080fd5b5060405161114438038061114483398101604081905261003c91610061565b600380546001600160a01b0319166001600160a01b0392909216919091179055610091565b60006020828403121561007357600080fd5b81516001600160a01b038116811461008a57600080fd5b9392505050565b6110a4806100a06000396000f3fe608060405234801561001057600080fd5b506004361061007d5760003560e01c806370a082311161005b57806370a08231146100d3578063a9059cbb146100e6578063b348a4d4146100f9578063dd62ed3e1461010e5761007d565b8063095ea7b31461008257806318160ddd146100ab57806323b872dd146100c0575b600080fd5b610095610090366004610b7f565b610121565b6040516100a29190610eb8565b60405180910390f35b6100b3610199565b6040516100a29190611003565b6100956100ce366004610b3e565b61019f565b6100b36100e1366004610aed565b61081e565b6100956100f4366004610b7f565b610846565b61010c610107366004610baa565b610965565b005b6100b361011c366004610b09565b6109b1565b33600081815260016020908152604080832073ffffffffffffffffffffffffffffffffffffffff8716808552925280832085905551919290917f8c5be1e5ebec7d5bd14f71427d1e84f3dd0314c0f7b2291e5b200ac8c7c3b92590610187908690611003565b60405180910390a35060015b92915050565b60025490565b60006101a9610a10565b606080808080600060035474010000000000000000000000000000000000000000900460ff90811691161415610295576040517fb4be83d500000000000000000000000000000000000000000000000000000000906102119088906000908990602401610f89565b604080517fffffffffffffffffffffffffffffffffffffffffffffffffffffffffffffffe08184030181529190526020810180517bffffffffffffffffffffffffffffffffffffffffffffffffffffffff167fffffffff000000000000000000000000000000000000000000000000000000009093169290921790915290506106b8565b60035460ff7401000000000000000000000000000000000000000090910416600114156102f4576040517f64a3bc1500000000000000000000000000000000000000000000000000000000906102119088906000908990602401610f89565b60035460ff740100000000000000000000000000000000000000009091041660021415610352576040517f297bb70b000000000000000000000000000000000000000000000000000000009061021190869086908690602401610e1d565b6003805474010000000000000000000000000000000000000000900460ff1614156103ae576040517f4d0ae546000000000000000000000000000000000000000000000000000000009061021190869086908690602401610e1d565b60035460ff74010000000000000000000000000000000000000000909104166004141561040d576040517fe5fa431b00000000000000000000000000000000000000000000000000000000906102119086906000908690602401610e8a565b60035460ff74010000000000000000000000000000000000000000909104166005141561046c576040517f7e1d980800000000000000000000000000000000000000000000000000000000906102119086906000908690602401610e8a565b60035460ff7401000000000000000000000000000000000000000090910416600614156104cc576040517f3c28d8610000000000000000000000000000000000000000000000000000000090610211908890819089908190602401610fb7565b60035460ff740100000000000000000000000000000000000000009091041660071415610526576040517fd46b02c30000000000000000000000000000000000000000000000000000000090610211908890602401610f76565b60035460ff740100000000000000000000000000000000000000009091041660081415610580576040517f4ac147820000000000000000000000000000000000000000000000000000000090610211908690602401610e0a565b60035460ff7401000000000000000000000000000000000000000090910416600914156105db576040517f4f9559b1000000000000000000000000000000000000000000000000000000009061021190600090602401610ec3565b60035460ff7401000000000000000000000000000000000000000090910416600a14156106b8576040517f77fcce680000000000000000000000000000000000000000000000000000000090610638906000908190602401610de2565b604080517fffffffffffffffffffffffffffffffffffffffffffffffffffffffffffffffe08184030181529190526020810180517bffffffffffffffffffffffffffffffffffffffffffffffffffffffff167fffffffff000000000000000000000000000000000000000000000000000000009093169290921790915290505b60035460405173ffffffffffffffffffffffffffffffffffffffff909116906106e2908390610d9d565b6000604051808303816000865af19150503d806000811461071f576040519150601f19603f3d011682016040523d82523d6000602084013e610724565b606091505b505060408051606480825260a08201909252606092509060208201818038833901905050905060646000602083013e6108038160405161076390610db9565b604051809103902060405160240161077a90610f3f565b604080517fffffffffffffffffffffffffffffffffffffffffffffffffffffffffffffffe08184030181529190526020810180517bffffffffffffffffffffffffffffffffffffffffffffffffffffffff167fffffffff00000000000000000000000000000000000000000000000000000000909316929092179091529063ffffffff6109e916565b1561080d57600080fd5b5060019a9950505050505050505050565b73ffffffffffffffffffffffffffffffffffffffff1660009081526020819052604090205490565b33600090815260208190526040812054821115610898576040517f08c379a000000000000000000000000000000000000000000000000000000000815260040161088f90610ed1565b60405180910390fd5b73ffffffffffffffffffffffffffffffffffffffff831660009081526020819052604090205482810110156108f9576040517f08c379a000000000000000000000000000000000000000000000000000000000815260040161088f90610f08565b336000818152602081905260408082208054869003905573ffffffffffffffffffffffffffffffffffffffff861680835291819020805486019055519091907fddf252ad1be2c89b69c2b068fc378daa952ba7f163c4a11628f55a4df523b3ef90610187908690611003565b6003805460ff90921674010000000000000000000000000000000000000000027fffffffffffffffffffffff00ffffffffffffffffffffffffffffffffffffffff909216919091179055565b73ffffffffffffffffffffffffffffffffffffffff918216600090815260016020908152604080832093909416825291909152205490565b600081518351148015610a09575081805190602001208380519060200120145b9392505050565b604051806101800160405280600073ffffffffffffffffffffffffffffffffffffffff168152602001600073ffffffffffffffffffffffffffffffffffffffff168152602001600073ffffffffffffffffffffffffffffffffffffffff168152602001600073ffffffffffffffffffffffffffffffffffffffff16815260200160008152602001600081526020016000815260200160008152602001600081526020016000815260200160608152602001606081525090565b803573ffffffffffffffffffffffffffffffffffffffff8116811461019357600080fd5b600060208284031215610aff57600080fd5b610a098383610ac9565b60008060408385031215610b1c57600080fd5b610b268484610ac9565b9150610b358460208501610ac9565b90509250929050565b600080600060608486031215610b5357600080fd5b8335610b5e8161103c565b92506020840135610b6e8161103c565b929592945050506040919091013590565b60008060408385031215610b9257600080fd5b610b9c8484610ac9565b946020939093013593505050565b600060208284031215610bbc57600080fd5b813560ff81168114610a0957600080fd5b73ffffffffffffffffffffffffffffffffffffffff169052565b60008151808452602084018081955060208302810191506020850160005b84811015610c33578284038852610c1d848351610c8b565b6020988901989094509190910190600101610c05565b50919695505050505050565b60008151808452602084018081955060208302810191506020850160005b84811015610c33578284038852610c75848351610cd5565b6020988901989094509190910190600101610c5d565b60008151808452610ca381602086016020860161100c565b601f017fffffffffffffffffffffffffffffffffffffffffffffffffffffffffffffffe0169290920160200192915050565b6000610180610ce5848451610bcd565b6020830151610cf76020860182610bcd565b506040830151610d0a6040860182610bcd565b506060830151610d1d6060860182610bcd565b506080830151608085015260a083015160a085015260c083015160c085015260e083015160e0850152610100808401518186015250610120808401518186015250610140808401518282870152610d7683870182610c8b565b91505061016091508184015185820383870152610d938282610c8b565b9695505050505050565b60008251610daf81846020870161100c565b9190910192915050565b7f4572726f7228737472696e6729000000000000000000000000000000000000008152600d0190565b73ffffffffffffffffffffffffffffffffffffffff9290921682521515602082015260400190565b600060208252610a096020830184610c3f565b600060608252610e306060830186610c3f565b828103602084015280855180835260208301915060208701925060005b81811015610e6b578351835260209384019390920191600101610e4d565b50508381036040850152610e7f8186610be7565b979650505050505050565b600060608252610e9d6060830186610c3f565b60ff851660208401528281036040840152610d938185610be7565b901515815260200190565b60ff91909116815260200190565b6020808252601a908201527f45524332305f494e53554646494349454e545f42414c414e4345000000000000604082015260600190565b60208082526010908201527f55494e543235365f4f564552464c4f5700000000000000000000000000000000604082015260600190565b60208082526012908201527f5245454e5452414e43595f494c4c4547414c0000000000000000000000000000604082015260600190565b600060208252610a096020830184610cd5565b600060608252610f9c6060830186610cd5565b60ff851660208401528281036040840152610d938185610c8b565b600060808252610fca6080830187610cd5565b8281036020840152610fdc8187610cd5565b8381036040850152610fee8187610c8b565b9150508281036060840152610e7f8185610c8b565b90815260200190565b60005b8381101561102757818101518382015260200161100f565b83811115611036576000848401525b50505050565b73ffffffffffffffffffffffffffffffffffffffff8116811461105e57600080fd5b5056fea365627a7a7230582042027859479d2d564863eb1e4b65382e5e9386a5218ba93fcf5515aaab344d806c6578706572696d656e74616cf564736f6c634300050a0040",
                "opcodes": "PUSH1 0x80 PUSH1 0x40 MSTORE PUSH1 0x3 DUP1 SLOAD PUSH1 0xFF PUSH1 0xA0 SHL NOT AND SWAP1 SSTORE CALLVALUE DUP1 ISZERO PUSH2 0x1D JUMPI PUSH1 0x0 DUP1 REVERT JUMPDEST POP PUSH1 0x40 MLOAD PUSH2 0x1144 CODESIZE SUB DUP1 PUSH2 0x1144 DUP4 CODECOPY DUP2 ADD PUSH1 0x40 DUP2 SWAP1 MSTORE PUSH2 0x3C SWAP2 PUSH2 0x61 JUMP JUMPDEST PUSH1 0x3 DUP1 SLOAD PUSH1 0x1 PUSH1 0x1 PUSH1 0xA0 SHL SUB NOT AND PUSH1 0x1 PUSH1 0x1 PUSH1 0xA0 SHL SUB SWAP3 SWAP1 SWAP3 AND SWAP2 SWAP1 SWAP2 OR SWAP1 SSTORE PUSH2 0x91 JUMP JUMPDEST PUSH1 0x0 PUSH1 0x20 DUP3 DUP5 SUB SLT ISZERO PUSH2 0x73 JUMPI PUSH1 0x0 DUP1 REVERT JUMPDEST DUP2 MLOAD PUSH1 0x1 PUSH1 0x1 PUSH1 0xA0 SHL SUB DUP2 AND DUP2 EQ PUSH2 0x8A JUMPI PUSH1 0x0 DUP1 REVERT JUMPDEST SWAP4 SWAP3 POP POP POP JUMP JUMPDEST PUSH2 0x10A4 DUP1 PUSH2 0xA0 PUSH1 0x0 CODECOPY PUSH1 0x0 RETURN INVALID PUSH1 0x80 PUSH1 0x40 MSTORE CALLVALUE DUP1 ISZERO PUSH2 0x10 JUMPI PUSH1 0x0 DUP1 REVERT JUMPDEST POP PUSH1 0x4 CALLDATASIZE LT PUSH2 0x7D JUMPI PUSH1 0x0 CALLDATALOAD PUSH1 0xE0 SHR DUP1 PUSH4 0x70A08231 GT PUSH2 0x5B JUMPI DUP1 PUSH4 0x70A08231 EQ PUSH2 0xD3 JUMPI DUP1 PUSH4 0xA9059CBB EQ PUSH2 0xE6 JUMPI DUP1 PUSH4 0xB348A4D4 EQ PUSH2 0xF9 JUMPI DUP1 PUSH4 0xDD62ED3E EQ PUSH2 0x10E JUMPI PUSH2 0x7D JUMP JUMPDEST DUP1 PUSH4 0x95EA7B3 EQ PUSH2 0x82 JUMPI DUP1 PUSH4 0x18160DDD EQ PUSH2 0xAB JUMPI DUP1 PUSH4 0x23B872DD EQ PUSH2 0xC0 JUMPI JUMPDEST PUSH1 0x0 DUP1 REVERT JUMPDEST PUSH2 0x95 PUSH2 0x90 CALLDATASIZE PUSH1 0x4 PUSH2 0xB7F JUMP JUMPDEST PUSH2 0x121 JUMP JUMPDEST PUSH1 0x40 MLOAD PUSH2 0xA2 SWAP2 SWAP1 PUSH2 0xEB8 JUMP JUMPDEST PUSH1 0x40 MLOAD DUP1 SWAP2 SUB SWAP1 RETURN JUMPDEST PUSH2 0xB3 PUSH2 0x199 JUMP JUMPDEST PUSH1 0x40 MLOAD PUSH2 0xA2 SWAP2 SWAP1 PUSH2 0x1003 JUMP JUMPDEST PUSH2 0x95 PUSH2 0xCE CALLDATASIZE PUSH1 0x4 PUSH2 0xB3E JUMP JUMPDEST PUSH2 0x19F JUMP JUMPDEST PUSH2 0xB3 PUSH2 0xE1 CALLDATASIZE PUSH1 0x4 PUSH2 0xAED JUMP JUMPDEST PUSH2 0x81E JUMP JUMPDEST PUSH2 0x95 PUSH2 0xF4 CALLDATASIZE PUSH1 0x4 PUSH2 0xB7F JUMP JUMPDEST PUSH2 0x846 JUMP JUMPDEST PUSH2 0x10C PUSH2 0x107 CALLDATASIZE PUSH1 0x4 PUSH2 0xBAA JUMP JUMPDEST PUSH2 0x965 JUMP JUMPDEST STOP JUMPDEST PUSH2 0xB3 PUSH2 0x11C CALLDATASIZE PUSH1 0x4 PUSH2 0xB09 JUMP JUMPDEST PUSH2 0x9B1 JUMP JUMPDEST CALLER PUSH1 0x0 DUP2 DUP2 MSTORE PUSH1 0x1 PUSH1 0x20 SWAP1 DUP2 MSTORE PUSH1 0x40 DUP1 DUP4 KECCAK256 PUSH20 0xFFFFFFFFFFFFFFFFFFFFFFFFFFFFFFFFFFFFFFFF DUP8 AND DUP1 DUP6 MSTORE SWAP3 MSTORE DUP1 DUP4 KECCAK256 DUP6 SWAP1 SSTORE MLOAD SWAP2 SWAP3 SWAP1 SWAP2 PUSH32 0x8C5BE1E5EBEC7D5BD14F71427D1E84F3DD0314C0F7B2291E5B200AC8C7C3B925 SWAP1 PUSH2 0x187 SWAP1 DUP7 SWAP1 PUSH2 0x1003 JUMP JUMPDEST PUSH1 0x40 MLOAD DUP1 SWAP2 SUB SWAP1 LOG3 POP PUSH1 0x1 JUMPDEST SWAP3 SWAP2 POP POP JUMP JUMPDEST PUSH1 0x2 SLOAD SWAP1 JUMP JUMPDEST PUSH1 0x0 PUSH2 0x1A9 PUSH2 0xA10 JUMP JUMPDEST PUSH1 0x60 DUP1 DUP1 DUP1 DUP1 PUSH1 0x0 PUSH1 0x3 SLOAD PUSH21 0x10000000000000000000000000000000000000000 SWAP1 DIV PUSH1 0xFF SWAP1 DUP2 AND SWAP2 AND EQ ISZERO PUSH2 0x295 JUMPI PUSH1 0x40 MLOAD PUSH32 0xB4BE83D500000000000000000000000000000000000000000000000000000000 SWAP1 PUSH2 0x211 SWAP1 DUP9 SWAP1 PUSH1 0x0 SWAP1 DUP10 SWAP1 PUSH1 0x24 ADD PUSH2 0xF89 JUMP JUMPDEST PUSH1 0x40 DUP1 MLOAD PUSH32 0xFFFFFFFFFFFFFFFFFFFFFFFFFFFFFFFFFFFFFFFFFFFFFFFFFFFFFFFFFFFFFFE0 DUP2 DUP5 SUB ADD DUP2 MSTORE SWAP2 SWAP1 MSTORE PUSH1 0x20 DUP2 ADD DUP1 MLOAD PUSH28 0xFFFFFFFFFFFFFFFFFFFFFFFFFFFFFFFFFFFFFFFFFFFFFFFFFFFFFFFF AND PUSH32 0xFFFFFFFF00000000000000000000000000000000000000000000000000000000 SWAP1 SWAP4 AND SWAP3 SWAP1 SWAP3 OR SWAP1 SWAP2 MSTORE SWAP1 POP PUSH2 0x6B8 JUMP JUMPDEST PUSH1 0x3 SLOAD PUSH1 0xFF PUSH21 0x10000000000000000000000000000000000000000 SWAP1 SWAP2 DIV AND PUSH1 0x1 EQ ISZERO PUSH2 0x2F4 JUMPI PUSH1 0x40 MLOAD PUSH32 0x64A3BC1500000000000000000000000000000000000000000000000000000000 SWAP1 PUSH2 0x211 SWAP1 DUP9 SWAP1 PUSH1 0x0 SWAP1 DUP10 SWAP1 PUSH1 0x24 ADD PUSH2 0xF89 JUMP JUMPDEST PUSH1 0x3 SLOAD PUSH1 0xFF PUSH21 0x10000000000000000000000000000000000000000 SWAP1 SWAP2 DIV AND PUSH1 0x2 EQ ISZERO PUSH2 0x352 JUMPI PUSH1 0x40 MLOAD PUSH32 0x297BB70B00000000000000000000000000000000000000000000000000000000 SWAP1 PUSH2 0x211 SWAP1 DUP7 SWAP1 DUP7 SWAP1 DUP7 SWAP1 PUSH1 0x24 ADD PUSH2 0xE1D JUMP JUMPDEST PUSH1 0x3 DUP1 SLOAD PUSH21 0x10000000000000000000000000000000000000000 SWAP1 DIV PUSH1 0xFF AND EQ ISZERO PUSH2 0x3AE JUMPI PUSH1 0x40 MLOAD PUSH32 0x4D0AE54600000000000000000000000000000000000000000000000000000000 SWAP1 PUSH2 0x211 SWAP1 DUP7 SWAP1 DUP7 SWAP1 DUP7 SWAP1 PUSH1 0x24 ADD PUSH2 0xE1D JUMP JUMPDEST PUSH1 0x3 SLOAD PUSH1 0xFF PUSH21 0x10000000000000000000000000000000000000000 SWAP1 SWAP2 DIV AND PUSH1 0x4 EQ ISZERO PUSH2 0x40D JUMPI PUSH1 0x40 MLOAD PUSH32 0xE5FA431B00000000000000000000000000000000000000000000000000000000 SWAP1 PUSH2 0x211 SWAP1 DUP7 SWAP1 PUSH1 0x0 SWAP1 DUP7 SWAP1 PUSH1 0x24 ADD PUSH2 0xE8A JUMP JUMPDEST PUSH1 0x3 SLOAD PUSH1 0xFF PUSH21 0x10000000000000000000000000000000000000000 SWAP1 SWAP2 DIV AND PUSH1 0x5 EQ ISZERO PUSH2 0x46C JUMPI PUSH1 0x40 MLOAD PUSH32 0x7E1D980800000000000000000000000000000000000000000000000000000000 SWAP1 PUSH2 0x211 SWAP1 DUP7 SWAP1 PUSH1 0x0 SWAP1 DUP7 SWAP1 PUSH1 0x24 ADD PUSH2 0xE8A JUMP JUMPDEST PUSH1 0x3 SLOAD PUSH1 0xFF PUSH21 0x10000000000000000000000000000000000000000 SWAP1 SWAP2 DIV AND PUSH1 0x6 EQ ISZERO PUSH2 0x4CC JUMPI PUSH1 0x40 MLOAD PUSH32 0x3C28D86100000000000000000000000000000000000000000000000000000000 SWAP1 PUSH2 0x211 SWAP1 DUP9 SWAP1 DUP2 SWAP1 DUP10 SWAP1 DUP2 SWAP1 PUSH1 0x24 ADD PUSH2 0xFB7 JUMP JUMPDEST PUSH1 0x3 SLOAD PUSH1 0xFF PUSH21 0x10000000000000000000000000000000000000000 SWAP1 SWAP2 DIV AND PUSH1 0x7 EQ ISZERO PUSH2 0x526 JUMPI PUSH1 0x40 MLOAD PUSH32 0xD46B02C300000000000000000000000000000000000000000000000000000000 SWAP1 PUSH2 0x211 SWAP1 DUP9 SWAP1 PUSH1 0x24 ADD PUSH2 0xF76 JUMP JUMPDEST PUSH1 0x3 SLOAD PUSH1 0xFF PUSH21 0x10000000000000000000000000000000000000000 SWAP1 SWAP2 DIV AND PUSH1 0x8 EQ ISZERO PUSH2 0x580 JUMPI PUSH1 0x40 MLOAD PUSH32 0x4AC1478200000000000000000000000000000000000000000000000000000000 SWAP1 PUSH2 0x211 SWAP1 DUP7 SWAP1 PUSH1 0x24 ADD PUSH2 0xE0A JUMP JUMPDEST PUSH1 0x3 SLOAD PUSH1 0xFF PUSH21 0x10000000000000000000000000000000000000000 SWAP1 SWAP2 DIV AND PUSH1 0x9 EQ ISZERO PUSH2 0x5DB JUMPI PUSH1 0x40 MLOAD PUSH32 0x4F9559B100000000000000000000000000000000000000000000000000000000 SWAP1 PUSH2 0x211 SWAP1 PUSH1 0x0 SWAP1 PUSH1 0x24 ADD PUSH2 0xEC3 JUMP JUMPDEST PUSH1 0x3 SLOAD PUSH1 0xFF PUSH21 0x10000000000000000000000000000000000000000 SWAP1 SWAP2 DIV AND PUSH1 0xA EQ ISZERO PUSH2 0x6B8 JUMPI PUSH1 0x40 MLOAD PUSH32 0x77FCCE6800000000000000000000000000000000000000000000000000000000 SWAP1 PUSH2 0x638 SWAP1 PUSH1 0x0 SWAP1 DUP2 SWAP1 PUSH1 0x24 ADD PUSH2 0xDE2 JUMP JUMPDEST PUSH1 0x40 DUP1 MLOAD PUSH32 0xFFFFFFFFFFFFFFFFFFFFFFFFFFFFFFFFFFFFFFFFFFFFFFFFFFFFFFFFFFFFFFE0 DUP2 DUP5 SUB ADD DUP2 MSTORE SWAP2 SWAP1 MSTORE PUSH1 0x20 DUP2 ADD DUP1 MLOAD PUSH28 0xFFFFFFFFFFFFFFFFFFFFFFFFFFFFFFFFFFFFFFFFFFFFFFFFFFFFFFFF AND PUSH32 0xFFFFFFFF00000000000000000000000000000000000000000000000000000000 SWAP1 SWAP4 AND SWAP3 SWAP1 SWAP3 OR SWAP1 SWAP2 MSTORE SWAP1 POP JUMPDEST PUSH1 0x3 SLOAD PUSH1 0x40 MLOAD PUSH20 0xFFFFFFFFFFFFFFFFFFFFFFFFFFFFFFFFFFFFFFFF SWAP1 SWAP2 AND SWAP1 PUSH2 0x6E2 SWAP1 DUP4 SWAP1 PUSH2 0xD9D JUMP JUMPDEST PUSH1 0x0 PUSH1 0x40 MLOAD DUP1 DUP4 SUB DUP2 PUSH1 0x0 DUP7 GAS CALL SWAP2 POP POP RETURNDATASIZE DUP1 PUSH1 0x0 DUP2 EQ PUSH2 0x71F JUMPI PUSH1 0x40 MLOAD SWAP2 POP PUSH1 0x1F NOT PUSH1 0x3F RETURNDATASIZE ADD AND DUP3 ADD PUSH1 0x40 MSTORE RETURNDATASIZE DUP3 MSTORE RETURNDATASIZE PUSH1 0x0 PUSH1 0x20 DUP5 ADD RETURNDATACOPY PUSH2 0x724 JUMP JUMPDEST PUSH1 0x60 SWAP2 POP JUMPDEST POP POP PUSH1 0x40 DUP1 MLOAD PUSH1 0x64 DUP1 DUP3 MSTORE PUSH1 0xA0 DUP3 ADD SWAP1 SWAP3 MSTORE PUSH1 0x60 SWAP3 POP SWAP1 PUSH1 0x20 DUP3 ADD DUP2 DUP1 CODESIZE DUP4 CODECOPY ADD SWAP1 POP POP SWAP1 POP PUSH1 0x64 PUSH1 0x0 PUSH1 0x20 DUP4 ADD RETURNDATACOPY PUSH2 0x803 DUP2 PUSH1 0x40 MLOAD PUSH2 0x763 SWAP1 PUSH2 0xDB9 JUMP JUMPDEST PUSH1 0x40 MLOAD DUP1 SWAP2 SUB SWAP1 KECCAK256 PUSH1 0x40 MLOAD PUSH1 0x24 ADD PUSH2 0x77A SWAP1 PUSH2 0xF3F JUMP JUMPDEST PUSH1 0x40 DUP1 MLOAD PUSH32 0xFFFFFFFFFFFFFFFFFFFFFFFFFFFFFFFFFFFFFFFFFFFFFFFFFFFFFFFFFFFFFFE0 DUP2 DUP5 SUB ADD DUP2 MSTORE SWAP2 SWAP1 MSTORE PUSH1 0x20 DUP2 ADD DUP1 MLOAD PUSH28 0xFFFFFFFFFFFFFFFFFFFFFFFFFFFFFFFFFFFFFFFFFFFFFFFFFFFFFFFF AND PUSH32 0xFFFFFFFF00000000000000000000000000000000000000000000000000000000 SWAP1 SWAP4 AND SWAP3 SWAP1 SWAP3 OR SWAP1 SWAP2 MSTORE SWAP1 PUSH4 0xFFFFFFFF PUSH2 0x9E9 AND JUMP JUMPDEST ISZERO PUSH2 0x80D JUMPI PUSH1 0x0 DUP1 REVERT JUMPDEST POP PUSH1 0x1 SWAP11 SWAP10 POP POP POP POP POP POP POP POP POP POP JUMP JUMPDEST PUSH20 0xFFFFFFFFFFFFFFFFFFFFFFFFFFFFFFFFFFFFFFFF AND PUSH1 0x0 SWAP1 DUP2 MSTORE PUSH1 0x20 DUP2 SWAP1 MSTORE PUSH1 0x40 SWAP1 KECCAK256 SLOAD SWAP1 JUMP JUMPDEST CALLER PUSH1 0x0 SWAP1 DUP2 MSTORE PUSH1 0x20 DUP2 SWAP1 MSTORE PUSH1 0x40 DUP2 KECCAK256 SLOAD DUP3 GT ISZERO PUSH2 0x898 JUMPI PUSH1 0x40 MLOAD PUSH32 0x8C379A000000000000000000000000000000000000000000000000000000000 DUP2 MSTORE PUSH1 0x4 ADD PUSH2 0x88F SWAP1 PUSH2 0xED1 JUMP JUMPDEST PUSH1 0x40 MLOAD DUP1 SWAP2 SUB SWAP1 REVERT JUMPDEST PUSH20 0xFFFFFFFFFFFFFFFFFFFFFFFFFFFFFFFFFFFFFFFF DUP4 AND PUSH1 0x0 SWAP1 DUP2 MSTORE PUSH1 0x20 DUP2 SWAP1 MSTORE PUSH1 0x40 SWAP1 KECCAK256 SLOAD DUP3 DUP2 ADD LT ISZERO PUSH2 0x8F9 JUMPI PUSH1 0x40 MLOAD PUSH32 0x8C379A000000000000000000000000000000000000000000000000000000000 DUP2 MSTORE PUSH1 0x4 ADD PUSH2 0x88F SWAP1 PUSH2 0xF08 JUMP JUMPDEST CALLER PUSH1 0x0 DUP2 DUP2 MSTORE PUSH1 0x20 DUP2 SWAP1 MSTORE PUSH1 0x40 DUP1 DUP3 KECCAK256 DUP1 SLOAD DUP7 SWAP1 SUB SWAP1 SSTORE PUSH20 0xFFFFFFFFFFFFFFFFFFFFFFFFFFFFFFFFFFFFFFFF DUP7 AND DUP1 DUP4 MSTORE SWAP2 DUP2 SWAP1 KECCAK256 DUP1 SLOAD DUP7 ADD SWAP1 SSTORE MLOAD SWAP1 SWAP2 SWAP1 PUSH32 0xDDF252AD1BE2C89B69C2B068FC378DAA952BA7F163C4A11628F55A4DF523B3EF SWAP1 PUSH2 0x187 SWAP1 DUP7 SWAP1 PUSH2 0x1003 JUMP JUMPDEST PUSH1 0x3 DUP1 SLOAD PUSH1 0xFF SWAP1 SWAP3 AND PUSH21 0x10000000000000000000000000000000000000000 MUL PUSH32 0xFFFFFFFFFFFFFFFFFFFFFF00FFFFFFFFFFFFFFFFFFFFFFFFFFFFFFFFFFFFFFFF SWAP1 SWAP3 AND SWAP2 SWAP1 SWAP2 OR SWAP1 SSTORE JUMP JUMPDEST PUSH20 0xFFFFFFFFFFFFFFFFFFFFFFFFFFFFFFFFFFFFFFFF SWAP2 DUP3 AND PUSH1 0x0 SWAP1 DUP2 MSTORE PUSH1 0x1 PUSH1 0x20 SWAP1 DUP2 MSTORE PUSH1 0x40 DUP1 DUP4 KECCAK256 SWAP4 SWAP1 SWAP5 AND DUP3 MSTORE SWAP2 SWAP1 SWAP2 MSTORE KECCAK256 SLOAD SWAP1 JUMP JUMPDEST PUSH1 0x0 DUP2 MLOAD DUP4 MLOAD EQ DUP1 ISZERO PUSH2 0xA09 JUMPI POP DUP2 DUP1 MLOAD SWAP1 PUSH1 0x20 ADD KECCAK256 DUP4 DUP1 MLOAD SWAP1 PUSH1 0x20 ADD KECCAK256 EQ JUMPDEST SWAP4 SWAP3 POP POP POP JUMP JUMPDEST PUSH1 0x40 MLOAD DUP1 PUSH2 0x180 ADD PUSH1 0x40 MSTORE DUP1 PUSH1 0x0 PUSH20 0xFFFFFFFFFFFFFFFFFFFFFFFFFFFFFFFFFFFFFFFF AND DUP2 MSTORE PUSH1 0x20 ADD PUSH1 0x0 PUSH20 0xFFFFFFFFFFFFFFFFFFFFFFFFFFFFFFFFFFFFFFFF AND DUP2 MSTORE PUSH1 0x20 ADD PUSH1 0x0 PUSH20 0xFFFFFFFFFFFFFFFFFFFFFFFFFFFFFFFFFFFFFFFF AND DUP2 MSTORE PUSH1 0x20 ADD PUSH1 0x0 PUSH20 0xFFFFFFFFFFFFFFFFFFFFFFFFFFFFFFFFFFFFFFFF AND DUP2 MSTORE PUSH1 0x20 ADD PUSH1 0x0 DUP2 MSTORE PUSH1 0x20 ADD PUSH1 0x0 DUP2 MSTORE PUSH1 0x20 ADD PUSH1 0x0 DUP2 MSTORE PUSH1 0x20 ADD PUSH1 0x0 DUP2 MSTORE PUSH1 0x20 ADD PUSH1 0x0 DUP2 MSTORE PUSH1 0x20 ADD PUSH1 0x0 DUP2 MSTORE PUSH1 0x20 ADD PUSH1 0x60 DUP2 MSTORE PUSH1 0x20 ADD PUSH1 0x60 DUP2 MSTORE POP SWAP1 JUMP JUMPDEST DUP1 CALLDATALOAD PUSH20 0xFFFFFFFFFFFFFFFFFFFFFFFFFFFFFFFFFFFFFFFF DUP2 AND DUP2 EQ PUSH2 0x193 JUMPI PUSH1 0x0 DUP1 REVERT JUMPDEST PUSH1 0x0 PUSH1 0x20 DUP3 DUP5 SUB SLT ISZERO PUSH2 0xAFF JUMPI PUSH1 0x0 DUP1 REVERT JUMPDEST PUSH2 0xA09 DUP4 DUP4 PUSH2 0xAC9 JUMP JUMPDEST PUSH1 0x0 DUP1 PUSH1 0x40 DUP4 DUP6 SUB SLT ISZERO PUSH2 0xB1C JUMPI PUSH1 0x0 DUP1 REVERT JUMPDEST PUSH2 0xB26 DUP5 DUP5 PUSH2 0xAC9 JUMP JUMPDEST SWAP2 POP PUSH2 0xB35 DUP5 PUSH1 0x20 DUP6 ADD PUSH2 0xAC9 JUMP JUMPDEST SWAP1 POP SWAP3 POP SWAP3 SWAP1 POP JUMP JUMPDEST PUSH1 0x0 DUP1 PUSH1 0x0 PUSH1 0x60 DUP5 DUP7 SUB SLT ISZERO PUSH2 0xB53 JUMPI PUSH1 0x0 DUP1 REVERT JUMPDEST DUP4 CALLDATALOAD PUSH2 0xB5E DUP2 PUSH2 0x103C JUMP JUMPDEST SWAP3 POP PUSH1 0x20 DUP5 ADD CALLDATALOAD PUSH2 0xB6E DUP2 PUSH2 0x103C JUMP JUMPDEST SWAP3 SWAP6 SWAP3 SWAP5 POP POP POP PUSH1 0x40 SWAP2 SWAP1 SWAP2 ADD CALLDATALOAD SWAP1 JUMP JUMPDEST PUSH1 0x0 DUP1 PUSH1 0x40 DUP4 DUP6 SUB SLT ISZERO PUSH2 0xB92 JUMPI PUSH1 0x0 DUP1 REVERT JUMPDEST PUSH2 0xB9C DUP5 DUP5 PUSH2 0xAC9 JUMP JUMPDEST SWAP5 PUSH1 0x20 SWAP4 SWAP1 SWAP4 ADD CALLDATALOAD SWAP4 POP POP POP JUMP JUMPDEST PUSH1 0x0 PUSH1 0x20 DUP3 DUP5 SUB SLT ISZERO PUSH2 0xBBC JUMPI PUSH1 0x0 DUP1 REVERT JUMPDEST DUP2 CALLDATALOAD PUSH1 0xFF DUP2 AND DUP2 EQ PUSH2 0xA09 JUMPI PUSH1 0x0 DUP1 REVERT JUMPDEST PUSH20 0xFFFFFFFFFFFFFFFFFFFFFFFFFFFFFFFFFFFFFFFF AND SWAP1 MSTORE JUMP JUMPDEST PUSH1 0x0 DUP2 MLOAD DUP1 DUP5 MSTORE PUSH1 0x20 DUP5 ADD DUP1 DUP2 SWAP6 POP PUSH1 0x20 DUP4 MUL DUP2 ADD SWAP2 POP PUSH1 0x20 DUP6 ADD PUSH1 0x0 JUMPDEST DUP5 DUP2 LT ISZERO PUSH2 0xC33 JUMPI DUP3 DUP5 SUB DUP9 MSTORE PUSH2 0xC1D DUP5 DUP4 MLOAD PUSH2 0xC8B JUMP JUMPDEST PUSH1 0x20 SWAP9 DUP10 ADD SWAP9 SWAP1 SWAP5 POP SWAP2 SWAP1 SWAP2 ADD SWAP1 PUSH1 0x1 ADD PUSH2 0xC05 JUMP JUMPDEST POP SWAP2 SWAP7 SWAP6 POP POP POP POP POP POP JUMP JUMPDEST PUSH1 0x0 DUP2 MLOAD DUP1 DUP5 MSTORE PUSH1 0x20 DUP5 ADD DUP1 DUP2 SWAP6 POP PUSH1 0x20 DUP4 MUL DUP2 ADD SWAP2 POP PUSH1 0x20 DUP6 ADD PUSH1 0x0 JUMPDEST DUP5 DUP2 LT ISZERO PUSH2 0xC33 JUMPI DUP3 DUP5 SUB DUP9 MSTORE PUSH2 0xC75 DUP5 DUP4 MLOAD PUSH2 0xCD5 JUMP JUMPDEST PUSH1 0x20 SWAP9 DUP10 ADD SWAP9 SWAP1 SWAP5 POP SWAP2 SWAP1 SWAP2 ADD SWAP1 PUSH1 0x1 ADD PUSH2 0xC5D JUMP JUMPDEST PUSH1 0x0 DUP2 MLOAD DUP1 DUP5 MSTORE PUSH2 0xCA3 DUP2 PUSH1 0x20 DUP7 ADD PUSH1 0x20 DUP7 ADD PUSH2 0x100C JUMP JUMPDEST PUSH1 0x1F ADD PUSH32 0xFFFFFFFFFFFFFFFFFFFFFFFFFFFFFFFFFFFFFFFFFFFFFFFFFFFFFFFFFFFFFFE0 AND SWAP3 SWAP1 SWAP3 ADD PUSH1 0x20 ADD SWAP3 SWAP2 POP POP JUMP JUMPDEST PUSH1 0x0 PUSH2 0x180 PUSH2 0xCE5 DUP5 DUP5 MLOAD PUSH2 0xBCD JUMP JUMPDEST PUSH1 0x20 DUP4 ADD MLOAD PUSH2 0xCF7 PUSH1 0x20 DUP7 ADD DUP3 PUSH2 0xBCD JUMP JUMPDEST POP PUSH1 0x40 DUP4 ADD MLOAD PUSH2 0xD0A PUSH1 0x40 DUP7 ADD DUP3 PUSH2 0xBCD JUMP JUMPDEST POP PUSH1 0x60 DUP4 ADD MLOAD PUSH2 0xD1D PUSH1 0x60 DUP7 ADD DUP3 PUSH2 0xBCD JUMP JUMPDEST POP PUSH1 0x80 DUP4 ADD MLOAD PUSH1 0x80 DUP6 ADD MSTORE PUSH1 0xA0 DUP4 ADD MLOAD PUSH1 0xA0 DUP6 ADD MSTORE PUSH1 0xC0 DUP4 ADD MLOAD PUSH1 0xC0 DUP6 ADD MSTORE PUSH1 0xE0 DUP4 ADD MLOAD PUSH1 0xE0 DUP6 ADD MSTORE PUSH2 0x100 DUP1 DUP5 ADD MLOAD DUP2 DUP7 ADD MSTORE POP PUSH2 0x120 DUP1 DUP5 ADD MLOAD DUP2 DUP7 ADD MSTORE POP PUSH2 0x140 DUP1 DUP5 ADD MLOAD DUP3 DUP3 DUP8 ADD MSTORE PUSH2 0xD76 DUP4 DUP8 ADD DUP3 PUSH2 0xC8B JUMP JUMPDEST SWAP2 POP POP PUSH2 0x160 SWAP2 POP DUP2 DUP5 ADD MLOAD DUP6 DUP3 SUB DUP4 DUP8 ADD MSTORE PUSH2 0xD93 DUP3 DUP3 PUSH2 0xC8B JUMP JUMPDEST SWAP7 SWAP6 POP POP POP POP POP POP JUMP JUMPDEST PUSH1 0x0 DUP3 MLOAD PUSH2 0xDAF DUP2 DUP5 PUSH1 0x20 DUP8 ADD PUSH2 0x100C JUMP JUMPDEST SWAP2 SWAP1 SWAP2 ADD SWAP3 SWAP2 POP POP JUMP JUMPDEST PUSH32 0x4572726F7228737472696E672900000000000000000000000000000000000000 DUP2 MSTORE PUSH1 0xD ADD SWAP1 JUMP JUMPDEST PUSH20 0xFFFFFFFFFFFFFFFFFFFFFFFFFFFFFFFFFFFFFFFF SWAP3 SWAP1 SWAP3 AND DUP3 MSTORE ISZERO ISZERO PUSH1 0x20 DUP3 ADD MSTORE PUSH1 0x40 ADD SWAP1 JUMP JUMPDEST PUSH1 0x0 PUSH1 0x20 DUP3 MSTORE PUSH2 0xA09 PUSH1 0x20 DUP4 ADD DUP5 PUSH2 0xC3F JUMP JUMPDEST PUSH1 0x0 PUSH1 0x60 DUP3 MSTORE PUSH2 0xE30 PUSH1 0x60 DUP4 ADD DUP7 PUSH2 0xC3F JUMP JUMPDEST DUP3 DUP2 SUB PUSH1 0x20 DUP5 ADD MSTORE DUP1 DUP6 MLOAD DUP1 DUP4 MSTORE PUSH1 0x20 DUP4 ADD SWAP2 POP PUSH1 0x20 DUP8 ADD SWAP3 POP PUSH1 0x0 JUMPDEST DUP2 DUP2 LT ISZERO PUSH2 0xE6B JUMPI DUP4 MLOAD DUP4 MSTORE PUSH1 0x20 SWAP4 DUP5 ADD SWAP4 SWAP1 SWAP3 ADD SWAP2 PUSH1 0x1 ADD PUSH2 0xE4D JUMP JUMPDEST POP POP DUP4 DUP2 SUB PUSH1 0x40 DUP6 ADD MSTORE PUSH2 0xE7F DUP2 DUP7 PUSH2 0xBE7 JUMP JUMPDEST SWAP8 SWAP7 POP POP POP POP POP POP POP JUMP JUMPDEST PUSH1 0x0 PUSH1 0x60 DUP3 MSTORE PUSH2 0xE9D PUSH1 0x60 DUP4 ADD DUP7 PUSH2 0xC3F JUMP JUMPDEST PUSH1 0xFF DUP6 AND PUSH1 0x20 DUP5 ADD MSTORE DUP3 DUP2 SUB PUSH1 0x40 DUP5 ADD MSTORE PUSH2 0xD93 DUP2 DUP6 PUSH2 0xBE7 JUMP JUMPDEST SWAP1 ISZERO ISZERO DUP2 MSTORE PUSH1 0x20 ADD SWAP1 JUMP JUMPDEST PUSH1 0xFF SWAP2 SWAP1 SWAP2 AND DUP2 MSTORE PUSH1 0x20 ADD SWAP1 JUMP JUMPDEST PUSH1 0x20 DUP1 DUP3 MSTORE PUSH1 0x1A SWAP1 DUP3 ADD MSTORE PUSH32 0x45524332305F494E53554646494349454E545F42414C414E4345000000000000 PUSH1 0x40 DUP3 ADD MSTORE PUSH1 0x60 ADD SWAP1 JUMP JUMPDEST PUSH1 0x20 DUP1 DUP3 MSTORE PUSH1 0x10 SWAP1 DUP3 ADD MSTORE PUSH32 0x55494E543235365F4F564552464C4F5700000000000000000000000000000000 PUSH1 0x40 DUP3 ADD MSTORE PUSH1 0x60 ADD SWAP1 JUMP JUMPDEST PUSH1 0x20 DUP1 DUP3 MSTORE PUSH1 0x12 SWAP1 DUP3 ADD MSTORE PUSH32 0x5245454E5452414E43595F494C4C4547414C0000000000000000000000000000 PUSH1 0x40 DUP3 ADD MSTORE PUSH1 0x60 ADD SWAP1 JUMP JUMPDEST PUSH1 0x0 PUSH1 0x20 DUP3 MSTORE PUSH2 0xA09 PUSH1 0x20 DUP4 ADD DUP5 PUSH2 0xCD5 JUMP JUMPDEST PUSH1 0x0 PUSH1 0x60 DUP3 MSTORE PUSH2 0xF9C PUSH1 0x60 DUP4 ADD DUP7 PUSH2 0xCD5 JUMP JUMPDEST PUSH1 0xFF DUP6 AND PUSH1 0x20 DUP5 ADD MSTORE DUP3 DUP2 SUB PUSH1 0x40 DUP5 ADD MSTORE PUSH2 0xD93 DUP2 DUP6 PUSH2 0xC8B JUMP JUMPDEST PUSH1 0x0 PUSH1 0x80 DUP3 MSTORE PUSH2 0xFCA PUSH1 0x80 DUP4 ADD DUP8 PUSH2 0xCD5 JUMP JUMPDEST DUP3 DUP2 SUB PUSH1 0x20 DUP5 ADD MSTORE PUSH2 0xFDC DUP2 DUP8 PUSH2 0xCD5 JUMP JUMPDEST DUP4 DUP2 SUB PUSH1 0x40 DUP6 ADD MSTORE PUSH2 0xFEE DUP2 DUP8 PUSH2 0xC8B JUMP JUMPDEST SWAP2 POP POP DUP3 DUP2 SUB PUSH1 0x60 DUP5 ADD MSTORE PUSH2 0xE7F DUP2 DUP6 PUSH2 0xC8B JUMP JUMPDEST SWAP1 DUP2 MSTORE PUSH1 0x20 ADD SWAP1 JUMP JUMPDEST PUSH1 0x0 JUMPDEST DUP4 DUP2 LT ISZERO PUSH2 0x1027 JUMPI DUP2 DUP2 ADD MLOAD DUP4 DUP3 ADD MSTORE PUSH1 0x20 ADD PUSH2 0x100F JUMP JUMPDEST DUP4 DUP2 GT ISZERO PUSH2 0x1036 JUMPI PUSH1 0x0 DUP5 DUP5 ADD MSTORE JUMPDEST POP POP POP POP JUMP JUMPDEST PUSH20 0xFFFFFFFFFFFFFFFFFFFFFFFFFFFFFFFFFFFFFFFF DUP2 AND DUP2 EQ PUSH2 0x105E JUMPI PUSH1 0x0 DUP1 REVERT JUMPDEST POP JUMP INVALID LOG3 PUSH6 0x627A7A723058 KECCAK256 TIMESTAMP MUL PUSH25 0x59479D2D564863EB1E4B65382E5E9386A5218BA93FCF5515AA 0xab CALLVALUE 0x4d DUP1 PUSH13 0x6578706572696D656E74616CF5 PUSH5 0x736F6C6343 STOP SDIV EXP STOP BLOCKHASH "
            }
        }
    },
    "sourceTreeHashHex": "0x6f6b6ef66c4365791c28d2f5d690837a7566858bef952133819800138a453650",
    "compiler": {
        "name": "solc",
        "version": "soljson-v0.5.10+commit.5a6ea5b1.js",
        "settings": {
            "optimizer": {
                "enabled": true,
                "runs": 1000000,
                "details": {
                    "yul": true,
                    "deduplicate": true,
                    "cse": true,
                    "constantOptimizer": true
                }
            },
            "outputSelection": {
                "*": {
                    "*": [
                        "abi",
                        "devdoc",
                        "evm.bytecode.object",
                        "evm.bytecode.sourceMap",
                        "evm.deployedBytecode.object",
                        "evm.deployedBytecode.sourceMap"
                    ]
                }
            },
            "evmVersion": "constantinople",
            "remappings": [
                "@0x/contracts-exchange-libs=/Users/fabioberger/Documents/projects/0x_project/0x-monorepo-one/contracts/exchange/node_modules/@0x/contracts-exchange-libs",
                "@0x/contracts-utils=/Users/fabioberger/Documents/projects/0x_project/0x-monorepo-one/contracts/exchange/node_modules/@0x/contracts-utils",
                "@0x/contracts-erc20=/Users/fabioberger/Documents/projects/0x_project/0x-monorepo-one/contracts/exchange/node_modules/@0x/contracts-erc20"
            ]
        }
    }
}