{
    "schemaVersion": "2.0.0",
    "contractName": "TestExchangeInternals",
    "compilerOutput": {
        "abi": [
            {
                "constant": true,
                "inputs": [
                    {
                        "name": "numerator",
                        "type": "uint256"
                    },
                    {
                        "name": "denominator",
                        "type": "uint256"
                    },
                    {
                        "name": "target",
                        "type": "uint256"
                    }
                ],
                "name": "publicIsRoundingErrorFloor",
                "outputs": [
                    {
                        "name": "isError",
                        "type": "bool"
                    }
                ],
                "payable": false,
                "stateMutability": "pure",
                "type": "function"
            },
            {
                "constant": false,
                "inputs": [
                    {
                        "components": [
                            {
                                "name": "makerAddress",
                                "type": "address"
                            },
                            {
                                "name": "takerAddress",
                                "type": "address"
                            },
                            {
                                "name": "feeRecipientAddress",
                                "type": "address"
                            },
                            {
                                "name": "senderAddress",
                                "type": "address"
                            },
                            {
                                "name": "makerAssetAmount",
                                "type": "uint256"
                            },
                            {
                                "name": "takerAssetAmount",
                                "type": "uint256"
                            },
                            {
                                "name": "makerFee",
                                "type": "uint256"
                            },
                            {
                                "name": "takerFee",
                                "type": "uint256"
                            },
                            {
                                "name": "expirationTimeSeconds",
                                "type": "uint256"
                            },
                            {
                                "name": "salt",
                                "type": "uint256"
                            },
                            {
                                "name": "makerAssetData",
                                "type": "bytes"
                            },
                            {
                                "name": "takerAssetData",
                                "type": "bytes"
                            }
                        ],
                        "name": "order",
                        "type": "tuple"
                    },
                    {
                        "name": "takerAddress",
                        "type": "address"
                    },
                    {
                        "name": "orderHash",
                        "type": "bytes32"
                    },
                    {
                        "name": "orderTakerAssetFilledAmount",
                        "type": "uint256"
                    },
                    {
                        "components": [
                            {
                                "name": "makerAssetFilledAmount",
                                "type": "uint256"
                            },
                            {
                                "name": "takerAssetFilledAmount",
                                "type": "uint256"
                            },
                            {
                                "name": "makerFeePaid",
                                "type": "uint256"
                            },
                            {
                                "name": "takerFeePaid",
                                "type": "uint256"
                            }
                        ],
                        "name": "fillResults",
                        "type": "tuple"
                    }
                ],
                "name": "publicUpdateFilledState",
                "outputs": [],
                "payable": false,
                "stateMutability": "nonpayable",
                "type": "function"
            },
            {
                "constant": true,
                "inputs": [
                    {
                        "name": "numerator",
                        "type": "uint256"
                    },
                    {
                        "name": "denominator",
                        "type": "uint256"
                    },
                    {
                        "name": "target",
                        "type": "uint256"
                    }
                ],
                "name": "publicGetPartialAmountCeil",
                "outputs": [
                    {
                        "name": "partialAmount",
                        "type": "uint256"
                    }
                ],
                "payable": false,
                "stateMutability": "pure",
                "type": "function"
            },
            {
                "constant": true,
                "inputs": [
                    {
                        "name": "",
                        "type": "bytes32"
                    }
                ],
                "name": "filled",
                "outputs": [
                    {
                        "name": "",
                        "type": "uint256"
                    }
                ],
                "payable": false,
                "stateMutability": "view",
                "type": "function"
            },
            {
                "constant": false,
                "inputs": [
                    {
                        "components": [
                            {
                                "name": "makerAddress",
                                "type": "address"
                            },
                            {
                                "name": "takerAddress",
                                "type": "address"
                            },
                            {
                                "name": "feeRecipientAddress",
                                "type": "address"
                            },
                            {
                                "name": "senderAddress",
                                "type": "address"
                            },
                            {
                                "name": "makerAssetAmount",
                                "type": "uint256"
                            },
                            {
                                "name": "takerAssetAmount",
                                "type": "uint256"
                            },
                            {
                                "name": "makerFee",
                                "type": "uint256"
                            },
                            {
                                "name": "takerFee",
                                "type": "uint256"
                            },
                            {
                                "name": "expirationTimeSeconds",
                                "type": "uint256"
                            },
                            {
                                "name": "salt",
                                "type": "uint256"
                            },
                            {
                                "name": "makerAssetData",
                                "type": "bytes"
                            },
                            {
                                "name": "takerAssetData",
                                "type": "bytes"
                            }
                        ],
                        "name": "orders",
                        "type": "tuple[]"
                    },
                    {
                        "name": "takerAssetFillAmounts",
                        "type": "uint256[]"
                    },
                    {
                        "name": "signatures",
                        "type": "bytes[]"
                    }
                ],
                "name": "batchFillOrders",
                "outputs": [
                    {
                        "components": [
                            {
                                "name": "makerAssetFilledAmount",
                                "type": "uint256"
                            },
                            {
                                "name": "takerAssetFilledAmount",
                                "type": "uint256"
                            },
                            {
                                "name": "makerFeePaid",
                                "type": "uint256"
                            },
                            {
                                "name": "takerFeePaid",
                                "type": "uint256"
                            }
                        ],
                        "name": "totalFillResults",
                        "type": "tuple"
                    }
                ],
                "payable": false,
                "stateMutability": "nonpayable",
                "type": "function"
            },
            {
                "constant": true,
                "inputs": [
                    {
                        "name": "",
                        "type": "bytes32"
                    }
                ],
                "name": "cancelled",
                "outputs": [
                    {
                        "name": "",
                        "type": "bool"
                    }
                ],
                "payable": false,
                "stateMutability": "view",
                "type": "function"
            },
            {
                "constant": false,
                "inputs": [
                    {
                        "name": "hash",
                        "type": "bytes32"
                    },
                    {
                        "name": "signerAddress",
                        "type": "address"
                    },
                    {
                        "name": "signature",
                        "type": "bytes"
                    }
                ],
                "name": "preSign",
                "outputs": [],
                "payable": false,
                "stateMutability": "nonpayable",
                "type": "function"
            },
            {
                "constant": false,
                "inputs": [
                    {
                        "components": [
                            {
                                "name": "makerAddress",
                                "type": "address"
                            },
                            {
                                "name": "takerAddress",
                                "type": "address"
                            },
                            {
                                "name": "feeRecipientAddress",
                                "type": "address"
                            },
                            {
                                "name": "senderAddress",
                                "type": "address"
                            },
                            {
                                "name": "makerAssetAmount",
                                "type": "uint256"
                            },
                            {
                                "name": "takerAssetAmount",
                                "type": "uint256"
                            },
                            {
                                "name": "makerFee",
                                "type": "uint256"
                            },
                            {
                                "name": "takerFee",
                                "type": "uint256"
                            },
                            {
                                "name": "expirationTimeSeconds",
                                "type": "uint256"
                            },
                            {
                                "name": "salt",
                                "type": "uint256"
                            },
                            {
                                "name": "makerAssetData",
                                "type": "bytes"
                            },
                            {
                                "name": "takerAssetData",
                                "type": "bytes"
                            }
                        ],
                        "name": "leftOrder",
                        "type": "tuple"
                    },
                    {
                        "components": [
                            {
                                "name": "makerAddress",
                                "type": "address"
                            },
                            {
                                "name": "takerAddress",
                                "type": "address"
                            },
                            {
                                "name": "feeRecipientAddress",
                                "type": "address"
                            },
                            {
                                "name": "senderAddress",
                                "type": "address"
                            },
                            {
                                "name": "makerAssetAmount",
                                "type": "uint256"
                            },
                            {
                                "name": "takerAssetAmount",
                                "type": "uint256"
                            },
                            {
                                "name": "makerFee",
                                "type": "uint256"
                            },
                            {
                                "name": "takerFee",
                                "type": "uint256"
                            },
                            {
                                "name": "expirationTimeSeconds",
                                "type": "uint256"
                            },
                            {
                                "name": "salt",
                                "type": "uint256"
                            },
                            {
                                "name": "makerAssetData",
                                "type": "bytes"
                            },
                            {
                                "name": "takerAssetData",
                                "type": "bytes"
                            }
                        ],
                        "name": "rightOrder",
                        "type": "tuple"
                    },
                    {
                        "name": "leftSignature",
                        "type": "bytes"
                    },
                    {
                        "name": "rightSignature",
                        "type": "bytes"
                    }
                ],
                "name": "matchOrders",
                "outputs": [
                    {
                        "components": [
                            {
                                "components": [
                                    {
                                        "name": "makerAssetFilledAmount",
                                        "type": "uint256"
                                    },
                                    {
                                        "name": "takerAssetFilledAmount",
                                        "type": "uint256"
                                    },
                                    {
                                        "name": "makerFeePaid",
                                        "type": "uint256"
                                    },
                                    {
                                        "name": "takerFeePaid",
                                        "type": "uint256"
                                    }
                                ],
                                "name": "left",
                                "type": "tuple"
                            },
                            {
                                "components": [
                                    {
                                        "name": "makerAssetFilledAmount",
                                        "type": "uint256"
                                    },
                                    {
                                        "name": "takerAssetFilledAmount",
                                        "type": "uint256"
                                    },
                                    {
                                        "name": "makerFeePaid",
                                        "type": "uint256"
                                    },
                                    {
                                        "name": "takerFeePaid",
                                        "type": "uint256"
                                    }
                                ],
                                "name": "right",
                                "type": "tuple"
                            },
                            {
                                "name": "leftMakerAssetSpreadAmount",
                                "type": "uint256"
                            }
                        ],
                        "name": "matchedFillResults",
                        "type": "tuple"
                    }
                ],
                "payable": false,
                "stateMutability": "nonpayable",
                "type": "function"
            },
            {
                "constant": false,
                "inputs": [
                    {
                        "components": [
                            {
                                "name": "makerAddress",
                                "type": "address"
                            },
                            {
                                "name": "takerAddress",
                                "type": "address"
                            },
                            {
                                "name": "feeRecipientAddress",
                                "type": "address"
                            },
                            {
                                "name": "senderAddress",
                                "type": "address"
                            },
                            {
                                "name": "makerAssetAmount",
                                "type": "uint256"
                            },
                            {
                                "name": "takerAssetAmount",
                                "type": "uint256"
                            },
                            {
                                "name": "makerFee",
                                "type": "uint256"
                            },
                            {
                                "name": "takerFee",
                                "type": "uint256"
                            },
                            {
                                "name": "expirationTimeSeconds",
                                "type": "uint256"
                            },
                            {
                                "name": "salt",
                                "type": "uint256"
                            },
                            {
                                "name": "makerAssetData",
                                "type": "bytes"
                            },
                            {
                                "name": "takerAssetData",
                                "type": "bytes"
                            }
                        ],
                        "name": "order",
                        "type": "tuple"
                    },
                    {
                        "name": "takerAssetFillAmount",
                        "type": "uint256"
                    },
                    {
                        "name": "signature",
                        "type": "bytes"
                    }
                ],
                "name": "fillOrderNoThrow",
                "outputs": [
                    {
                        "components": [
                            {
                                "name": "makerAssetFilledAmount",
                                "type": "uint256"
                            },
                            {
                                "name": "takerAssetFilledAmount",
                                "type": "uint256"
                            },
                            {
                                "name": "makerFeePaid",
                                "type": "uint256"
                            },
                            {
                                "name": "takerFeePaid",
                                "type": "uint256"
                            }
                        ],
                        "name": "fillResults",
                        "type": "tuple"
                    }
                ],
                "payable": false,
                "stateMutability": "nonpayable",
                "type": "function"
            },
            {
                "constant": true,
                "inputs": [
                    {
                        "name": "",
                        "type": "bytes4"
                    }
                ],
                "name": "assetProxies",
                "outputs": [
                    {
                        "name": "",
                        "type": "address"
                    }
                ],
                "payable": false,
                "stateMutability": "view",
                "type": "function"
            },
            {
                "constant": false,
                "inputs": [
                    {
                        "components": [
                            {
                                "name": "makerAddress",
                                "type": "address"
                            },
                            {
                                "name": "takerAddress",
                                "type": "address"
                            },
                            {
                                "name": "feeRecipientAddress",
                                "type": "address"
                            },
                            {
                                "name": "senderAddress",
                                "type": "address"
                            },
                            {
                                "name": "makerAssetAmount",
                                "type": "uint256"
                            },
                            {
                                "name": "takerAssetAmount",
                                "type": "uint256"
                            },
                            {
                                "name": "makerFee",
                                "type": "uint256"
                            },
                            {
                                "name": "takerFee",
                                "type": "uint256"
                            },
                            {
                                "name": "expirationTimeSeconds",
                                "type": "uint256"
                            },
                            {
                                "name": "salt",
                                "type": "uint256"
                            },
                            {
                                "name": "makerAssetData",
                                "type": "bytes"
                            },
                            {
                                "name": "takerAssetData",
                                "type": "bytes"
                            }
                        ],
                        "name": "orders",
                        "type": "tuple[]"
                    }
                ],
                "name": "batchCancelOrders",
                "outputs": [],
                "payable": false,
                "stateMutability": "nonpayable",
                "type": "function"
            },
            {
                "constant": false,
                "inputs": [
                    {
                        "components": [
                            {
                                "name": "makerAddress",
                                "type": "address"
                            },
                            {
                                "name": "takerAddress",
                                "type": "address"
                            },
                            {
                                "name": "feeRecipientAddress",
                                "type": "address"
                            },
                            {
                                "name": "senderAddress",
                                "type": "address"
                            },
                            {
                                "name": "makerAssetAmount",
                                "type": "uint256"
                            },
                            {
                                "name": "takerAssetAmount",
                                "type": "uint256"
                            },
                            {
                                "name": "makerFee",
                                "type": "uint256"
                            },
                            {
                                "name": "takerFee",
                                "type": "uint256"
                            },
                            {
                                "name": "expirationTimeSeconds",
                                "type": "uint256"
                            },
                            {
                                "name": "salt",
                                "type": "uint256"
                            },
                            {
                                "name": "makerAssetData",
                                "type": "bytes"
                            },
                            {
                                "name": "takerAssetData",
                                "type": "bytes"
                            }
                        ],
                        "name": "orders",
                        "type": "tuple[]"
                    },
                    {
                        "name": "takerAssetFillAmounts",
                        "type": "uint256[]"
                    },
                    {
                        "name": "signatures",
                        "type": "bytes[]"
                    }
                ],
                "name": "batchFillOrKillOrders",
                "outputs": [
                    {
                        "components": [
                            {
                                "name": "makerAssetFilledAmount",
                                "type": "uint256"
                            },
                            {
                                "name": "takerAssetFilledAmount",
                                "type": "uint256"
                            },
                            {
                                "name": "makerFeePaid",
                                "type": "uint256"
                            },
                            {
                                "name": "takerFeePaid",
                                "type": "uint256"
                            }
                        ],
                        "name": "totalFillResults",
                        "type": "tuple"
                    }
                ],
                "payable": false,
                "stateMutability": "nonpayable",
                "type": "function"
            },
            {
                "constant": false,
                "inputs": [
                    {
                        "name": "targetOrderEpoch",
                        "type": "uint256"
                    }
                ],
                "name": "cancelOrdersUpTo",
                "outputs": [],
                "payable": false,
                "stateMutability": "nonpayable",
                "type": "function"
            },
            {
                "constant": false,
                "inputs": [
                    {
                        "components": [
                            {
                                "name": "makerAddress",
                                "type": "address"
                            },
                            {
                                "name": "takerAddress",
                                "type": "address"
                            },
                            {
                                "name": "feeRecipientAddress",
                                "type": "address"
                            },
                            {
                                "name": "senderAddress",
                                "type": "address"
                            },
                            {
                                "name": "makerAssetAmount",
                                "type": "uint256"
                            },
                            {
                                "name": "takerAssetAmount",
                                "type": "uint256"
                            },
                            {
                                "name": "makerFee",
                                "type": "uint256"
                            },
                            {
                                "name": "takerFee",
                                "type": "uint256"
                            },
                            {
                                "name": "expirationTimeSeconds",
                                "type": "uint256"
                            },
                            {
                                "name": "salt",
                                "type": "uint256"
                            },
                            {
                                "name": "makerAssetData",
                                "type": "bytes"
                            },
                            {
                                "name": "takerAssetData",
                                "type": "bytes"
                            }
                        ],
                        "name": "orders",
                        "type": "tuple[]"
                    },
                    {
                        "name": "takerAssetFillAmounts",
                        "type": "uint256[]"
                    },
                    {
                        "name": "signatures",
                        "type": "bytes[]"
                    }
                ],
                "name": "batchFillOrdersNoThrow",
                "outputs": [
                    {
                        "components": [
                            {
                                "name": "makerAssetFilledAmount",
                                "type": "uint256"
                            },
                            {
                                "name": "takerAssetFilledAmount",
                                "type": "uint256"
                            },
                            {
                                "name": "makerFeePaid",
                                "type": "uint256"
                            },
                            {
                                "name": "takerFeePaid",
                                "type": "uint256"
                            }
                        ],
                        "name": "totalFillResults",
                        "type": "tuple"
                    }
                ],
                "payable": false,
                "stateMutability": "nonpayable",
                "type": "function"
            },
            {
                "constant": true,
                "inputs": [
                    {
                        "name": "assetProxyId",
                        "type": "bytes4"
                    }
                ],
                "name": "getAssetProxy",
                "outputs": [
                    {
                        "name": "",
                        "type": "address"
                    }
                ],
                "payable": false,
                "stateMutability": "view",
                "type": "function"
            },
            {
                "constant": true,
                "inputs": [
                    {
                        "name": "",
                        "type": "bytes32"
                    }
                ],
                "name": "transactions",
                "outputs": [
                    {
                        "name": "",
                        "type": "bool"
                    }
                ],
                "payable": false,
                "stateMutability": "view",
                "type": "function"
            },
            {
                "constant": false,
                "inputs": [
                    {
                        "components": [
                            {
                                "name": "makerAddress",
                                "type": "address"
                            },
                            {
                                "name": "takerAddress",
                                "type": "address"
                            },
                            {
                                "name": "feeRecipientAddress",
                                "type": "address"
                            },
                            {
                                "name": "senderAddress",
                                "type": "address"
                            },
                            {
                                "name": "makerAssetAmount",
                                "type": "uint256"
                            },
                            {
                                "name": "takerAssetAmount",
                                "type": "uint256"
                            },
                            {
                                "name": "makerFee",
                                "type": "uint256"
                            },
                            {
                                "name": "takerFee",
                                "type": "uint256"
                            },
                            {
                                "name": "expirationTimeSeconds",
                                "type": "uint256"
                            },
                            {
                                "name": "salt",
                                "type": "uint256"
                            },
                            {
                                "name": "makerAssetData",
                                "type": "bytes"
                            },
                            {
                                "name": "takerAssetData",
                                "type": "bytes"
                            }
                        ],
                        "name": "order",
                        "type": "tuple"
                    },
                    {
                        "name": "takerAssetFillAmount",
                        "type": "uint256"
                    },
                    {
                        "name": "signature",
                        "type": "bytes"
                    }
                ],
                "name": "fillOrKillOrder",
                "outputs": [
                    {
                        "components": [
                            {
                                "name": "makerAssetFilledAmount",
                                "type": "uint256"
                            },
                            {
                                "name": "takerAssetFilledAmount",
                                "type": "uint256"
                            },
                            {
                                "name": "makerFeePaid",
                                "type": "uint256"
                            },
                            {
                                "name": "takerFeePaid",
                                "type": "uint256"
                            }
                        ],
                        "name": "fillResults",
                        "type": "tuple"
                    }
                ],
                "payable": false,
                "stateMutability": "nonpayable",
                "type": "function"
            },
            {
                "constant": true,
                "inputs": [
                    {
                        "components": [
                            {
                                "name": "makerAssetFilledAmount",
                                "type": "uint256"
                            },
                            {
                                "name": "takerAssetFilledAmount",
                                "type": "uint256"
                            },
                            {
                                "name": "makerFeePaid",
                                "type": "uint256"
                            },
                            {
                                "name": "takerFeePaid",
                                "type": "uint256"
                            }
                        ],
                        "name": "totalFillResults",
                        "type": "tuple"
                    },
                    {
                        "components": [
                            {
                                "name": "makerAssetFilledAmount",
                                "type": "uint256"
                            },
                            {
                                "name": "takerAssetFilledAmount",
                                "type": "uint256"
                            },
                            {
                                "name": "makerFeePaid",
                                "type": "uint256"
                            },
                            {
                                "name": "takerFeePaid",
                                "type": "uint256"
                            }
                        ],
                        "name": "singleFillResults",
                        "type": "tuple"
                    }
                ],
                "name": "publicAddFillResults",
                "outputs": [
                    {
                        "components": [
                            {
                                "name": "makerAssetFilledAmount",
                                "type": "uint256"
                            },
                            {
                                "name": "takerAssetFilledAmount",
                                "type": "uint256"
                            },
                            {
                                "name": "makerFeePaid",
                                "type": "uint256"
                            },
                            {
                                "name": "takerFeePaid",
                                "type": "uint256"
                            }
                        ],
                        "name": "",
                        "type": "tuple"
                    }
                ],
                "payable": false,
                "stateMutability": "pure",
                "type": "function"
            },
            {
                "constant": true,
                "inputs": [
                    {
                        "name": "numerator",
                        "type": "uint256"
                    },
                    {
                        "name": "denominator",
                        "type": "uint256"
                    },
                    {
                        "name": "target",
                        "type": "uint256"
                    }
                ],
                "name": "publicIsRoundingErrorCeil",
                "outputs": [
                    {
                        "name": "isError",
                        "type": "bool"
                    }
                ],
                "payable": false,
                "stateMutability": "pure",
                "type": "function"
            },
            {
                "constant": false,
                "inputs": [
                    {
                        "name": "validatorAddress",
                        "type": "address"
                    },
                    {
                        "name": "approval",
                        "type": "bool"
                    }
                ],
                "name": "setSignatureValidatorApproval",
                "outputs": [],
                "payable": false,
                "stateMutability": "nonpayable",
                "type": "function"
            },
            {
                "constant": true,
                "inputs": [
                    {
                        "name": "",
                        "type": "address"
                    },
                    {
                        "name": "",
                        "type": "address"
                    }
                ],
                "name": "allowedValidators",
                "outputs": [
                    {
                        "name": "",
                        "type": "bool"
                    }
                ],
                "payable": false,
                "stateMutability": "view",
                "type": "function"
            },
            {
                "constant": false,
                "inputs": [
                    {
                        "components": [
                            {
                                "name": "makerAddress",
                                "type": "address"
                            },
                            {
                                "name": "takerAddress",
                                "type": "address"
                            },
                            {
                                "name": "feeRecipientAddress",
                                "type": "address"
                            },
                            {
                                "name": "senderAddress",
                                "type": "address"
                            },
                            {
                                "name": "makerAssetAmount",
                                "type": "uint256"
                            },
                            {
                                "name": "takerAssetAmount",
                                "type": "uint256"
                            },
                            {
                                "name": "makerFee",
                                "type": "uint256"
                            },
                            {
                                "name": "takerFee",
                                "type": "uint256"
                            },
                            {
                                "name": "expirationTimeSeconds",
                                "type": "uint256"
                            },
                            {
                                "name": "salt",
                                "type": "uint256"
                            },
                            {
                                "name": "makerAssetData",
                                "type": "bytes"
                            },
                            {
                                "name": "takerAssetData",
                                "type": "bytes"
                            }
                        ],
                        "name": "orders",
                        "type": "tuple[]"
                    },
                    {
                        "name": "takerAssetFillAmount",
                        "type": "uint256"
                    },
                    {
                        "name": "signatures",
                        "type": "bytes[]"
                    }
                ],
                "name": "marketSellOrders",
                "outputs": [
                    {
                        "components": [
                            {
                                "name": "makerAssetFilledAmount",
                                "type": "uint256"
                            },
                            {
                                "name": "takerAssetFilledAmount",
                                "type": "uint256"
                            },
                            {
                                "name": "makerFeePaid",
                                "type": "uint256"
                            },
                            {
                                "name": "takerFeePaid",
                                "type": "uint256"
                            }
                        ],
                        "name": "totalFillResults",
                        "type": "tuple"
                    }
                ],
                "payable": false,
                "stateMutability": "nonpayable",
                "type": "function"
            },
            {
                "constant": true,
                "inputs": [
                    {
                        "components": [
                            {
                                "name": "makerAddress",
                                "type": "address"
                            },
                            {
                                "name": "takerAddress",
                                "type": "address"
                            },
                            {
                                "name": "feeRecipientAddress",
                                "type": "address"
                            },
                            {
                                "name": "senderAddress",
                                "type": "address"
                            },
                            {
                                "name": "makerAssetAmount",
                                "type": "uint256"
                            },
                            {
                                "name": "takerAssetAmount",
                                "type": "uint256"
                            },
                            {
                                "name": "makerFee",
                                "type": "uint256"
                            },
                            {
                                "name": "takerFee",
                                "type": "uint256"
                            },
                            {
                                "name": "expirationTimeSeconds",
                                "type": "uint256"
                            },
                            {
                                "name": "salt",
                                "type": "uint256"
                            },
                            {
                                "name": "makerAssetData",
                                "type": "bytes"
                            },
                            {
                                "name": "takerAssetData",
                                "type": "bytes"
                            }
                        ],
                        "name": "orders",
                        "type": "tuple[]"
                    }
                ],
                "name": "getOrdersInfo",
                "outputs": [
                    {
                        "components": [
                            {
                                "name": "orderStatus",
                                "type": "uint8"
                            },
                            {
                                "name": "orderHash",
                                "type": "bytes32"
                            },
                            {
                                "name": "orderTakerAssetFilledAmount",
                                "type": "uint256"
                            }
                        ],
                        "name": "",
                        "type": "tuple[]"
                    }
                ],
                "payable": false,
                "stateMutability": "view",
                "type": "function"
            },
            {
                "constant": true,
                "inputs": [
                    {
                        "name": "",
                        "type": "bytes32"
                    },
                    {
                        "name": "",
                        "type": "address"
                    }
                ],
                "name": "preSigned",
                "outputs": [
                    {
                        "name": "",
                        "type": "bool"
                    }
                ],
                "payable": false,
                "stateMutability": "view",
                "type": "function"
            },
            {
                "constant": true,
                "inputs": [],
                "name": "owner",
                "outputs": [
                    {
                        "name": "",
                        "type": "address"
                    }
                ],
                "payable": false,
                "stateMutability": "view",
                "type": "function"
            },
            {
                "constant": true,
                "inputs": [
                    {
                        "name": "hash",
                        "type": "bytes32"
                    },
                    {
                        "name": "signerAddress",
                        "type": "address"
                    },
                    {
                        "name": "signature",
                        "type": "bytes"
                    }
                ],
                "name": "isValidSignature",
                "outputs": [
                    {
                        "name": "isValid",
                        "type": "bool"
                    }
                ],
                "payable": false,
                "stateMutability": "view",
                "type": "function"
            },
            {
                "constant": false,
                "inputs": [
                    {
                        "components": [
                            {
                                "name": "makerAddress",
                                "type": "address"
                            },
                            {
                                "name": "takerAddress",
                                "type": "address"
                            },
                            {
                                "name": "feeRecipientAddress",
                                "type": "address"
                            },
                            {
                                "name": "senderAddress",
                                "type": "address"
                            },
                            {
                                "name": "makerAssetAmount",
                                "type": "uint256"
                            },
                            {
                                "name": "takerAssetAmount",
                                "type": "uint256"
                            },
                            {
                                "name": "makerFee",
                                "type": "uint256"
                            },
                            {
                                "name": "takerFee",
                                "type": "uint256"
                            },
                            {
                                "name": "expirationTimeSeconds",
                                "type": "uint256"
                            },
                            {
                                "name": "salt",
                                "type": "uint256"
                            },
                            {
                                "name": "makerAssetData",
                                "type": "bytes"
                            },
                            {
                                "name": "takerAssetData",
                                "type": "bytes"
                            }
                        ],
                        "name": "orders",
                        "type": "tuple[]"
                    },
                    {
                        "name": "makerAssetFillAmount",
                        "type": "uint256"
                    },
                    {
                        "name": "signatures",
                        "type": "bytes[]"
                    }
                ],
                "name": "marketBuyOrdersNoThrow",
                "outputs": [
                    {
                        "components": [
                            {
                                "name": "makerAssetFilledAmount",
                                "type": "uint256"
                            },
                            {
                                "name": "takerAssetFilledAmount",
                                "type": "uint256"
                            },
                            {
                                "name": "makerFeePaid",
                                "type": "uint256"
                            },
                            {
                                "name": "takerFeePaid",
                                "type": "uint256"
                            }
                        ],
                        "name": "totalFillResults",
                        "type": "tuple"
                    }
                ],
                "payable": false,
                "stateMutability": "nonpayable",
                "type": "function"
            },
            {
                "constant": false,
                "inputs": [
                    {
                        "components": [
                            {
                                "name": "makerAddress",
                                "type": "address"
                            },
                            {
                                "name": "takerAddress",
                                "type": "address"
                            },
                            {
                                "name": "feeRecipientAddress",
                                "type": "address"
                            },
                            {
                                "name": "senderAddress",
                                "type": "address"
                            },
                            {
                                "name": "makerAssetAmount",
                                "type": "uint256"
                            },
                            {
                                "name": "takerAssetAmount",
                                "type": "uint256"
                            },
                            {
                                "name": "makerFee",
                                "type": "uint256"
                            },
                            {
                                "name": "takerFee",
                                "type": "uint256"
                            },
                            {
                                "name": "expirationTimeSeconds",
                                "type": "uint256"
                            },
                            {
                                "name": "salt",
                                "type": "uint256"
                            },
                            {
                                "name": "makerAssetData",
                                "type": "bytes"
                            },
                            {
                                "name": "takerAssetData",
                                "type": "bytes"
                            }
                        ],
                        "name": "order",
                        "type": "tuple"
                    },
                    {
                        "name": "takerAssetFillAmount",
                        "type": "uint256"
                    },
                    {
                        "name": "signature",
                        "type": "bytes"
                    }
                ],
                "name": "fillOrder",
                "outputs": [
                    {
                        "components": [
                            {
                                "name": "makerAssetFilledAmount",
                                "type": "uint256"
                            },
                            {
                                "name": "takerAssetFilledAmount",
                                "type": "uint256"
                            },
                            {
                                "name": "makerFeePaid",
                                "type": "uint256"
                            },
                            {
                                "name": "takerFeePaid",
                                "type": "uint256"
                            }
                        ],
                        "name": "fillResults",
                        "type": "tuple"
                    }
                ],
                "payable": false,
                "stateMutability": "nonpayable",
                "type": "function"
            },
            {
                "constant": true,
                "inputs": [
                    {
                        "name": "numerator",
                        "type": "uint256"
                    },
                    {
                        "name": "denominator",
                        "type": "uint256"
                    },
                    {
                        "name": "target",
                        "type": "uint256"
                    }
                ],
                "name": "publicGetPartialAmountFloor",
                "outputs": [
                    {
                        "name": "partialAmount",
                        "type": "uint256"
                    }
                ],
                "payable": false,
                "stateMutability": "pure",
                "type": "function"
            },
            {
                "constant": false,
                "inputs": [
                    {
                        "name": "salt",
                        "type": "uint256"
                    },
                    {
                        "name": "signerAddress",
                        "type": "address"
                    },
                    {
                        "name": "data",
                        "type": "bytes"
                    },
                    {
                        "name": "signature",
                        "type": "bytes"
                    }
                ],
                "name": "executeTransaction",
                "outputs": [],
                "payable": false,
                "stateMutability": "nonpayable",
                "type": "function"
            },
            {
                "constant": false,
                "inputs": [
                    {
                        "name": "assetProxy",
                        "type": "address"
                    }
                ],
                "name": "registerAssetProxy",
                "outputs": [],
                "payable": false,
                "stateMutability": "nonpayable",
                "type": "function"
            },
            {
                "constant": true,
                "inputs": [
                    {
                        "components": [
                            {
                                "name": "makerAddress",
                                "type": "address"
                            },
                            {
                                "name": "takerAddress",
                                "type": "address"
                            },
                            {
                                "name": "feeRecipientAddress",
                                "type": "address"
                            },
                            {
                                "name": "senderAddress",
                                "type": "address"
                            },
                            {
                                "name": "makerAssetAmount",
                                "type": "uint256"
                            },
                            {
                                "name": "takerAssetAmount",
                                "type": "uint256"
                            },
                            {
                                "name": "makerFee",
                                "type": "uint256"
                            },
                            {
                                "name": "takerFee",
                                "type": "uint256"
                            },
                            {
                                "name": "expirationTimeSeconds",
                                "type": "uint256"
                            },
                            {
                                "name": "salt",
                                "type": "uint256"
                            },
                            {
                                "name": "makerAssetData",
                                "type": "bytes"
                            },
                            {
                                "name": "takerAssetData",
                                "type": "bytes"
                            }
                        ],
                        "name": "order",
                        "type": "tuple"
                    }
                ],
                "name": "getOrderInfo",
                "outputs": [
                    {
                        "components": [
                            {
                                "name": "orderStatus",
                                "type": "uint8"
                            },
                            {
                                "name": "orderHash",
                                "type": "bytes32"
                            },
                            {
                                "name": "orderTakerAssetFilledAmount",
                                "type": "uint256"
                            }
                        ],
                        "name": "orderInfo",
                        "type": "tuple"
                    }
                ],
                "payable": false,
                "stateMutability": "view",
                "type": "function"
            },
            {
                "constant": false,
                "inputs": [
                    {
                        "components": [
                            {
                                "name": "makerAddress",
                                "type": "address"
                            },
                            {
                                "name": "takerAddress",
                                "type": "address"
                            },
                            {
                                "name": "feeRecipientAddress",
                                "type": "address"
                            },
                            {
                                "name": "senderAddress",
                                "type": "address"
                            },
                            {
                                "name": "makerAssetAmount",
                                "type": "uint256"
                            },
                            {
                                "name": "takerAssetAmount",
                                "type": "uint256"
                            },
                            {
                                "name": "makerFee",
                                "type": "uint256"
                            },
                            {
                                "name": "takerFee",
                                "type": "uint256"
                            },
                            {
                                "name": "expirationTimeSeconds",
                                "type": "uint256"
                            },
                            {
                                "name": "salt",
                                "type": "uint256"
                            },
                            {
                                "name": "makerAssetData",
                                "type": "bytes"
                            },
                            {
                                "name": "takerAssetData",
                                "type": "bytes"
                            }
                        ],
                        "name": "order",
                        "type": "tuple"
                    }
                ],
                "name": "cancelOrder",
                "outputs": [],
                "payable": false,
                "stateMutability": "nonpayable",
                "type": "function"
            },
            {
                "constant": true,
                "inputs": [
                    {
                        "name": "",
                        "type": "address"
                    },
                    {
                        "name": "",
                        "type": "address"
                    }
                ],
                "name": "orderEpoch",
                "outputs": [
                    {
                        "name": "",
                        "type": "uint256"
                    }
                ],
                "payable": false,
                "stateMutability": "view",
                "type": "function"
            },
            {
                "constant": true,
                "inputs": [],
                "name": "ZRX_ASSET_DATA",
                "outputs": [
                    {
                        "name": "",
                        "type": "bytes"
                    }
                ],
                "payable": false,
                "stateMutability": "view",
                "type": "function"
            },
            {
                "constant": false,
                "inputs": [
                    {
                        "components": [
                            {
                                "name": "makerAddress",
                                "type": "address"
                            },
                            {
                                "name": "takerAddress",
                                "type": "address"
                            },
                            {
                                "name": "feeRecipientAddress",
                                "type": "address"
                            },
                            {
                                "name": "senderAddress",
                                "type": "address"
                            },
                            {
                                "name": "makerAssetAmount",
                                "type": "uint256"
                            },
                            {
                                "name": "takerAssetAmount",
                                "type": "uint256"
                            },
                            {
                                "name": "makerFee",
                                "type": "uint256"
                            },
                            {
                                "name": "takerFee",
                                "type": "uint256"
                            },
                            {
                                "name": "expirationTimeSeconds",
                                "type": "uint256"
                            },
                            {
                                "name": "salt",
                                "type": "uint256"
                            },
                            {
                                "name": "makerAssetData",
                                "type": "bytes"
                            },
                            {
                                "name": "takerAssetData",
                                "type": "bytes"
                            }
                        ],
                        "name": "orders",
                        "type": "tuple[]"
                    },
                    {
                        "name": "takerAssetFillAmount",
                        "type": "uint256"
                    },
                    {
                        "name": "signatures",
                        "type": "bytes[]"
                    }
                ],
                "name": "marketSellOrdersNoThrow",
                "outputs": [
                    {
                        "components": [
                            {
                                "name": "makerAssetFilledAmount",
                                "type": "uint256"
                            },
                            {
                                "name": "takerAssetFilledAmount",
                                "type": "uint256"
                            },
                            {
                                "name": "makerFeePaid",
                                "type": "uint256"
                            },
                            {
                                "name": "takerFeePaid",
                                "type": "uint256"
                            }
                        ],
                        "name": "totalFillResults",
                        "type": "tuple"
                    }
                ],
                "payable": false,
                "stateMutability": "nonpayable",
                "type": "function"
            },
            {
                "constant": true,
                "inputs": [
                    {
                        "name": "numerator",
                        "type": "uint256"
                    },
                    {
                        "name": "denominator",
                        "type": "uint256"
                    },
                    {
                        "name": "target",
                        "type": "uint256"
                    }
                ],
                "name": "publicSafeGetPartialAmountFloor",
                "outputs": [
                    {
                        "name": "partialAmount",
                        "type": "uint256"
                    }
                ],
                "payable": false,
                "stateMutability": "pure",
                "type": "function"
            },
            {
                "constant": true,
                "inputs": [
                    {
                        "name": "numerator",
                        "type": "uint256"
                    },
                    {
                        "name": "denominator",
                        "type": "uint256"
                    },
                    {
                        "name": "target",
                        "type": "uint256"
                    }
                ],
                "name": "publicSafeGetPartialAmountCeil",
                "outputs": [
                    {
                        "name": "partialAmount",
                        "type": "uint256"
                    }
                ],
                "payable": false,
                "stateMutability": "pure",
                "type": "function"
            },
            {
                "constant": true,
                "inputs": [
                    {
                        "components": [
                            {
                                "name": "makerAddress",
                                "type": "address"
                            },
                            {
                                "name": "takerAddress",
                                "type": "address"
                            },
                            {
                                "name": "feeRecipientAddress",
                                "type": "address"
                            },
                            {
                                "name": "senderAddress",
                                "type": "address"
                            },
                            {
                                "name": "makerAssetAmount",
                                "type": "uint256"
                            },
                            {
                                "name": "takerAssetAmount",
                                "type": "uint256"
                            },
                            {
                                "name": "makerFee",
                                "type": "uint256"
                            },
                            {
                                "name": "takerFee",
                                "type": "uint256"
                            },
                            {
                                "name": "expirationTimeSeconds",
                                "type": "uint256"
                            },
                            {
                                "name": "salt",
                                "type": "uint256"
                            },
                            {
                                "name": "makerAssetData",
                                "type": "bytes"
                            },
                            {
                                "name": "takerAssetData",
                                "type": "bytes"
                            }
                        ],
                        "name": "order",
                        "type": "tuple"
                    },
                    {
                        "name": "takerAssetFilledAmount",
                        "type": "uint256"
                    }
                ],
                "name": "publicCalculateFillResults",
                "outputs": [
                    {
                        "components": [
                            {
                                "name": "makerAssetFilledAmount",
                                "type": "uint256"
                            },
                            {
                                "name": "takerAssetFilledAmount",
                                "type": "uint256"
                            },
                            {
                                "name": "makerFeePaid",
                                "type": "uint256"
                            },
                            {
                                "name": "takerFeePaid",
                                "type": "uint256"
                            }
                        ],
                        "name": "fillResults",
                        "type": "tuple"
                    }
                ],
                "payable": false,
                "stateMutability": "pure",
                "type": "function"
            },
            {
                "constant": true,
                "inputs": [],
                "name": "EIP712_DOMAIN_HASH",
                "outputs": [
                    {
                        "name": "",
                        "type": "bytes32"
                    }
                ],
                "payable": false,
                "stateMutability": "view",
                "type": "function"
            },
            {
                "constant": false,
                "inputs": [
                    {
                        "components": [
                            {
                                "name": "makerAddress",
                                "type": "address"
                            },
                            {
                                "name": "takerAddress",
                                "type": "address"
                            },
                            {
                                "name": "feeRecipientAddress",
                                "type": "address"
                            },
                            {
                                "name": "senderAddress",
                                "type": "address"
                            },
                            {
                                "name": "makerAssetAmount",
                                "type": "uint256"
                            },
                            {
                                "name": "takerAssetAmount",
                                "type": "uint256"
                            },
                            {
                                "name": "makerFee",
                                "type": "uint256"
                            },
                            {
                                "name": "takerFee",
                                "type": "uint256"
                            },
                            {
                                "name": "expirationTimeSeconds",
                                "type": "uint256"
                            },
                            {
                                "name": "salt",
                                "type": "uint256"
                            },
                            {
                                "name": "makerAssetData",
                                "type": "bytes"
                            },
                            {
                                "name": "takerAssetData",
                                "type": "bytes"
                            }
                        ],
                        "name": "orders",
                        "type": "tuple[]"
                    },
                    {
                        "name": "makerAssetFillAmount",
                        "type": "uint256"
                    },
                    {
                        "name": "signatures",
                        "type": "bytes[]"
                    }
                ],
                "name": "marketBuyOrders",
                "outputs": [
                    {
                        "components": [
                            {
                                "name": "makerAssetFilledAmount",
                                "type": "uint256"
                            },
                            {
                                "name": "takerAssetFilledAmount",
                                "type": "uint256"
                            },
                            {
                                "name": "makerFeePaid",
                                "type": "uint256"
                            },
                            {
                                "name": "takerFeePaid",
                                "type": "uint256"
                            }
                        ],
                        "name": "totalFillResults",
                        "type": "tuple"
                    }
                ],
                "payable": false,
                "stateMutability": "nonpayable",
                "type": "function"
            },
            {
                "constant": true,
                "inputs": [],
                "name": "currentContextAddress",
                "outputs": [
                    {
                        "name": "",
                        "type": "address"
                    }
                ],
                "payable": false,
                "stateMutability": "view",
                "type": "function"
            },
            {
                "constant": false,
                "inputs": [
                    {
                        "name": "newOwner",
                        "type": "address"
                    }
                ],
                "name": "transferOwnership",
                "outputs": [],
                "payable": false,
                "stateMutability": "nonpayable",
                "type": "function"
            },
            {
                "constant": true,
                "inputs": [],
                "name": "VERSION",
                "outputs": [
                    {
                        "name": "",
                        "type": "string"
                    }
                ],
                "payable": false,
                "stateMutability": "view",
                "type": "function"
            },
            {
                "inputs": [],
                "payable": false,
                "stateMutability": "nonpayable",
                "type": "constructor"
            },
            {
                "anonymous": false,
                "inputs": [
                    {
                        "indexed": true,
                        "name": "signerAddress",
                        "type": "address"
                    },
                    {
                        "indexed": true,
                        "name": "validatorAddress",
                        "type": "address"
                    },
                    {
                        "indexed": false,
                        "name": "approved",
                        "type": "bool"
                    }
                ],
                "name": "SignatureValidatorApproval",
                "type": "event"
            },
            {
                "anonymous": false,
                "inputs": [
                    {
                        "indexed": true,
                        "name": "makerAddress",
                        "type": "address"
                    },
                    {
                        "indexed": true,
                        "name": "feeRecipientAddress",
                        "type": "address"
                    },
                    {
                        "indexed": false,
                        "name": "takerAddress",
                        "type": "address"
                    },
                    {
                        "indexed": false,
                        "name": "senderAddress",
                        "type": "address"
                    },
                    {
                        "indexed": false,
                        "name": "makerAssetFilledAmount",
                        "type": "uint256"
                    },
                    {
                        "indexed": false,
                        "name": "takerAssetFilledAmount",
                        "type": "uint256"
                    },
                    {
                        "indexed": false,
                        "name": "makerFeePaid",
                        "type": "uint256"
                    },
                    {
                        "indexed": false,
                        "name": "takerFeePaid",
                        "type": "uint256"
                    },
                    {
                        "indexed": true,
                        "name": "orderHash",
                        "type": "bytes32"
                    },
                    {
                        "indexed": false,
                        "name": "makerAssetData",
                        "type": "bytes"
                    },
                    {
                        "indexed": false,
                        "name": "takerAssetData",
                        "type": "bytes"
                    }
                ],
                "name": "Fill",
                "type": "event"
            },
            {
                "anonymous": false,
                "inputs": [
                    {
                        "indexed": true,
                        "name": "makerAddress",
                        "type": "address"
                    },
                    {
                        "indexed": true,
                        "name": "feeRecipientAddress",
                        "type": "address"
                    },
                    {
                        "indexed": false,
                        "name": "senderAddress",
                        "type": "address"
                    },
                    {
                        "indexed": true,
                        "name": "orderHash",
                        "type": "bytes32"
                    },
                    {
                        "indexed": false,
                        "name": "makerAssetData",
                        "type": "bytes"
                    },
                    {
                        "indexed": false,
                        "name": "takerAssetData",
                        "type": "bytes"
                    }
                ],
                "name": "Cancel",
                "type": "event"
            },
            {
                "anonymous": false,
                "inputs": [
                    {
                        "indexed": true,
                        "name": "makerAddress",
                        "type": "address"
                    },
                    {
                        "indexed": true,
                        "name": "senderAddress",
                        "type": "address"
                    },
                    {
                        "indexed": false,
                        "name": "orderEpoch",
                        "type": "uint256"
                    }
                ],
                "name": "CancelUpTo",
                "type": "event"
            },
            {
                "anonymous": false,
                "inputs": [
                    {
                        "indexed": false,
                        "name": "id",
                        "type": "bytes4"
                    },
                    {
                        "indexed": false,
                        "name": "assetProxy",
                        "type": "address"
                    }
                ],
                "name": "AssetProxyRegistered",
                "type": "event"
            }
        ],
        "evm": {
            "bytecode": {
                "linkReferences": {},
                "object": "0x60806040526000805460ff191690553480156200001b57600080fd5b506040805160208101918290526000808252909182916200003f9160019162000154565b5050604051602001620000529062000214565b60408051601f1981840301815282825280516020918201208383018352600b84527f30782050726f746f636f6c0000000000000000000000000000000000000000009382019390935281518083018352600181527f32000000000000000000000000000000000000000000000000000000000000009082015290516200012092917ff0f24618f4c4be1e62e026fb039a20ef96f4495294817d1027ffaa6d1f70e61e917fad7c5bef027816a800da1736444fb58a807ef4c9603b7848673f7e3a68eb14a591309101620001f9565b60408051601f19818403018152919052805160209091012060025550600380546001600160a01b03191633179055620002d5565b828054600181600116156101000203166002900490600052602060002090601f016020900481019282601f106200019757805160ff1916838001178555620001c7565b82800160010185558215620001c7579182015b82811115620001c7578251825591602001919060010190620001aa565b50620001d5929150620001d9565b5090565b620001f691905b80821115620001d55760008155600101620001e0565b90565b93845260208401929092526040830152606082015260800190565b7f454950373132446f6d61696e280000000000000000000000000000000000000081527f737472696e67206e616d652c0000000000000000000000000000000000000000600d8201527f737472696e672076657273696f6e2c000000000000000000000000000000000060198201527f6164647265737320766572696679696e67436f6e74726163740000000000000060288201527f2900000000000000000000000000000000000000000000000000000000000000604182015260420190565b6154fc80620002e56000396000f3fe608060405234801561001057600080fd5b50600436106102f45760003560e01c80637e9d74dc11610191578063d9bfa73e116100e3578063e0b701e311610097578063eea086ba11610071578063eea086ba14610656578063f2fde38b1461065e578063ffa1ad7414610671576102f4565b8063e0b701e314610628578063e306f7791461063b578063e5fa431b14610643576102f4565b8063dd1c7d18116100c8578063dd1c7d18146105ef578063de30200d14610602578063e0acd33d14610615576102f4565b8063d9bfa73e146105c7578063db123b1a146105da576102f4565b8063b4be83d511610145578063c585bb931161011f578063c585bb9314610581578063c75e0a8114610594578063d46b02c3146105b4576102f4565b8063b4be83d514610548578063be7ada1e1461055b578063bfc8bfce1461056e576102f4565b80638da5cb5b116101765780638da5cb5b1461051a5780639363470214610522578063a3e2038014610535576102f4565b80637e9d74dc146104e757806382c174d014610507576102f4565b80634d0ae5461161024a57806364a3bc15116101fe57806377fcce68116101d857806377fcce68146104ae5780637b8e3514146104c15780637e1d9808146104d4576102f4565b806364a3bc151461047557806366758d7b14610488578063679d2f9a1461049b576102f4565b806350dde1901161022f57806350dde1901461043c578063607041081461044f578063642f2eaf14610462576102f4565b80634d0ae546146104165780634f9559b114610429576102f4565b80632ac12622116102ac5780633e228bae116102865780633e228bae146103d05780633fd3c997146103e35780634ac1478214610403576102f4565b80632ac126221461038a5780633683ef8e1461039d5780633c28d861146103b0576102f4565b806320777f70116102dd57806320777f7014610337578063288cdc9114610357578063297bb70b1461036a576102f4565b80631be23901146102f95780631ea1e3d814610322575b600080fd5b61030c6103073660046145fe565b610679565b6040516103199190614b3d565b60405180910390f35b6103356103303660046143b0565b610690565b005b61034a6103453660046145fe565b6106a4565b6040516103199190614b48565b61034a61036536600461422c565b6106b1565b61037d6103783660046140fd565b6106c3565b60405161031991906153aa565b61030c61039836600461422c565b6107d9565b6103356103ab36600461426a565b6107ee565b6103c36103be366004614425565b6108df565b60405161031991906153b8565b61037d6103de366004614513565b610a77565b6103f66103f1366004614314565b610acc565b6040516103199190614a0f565b6103356104113660046140c0565b610af4565b61037d6104243660046140fd565b610bb8565b61033561043736600461422c565b610c94565b61037d61044a3660046140fd565b610e41565b6103f661045d366004614314565b610eb6565b61030c61047036600461422c565b610f04565b61037d610483366004614513565b610f19565b61037d61049636600461434e565b610fc4565b61030c6104a93660046145fe565b610fdf565b6103356104bc366004614083565b610fec565b61030c6104cf36600461404e565b611125565b61037d6104e23660046141d9565b611145565b6104fa6104f53660046140c0565b611296565b6040516103199190614aef565b61030c610515366004614245565b61132a565b6103f661134a565b61030c6105303660046142c5565b611366565b61037d6105433660046141d9565b6117e5565b61037d610556366004614513565b6118e4565b61034a6105693660046145fe565b61195f565b61033561057c366004614573565b61196c565b61033561058f366004614032565b611c3b565b6105a76105a236600461437b565b611e3d565b60405161031991906153f0565b6103356105c236600461437b565b611f33565b61034a6105d536600461404e565b611fcf565b6105e2611fec565b6040516103199190614c0e565b61037d6105fd3660046141d9565b612097565b61034a6106103660046145fe565b612150565b61034a6106233660046145fe565b61215d565b61037d6106363660046144ce565b61216a565b61034a61217c565b61037d6106513660046141d9565b612182565b6103f66122b3565b61033561066c366004614032565b6122cf565b6105e2612380565b60006106868484846123b9565b90505b9392505050565b61069d858585858561243c565b5050505050565b60006106868484846124fe565b60046020526000908152604090205481565b6106cb613cbf565b60005460ff1615610711576040517f08c379a0000000000000000000000000000000000000000000000000000000008152600401610708906151cc565b60405180910390fd5b600080547fffffffffffffffffffffffffffffffffffffffffffffffffffffffffffffff001660011781558451905b8181146107a85761074f613cbf565b61079387838151811061075e57fe5b602002602001015187848151811061077257fe5b602002602001015187858151811061078657fe5b602002602001015161255f565b905061079f84826125fe565b50600101610740565b5050600080547fffffffffffffffffffffffffffffffffffffffffffffffffffffffffffffff001690559392505050565b60056020526000908152604090205460ff1681565b73ffffffffffffffffffffffffffffffffffffffff831633146108825761084c848484848080601f01602080910402602001604051908101604052809392919081815260200183838082843760009201919091525061136692505050565b610882576040517f08c379a000000000000000000000000000000000000000000000000000000000815260040161070890614edb565b5050600091825260076020908152604080842073ffffffffffffffffffffffffffffffffffffffff9093168452919052902080547fffffffffffffffffffffffffffffffffffffffffffffffffffffffffffffff00166001179055565b6108e7613ce7565b60005460ff1615610924576040517f08c379a0000000000000000000000000000000000000000000000000000000008152600401610708906151cc565b600080547fffffffffffffffffffffffffffffffffffffffffffffffffffffffffffffff0016600117905561016080860151610140808701919091528601519085015261096f613d15565b61097886611e3d565b9050610982613d15565b61098b86611e3d565b90506000610997612660565b90506109a588848389612692565b6109b187838388612692565b6109bb8888612824565b6109cf888885604001518560400151612884565b8051602081015190519195506109ea918a9186918190612a0d565b602080850151908101519051610a069189918591908190612a0d565b610a1f888285602001518660400151886000015161243c565b610a38878284602001518560400151886020015161243c565b610a4488888387612b1d565b505050600080547fffffffffffffffffffffffffffffffffffffffffffffffffffffffffffffff00169055949350505050565b610a7f613cbf565b6060610a8c858585612cf5565b9050608081825160208401305af48015610ac357815183526020820151602084015260408201516040840152606082015160608401525b50509392505050565b600b6020526000908152604090205473ffffffffffffffffffffffffffffffffffffffff1681565b60005460ff1615610b31576040517f08c379a0000000000000000000000000000000000000000000000000000000008152600401610708906151cc565b600080547fffffffffffffffffffffffffffffffffffffffffffffffffffffffffffffff001660011781558151905b818114610b8b57610b83838281518110610b7657fe5b6020026020010151612eca565b600101610b60565b5050600080547fffffffffffffffffffffffffffffffffffffffffffffffffffffffffffffff0016905550565b610bc0613cbf565b60005460ff1615610bfd576040517f08c379a0000000000000000000000000000000000000000000000000000000008152600401610708906151cc565b600080547fffffffffffffffffffffffffffffffffffffffffffffffffffffffffffffff001660011781558451905b8181146107a857610c3b613cbf565b610c7f878381518110610c4a57fe5b6020026020010151878481518110610c5e57fe5b6020026020010151878581518110610c7257fe5b6020026020010151612ef5565b9050610c8b84826125fe565b50600101610c2c565b60005460ff1615610cd1576040517f08c379a0000000000000000000000000000000000000000000000000000000008152600401610708906151cc565b600080547fffffffffffffffffffffffffffffffffffffffffffffffffffffffffffffff00166001178155610d04612660565b9050600073ffffffffffffffffffffffffffffffffffffffff82163314610d2b5733610d2e565b60005b73ffffffffffffffffffffffffffffffffffffffff8084166000908152600660209081526040808320938516835292905220549091506001840190808211610da2576040517f08c379a0000000000000000000000000000000000000000000000000000000008152600401610708906150f0565b73ffffffffffffffffffffffffffffffffffffffff80851660008181526006602090815260408083209488168084529490915290819020859055517f82af639571738f4ebd4268fb0363d8957ebe1bbb9e78dba5ebd69eed39b154f090610e0a908690614b48565b60405180910390a35050600080547fffffffffffffffffffffffffffffffffffffffffffffffffffffffffffffff00169055505050565b610e49613cbf565b835160005b818114610ac357610e5d613cbf565b610ea1878381518110610e6c57fe5b6020026020010151878481518110610e8057fe5b6020026020010151878581518110610e9457fe5b6020026020010151610a77565b9050610ead84826125fe565b50600101610e4e565b7fffffffff0000000000000000000000000000000000000000000000000000000081166000908152600b602052604090205473ffffffffffffffffffffffffffffffffffffffff165b919050565b60096020526000908152604090205460ff1681565b610f21613cbf565b60005460ff1615610f5e576040517f08c379a0000000000000000000000000000000000000000000000000000000008152600401610708906151cc565b600080547fffffffffffffffffffffffffffffffffffffffffffffffffffffffffffffff00166001179055610f94848484612ef5565b600080547fffffffffffffffffffffffffffffffffffffffffffffffffffffffffffffff00169055949350505050565b610fcc613cbf565b610fd683836125fe565b50815b92915050565b6000610686848484612f47565b60005460ff1615611029576040517f08c379a0000000000000000000000000000000000000000000000000000000008152600401610708906151cc565b600080547fffffffffffffffffffffffffffffffffffffffffffffffffffffffffffffff0016600117815561105c612660565b73ffffffffffffffffffffffffffffffffffffffff8181166000818152600860209081526040808320948916808452949091529081902080547fffffffffffffffffffffffffffffffffffffffffffffffffffffffffffffff00168715151790555192935090917fa8656e308026eeabce8f0bc18048433252318ab80ac79da0b3d3d8697dfba891906110f0908690614b3d565b60405180910390a35050600080547fffffffffffffffffffffffffffffffffffffffffffffffffffffffffffffff0016905550565b600860209081526000928352604080842090915290825290205460ff1681565b61114d613cbf565b60005460ff161561118a576040517f08c379a0000000000000000000000000000000000000000000000000000000008152600401610708906151cc565b600080547fffffffffffffffffffffffffffffffffffffffffffffffffffffffffffffff00166001178155845160609186916111c257fe5b60209081029190910101516101600151855190915060005b81811461126457828782815181106111ee57fe5b60200260200101516101600181905250600061120e878660200151612fc8565b9050611218613cbf565b61123c89848151811061122757fe5b60200260200101518389868151811061078657fe5b905061124886826125fe565b8786602001511061125a575050611264565b50506001016111da565b505050600080547fffffffffffffffffffffffffffffffffffffffffffffffffffffffffffffff001690559392505050565b60606000825190506060816040519080825280602002602001820160405280156112da57816020015b6112c7613d15565b8152602001906001900390816112bf5790505b50905060005b828114611322576113038582815181106112f657fe5b6020026020010151611e3d565b82828151811061130f57fe5b60209081029190910101526001016112e0565b509392505050565b600760209081526000928352604080842090915290825290205460ff1681565b60035473ffffffffffffffffffffffffffffffffffffffff1681565b6000808251116113a2576040517f08c379a0000000000000000000000000000000000000000000000000000000008152600401610708906150b9565b60006113ad8361300a565b60f81c9050600781106113ec576040517f08c379a000000000000000000000000000000000000000000000000000000000815260040161070890614d91565b60008160ff1660078111156113fd57fe5b905060008080808085600781111561141157fe5b1415611449576040517f08c379a000000000000000000000000000000000000000000000000000000000815260040161070890615082565b600185600781111561145757fe5b14156114a657875115611496576040517f08c379a000000000000000000000000000000000000000000000000000000000815260040161070890615373565b5060009550610689945050505050565b60028560078111156114b457fe5b14156115cf5787516041146114f5576040517f08c379a000000000000000000000000000000000000000000000000000000000815260040161070890614c21565b8760008151811061150257fe5b016020015160f890811c811b901c935061152388600163ffffffff61308d16565b925061153688602163ffffffff61308d16565b915060018a8585856040516000815260200160405260405161155b9493929190614ba8565b6020604051602081039080840390855afa15801561157d573d6000803e3d6000fd5b50506040517fffffffffffffffffffffffffffffffffffffffffffffffffffffffffffffffe0015173ffffffffffffffffffffffffffffffffffffffff8b811691161497506106899650505050505050565b60038560078111156115dd57fe5b14156116aa57875160411461161e576040517f08c379a000000000000000000000000000000000000000000000000000000000815260040161070890614c21565b8760008151811061162b57fe5b016020015160f890811c811b901c935061164c88600163ffffffff61308d16565b925061165f88602163ffffffff61308d16565b915060018a6040516020016116749190614760565b604051602081830303815290604052805190602001208585856040516000815260200160405260405161155b9493929190614ba8565b60048560078111156116b857fe5b14156116d7576116c98a8a8a6130d6565b965061068995505050505050565b60058560078111156116e557fe5b141561175e5760006116f68961322b565b73ffffffffffffffffffffffffffffffffffffffff808c1660009081526008602090815260408083209385168352929052205490915060ff16611743576000975050505050505050610689565b61174f818c8c8c6132a2565b97506106899650505050505050565b600685600781111561176c57fe5b14156117b357505050600087815260076020908152604080832073ffffffffffffffffffffffffffffffffffffffff8a16845290915290205460ff16935061068992505050565b6040517f08c379a000000000000000000000000000000000000000000000000000000000815260040161070890614d91565b6117ed613cbf565b6060846000815181106117fc57fe5b60209081029190910101516101400151855190915060005b8181146118da578287828151811061182857fe5b602002602001015161014001819052506000611848878660000151612fc8565b9050600061188589848151811061185b57fe5b602002602001015160a001518a858151811061187357fe5b602002602001015160800151846133fe565b905061188f613cbf565b6118b38a858151811061189e57fe5b6020026020010151838a8781518110610e9457fe5b90506118bf87826125fe565b865189116118cf575050506118da565b505050600101611814565b5050509392505050565b6118ec613cbf565b60005460ff1615611929576040517f08c379a0000000000000000000000000000000000000000000000000000000008152600401610708906151cc565b600080547fffffffffffffffffffffffffffffffffffffffffffffffffffffffffffffff00166001179055610f9484848461255f565b60006106868484846133fe565b600a5473ffffffffffffffffffffffffffffffffffffffff16156119bc576040517f08c379a0000000000000000000000000000000000000000000000000000000008152600401610708906151cc565b6000611a07611a02888888888080601f01602080910402602001604051908101604052809392919081815260200183838082843760009201919091525061344692505050565b6134ce565b60008181526009602052604090205490915060ff1615611a53576040517f08c379a000000000000000000000000000000000000000000000000000000000815260040161070890614ea4565b73ffffffffffffffffffffffffffffffffffffffff86163314611b2857611ab1818785858080601f01602080910402602001604051908101604052809392919081815260200183838082843760009201919091525061136692505050565b611ae7576040517f08c379a00000000000000000000000000000000000000000000000000000000081526004016107089061533c565b600a80547fffffffffffffffffffffffff00000000000000000000000000000000000000001673ffffffffffffffffffffffffffffffffffffffff88161790555b60008181526009602052604080822080547fffffffffffffffffffffffffffffffffffffffffffffffffffffffffffffff00166001179055513090611b709088908890614731565b600060405180830381855af49150503d8060008114611bab576040519150601f19603f3d011682016040523d82523d6000602084013e611bb0565b606091505b5050905080611beb576040517f08c379a000000000000000000000000000000000000000000000000000000000815260040161070890614f49565b73ffffffffffffffffffffffffffffffffffffffff87163314611c3157600a80547fffffffffffffffffffffffff00000000000000000000000000000000000000001690555b5050505050505050565b60035473ffffffffffffffffffffffffffffffffffffffff163314611c8c576040517f08c379a000000000000000000000000000000000000000000000000000000000815260040161070890615203565b60008173ffffffffffffffffffffffffffffffffffffffff1663ae25532e6040518163ffffffff1660e01b815260040160206040518083038186803b158015611cd457600080fd5b505afa158015611ce8573d6000803e3d6000fd5b505050506040513d601f19601f82011682018060405250611d0c9190810190614331565b7fffffffff0000000000000000000000000000000000000000000000000000000081166000908152600b602052604090205490915073ffffffffffffffffffffffffffffffffffffffff168015611d8f576040517f08c379a000000000000000000000000000000000000000000000000000000000815260040161070890614cfd565b7fffffffff0000000000000000000000000000000000000000000000000000000082166000908152600b60205260409081902080547fffffffffffffffffffffffff00000000000000000000000000000000000000001673ffffffffffffffffffffffffffffffffffffffff8616179055517fd2c6b762299c609bdb96520b58a49bfb80186934d4f71a86a367571a15c0319490611e309084908690614bc6565b60405180910390a1505050565b611e45613d15565b611e4e8261350b565b602080830182905260009182526004905260409081902054908201526080820151611e805760015b60ff168152610eff565b60a0820151611e90576002611e76565b8160a00151816040015110611ea6576005611e76565b8161010001514210611eb9576004611e76565b60208082015160009081526005909152604090205460ff1615611edd576006611e76565b610120820151825173ffffffffffffffffffffffffffffffffffffffff90811660009081526006602090815260408083206060880151909416835292905220541115611f2a576006611e76565b60038152919050565b60005460ff1615611f70576040517f08c379a0000000000000000000000000000000000000000000000000000000008152600401610708906151cc565b600080547fffffffffffffffffffffffffffffffffffffffffffffffffffffffffffffff00166001179055611fa481612eca565b50600080547fffffffffffffffffffffffffffffffffffffffffffffffffffffffffffffff00169055565b600660209081526000928352604080842090915290825290205481565b60018054604080516020600284861615610100027fffffffffffffffffffffffffffffffffffffffffffffffffffffffffffffffff0190941693909304601f8101849004840282018401909252818152929183018282801561208f5780601f106120645761010080835404028352916020019161208f565b820191906000526020600020905b81548152906001019060200180831161207257829003601f168201915b505050505081565b61209f613cbf565b6060846000815181106120ae57fe5b60209081029190910101516101600151855190915060005b8181146118da57828782815181106120da57fe5b6020026020010151610160018190525060006120fa878660200151612fc8565b9050612104613cbf565b61212889848151811061211357fe5b602002602001015183898681518110610e9457fe5b905061213486826125fe565b878660200151106121465750506118da565b50506001016120c6565b6000610686848484613519565b6000610686848484613596565b612172613cbf565b6106898383613613565b60025481565b61218a613cbf565b60005460ff16156121c7576040517f08c379a0000000000000000000000000000000000000000000000000000000008152600401610708906151cc565b600080547fffffffffffffffffffffffffffffffffffffffffffffffffffffffffffffff00166001178155845160609186916121ff57fe5b60209081029190910101516101400151855190915060005b818114611264578287828151811061222b57fe5b60200260200101516101400181905250600061224b878660000151612fc8565b9050600061225e89848151811061185b57fe5b9050612268613cbf565b61228c8a858151811061227757fe5b6020026020010151838a878151811061078657fe5b905061229887826125fe565b865189116122a857505050611264565b505050600101612217565b600a5473ffffffffffffffffffffffffffffffffffffffff1681565b60035473ffffffffffffffffffffffffffffffffffffffff163314612320576040517f08c379a000000000000000000000000000000000000000000000000000000000815260040161070890615203565b73ffffffffffffffffffffffffffffffffffffffff81161561237d57600380547fffffffffffffffffffffffff00000000000000000000000000000000000000001673ffffffffffffffffffffffffffffffffffffffff83161790555b50565b6040518060400160405280600581526020017f332e302e3000000000000000000000000000000000000000000000000000000081525081565b60008083116123f4576040517f08c379a000000000000000000000000000000000000000000000000000000000815260040161070890614dc8565b8115806123ff575083155b1561240c57506000610689565b6000838061241657fe5b85840990506124258584613674565b6124316103e883613674565b101595945050505050565b61244a8282602001516136c8565b600460008581526020019081526020016000208190555082856040015173ffffffffffffffffffffffffffffffffffffffff16866000015173ffffffffffffffffffffffffffffffffffffffff167f0bcc4c97732e47d9946f229edb95f5b6323f601300e4690de719993f3c371129873386600001518760200151886040015189606001518e61014001518f61016001516040516124ef989796959493929190614a7b565b60405180910390a45050505050565b6000808311612539576040517f08c379a000000000000000000000000000000000000000000000000000000000815260040161070890614dc8565b6106866125596125498685613674565b612554866001612fc8565b6136c8565b84613707565b612567613cbf565b61256f613d15565b61257885611e3d565b90506000612584612660565b905061259286838387612692565b60006125a68760a001518460400151612fc8565b905060006125b4878361371c565b90506125c7888589848960000151612a0d565b6125d18882613613565b94506125e88884866020015187604001518961243c565b6125f388848761372b565b505050509392505050565b8151815161260c91906136c8565b82526020808301519082015161262291906136c8565b60208301526040808301519082015161263b91906136c8565b60408301526060808301519082015161265491906136c8565b60609092019190915250565b600a5460009073ffffffffffffffffffffffffffffffffffffffff16818115612689578161268b565b335b9250505090565b825160ff166003146126d0576040517f08c379a000000000000000000000000000000000000000000000000000000000815260040161070890615297565b606084015173ffffffffffffffffffffffffffffffffffffffff161561274357606084015173ffffffffffffffffffffffffffffffffffffffff163314612743576040517f08c379a0000000000000000000000000000000000000000000000000000000008152600401610708906152ce565b602084015173ffffffffffffffffffffffffffffffffffffffff16156127cc578173ffffffffffffffffffffffffffffffffffffffff16846020015173ffffffffffffffffffffffffffffffffffffffff16146127cc576040517f08c379a000000000000000000000000000000000000000000000000000000000815260040161070890614c58565b604083015161281e576127e88360200151856000015183611366565b61281e576040517f08c379a000000000000000000000000000000000000000000000000000000000815260040161070890614dff565b50505050565b6128368260a001518260a00151613674565b61284883608001518360800151613674565b1015612880576040517f08c379a000000000000000000000000000000000000000000000000000000000815260040161070890615305565b5050565b61288c613ce7565b600061289c8660a0015185612fc8565b905060006128b387608001518860a0015184613519565b905060006128c58760a0015186612fc8565b905060006128dc88608001518960a0015184613519565b905080841061291f5760208086018051839052805182018490525151865182015260808a015160a08b01518751909201516129179290613519565b85515261295c565b845183905284516020908101859052855181015190860180519190915260a089015160808a01519151516129539290613596565b60208087015101525b84515160208087015101516129719190612fc8565b604086015284515160808a015160c08b015161298e929190613519565b85516040015284516020015160a08a015160e08b01516129af929190613519565b855160600152602085015151608089015160c08a01516129d0929190613519565b856020015160400181815250506129f88560200151602001518960a001518a60e00151613519565b60208601516060015250505050949350505050565b82612a44576040517f08c379a000000000000000000000000000000000000000000000000000000000815260040161070890614fb7565b82821115612a7e576040517f08c379a000000000000000000000000000000000000000000000000000000000815260040161070890614f80565b8460a00151612a918560400151846136c8565b1115612ac9576040517f08c379a000000000000000000000000000000000000000000000000000000000815260040161070890614c8f565b612ad7856080015183613674565b612ae5828760a00151613674565b111561069d576040517f08c379a000000000000000000000000000000000000000000000000000000000815260040161070890615195565b60018054604080516020601f60027fffffffffffffffffffffffffffffffffffffffffffffffffffffffffffffffff6101008789161502019095169490940493840181900481028201810190925282815260609390929091830182828015612bc65780601f10612b9b57610100808354040283529160200191612bc6565b820191906000526020600020905b815481529060010190602001808311612ba957829003601f168201915b50505050509050612bee85610140015186600001518660000151856020015160200151613835565b61014084015184518651845160200151612c0a93929190613835565b612c238561014001518660000151858560400151613835565b612c3f8186600001518760400151856000015160400151613835565b612c5b8185600001518660400151856020015160400151613835565b836040015173ffffffffffffffffffffffffffffffffffffffff16856040015173ffffffffffffffffffffffffffffffffffffffff161415612cc557612cc081848760400151612cbb8660000151606001518760200151606001516136c8565b613835565b61069d565b612cdd81848760400151856000015160600151613835565b61069d81848660400151856020015160600151613835565b604080517fb4be83d5000000000000000000000000000000000000000000000000000000006020808301919091526060602483018181528751608485019081528884015160a48601529488015160c48501529087015160e4840152608087015161010484015260a087015161012484015260c087015161014484015260e08701516101648401526101008701516101848401526101208701516101a4840152610140870180516101c485019081526101608901516101e486015261018090525180516102048501819052939461022486019492936044870193919281019190601f82010460005b81811015612dfa578351885260209788019790930192600101612ddc565b5050505080840361016091820152870151805180855260209485019460009281019190601f8201045b80841015612e465782518752602087019650602083019250600184019350612e23565b505050868252918303602091820190815285518085529382019360009391928781019190601f8201045b80861015612e935782518752602087019650602083019250600186019550612e70565b5050507fffffffffffffffffffffffffffffffffffffffffffffffffffffffffffffffe08585030185525050506040529392505050565b612ed2613d15565b612edb82611e3d565b9050612ee782826139da565b612880828260200151613b05565b612efd613cbf565b612f0884848461255f565b905082816020015114610689576040517f08c379a00000000000000000000000000000000000000000000000000000000081526004016107089061515e565b6000808311612f82576040517f08c379a000000000000000000000000000000000000000000000000000000000815260040161070890614dc8565b811580612f8d575083155b15612f9a57506000610689565b60008380612fa457fe5b858409905083612fb48583612fc8565b81612fbb57fe5b0690506124258584613674565b600082821115613004576040517f08c379a000000000000000000000000000000000000000000000000000000000815260040161070890614cc6565b50900390565b600080825111613046576040517f08c379a000000000000000000000000000000000000000000000000000000000815260040161070890615025565b8160018351038151811061305657fe5b016020015182517fffffffffffffffffffffffffffffffffffffffffffffffffffffffffffffffff019092525060f890811c901b90565b600081602001835110156130cd576040517f08c379a000000000000000000000000000000000000000000000000000000000815260040161070890614d34565b50016020015190565b6040516000906060907f1626ba7e00000000000000000000000000000000000000000000000000000000906131119087908690602401614b8f565b604080517fffffffffffffffffffffffffffffffffffffffffffffffffffffffffffffffe0818403018152919052602080820180517bffffffffffffffffffffffffffffffffffffffffffffffffffffffff167fffffffff00000000000000000000000000000000000000000000000000000000909416939093178352815191935090829081885afa8080156131ae576001811461321f576125f3565b7f08c379a0000000000000000000000000000000000000000000000000000000006000527c20000000000000000000000000000000000000000000000000000000006020527c0c57414c4c45545f4552524f5200000000000000000000000000000000604052600060605260646000fd5b50505195945050505050565b6000601482511015613269576040517f08c379a00000000000000000000000000000000000000000000000000000000081526004016107089061523a565b613277826014845103613bac565b82517fffffffffffffffffffffffffffffffffffffffffffffffffffffffffffffffec019092525090565b6040516000906060907f9363470200000000000000000000000000000000000000000000000000000000906132df90879087908790602401614b51565b604080517fffffffffffffffffffffffffffffffffffffffffffffffffffffffffffffffe0818403018152919052602080820180517bffffffffffffffffffffffffffffffffffffffffffffffffffffffff167fffffffff000000000000000000000000000000000000000000000000000000009094169390931783528151919350908290818a5afa80801561337c57600181146133ed576133f2565b7f08c379a0000000000000000000000000000000000000000000000000000000006000527c20000000000000000000000000000000000000000000000000000000006020527c0f56414c494441544f525f4552524f5200000000000000000000000000604052600060605260646000fd5b825194505b50505050949350505050565b6000808311613439576040517f08c379a000000000000000000000000000000000000000000000000000000000815260040161070890614dc8565b6106866125598584613674565b60008060405160200161345890614791565b604080517fffffffffffffffffffffffffffffffffffffffffffffffffffffffffffffffe0818403018152828252805160209182012086518783012090845290830188905273ffffffffffffffffffffffffffffffffffffffff8716918301919091526060820152608090209150509392505050565b600280546040517f190100000000000000000000000000000000000000000000000000000000000081529182015260228101919091526042902090565b6000610fd9611a0283613c0b565b6000808311613554576040517f08c379a000000000000000000000000000000000000000000000000000000000815260040161070890614dc8565b61355f8484846123b9565b15613439576040517f08c379a000000000000000000000000000000000000000000000000000000000815260040161070890614f12565b60008083116135d1576040517f08c379a000000000000000000000000000000000000000000000000000000000815260040161070890614dc8565b6135dc848484612f47565b15612539576040517f08c379a000000000000000000000000000000000000000000000000000000000815260040161070890614f12565b61361b613cbf565b6020810182905260a08301516080840151613637918491613519565b808252608084015160c085015161364f929190613519565b604082015260a083015160e0840151613669918491613519565b606082015292915050565b60008261368357506000610fd9565b8282028284828161369057fe5b0414610689576040517f08c379a000000000000000000000000000000000000000000000000000000000815260040161070890614e6d565b600082820183811015610689576040517f08c379a000000000000000000000000000000000000000000000000000000000815260040161070890614e6d565b60008082848161371357fe5b04949350505050565b6000818310610fd65781610689565b60018054604080516020601f60027fffffffffffffffffffffffffffffffffffffffffffffffffffffffffffffffff61010087891615020190951694909404938401819004810282018101909252828152606093909290918301828280156137d45780601f106137a9576101008083540402835291602001916137d4565b820191906000526020600020905b8154815290600101906020018083116137b757829003601f168201915b505050505090506137f48461014001518560000151858560000151613835565b61380d8461016001518486600001518560200151613835565b61382581856000015186604001518560400151613835565b61281e8184866040015185606001515b60008111801561387157508173ffffffffffffffffffffffffffffffffffffffff168373ffffffffffffffffffffffffffffffffffffffff1614155b1561281e5760038451116138b1576040517f08c379a000000000000000000000000000000000000000000000000000000000815260040161070890615127565b6020848101517fffffffff00000000000000000000000000000000000000000000000000000000166000818152600b90925260409091205473ffffffffffffffffffffffffffffffffffffffff1680613936576040517f08c379a000000000000000000000000000000000000000000000000000000000815260040161070890614fee565b60405186517fa85e59e40000000000000000000000000000000000000000000000000000000082526080600483015273ffffffffffffffffffffffffffffffffffffffff87811660248401528616604483015260648201859052608480830191603f01660fffffffffffe0168301015b808210156139c15788518252602098890198909101906139a6565b61020083848303856000885af191505080611c31573d82fd5b805160ff16600314613a18576040517f08c379a000000000000000000000000000000000000000000000000000000000815260040161070890615297565b606082015173ffffffffffffffffffffffffffffffffffffffff1615613a8b57606082015173ffffffffffffffffffffffffffffffffffffffff163314613a8b576040517f08c379a0000000000000000000000000000000000000000000000000000000008152600401610708906152ce565b6000613a95612660565b90508073ffffffffffffffffffffffffffffffffffffffff16836000015173ffffffffffffffffffffffffffffffffffffffff1614613b00576040517f08c379a000000000000000000000000000000000000000000000000000000000815260040161070890614e36565b505050565b6000818152600560205260409081902080547fffffffffffffffffffffffffffffffffffffffffffffffffffffffffffffff001660011790558281015183516101408501516101608601519351859473ffffffffffffffffffffffffffffffffffffffff9485169493909316927fdc47b3613d9fe400085f6dbdc99453462279057e6207385042827ed6b1a62cf792613ba092339290614a30565b60405180910390a45050565b60008160140183511015613bec576040517f08c379a00000000000000000000000000000000000000000000000000000000081526004016107089061523a565b50016014015173ffffffffffffffffffffffffffffffffffffffff1690565b600080604051602001613c1d90614852565b6040516020818303038152906040528051906020012090506000836101400151604051613c4a9190614744565b604051809103902090506000846101600151604051613c699190614744565b6040519081900390207fffffffffffffffffffffffffffffffffffffffffffffffffffffffffffffffe0860180516101408801805161016090990180519784529581529285526101a08220915295905250525090565b6040518060800160405280600081526020016000815260200160008152602001600081525090565b604051806101200160405280613cfb613cbf565b8152602001613d08613cbf565b8152602001600081525090565b604080516060810182526000808252602082018190529181019190915290565b803573ffffffffffffffffffffffffffffffffffffffff81168114610fd957600080fd5b600082601f830112613d69578081fd5b8135613d7c613d7782615425565b6153fe565b8181529150602080830190840160005b83811015613db957613da48760208435890101613e67565b83526020928301929190910190600101613d8c565b5050505092915050565b600082601f830112613dd3578081fd5b8135613de1613d7782615425565b8181529150602080830190840160005b83811015613db957613e098760208435890101613f33565b83526020928301929190910190600101613df1565b60008083601f840112613e3057600080fd5b50813567ffffffffffffffff811115613e4857600080fd5b602083019150836020828501011115613e6057600080fd5b9250929050565b600082601f830112613e77578081fd5b813567ffffffffffffffff811115613e8d578182fd5b613ebe60207fffffffffffffffffffffffffffffffffffffffffffffffffffffffffffffffe0601f840116016153fe565b9150808252836020828501011115613ed557600080fd5b8060208401602084013760009082016020015292915050565b600060808284031215613eff578081fd5b613f0960806153fe565b90508135815260208201356020820152604082013560408201526060820135606082015292915050565b6000610180808385031215613f46578182fd5b613f4f816153fe565b915050613f5c8383613d35565b8152613f6b8360208401613d35565b6020820152613f7d8360408401613d35565b6040820152613f8f8360608401613d35565b60608201526080820135608082015260a082013560a082015260c082013560c082015260e082013560e08201526101008083013581830152506101208083013581830152506101408083013567ffffffffffffffff80821115613ff157600080fd5b613ffd86838701613e67565b8385015261016092508285013591508082111561401957600080fd5b5061402685828601613e67565b82840152505092915050565b60006020828403121561404457600080fd5b6106898383613d35565b6000806040838503121561406157600080fd5b61406b8484613d35565b915061407a8460208501613d35565b90509250929050565b6000806040838503121561409657600080fd5b6140a08484613d35565b9150602083013580151581146140b557600080fd5b809150509250929050565b6000602082840312156140d257600080fd5b813567ffffffffffffffff8111156140e957600080fd5b6140f584828501613dc3565b949350505050565b600080600060608486031215614111578081fd5b833567ffffffffffffffff80821115614128578283fd5b61413487838801613dc3565b945060209150818601358181111561414a578384fd5b80870188601f82011261415b578485fd5b8035915061416b613d7783615425565b82815284810190828601868502840187018c1015614187578788fd5b8793505b848410156141a957803583526001939093019291860191860161418b565b50965050505060408601359150808211156141c2578283fd5b506141cf86828701613d59565b9150509250925092565b6000806000606084860312156141ed578081fd5b833567ffffffffffffffff80821115614204578283fd5b61421087838801613dc3565b94506020860135935060408601359150808211156141c2578283fd5b60006020828403121561423e57600080fd5b5035919050565b6000806040838503121561425857600080fd5b8235915060208301356140b581615472565b6000806000806060858703121561428057600080fd5b843593506142918660208701613d35565b9250604085013567ffffffffffffffff8111156142ad57600080fd5b6142b987828801613e1e565b95989497509550505050565b6000806000606084860312156142da57600080fd5b8335925060208401356142ec81615472565b9150604084013567ffffffffffffffff81111561430857600080fd5b6141cf86828701613e67565b60006020828403121561432657600080fd5b813561068981615494565b60006020828403121561434357600080fd5b815161068981615494565b600080610100838503121561436257600080fd5b61436c8484613eee565b915061407a8460808501613eee565b60006020828403121561438d57600080fd5b813567ffffffffffffffff8111156143a457600080fd5b6140f584828501613f33565b600080600080600061010086880312156143c957600080fd5b853567ffffffffffffffff8111156143e057600080fd5b6143ec88828901613f33565b9550506143fc8760208801613d35565b935060408601359250606086013591506144198760808801613eee565b90509295509295909350565b6000806000806080858703121561443a578182fd5b843567ffffffffffffffff80821115614451578384fd5b61445d88838901613f33565b95506020870135915080821115614472578384fd5b61447e88838901613f33565b94506040870135915080821115614493578384fd5b61449f88838901613e67565b935060608701359150808211156144b557600080fd5b506144c287828801613e67565b91505092959194509250565b600080604083850312156144e157600080fd5b823567ffffffffffffffff8111156144f857600080fd5b61450485828601613f33565b95602094909401359450505050565b600080600060608486031215614527578081fd5b833567ffffffffffffffff8082111561453e578283fd5b61454a87838801613f33565b9450602086013593506040860135915080821115614566578283fd5b506141cf86828701613e67565b6000806000806000806080878903121561458c57600080fd5b8635955061459d8860208901613d35565b9450604087013567ffffffffffffffff808211156145ba57600080fd5b6145c68a838b01613e1e565b909650945060608901359150808211156145df57600080fd5b506145ec89828a01613e1e565b979a9699509497509295939492505050565b60008060006060848603121561461357600080fd5b505081359360208301359350604090920135919050565b60008151808452614642816020860160208601615446565b601f017fffffffffffffffffffffffffffffffffffffffffffffffffffffffffffffffe0169290920160200192915050565b7f6279746573206d616b65724173736574446174612c0000000000000000000000815260150190565b7f62797465732074616b6572417373657444617461000000000000000000000000815260140190565b7f2900000000000000000000000000000000000000000000000000000000000000815260010190565b805182526020810151602083015260408101516040830152606081015160608301525050565b805160ff16825260208082015190830152604090810151910152565b6000828483375060009101908152919050565b60008251614756818460208701615446565b9190910192915050565b7f19457468657265756d205369676e6564204d6573736167653a0a3332000000008152601c810191909152603c0190565b7f5a65726f45785472616e73616374696f6e28000000000000000000000000000081527f75696e743235362073616c742c0000000000000000000000000000000000000060128201527f61646472657373207369676e6572416464726573732c00000000000000000000601f8201527f627974657320646174610000000000000000000000000000000000000000000060358201527f2900000000000000000000000000000000000000000000000000000000000000603f82015260400190565b60007f4f7264657228000000000000000000000000000000000000000000000000000082527f61646472657373206d616b6572416464726573732c000000000000000000000060068301527f616464726573732074616b6572416464726573732c0000000000000000000000601b8301527f6164647265737320666565526563697069656e74416464726573732c0000000060308301527f616464726573732073656e646572416464726573732c00000000000000000000604c8301527f75696e74323536206d616b65724173736574416d6f756e742c0000000000000060628301527f75696e743235362074616b65724173736574416d6f756e742c00000000000000607b8301527f75696e74323536206d616b65724665652c00000000000000000000000000000060948301527f75696e743235362074616b65724665652c00000000000000000000000000000060a58301527f75696e743235362065787069726174696f6e54696d655365636f6e64732c000060b68301527f75696e743235362073616c742c0000000000000000000000000000000000000060d4830152610fd9614a0a614a0560e18501614674565b61469d565b6146c6565b73ffffffffffffffffffffffffffffffffffffffff91909116815260200190565b600073ffffffffffffffffffffffffffffffffffffffff8516825260606020830152614a5f606083018561462a565b8281036040840152614a71818561462a565b9695505050505050565b600061010073ffffffffffffffffffffffffffffffffffffffff808c168452808b166020850152508860408401528760608401528660808401528560a08401528060c0840152614acd8184018661462a565b83810360e0850152614adf818661462a565b9c9b505050505050505050505050565b602080825282518282018190526000918401906040840190835b81811015614b3257614b1c838551614715565b6020939093019260609290920191600101614b09565b509095945050505050565b901515815260200190565b90815260200190565b600084825273ffffffffffffffffffffffffffffffffffffffff8416602083015260606040830152614b86606083018461462a565b95945050505050565b600083825260406020830152610686604083018461462a565b93845260ff9290921660208401526040830152606082015260800190565b7fffffffff0000000000000000000000000000000000000000000000000000000092909216825273ffffffffffffffffffffffffffffffffffffffff16602082015260400190565b600060208252610689602083018461462a565b60208082526012908201527f4c454e4754485f36355f52455155495245440000000000000000000000000000604082015260600190565b6020808252600d908201527f494e56414c49445f54414b455200000000000000000000000000000000000000604082015260600190565b6020808252600e908201527f4f524445525f4f56455246494c4c000000000000000000000000000000000000604082015260600190565b60208082526011908201527f55494e543235365f554e444552464c4f57000000000000000000000000000000604082015260600190565b6020808252601a908201527f41535345545f50524f58595f414c52454144595f455849535453000000000000604082015260600190565b60208082526026908201527f475245415445525f4f525f455155414c5f544f5f33325f4c454e4754485f524560408201527f5155495245440000000000000000000000000000000000000000000000000000606082015260800190565b60208082526015908201527f5349474e41545552455f554e535550504f525445440000000000000000000000604082015260600190565b60208082526010908201527f4449564953494f4e5f42595f5a45524f00000000000000000000000000000000604082015260600190565b60208082526017908201527f494e56414c49445f4f524445525f5349474e4154555245000000000000000000604082015260600190565b6020808252600d908201527f494e56414c49445f4d414b455200000000000000000000000000000000000000604082015260600190565b60208082526010908201527f55494e543235365f4f564552464c4f5700000000000000000000000000000000604082015260600190565b6020808252600f908201527f494e56414c49445f54585f484153480000000000000000000000000000000000604082015260600190565b60208082526011908201527f494e56414c49445f5349474e4154555245000000000000000000000000000000604082015260600190565b6020808252600e908201527f524f554e44494e475f4552524f52000000000000000000000000000000000000604082015260600190565b60208082526010908201527f4641494c45445f455845435554494f4e00000000000000000000000000000000604082015260600190565b6020808252600d908201527f54414b45525f4f56455250415900000000000000000000000000000000000000604082015260600190565b60208082526014908201527f494e56414c49445f54414b45525f414d4f554e54000000000000000000000000604082015260600190565b6020808252601a908201527f41535345545f50524f58595f444f45535f4e4f545f4558495354000000000000604082015260600190565b60208082526021908201527f475245415445525f5448414e5f5a45524f5f4c454e4754485f5245515549524560408201527f4400000000000000000000000000000000000000000000000000000000000000606082015260800190565b60208082526011908201527f5349474e41545552455f494c4c4547414c000000000000000000000000000000604082015260600190565b6020808252601e908201527f4c454e4754485f475245415445525f5448414e5f305f52455155495245440000604082015260600190565b60208082526017908201527f494e56414c49445f4e45575f4f524445525f45504f4348000000000000000000604082015260600190565b6020808252601e908201527f4c454e4754485f475245415445525f5448414e5f335f52455155495245440000604082015260600190565b60208082526014908201527f434f4d504c4554455f46494c4c5f4641494c4544000000000000000000000000604082015260600190565b60208082526012908201527f494e56414c49445f46494c4c5f50524943450000000000000000000000000000604082015260600190565b60208082526012908201527f5245454e5452414e43595f494c4c4547414c0000000000000000000000000000604082015260600190565b60208082526013908201527f4f4e4c595f434f4e54524143545f4f574e455200000000000000000000000000604082015260600190565b60208082526026908201527f475245415445525f4f525f455155414c5f544f5f32305f4c454e4754485f524560408201527f5155495245440000000000000000000000000000000000000000000000000000606082015260800190565b60208082526010908201527f4f524445525f554e46494c4c41424c4500000000000000000000000000000000604082015260600190565b6020808252600e908201527f494e56414c49445f53454e444552000000000000000000000000000000000000604082015260600190565b60208082526018908201527f4e454741544956455f5350524541445f52455155495245440000000000000000604082015260600190565b60208082526014908201527f494e56414c49445f54585f5349474e4154555245000000000000000000000000604082015260600190565b60208082526011908201527f4c454e4754485f305f5245515549524544000000000000000000000000000000604082015260600190565b60808101610fd982846146ef565b6000610120820190506153cc8284516146ef565b60208301516153de60808401826146ef565b50604083015161010083015292915050565b60608101610fd98284614715565b60405181810167ffffffffffffffff8111828210171561541d57600080fd5b604052919050565b600067ffffffffffffffff82111561543c57600080fd5b5060209081020190565b60005b83811015615461578181015183820152602001615449565b8381111561281e5750506000910152565b73ffffffffffffffffffffffffffffffffffffffff8116811461237d57600080fd5b7fffffffff000000000000000000000000000000000000000000000000000000008116811461237d57600080fdfea265627a7a72305820ef5ff86295ec45286f9f52d461489d3e10eb0581bb148d6bbb3cd1479be111996c6578706572696d656e74616cf50037",
                "opcodes": "PUSH1 0x80 PUSH1 0x40 MSTORE PUSH1 0x0 DUP1 SLOAD PUSH1 0xFF NOT AND SWAP1 SSTORE CALLVALUE DUP1 ISZERO PUSH3 0x1B JUMPI PUSH1 0x0 DUP1 REVERT JUMPDEST POP PUSH1 0x40 DUP1 MLOAD PUSH1 0x20 DUP2 ADD SWAP2 DUP3 SWAP1 MSTORE PUSH1 0x0 DUP1 DUP3 MSTORE SWAP1 SWAP2 DUP3 SWAP2 PUSH3 0x3F SWAP2 PUSH1 0x1 SWAP2 PUSH3 0x154 JUMP JUMPDEST POP POP PUSH1 0x40 MLOAD PUSH1 0x20 ADD PUSH3 0x52 SWAP1 PUSH3 0x214 JUMP JUMPDEST PUSH1 0x40 DUP1 MLOAD PUSH1 0x1F NOT DUP2 DUP5 SUB ADD DUP2 MSTORE DUP3 DUP3 MSTORE DUP1 MLOAD PUSH1 0x20 SWAP2 DUP3 ADD KECCAK256 DUP4 DUP4 ADD DUP4 MSTORE PUSH1 0xB DUP5 MSTORE PUSH32 0x30782050726F746F636F6C000000000000000000000000000000000000000000 SWAP4 DUP3 ADD SWAP4 SWAP1 SWAP4 MSTORE DUP2 MLOAD DUP1 DUP4 ADD DUP4 MSTORE PUSH1 0x1 DUP2 MSTORE PUSH32 0x3200000000000000000000000000000000000000000000000000000000000000 SWAP1 DUP3 ADD MSTORE SWAP1 MLOAD PUSH3 0x120 SWAP3 SWAP2 PUSH32 0xF0F24618F4C4BE1E62E026FB039A20EF96F4495294817D1027FFAA6D1F70E61E SWAP2 PUSH32 0xAD7C5BEF027816A800DA1736444FB58A807EF4C9603B7848673F7E3A68EB14A5 SWAP2 ADDRESS SWAP2 ADD PUSH3 0x1F9 JUMP JUMPDEST PUSH1 0x40 DUP1 MLOAD PUSH1 0x1F NOT DUP2 DUP5 SUB ADD DUP2 MSTORE SWAP2 SWAP1 MSTORE DUP1 MLOAD PUSH1 0x20 SWAP1 SWAP2 ADD KECCAK256 PUSH1 0x2 SSTORE POP PUSH1 0x3 DUP1 SLOAD PUSH1 0x1 PUSH1 0x1 PUSH1 0xA0 SHL SUB NOT AND CALLER OR SWAP1 SSTORE PUSH3 0x2D5 JUMP JUMPDEST DUP3 DUP1 SLOAD PUSH1 0x1 DUP2 PUSH1 0x1 AND ISZERO PUSH2 0x100 MUL SUB AND PUSH1 0x2 SWAP1 DIV SWAP1 PUSH1 0x0 MSTORE PUSH1 0x20 PUSH1 0x0 KECCAK256 SWAP1 PUSH1 0x1F ADD PUSH1 0x20 SWAP1 DIV DUP2 ADD SWAP3 DUP3 PUSH1 0x1F LT PUSH3 0x197 JUMPI DUP1 MLOAD PUSH1 0xFF NOT AND DUP4 DUP1 ADD OR DUP6 SSTORE PUSH3 0x1C7 JUMP JUMPDEST DUP3 DUP1 ADD PUSH1 0x1 ADD DUP6 SSTORE DUP3 ISZERO PUSH3 0x1C7 JUMPI SWAP2 DUP3 ADD JUMPDEST DUP3 DUP2 GT ISZERO PUSH3 0x1C7 JUMPI DUP3 MLOAD DUP3 SSTORE SWAP2 PUSH1 0x20 ADD SWAP2 SWAP1 PUSH1 0x1 ADD SWAP1 PUSH3 0x1AA JUMP JUMPDEST POP PUSH3 0x1D5 SWAP3 SWAP2 POP PUSH3 0x1D9 JUMP JUMPDEST POP SWAP1 JUMP JUMPDEST PUSH3 0x1F6 SWAP2 SWAP1 JUMPDEST DUP1 DUP3 GT ISZERO PUSH3 0x1D5 JUMPI PUSH1 0x0 DUP2 SSTORE PUSH1 0x1 ADD PUSH3 0x1E0 JUMP JUMPDEST SWAP1 JUMP JUMPDEST SWAP4 DUP5 MSTORE PUSH1 0x20 DUP5 ADD SWAP3 SWAP1 SWAP3 MSTORE PUSH1 0x40 DUP4 ADD MSTORE PUSH1 0x60 DUP3 ADD MSTORE PUSH1 0x80 ADD SWAP1 JUMP JUMPDEST PUSH32 0x454950373132446F6D61696E2800000000000000000000000000000000000000 DUP2 MSTORE PUSH32 0x737472696E67206E616D652C0000000000000000000000000000000000000000 PUSH1 0xD DUP3 ADD MSTORE PUSH32 0x737472696E672076657273696F6E2C0000000000000000000000000000000000 PUSH1 0x19 DUP3 ADD MSTORE PUSH32 0x6164647265737320766572696679696E67436F6E747261637400000000000000 PUSH1 0x28 DUP3 ADD MSTORE PUSH32 0x2900000000000000000000000000000000000000000000000000000000000000 PUSH1 0x41 DUP3 ADD MSTORE PUSH1 0x42 ADD SWAP1 JUMP JUMPDEST PUSH2 0x54FC DUP1 PUSH3 0x2E5 PUSH1 0x0 CODECOPY PUSH1 0x0 RETURN INVALID PUSH1 0x80 PUSH1 0x40 MSTORE CALLVALUE DUP1 ISZERO PUSH2 0x10 JUMPI PUSH1 0x0 DUP1 REVERT JUMPDEST POP PUSH1 0x4 CALLDATASIZE LT PUSH2 0x2F4 JUMPI PUSH1 0x0 CALLDATALOAD PUSH1 0xE0 SHR DUP1 PUSH4 0x7E9D74DC GT PUSH2 0x191 JUMPI DUP1 PUSH4 0xD9BFA73E GT PUSH2 0xE3 JUMPI DUP1 PUSH4 0xE0B701E3 GT PUSH2 0x97 JUMPI DUP1 PUSH4 0xEEA086BA GT PUSH2 0x71 JUMPI DUP1 PUSH4 0xEEA086BA EQ PUSH2 0x656 JUMPI DUP1 PUSH4 0xF2FDE38B EQ PUSH2 0x65E JUMPI DUP1 PUSH4 0xFFA1AD74 EQ PUSH2 0x671 JUMPI PUSH2 0x2F4 JUMP JUMPDEST DUP1 PUSH4 0xE0B701E3 EQ PUSH2 0x628 JUMPI DUP1 PUSH4 0xE306F779 EQ PUSH2 0x63B JUMPI DUP1 PUSH4 0xE5FA431B EQ PUSH2 0x643 JUMPI PUSH2 0x2F4 JUMP JUMPDEST DUP1 PUSH4 0xDD1C7D18 GT PUSH2 0xC8 JUMPI DUP1 PUSH4 0xDD1C7D18 EQ PUSH2 0x5EF JUMPI DUP1 PUSH4 0xDE30200D EQ PUSH2 0x602 JUMPI DUP1 PUSH4 0xE0ACD33D EQ PUSH2 0x615 JUMPI PUSH2 0x2F4 JUMP JUMPDEST DUP1 PUSH4 0xD9BFA73E EQ PUSH2 0x5C7 JUMPI DUP1 PUSH4 0xDB123B1A EQ PUSH2 0x5DA JUMPI PUSH2 0x2F4 JUMP JUMPDEST DUP1 PUSH4 0xB4BE83D5 GT PUSH2 0x145 JUMPI DUP1 PUSH4 0xC585BB93 GT PUSH2 0x11F JUMPI DUP1 PUSH4 0xC585BB93 EQ PUSH2 0x581 JUMPI DUP1 PUSH4 0xC75E0A81 EQ PUSH2 0x594 JUMPI DUP1 PUSH4 0xD46B02C3 EQ PUSH2 0x5B4 JUMPI PUSH2 0x2F4 JUMP JUMPDEST DUP1 PUSH4 0xB4BE83D5 EQ PUSH2 0x548 JUMPI DUP1 PUSH4 0xBE7ADA1E EQ PUSH2 0x55B JUMPI DUP1 PUSH4 0xBFC8BFCE EQ PUSH2 0x56E JUMPI PUSH2 0x2F4 JUMP JUMPDEST DUP1 PUSH4 0x8DA5CB5B GT PUSH2 0x176 JUMPI DUP1 PUSH4 0x8DA5CB5B EQ PUSH2 0x51A JUMPI DUP1 PUSH4 0x93634702 EQ PUSH2 0x522 JUMPI DUP1 PUSH4 0xA3E20380 EQ PUSH2 0x535 JUMPI PUSH2 0x2F4 JUMP JUMPDEST DUP1 PUSH4 0x7E9D74DC EQ PUSH2 0x4E7 JUMPI DUP1 PUSH4 0x82C174D0 EQ PUSH2 0x507 JUMPI PUSH2 0x2F4 JUMP JUMPDEST DUP1 PUSH4 0x4D0AE546 GT PUSH2 0x24A JUMPI DUP1 PUSH4 0x64A3BC15 GT PUSH2 0x1FE JUMPI DUP1 PUSH4 0x77FCCE68 GT PUSH2 0x1D8 JUMPI DUP1 PUSH4 0x77FCCE68 EQ PUSH2 0x4AE JUMPI DUP1 PUSH4 0x7B8E3514 EQ PUSH2 0x4C1 JUMPI DUP1 PUSH4 0x7E1D9808 EQ PUSH2 0x4D4 JUMPI PUSH2 0x2F4 JUMP JUMPDEST DUP1 PUSH4 0x64A3BC15 EQ PUSH2 0x475 JUMPI DUP1 PUSH4 0x66758D7B EQ PUSH2 0x488 JUMPI DUP1 PUSH4 0x679D2F9A EQ PUSH2 0x49B JUMPI PUSH2 0x2F4 JUMP JUMPDEST DUP1 PUSH4 0x50DDE190 GT PUSH2 0x22F JUMPI DUP1 PUSH4 0x50DDE190 EQ PUSH2 0x43C JUMPI DUP1 PUSH4 0x60704108 EQ PUSH2 0x44F JUMPI DUP1 PUSH4 0x642F2EAF EQ PUSH2 0x462 JUMPI PUSH2 0x2F4 JUMP JUMPDEST DUP1 PUSH4 0x4D0AE546 EQ PUSH2 0x416 JUMPI DUP1 PUSH4 0x4F9559B1 EQ PUSH2 0x429 JUMPI PUSH2 0x2F4 JUMP JUMPDEST DUP1 PUSH4 0x2AC12622 GT PUSH2 0x2AC JUMPI DUP1 PUSH4 0x3E228BAE GT PUSH2 0x286 JUMPI DUP1 PUSH4 0x3E228BAE EQ PUSH2 0x3D0 JUMPI DUP1 PUSH4 0x3FD3C997 EQ PUSH2 0x3E3 JUMPI DUP1 PUSH4 0x4AC14782 EQ PUSH2 0x403 JUMPI PUSH2 0x2F4 JUMP JUMPDEST DUP1 PUSH4 0x2AC12622 EQ PUSH2 0x38A JUMPI DUP1 PUSH4 0x3683EF8E EQ PUSH2 0x39D JUMPI DUP1 PUSH4 0x3C28D861 EQ PUSH2 0x3B0 JUMPI PUSH2 0x2F4 JUMP JUMPDEST DUP1 PUSH4 0x20777F70 GT PUSH2 0x2DD JUMPI DUP1 PUSH4 0x20777F70 EQ PUSH2 0x337 JUMPI DUP1 PUSH4 0x288CDC91 EQ PUSH2 0x357 JUMPI DUP1 PUSH4 0x297BB70B EQ PUSH2 0x36A JUMPI PUSH2 0x2F4 JUMP JUMPDEST DUP1 PUSH4 0x1BE23901 EQ PUSH2 0x2F9 JUMPI DUP1 PUSH4 0x1EA1E3D8 EQ PUSH2 0x322 JUMPI JUMPDEST PUSH1 0x0 DUP1 REVERT JUMPDEST PUSH2 0x30C PUSH2 0x307 CALLDATASIZE PUSH1 0x4 PUSH2 0x45FE JUMP JUMPDEST PUSH2 0x679 JUMP JUMPDEST PUSH1 0x40 MLOAD PUSH2 0x319 SWAP2 SWAP1 PUSH2 0x4B3D JUMP JUMPDEST PUSH1 0x40 MLOAD DUP1 SWAP2 SUB SWAP1 RETURN JUMPDEST PUSH2 0x335 PUSH2 0x330 CALLDATASIZE PUSH1 0x4 PUSH2 0x43B0 JUMP JUMPDEST PUSH2 0x690 JUMP JUMPDEST STOP JUMPDEST PUSH2 0x34A PUSH2 0x345 CALLDATASIZE PUSH1 0x4 PUSH2 0x45FE JUMP JUMPDEST PUSH2 0x6A4 JUMP JUMPDEST PUSH1 0x40 MLOAD PUSH2 0x319 SWAP2 SWAP1 PUSH2 0x4B48 JUMP JUMPDEST PUSH2 0x34A PUSH2 0x365 CALLDATASIZE PUSH1 0x4 PUSH2 0x422C JUMP JUMPDEST PUSH2 0x6B1 JUMP JUMPDEST PUSH2 0x37D PUSH2 0x378 CALLDATASIZE PUSH1 0x4 PUSH2 0x40FD JUMP JUMPDEST PUSH2 0x6C3 JUMP JUMPDEST PUSH1 0x40 MLOAD PUSH2 0x319 SWAP2 SWAP1 PUSH2 0x53AA JUMP JUMPDEST PUSH2 0x30C PUSH2 0x398 CALLDATASIZE PUSH1 0x4 PUSH2 0x422C JUMP JUMPDEST PUSH2 0x7D9 JUMP JUMPDEST PUSH2 0x335 PUSH2 0x3AB CALLDATASIZE PUSH1 0x4 PUSH2 0x426A JUMP JUMPDEST PUSH2 0x7EE JUMP JUMPDEST PUSH2 0x3C3 PUSH2 0x3BE CALLDATASIZE PUSH1 0x4 PUSH2 0x4425 JUMP JUMPDEST PUSH2 0x8DF JUMP JUMPDEST PUSH1 0x40 MLOAD PUSH2 0x319 SWAP2 SWAP1 PUSH2 0x53B8 JUMP JUMPDEST PUSH2 0x37D PUSH2 0x3DE CALLDATASIZE PUSH1 0x4 PUSH2 0x4513 JUMP JUMPDEST PUSH2 0xA77 JUMP JUMPDEST PUSH2 0x3F6 PUSH2 0x3F1 CALLDATASIZE PUSH1 0x4 PUSH2 0x4314 JUMP JUMPDEST PUSH2 0xACC JUMP JUMPDEST PUSH1 0x40 MLOAD PUSH2 0x319 SWAP2 SWAP1 PUSH2 0x4A0F JUMP JUMPDEST PUSH2 0x335 PUSH2 0x411 CALLDATASIZE PUSH1 0x4 PUSH2 0x40C0 JUMP JUMPDEST PUSH2 0xAF4 JUMP JUMPDEST PUSH2 0x37D PUSH2 0x424 CALLDATASIZE PUSH1 0x4 PUSH2 0x40FD JUMP JUMPDEST PUSH2 0xBB8 JUMP JUMPDEST PUSH2 0x335 PUSH2 0x437 CALLDATASIZE PUSH1 0x4 PUSH2 0x422C JUMP JUMPDEST PUSH2 0xC94 JUMP JUMPDEST PUSH2 0x37D PUSH2 0x44A CALLDATASIZE PUSH1 0x4 PUSH2 0x40FD JUMP JUMPDEST PUSH2 0xE41 JUMP JUMPDEST PUSH2 0x3F6 PUSH2 0x45D CALLDATASIZE PUSH1 0x4 PUSH2 0x4314 JUMP JUMPDEST PUSH2 0xEB6 JUMP JUMPDEST PUSH2 0x30C PUSH2 0x470 CALLDATASIZE PUSH1 0x4 PUSH2 0x422C JUMP JUMPDEST PUSH2 0xF04 JUMP JUMPDEST PUSH2 0x37D PUSH2 0x483 CALLDATASIZE PUSH1 0x4 PUSH2 0x4513 JUMP JUMPDEST PUSH2 0xF19 JUMP JUMPDEST PUSH2 0x37D PUSH2 0x496 CALLDATASIZE PUSH1 0x4 PUSH2 0x434E JUMP JUMPDEST PUSH2 0xFC4 JUMP JUMPDEST PUSH2 0x30C PUSH2 0x4A9 CALLDATASIZE PUSH1 0x4 PUSH2 0x45FE JUMP JUMPDEST PUSH2 0xFDF JUMP JUMPDEST PUSH2 0x335 PUSH2 0x4BC CALLDATASIZE PUSH1 0x4 PUSH2 0x4083 JUMP JUMPDEST PUSH2 0xFEC JUMP JUMPDEST PUSH2 0x30C PUSH2 0x4CF CALLDATASIZE PUSH1 0x4 PUSH2 0x404E JUMP JUMPDEST PUSH2 0x1125 JUMP JUMPDEST PUSH2 0x37D PUSH2 0x4E2 CALLDATASIZE PUSH1 0x4 PUSH2 0x41D9 JUMP JUMPDEST PUSH2 0x1145 JUMP JUMPDEST PUSH2 0x4FA PUSH2 0x4F5 CALLDATASIZE PUSH1 0x4 PUSH2 0x40C0 JUMP JUMPDEST PUSH2 0x1296 JUMP JUMPDEST PUSH1 0x40 MLOAD PUSH2 0x319 SWAP2 SWAP1 PUSH2 0x4AEF JUMP JUMPDEST PUSH2 0x30C PUSH2 0x515 CALLDATASIZE PUSH1 0x4 PUSH2 0x4245 JUMP JUMPDEST PUSH2 0x132A JUMP JUMPDEST PUSH2 0x3F6 PUSH2 0x134A JUMP JUMPDEST PUSH2 0x30C PUSH2 0x530 CALLDATASIZE PUSH1 0x4 PUSH2 0x42C5 JUMP JUMPDEST PUSH2 0x1366 JUMP JUMPDEST PUSH2 0x37D PUSH2 0x543 CALLDATASIZE PUSH1 0x4 PUSH2 0x41D9 JUMP JUMPDEST PUSH2 0x17E5 JUMP JUMPDEST PUSH2 0x37D PUSH2 0x556 CALLDATASIZE PUSH1 0x4 PUSH2 0x4513 JUMP JUMPDEST PUSH2 0x18E4 JUMP JUMPDEST PUSH2 0x34A PUSH2 0x569 CALLDATASIZE PUSH1 0x4 PUSH2 0x45FE JUMP JUMPDEST PUSH2 0x195F JUMP JUMPDEST PUSH2 0x335 PUSH2 0x57C CALLDATASIZE PUSH1 0x4 PUSH2 0x4573 JUMP JUMPDEST PUSH2 0x196C JUMP JUMPDEST PUSH2 0x335 PUSH2 0x58F CALLDATASIZE PUSH1 0x4 PUSH2 0x4032 JUMP JUMPDEST PUSH2 0x1C3B JUMP JUMPDEST PUSH2 0x5A7 PUSH2 0x5A2 CALLDATASIZE PUSH1 0x4 PUSH2 0x437B JUMP JUMPDEST PUSH2 0x1E3D JUMP JUMPDEST PUSH1 0x40 MLOAD PUSH2 0x319 SWAP2 SWAP1 PUSH2 0x53F0 JUMP JUMPDEST PUSH2 0x335 PUSH2 0x5C2 CALLDATASIZE PUSH1 0x4 PUSH2 0x437B JUMP JUMPDEST PUSH2 0x1F33 JUMP JUMPDEST PUSH2 0x34A PUSH2 0x5D5 CALLDATASIZE PUSH1 0x4 PUSH2 0x404E JUMP JUMPDEST PUSH2 0x1FCF JUMP JUMPDEST PUSH2 0x5E2 PUSH2 0x1FEC JUMP JUMPDEST PUSH1 0x40 MLOAD PUSH2 0x319 SWAP2 SWAP1 PUSH2 0x4C0E JUMP JUMPDEST PUSH2 0x37D PUSH2 0x5FD CALLDATASIZE PUSH1 0x4 PUSH2 0x41D9 JUMP JUMPDEST PUSH2 0x2097 JUMP JUMPDEST PUSH2 0x34A PUSH2 0x610 CALLDATASIZE PUSH1 0x4 PUSH2 0x45FE JUMP JUMPDEST PUSH2 0x2150 JUMP JUMPDEST PUSH2 0x34A PUSH2 0x623 CALLDATASIZE PUSH1 0x4 PUSH2 0x45FE JUMP JUMPDEST PUSH2 0x215D JUMP JUMPDEST PUSH2 0x37D PUSH2 0x636 CALLDATASIZE PUSH1 0x4 PUSH2 0x44CE JUMP JUMPDEST PUSH2 0x216A JUMP JUMPDEST PUSH2 0x34A PUSH2 0x217C JUMP JUMPDEST PUSH2 0x37D PUSH2 0x651 CALLDATASIZE PUSH1 0x4 PUSH2 0x41D9 JUMP JUMPDEST PUSH2 0x2182 JUMP JUMPDEST PUSH2 0x3F6 PUSH2 0x22B3 JUMP JUMPDEST PUSH2 0x335 PUSH2 0x66C CALLDATASIZE PUSH1 0x4 PUSH2 0x4032 JUMP JUMPDEST PUSH2 0x22CF JUMP JUMPDEST PUSH2 0x5E2 PUSH2 0x2380 JUMP JUMPDEST PUSH1 0x0 PUSH2 0x686 DUP5 DUP5 DUP5 PUSH2 0x23B9 JUMP JUMPDEST SWAP1 POP JUMPDEST SWAP4 SWAP3 POP POP POP JUMP JUMPDEST PUSH2 0x69D DUP6 DUP6 DUP6 DUP6 DUP6 PUSH2 0x243C JUMP JUMPDEST POP POP POP POP POP JUMP JUMPDEST PUSH1 0x0 PUSH2 0x686 DUP5 DUP5 DUP5 PUSH2 0x24FE JUMP JUMPDEST PUSH1 0x4 PUSH1 0x20 MSTORE PUSH1 0x0 SWAP1 DUP2 MSTORE PUSH1 0x40 SWAP1 KECCAK256 SLOAD DUP2 JUMP JUMPDEST PUSH2 0x6CB PUSH2 0x3CBF JUMP JUMPDEST PUSH1 0x0 SLOAD PUSH1 0xFF AND ISZERO PUSH2 0x711 JUMPI PUSH1 0x40 MLOAD PUSH32 0x8C379A000000000000000000000000000000000000000000000000000000000 DUP2 MSTORE PUSH1 0x4 ADD PUSH2 0x708 SWAP1 PUSH2 0x51CC JUMP JUMPDEST PUSH1 0x40 MLOAD DUP1 SWAP2 SUB SWAP1 REVERT JUMPDEST PUSH1 0x0 DUP1 SLOAD PUSH32 0xFFFFFFFFFFFFFFFFFFFFFFFFFFFFFFFFFFFFFFFFFFFFFFFFFFFFFFFFFFFFFF00 AND PUSH1 0x1 OR DUP2 SSTORE DUP5 MLOAD SWAP1 JUMPDEST DUP2 DUP2 EQ PUSH2 0x7A8 JUMPI PUSH2 0x74F PUSH2 0x3CBF JUMP JUMPDEST PUSH2 0x793 DUP8 DUP4 DUP2 MLOAD DUP2 LT PUSH2 0x75E JUMPI INVALID JUMPDEST PUSH1 0x20 MUL PUSH1 0x20 ADD ADD MLOAD DUP8 DUP5 DUP2 MLOAD DUP2 LT PUSH2 0x772 JUMPI INVALID JUMPDEST PUSH1 0x20 MUL PUSH1 0x20 ADD ADD MLOAD DUP8 DUP6 DUP2 MLOAD DUP2 LT PUSH2 0x786 JUMPI INVALID JUMPDEST PUSH1 0x20 MUL PUSH1 0x20 ADD ADD MLOAD PUSH2 0x255F JUMP JUMPDEST SWAP1 POP PUSH2 0x79F DUP5 DUP3 PUSH2 0x25FE JUMP JUMPDEST POP PUSH1 0x1 ADD PUSH2 0x740 JUMP JUMPDEST POP POP PUSH1 0x0 DUP1 SLOAD PUSH32 0xFFFFFFFFFFFFFFFFFFFFFFFFFFFFFFFFFFFFFFFFFFFFFFFFFFFFFFFFFFFFFF00 AND SWAP1 SSTORE SWAP4 SWAP3 POP POP POP JUMP JUMPDEST PUSH1 0x5 PUSH1 0x20 MSTORE PUSH1 0x0 SWAP1 DUP2 MSTORE PUSH1 0x40 SWAP1 KECCAK256 SLOAD PUSH1 0xFF AND DUP2 JUMP JUMPDEST PUSH20 0xFFFFFFFFFFFFFFFFFFFFFFFFFFFFFFFFFFFFFFFF DUP4 AND CALLER EQ PUSH2 0x882 JUMPI PUSH2 0x84C DUP5 DUP5 DUP5 DUP5 DUP1 DUP1 PUSH1 0x1F ADD PUSH1 0x20 DUP1 SWAP2 DIV MUL PUSH1 0x20 ADD PUSH1 0x40 MLOAD SWAP1 DUP2 ADD PUSH1 0x40 MSTORE DUP1 SWAP4 SWAP3 SWAP2 SWAP1 DUP2 DUP2 MSTORE PUSH1 0x20 ADD DUP4 DUP4 DUP1 DUP3 DUP5 CALLDATACOPY PUSH1 0x0 SWAP3 ADD SWAP2 SWAP1 SWAP2 MSTORE POP PUSH2 0x1366 SWAP3 POP POP POP JUMP JUMPDEST PUSH2 0x882 JUMPI PUSH1 0x40 MLOAD PUSH32 0x8C379A000000000000000000000000000000000000000000000000000000000 DUP2 MSTORE PUSH1 0x4 ADD PUSH2 0x708 SWAP1 PUSH2 0x4EDB JUMP JUMPDEST POP POP PUSH1 0x0 SWAP2 DUP3 MSTORE PUSH1 0x7 PUSH1 0x20 SWAP1 DUP2 MSTORE PUSH1 0x40 DUP1 DUP5 KECCAK256 PUSH20 0xFFFFFFFFFFFFFFFFFFFFFFFFFFFFFFFFFFFFFFFF SWAP1 SWAP4 AND DUP5 MSTORE SWAP2 SWAP1 MSTORE SWAP1 KECCAK256 DUP1 SLOAD PUSH32 0xFFFFFFFFFFFFFFFFFFFFFFFFFFFFFFFFFFFFFFFFFFFFFFFFFFFFFFFFFFFFFF00 AND PUSH1 0x1 OR SWAP1 SSTORE JUMP JUMPDEST PUSH2 0x8E7 PUSH2 0x3CE7 JUMP JUMPDEST PUSH1 0x0 SLOAD PUSH1 0xFF AND ISZERO PUSH2 0x924 JUMPI PUSH1 0x40 MLOAD PUSH32 0x8C379A000000000000000000000000000000000000000000000000000000000 DUP2 MSTORE PUSH1 0x4 ADD PUSH2 0x708 SWAP1 PUSH2 0x51CC JUMP JUMPDEST PUSH1 0x0 DUP1 SLOAD PUSH32 0xFFFFFFFFFFFFFFFFFFFFFFFFFFFFFFFFFFFFFFFFFFFFFFFFFFFFFFFFFFFFFF00 AND PUSH1 0x1 OR SWAP1 SSTORE PUSH2 0x160 DUP1 DUP7 ADD MLOAD PUSH2 0x140 DUP1 DUP8 ADD SWAP2 SWAP1 SWAP2 MSTORE DUP7 ADD MLOAD SWAP1 DUP6 ADD MSTORE PUSH2 0x96F PUSH2 0x3D15 JUMP JUMPDEST PUSH2 0x978 DUP7 PUSH2 0x1E3D JUMP JUMPDEST SWAP1 POP PUSH2 0x982 PUSH2 0x3D15 JUMP JUMPDEST PUSH2 0x98B DUP7 PUSH2 0x1E3D JUMP JUMPDEST SWAP1 POP PUSH1 0x0 PUSH2 0x997 PUSH2 0x2660 JUMP JUMPDEST SWAP1 POP PUSH2 0x9A5 DUP9 DUP5 DUP4 DUP10 PUSH2 0x2692 JUMP JUMPDEST PUSH2 0x9B1 DUP8 DUP4 DUP4 DUP9 PUSH2 0x2692 JUMP JUMPDEST PUSH2 0x9BB DUP9 DUP9 PUSH2 0x2824 JUMP JUMPDEST PUSH2 0x9CF DUP9 DUP9 DUP6 PUSH1 0x40 ADD MLOAD DUP6 PUSH1 0x40 ADD MLOAD PUSH2 0x2884 JUMP JUMPDEST DUP1 MLOAD PUSH1 0x20 DUP2 ADD MLOAD SWAP1 MLOAD SWAP2 SWAP6 POP PUSH2 0x9EA SWAP2 DUP11 SWAP2 DUP7 SWAP2 DUP2 SWAP1 PUSH2 0x2A0D JUMP JUMPDEST PUSH1 0x20 DUP1 DUP6 ADD MLOAD SWAP1 DUP2 ADD MLOAD SWAP1 MLOAD PUSH2 0xA06 SWAP2 DUP10 SWAP2 DUP6 SWAP2 SWAP1 DUP2 SWAP1 PUSH2 0x2A0D JUMP JUMPDEST PUSH2 0xA1F DUP9 DUP3 DUP6 PUSH1 0x20 ADD MLOAD DUP7 PUSH1 0x40 ADD MLOAD DUP9 PUSH1 0x0 ADD MLOAD PUSH2 0x243C JUMP JUMPDEST PUSH2 0xA38 DUP8 DUP3 DUP5 PUSH1 0x20 ADD MLOAD DUP6 PUSH1 0x40 ADD MLOAD DUP9 PUSH1 0x20 ADD MLOAD PUSH2 0x243C JUMP JUMPDEST PUSH2 0xA44 DUP9 DUP9 DUP4 DUP8 PUSH2 0x2B1D JUMP JUMPDEST POP POP POP PUSH1 0x0 DUP1 SLOAD PUSH32 0xFFFFFFFFFFFFFFFFFFFFFFFFFFFFFFFFFFFFFFFFFFFFFFFFFFFFFFFFFFFFFF00 AND SWAP1 SSTORE SWAP5 SWAP4 POP POP POP POP JUMP JUMPDEST PUSH2 0xA7F PUSH2 0x3CBF JUMP JUMPDEST PUSH1 0x60 PUSH2 0xA8C DUP6 DUP6 DUP6 PUSH2 0x2CF5 JUMP JUMPDEST SWAP1 POP PUSH1 0x80 DUP2 DUP3 MLOAD PUSH1 0x20 DUP5 ADD ADDRESS GAS DELEGATECALL DUP1 ISZERO PUSH2 0xAC3 JUMPI DUP2 MLOAD DUP4 MSTORE PUSH1 0x20 DUP3 ADD MLOAD PUSH1 0x20 DUP5 ADD MSTORE PUSH1 0x40 DUP3 ADD MLOAD PUSH1 0x40 DUP5 ADD MSTORE PUSH1 0x60 DUP3 ADD MLOAD PUSH1 0x60 DUP5 ADD MSTORE JUMPDEST POP POP SWAP4 SWAP3 POP POP POP JUMP JUMPDEST PUSH1 0xB PUSH1 0x20 MSTORE PUSH1 0x0 SWAP1 DUP2 MSTORE PUSH1 0x40 SWAP1 KECCAK256 SLOAD PUSH20 0xFFFFFFFFFFFFFFFFFFFFFFFFFFFFFFFFFFFFFFFF AND DUP2 JUMP JUMPDEST PUSH1 0x0 SLOAD PUSH1 0xFF AND ISZERO PUSH2 0xB31 JUMPI PUSH1 0x40 MLOAD PUSH32 0x8C379A000000000000000000000000000000000000000000000000000000000 DUP2 MSTORE PUSH1 0x4 ADD PUSH2 0x708 SWAP1 PUSH2 0x51CC JUMP JUMPDEST PUSH1 0x0 DUP1 SLOAD PUSH32 0xFFFFFFFFFFFFFFFFFFFFFFFFFFFFFFFFFFFFFFFFFFFFFFFFFFFFFFFFFFFFFF00 AND PUSH1 0x1 OR DUP2 SSTORE DUP2 MLOAD SWAP1 JUMPDEST DUP2 DUP2 EQ PUSH2 0xB8B JUMPI PUSH2 0xB83 DUP4 DUP3 DUP2 MLOAD DUP2 LT PUSH2 0xB76 JUMPI INVALID JUMPDEST PUSH1 0x20 MUL PUSH1 0x20 ADD ADD MLOAD PUSH2 0x2ECA JUMP JUMPDEST PUSH1 0x1 ADD PUSH2 0xB60 JUMP JUMPDEST POP POP PUSH1 0x0 DUP1 SLOAD PUSH32 0xFFFFFFFFFFFFFFFFFFFFFFFFFFFFFFFFFFFFFFFFFFFFFFFFFFFFFFFFFFFFFF00 AND SWAP1 SSTORE POP JUMP JUMPDEST PUSH2 0xBC0 PUSH2 0x3CBF JUMP JUMPDEST PUSH1 0x0 SLOAD PUSH1 0xFF AND ISZERO PUSH2 0xBFD JUMPI PUSH1 0x40 MLOAD PUSH32 0x8C379A000000000000000000000000000000000000000000000000000000000 DUP2 MSTORE PUSH1 0x4 ADD PUSH2 0x708 SWAP1 PUSH2 0x51CC JUMP JUMPDEST PUSH1 0x0 DUP1 SLOAD PUSH32 0xFFFFFFFFFFFFFFFFFFFFFFFFFFFFFFFFFFFFFFFFFFFFFFFFFFFFFFFFFFFFFF00 AND PUSH1 0x1 OR DUP2 SSTORE DUP5 MLOAD SWAP1 JUMPDEST DUP2 DUP2 EQ PUSH2 0x7A8 JUMPI PUSH2 0xC3B PUSH2 0x3CBF JUMP JUMPDEST PUSH2 0xC7F DUP8 DUP4 DUP2 MLOAD DUP2 LT PUSH2 0xC4A JUMPI INVALID JUMPDEST PUSH1 0x20 MUL PUSH1 0x20 ADD ADD MLOAD DUP8 DUP5 DUP2 MLOAD DUP2 LT PUSH2 0xC5E JUMPI INVALID JUMPDEST PUSH1 0x20 MUL PUSH1 0x20 ADD ADD MLOAD DUP8 DUP6 DUP2 MLOAD DUP2 LT PUSH2 0xC72 JUMPI INVALID JUMPDEST PUSH1 0x20 MUL PUSH1 0x20 ADD ADD MLOAD PUSH2 0x2EF5 JUMP JUMPDEST SWAP1 POP PUSH2 0xC8B DUP5 DUP3 PUSH2 0x25FE JUMP JUMPDEST POP PUSH1 0x1 ADD PUSH2 0xC2C JUMP JUMPDEST PUSH1 0x0 SLOAD PUSH1 0xFF AND ISZERO PUSH2 0xCD1 JUMPI PUSH1 0x40 MLOAD PUSH32 0x8C379A000000000000000000000000000000000000000000000000000000000 DUP2 MSTORE PUSH1 0x4 ADD PUSH2 0x708 SWAP1 PUSH2 0x51CC JUMP JUMPDEST PUSH1 0x0 DUP1 SLOAD PUSH32 0xFFFFFFFFFFFFFFFFFFFFFFFFFFFFFFFFFFFFFFFFFFFFFFFFFFFFFFFFFFFFFF00 AND PUSH1 0x1 OR DUP2 SSTORE PUSH2 0xD04 PUSH2 0x2660 JUMP JUMPDEST SWAP1 POP PUSH1 0x0 PUSH20 0xFFFFFFFFFFFFFFFFFFFFFFFFFFFFFFFFFFFFFFFF DUP3 AND CALLER EQ PUSH2 0xD2B JUMPI CALLER PUSH2 0xD2E JUMP JUMPDEST PUSH1 0x0 JUMPDEST PUSH20 0xFFFFFFFFFFFFFFFFFFFFFFFFFFFFFFFFFFFFFFFF DUP1 DUP5 AND PUSH1 0x0 SWAP1 DUP2 MSTORE PUSH1 0x6 PUSH1 0x20 SWAP1 DUP2 MSTORE PUSH1 0x40 DUP1 DUP4 KECCAK256 SWAP4 DUP6 AND DUP4 MSTORE SWAP3 SWAP1 MSTORE KECCAK256 SLOAD SWAP1 SWAP2 POP PUSH1 0x1 DUP5 ADD SWAP1 DUP1 DUP3 GT PUSH2 0xDA2 JUMPI PUSH1 0x40 MLOAD PUSH32 0x8C379A000000000000000000000000000000000000000000000000000000000 DUP2 MSTORE PUSH1 0x4 ADD PUSH2 0x708 SWAP1 PUSH2 0x50F0 JUMP JUMPDEST PUSH20 0xFFFFFFFFFFFFFFFFFFFFFFFFFFFFFFFFFFFFFFFF DUP1 DUP6 AND PUSH1 0x0 DUP2 DUP2 MSTORE PUSH1 0x6 PUSH1 0x20 SWAP1 DUP2 MSTORE PUSH1 0x40 DUP1 DUP4 KECCAK256 SWAP5 DUP9 AND DUP1 DUP5 MSTORE SWAP5 SWAP1 SWAP2 MSTORE SWAP1 DUP2 SWAP1 KECCAK256 DUP6 SWAP1 SSTORE MLOAD PUSH32 0x82AF639571738F4EBD4268FB0363D8957EBE1BBB9E78DBA5EBD69EED39B154F0 SWAP1 PUSH2 0xE0A SWAP1 DUP7 SWAP1 PUSH2 0x4B48 JUMP JUMPDEST PUSH1 0x40 MLOAD DUP1 SWAP2 SUB SWAP1 LOG3 POP POP PUSH1 0x0 DUP1 SLOAD PUSH32 0xFFFFFFFFFFFFFFFFFFFFFFFFFFFFFFFFFFFFFFFFFFFFFFFFFFFFFFFFFFFFFF00 AND SWAP1 SSTORE POP POP POP JUMP JUMPDEST PUSH2 0xE49 PUSH2 0x3CBF JUMP JUMPDEST DUP4 MLOAD PUSH1 0x0 JUMPDEST DUP2 DUP2 EQ PUSH2 0xAC3 JUMPI PUSH2 0xE5D PUSH2 0x3CBF JUMP JUMPDEST PUSH2 0xEA1 DUP8 DUP4 DUP2 MLOAD DUP2 LT PUSH2 0xE6C JUMPI INVALID JUMPDEST PUSH1 0x20 MUL PUSH1 0x20 ADD ADD MLOAD DUP8 DUP5 DUP2 MLOAD DUP2 LT PUSH2 0xE80 JUMPI INVALID JUMPDEST PUSH1 0x20 MUL PUSH1 0x20 ADD ADD MLOAD DUP8 DUP6 DUP2 MLOAD DUP2 LT PUSH2 0xE94 JUMPI INVALID JUMPDEST PUSH1 0x20 MUL PUSH1 0x20 ADD ADD MLOAD PUSH2 0xA77 JUMP JUMPDEST SWAP1 POP PUSH2 0xEAD DUP5 DUP3 PUSH2 0x25FE JUMP JUMPDEST POP PUSH1 0x1 ADD PUSH2 0xE4E JUMP JUMPDEST PUSH32 0xFFFFFFFF00000000000000000000000000000000000000000000000000000000 DUP2 AND PUSH1 0x0 SWAP1 DUP2 MSTORE PUSH1 0xB PUSH1 0x20 MSTORE PUSH1 0x40 SWAP1 KECCAK256 SLOAD PUSH20 0xFFFFFFFFFFFFFFFFFFFFFFFFFFFFFFFFFFFFFFFF AND JUMPDEST SWAP2 SWAP1 POP JUMP JUMPDEST PUSH1 0x9 PUSH1 0x20 MSTORE PUSH1 0x0 SWAP1 DUP2 MSTORE PUSH1 0x40 SWAP1 KECCAK256 SLOAD PUSH1 0xFF AND DUP2 JUMP JUMPDEST PUSH2 0xF21 PUSH2 0x3CBF JUMP JUMPDEST PUSH1 0x0 SLOAD PUSH1 0xFF AND ISZERO PUSH2 0xF5E JUMPI PUSH1 0x40 MLOAD PUSH32 0x8C379A000000000000000000000000000000000000000000000000000000000 DUP2 MSTORE PUSH1 0x4 ADD PUSH2 0x708 SWAP1 PUSH2 0x51CC JUMP JUMPDEST PUSH1 0x0 DUP1 SLOAD PUSH32 0xFFFFFFFFFFFFFFFFFFFFFFFFFFFFFFFFFFFFFFFFFFFFFFFFFFFFFFFFFFFFFF00 AND PUSH1 0x1 OR SWAP1 SSTORE PUSH2 0xF94 DUP5 DUP5 DUP5 PUSH2 0x2EF5 JUMP JUMPDEST PUSH1 0x0 DUP1 SLOAD PUSH32 0xFFFFFFFFFFFFFFFFFFFFFFFFFFFFFFFFFFFFFFFFFFFFFFFFFFFFFFFFFFFFFF00 AND SWAP1 SSTORE SWAP5 SWAP4 POP POP POP POP JUMP JUMPDEST PUSH2 0xFCC PUSH2 0x3CBF JUMP JUMPDEST PUSH2 0xFD6 DUP4 DUP4 PUSH2 0x25FE JUMP JUMPDEST POP DUP2 JUMPDEST SWAP3 SWAP2 POP POP JUMP JUMPDEST PUSH1 0x0 PUSH2 0x686 DUP5 DUP5 DUP5 PUSH2 0x2F47 JUMP JUMPDEST PUSH1 0x0 SLOAD PUSH1 0xFF AND ISZERO PUSH2 0x1029 JUMPI PUSH1 0x40 MLOAD PUSH32 0x8C379A000000000000000000000000000000000000000000000000000000000 DUP2 MSTORE PUSH1 0x4 ADD PUSH2 0x708 SWAP1 PUSH2 0x51CC JUMP JUMPDEST PUSH1 0x0 DUP1 SLOAD PUSH32 0xFFFFFFFFFFFFFFFFFFFFFFFFFFFFFFFFFFFFFFFFFFFFFFFFFFFFFFFFFFFFFF00 AND PUSH1 0x1 OR DUP2 SSTORE PUSH2 0x105C PUSH2 0x2660 JUMP JUMPDEST PUSH20 0xFFFFFFFFFFFFFFFFFFFFFFFFFFFFFFFFFFFFFFFF DUP2 DUP2 AND PUSH1 0x0 DUP2 DUP2 MSTORE PUSH1 0x8 PUSH1 0x20 SWAP1 DUP2 MSTORE PUSH1 0x40 DUP1 DUP4 KECCAK256 SWAP5 DUP10 AND DUP1 DUP5 MSTORE SWAP5 SWAP1 SWAP2 MSTORE SWAP1 DUP2 SWAP1 KECCAK256 DUP1 SLOAD PUSH32 0xFFFFFFFFFFFFFFFFFFFFFFFFFFFFFFFFFFFFFFFFFFFFFFFFFFFFFFFFFFFFFF00 AND DUP8 ISZERO ISZERO OR SWAP1 SSTORE MLOAD SWAP3 SWAP4 POP SWAP1 SWAP2 PUSH32 0xA8656E308026EEABCE8F0BC18048433252318AB80AC79DA0B3D3D8697DFBA891 SWAP1 PUSH2 0x10F0 SWAP1 DUP7 SWAP1 PUSH2 0x4B3D JUMP JUMPDEST PUSH1 0x40 MLOAD DUP1 SWAP2 SUB SWAP1 LOG3 POP POP PUSH1 0x0 DUP1 SLOAD PUSH32 0xFFFFFFFFFFFFFFFFFFFFFFFFFFFFFFFFFFFFFFFFFFFFFFFFFFFFFFFFFFFFFF00 AND SWAP1 SSTORE POP JUMP JUMPDEST PUSH1 0x8 PUSH1 0x20 SWAP1 DUP2 MSTORE PUSH1 0x0 SWAP3 DUP4 MSTORE PUSH1 0x40 DUP1 DUP5 KECCAK256 SWAP1 SWAP2 MSTORE SWAP1 DUP3 MSTORE SWAP1 KECCAK256 SLOAD PUSH1 0xFF AND DUP2 JUMP JUMPDEST PUSH2 0x114D PUSH2 0x3CBF JUMP JUMPDEST PUSH1 0x0 SLOAD PUSH1 0xFF AND ISZERO PUSH2 0x118A JUMPI PUSH1 0x40 MLOAD PUSH32 0x8C379A000000000000000000000000000000000000000000000000000000000 DUP2 MSTORE PUSH1 0x4 ADD PUSH2 0x708 SWAP1 PUSH2 0x51CC JUMP JUMPDEST PUSH1 0x0 DUP1 SLOAD PUSH32 0xFFFFFFFFFFFFFFFFFFFFFFFFFFFFFFFFFFFFFFFFFFFFFFFFFFFFFFFFFFFFFF00 AND PUSH1 0x1 OR DUP2 SSTORE DUP5 MLOAD PUSH1 0x60 SWAP2 DUP7 SWAP2 PUSH2 0x11C2 JUMPI INVALID JUMPDEST PUSH1 0x20 SWAP1 DUP2 MUL SWAP2 SWAP1 SWAP2 ADD ADD MLOAD PUSH2 0x160 ADD MLOAD DUP6 MLOAD SWAP1 SWAP2 POP PUSH1 0x0 JUMPDEST DUP2 DUP2 EQ PUSH2 0x1264 JUMPI DUP3 DUP8 DUP3 DUP2 MLOAD DUP2 LT PUSH2 0x11EE JUMPI INVALID JUMPDEST PUSH1 0x20 MUL PUSH1 0x20 ADD ADD MLOAD PUSH2 0x160 ADD DUP2 SWAP1 MSTORE POP PUSH1 0x0 PUSH2 0x120E DUP8 DUP7 PUSH1 0x20 ADD MLOAD PUSH2 0x2FC8 JUMP JUMPDEST SWAP1 POP PUSH2 0x1218 PUSH2 0x3CBF JUMP JUMPDEST PUSH2 0x123C DUP10 DUP5 DUP2 MLOAD DUP2 LT PUSH2 0x1227 JUMPI INVALID JUMPDEST PUSH1 0x20 MUL PUSH1 0x20 ADD ADD MLOAD DUP4 DUP10 DUP7 DUP2 MLOAD DUP2 LT PUSH2 0x786 JUMPI INVALID JUMPDEST SWAP1 POP PUSH2 0x1248 DUP7 DUP3 PUSH2 0x25FE JUMP JUMPDEST DUP8 DUP7 PUSH1 0x20 ADD MLOAD LT PUSH2 0x125A JUMPI POP POP PUSH2 0x1264 JUMP JUMPDEST POP POP PUSH1 0x1 ADD PUSH2 0x11DA JUMP JUMPDEST POP POP POP PUSH1 0x0 DUP1 SLOAD PUSH32 0xFFFFFFFFFFFFFFFFFFFFFFFFFFFFFFFFFFFFFFFFFFFFFFFFFFFFFFFFFFFFFF00 AND SWAP1 SSTORE SWAP4 SWAP3 POP POP POP JUMP JUMPDEST PUSH1 0x60 PUSH1 0x0 DUP3 MLOAD SWAP1 POP PUSH1 0x60 DUP2 PUSH1 0x40 MLOAD SWAP1 DUP1 DUP3 MSTORE DUP1 PUSH1 0x20 MUL PUSH1 0x20 ADD DUP3 ADD PUSH1 0x40 MSTORE DUP1 ISZERO PUSH2 0x12DA JUMPI DUP2 PUSH1 0x20 ADD JUMPDEST PUSH2 0x12C7 PUSH2 0x3D15 JUMP JUMPDEST DUP2 MSTORE PUSH1 0x20 ADD SWAP1 PUSH1 0x1 SWAP1 SUB SWAP1 DUP2 PUSH2 0x12BF JUMPI SWAP1 POP JUMPDEST POP SWAP1 POP PUSH1 0x0 JUMPDEST DUP3 DUP2 EQ PUSH2 0x1322 JUMPI PUSH2 0x1303 DUP6 DUP3 DUP2 MLOAD DUP2 LT PUSH2 0x12F6 JUMPI INVALID JUMPDEST PUSH1 0x20 MUL PUSH1 0x20 ADD ADD MLOAD PUSH2 0x1E3D JUMP JUMPDEST DUP3 DUP3 DUP2 MLOAD DUP2 LT PUSH2 0x130F JUMPI INVALID JUMPDEST PUSH1 0x20 SWAP1 DUP2 MUL SWAP2 SWAP1 SWAP2 ADD ADD MSTORE PUSH1 0x1 ADD PUSH2 0x12E0 JUMP JUMPDEST POP SWAP4 SWAP3 POP POP POP JUMP JUMPDEST PUSH1 0x7 PUSH1 0x20 SWAP1 DUP2 MSTORE PUSH1 0x0 SWAP3 DUP4 MSTORE PUSH1 0x40 DUP1 DUP5 KECCAK256 SWAP1 SWAP2 MSTORE SWAP1 DUP3 MSTORE SWAP1 KECCAK256 SLOAD PUSH1 0xFF AND DUP2 JUMP JUMPDEST PUSH1 0x3 SLOAD PUSH20 0xFFFFFFFFFFFFFFFFFFFFFFFFFFFFFFFFFFFFFFFF AND DUP2 JUMP JUMPDEST PUSH1 0x0 DUP1 DUP3 MLOAD GT PUSH2 0x13A2 JUMPI PUSH1 0x40 MLOAD PUSH32 0x8C379A000000000000000000000000000000000000000000000000000000000 DUP2 MSTORE PUSH1 0x4 ADD PUSH2 0x708 SWAP1 PUSH2 0x50B9 JUMP JUMPDEST PUSH1 0x0 PUSH2 0x13AD DUP4 PUSH2 0x300A JUMP JUMPDEST PUSH1 0xF8 SHR SWAP1 POP PUSH1 0x7 DUP2 LT PUSH2 0x13EC JUMPI PUSH1 0x40 MLOAD PUSH32 0x8C379A000000000000000000000000000000000000000000000000000000000 DUP2 MSTORE PUSH1 0x4 ADD PUSH2 0x708 SWAP1 PUSH2 0x4D91 JUMP JUMPDEST PUSH1 0x0 DUP2 PUSH1 0xFF AND PUSH1 0x7 DUP2 GT ISZERO PUSH2 0x13FD JUMPI INVALID JUMPDEST SWAP1 POP PUSH1 0x0 DUP1 DUP1 DUP1 DUP1 DUP6 PUSH1 0x7 DUP2 GT ISZERO PUSH2 0x1411 JUMPI INVALID JUMPDEST EQ ISZERO PUSH2 0x1449 JUMPI PUSH1 0x40 MLOAD PUSH32 0x8C379A000000000000000000000000000000000000000000000000000000000 DUP2 MSTORE PUSH1 0x4 ADD PUSH2 0x708 SWAP1 PUSH2 0x5082 JUMP JUMPDEST PUSH1 0x1 DUP6 PUSH1 0x7 DUP2 GT ISZERO PUSH2 0x1457 JUMPI INVALID JUMPDEST EQ ISZERO PUSH2 0x14A6 JUMPI DUP8 MLOAD ISZERO PUSH2 0x1496 JUMPI PUSH1 0x40 MLOAD PUSH32 0x8C379A000000000000000000000000000000000000000000000000000000000 DUP2 MSTORE PUSH1 0x4 ADD PUSH2 0x708 SWAP1 PUSH2 0x5373 JUMP JUMPDEST POP PUSH1 0x0 SWAP6 POP PUSH2 0x689 SWAP5 POP POP POP POP POP JUMP JUMPDEST PUSH1 0x2 DUP6 PUSH1 0x7 DUP2 GT ISZERO PUSH2 0x14B4 JUMPI INVALID JUMPDEST EQ ISZERO PUSH2 0x15CF JUMPI DUP8 MLOAD PUSH1 0x41 EQ PUSH2 0x14F5 JUMPI PUSH1 0x40 MLOAD PUSH32 0x8C379A000000000000000000000000000000000000000000000000000000000 DUP2 MSTORE PUSH1 0x4 ADD PUSH2 0x708 SWAP1 PUSH2 0x4C21 JUMP JUMPDEST DUP8 PUSH1 0x0 DUP2 MLOAD DUP2 LT PUSH2 0x1502 JUMPI INVALID JUMPDEST ADD PUSH1 0x20 ADD MLOAD PUSH1 0xF8 SWAP1 DUP2 SHR DUP2 SHL SWAP1 SHR SWAP4 POP PUSH2 0x1523 DUP9 PUSH1 0x1 PUSH4 0xFFFFFFFF PUSH2 0x308D AND JUMP JUMPDEST SWAP3 POP PUSH2 0x1536 DUP9 PUSH1 0x21 PUSH4 0xFFFFFFFF PUSH2 0x308D AND JUMP JUMPDEST SWAP2 POP PUSH1 0x1 DUP11 DUP6 DUP6 DUP6 PUSH1 0x40 MLOAD PUSH1 0x0 DUP2 MSTORE PUSH1 0x20 ADD PUSH1 0x40 MSTORE PUSH1 0x40 MLOAD PUSH2 0x155B SWAP5 SWAP4 SWAP3 SWAP2 SWAP1 PUSH2 0x4BA8 JUMP JUMPDEST PUSH1 0x20 PUSH1 0x40 MLOAD PUSH1 0x20 DUP2 SUB SWAP1 DUP1 DUP5 SUB SWAP1 DUP6 GAS STATICCALL ISZERO DUP1 ISZERO PUSH2 0x157D JUMPI RETURNDATASIZE PUSH1 0x0 DUP1 RETURNDATACOPY RETURNDATASIZE PUSH1 0x0 REVERT JUMPDEST POP POP PUSH1 0x40 MLOAD PUSH32 0xFFFFFFFFFFFFFFFFFFFFFFFFFFFFFFFFFFFFFFFFFFFFFFFFFFFFFFFFFFFFFFE0 ADD MLOAD PUSH20 0xFFFFFFFFFFFFFFFFFFFFFFFFFFFFFFFFFFFFFFFF DUP12 DUP2 AND SWAP2 AND EQ SWAP8 POP PUSH2 0x689 SWAP7 POP POP POP POP POP POP POP JUMP JUMPDEST PUSH1 0x3 DUP6 PUSH1 0x7 DUP2 GT ISZERO PUSH2 0x15DD JUMPI INVALID JUMPDEST EQ ISZERO PUSH2 0x16AA JUMPI DUP8 MLOAD PUSH1 0x41 EQ PUSH2 0x161E JUMPI PUSH1 0x40 MLOAD PUSH32 0x8C379A000000000000000000000000000000000000000000000000000000000 DUP2 MSTORE PUSH1 0x4 ADD PUSH2 0x708 SWAP1 PUSH2 0x4C21 JUMP JUMPDEST DUP8 PUSH1 0x0 DUP2 MLOAD DUP2 LT PUSH2 0x162B JUMPI INVALID JUMPDEST ADD PUSH1 0x20 ADD MLOAD PUSH1 0xF8 SWAP1 DUP2 SHR DUP2 SHL SWAP1 SHR SWAP4 POP PUSH2 0x164C DUP9 PUSH1 0x1 PUSH4 0xFFFFFFFF PUSH2 0x308D AND JUMP JUMPDEST SWAP3 POP PUSH2 0x165F DUP9 PUSH1 0x21 PUSH4 0xFFFFFFFF PUSH2 0x308D AND JUMP JUMPDEST SWAP2 POP PUSH1 0x1 DUP11 PUSH1 0x40 MLOAD PUSH1 0x20 ADD PUSH2 0x1674 SWAP2 SWAP1 PUSH2 0x4760 JUMP JUMPDEST PUSH1 0x40 MLOAD PUSH1 0x20 DUP2 DUP4 SUB SUB DUP2 MSTORE SWAP1 PUSH1 0x40 MSTORE DUP1 MLOAD SWAP1 PUSH1 0x20 ADD KECCAK256 DUP6 DUP6 DUP6 PUSH1 0x40 MLOAD PUSH1 0x0 DUP2 MSTORE PUSH1 0x20 ADD PUSH1 0x40 MSTORE PUSH1 0x40 MLOAD PUSH2 0x155B SWAP5 SWAP4 SWAP3 SWAP2 SWAP1 PUSH2 0x4BA8 JUMP JUMPDEST PUSH1 0x4 DUP6 PUSH1 0x7 DUP2 GT ISZERO PUSH2 0x16B8 JUMPI INVALID JUMPDEST EQ ISZERO PUSH2 0x16D7 JUMPI PUSH2 0x16C9 DUP11 DUP11 DUP11 PUSH2 0x30D6 JUMP JUMPDEST SWAP7 POP PUSH2 0x689 SWAP6 POP POP POP POP POP POP JUMP JUMPDEST PUSH1 0x5 DUP6 PUSH1 0x7 DUP2 GT ISZERO PUSH2 0x16E5 JUMPI INVALID JUMPDEST EQ ISZERO PUSH2 0x175E JUMPI PUSH1 0x0 PUSH2 0x16F6 DUP10 PUSH2 0x322B JUMP JUMPDEST PUSH20 0xFFFFFFFFFFFFFFFFFFFFFFFFFFFFFFFFFFFFFFFF DUP1 DUP13 AND PUSH1 0x0 SWAP1 DUP2 MSTORE PUSH1 0x8 PUSH1 0x20 SWAP1 DUP2 MSTORE PUSH1 0x40 DUP1 DUP4 KECCAK256 SWAP4 DUP6 AND DUP4 MSTORE SWAP3 SWAP1 MSTORE KECCAK256 SLOAD SWAP1 SWAP2 POP PUSH1 0xFF AND PUSH2 0x1743 JUMPI PUSH1 0x0 SWAP8 POP POP POP POP POP POP POP POP PUSH2 0x689 JUMP JUMPDEST PUSH2 0x174F DUP2 DUP13 DUP13 DUP13 PUSH2 0x32A2 JUMP JUMPDEST SWAP8 POP PUSH2 0x689 SWAP7 POP POP POP POP POP POP POP JUMP JUMPDEST PUSH1 0x6 DUP6 PUSH1 0x7 DUP2 GT ISZERO PUSH2 0x176C JUMPI INVALID JUMPDEST EQ ISZERO PUSH2 0x17B3 JUMPI POP POP POP PUSH1 0x0 DUP8 DUP2 MSTORE PUSH1 0x7 PUSH1 0x20 SWAP1 DUP2 MSTORE PUSH1 0x40 DUP1 DUP4 KECCAK256 PUSH20 0xFFFFFFFFFFFFFFFFFFFFFFFFFFFFFFFFFFFFFFFF DUP11 AND DUP5 MSTORE SWAP1 SWAP2 MSTORE SWAP1 KECCAK256 SLOAD PUSH1 0xFF AND SWAP4 POP PUSH2 0x689 SWAP3 POP POP POP JUMP JUMPDEST PUSH1 0x40 MLOAD PUSH32 0x8C379A000000000000000000000000000000000000000000000000000000000 DUP2 MSTORE PUSH1 0x4 ADD PUSH2 0x708 SWAP1 PUSH2 0x4D91 JUMP JUMPDEST PUSH2 0x17ED PUSH2 0x3CBF JUMP JUMPDEST PUSH1 0x60 DUP5 PUSH1 0x0 DUP2 MLOAD DUP2 LT PUSH2 0x17FC JUMPI INVALID JUMPDEST PUSH1 0x20 SWAP1 DUP2 MUL SWAP2 SWAP1 SWAP2 ADD ADD MLOAD PUSH2 0x140 ADD MLOAD DUP6 MLOAD SWAP1 SWAP2 POP PUSH1 0x0 JUMPDEST DUP2 DUP2 EQ PUSH2 0x18DA JUMPI DUP3 DUP8 DUP3 DUP2 MLOAD DUP2 LT PUSH2 0x1828 JUMPI INVALID JUMPDEST PUSH1 0x20 MUL PUSH1 0x20 ADD ADD MLOAD PUSH2 0x140 ADD DUP2 SWAP1 MSTORE POP PUSH1 0x0 PUSH2 0x1848 DUP8 DUP7 PUSH1 0x0 ADD MLOAD PUSH2 0x2FC8 JUMP JUMPDEST SWAP1 POP PUSH1 0x0 PUSH2 0x1885 DUP10 DUP5 DUP2 MLOAD DUP2 LT PUSH2 0x185B JUMPI INVALID JUMPDEST PUSH1 0x20 MUL PUSH1 0x20 ADD ADD MLOAD PUSH1 0xA0 ADD MLOAD DUP11 DUP6 DUP2 MLOAD DUP2 LT PUSH2 0x1873 JUMPI INVALID JUMPDEST PUSH1 0x20 MUL PUSH1 0x20 ADD ADD MLOAD PUSH1 0x80 ADD MLOAD DUP5 PUSH2 0x33FE JUMP JUMPDEST SWAP1 POP PUSH2 0x188F PUSH2 0x3CBF JUMP JUMPDEST PUSH2 0x18B3 DUP11 DUP6 DUP2 MLOAD DUP2 LT PUSH2 0x189E JUMPI INVALID JUMPDEST PUSH1 0x20 MUL PUSH1 0x20 ADD ADD MLOAD DUP4 DUP11 DUP8 DUP2 MLOAD DUP2 LT PUSH2 0xE94 JUMPI INVALID JUMPDEST SWAP1 POP PUSH2 0x18BF DUP8 DUP3 PUSH2 0x25FE JUMP JUMPDEST DUP7 MLOAD DUP10 GT PUSH2 0x18CF JUMPI POP POP POP PUSH2 0x18DA JUMP JUMPDEST POP POP POP PUSH1 0x1 ADD PUSH2 0x1814 JUMP JUMPDEST POP POP POP SWAP4 SWAP3 POP POP POP JUMP JUMPDEST PUSH2 0x18EC PUSH2 0x3CBF JUMP JUMPDEST PUSH1 0x0 SLOAD PUSH1 0xFF AND ISZERO PUSH2 0x1929 JUMPI PUSH1 0x40 MLOAD PUSH32 0x8C379A000000000000000000000000000000000000000000000000000000000 DUP2 MSTORE PUSH1 0x4 ADD PUSH2 0x708 SWAP1 PUSH2 0x51CC JUMP JUMPDEST PUSH1 0x0 DUP1 SLOAD PUSH32 0xFFFFFFFFFFFFFFFFFFFFFFFFFFFFFFFFFFFFFFFFFFFFFFFFFFFFFFFFFFFFFF00 AND PUSH1 0x1 OR SWAP1 SSTORE PUSH2 0xF94 DUP5 DUP5 DUP5 PUSH2 0x255F JUMP JUMPDEST PUSH1 0x0 PUSH2 0x686 DUP5 DUP5 DUP5 PUSH2 0x33FE JUMP JUMPDEST PUSH1 0xA SLOAD PUSH20 0xFFFFFFFFFFFFFFFFFFFFFFFFFFFFFFFFFFFFFFFF AND ISZERO PUSH2 0x19BC JUMPI PUSH1 0x40 MLOAD PUSH32 0x8C379A000000000000000000000000000000000000000000000000000000000 DUP2 MSTORE PUSH1 0x4 ADD PUSH2 0x708 SWAP1 PUSH2 0x51CC JUMP JUMPDEST PUSH1 0x0 PUSH2 0x1A07 PUSH2 0x1A02 DUP9 DUP9 DUP9 DUP9 DUP1 DUP1 PUSH1 0x1F ADD PUSH1 0x20 DUP1 SWAP2 DIV MUL PUSH1 0x20 ADD PUSH1 0x40 MLOAD SWAP1 DUP2 ADD PUSH1 0x40 MSTORE DUP1 SWAP4 SWAP3 SWAP2 SWAP1 DUP2 DUP2 MSTORE PUSH1 0x20 ADD DUP4 DUP4 DUP1 DUP3 DUP5 CALLDATACOPY PUSH1 0x0 SWAP3 ADD SWAP2 SWAP1 SWAP2 MSTORE POP PUSH2 0x3446 SWAP3 POP POP POP JUMP JUMPDEST PUSH2 0x34CE JUMP JUMPDEST PUSH1 0x0 DUP2 DUP2 MSTORE PUSH1 0x9 PUSH1 0x20 MSTORE PUSH1 0x40 SWAP1 KECCAK256 SLOAD SWAP1 SWAP2 POP PUSH1 0xFF AND ISZERO PUSH2 0x1A53 JUMPI PUSH1 0x40 MLOAD PUSH32 0x8C379A000000000000000000000000000000000000000000000000000000000 DUP2 MSTORE PUSH1 0x4 ADD PUSH2 0x708 SWAP1 PUSH2 0x4EA4 JUMP JUMPDEST PUSH20 0xFFFFFFFFFFFFFFFFFFFFFFFFFFFFFFFFFFFFFFFF DUP7 AND CALLER EQ PUSH2 0x1B28 JUMPI PUSH2 0x1AB1 DUP2 DUP8 DUP6 DUP6 DUP1 DUP1 PUSH1 0x1F ADD PUSH1 0x20 DUP1 SWAP2 DIV MUL PUSH1 0x20 ADD PUSH1 0x40 MLOAD SWAP1 DUP2 ADD PUSH1 0x40 MSTORE DUP1 SWAP4 SWAP3 SWAP2 SWAP1 DUP2 DUP2 MSTORE PUSH1 0x20 ADD DUP4 DUP4 DUP1 DUP3 DUP5 CALLDATACOPY PUSH1 0x0 SWAP3 ADD SWAP2 SWAP1 SWAP2 MSTORE POP PUSH2 0x1366 SWAP3 POP POP POP JUMP JUMPDEST PUSH2 0x1AE7 JUMPI PUSH1 0x40 MLOAD PUSH32 0x8C379A000000000000000000000000000000000000000000000000000000000 DUP2 MSTORE PUSH1 0x4 ADD PUSH2 0x708 SWAP1 PUSH2 0x533C JUMP JUMPDEST PUSH1 0xA DUP1 SLOAD PUSH32 0xFFFFFFFFFFFFFFFFFFFFFFFF0000000000000000000000000000000000000000 AND PUSH20 0xFFFFFFFFFFFFFFFFFFFFFFFFFFFFFFFFFFFFFFFF DUP9 AND OR SWAP1 SSTORE JUMPDEST PUSH1 0x0 DUP2 DUP2 MSTORE PUSH1 0x9 PUSH1 0x20 MSTORE PUSH1 0x40 DUP1 DUP3 KECCAK256 DUP1 SLOAD PUSH32 0xFFFFFFFFFFFFFFFFFFFFFFFFFFFFFFFFFFFFFFFFFFFFFFFFFFFFFFFFFFFFFF00 AND PUSH1 0x1 OR SWAP1 SSTORE MLOAD ADDRESS SWAP1 PUSH2 0x1B70 SWAP1 DUP9 SWAP1 DUP9 SWAP1 PUSH2 0x4731 JUMP JUMPDEST PUSH1 0x0 PUSH1 0x40 MLOAD DUP1 DUP4 SUB DUP2 DUP6 GAS DELEGATECALL SWAP2 POP POP RETURNDATASIZE DUP1 PUSH1 0x0 DUP2 EQ PUSH2 0x1BAB JUMPI PUSH1 0x40 MLOAD SWAP2 POP PUSH1 0x1F NOT PUSH1 0x3F RETURNDATASIZE ADD AND DUP3 ADD PUSH1 0x40 MSTORE RETURNDATASIZE DUP3 MSTORE RETURNDATASIZE PUSH1 0x0 PUSH1 0x20 DUP5 ADD RETURNDATACOPY PUSH2 0x1BB0 JUMP JUMPDEST PUSH1 0x60 SWAP2 POP JUMPDEST POP POP SWAP1 POP DUP1 PUSH2 0x1BEB JUMPI PUSH1 0x40 MLOAD PUSH32 0x8C379A000000000000000000000000000000000000000000000000000000000 DUP2 MSTORE PUSH1 0x4 ADD PUSH2 0x708 SWAP1 PUSH2 0x4F49 JUMP JUMPDEST PUSH20 0xFFFFFFFFFFFFFFFFFFFFFFFFFFFFFFFFFFFFFFFF DUP8 AND CALLER EQ PUSH2 0x1C31 JUMPI PUSH1 0xA DUP1 SLOAD PUSH32 0xFFFFFFFFFFFFFFFFFFFFFFFF0000000000000000000000000000000000000000 AND SWAP1 SSTORE JUMPDEST POP POP POP POP POP POP POP POP JUMP JUMPDEST PUSH1 0x3 SLOAD PUSH20 0xFFFFFFFFFFFFFFFFFFFFFFFFFFFFFFFFFFFFFFFF AND CALLER EQ PUSH2 0x1C8C JUMPI PUSH1 0x40 MLOAD PUSH32 0x8C379A000000000000000000000000000000000000000000000000000000000 DUP2 MSTORE PUSH1 0x4 ADD PUSH2 0x708 SWAP1 PUSH2 0x5203 JUMP JUMPDEST PUSH1 0x0 DUP2 PUSH20 0xFFFFFFFFFFFFFFFFFFFFFFFFFFFFFFFFFFFFFFFF AND PUSH4 0xAE25532E PUSH1 0x40 MLOAD DUP2 PUSH4 0xFFFFFFFF AND PUSH1 0xE0 SHL DUP2 MSTORE PUSH1 0x4 ADD PUSH1 0x20 PUSH1 0x40 MLOAD DUP1 DUP4 SUB DUP2 DUP7 DUP1 EXTCODESIZE ISZERO DUP1 ISZERO PUSH2 0x1CD4 JUMPI PUSH1 0x0 DUP1 REVERT JUMPDEST POP GAS STATICCALL ISZERO DUP1 ISZERO PUSH2 0x1CE8 JUMPI RETURNDATASIZE PUSH1 0x0 DUP1 RETURNDATACOPY RETURNDATASIZE PUSH1 0x0 REVERT JUMPDEST POP POP POP POP PUSH1 0x40 MLOAD RETURNDATASIZE PUSH1 0x1F NOT PUSH1 0x1F DUP3 ADD AND DUP3 ADD DUP1 PUSH1 0x40 MSTORE POP PUSH2 0x1D0C SWAP2 SWAP1 DUP2 ADD SWAP1 PUSH2 0x4331 JUMP JUMPDEST PUSH32 0xFFFFFFFF00000000000000000000000000000000000000000000000000000000 DUP2 AND PUSH1 0x0 SWAP1 DUP2 MSTORE PUSH1 0xB PUSH1 0x20 MSTORE PUSH1 0x40 SWAP1 KECCAK256 SLOAD SWAP1 SWAP2 POP PUSH20 0xFFFFFFFFFFFFFFFFFFFFFFFFFFFFFFFFFFFFFFFF AND DUP1 ISZERO PUSH2 0x1D8F JUMPI PUSH1 0x40 MLOAD PUSH32 0x8C379A000000000000000000000000000000000000000000000000000000000 DUP2 MSTORE PUSH1 0x4 ADD PUSH2 0x708 SWAP1 PUSH2 0x4CFD JUMP JUMPDEST PUSH32 0xFFFFFFFF00000000000000000000000000000000000000000000000000000000 DUP3 AND PUSH1 0x0 SWAP1 DUP2 MSTORE PUSH1 0xB PUSH1 0x20 MSTORE PUSH1 0x40 SWAP1 DUP2 SWAP1 KECCAK256 DUP1 SLOAD PUSH32 0xFFFFFFFFFFFFFFFFFFFFFFFF0000000000000000000000000000000000000000 AND PUSH20 0xFFFFFFFFFFFFFFFFFFFFFFFFFFFFFFFFFFFFFFFF DUP7 AND OR SWAP1 SSTORE MLOAD PUSH32 0xD2C6B762299C609BDB96520B58A49BFB80186934D4F71A86A367571A15C03194 SWAP1 PUSH2 0x1E30 SWAP1 DUP5 SWAP1 DUP7 SWAP1 PUSH2 0x4BC6 JUMP JUMPDEST PUSH1 0x40 MLOAD DUP1 SWAP2 SUB SWAP1 LOG1 POP POP POP JUMP JUMPDEST PUSH2 0x1E45 PUSH2 0x3D15 JUMP JUMPDEST PUSH2 0x1E4E DUP3 PUSH2 0x350B JUMP JUMPDEST PUSH1 0x20 DUP1 DUP4 ADD DUP3 SWAP1 MSTORE PUSH1 0x0 SWAP2 DUP3 MSTORE PUSH1 0x4 SWAP1 MSTORE PUSH1 0x40 SWAP1 DUP2 SWAP1 KECCAK256 SLOAD SWAP1 DUP3 ADD MSTORE PUSH1 0x80 DUP3 ADD MLOAD PUSH2 0x1E80 JUMPI PUSH1 0x1 JUMPDEST PUSH1 0xFF AND DUP2 MSTORE PUSH2 0xEFF JUMP JUMPDEST PUSH1 0xA0 DUP3 ADD MLOAD PUSH2 0x1E90 JUMPI PUSH1 0x2 PUSH2 0x1E76 JUMP JUMPDEST DUP2 PUSH1 0xA0 ADD MLOAD DUP2 PUSH1 0x40 ADD MLOAD LT PUSH2 0x1EA6 JUMPI PUSH1 0x5 PUSH2 0x1E76 JUMP JUMPDEST DUP2 PUSH2 0x100 ADD MLOAD TIMESTAMP LT PUSH2 0x1EB9 JUMPI PUSH1 0x4 PUSH2 0x1E76 JUMP JUMPDEST PUSH1 0x20 DUP1 DUP3 ADD MLOAD PUSH1 0x0 SWAP1 DUP2 MSTORE PUSH1 0x5 SWAP1 SWAP2 MSTORE PUSH1 0x40 SWAP1 KECCAK256 SLOAD PUSH1 0xFF AND ISZERO PUSH2 0x1EDD JUMPI PUSH1 0x6 PUSH2 0x1E76 JUMP JUMPDEST PUSH2 0x120 DUP3 ADD MLOAD DUP3 MLOAD PUSH20 0xFFFFFFFFFFFFFFFFFFFFFFFFFFFFFFFFFFFFFFFF SWAP1 DUP2 AND PUSH1 0x0 SWAP1 DUP2 MSTORE PUSH1 0x6 PUSH1 0x20 SWAP1 DUP2 MSTORE PUSH1 0x40 DUP1 DUP4 KECCAK256 PUSH1 0x60 DUP9 ADD MLOAD SWAP1 SWAP5 AND DUP4 MSTORE SWAP3 SWAP1 MSTORE KECCAK256 SLOAD GT ISZERO PUSH2 0x1F2A JUMPI PUSH1 0x6 PUSH2 0x1E76 JUMP JUMPDEST PUSH1 0x3 DUP2 MSTORE SWAP2 SWAP1 POP JUMP JUMPDEST PUSH1 0x0 SLOAD PUSH1 0xFF AND ISZERO PUSH2 0x1F70 JUMPI PUSH1 0x40 MLOAD PUSH32 0x8C379A000000000000000000000000000000000000000000000000000000000 DUP2 MSTORE PUSH1 0x4 ADD PUSH2 0x708 SWAP1 PUSH2 0x51CC JUMP JUMPDEST PUSH1 0x0 DUP1 SLOAD PUSH32 0xFFFFFFFFFFFFFFFFFFFFFFFFFFFFFFFFFFFFFFFFFFFFFFFFFFFFFFFFFFFFFF00 AND PUSH1 0x1 OR SWAP1 SSTORE PUSH2 0x1FA4 DUP2 PUSH2 0x2ECA JUMP JUMPDEST POP PUSH1 0x0 DUP1 SLOAD PUSH32 0xFFFFFFFFFFFFFFFFFFFFFFFFFFFFFFFFFFFFFFFFFFFFFFFFFFFFFFFFFFFFFF00 AND SWAP1 SSTORE JUMP JUMPDEST PUSH1 0x6 PUSH1 0x20 SWAP1 DUP2 MSTORE PUSH1 0x0 SWAP3 DUP4 MSTORE PUSH1 0x40 DUP1 DUP5 KECCAK256 SWAP1 SWAP2 MSTORE SWAP1 DUP3 MSTORE SWAP1 KECCAK256 SLOAD DUP2 JUMP JUMPDEST PUSH1 0x1 DUP1 SLOAD PUSH1 0x40 DUP1 MLOAD PUSH1 0x20 PUSH1 0x2 DUP5 DUP7 AND ISZERO PUSH2 0x100 MUL PUSH32 0xFFFFFFFFFFFFFFFFFFFFFFFFFFFFFFFFFFFFFFFFFFFFFFFFFFFFFFFFFFFFFFFF ADD SWAP1 SWAP5 AND SWAP4 SWAP1 SWAP4 DIV PUSH1 0x1F DUP2 ADD DUP5 SWAP1 DIV DUP5 MUL DUP3 ADD DUP5 ADD SWAP1 SWAP3 MSTORE DUP2 DUP2 MSTORE SWAP3 SWAP2 DUP4 ADD DUP3 DUP3 DUP1 ISZERO PUSH2 0x208F JUMPI DUP1 PUSH1 0x1F LT PUSH2 0x2064 JUMPI PUSH2 0x100 DUP1 DUP4 SLOAD DIV MUL DUP4 MSTORE SWAP2 PUSH1 0x20 ADD SWAP2 PUSH2 0x208F JUMP JUMPDEST DUP3 ADD SWAP2 SWAP1 PUSH1 0x0 MSTORE PUSH1 0x20 PUSH1 0x0 KECCAK256 SWAP1 JUMPDEST DUP2 SLOAD DUP2 MSTORE SWAP1 PUSH1 0x1 ADD SWAP1 PUSH1 0x20 ADD DUP1 DUP4 GT PUSH2 0x2072 JUMPI DUP3 SWAP1 SUB PUSH1 0x1F AND DUP3 ADD SWAP2 JUMPDEST POP POP POP POP POP DUP2 JUMP JUMPDEST PUSH2 0x209F PUSH2 0x3CBF JUMP JUMPDEST PUSH1 0x60 DUP5 PUSH1 0x0 DUP2 MLOAD DUP2 LT PUSH2 0x20AE JUMPI INVALID JUMPDEST PUSH1 0x20 SWAP1 DUP2 MUL SWAP2 SWAP1 SWAP2 ADD ADD MLOAD PUSH2 0x160 ADD MLOAD DUP6 MLOAD SWAP1 SWAP2 POP PUSH1 0x0 JUMPDEST DUP2 DUP2 EQ PUSH2 0x18DA JUMPI DUP3 DUP8 DUP3 DUP2 MLOAD DUP2 LT PUSH2 0x20DA JUMPI INVALID JUMPDEST PUSH1 0x20 MUL PUSH1 0x20 ADD ADD MLOAD PUSH2 0x160 ADD DUP2 SWAP1 MSTORE POP PUSH1 0x0 PUSH2 0x20FA DUP8 DUP7 PUSH1 0x20 ADD MLOAD PUSH2 0x2FC8 JUMP JUMPDEST SWAP1 POP PUSH2 0x2104 PUSH2 0x3CBF JUMP JUMPDEST PUSH2 0x2128 DUP10 DUP5 DUP2 MLOAD DUP2 LT PUSH2 0x2113 JUMPI INVALID JUMPDEST PUSH1 0x20 MUL PUSH1 0x20 ADD ADD MLOAD DUP4 DUP10 DUP7 DUP2 MLOAD DUP2 LT PUSH2 0xE94 JUMPI INVALID JUMPDEST SWAP1 POP PUSH2 0x2134 DUP7 DUP3 PUSH2 0x25FE JUMP JUMPDEST DUP8 DUP7 PUSH1 0x20 ADD MLOAD LT PUSH2 0x2146 JUMPI POP POP PUSH2 0x18DA JUMP JUMPDEST POP POP PUSH1 0x1 ADD PUSH2 0x20C6 JUMP JUMPDEST PUSH1 0x0 PUSH2 0x686 DUP5 DUP5 DUP5 PUSH2 0x3519 JUMP JUMPDEST PUSH1 0x0 PUSH2 0x686 DUP5 DUP5 DUP5 PUSH2 0x3596 JUMP JUMPDEST PUSH2 0x2172 PUSH2 0x3CBF JUMP JUMPDEST PUSH2 0x689 DUP4 DUP4 PUSH2 0x3613 JUMP JUMPDEST PUSH1 0x2 SLOAD DUP2 JUMP JUMPDEST PUSH2 0x218A PUSH2 0x3CBF JUMP JUMPDEST PUSH1 0x0 SLOAD PUSH1 0xFF AND ISZERO PUSH2 0x21C7 JUMPI PUSH1 0x40 MLOAD PUSH32 0x8C379A000000000000000000000000000000000000000000000000000000000 DUP2 MSTORE PUSH1 0x4 ADD PUSH2 0x708 SWAP1 PUSH2 0x51CC JUMP JUMPDEST PUSH1 0x0 DUP1 SLOAD PUSH32 0xFFFFFFFFFFFFFFFFFFFFFFFFFFFFFFFFFFFFFFFFFFFFFFFFFFFFFFFFFFFFFF00 AND PUSH1 0x1 OR DUP2 SSTORE DUP5 MLOAD PUSH1 0x60 SWAP2 DUP7 SWAP2 PUSH2 0x21FF JUMPI INVALID JUMPDEST PUSH1 0x20 SWAP1 DUP2 MUL SWAP2 SWAP1 SWAP2 ADD ADD MLOAD PUSH2 0x140 ADD MLOAD DUP6 MLOAD SWAP1 SWAP2 POP PUSH1 0x0 JUMPDEST DUP2 DUP2 EQ PUSH2 0x1264 JUMPI DUP3 DUP8 DUP3 DUP2 MLOAD DUP2 LT PUSH2 0x222B JUMPI INVALID JUMPDEST PUSH1 0x20 MUL PUSH1 0x20 ADD ADD MLOAD PUSH2 0x140 ADD DUP2 SWAP1 MSTORE POP PUSH1 0x0 PUSH2 0x224B DUP8 DUP7 PUSH1 0x0 ADD MLOAD PUSH2 0x2FC8 JUMP JUMPDEST SWAP1 POP PUSH1 0x0 PUSH2 0x225E DUP10 DUP5 DUP2 MLOAD DUP2 LT PUSH2 0x185B JUMPI INVALID JUMPDEST SWAP1 POP PUSH2 0x2268 PUSH2 0x3CBF JUMP JUMPDEST PUSH2 0x228C DUP11 DUP6 DUP2 MLOAD DUP2 LT PUSH2 0x2277 JUMPI INVALID JUMPDEST PUSH1 0x20 MUL PUSH1 0x20 ADD ADD MLOAD DUP4 DUP11 DUP8 DUP2 MLOAD DUP2 LT PUSH2 0x786 JUMPI INVALID JUMPDEST SWAP1 POP PUSH2 0x2298 DUP8 DUP3 PUSH2 0x25FE JUMP JUMPDEST DUP7 MLOAD DUP10 GT PUSH2 0x22A8 JUMPI POP POP POP PUSH2 0x1264 JUMP JUMPDEST POP POP POP PUSH1 0x1 ADD PUSH2 0x2217 JUMP JUMPDEST PUSH1 0xA SLOAD PUSH20 0xFFFFFFFFFFFFFFFFFFFFFFFFFFFFFFFFFFFFFFFF AND DUP2 JUMP JUMPDEST PUSH1 0x3 SLOAD PUSH20 0xFFFFFFFFFFFFFFFFFFFFFFFFFFFFFFFFFFFFFFFF AND CALLER EQ PUSH2 0x2320 JUMPI PUSH1 0x40 MLOAD PUSH32 0x8C379A000000000000000000000000000000000000000000000000000000000 DUP2 MSTORE PUSH1 0x4 ADD PUSH2 0x708 SWAP1 PUSH2 0x5203 JUMP JUMPDEST PUSH20 0xFFFFFFFFFFFFFFFFFFFFFFFFFFFFFFFFFFFFFFFF DUP2 AND ISZERO PUSH2 0x237D JUMPI PUSH1 0x3 DUP1 SLOAD PUSH32 0xFFFFFFFFFFFFFFFFFFFFFFFF0000000000000000000000000000000000000000 AND PUSH20 0xFFFFFFFFFFFFFFFFFFFFFFFFFFFFFFFFFFFFFFFF DUP4 AND OR SWAP1 SSTORE JUMPDEST POP JUMP JUMPDEST PUSH1 0x40 MLOAD DUP1 PUSH1 0x40 ADD PUSH1 0x40 MSTORE DUP1 PUSH1 0x5 DUP2 MSTORE PUSH1 0x20 ADD PUSH32 0x332E302E30000000000000000000000000000000000000000000000000000000 DUP2 MSTORE POP DUP2 JUMP JUMPDEST PUSH1 0x0 DUP1 DUP4 GT PUSH2 0x23F4 JUMPI PUSH1 0x40 MLOAD PUSH32 0x8C379A000000000000000000000000000000000000000000000000000000000 DUP2 MSTORE PUSH1 0x4 ADD PUSH2 0x708 SWAP1 PUSH2 0x4DC8 JUMP JUMPDEST DUP2 ISZERO DUP1 PUSH2 0x23FF JUMPI POP DUP4 ISZERO JUMPDEST ISZERO PUSH2 0x240C JUMPI POP PUSH1 0x0 PUSH2 0x689 JUMP JUMPDEST PUSH1 0x0 DUP4 DUP1 PUSH2 0x2416 JUMPI INVALID JUMPDEST DUP6 DUP5 MULMOD SWAP1 POP PUSH2 0x2425 DUP6 DUP5 PUSH2 0x3674 JUMP JUMPDEST PUSH2 0x2431 PUSH2 0x3E8 DUP4 PUSH2 0x3674 JUMP JUMPDEST LT ISZERO SWAP6 SWAP5 POP POP POP POP POP JUMP JUMPDEST PUSH2 0x244A DUP3 DUP3 PUSH1 0x20 ADD MLOAD PUSH2 0x36C8 JUMP JUMPDEST PUSH1 0x4 PUSH1 0x0 DUP6 DUP2 MSTORE PUSH1 0x20 ADD SWAP1 DUP2 MSTORE PUSH1 0x20 ADD PUSH1 0x0 KECCAK256 DUP2 SWAP1 SSTORE POP DUP3 DUP6 PUSH1 0x40 ADD MLOAD PUSH20 0xFFFFFFFFFFFFFFFFFFFFFFFFFFFFFFFFFFFFFFFF AND DUP7 PUSH1 0x0 ADD MLOAD PUSH20 0xFFFFFFFFFFFFFFFFFFFFFFFFFFFFFFFFFFFFFFFF AND PUSH32 0xBCC4C97732E47D9946F229EDB95F5B6323F601300E4690DE719993F3C371129 DUP8 CALLER DUP7 PUSH1 0x0 ADD MLOAD DUP8 PUSH1 0x20 ADD MLOAD DUP9 PUSH1 0x40 ADD MLOAD DUP10 PUSH1 0x60 ADD MLOAD DUP15 PUSH2 0x140 ADD MLOAD DUP16 PUSH2 0x160 ADD MLOAD PUSH1 0x40 MLOAD PUSH2 0x24EF SWAP9 SWAP8 SWAP7 SWAP6 SWAP5 SWAP4 SWAP3 SWAP2 SWAP1 PUSH2 0x4A7B JUMP JUMPDEST PUSH1 0x40 MLOAD DUP1 SWAP2 SUB SWAP1 LOG4 POP POP POP POP POP JUMP JUMPDEST PUSH1 0x0 DUP1 DUP4 GT PUSH2 0x2539 JUMPI PUSH1 0x40 MLOAD PUSH32 0x8C379A000000000000000000000000000000000000000000000000000000000 DUP2 MSTORE PUSH1 0x4 ADD PUSH2 0x708 SWAP1 PUSH2 0x4DC8 JUMP JUMPDEST PUSH2 0x686 PUSH2 0x2559 PUSH2 0x2549 DUP7 DUP6 PUSH2 0x3674 JUMP JUMPDEST PUSH2 0x2554 DUP7 PUSH1 0x1 PUSH2 0x2FC8 JUMP JUMPDEST PUSH2 0x36C8 JUMP JUMPDEST DUP5 PUSH2 0x3707 JUMP JUMPDEST PUSH2 0x2567 PUSH2 0x3CBF JUMP JUMPDEST PUSH2 0x256F PUSH2 0x3D15 JUMP JUMPDEST PUSH2 0x2578 DUP6 PUSH2 0x1E3D JUMP JUMPDEST SWAP1 POP PUSH1 0x0 PUSH2 0x2584 PUSH2 0x2660 JUMP JUMPDEST SWAP1 POP PUSH2 0x2592 DUP7 DUP4 DUP4 DUP8 PUSH2 0x2692 JUMP JUMPDEST PUSH1 0x0 PUSH2 0x25A6 DUP8 PUSH1 0xA0 ADD MLOAD DUP5 PUSH1 0x40 ADD MLOAD PUSH2 0x2FC8 JUMP JUMPDEST SWAP1 POP PUSH1 0x0 PUSH2 0x25B4 DUP8 DUP4 PUSH2 0x371C JUMP JUMPDEST SWAP1 POP PUSH2 0x25C7 DUP9 DUP6 DUP10 DUP5 DUP10 PUSH1 0x0 ADD MLOAD PUSH2 0x2A0D JUMP JUMPDEST PUSH2 0x25D1 DUP9 DUP3 PUSH2 0x3613 JUMP JUMPDEST SWAP5 POP PUSH2 0x25E8 DUP9 DUP5 DUP7 PUSH1 0x20 ADD MLOAD DUP8 PUSH1 0x40 ADD MLOAD DUP10 PUSH2 0x243C JUMP JUMPDEST PUSH2 0x25F3 DUP9 DUP5 DUP8 PUSH2 0x372B JUMP JUMPDEST POP POP POP POP SWAP4 SWAP3 POP POP POP JUMP JUMPDEST DUP2 MLOAD DUP2 MLOAD PUSH2 0x260C SWAP2 SWAP1 PUSH2 0x36C8 JUMP JUMPDEST DUP3 MSTORE PUSH1 0x20 DUP1 DUP4 ADD MLOAD SWAP1 DUP3 ADD MLOAD PUSH2 0x2622 SWAP2 SWAP1 PUSH2 0x36C8 JUMP JUMPDEST PUSH1 0x20 DUP4 ADD MSTORE PUSH1 0x40 DUP1 DUP4 ADD MLOAD SWAP1 DUP3 ADD MLOAD PUSH2 0x263B SWAP2 SWAP1 PUSH2 0x36C8 JUMP JUMPDEST PUSH1 0x40 DUP4 ADD MSTORE PUSH1 0x60 DUP1 DUP4 ADD MLOAD SWAP1 DUP3 ADD MLOAD PUSH2 0x2654 SWAP2 SWAP1 PUSH2 0x36C8 JUMP JUMPDEST PUSH1 0x60 SWAP1 SWAP3 ADD SWAP2 SWAP1 SWAP2 MSTORE POP JUMP JUMPDEST PUSH1 0xA SLOAD PUSH1 0x0 SWAP1 PUSH20 0xFFFFFFFFFFFFFFFFFFFFFFFFFFFFFFFFFFFFFFFF AND DUP2 DUP2 ISZERO PUSH2 0x2689 JUMPI DUP2 PUSH2 0x268B JUMP JUMPDEST CALLER JUMPDEST SWAP3 POP POP POP SWAP1 JUMP JUMPDEST DUP3 MLOAD PUSH1 0xFF AND PUSH1 0x3 EQ PUSH2 0x26D0 JUMPI PUSH1 0x40 MLOAD PUSH32 0x8C379A000000000000000000000000000000000000000000000000000000000 DUP2 MSTORE PUSH1 0x4 ADD PUSH2 0x708 SWAP1 PUSH2 0x5297 JUMP JUMPDEST PUSH1 0x60 DUP5 ADD MLOAD PUSH20 0xFFFFFFFFFFFFFFFFFFFFFFFFFFFFFFFFFFFFFFFF AND ISZERO PUSH2 0x2743 JUMPI PUSH1 0x60 DUP5 ADD MLOAD PUSH20 0xFFFFFFFFFFFFFFFFFFFFFFFFFFFFFFFFFFFFFFFF AND CALLER EQ PUSH2 0x2743 JUMPI PUSH1 0x40 MLOAD PUSH32 0x8C379A000000000000000000000000000000000000000000000000000000000 DUP2 MSTORE PUSH1 0x4 ADD PUSH2 0x708 SWAP1 PUSH2 0x52CE JUMP JUMPDEST PUSH1 0x20 DUP5 ADD MLOAD PUSH20 0xFFFFFFFFFFFFFFFFFFFFFFFFFFFFFFFFFFFFFFFF AND ISZERO PUSH2 0x27CC JUMPI DUP2 PUSH20 0xFFFFFFFFFFFFFFFFFFFFFFFFFFFFFFFFFFFFFFFF AND DUP5 PUSH1 0x20 ADD MLOAD PUSH20 0xFFFFFFFFFFFFFFFFFFFFFFFFFFFFFFFFFFFFFFFF AND EQ PUSH2 0x27CC JUMPI PUSH1 0x40 MLOAD PUSH32 0x8C379A000000000000000000000000000000000000000000000000000000000 DUP2 MSTORE PUSH1 0x4 ADD PUSH2 0x708 SWAP1 PUSH2 0x4C58 JUMP JUMPDEST PUSH1 0x40 DUP4 ADD MLOAD PUSH2 0x281E JUMPI PUSH2 0x27E8 DUP4 PUSH1 0x20 ADD MLOAD DUP6 PUSH1 0x0 ADD MLOAD DUP4 PUSH2 0x1366 JUMP JUMPDEST PUSH2 0x281E JUMPI PUSH1 0x40 MLOAD PUSH32 0x8C379A000000000000000000000000000000000000000000000000000000000 DUP2 MSTORE PUSH1 0x4 ADD PUSH2 0x708 SWAP1 PUSH2 0x4DFF JUMP JUMPDEST POP POP POP POP JUMP JUMPDEST PUSH2 0x2836 DUP3 PUSH1 0xA0 ADD MLOAD DUP3 PUSH1 0xA0 ADD MLOAD PUSH2 0x3674 JUMP JUMPDEST PUSH2 0x2848 DUP4 PUSH1 0x80 ADD MLOAD DUP4 PUSH1 0x80 ADD MLOAD PUSH2 0x3674 JUMP JUMPDEST LT ISZERO PUSH2 0x2880 JUMPI PUSH1 0x40 MLOAD PUSH32 0x8C379A000000000000000000000000000000000000000000000000000000000 DUP2 MSTORE PUSH1 0x4 ADD PUSH2 0x708 SWAP1 PUSH2 0x5305 JUMP JUMPDEST POP POP JUMP JUMPDEST PUSH2 0x288C PUSH2 0x3CE7 JUMP JUMPDEST PUSH1 0x0 PUSH2 0x289C DUP7 PUSH1 0xA0 ADD MLOAD DUP6 PUSH2 0x2FC8 JUMP JUMPDEST SWAP1 POP PUSH1 0x0 PUSH2 0x28B3 DUP8 PUSH1 0x80 ADD MLOAD DUP9 PUSH1 0xA0 ADD MLOAD DUP5 PUSH2 0x3519 JUMP JUMPDEST SWAP1 POP PUSH1 0x0 PUSH2 0x28C5 DUP8 PUSH1 0xA0 ADD MLOAD DUP7 PUSH2 0x2FC8 JUMP JUMPDEST SWAP1 POP PUSH1 0x0 PUSH2 0x28DC DUP9 PUSH1 0x80 ADD MLOAD DUP10 PUSH1 0xA0 ADD MLOAD DUP5 PUSH2 0x3519 JUMP JUMPDEST SWAP1 POP DUP1 DUP5 LT PUSH2 0x291F JUMPI PUSH1 0x20 DUP1 DUP7 ADD DUP1 MLOAD DUP4 SWAP1 MSTORE DUP1 MLOAD DUP3 ADD DUP5 SWAP1 MSTORE MLOAD MLOAD DUP7 MLOAD DUP3 ADD MSTORE PUSH1 0x80 DUP11 ADD MLOAD PUSH1 0xA0 DUP12 ADD MLOAD DUP8 MLOAD SWAP1 SWAP3 ADD MLOAD PUSH2 0x2917 SWAP3 SWAP1 PUSH2 0x3519 JUMP JUMPDEST DUP6 MLOAD MSTORE PUSH2 0x295C JUMP JUMPDEST DUP5 MLOAD DUP4 SWAP1 MSTORE DUP5 MLOAD PUSH1 0x20 SWAP1 DUP2 ADD DUP6 SWAP1 MSTORE DUP6 MLOAD DUP2 ADD MLOAD SWAP1 DUP7 ADD DUP1 MLOAD SWAP2 SWAP1 SWAP2 MSTORE PUSH1 0xA0 DUP10 ADD MLOAD PUSH1 0x80 DUP11 ADD MLOAD SWAP2 MLOAD MLOAD PUSH2 0x2953 SWAP3 SWAP1 PUSH2 0x3596 JUMP JUMPDEST PUSH1 0x20 DUP1 DUP8 ADD MLOAD ADD MSTORE JUMPDEST DUP5 MLOAD MLOAD PUSH1 0x20 DUP1 DUP8 ADD MLOAD ADD MLOAD PUSH2 0x2971 SWAP2 SWAP1 PUSH2 0x2FC8 JUMP JUMPDEST PUSH1 0x40 DUP7 ADD MSTORE DUP5 MLOAD MLOAD PUSH1 0x80 DUP11 ADD MLOAD PUSH1 0xC0 DUP12 ADD MLOAD PUSH2 0x298E SWAP3 SWAP2 SWAP1 PUSH2 0x3519 JUMP JUMPDEST DUP6 MLOAD PUSH1 0x40 ADD MSTORE DUP5 MLOAD PUSH1 0x20 ADD MLOAD PUSH1 0xA0 DUP11 ADD MLOAD PUSH1 0xE0 DUP12 ADD MLOAD PUSH2 0x29AF SWAP3 SWAP2 SWAP1 PUSH2 0x3519 JUMP JUMPDEST DUP6 MLOAD PUSH1 0x60 ADD MSTORE PUSH1 0x20 DUP6 ADD MLOAD MLOAD PUSH1 0x80 DUP10 ADD MLOAD PUSH1 0xC0 DUP11 ADD MLOAD PUSH2 0x29D0 SWAP3 SWAP2 SWAP1 PUSH2 0x3519 JUMP JUMPDEST DUP6 PUSH1 0x20 ADD MLOAD PUSH1 0x40 ADD DUP2 DUP2 MSTORE POP POP PUSH2 0x29F8 DUP6 PUSH1 0x20 ADD MLOAD PUSH1 0x20 ADD MLOAD DUP10 PUSH1 0xA0 ADD MLOAD DUP11 PUSH1 0xE0 ADD MLOAD PUSH2 0x3519 JUMP JUMPDEST PUSH1 0x20 DUP7 ADD MLOAD PUSH1 0x60 ADD MSTORE POP POP POP POP SWAP5 SWAP4 POP POP POP POP JUMP JUMPDEST DUP3 PUSH2 0x2A44 JUMPI PUSH1 0x40 MLOAD PUSH32 0x8C379A000000000000000000000000000000000000000000000000000000000 DUP2 MSTORE PUSH1 0x4 ADD PUSH2 0x708 SWAP1 PUSH2 0x4FB7 JUMP JUMPDEST DUP3 DUP3 GT ISZERO PUSH2 0x2A7E JUMPI PUSH1 0x40 MLOAD PUSH32 0x8C379A000000000000000000000000000000000000000000000000000000000 DUP2 MSTORE PUSH1 0x4 ADD PUSH2 0x708 SWAP1 PUSH2 0x4F80 JUMP JUMPDEST DUP5 PUSH1 0xA0 ADD MLOAD PUSH2 0x2A91 DUP6 PUSH1 0x40 ADD MLOAD DUP5 PUSH2 0x36C8 JUMP JUMPDEST GT ISZERO PUSH2 0x2AC9 JUMPI PUSH1 0x40 MLOAD PUSH32 0x8C379A000000000000000000000000000000000000000000000000000000000 DUP2 MSTORE PUSH1 0x4 ADD PUSH2 0x708 SWAP1 PUSH2 0x4C8F JUMP JUMPDEST PUSH2 0x2AD7 DUP6 PUSH1 0x80 ADD MLOAD DUP4 PUSH2 0x3674 JUMP JUMPDEST PUSH2 0x2AE5 DUP3 DUP8 PUSH1 0xA0 ADD MLOAD PUSH2 0x3674 JUMP JUMPDEST GT ISZERO PUSH2 0x69D JUMPI PUSH1 0x40 MLOAD PUSH32 0x8C379A000000000000000000000000000000000000000000000000000000000 DUP2 MSTORE PUSH1 0x4 ADD PUSH2 0x708 SWAP1 PUSH2 0x5195 JUMP JUMPDEST PUSH1 0x1 DUP1 SLOAD PUSH1 0x40 DUP1 MLOAD PUSH1 0x20 PUSH1 0x1F PUSH1 0x2 PUSH32 0xFFFFFFFFFFFFFFFFFFFFFFFFFFFFFFFFFFFFFFFFFFFFFFFFFFFFFFFFFFFFFFFF PUSH2 0x100 DUP8 DUP10 AND ISZERO MUL ADD SWAP1 SWAP6 AND SWAP5 SWAP1 SWAP5 DIV SWAP4 DUP5 ADD DUP2 SWAP1 DIV DUP2 MUL DUP3 ADD DUP2 ADD SWAP1 SWAP3 MSTORE DUP3 DUP2 MSTORE PUSH1 0x60 SWAP4 SWAP1 SWAP3 SWAP1 SWAP2 DUP4 ADD DUP3 DUP3 DUP1 ISZERO PUSH2 0x2BC6 JUMPI DUP1 PUSH1 0x1F LT PUSH2 0x2B9B JUMPI PUSH2 0x100 DUP1 DUP4 SLOAD DIV MUL DUP4 MSTORE SWAP2 PUSH1 0x20 ADD SWAP2 PUSH2 0x2BC6 JUMP JUMPDEST DUP3 ADD SWAP2 SWAP1 PUSH1 0x0 MSTORE PUSH1 0x20 PUSH1 0x0 KECCAK256 SWAP1 JUMPDEST DUP2 SLOAD DUP2 MSTORE SWAP1 PUSH1 0x1 ADD SWAP1 PUSH1 0x20 ADD DUP1 DUP4 GT PUSH2 0x2BA9 JUMPI DUP3 SWAP1 SUB PUSH1 0x1F AND DUP3 ADD SWAP2 JUMPDEST POP POP POP POP POP SWAP1 POP PUSH2 0x2BEE DUP6 PUSH2 0x140 ADD MLOAD DUP7 PUSH1 0x0 ADD MLOAD DUP7 PUSH1 0x0 ADD MLOAD DUP6 PUSH1 0x20 ADD MLOAD PUSH1 0x20 ADD MLOAD PUSH2 0x3835 JUMP JUMPDEST PUSH2 0x140 DUP5 ADD MLOAD DUP5 MLOAD DUP7 MLOAD DUP5 MLOAD PUSH1 0x20 ADD MLOAD PUSH2 0x2C0A SWAP4 SWAP3 SWAP2 SWAP1 PUSH2 0x3835 JUMP JUMPDEST PUSH2 0x2C23 DUP6 PUSH2 0x140 ADD MLOAD DUP7 PUSH1 0x0 ADD MLOAD DUP6 DUP6 PUSH1 0x40 ADD MLOAD PUSH2 0x3835 JUMP JUMPDEST PUSH2 0x2C3F DUP2 DUP7 PUSH1 0x0 ADD MLOAD DUP8 PUSH1 0x40 ADD MLOAD DUP6 PUSH1 0x0 ADD MLOAD PUSH1 0x40 ADD MLOAD PUSH2 0x3835 JUMP JUMPDEST PUSH2 0x2C5B DUP2 DUP6 PUSH1 0x0 ADD MLOAD DUP7 PUSH1 0x40 ADD MLOAD DUP6 PUSH1 0x20 ADD MLOAD PUSH1 0x40 ADD MLOAD PUSH2 0x3835 JUMP JUMPDEST DUP4 PUSH1 0x40 ADD MLOAD PUSH20 0xFFFFFFFFFFFFFFFFFFFFFFFFFFFFFFFFFFFFFFFF AND DUP6 PUSH1 0x40 ADD MLOAD PUSH20 0xFFFFFFFFFFFFFFFFFFFFFFFFFFFFFFFFFFFFFFFF AND EQ ISZERO PUSH2 0x2CC5 JUMPI PUSH2 0x2CC0 DUP2 DUP5 DUP8 PUSH1 0x40 ADD MLOAD PUSH2 0x2CBB DUP7 PUSH1 0x0 ADD MLOAD PUSH1 0x60 ADD MLOAD DUP8 PUSH1 0x20 ADD MLOAD PUSH1 0x60 ADD MLOAD PUSH2 0x36C8 JUMP JUMPDEST PUSH2 0x3835 JUMP JUMPDEST PUSH2 0x69D JUMP JUMPDEST PUSH2 0x2CDD DUP2 DUP5 DUP8 PUSH1 0x40 ADD MLOAD DUP6 PUSH1 0x0 ADD MLOAD PUSH1 0x60 ADD MLOAD PUSH2 0x3835 JUMP JUMPDEST PUSH2 0x69D DUP2 DUP5 DUP7 PUSH1 0x40 ADD MLOAD DUP6 PUSH1 0x20 ADD MLOAD PUSH1 0x60 ADD MLOAD PUSH2 0x3835 JUMP JUMPDEST PUSH1 0x40 DUP1 MLOAD PUSH32 0xB4BE83D500000000000000000000000000000000000000000000000000000000 PUSH1 0x20 DUP1 DUP4 ADD SWAP2 SWAP1 SWAP2 MSTORE PUSH1 0x60 PUSH1 0x24 DUP4 ADD DUP2 DUP2 MSTORE DUP8 MLOAD PUSH1 0x84 DUP6 ADD SWAP1 DUP2 MSTORE DUP9 DUP5 ADD MLOAD PUSH1 0xA4 DUP7 ADD MSTORE SWAP5 DUP9 ADD MLOAD PUSH1 0xC4 DUP6 ADD MSTORE SWAP1 DUP8 ADD MLOAD PUSH1 0xE4 DUP5 ADD MSTORE PUSH1 0x80 DUP8 ADD MLOAD PUSH2 0x104 DUP5 ADD MSTORE PUSH1 0xA0 DUP8 ADD MLOAD PUSH2 0x124 DUP5 ADD MSTORE PUSH1 0xC0 DUP8 ADD MLOAD PUSH2 0x144 DUP5 ADD MSTORE PUSH1 0xE0 DUP8 ADD MLOAD PUSH2 0x164 DUP5 ADD MSTORE PUSH2 0x100 DUP8 ADD MLOAD PUSH2 0x184 DUP5 ADD MSTORE PUSH2 0x120 DUP8 ADD MLOAD PUSH2 0x1A4 DUP5 ADD MSTORE PUSH2 0x140 DUP8 ADD DUP1 MLOAD PUSH2 0x1C4 DUP6 ADD SWAP1 DUP2 MSTORE PUSH2 0x160 DUP10 ADD MLOAD PUSH2 0x1E4 DUP7 ADD MSTORE PUSH2 0x180 SWAP1 MSTORE MLOAD DUP1 MLOAD PUSH2 0x204 DUP6 ADD DUP2 SWAP1 MSTORE SWAP4 SWAP5 PUSH2 0x224 DUP7 ADD SWAP5 SWAP3 SWAP4 PUSH1 0x44 DUP8 ADD SWAP4 SWAP2 SWAP3 DUP2 ADD SWAP2 SWAP1 PUSH1 0x1F DUP3 ADD DIV PUSH1 0x0 JUMPDEST DUP2 DUP2 LT ISZERO PUSH2 0x2DFA JUMPI DUP4 MLOAD DUP9 MSTORE PUSH1 0x20 SWAP8 DUP9 ADD SWAP8 SWAP1 SWAP4 ADD SWAP3 PUSH1 0x1 ADD PUSH2 0x2DDC JUMP JUMPDEST POP POP POP POP DUP1 DUP5 SUB PUSH2 0x160 SWAP2 DUP3 ADD MSTORE DUP8 ADD MLOAD DUP1 MLOAD DUP1 DUP6 MSTORE PUSH1 0x20 SWAP5 DUP6 ADD SWAP5 PUSH1 0x0 SWAP3 DUP2 ADD SWAP2 SWAP1 PUSH1 0x1F DUP3 ADD DIV JUMPDEST DUP1 DUP5 LT ISZERO PUSH2 0x2E46 JUMPI DUP3 MLOAD DUP8 MSTORE PUSH1 0x20 DUP8 ADD SWAP7 POP PUSH1 0x20 DUP4 ADD SWAP3 POP PUSH1 0x1 DUP5 ADD SWAP4 POP PUSH2 0x2E23 JUMP JUMPDEST POP POP POP DUP7 DUP3 MSTORE SWAP2 DUP4 SUB PUSH1 0x20 SWAP2 DUP3 ADD SWAP1 DUP2 MSTORE DUP6 MLOAD DUP1 DUP6 MSTORE SWAP4 DUP3 ADD SWAP4 PUSH1 0x0 SWAP4 SWAP2 SWAP3 DUP8 DUP2 ADD SWAP2 SWAP1 PUSH1 0x1F DUP3 ADD DIV JUMPDEST DUP1 DUP7 LT ISZERO PUSH2 0x2E93 JUMPI DUP3 MLOAD DUP8 MSTORE PUSH1 0x20 DUP8 ADD SWAP7 POP PUSH1 0x20 DUP4 ADD SWAP3 POP PUSH1 0x1 DUP7 ADD SWAP6 POP PUSH2 0x2E70 JUMP JUMPDEST POP POP POP PUSH32 0xFFFFFFFFFFFFFFFFFFFFFFFFFFFFFFFFFFFFFFFFFFFFFFFFFFFFFFFFFFFFFFE0 DUP6 DUP6 SUB ADD DUP6 MSTORE POP POP POP PUSH1 0x40 MSTORE SWAP4 SWAP3 POP POP POP JUMP JUMPDEST PUSH2 0x2ED2 PUSH2 0x3D15 JUMP JUMPDEST PUSH2 0x2EDB DUP3 PUSH2 0x1E3D JUMP JUMPDEST SWAP1 POP PUSH2 0x2EE7 DUP3 DUP3 PUSH2 0x39DA JUMP JUMPDEST PUSH2 0x2880 DUP3 DUP3 PUSH1 0x20 ADD MLOAD PUSH2 0x3B05 JUMP JUMPDEST PUSH2 0x2EFD PUSH2 0x3CBF JUMP JUMPDEST PUSH2 0x2F08 DUP5 DUP5 DUP5 PUSH2 0x255F JUMP JUMPDEST SWAP1 POP DUP3 DUP2 PUSH1 0x20 ADD MLOAD EQ PUSH2 0x689 JUMPI PUSH1 0x40 MLOAD PUSH32 0x8C379A000000000000000000000000000000000000000000000000000000000 DUP2 MSTORE PUSH1 0x4 ADD PUSH2 0x708 SWAP1 PUSH2 0x515E JUMP JUMPDEST PUSH1 0x0 DUP1 DUP4 GT PUSH2 0x2F82 JUMPI PUSH1 0x40 MLOAD PUSH32 0x8C379A000000000000000000000000000000000000000000000000000000000 DUP2 MSTORE PUSH1 0x4 ADD PUSH2 0x708 SWAP1 PUSH2 0x4DC8 JUMP JUMPDEST DUP2 ISZERO DUP1 PUSH2 0x2F8D JUMPI POP DUP4 ISZERO JUMPDEST ISZERO PUSH2 0x2F9A JUMPI POP PUSH1 0x0 PUSH2 0x689 JUMP JUMPDEST PUSH1 0x0 DUP4 DUP1 PUSH2 0x2FA4 JUMPI INVALID JUMPDEST DUP6 DUP5 MULMOD SWAP1 POP DUP4 PUSH2 0x2FB4 DUP6 DUP4 PUSH2 0x2FC8 JUMP JUMPDEST DUP2 PUSH2 0x2FBB JUMPI INVALID JUMPDEST MOD SWAP1 POP PUSH2 0x2425 DUP6 DUP5 PUSH2 0x3674 JUMP JUMPDEST PUSH1 0x0 DUP3 DUP3 GT ISZERO PUSH2 0x3004 JUMPI PUSH1 0x40 MLOAD PUSH32 0x8C379A000000000000000000000000000000000000000000000000000000000 DUP2 MSTORE PUSH1 0x4 ADD PUSH2 0x708 SWAP1 PUSH2 0x4CC6 JUMP JUMPDEST POP SWAP1 SUB SWAP1 JUMP JUMPDEST PUSH1 0x0 DUP1 DUP3 MLOAD GT PUSH2 0x3046 JUMPI PUSH1 0x40 MLOAD PUSH32 0x8C379A000000000000000000000000000000000000000000000000000000000 DUP2 MSTORE PUSH1 0x4 ADD PUSH2 0x708 SWAP1 PUSH2 0x5025 JUMP JUMPDEST DUP2 PUSH1 0x1 DUP4 MLOAD SUB DUP2 MLOAD DUP2 LT PUSH2 0x3056 JUMPI INVALID JUMPDEST ADD PUSH1 0x20 ADD MLOAD DUP3 MLOAD PUSH32 0xFFFFFFFFFFFFFFFFFFFFFFFFFFFFFFFFFFFFFFFFFFFFFFFFFFFFFFFFFFFFFFFF ADD SWAP1 SWAP3 MSTORE POP PUSH1 0xF8 SWAP1 DUP2 SHR SWAP1 SHL SWAP1 JUMP JUMPDEST PUSH1 0x0 DUP2 PUSH1 0x20 ADD DUP4 MLOAD LT ISZERO PUSH2 0x30CD JUMPI PUSH1 0x40 MLOAD PUSH32 0x8C379A000000000000000000000000000000000000000000000000000000000 DUP2 MSTORE PUSH1 0x4 ADD PUSH2 0x708 SWAP1 PUSH2 0x4D34 JUMP JUMPDEST POP ADD PUSH1 0x20 ADD MLOAD SWAP1 JUMP JUMPDEST PUSH1 0x40 MLOAD PUSH1 0x0 SWAP1 PUSH1 0x60 SWAP1 PUSH32 0x1626BA7E00000000000000000000000000000000000000000000000000000000 SWAP1 PUSH2 0x3111 SWAP1 DUP8 SWAP1 DUP7 SWAP1 PUSH1 0x24 ADD PUSH2 0x4B8F JUMP JUMPDEST PUSH1 0x40 DUP1 MLOAD PUSH32 0xFFFFFFFFFFFFFFFFFFFFFFFFFFFFFFFFFFFFFFFFFFFFFFFFFFFFFFFFFFFFFFE0 DUP2 DUP5 SUB ADD DUP2 MSTORE SWAP2 SWAP1 MSTORE PUSH1 0x20 DUP1 DUP3 ADD DUP1 MLOAD PUSH28 0xFFFFFFFFFFFFFFFFFFFFFFFFFFFFFFFFFFFFFFFFFFFFFFFFFFFFFFFF AND PUSH32 0xFFFFFFFF00000000000000000000000000000000000000000000000000000000 SWAP1 SWAP5 AND SWAP4 SWAP1 SWAP4 OR DUP4 MSTORE DUP2 MLOAD SWAP2 SWAP4 POP SWAP1 DUP3 SWAP1 DUP2 DUP9 GAS STATICCALL DUP1 DUP1 ISZERO PUSH2 0x31AE JUMPI PUSH1 0x1 DUP2 EQ PUSH2 0x321F JUMPI PUSH2 0x25F3 JUMP JUMPDEST PUSH32 0x8C379A000000000000000000000000000000000000000000000000000000000 PUSH1 0x0 MSTORE PUSH29 0x2000000000000000000000000000000000000000000000000000000000 PUSH1 0x20 MSTORE PUSH29 0xC57414C4C45545F4552524F5200000000000000000000000000000000 PUSH1 0x40 MSTORE PUSH1 0x0 PUSH1 0x60 MSTORE PUSH1 0x64 PUSH1 0x0 REVERT JUMPDEST POP POP MLOAD SWAP6 SWAP5 POP POP POP POP POP JUMP JUMPDEST PUSH1 0x0 PUSH1 0x14 DUP3 MLOAD LT ISZERO PUSH2 0x3269 JUMPI PUSH1 0x40 MLOAD PUSH32 0x8C379A000000000000000000000000000000000000000000000000000000000 DUP2 MSTORE PUSH1 0x4 ADD PUSH2 0x708 SWAP1 PUSH2 0x523A JUMP JUMPDEST PUSH2 0x3277 DUP3 PUSH1 0x14 DUP5 MLOAD SUB PUSH2 0x3BAC JUMP JUMPDEST DUP3 MLOAD PUSH32 0xFFFFFFFFFFFFFFFFFFFFFFFFFFFFFFFFFFFFFFFFFFFFFFFFFFFFFFFFFFFFFFEC ADD SWAP1 SWAP3 MSTORE POP SWAP1 JUMP JUMPDEST PUSH1 0x40 MLOAD PUSH1 0x0 SWAP1 PUSH1 0x60 SWAP1 PUSH32 0x9363470200000000000000000000000000000000000000000000000000000000 SWAP1 PUSH2 0x32DF SWAP1 DUP8 SWAP1 DUP8 SWAP1 DUP8 SWAP1 PUSH1 0x24 ADD PUSH2 0x4B51 JUMP JUMPDEST PUSH1 0x40 DUP1 MLOAD PUSH32 0xFFFFFFFFFFFFFFFFFFFFFFFFFFFFFFFFFFFFFFFFFFFFFFFFFFFFFFFFFFFFFFE0 DUP2 DUP5 SUB ADD DUP2 MSTORE SWAP2 SWAP1 MSTORE PUSH1 0x20 DUP1 DUP3 ADD DUP1 MLOAD PUSH28 0xFFFFFFFFFFFFFFFFFFFFFFFFFFFFFFFFFFFFFFFFFFFFFFFFFFFFFFFF AND PUSH32 0xFFFFFFFF00000000000000000000000000000000000000000000000000000000 SWAP1 SWAP5 AND SWAP4 SWAP1 SWAP4 OR DUP4 MSTORE DUP2 MLOAD SWAP2 SWAP4 POP SWAP1 DUP3 SWAP1 DUP2 DUP11 GAS STATICCALL DUP1 DUP1 ISZERO PUSH2 0x337C JUMPI PUSH1 0x1 DUP2 EQ PUSH2 0x33ED JUMPI PUSH2 0x33F2 JUMP JUMPDEST PUSH32 0x8C379A000000000000000000000000000000000000000000000000000000000 PUSH1 0x0 MSTORE PUSH29 0x2000000000000000000000000000000000000000000000000000000000 PUSH1 0x20 MSTORE PUSH29 0xF56414C494441544F525F4552524F5200000000000000000000000000 PUSH1 0x40 MSTORE PUSH1 0x0 PUSH1 0x60 MSTORE PUSH1 0x64 PUSH1 0x0 REVERT JUMPDEST DUP3 MLOAD SWAP5 POP JUMPDEST POP POP POP POP SWAP5 SWAP4 POP POP POP POP JUMP JUMPDEST PUSH1 0x0 DUP1 DUP4 GT PUSH2 0x3439 JUMPI PUSH1 0x40 MLOAD PUSH32 0x8C379A000000000000000000000000000000000000000000000000000000000 DUP2 MSTORE PUSH1 0x4 ADD PUSH2 0x708 SWAP1 PUSH2 0x4DC8 JUMP JUMPDEST PUSH2 0x686 PUSH2 0x2559 DUP6 DUP5 PUSH2 0x3674 JUMP JUMPDEST PUSH1 0x0 DUP1 PUSH1 0x40 MLOAD PUSH1 0x20 ADD PUSH2 0x3458 SWAP1 PUSH2 0x4791 JUMP JUMPDEST PUSH1 0x40 DUP1 MLOAD PUSH32 0xFFFFFFFFFFFFFFFFFFFFFFFFFFFFFFFFFFFFFFFFFFFFFFFFFFFFFFFFFFFFFFE0 DUP2 DUP5 SUB ADD DUP2 MSTORE DUP3 DUP3 MSTORE DUP1 MLOAD PUSH1 0x20 SWAP2 DUP3 ADD KECCAK256 DUP7 MLOAD DUP8 DUP4 ADD KECCAK256 SWAP1 DUP5 MSTORE SWAP1 DUP4 ADD DUP9 SWAP1 MSTORE PUSH20 0xFFFFFFFFFFFFFFFFFFFFFFFFFFFFFFFFFFFFFFFF DUP8 AND SWAP2 DUP4 ADD SWAP2 SWAP1 SWAP2 MSTORE PUSH1 0x60 DUP3 ADD MSTORE PUSH1 0x80 SWAP1 KECCAK256 SWAP2 POP POP SWAP4 SWAP3 POP POP POP JUMP JUMPDEST PUSH1 0x2 DUP1 SLOAD PUSH1 0x40 MLOAD PUSH32 0x1901000000000000000000000000000000000000000000000000000000000000 DUP2 MSTORE SWAP2 DUP3 ADD MSTORE PUSH1 0x22 DUP2 ADD SWAP2 SWAP1 SWAP2 MSTORE PUSH1 0x42 SWAP1 KECCAK256 SWAP1 JUMP JUMPDEST PUSH1 0x0 PUSH2 0xFD9 PUSH2 0x1A02 DUP4 PUSH2 0x3C0B JUMP JUMPDEST PUSH1 0x0 DUP1 DUP4 GT PUSH2 0x3554 JUMPI PUSH1 0x40 MLOAD PUSH32 0x8C379A000000000000000000000000000000000000000000000000000000000 DUP2 MSTORE PUSH1 0x4 ADD PUSH2 0x708 SWAP1 PUSH2 0x4DC8 JUMP JUMPDEST PUSH2 0x355F DUP5 DUP5 DUP5 PUSH2 0x23B9 JUMP JUMPDEST ISZERO PUSH2 0x3439 JUMPI PUSH1 0x40 MLOAD PUSH32 0x8C379A000000000000000000000000000000000000000000000000000000000 DUP2 MSTORE PUSH1 0x4 ADD PUSH2 0x708 SWAP1 PUSH2 0x4F12 JUMP JUMPDEST PUSH1 0x0 DUP1 DUP4 GT PUSH2 0x35D1 JUMPI PUSH1 0x40 MLOAD PUSH32 0x8C379A000000000000000000000000000000000000000000000000000000000 DUP2 MSTORE PUSH1 0x4 ADD PUSH2 0x708 SWAP1 PUSH2 0x4DC8 JUMP JUMPDEST PUSH2 0x35DC DUP5 DUP5 DUP5 PUSH2 0x2F47 JUMP JUMPDEST ISZERO PUSH2 0x2539 JUMPI PUSH1 0x40 MLOAD PUSH32 0x8C379A000000000000000000000000000000000000000000000000000000000 DUP2 MSTORE PUSH1 0x4 ADD PUSH2 0x708 SWAP1 PUSH2 0x4F12 JUMP JUMPDEST PUSH2 0x361B PUSH2 0x3CBF JUMP JUMPDEST PUSH1 0x20 DUP2 ADD DUP3 SWAP1 MSTORE PUSH1 0xA0 DUP4 ADD MLOAD PUSH1 0x80 DUP5 ADD MLOAD PUSH2 0x3637 SWAP2 DUP5 SWAP2 PUSH2 0x3519 JUMP JUMPDEST DUP1 DUP3 MSTORE PUSH1 0x80 DUP5 ADD MLOAD PUSH1 0xC0 DUP6 ADD MLOAD PUSH2 0x364F SWAP3 SWAP2 SWAP1 PUSH2 0x3519 JUMP JUMPDEST PUSH1 0x40 DUP3 ADD MSTORE PUSH1 0xA0 DUP4 ADD MLOAD PUSH1 0xE0 DUP5 ADD MLOAD PUSH2 0x3669 SWAP2 DUP5 SWAP2 PUSH2 0x3519 JUMP JUMPDEST PUSH1 0x60 DUP3 ADD MSTORE SWAP3 SWAP2 POP POP JUMP JUMPDEST PUSH1 0x0 DUP3 PUSH2 0x3683 JUMPI POP PUSH1 0x0 PUSH2 0xFD9 JUMP JUMPDEST DUP3 DUP3 MUL DUP3 DUP5 DUP3 DUP2 PUSH2 0x3690 JUMPI INVALID JUMPDEST DIV EQ PUSH2 0x689 JUMPI PUSH1 0x40 MLOAD PUSH32 0x8C379A000000000000000000000000000000000000000000000000000000000 DUP2 MSTORE PUSH1 0x4 ADD PUSH2 0x708 SWAP1 PUSH2 0x4E6D JUMP JUMPDEST PUSH1 0x0 DUP3 DUP3 ADD DUP4 DUP2 LT ISZERO PUSH2 0x689 JUMPI PUSH1 0x40 MLOAD PUSH32 0x8C379A000000000000000000000000000000000000000000000000000000000 DUP2 MSTORE PUSH1 0x4 ADD PUSH2 0x708 SWAP1 PUSH2 0x4E6D JUMP JUMPDEST PUSH1 0x0 DUP1 DUP3 DUP5 DUP2 PUSH2 0x3713 JUMPI INVALID JUMPDEST DIV SWAP5 SWAP4 POP POP POP POP JUMP JUMPDEST PUSH1 0x0 DUP2 DUP4 LT PUSH2 0xFD6 JUMPI DUP2 PUSH2 0x689 JUMP JUMPDEST PUSH1 0x1 DUP1 SLOAD PUSH1 0x40 DUP1 MLOAD PUSH1 0x20 PUSH1 0x1F PUSH1 0x2 PUSH32 0xFFFFFFFFFFFFFFFFFFFFFFFFFFFFFFFFFFFFFFFFFFFFFFFFFFFFFFFFFFFFFFFF PUSH2 0x100 DUP8 DUP10 AND ISZERO MUL ADD SWAP1 SWAP6 AND SWAP5 SWAP1 SWAP5 DIV SWAP4 DUP5 ADD DUP2 SWAP1 DIV DUP2 MUL DUP3 ADD DUP2 ADD SWAP1 SWAP3 MSTORE DUP3 DUP2 MSTORE PUSH1 0x60 SWAP4 SWAP1 SWAP3 SWAP1 SWAP2 DUP4 ADD DUP3 DUP3 DUP1 ISZERO PUSH2 0x37D4 JUMPI DUP1 PUSH1 0x1F LT PUSH2 0x37A9 JUMPI PUSH2 0x100 DUP1 DUP4 SLOAD DIV MUL DUP4 MSTORE SWAP2 PUSH1 0x20 ADD SWAP2 PUSH2 0x37D4 JUMP JUMPDEST DUP3 ADD SWAP2 SWAP1 PUSH1 0x0 MSTORE PUSH1 0x20 PUSH1 0x0 KECCAK256 SWAP1 JUMPDEST DUP2 SLOAD DUP2 MSTORE SWAP1 PUSH1 0x1 ADD SWAP1 PUSH1 0x20 ADD DUP1 DUP4 GT PUSH2 0x37B7 JUMPI DUP3 SWAP1 SUB PUSH1 0x1F AND DUP3 ADD SWAP2 JUMPDEST POP POP POP POP POP SWAP1 POP PUSH2 0x37F4 DUP5 PUSH2 0x140 ADD MLOAD DUP6 PUSH1 0x0 ADD MLOAD DUP6 DUP6 PUSH1 0x0 ADD MLOAD PUSH2 0x3835 JUMP JUMPDEST PUSH2 0x380D DUP5 PUSH2 0x160 ADD MLOAD DUP5 DUP7 PUSH1 0x0 ADD MLOAD DUP6 PUSH1 0x20 ADD MLOAD PUSH2 0x3835 JUMP JUMPDEST PUSH2 0x3825 DUP2 DUP6 PUSH1 0x0 ADD MLOAD DUP7 PUSH1 0x40 ADD MLOAD DUP6 PUSH1 0x40 ADD MLOAD PUSH2 0x3835 JUMP JUMPDEST PUSH2 0x281E DUP2 DUP5 DUP7 PUSH1 0x40 ADD MLOAD DUP6 PUSH1 0x60 ADD MLOAD JUMPDEST PUSH1 0x0 DUP2 GT DUP1 ISZERO PUSH2 0x3871 JUMPI POP DUP2 PUSH20 0xFFFFFFFFFFFFFFFFFFFFFFFFFFFFFFFFFFFFFFFF AND DUP4 PUSH20 0xFFFFFFFFFFFFFFFFFFFFFFFFFFFFFFFFFFFFFFFF AND EQ ISZERO JUMPDEST ISZERO PUSH2 0x281E JUMPI PUSH1 0x3 DUP5 MLOAD GT PUSH2 0x38B1 JUMPI PUSH1 0x40 MLOAD PUSH32 0x8C379A000000000000000000000000000000000000000000000000000000000 DUP2 MSTORE PUSH1 0x4 ADD PUSH2 0x708 SWAP1 PUSH2 0x5127 JUMP JUMPDEST PUSH1 0x20 DUP5 DUP2 ADD MLOAD PUSH32 0xFFFFFFFF00000000000000000000000000000000000000000000000000000000 AND PUSH1 0x0 DUP2 DUP2 MSTORE PUSH1 0xB SWAP1 SWAP3 MSTORE PUSH1 0x40 SWAP1 SWAP2 KECCAK256 SLOAD PUSH20 0xFFFFFFFFFFFFFFFFFFFFFFFFFFFFFFFFFFFFFFFF AND DUP1 PUSH2 0x3936 JUMPI PUSH1 0x40 MLOAD PUSH32 0x8C379A000000000000000000000000000000000000000000000000000000000 DUP2 MSTORE PUSH1 0x4 ADD PUSH2 0x708 SWAP1 PUSH2 0x4FEE JUMP JUMPDEST PUSH1 0x40 MLOAD DUP7 MLOAD PUSH32 0xA85E59E400000000000000000000000000000000000000000000000000000000 DUP3 MSTORE PUSH1 0x80 PUSH1 0x4 DUP4 ADD MSTORE PUSH20 0xFFFFFFFFFFFFFFFFFFFFFFFFFFFFFFFFFFFFFFFF DUP8 DUP2 AND PUSH1 0x24 DUP5 ADD MSTORE DUP7 AND PUSH1 0x44 DUP4 ADD MSTORE PUSH1 0x64 DUP3 ADD DUP6 SWAP1 MSTORE PUSH1 0x84 DUP1 DUP4 ADD SWAP2 PUSH1 0x3F ADD PUSH7 0xFFFFFFFFFFFE0 AND DUP4 ADD ADD JUMPDEST DUP1 DUP3 LT ISZERO PUSH2 0x39C1 JUMPI DUP9 MLOAD DUP3 MSTORE PUSH1 0x20 SWAP9 DUP10 ADD SWAP9 SWAP1 SWAP2 ADD SWAP1 PUSH2 0x39A6 JUMP JUMPDEST PUSH2 0x200 DUP4 DUP5 DUP4 SUB DUP6 PUSH1 0x0 DUP9 GAS CALL SWAP2 POP POP DUP1 PUSH2 0x1C31 JUMPI RETURNDATASIZE DUP3 REVERT JUMPDEST DUP1 MLOAD PUSH1 0xFF AND PUSH1 0x3 EQ PUSH2 0x3A18 JUMPI PUSH1 0x40 MLOAD PUSH32 0x8C379A000000000000000000000000000000000000000000000000000000000 DUP2 MSTORE PUSH1 0x4 ADD PUSH2 0x708 SWAP1 PUSH2 0x5297 JUMP JUMPDEST PUSH1 0x60 DUP3 ADD MLOAD PUSH20 0xFFFFFFFFFFFFFFFFFFFFFFFFFFFFFFFFFFFFFFFF AND ISZERO PUSH2 0x3A8B JUMPI PUSH1 0x60 DUP3 ADD MLOAD PUSH20 0xFFFFFFFFFFFFFFFFFFFFFFFFFFFFFFFFFFFFFFFF AND CALLER EQ PUSH2 0x3A8B JUMPI PUSH1 0x40 MLOAD PUSH32 0x8C379A000000000000000000000000000000000000000000000000000000000 DUP2 MSTORE PUSH1 0x4 ADD PUSH2 0x708 SWAP1 PUSH2 0x52CE JUMP JUMPDEST PUSH1 0x0 PUSH2 0x3A95 PUSH2 0x2660 JUMP JUMPDEST SWAP1 POP DUP1 PUSH20 0xFFFFFFFFFFFFFFFFFFFFFFFFFFFFFFFFFFFFFFFF AND DUP4 PUSH1 0x0 ADD MLOAD PUSH20 0xFFFFFFFFFFFFFFFFFFFFFFFFFFFFFFFFFFFFFFFF AND EQ PUSH2 0x3B00 JUMPI PUSH1 0x40 MLOAD PUSH32 0x8C379A000000000000000000000000000000000000000000000000000000000 DUP2 MSTORE PUSH1 0x4 ADD PUSH2 0x708 SWAP1 PUSH2 0x4E36 JUMP JUMPDEST POP POP POP JUMP JUMPDEST PUSH1 0x0 DUP2 DUP2 MSTORE PUSH1 0x5 PUSH1 0x20 MSTORE PUSH1 0x40 SWAP1 DUP2 SWAP1 KECCAK256 DUP1 SLOAD PUSH32 0xFFFFFFFFFFFFFFFFFFFFFFFFFFFFFFFFFFFFFFFFFFFFFFFFFFFFFFFFFFFFFF00 AND PUSH1 0x1 OR SWAP1 SSTORE DUP3 DUP2 ADD MLOAD DUP4 MLOAD PUSH2 0x140 DUP6 ADD MLOAD PUSH2 0x160 DUP7 ADD MLOAD SWAP4 MLOAD DUP6 SWAP5 PUSH20 0xFFFFFFFFFFFFFFFFFFFFFFFFFFFFFFFFFFFFFFFF SWAP5 DUP6 AND SWAP5 SWAP4 SWAP1 SWAP4 AND SWAP3 PUSH32 0xDC47B3613D9FE400085F6DBDC99453462279057E6207385042827ED6B1A62CF7 SWAP3 PUSH2 0x3BA0 SWAP3 CALLER SWAP3 SWAP1 PUSH2 0x4A30 JUMP JUMPDEST PUSH1 0x40 MLOAD DUP1 SWAP2 SUB SWAP1 LOG4 POP POP JUMP JUMPDEST PUSH1 0x0 DUP2 PUSH1 0x14 ADD DUP4 MLOAD LT ISZERO PUSH2 0x3BEC JUMPI PUSH1 0x40 MLOAD PUSH32 0x8C379A000000000000000000000000000000000000000000000000000000000 DUP2 MSTORE PUSH1 0x4 ADD PUSH2 0x708 SWAP1 PUSH2 0x523A JUMP JUMPDEST POP ADD PUSH1 0x14 ADD MLOAD PUSH20 0xFFFFFFFFFFFFFFFFFFFFFFFFFFFFFFFFFFFFFFFF AND SWAP1 JUMP JUMPDEST PUSH1 0x0 DUP1 PUSH1 0x40 MLOAD PUSH1 0x20 ADD PUSH2 0x3C1D SWAP1 PUSH2 0x4852 JUMP JUMPDEST PUSH1 0x40 MLOAD PUSH1 0x20 DUP2 DUP4 SUB SUB DUP2 MSTORE SWAP1 PUSH1 0x40 MSTORE DUP1 MLOAD SWAP1 PUSH1 0x20 ADD KECCAK256 SWAP1 POP PUSH1 0x0 DUP4 PUSH2 0x140 ADD MLOAD PUSH1 0x40 MLOAD PUSH2 0x3C4A SWAP2 SWAP1 PUSH2 0x4744 JUMP JUMPDEST PUSH1 0x40 MLOAD DUP1 SWAP2 SUB SWAP1 KECCAK256 SWAP1 POP PUSH1 0x0 DUP5 PUSH2 0x160 ADD MLOAD PUSH1 0x40 MLOAD PUSH2 0x3C69 SWAP2 SWAP1 PUSH2 0x4744 JUMP JUMPDEST PUSH1 0x40 MLOAD SWAP1 DUP2 SWAP1 SUB SWAP1 KECCAK256 PUSH32 0xFFFFFFFFFFFFFFFFFFFFFFFFFFFFFFFFFFFFFFFFFFFFFFFFFFFFFFFFFFFFFFE0 DUP7 ADD DUP1 MLOAD PUSH2 0x140 DUP9 ADD DUP1 MLOAD PUSH2 0x160 SWAP1 SWAP10 ADD DUP1 MLOAD SWAP8 DUP5 MSTORE SWAP6 DUP2 MSTORE SWAP3 DUP6 MSTORE PUSH2 0x1A0 DUP3 KECCAK256 SWAP2 MSTORE SWAP6 SWAP1 MSTORE POP MSTORE POP SWAP1 JUMP JUMPDEST PUSH1 0x40 MLOAD DUP1 PUSH1 0x80 ADD PUSH1 0x40 MSTORE DUP1 PUSH1 0x0 DUP2 MSTORE PUSH1 0x20 ADD PUSH1 0x0 DUP2 MSTORE PUSH1 0x20 ADD PUSH1 0x0 DUP2 MSTORE PUSH1 0x20 ADD PUSH1 0x0 DUP2 MSTORE POP SWAP1 JUMP JUMPDEST PUSH1 0x40 MLOAD DUP1 PUSH2 0x120 ADD PUSH1 0x40 MSTORE DUP1 PUSH2 0x3CFB PUSH2 0x3CBF JUMP JUMPDEST DUP2 MSTORE PUSH1 0x20 ADD PUSH2 0x3D08 PUSH2 0x3CBF JUMP JUMPDEST DUP2 MSTORE PUSH1 0x20 ADD PUSH1 0x0 DUP2 MSTORE POP SWAP1 JUMP JUMPDEST PUSH1 0x40 DUP1 MLOAD PUSH1 0x60 DUP2 ADD DUP3 MSTORE PUSH1 0x0 DUP1 DUP3 MSTORE PUSH1 0x20 DUP3 ADD DUP2 SWAP1 MSTORE SWAP2 DUP2 ADD SWAP2 SWAP1 SWAP2 MSTORE SWAP1 JUMP JUMPDEST DUP1 CALLDATALOAD PUSH20 0xFFFFFFFFFFFFFFFFFFFFFFFFFFFFFFFFFFFFFFFF DUP2 AND DUP2 EQ PUSH2 0xFD9 JUMPI PUSH1 0x0 DUP1 REVERT JUMPDEST PUSH1 0x0 DUP3 PUSH1 0x1F DUP4 ADD SLT PUSH2 0x3D69 JUMPI DUP1 DUP2 REVERT JUMPDEST DUP2 CALLDATALOAD PUSH2 0x3D7C PUSH2 0x3D77 DUP3 PUSH2 0x5425 JUMP JUMPDEST PUSH2 0x53FE JUMP JUMPDEST DUP2 DUP2 MSTORE SWAP2 POP PUSH1 0x20 DUP1 DUP4 ADD SWAP1 DUP5 ADD PUSH1 0x0 JUMPDEST DUP4 DUP2 LT ISZERO PUSH2 0x3DB9 JUMPI PUSH2 0x3DA4 DUP8 PUSH1 0x20 DUP5 CALLDATALOAD DUP10 ADD ADD PUSH2 0x3E67 JUMP JUMPDEST DUP4 MSTORE PUSH1 0x20 SWAP3 DUP4 ADD SWAP3 SWAP2 SWAP1 SWAP2 ADD SWAP1 PUSH1 0x1 ADD PUSH2 0x3D8C JUMP JUMPDEST POP POP POP POP SWAP3 SWAP2 POP POP JUMP JUMPDEST PUSH1 0x0 DUP3 PUSH1 0x1F DUP4 ADD SLT PUSH2 0x3DD3 JUMPI DUP1 DUP2 REVERT JUMPDEST DUP2 CALLDATALOAD PUSH2 0x3DE1 PUSH2 0x3D77 DUP3 PUSH2 0x5425 JUMP JUMPDEST DUP2 DUP2 MSTORE SWAP2 POP PUSH1 0x20 DUP1 DUP4 ADD SWAP1 DUP5 ADD PUSH1 0x0 JUMPDEST DUP4 DUP2 LT ISZERO PUSH2 0x3DB9 JUMPI PUSH2 0x3E09 DUP8 PUSH1 0x20 DUP5 CALLDATALOAD DUP10 ADD ADD PUSH2 0x3F33 JUMP JUMPDEST DUP4 MSTORE PUSH1 0x20 SWAP3 DUP4 ADD SWAP3 SWAP2 SWAP1 SWAP2 ADD SWAP1 PUSH1 0x1 ADD PUSH2 0x3DF1 JUMP JUMPDEST PUSH1 0x0 DUP1 DUP4 PUSH1 0x1F DUP5 ADD SLT PUSH2 0x3E30 JUMPI PUSH1 0x0 DUP1 REVERT JUMPDEST POP DUP2 CALLDATALOAD PUSH8 0xFFFFFFFFFFFFFFFF DUP2 GT ISZERO PUSH2 0x3E48 JUMPI PUSH1 0x0 DUP1 REVERT JUMPDEST PUSH1 0x20 DUP4 ADD SWAP2 POP DUP4 PUSH1 0x20 DUP3 DUP6 ADD ADD GT ISZERO PUSH2 0x3E60 JUMPI PUSH1 0x0 DUP1 REVERT JUMPDEST SWAP3 POP SWAP3 SWAP1 POP JUMP JUMPDEST PUSH1 0x0 DUP3 PUSH1 0x1F DUP4 ADD SLT PUSH2 0x3E77 JUMPI DUP1 DUP2 REVERT JUMPDEST DUP2 CALLDATALOAD PUSH8 0xFFFFFFFFFFFFFFFF DUP2 GT ISZERO PUSH2 0x3E8D JUMPI DUP2 DUP3 REVERT JUMPDEST PUSH2 0x3EBE PUSH1 0x20 PUSH32 0xFFFFFFFFFFFFFFFFFFFFFFFFFFFFFFFFFFFFFFFFFFFFFFFFFFFFFFFFFFFFFFE0 PUSH1 0x1F DUP5 ADD AND ADD PUSH2 0x53FE JUMP JUMPDEST SWAP2 POP DUP1 DUP3 MSTORE DUP4 PUSH1 0x20 DUP3 DUP6 ADD ADD GT ISZERO PUSH2 0x3ED5 JUMPI PUSH1 0x0 DUP1 REVERT JUMPDEST DUP1 PUSH1 0x20 DUP5 ADD PUSH1 0x20 DUP5 ADD CALLDATACOPY PUSH1 0x0 SWAP1 DUP3 ADD PUSH1 0x20 ADD MSTORE SWAP3 SWAP2 POP POP JUMP JUMPDEST PUSH1 0x0 PUSH1 0x80 DUP3 DUP5 SUB SLT ISZERO PUSH2 0x3EFF JUMPI DUP1 DUP2 REVERT JUMPDEST PUSH2 0x3F09 PUSH1 0x80 PUSH2 0x53FE JUMP JUMPDEST SWAP1 POP DUP2 CALLDATALOAD DUP2 MSTORE PUSH1 0x20 DUP3 ADD CALLDATALOAD PUSH1 0x20 DUP3 ADD MSTORE PUSH1 0x40 DUP3 ADD CALLDATALOAD PUSH1 0x40 DUP3 ADD MSTORE PUSH1 0x60 DUP3 ADD CALLDATALOAD PUSH1 0x60 DUP3 ADD MSTORE SWAP3 SWAP2 POP POP JUMP JUMPDEST PUSH1 0x0 PUSH2 0x180 DUP1 DUP4 DUP6 SUB SLT ISZERO PUSH2 0x3F46 JUMPI DUP2 DUP3 REVERT JUMPDEST PUSH2 0x3F4F DUP2 PUSH2 0x53FE JUMP JUMPDEST SWAP2 POP POP PUSH2 0x3F5C DUP4 DUP4 PUSH2 0x3D35 JUMP JUMPDEST DUP2 MSTORE PUSH2 0x3F6B DUP4 PUSH1 0x20 DUP5 ADD PUSH2 0x3D35 JUMP JUMPDEST PUSH1 0x20 DUP3 ADD MSTORE PUSH2 0x3F7D DUP4 PUSH1 0x40 DUP5 ADD PUSH2 0x3D35 JUMP JUMPDEST PUSH1 0x40 DUP3 ADD MSTORE PUSH2 0x3F8F DUP4 PUSH1 0x60 DUP5 ADD PUSH2 0x3D35 JUMP JUMPDEST PUSH1 0x60 DUP3 ADD MSTORE PUSH1 0x80 DUP3 ADD CALLDATALOAD PUSH1 0x80 DUP3 ADD MSTORE PUSH1 0xA0 DUP3 ADD CALLDATALOAD PUSH1 0xA0 DUP3 ADD MSTORE PUSH1 0xC0 DUP3 ADD CALLDATALOAD PUSH1 0xC0 DUP3 ADD MSTORE PUSH1 0xE0 DUP3 ADD CALLDATALOAD PUSH1 0xE0 DUP3 ADD MSTORE PUSH2 0x100 DUP1 DUP4 ADD CALLDATALOAD DUP2 DUP4 ADD MSTORE POP PUSH2 0x120 DUP1 DUP4 ADD CALLDATALOAD DUP2 DUP4 ADD MSTORE POP PUSH2 0x140 DUP1 DUP4 ADD CALLDATALOAD PUSH8 0xFFFFFFFFFFFFFFFF DUP1 DUP3 GT ISZERO PUSH2 0x3FF1 JUMPI PUSH1 0x0 DUP1 REVERT JUMPDEST PUSH2 0x3FFD DUP7 DUP4 DUP8 ADD PUSH2 0x3E67 JUMP JUMPDEST DUP4 DUP6 ADD MSTORE PUSH2 0x160 SWAP3 POP DUP3 DUP6 ADD CALLDATALOAD SWAP2 POP DUP1 DUP3 GT ISZERO PUSH2 0x4019 JUMPI PUSH1 0x0 DUP1 REVERT JUMPDEST POP PUSH2 0x4026 DUP6 DUP3 DUP7 ADD PUSH2 0x3E67 JUMP JUMPDEST DUP3 DUP5 ADD MSTORE POP POP SWAP3 SWAP2 POP POP JUMP JUMPDEST PUSH1 0x0 PUSH1 0x20 DUP3 DUP5 SUB SLT ISZERO PUSH2 0x4044 JUMPI PUSH1 0x0 DUP1 REVERT JUMPDEST PUSH2 0x689 DUP4 DUP4 PUSH2 0x3D35 JUMP JUMPDEST PUSH1 0x0 DUP1 PUSH1 0x40 DUP4 DUP6 SUB SLT ISZERO PUSH2 0x4061 JUMPI PUSH1 0x0 DUP1 REVERT JUMPDEST PUSH2 0x406B DUP5 DUP5 PUSH2 0x3D35 JUMP JUMPDEST SWAP2 POP PUSH2 0x407A DUP5 PUSH1 0x20 DUP6 ADD PUSH2 0x3D35 JUMP JUMPDEST SWAP1 POP SWAP3 POP SWAP3 SWAP1 POP JUMP JUMPDEST PUSH1 0x0 DUP1 PUSH1 0x40 DUP4 DUP6 SUB SLT ISZERO PUSH2 0x4096 JUMPI PUSH1 0x0 DUP1 REVERT JUMPDEST PUSH2 0x40A0 DUP5 DUP5 PUSH2 0x3D35 JUMP JUMPDEST SWAP2 POP PUSH1 0x20 DUP4 ADD CALLDATALOAD DUP1 ISZERO ISZERO DUP2 EQ PUSH2 0x40B5 JUMPI PUSH1 0x0 DUP1 REVERT JUMPDEST DUP1 SWAP2 POP POP SWAP3 POP SWAP3 SWAP1 POP JUMP JUMPDEST PUSH1 0x0 PUSH1 0x20 DUP3 DUP5 SUB SLT ISZERO PUSH2 0x40D2 JUMPI PUSH1 0x0 DUP1 REVERT JUMPDEST DUP2 CALLDATALOAD PUSH8 0xFFFFFFFFFFFFFFFF DUP2 GT ISZERO PUSH2 0x40E9 JUMPI PUSH1 0x0 DUP1 REVERT JUMPDEST PUSH2 0x40F5 DUP5 DUP3 DUP6 ADD PUSH2 0x3DC3 JUMP JUMPDEST SWAP5 SWAP4 POP POP POP POP JUMP JUMPDEST PUSH1 0x0 DUP1 PUSH1 0x0 PUSH1 0x60 DUP5 DUP7 SUB SLT ISZERO PUSH2 0x4111 JUMPI DUP1 DUP2 REVERT JUMPDEST DUP4 CALLDATALOAD PUSH8 0xFFFFFFFFFFFFFFFF DUP1 DUP3 GT ISZERO PUSH2 0x4128 JUMPI DUP3 DUP4 REVERT JUMPDEST PUSH2 0x4134 DUP8 DUP4 DUP9 ADD PUSH2 0x3DC3 JUMP JUMPDEST SWAP5 POP PUSH1 0x20 SWAP2 POP DUP2 DUP7 ADD CALLDATALOAD DUP2 DUP2 GT ISZERO PUSH2 0x414A JUMPI DUP4 DUP5 REVERT JUMPDEST DUP1 DUP8 ADD DUP9 PUSH1 0x1F DUP3 ADD SLT PUSH2 0x415B JUMPI DUP5 DUP6 REVERT JUMPDEST DUP1 CALLDATALOAD SWAP2 POP PUSH2 0x416B PUSH2 0x3D77 DUP4 PUSH2 0x5425 JUMP JUMPDEST DUP3 DUP2 MSTORE DUP5 DUP2 ADD SWAP1 DUP3 DUP7 ADD DUP7 DUP6 MUL DUP5 ADD DUP8 ADD DUP13 LT ISZERO PUSH2 0x4187 JUMPI DUP8 DUP9 REVERT JUMPDEST DUP8 SWAP4 POP JUMPDEST DUP5 DUP5 LT ISZERO PUSH2 0x41A9 JUMPI DUP1 CALLDATALOAD DUP4 MSTORE PUSH1 0x1 SWAP4 SWAP1 SWAP4 ADD SWAP3 SWAP2 DUP7 ADD SWAP2 DUP7 ADD PUSH2 0x418B JUMP JUMPDEST POP SWAP7 POP POP POP POP PUSH1 0x40 DUP7 ADD CALLDATALOAD SWAP2 POP DUP1 DUP3 GT ISZERO PUSH2 0x41C2 JUMPI DUP3 DUP4 REVERT JUMPDEST POP PUSH2 0x41CF DUP7 DUP3 DUP8 ADD PUSH2 0x3D59 JUMP JUMPDEST SWAP2 POP POP SWAP3 POP SWAP3 POP SWAP3 JUMP JUMPDEST PUSH1 0x0 DUP1 PUSH1 0x0 PUSH1 0x60 DUP5 DUP7 SUB SLT ISZERO PUSH2 0x41ED JUMPI DUP1 DUP2 REVERT JUMPDEST DUP4 CALLDATALOAD PUSH8 0xFFFFFFFFFFFFFFFF DUP1 DUP3 GT ISZERO PUSH2 0x4204 JUMPI DUP3 DUP4 REVERT JUMPDEST PUSH2 0x4210 DUP8 DUP4 DUP9 ADD PUSH2 0x3DC3 JUMP JUMPDEST SWAP5 POP PUSH1 0x20 DUP7 ADD CALLDATALOAD SWAP4 POP PUSH1 0x40 DUP7 ADD CALLDATALOAD SWAP2 POP DUP1 DUP3 GT ISZERO PUSH2 0x41C2 JUMPI DUP3 DUP4 REVERT JUMPDEST PUSH1 0x0 PUSH1 0x20 DUP3 DUP5 SUB SLT ISZERO PUSH2 0x423E JUMPI PUSH1 0x0 DUP1 REVERT JUMPDEST POP CALLDATALOAD SWAP2 SWAP1 POP JUMP JUMPDEST PUSH1 0x0 DUP1 PUSH1 0x40 DUP4 DUP6 SUB SLT ISZERO PUSH2 0x4258 JUMPI PUSH1 0x0 DUP1 REVERT JUMPDEST DUP3 CALLDATALOAD SWAP2 POP PUSH1 0x20 DUP4 ADD CALLDATALOAD PUSH2 0x40B5 DUP2 PUSH2 0x5472 JUMP JUMPDEST PUSH1 0x0 DUP1 PUSH1 0x0 DUP1 PUSH1 0x60 DUP6 DUP8 SUB SLT ISZERO PUSH2 0x4280 JUMPI PUSH1 0x0 DUP1 REVERT JUMPDEST DUP5 CALLDATALOAD SWAP4 POP PUSH2 0x4291 DUP7 PUSH1 0x20 DUP8 ADD PUSH2 0x3D35 JUMP JUMPDEST SWAP3 POP PUSH1 0x40 DUP6 ADD CALLDATALOAD PUSH8 0xFFFFFFFFFFFFFFFF DUP2 GT ISZERO PUSH2 0x42AD JUMPI PUSH1 0x0 DUP1 REVERT JUMPDEST PUSH2 0x42B9 DUP8 DUP3 DUP9 ADD PUSH2 0x3E1E JUMP JUMPDEST SWAP6 SWAP9 SWAP5 SWAP8 POP SWAP6 POP POP POP POP JUMP JUMPDEST PUSH1 0x0 DUP1 PUSH1 0x0 PUSH1 0x60 DUP5 DUP7 SUB SLT ISZERO PUSH2 0x42DA JUMPI PUSH1 0x0 DUP1 REVERT JUMPDEST DUP4 CALLDATALOAD SWAP3 POP PUSH1 0x20 DUP5 ADD CALLDATALOAD PUSH2 0x42EC DUP2 PUSH2 0x5472 JUMP JUMPDEST SWAP2 POP PUSH1 0x40 DUP5 ADD CALLDATALOAD PUSH8 0xFFFFFFFFFFFFFFFF DUP2 GT ISZERO PUSH2 0x4308 JUMPI PUSH1 0x0 DUP1 REVERT JUMPDEST PUSH2 0x41CF DUP7 DUP3 DUP8 ADD PUSH2 0x3E67 JUMP JUMPDEST PUSH1 0x0 PUSH1 0x20 DUP3 DUP5 SUB SLT ISZERO PUSH2 0x4326 JUMPI PUSH1 0x0 DUP1 REVERT JUMPDEST DUP2 CALLDATALOAD PUSH2 0x689 DUP2 PUSH2 0x5494 JUMP JUMPDEST PUSH1 0x0 PUSH1 0x20 DUP3 DUP5 SUB SLT ISZERO PUSH2 0x4343 JUMPI PUSH1 0x0 DUP1 REVERT JUMPDEST DUP2 MLOAD PUSH2 0x689 DUP2 PUSH2 0x5494 JUMP JUMPDEST PUSH1 0x0 DUP1 PUSH2 0x100 DUP4 DUP6 SUB SLT ISZERO PUSH2 0x4362 JUMPI PUSH1 0x0 DUP1 REVERT JUMPDEST PUSH2 0x436C DUP5 DUP5 PUSH2 0x3EEE JUMP JUMPDEST SWAP2 POP PUSH2 0x407A DUP5 PUSH1 0x80 DUP6 ADD PUSH2 0x3EEE JUMP JUMPDEST PUSH1 0x0 PUSH1 0x20 DUP3 DUP5 SUB SLT ISZERO PUSH2 0x438D JUMPI PUSH1 0x0 DUP1 REVERT JUMPDEST DUP2 CALLDATALOAD PUSH8 0xFFFFFFFFFFFFFFFF DUP2 GT ISZERO PUSH2 0x43A4 JUMPI PUSH1 0x0 DUP1 REVERT JUMPDEST PUSH2 0x40F5 DUP5 DUP3 DUP6 ADD PUSH2 0x3F33 JUMP JUMPDEST PUSH1 0x0 DUP1 PUSH1 0x0 DUP1 PUSH1 0x0 PUSH2 0x100 DUP7 DUP9 SUB SLT ISZERO PUSH2 0x43C9 JUMPI PUSH1 0x0 DUP1 REVERT JUMPDEST DUP6 CALLDATALOAD PUSH8 0xFFFFFFFFFFFFFFFF DUP2 GT ISZERO PUSH2 0x43E0 JUMPI PUSH1 0x0 DUP1 REVERT JUMPDEST PUSH2 0x43EC DUP9 DUP3 DUP10 ADD PUSH2 0x3F33 JUMP JUMPDEST SWAP6 POP POP PUSH2 0x43FC DUP8 PUSH1 0x20 DUP9 ADD PUSH2 0x3D35 JUMP JUMPDEST SWAP4 POP PUSH1 0x40 DUP7 ADD CALLDATALOAD SWAP3 POP PUSH1 0x60 DUP7 ADD CALLDATALOAD SWAP2 POP PUSH2 0x4419 DUP8 PUSH1 0x80 DUP9 ADD PUSH2 0x3EEE JUMP JUMPDEST SWAP1 POP SWAP3 SWAP6 POP SWAP3 SWAP6 SWAP1 SWAP4 POP JUMP JUMPDEST PUSH1 0x0 DUP1 PUSH1 0x0 DUP1 PUSH1 0x80 DUP6 DUP8 SUB SLT ISZERO PUSH2 0x443A JUMPI DUP2 DUP3 REVERT JUMPDEST DUP5 CALLDATALOAD PUSH8 0xFFFFFFFFFFFFFFFF DUP1 DUP3 GT ISZERO PUSH2 0x4451 JUMPI DUP4 DUP5 REVERT JUMPDEST PUSH2 0x445D DUP9 DUP4 DUP10 ADD PUSH2 0x3F33 JUMP JUMPDEST SWAP6 POP PUSH1 0x20 DUP8 ADD CALLDATALOAD SWAP2 POP DUP1 DUP3 GT ISZERO PUSH2 0x4472 JUMPI DUP4 DUP5 REVERT JUMPDEST PUSH2 0x447E DUP9 DUP4 DUP10 ADD PUSH2 0x3F33 JUMP JUMPDEST SWAP5 POP PUSH1 0x40 DUP8 ADD CALLDATALOAD SWAP2 POP DUP1 DUP3 GT ISZERO PUSH2 0x4493 JUMPI DUP4 DUP5 REVERT JUMPDEST PUSH2 0x449F DUP9 DUP4 DUP10 ADD PUSH2 0x3E67 JUMP JUMPDEST SWAP4 POP PUSH1 0x60 DUP8 ADD CALLDATALOAD SWAP2 POP DUP1 DUP3 GT ISZERO PUSH2 0x44B5 JUMPI PUSH1 0x0 DUP1 REVERT JUMPDEST POP PUSH2 0x44C2 DUP8 DUP3 DUP9 ADD PUSH2 0x3E67 JUMP JUMPDEST SWAP2 POP POP SWAP3 SWAP6 SWAP2 SWAP5 POP SWAP3 POP JUMP JUMPDEST PUSH1 0x0 DUP1 PUSH1 0x40 DUP4 DUP6 SUB SLT ISZERO PUSH2 0x44E1 JUMPI PUSH1 0x0 DUP1 REVERT JUMPDEST DUP3 CALLDATALOAD PUSH8 0xFFFFFFFFFFFFFFFF DUP2 GT ISZERO PUSH2 0x44F8 JUMPI PUSH1 0x0 DUP1 REVERT JUMPDEST PUSH2 0x4504 DUP6 DUP3 DUP7 ADD PUSH2 0x3F33 JUMP JUMPDEST SWAP6 PUSH1 0x20 SWAP5 SWAP1 SWAP5 ADD CALLDATALOAD SWAP5 POP POP POP POP JUMP JUMPDEST PUSH1 0x0 DUP1 PUSH1 0x0 PUSH1 0x60 DUP5 DUP7 SUB SLT ISZERO PUSH2 0x4527 JUMPI DUP1 DUP2 REVERT JUMPDEST DUP4 CALLDATALOAD PUSH8 0xFFFFFFFFFFFFFFFF DUP1 DUP3 GT ISZERO PUSH2 0x453E JUMPI DUP3 DUP4 REVERT JUMPDEST PUSH2 0x454A DUP8 DUP4 DUP9 ADD PUSH2 0x3F33 JUMP JUMPDEST SWAP5 POP PUSH1 0x20 DUP7 ADD CALLDATALOAD SWAP4 POP PUSH1 0x40 DUP7 ADD CALLDATALOAD SWAP2 POP DUP1 DUP3 GT ISZERO PUSH2 0x4566 JUMPI DUP3 DUP4 REVERT JUMPDEST POP PUSH2 0x41CF DUP7 DUP3 DUP8 ADD PUSH2 0x3E67 JUMP JUMPDEST PUSH1 0x0 DUP1 PUSH1 0x0 DUP1 PUSH1 0x0 DUP1 PUSH1 0x80 DUP8 DUP10 SUB SLT ISZERO PUSH2 0x458C JUMPI PUSH1 0x0 DUP1 REVERT JUMPDEST DUP7 CALLDATALOAD SWAP6 POP PUSH2 0x459D DUP9 PUSH1 0x20 DUP10 ADD PUSH2 0x3D35 JUMP JUMPDEST SWAP5 POP PUSH1 0x40 DUP8 ADD CALLDATALOAD PUSH8 0xFFFFFFFFFFFFFFFF DUP1 DUP3 GT ISZERO PUSH2 0x45BA JUMPI PUSH1 0x0 DUP1 REVERT JUMPDEST PUSH2 0x45C6 DUP11 DUP4 DUP12 ADD PUSH2 0x3E1E JUMP JUMPDEST SWAP1 SWAP7 POP SWAP5 POP PUSH1 0x60 DUP10 ADD CALLDATALOAD SWAP2 POP DUP1 DUP3 GT ISZERO PUSH2 0x45DF JUMPI PUSH1 0x0 DUP1 REVERT JUMPDEST POP PUSH2 0x45EC DUP10 DUP3 DUP11 ADD PUSH2 0x3E1E JUMP JUMPDEST SWAP8 SWAP11 SWAP7 SWAP10 POP SWAP5 SWAP8 POP SWAP3 SWAP6 SWAP4 SWAP5 SWAP3 POP POP POP JUMP JUMPDEST PUSH1 0x0 DUP1 PUSH1 0x0 PUSH1 0x60 DUP5 DUP7 SUB SLT ISZERO PUSH2 0x4613 JUMPI PUSH1 0x0 DUP1 REVERT JUMPDEST POP POP DUP2 CALLDATALOAD SWAP4 PUSH1 0x20 DUP4 ADD CALLDATALOAD SWAP4 POP PUSH1 0x40 SWAP1 SWAP3 ADD CALLDATALOAD SWAP2 SWAP1 POP JUMP JUMPDEST PUSH1 0x0 DUP2 MLOAD DUP1 DUP5 MSTORE PUSH2 0x4642 DUP2 PUSH1 0x20 DUP7 ADD PUSH1 0x20 DUP7 ADD PUSH2 0x5446 JUMP JUMPDEST PUSH1 0x1F ADD PUSH32 0xFFFFFFFFFFFFFFFFFFFFFFFFFFFFFFFFFFFFFFFFFFFFFFFFFFFFFFFFFFFFFFE0 AND SWAP3 SWAP1 SWAP3 ADD PUSH1 0x20 ADD SWAP3 SWAP2 POP POP JUMP JUMPDEST PUSH32 0x6279746573206D616B65724173736574446174612C0000000000000000000000 DUP2 MSTORE PUSH1 0x15 ADD SWAP1 JUMP JUMPDEST PUSH32 0x62797465732074616B6572417373657444617461000000000000000000000000 DUP2 MSTORE PUSH1 0x14 ADD SWAP1 JUMP JUMPDEST PUSH32 0x2900000000000000000000000000000000000000000000000000000000000000 DUP2 MSTORE PUSH1 0x1 ADD SWAP1 JUMP JUMPDEST DUP1 MLOAD DUP3 MSTORE PUSH1 0x20 DUP2 ADD MLOAD PUSH1 0x20 DUP4 ADD MSTORE PUSH1 0x40 DUP2 ADD MLOAD PUSH1 0x40 DUP4 ADD MSTORE PUSH1 0x60 DUP2 ADD MLOAD PUSH1 0x60 DUP4 ADD MSTORE POP POP JUMP JUMPDEST DUP1 MLOAD PUSH1 0xFF AND DUP3 MSTORE PUSH1 0x20 DUP1 DUP3 ADD MLOAD SWAP1 DUP4 ADD MSTORE PUSH1 0x40 SWAP1 DUP2 ADD MLOAD SWAP2 ADD MSTORE JUMP JUMPDEST PUSH1 0x0 DUP3 DUP5 DUP4 CALLDATACOPY POP PUSH1 0x0 SWAP2 ADD SWAP1 DUP2 MSTORE SWAP2 SWAP1 POP JUMP JUMPDEST PUSH1 0x0 DUP3 MLOAD PUSH2 0x4756 DUP2 DUP5 PUSH1 0x20 DUP8 ADD PUSH2 0x5446 JUMP JUMPDEST SWAP2 SWAP1 SWAP2 ADD SWAP3 SWAP2 POP POP JUMP JUMPDEST PUSH32 0x19457468657265756D205369676E6564204D6573736167653A0A333200000000 DUP2 MSTORE PUSH1 0x1C DUP2 ADD SWAP2 SWAP1 SWAP2 MSTORE PUSH1 0x3C ADD SWAP1 JUMP JUMPDEST PUSH32 0x5A65726F45785472616E73616374696F6E280000000000000000000000000000 DUP2 MSTORE PUSH32 0x75696E743235362073616C742C00000000000000000000000000000000000000 PUSH1 0x12 DUP3 ADD MSTORE PUSH32 0x61646472657373207369676E6572416464726573732C00000000000000000000 PUSH1 0x1F DUP3 ADD MSTORE PUSH32 0x6279746573206461746100000000000000000000000000000000000000000000 PUSH1 0x35 DUP3 ADD MSTORE PUSH32 0x2900000000000000000000000000000000000000000000000000000000000000 PUSH1 0x3F DUP3 ADD MSTORE PUSH1 0x40 ADD SWAP1 JUMP JUMPDEST PUSH1 0x0 PUSH32 0x4F72646572280000000000000000000000000000000000000000000000000000 DUP3 MSTORE PUSH32 0x61646472657373206D616B6572416464726573732C0000000000000000000000 PUSH1 0x6 DUP4 ADD MSTORE PUSH32 0x616464726573732074616B6572416464726573732C0000000000000000000000 PUSH1 0x1B DUP4 ADD MSTORE PUSH32 0x6164647265737320666565526563697069656E74416464726573732C00000000 PUSH1 0x30 DUP4 ADD MSTORE PUSH32 0x616464726573732073656E646572416464726573732C00000000000000000000 PUSH1 0x4C DUP4 ADD MSTORE PUSH32 0x75696E74323536206D616B65724173736574416D6F756E742C00000000000000 PUSH1 0x62 DUP4 ADD MSTORE PUSH32 0x75696E743235362074616B65724173736574416D6F756E742C00000000000000 PUSH1 0x7B DUP4 ADD MSTORE PUSH32 0x75696E74323536206D616B65724665652C000000000000000000000000000000 PUSH1 0x94 DUP4 ADD MSTORE PUSH32 0x75696E743235362074616B65724665652C000000000000000000000000000000 PUSH1 0xA5 DUP4 ADD MSTORE PUSH32 0x75696E743235362065787069726174696F6E54696D655365636F6E64732C0000 PUSH1 0xB6 DUP4 ADD MSTORE PUSH32 0x75696E743235362073616C742C00000000000000000000000000000000000000 PUSH1 0xD4 DUP4 ADD MSTORE PUSH2 0xFD9 PUSH2 0x4A0A PUSH2 0x4A05 PUSH1 0xE1 DUP6 ADD PUSH2 0x4674 JUMP JUMPDEST PUSH2 0x469D JUMP JUMPDEST PUSH2 0x46C6 JUMP JUMPDEST PUSH20 0xFFFFFFFFFFFFFFFFFFFFFFFFFFFFFFFFFFFFFFFF SWAP2 SWAP1 SWAP2 AND DUP2 MSTORE PUSH1 0x20 ADD SWAP1 JUMP JUMPDEST PUSH1 0x0 PUSH20 0xFFFFFFFFFFFFFFFFFFFFFFFFFFFFFFFFFFFFFFFF DUP6 AND DUP3 MSTORE PUSH1 0x60 PUSH1 0x20 DUP4 ADD MSTORE PUSH2 0x4A5F PUSH1 0x60 DUP4 ADD DUP6 PUSH2 0x462A JUMP JUMPDEST DUP3 DUP2 SUB PUSH1 0x40 DUP5 ADD MSTORE PUSH2 0x4A71 DUP2 DUP6 PUSH2 0x462A JUMP JUMPDEST SWAP7 SWAP6 POP POP POP POP POP POP JUMP JUMPDEST PUSH1 0x0 PUSH2 0x100 PUSH20 0xFFFFFFFFFFFFFFFFFFFFFFFFFFFFFFFFFFFFFFFF DUP1 DUP13 AND DUP5 MSTORE DUP1 DUP12 AND PUSH1 0x20 DUP6 ADD MSTORE POP DUP9 PUSH1 0x40 DUP5 ADD MSTORE DUP8 PUSH1 0x60 DUP5 ADD MSTORE DUP7 PUSH1 0x80 DUP5 ADD MSTORE DUP6 PUSH1 0xA0 DUP5 ADD MSTORE DUP1 PUSH1 0xC0 DUP5 ADD MSTORE PUSH2 0x4ACD DUP2 DUP5 ADD DUP7 PUSH2 0x462A JUMP JUMPDEST DUP4 DUP2 SUB PUSH1 0xE0 DUP6 ADD MSTORE PUSH2 0x4ADF DUP2 DUP7 PUSH2 0x462A JUMP JUMPDEST SWAP13 SWAP12 POP POP POP POP POP POP POP POP POP POP POP POP JUMP JUMPDEST PUSH1 0x20 DUP1 DUP3 MSTORE DUP3 MLOAD DUP3 DUP3 ADD DUP2 SWAP1 MSTORE PUSH1 0x0 SWAP2 DUP5 ADD SWAP1 PUSH1 0x40 DUP5 ADD SWAP1 DUP4 JUMPDEST DUP2 DUP2 LT ISZERO PUSH2 0x4B32 JUMPI PUSH2 0x4B1C DUP4 DUP6 MLOAD PUSH2 0x4715 JUMP JUMPDEST PUSH1 0x20 SWAP4 SWAP1 SWAP4 ADD SWAP3 PUSH1 0x60 SWAP3 SWAP1 SWAP3 ADD SWAP2 PUSH1 0x1 ADD PUSH2 0x4B09 JUMP JUMPDEST POP SWAP1 SWAP6 SWAP5 POP POP POP POP POP JUMP JUMPDEST SWAP1 ISZERO ISZERO DUP2 MSTORE PUSH1 0x20 ADD SWAP1 JUMP JUMPDEST SWAP1 DUP2 MSTORE PUSH1 0x20 ADD SWAP1 JUMP JUMPDEST PUSH1 0x0 DUP5 DUP3 MSTORE PUSH20 0xFFFFFFFFFFFFFFFFFFFFFFFFFFFFFFFFFFFFFFFF DUP5 AND PUSH1 0x20 DUP4 ADD MSTORE PUSH1 0x60 PUSH1 0x40 DUP4 ADD MSTORE PUSH2 0x4B86 PUSH1 0x60 DUP4 ADD DUP5 PUSH2 0x462A JUMP JUMPDEST SWAP6 SWAP5 POP POP POP POP POP JUMP JUMPDEST PUSH1 0x0 DUP4 DUP3 MSTORE PUSH1 0x40 PUSH1 0x20 DUP4 ADD MSTORE PUSH2 0x686 PUSH1 0x40 DUP4 ADD DUP5 PUSH2 0x462A JUMP JUMPDEST SWAP4 DUP5 MSTORE PUSH1 0xFF SWAP3 SWAP1 SWAP3 AND PUSH1 0x20 DUP5 ADD MSTORE PUSH1 0x40 DUP4 ADD MSTORE PUSH1 0x60 DUP3 ADD MSTORE PUSH1 0x80 ADD SWAP1 JUMP JUMPDEST PUSH32 0xFFFFFFFF00000000000000000000000000000000000000000000000000000000 SWAP3 SWAP1 SWAP3 AND DUP3 MSTORE PUSH20 0xFFFFFFFFFFFFFFFFFFFFFFFFFFFFFFFFFFFFFFFF AND PUSH1 0x20 DUP3 ADD MSTORE PUSH1 0x40 ADD SWAP1 JUMP JUMPDEST PUSH1 0x0 PUSH1 0x20 DUP3 MSTORE PUSH2 0x689 PUSH1 0x20 DUP4 ADD DUP5 PUSH2 0x462A JUMP JUMPDEST PUSH1 0x20 DUP1 DUP3 MSTORE PUSH1 0x12 SWAP1 DUP3 ADD MSTORE PUSH32 0x4C454E4754485F36355F52455155495245440000000000000000000000000000 PUSH1 0x40 DUP3 ADD MSTORE PUSH1 0x60 ADD SWAP1 JUMP JUMPDEST PUSH1 0x20 DUP1 DUP3 MSTORE PUSH1 0xD SWAP1 DUP3 ADD MSTORE PUSH32 0x494E56414C49445F54414B455200000000000000000000000000000000000000 PUSH1 0x40 DUP3 ADD MSTORE PUSH1 0x60 ADD SWAP1 JUMP JUMPDEST PUSH1 0x20 DUP1 DUP3 MSTORE PUSH1 0xE SWAP1 DUP3 ADD MSTORE PUSH32 0x4F524445525F4F56455246494C4C000000000000000000000000000000000000 PUSH1 0x40 DUP3 ADD MSTORE PUSH1 0x60 ADD SWAP1 JUMP JUMPDEST PUSH1 0x20 DUP1 DUP3 MSTORE PUSH1 0x11 SWAP1 DUP3 ADD MSTORE PUSH32 0x55494E543235365F554E444552464C4F57000000000000000000000000000000 PUSH1 0x40 DUP3 ADD MSTORE PUSH1 0x60 ADD SWAP1 JUMP JUMPDEST PUSH1 0x20 DUP1 DUP3 MSTORE PUSH1 0x1A SWAP1 DUP3 ADD MSTORE PUSH32 0x41535345545F50524F58595F414C52454144595F455849535453000000000000 PUSH1 0x40 DUP3 ADD MSTORE PUSH1 0x60 ADD SWAP1 JUMP JUMPDEST PUSH1 0x20 DUP1 DUP3 MSTORE PUSH1 0x26 SWAP1 DUP3 ADD MSTORE PUSH32 0x475245415445525F4F525F455155414C5F544F5F33325F4C454E4754485F5245 PUSH1 0x40 DUP3 ADD MSTORE PUSH32 0x5155495245440000000000000000000000000000000000000000000000000000 PUSH1 0x60 DUP3 ADD MSTORE PUSH1 0x80 ADD SWAP1 JUMP JUMPDEST PUSH1 0x20 DUP1 DUP3 MSTORE PUSH1 0x15 SWAP1 DUP3 ADD MSTORE PUSH32 0x5349474E41545552455F554E535550504F525445440000000000000000000000 PUSH1 0x40 DUP3 ADD MSTORE PUSH1 0x60 ADD SWAP1 JUMP JUMPDEST PUSH1 0x20 DUP1 DUP3 MSTORE PUSH1 0x10 SWAP1 DUP3 ADD MSTORE PUSH32 0x4449564953494F4E5F42595F5A45524F00000000000000000000000000000000 PUSH1 0x40 DUP3 ADD MSTORE PUSH1 0x60 ADD SWAP1 JUMP JUMPDEST PUSH1 0x20 DUP1 DUP3 MSTORE PUSH1 0x17 SWAP1 DUP3 ADD MSTORE PUSH32 0x494E56414C49445F4F524445525F5349474E4154555245000000000000000000 PUSH1 0x40 DUP3 ADD MSTORE PUSH1 0x60 ADD SWAP1 JUMP JUMPDEST PUSH1 0x20 DUP1 DUP3 MSTORE PUSH1 0xD SWAP1 DUP3 ADD MSTORE PUSH32 0x494E56414C49445F4D414B455200000000000000000000000000000000000000 PUSH1 0x40 DUP3 ADD MSTORE PUSH1 0x60 ADD SWAP1 JUMP JUMPDEST PUSH1 0x20 DUP1 DUP3 MSTORE PUSH1 0x10 SWAP1 DUP3 ADD MSTORE PUSH32 0x55494E543235365F4F564552464C4F5700000000000000000000000000000000 PUSH1 0x40 DUP3 ADD MSTORE PUSH1 0x60 ADD SWAP1 JUMP JUMPDEST PUSH1 0x20 DUP1 DUP3 MSTORE PUSH1 0xF SWAP1 DUP3 ADD MSTORE PUSH32 0x494E56414C49445F54585F484153480000000000000000000000000000000000 PUSH1 0x40 DUP3 ADD MSTORE PUSH1 0x60 ADD SWAP1 JUMP JUMPDEST PUSH1 0x20 DUP1 DUP3 MSTORE PUSH1 0x11 SWAP1 DUP3 ADD MSTORE PUSH32 0x494E56414C49445F5349474E4154555245000000000000000000000000000000 PUSH1 0x40 DUP3 ADD MSTORE PUSH1 0x60 ADD SWAP1 JUMP JUMPDEST PUSH1 0x20 DUP1 DUP3 MSTORE PUSH1 0xE SWAP1 DUP3 ADD MSTORE PUSH32 0x524F554E44494E475F4552524F52000000000000000000000000000000000000 PUSH1 0x40 DUP3 ADD MSTORE PUSH1 0x60 ADD SWAP1 JUMP JUMPDEST PUSH1 0x20 DUP1 DUP3 MSTORE PUSH1 0x10 SWAP1 DUP3 ADD MSTORE PUSH32 0x4641494C45445F455845435554494F4E00000000000000000000000000000000 PUSH1 0x40 DUP3 ADD MSTORE PUSH1 0x60 ADD SWAP1 JUMP JUMPDEST PUSH1 0x20 DUP1 DUP3 MSTORE PUSH1 0xD SWAP1 DUP3 ADD MSTORE PUSH32 0x54414B45525F4F56455250415900000000000000000000000000000000000000 PUSH1 0x40 DUP3 ADD MSTORE PUSH1 0x60 ADD SWAP1 JUMP JUMPDEST PUSH1 0x20 DUP1 DUP3 MSTORE PUSH1 0x14 SWAP1 DUP3 ADD MSTORE PUSH32 0x494E56414C49445F54414B45525F414D4F554E54000000000000000000000000 PUSH1 0x40 DUP3 ADD MSTORE PUSH1 0x60 ADD SWAP1 JUMP JUMPDEST PUSH1 0x20 DUP1 DUP3 MSTORE PUSH1 0x1A SWAP1 DUP3 ADD MSTORE PUSH32 0x41535345545F50524F58595F444F45535F4E4F545F4558495354000000000000 PUSH1 0x40 DUP3 ADD MSTORE PUSH1 0x60 ADD SWAP1 JUMP JUMPDEST PUSH1 0x20 DUP1 DUP3 MSTORE PUSH1 0x21 SWAP1 DUP3 ADD MSTORE PUSH32 0x475245415445525F5448414E5F5A45524F5F4C454E4754485F52455155495245 PUSH1 0x40 DUP3 ADD MSTORE PUSH32 0x4400000000000000000000000000000000000000000000000000000000000000 PUSH1 0x60 DUP3 ADD MSTORE PUSH1 0x80 ADD SWAP1 JUMP JUMPDEST PUSH1 0x20 DUP1 DUP3 MSTORE PUSH1 0x11 SWAP1 DUP3 ADD MSTORE PUSH32 0x5349474E41545552455F494C4C4547414C000000000000000000000000000000 PUSH1 0x40 DUP3 ADD MSTORE PUSH1 0x60 ADD SWAP1 JUMP JUMPDEST PUSH1 0x20 DUP1 DUP3 MSTORE PUSH1 0x1E SWAP1 DUP3 ADD MSTORE PUSH32 0x4C454E4754485F475245415445525F5448414E5F305F52455155495245440000 PUSH1 0x40 DUP3 ADD MSTORE PUSH1 0x60 ADD SWAP1 JUMP JUMPDEST PUSH1 0x20 DUP1 DUP3 MSTORE PUSH1 0x17 SWAP1 DUP3 ADD MSTORE PUSH32 0x494E56414C49445F4E45575F4F524445525F45504F4348000000000000000000 PUSH1 0x40 DUP3 ADD MSTORE PUSH1 0x60 ADD SWAP1 JUMP JUMPDEST PUSH1 0x20 DUP1 DUP3 MSTORE PUSH1 0x1E SWAP1 DUP3 ADD MSTORE PUSH32 0x4C454E4754485F475245415445525F5448414E5F335F52455155495245440000 PUSH1 0x40 DUP3 ADD MSTORE PUSH1 0x60 ADD SWAP1 JUMP JUMPDEST PUSH1 0x20 DUP1 DUP3 MSTORE PUSH1 0x14 SWAP1 DUP3 ADD MSTORE PUSH32 0x434F4D504C4554455F46494C4C5F4641494C4544000000000000000000000000 PUSH1 0x40 DUP3 ADD MSTORE PUSH1 0x60 ADD SWAP1 JUMP JUMPDEST PUSH1 0x20 DUP1 DUP3 MSTORE PUSH1 0x12 SWAP1 DUP3 ADD MSTORE PUSH32 0x494E56414C49445F46494C4C5F50524943450000000000000000000000000000 PUSH1 0x40 DUP3 ADD MSTORE PUSH1 0x60 ADD SWAP1 JUMP JUMPDEST PUSH1 0x20 DUP1 DUP3 MSTORE PUSH1 0x12 SWAP1 DUP3 ADD MSTORE PUSH32 0x5245454E5452414E43595F494C4C4547414C0000000000000000000000000000 PUSH1 0x40 DUP3 ADD MSTORE PUSH1 0x60 ADD SWAP1 JUMP JUMPDEST PUSH1 0x20 DUP1 DUP3 MSTORE PUSH1 0x13 SWAP1 DUP3 ADD MSTORE PUSH32 0x4F4E4C595F434F4E54524143545F4F574E455200000000000000000000000000 PUSH1 0x40 DUP3 ADD MSTORE PUSH1 0x60 ADD SWAP1 JUMP JUMPDEST PUSH1 0x20 DUP1 DUP3 MSTORE PUSH1 0x26 SWAP1 DUP3 ADD MSTORE PUSH32 0x475245415445525F4F525F455155414C5F544F5F32305F4C454E4754485F5245 PUSH1 0x40 DUP3 ADD MSTORE PUSH32 0x5155495245440000000000000000000000000000000000000000000000000000 PUSH1 0x60 DUP3 ADD MSTORE PUSH1 0x80 ADD SWAP1 JUMP JUMPDEST PUSH1 0x20 DUP1 DUP3 MSTORE PUSH1 0x10 SWAP1 DUP3 ADD MSTORE PUSH32 0x4F524445525F554E46494C4C41424C4500000000000000000000000000000000 PUSH1 0x40 DUP3 ADD MSTORE PUSH1 0x60 ADD SWAP1 JUMP JUMPDEST PUSH1 0x20 DUP1 DUP3 MSTORE PUSH1 0xE SWAP1 DUP3 ADD MSTORE PUSH32 0x494E56414C49445F53454E444552000000000000000000000000000000000000 PUSH1 0x40 DUP3 ADD MSTORE PUSH1 0x60 ADD SWAP1 JUMP JUMPDEST PUSH1 0x20 DUP1 DUP3 MSTORE PUSH1 0x18 SWAP1 DUP3 ADD MSTORE PUSH32 0x4E454741544956455F5350524541445F52455155495245440000000000000000 PUSH1 0x40 DUP3 ADD MSTORE PUSH1 0x60 ADD SWAP1 JUMP JUMPDEST PUSH1 0x20 DUP1 DUP3 MSTORE PUSH1 0x14 SWAP1 DUP3 ADD MSTORE PUSH32 0x494E56414C49445F54585F5349474E4154555245000000000000000000000000 PUSH1 0x40 DUP3 ADD MSTORE PUSH1 0x60 ADD SWAP1 JUMP JUMPDEST PUSH1 0x20 DUP1 DUP3 MSTORE PUSH1 0x11 SWAP1 DUP3 ADD MSTORE PUSH32 0x4C454E4754485F305F5245515549524544000000000000000000000000000000 PUSH1 0x40 DUP3 ADD MSTORE PUSH1 0x60 ADD SWAP1 JUMP JUMPDEST PUSH1 0x80 DUP2 ADD PUSH2 0xFD9 DUP3 DUP5 PUSH2 0x46EF JUMP JUMPDEST PUSH1 0x0 PUSH2 0x120 DUP3 ADD SWAP1 POP PUSH2 0x53CC DUP3 DUP5 MLOAD PUSH2 0x46EF JUMP JUMPDEST PUSH1 0x20 DUP4 ADD MLOAD PUSH2 0x53DE PUSH1 0x80 DUP5 ADD DUP3 PUSH2 0x46EF JUMP JUMPDEST POP PUSH1 0x40 DUP4 ADD MLOAD PUSH2 0x100 DUP4 ADD MSTORE SWAP3 SWAP2 POP POP JUMP JUMPDEST PUSH1 0x60 DUP2 ADD PUSH2 0xFD9 DUP3 DUP5 PUSH2 0x4715 JUMP JUMPDEST PUSH1 0x40 MLOAD DUP2 DUP2 ADD PUSH8 0xFFFFFFFFFFFFFFFF DUP2 GT DUP3 DUP3 LT OR ISZERO PUSH2 0x541D JUMPI PUSH1 0x0 DUP1 REVERT JUMPDEST PUSH1 0x40 MSTORE SWAP2 SWAP1 POP JUMP JUMPDEST PUSH1 0x0 PUSH8 0xFFFFFFFFFFFFFFFF DUP3 GT ISZERO PUSH2 0x543C JUMPI PUSH1 0x0 DUP1 REVERT JUMPDEST POP PUSH1 0x20 SWAP1 DUP2 MUL ADD SWAP1 JUMP JUMPDEST PUSH1 0x0 JUMPDEST DUP4 DUP2 LT ISZERO PUSH2 0x5461 JUMPI DUP2 DUP2 ADD MLOAD DUP4 DUP3 ADD MSTORE PUSH1 0x20 ADD PUSH2 0x5449 JUMP JUMPDEST DUP4 DUP2 GT ISZERO PUSH2 0x281E JUMPI POP POP PUSH1 0x0 SWAP2 ADD MSTORE JUMP JUMPDEST PUSH20 0xFFFFFFFFFFFFFFFFFFFFFFFFFFFFFFFFFFFFFFFF DUP2 AND DUP2 EQ PUSH2 0x237D JUMPI PUSH1 0x0 DUP1 REVERT JUMPDEST PUSH32 0xFFFFFFFF00000000000000000000000000000000000000000000000000000000 DUP2 AND DUP2 EQ PUSH2 0x237D JUMPI PUSH1 0x0 DUP1 REVERT INVALID LOG2 PUSH6 0x627A7A723058 KECCAK256 0xef 0x5f 0xf8 PUSH3 0x95EC45 0x28 PUSH16 0x9F52D461489D3E10EB0581BB148D6BBB EXTCODECOPY 0xd1 0x47 SWAP12 0xe1 GT SWAP10 PUSH13 0x6578706572696D656E74616CF5 STOP CALLDATACOPY "
            }
        }
    },
    "sourceTreeHashHex": "0x3777868de522b11bf7294002a26c4633a400d7159b22e1994769de2da0659360",
    "compiler": {
        "name": "solc",
        "version": "soljson-v0.5.8+commit.23d335f2.js",
        "settings": {
            "optimizer": {
                "enabled": true,
                "runs": 1000000,
                "details": {
                    "yul": true,
                    "deduplicate": true,
                    "cse": true,
                    "constantOptimizer": true
                }
            },
            "outputSelection": {
                "*": {
                    "*": [
                        "abi",
                        "evm.bytecode.object",
                        "evm.bytecode.sourceMap",
                        "evm.deployedBytecode.object",
                        "evm.deployedBytecode.sourceMap"
                    ]
                }
            },
            "evmVersion": "constantinople",
            "remappings": [
                "@0x/contracts-exchange-libs=/Users/fabioberger/Documents/projects/0x_project/0x-monorepo-one/contracts/exchange/node_modules/@0x/contracts-exchange-libs",
                "@0x/contracts-utils=/Users/fabioberger/Documents/projects/0x_project/0x-monorepo-one/contracts/exchange/node_modules/@0x/contracts-utils",
                "@0x/contracts-erc20=/Users/fabioberger/Documents/projects/0x_project/0x-monorepo-one/contracts/exchange/node_modules/@0x/contracts-erc20"
            ]
        }
    }
}