{
	"schemaVersion": "2.0.0",
	"contractName": "TestStaticCallTarget",
	"compilerOutput": {
		"abi": [
			{
				"constant": true,
				"inputs": [
					{
						"name": "a",
						"type": "bytes"
					}
				],
				"name": "dynamicInputFunction",
				"outputs": [],
				"payable": false,
				"stateMutability": "pure",
				"type": "function"
			},
			{
				"constant": false,
				"inputs": [],
				"name": "updateState",
				"outputs": [],
				"payable": false,
				"stateMutability": "nonpayable",
				"type": "function"
			},
			{
				"constant": true,
				"inputs": [],
				"name": "noInputFunction",
				"outputs": [],
				"payable": false,
				"stateMutability": "pure",
				"type": "function"
			},
			{
				"constant": true,
				"inputs": [
					{
						"name": "a",
						"type": "uint256"
					},
					{
						"name": "b",
						"type": "uint256"
					}
				],
				"name": "returnComplexType",
				"outputs": [
					{
						"name": "result",
						"type": "bytes"
					}
				],
				"payable": false,
				"stateMutability": "view",
				"type": "function"
			},
			{
				"constant": true,
				"inputs": [
					{
						"name": "target",
						"type": "uint256"
					}
				],
				"name": "assertEvenNumber",
				"outputs": [],
				"payable": false,
				"stateMutability": "pure",
				"type": "function"
			},
			{
				"constant": true,
				"inputs": [
					{
						"name": "target",
						"type": "uint256"
					}
				],
				"name": "isOddNumber",
				"outputs": [
					{
						"name": "isOdd",
						"type": "bool"
					}
				],
				"payable": false,
				"stateMutability": "pure",
				"type": "function"
			}
		],
		"devdoc": {
			"methods": {}
		},
		"evm": {
			"bytecode": {
				"linkReferences": {},
				"object": "0x608060405234801561001057600080fd5b5061057f806100206000396000f3fe608060405234801561001057600080fd5b50600436106100725760003560e01c8063692b5f9c11610050578063692b5f9c146100f9578063c6d56db214610191578063ed2cfc9c146101ae57610072565b80630150571f146100775780631d8557d7146100e9578063586d8b60146100f1575b600080fd5b6100e76004803603602081101561008d57600080fd5b8101906020810181356401000000008111156100a857600080fd5b8201836020820111156100ba57600080fd5b803590602001918460018302840111640100000000831117156100dc57600080fd5b5090925090506101df565b005b6100e76102e4565b6100e76102ef565b61011c6004803603604081101561010f57600080fd5b50803590602001356103c5565b6040805160208082528351818301528351919283929083019185019080838360005b8381101561015657818101518382015260200161013e565b50505050905090810190601f1680156101835780820380516001836020036101000a031916815260200191505b509250505060405180910390f35b6100e7600480360360208110156101a757600080fd5b50356103f8565b6101cb600480360360208110156101c457600080fd5b503561046b565b604080519115158252519081900360200190f35b6060828260405160240180806020018281038252848482818152602001925080828437600083820181905260408051601f9384017fffffffffffffffffffffffffffffffffffffffffffffffffffffffffffffffe09081169096018181039096018152948152602080860180517bffffffffffffffffffffffffffffffffffffffffffffffffffffffff167f0150571f000000000000000000000000000000000000000000000000000000001790528151369485018290048202810182019092528382529499506102d9985089975095509350918291508401838280828437600092019190915250929392505063ffffffff610474169050565b6102df57fe5b505050565b600080546001019055565b6004361480156103bd575060405180807f6e6f496e70757446756e6374696f6e2829000000000000000000000000000000815250601101905060405180910390207bffffffffffffffffffffffffffffffffffffffffffffffffffffffff1916610399600080368080601f016020809104026020016040519081016040528093929190818152602001838380828437600092019190915250929392505063ffffffff61049b169050565b7fffffffff0000000000000000000000000000000000000000000000000000000016145b6103c357fe5b565b604080513060601b6020820152603481019390935260548084019290925280518084039092018252607490920190915290565b600281061561046857604080517f08c379a000000000000000000000000000000000000000000000000000000000815260206004820152600f60248201527f5441524745545f4e4f545f4556454e0000000000000000000000000000000000604482015290519081900360640190fd5b50565b60019081161490565b600081518351148015610494575081805190602001208380519060200120145b9392505050565b600081600401835110156104fa576040517f08c379a00000000000000000000000000000000000000000000000000000000081526004018080602001828103825260258152602001806105266025913960400191505060405180910390fd5b5001602001517fffffffff00000000000000000000000000000000000000000000000000000000169056fe475245415445525f4f525f455155414c5f544f5f345f4c454e4754485f5245515549524544a265627a7a723058203fa022c39cbc7c05d59a4fa26b9deaadccfea5a227177651be6711f798a1412764736f6c634300050a0032",
				"opcodes": "PUSH1 0x80 PUSH1 0x40 MSTORE CALLVALUE DUP1 ISZERO PUSH2 0x10 JUMPI PUSH1 0x0 DUP1 REVERT JUMPDEST POP PUSH2 0x57F DUP1 PUSH2 0x20 PUSH1 0x0 CODECOPY PUSH1 0x0 RETURN INVALID PUSH1 0x80 PUSH1 0x40 MSTORE CALLVALUE DUP1 ISZERO PUSH2 0x10 JUMPI PUSH1 0x0 DUP1 REVERT JUMPDEST POP PUSH1 0x4 CALLDATASIZE LT PUSH2 0x72 JUMPI PUSH1 0x0 CALLDATALOAD PUSH1 0xE0 SHR DUP1 PUSH4 0x692B5F9C GT PUSH2 0x50 JUMPI DUP1 PUSH4 0x692B5F9C EQ PUSH2 0xF9 JUMPI DUP1 PUSH4 0xC6D56DB2 EQ PUSH2 0x191 JUMPI DUP1 PUSH4 0xED2CFC9C EQ PUSH2 0x1AE JUMPI PUSH2 0x72 JUMP JUMPDEST DUP1 PUSH4 0x150571F EQ PUSH2 0x77 JUMPI DUP1 PUSH4 0x1D8557D7 EQ PUSH2 0xE9 JUMPI DUP1 PUSH4 0x586D8B60 EQ PUSH2 0xF1 JUMPI JUMPDEST PUSH1 0x0 DUP1 REVERT JUMPDEST PUSH2 0xE7 PUSH1 0x4 DUP1 CALLDATASIZE SUB PUSH1 0x20 DUP2 LT ISZERO PUSH2 0x8D JUMPI PUSH1 0x0 DUP1 REVERT JUMPDEST DUP2 ADD SWAP1 PUSH1 0x20 DUP2 ADD DUP2 CALLDATALOAD PUSH5 0x100000000 DUP2 GT ISZERO PUSH2 0xA8 JUMPI PUSH1 0x0 DUP1 REVERT JUMPDEST DUP3 ADD DUP4 PUSH1 0x20 DUP3 ADD GT ISZERO PUSH2 0xBA JUMPI PUSH1 0x0 DUP1 REVERT JUMPDEST DUP1 CALLDATALOAD SWAP1 PUSH1 0x20 ADD SWAP2 DUP5 PUSH1 0x1 DUP4 MUL DUP5 ADD GT PUSH5 0x100000000 DUP4 GT OR ISZERO PUSH2 0xDC JUMPI PUSH1 0x0 DUP1 REVERT JUMPDEST POP SWAP1 SWAP3 POP SWAP1 POP PUSH2 0x1DF JUMP JUMPDEST STOP JUMPDEST PUSH2 0xE7 PUSH2 0x2E4 JUMP JUMPDEST PUSH2 0xE7 PUSH2 0x2EF JUMP JUMPDEST PUSH2 0x11C PUSH1 0x4 DUP1 CALLDATASIZE SUB PUSH1 0x40 DUP2 LT ISZERO PUSH2 0x10F JUMPI PUSH1 0x0 DUP1 REVERT JUMPDEST POP DUP1 CALLDATALOAD SWAP1 PUSH1 0x20 ADD CALLDATALOAD PUSH2 0x3C5 JUMP JUMPDEST PUSH1 0x40 DUP1 MLOAD PUSH1 0x20 DUP1 DUP3 MSTORE DUP4 MLOAD DUP2 DUP4 ADD MSTORE DUP4 MLOAD SWAP2 SWAP3 DUP4 SWAP3 SWAP1 DUP4 ADD SWAP2 DUP6 ADD SWAP1 DUP1 DUP4 DUP4 PUSH1 0x0 JUMPDEST DUP4 DUP2 LT ISZERO PUSH2 0x156 JUMPI DUP2 DUP2 ADD MLOAD DUP4 DUP3 ADD MSTORE PUSH1 0x20 ADD PUSH2 0x13E JUMP JUMPDEST POP POP POP POP SWAP1 POP SWAP1 DUP2 ADD SWAP1 PUSH1 0x1F AND DUP1 ISZERO PUSH2 0x183 JUMPI DUP1 DUP3 SUB DUP1 MLOAD PUSH1 0x1 DUP4 PUSH1 0x20 SUB PUSH2 0x100 EXP SUB NOT AND DUP2 MSTORE PUSH1 0x20 ADD SWAP2 POP JUMPDEST POP SWAP3 POP POP POP PUSH1 0x40 MLOAD DUP1 SWAP2 SUB SWAP1 RETURN JUMPDEST PUSH2 0xE7 PUSH1 0x4 DUP1 CALLDATASIZE SUB PUSH1 0x20 DUP2 LT ISZERO PUSH2 0x1A7 JUMPI PUSH1 0x0 DUP1 REVERT JUMPDEST POP CALLDATALOAD PUSH2 0x3F8 JUMP JUMPDEST PUSH2 0x1CB PUSH1 0x4 DUP1 CALLDATASIZE SUB PUSH1 0x20 DUP2 LT ISZERO PUSH2 0x1C4 JUMPI PUSH1 0x0 DUP1 REVERT JUMPDEST POP CALLDATALOAD PUSH2 0x46B JUMP JUMPDEST PUSH1 0x40 DUP1 MLOAD SWAP2 ISZERO ISZERO DUP3 MSTORE MLOAD SWAP1 DUP2 SWAP1 SUB PUSH1 0x20 ADD SWAP1 RETURN JUMPDEST PUSH1 0x60 DUP3 DUP3 PUSH1 0x40 MLOAD PUSH1 0x24 ADD DUP1 DUP1 PUSH1 0x20 ADD DUP3 DUP2 SUB DUP3 MSTORE DUP5 DUP5 DUP3 DUP2 DUP2 MSTORE PUSH1 0x20 ADD SWAP3 POP DUP1 DUP3 DUP5 CALLDATACOPY PUSH1 0x0 DUP4 DUP3 ADD DUP2 SWAP1 MSTORE PUSH1 0x40 DUP1 MLOAD PUSH1 0x1F SWAP4 DUP5 ADD PUSH32 0xFFFFFFFFFFFFFFFFFFFFFFFFFFFFFFFFFFFFFFFFFFFFFFFFFFFFFFFFFFFFFFE0 SWAP1 DUP2 AND SWAP1 SWAP7 ADD DUP2 DUP2 SUB SWAP1 SWAP7 ADD DUP2 MSTORE SWAP5 DUP2 MSTORE PUSH1 0x20 DUP1 DUP7 ADD DUP1 MLOAD PUSH28 0xFFFFFFFFFFFFFFFFFFFFFFFFFFFFFFFFFFFFFFFFFFFFFFFFFFFFFFFF AND PUSH32 0x150571F00000000000000000000000000000000000000000000000000000000 OR SWAP1 MSTORE DUP2 MLOAD CALLDATASIZE SWAP5 DUP6 ADD DUP3 SWAP1 DIV DUP3 MUL DUP2 ADD DUP3 ADD SWAP1 SWAP3 MSTORE DUP4 DUP3 MSTORE SWAP5 SWAP10 POP PUSH2 0x2D9 SWAP9 POP DUP10 SWAP8 POP SWAP6 POP SWAP4 POP SWAP2 DUP3 SWAP2 POP DUP5 ADD DUP4 DUP3 DUP1 DUP3 DUP5 CALLDATACOPY PUSH1 0x0 SWAP3 ADD SWAP2 SWAP1 SWAP2 MSTORE POP SWAP3 SWAP4 SWAP3 POP POP PUSH4 0xFFFFFFFF PUSH2 0x474 AND SWAP1 POP JUMP JUMPDEST PUSH2 0x2DF JUMPI INVALID JUMPDEST POP POP POP JUMP JUMPDEST PUSH1 0x0 DUP1 SLOAD PUSH1 0x1 ADD SWAP1 SSTORE JUMP JUMPDEST PUSH1 0x4 CALLDATASIZE EQ DUP1 ISZERO PUSH2 0x3BD JUMPI POP PUSH1 0x40 MLOAD DUP1 DUP1 PUSH32 0x6E6F496E70757446756E6374696F6E2829000000000000000000000000000000 DUP2 MSTORE POP PUSH1 0x11 ADD SWAP1 POP PUSH1 0x40 MLOAD DUP1 SWAP2 SUB SWAP1 KECCAK256 PUSH28 0xFFFFFFFFFFFFFFFFFFFFFFFFFFFFFFFFFFFFFFFFFFFFFFFFFFFFFFFF NOT AND PUSH2 0x399 PUSH1 0x0 DUP1 CALLDATASIZE DUP1 DUP1 PUSH1 0x1F ADD PUSH1 0x20 DUP1 SWAP2 DIV MUL PUSH1 0x20 ADD PUSH1 0x40 MLOAD SWAP1 DUP2 ADD PUSH1 0x40 MSTORE DUP1 SWAP4 SWAP3 SWAP2 SWAP1 DUP2 DUP2 MSTORE PUSH1 0x20 ADD DUP4 DUP4 DUP1 DUP3 DUP5 CALLDATACOPY PUSH1 0x0 SWAP3 ADD SWAP2 SWAP1 SWAP2 MSTORE POP SWAP3 SWAP4 SWAP3 POP POP PUSH4 0xFFFFFFFF PUSH2 0x49B AND SWAP1 POP JUMP JUMPDEST PUSH32 0xFFFFFFFF00000000000000000000000000000000000000000000000000000000 AND EQ JUMPDEST PUSH2 0x3C3 JUMPI INVALID JUMPDEST JUMP JUMPDEST PUSH1 0x40 DUP1 MLOAD ADDRESS PUSH1 0x60 SHL PUSH1 0x20 DUP3 ADD MSTORE PUSH1 0x34 DUP2 ADD SWAP4 SWAP1 SWAP4 MSTORE PUSH1 0x54 DUP1 DUP5 ADD SWAP3 SWAP1 SWAP3 MSTORE DUP1 MLOAD DUP1 DUP5 SUB SWAP1 SWAP3 ADD DUP3 MSTORE PUSH1 0x74 SWAP1 SWAP3 ADD SWAP1 SWAP2 MSTORE SWAP1 JUMP JUMPDEST PUSH1 0x2 DUP2 MOD ISZERO PUSH2 0x468 JUMPI PUSH1 0x40 DUP1 MLOAD PUSH32 0x8C379A000000000000000000000000000000000000000000000000000000000 DUP2 MSTORE PUSH1 0x20 PUSH1 0x4 DUP3 ADD MSTORE PUSH1 0xF PUSH1 0x24 DUP3 ADD MSTORE PUSH32 0x5441524745545F4E4F545F4556454E0000000000000000000000000000000000 PUSH1 0x44 DUP3 ADD MSTORE SWAP1 MLOAD SWAP1 DUP2 SWAP1 SUB PUSH1 0x64 ADD SWAP1 REVERT JUMPDEST POP JUMP JUMPDEST PUSH1 0x1 SWAP1 DUP2 AND EQ SWAP1 JUMP JUMPDEST PUSH1 0x0 DUP2 MLOAD DUP4 MLOAD EQ DUP1 ISZERO PUSH2 0x494 JUMPI POP DUP2 DUP1 MLOAD SWAP1 PUSH1 0x20 ADD KECCAK256 DUP4 DUP1 MLOAD SWAP1 PUSH1 0x20 ADD KECCAK256 EQ JUMPDEST SWAP4 SWAP3 POP POP POP JUMP JUMPDEST PUSH1 0x0 DUP2 PUSH1 0x4 ADD DUP4 MLOAD LT ISZERO PUSH2 0x4FA JUMPI PUSH1 0x40 MLOAD PUSH32 0x8C379A000000000000000000000000000000000000000000000000000000000 DUP2 MSTORE PUSH1 0x4 ADD DUP1 DUP1 PUSH1 0x20 ADD DUP3 DUP2 SUB DUP3 MSTORE PUSH1 0x25 DUP2 MSTORE PUSH1 0x20 ADD DUP1 PUSH2 0x526 PUSH1 0x25 SWAP2 CODECOPY PUSH1 0x40 ADD SWAP2 POP POP PUSH1 0x40 MLOAD DUP1 SWAP2 SUB SWAP1 REVERT JUMPDEST POP ADD PUSH1 0x20 ADD MLOAD PUSH32 0xFFFFFFFF00000000000000000000000000000000000000000000000000000000 AND SWAP1 JUMP INVALID 0x47 MSTORE GASLIMIT COINBASE SLOAD GASLIMIT MSTORE 0x5f 0x4f MSTORE 0x5f GASLIMIT MLOAD SSTORE COINBASE 0x4c 0x5f SLOAD 0x4f 0x5f CALLVALUE 0x5f 0x4c GASLIMIT 0x4e 0x47 SLOAD 0x48 0x5f MSTORE GASLIMIT MLOAD SSTORE 0x49 MSTORE GASLIMIT DIFFICULTY LOG2 PUSH6 0x627A7A723058 KECCAK256 EXTCODEHASH LOG0 0x22 0xc3 SWAP13 0xbc PUSH29 0x5D59A4FA26B9DEAADCCFEA5A227177651BE6711F798A1412764736F6C PUSH4 0x4300050A STOP ORIGIN "
			}
		}
	},
	"sourceTreeHashHex": "0x64117230b076cfc766f9e1bb23dc59b32d77b9bf1275b670b08b71673857f03e",
	"compiler": {
		"name": "solc",
		"version": "soljson-v0.5.10+commit.5a6ea5b1.js",
		"settings": {
			"optimizer": {
				"enabled": true,
				"runs": 1000000,
				"details": {
					"yul": true,
					"deduplicate": true,
					"cse": true,
					"constantOptimizer": true
				}
			},
			"outputSelection": {
				"*": {
					"*": [
						"abi",
						"devdoc",
						"evm.bytecode.object",
						"evm.bytecode.sourceMap",
						"evm.deployedBytecode.object",
						"evm.deployedBytecode.sourceMap"
					]
				}
			},
			"evmVersion": "constantinople",
			"remappings": [
				"@0x/contracts-utils=/Users/fabioberger/Documents/projects/0x_project/0x-monorepo-one/contracts/asset-proxy/node_modules/@0x/contracts-utils"
			]
		}
	}
}