{
	"schemaVersion": "2.0.0",
	"contractName": "TestConstants",
	"compilerOutput": {
		"abi": [
			{
				"constant": true,
				"inputs": [],
				"name": "assertValidZrxAssetData",
				"outputs": [
					{
						"name": "",
						"type": "bool"
					}
				],
				"payable": false,
				"stateMutability": "pure",
				"type": "function"
			},
			{
				"constant": true,
				"inputs": [],
				"name": "MAINNET_ZRX_ASSET_DATA",
				"outputs": [
					{
						"name": "",
						"type": "bytes"
					}
				],
				"payable": false,
				"stateMutability": "view",
				"type": "function"
			}
		],
		"devdoc": {
			"methods": {}
		},
		"evm": {
			"bytecode": {
				"linkReferences": {},
				"object": "0x608060405234801561001057600080fd5b50610425806100206000396000f3fe608060405234801561001057600080fd5b50600436106100365760003560e01c80634e7411e21461003b578063a7e889e714610057575b600080fd5b6100436100d4565b604080519115158252519081900360200190f35b61005f610365565b6040805160208082528351818301528351919283929083019185019080838360005b83811015610099578181015183820152602001610081565b50505050905090810190601f1680156100c65780820380516001836020036101000a031916815260200191505b509250505060405180910390f35b604080517f4552433230546f6b656e2861646472657373290000000000000000000000000081528151908190036013018120736ff6c0ff1d68b964901f986d4c9fa3ac6834657060248084019190915283518084038201815260449093018452602083810180517bffffffffffffffffffffffffffffffffffffffffffffffffffffffff167fffffffff00000000000000000000000000000000000000000000000000000000909416939093179092528351606081019094528084526000936101ae929091906103cd90830139829063ffffffff61038116565b61021957604080517f08c379a000000000000000000000000000000000000000000000000000000000815260206004820152601c60248201527f494e56414c49445f4b4f56414e5f5a52585f41535345545f4441544100000000604482015290519081900360640190fd5b604080517f4552433230546f6b656e286164647265737329000000000000000000000000008152815190819003601301812073e41d2489571d322189246dafa5ebde1f4699f49860248084019190915283518084038201815260449093018452602083810180517bffffffffffffffffffffffffffffffffffffffffffffffffffffffff167fffffffff000000000000000000000000000000000000000000000000000000009094169390931790925283516060810190945280845291926102f19290916103a990830139829063ffffffff61038116565b61035c57604080517f08c379a000000000000000000000000000000000000000000000000000000000815260206004820152601e60248201527f494e56414c49445f4d41494e4e45545f5a52585f41535345545f444154410000604482015290519081900360640190fd5b60019250505090565b6040518060600160405280602481526020016103a96024913981565b6000815183511480156103a1575081805190602001208380519060200120145b939250505056fef47261b0000000000000000000000000e41d2489571d322189246dafa5ebde1f4699f498f47261b00000000000000000000000006ff6c0ff1d68b964901f986d4c9fa3ac68346570a265627a7a7230582089d88f407e695080246f7142b58da3d1863e51000a7f522cac480780d1ee2c0864736f6c634300050a0032",
				"opcodes": "PUSH1 0x80 PUSH1 0x40 MSTORE CALLVALUE DUP1 ISZERO PUSH2 0x10 JUMPI PUSH1 0x0 DUP1 REVERT JUMPDEST POP PUSH2 0x425 DUP1 PUSH2 0x20 PUSH1 0x0 CODECOPY PUSH1 0x0 RETURN INVALID PUSH1 0x80 PUSH1 0x40 MSTORE CALLVALUE DUP1 ISZERO PUSH2 0x10 JUMPI PUSH1 0x0 DUP1 REVERT JUMPDEST POP PUSH1 0x4 CALLDATASIZE LT PUSH2 0x36 JUMPI PUSH1 0x0 CALLDATALOAD PUSH1 0xE0 SHR DUP1 PUSH4 0x4E7411E2 EQ PUSH2 0x3B JUMPI DUP1 PUSH4 0xA7E889E7 EQ PUSH2 0x57 JUMPI JUMPDEST PUSH1 0x0 DUP1 REVERT JUMPDEST PUSH2 0x43 PUSH2 0xD4 JUMP JUMPDEST PUSH1 0x40 DUP1 MLOAD SWAP2 ISZERO ISZERO DUP3 MSTORE MLOAD SWAP1 DUP2 SWAP1 SUB PUSH1 0x20 ADD SWAP1 RETURN JUMPDEST PUSH2 0x5F PUSH2 0x365 JUMP JUMPDEST PUSH1 0x40 DUP1 MLOAD PUSH1 0x20 DUP1 DUP3 MSTORE DUP4 MLOAD DUP2 DUP4 ADD MSTORE DUP4 MLOAD SWAP2 SWAP3 DUP4 SWAP3 SWAP1 DUP4 ADD SWAP2 DUP6 ADD SWAP1 DUP1 DUP4 DUP4 PUSH1 0x0 JUMPDEST DUP4 DUP2 LT ISZERO PUSH2 0x99 JUMPI DUP2 DUP2 ADD MLOAD DUP4 DUP3 ADD MSTORE PUSH1 0x20 ADD PUSH2 0x81 JUMP JUMPDEST POP POP POP POP SWAP1 POP SWAP1 DUP2 ADD SWAP1 PUSH1 0x1F AND DUP1 ISZERO PUSH2 0xC6 JUMPI DUP1 DUP3 SUB DUP1 MLOAD PUSH1 0x1 DUP4 PUSH1 0x20 SUB PUSH2 0x100 EXP SUB NOT AND DUP2 MSTORE PUSH1 0x20 ADD SWAP2 POP JUMPDEST POP SWAP3 POP POP POP PUSH1 0x40 MLOAD DUP1 SWAP2 SUB SWAP1 RETURN JUMPDEST PUSH1 0x40 DUP1 MLOAD PUSH32 0x4552433230546F6B656E28616464726573732900000000000000000000000000 DUP2 MSTORE DUP2 MLOAD SWAP1 DUP2 SWAP1 SUB PUSH1 0x13 ADD DUP2 KECCAK256 PUSH20 0x6FF6C0FF1D68B964901F986D4C9FA3AC68346570 PUSH1 0x24 DUP1 DUP5 ADD SWAP2 SWAP1 SWAP2 MSTORE DUP4 MLOAD DUP1 DUP5 SUB DUP3 ADD DUP2 MSTORE PUSH1 0x44 SWAP1 SWAP4 ADD DUP5 MSTORE PUSH1 0x20 DUP4 DUP2 ADD DUP1 MLOAD PUSH28 0xFFFFFFFFFFFFFFFFFFFFFFFFFFFFFFFFFFFFFFFFFFFFFFFFFFFFFFFF AND PUSH32 0xFFFFFFFF00000000000000000000000000000000000000000000000000000000 SWAP1 SWAP5 AND SWAP4 SWAP1 SWAP4 OR SWAP1 SWAP3 MSTORE DUP4 MLOAD PUSH1 0x60 DUP2 ADD SWAP1 SWAP5 MSTORE DUP1 DUP5 MSTORE PUSH1 0x0 SWAP4 PUSH2 0x1AE SWAP3 SWAP1 SWAP2 SWAP1 PUSH2 0x3CD SWAP1 DUP4 ADD CODECOPY DUP3 SWAP1 PUSH4 0xFFFFFFFF PUSH2 0x381 AND JUMP JUMPDEST PUSH2 0x219 JUMPI PUSH1 0x40 DUP1 MLOAD PUSH32 0x8C379A000000000000000000000000000000000000000000000000000000000 DUP2 MSTORE PUSH1 0x20 PUSH1 0x4 DUP3 ADD MSTORE PUSH1 0x1C PUSH1 0x24 DUP3 ADD MSTORE PUSH32 0x494E56414C49445F4B4F56414E5F5A52585F41535345545F4441544100000000 PUSH1 0x44 DUP3 ADD MSTORE SWAP1 MLOAD SWAP1 DUP2 SWAP1 SUB PUSH1 0x64 ADD SWAP1 REVERT JUMPDEST PUSH1 0x40 DUP1 MLOAD PUSH32 0x4552433230546F6B656E28616464726573732900000000000000000000000000 DUP2 MSTORE DUP2 MLOAD SWAP1 DUP2 SWAP1 SUB PUSH1 0x13 ADD DUP2 KECCAK256 PUSH20 0xE41D2489571D322189246DAFA5EBDE1F4699F498 PUSH1 0x24 DUP1 DUP5 ADD SWAP2 SWAP1 SWAP2 MSTORE DUP4 MLOAD DUP1 DUP5 SUB DUP3 ADD DUP2 MSTORE PUSH1 0x44 SWAP1 SWAP4 ADD DUP5 MSTORE PUSH1 0x20 DUP4 DUP2 ADD DUP1 MLOAD PUSH28 0xFFFFFFFFFFFFFFFFFFFFFFFFFFFFFFFFFFFFFFFFFFFFFFFFFFFFFFFF AND PUSH32 0xFFFFFFFF00000000000000000000000000000000000000000000000000000000 SWAP1 SWAP5 AND SWAP4 SWAP1 SWAP4 OR SWAP1 SWAP3 MSTORE DUP4 MLOAD PUSH1 0x60 DUP2 ADD SWAP1 SWAP5 MSTORE DUP1 DUP5 MSTORE SWAP2 SWAP3 PUSH2 0x2F1 SWAP3 SWAP1 SWAP2 PUSH2 0x3A9 SWAP1 DUP4 ADD CODECOPY DUP3 SWAP1 PUSH4 0xFFFFFFFF PUSH2 0x381 AND JUMP JUMPDEST PUSH2 0x35C JUMPI PUSH1 0x40 DUP1 MLOAD PUSH32 0x8C379A000000000000000000000000000000000000000000000000000000000 DUP2 MSTORE PUSH1 0x20 PUSH1 0x4 DUP3 ADD MSTORE PUSH1 0x1E PUSH1 0x24 DUP3 ADD MSTORE PUSH32 0x494E56414C49445F4D41494E4E45545F5A52585F41535345545F444154410000 PUSH1 0x44 DUP3 ADD MSTORE SWAP1 MLOAD SWAP1 DUP2 SWAP1 SUB PUSH1 0x64 ADD SWAP1 REVERT JUMPDEST PUSH1 0x1 SWAP3 POP POP POP SWAP1 JUMP JUMPDEST PUSH1 0x40 MLOAD DUP1 PUSH1 0x60 ADD PUSH1 0x40 MSTORE DUP1 PUSH1 0x24 DUP2 MSTORE PUSH1 0x20 ADD PUSH2 0x3A9 PUSH1 0x24 SWAP2 CODECOPY DUP2 JUMP JUMPDEST PUSH1 0x0 DUP2 MLOAD DUP4 MLOAD EQ DUP1 ISZERO PUSH2 0x3A1 JUMPI POP DUP2 DUP1 MLOAD SWAP1 PUSH1 0x20 ADD KECCAK256 DUP4 DUP1 MLOAD SWAP1 PUSH1 0x20 ADD KECCAK256 EQ JUMPDEST SWAP4 SWAP3 POP POP POP JUMP INVALID DELEGATECALL PUSH19 0x61B0000000000000000000000000E41D248957 SAR ORIGIN 0x21 DUP10 0x24 PUSH14 0xAFA5EBDE1F4699F498F47261B000 STOP STOP STOP STOP STOP STOP STOP STOP STOP STOP STOP PUSH16 0xF6C0FF1D68B964901F986D4C9FA3AC68 CALLVALUE PUSH6 0x70A265627A7A PUSH19 0x30582089D88F407E695080246F7142B58DA3D1 DUP7 RETURNDATACOPY MLOAD STOP EXP PUSH32 0x522CAC480780D1EE2C0864736F6C634300050A00320000000000000000000000 "
			}
		}
	},
	"sourceTreeHashHex": "0x2c6ceba954fe1664ca02227dd280fe801216b3628904c0ef0d1db5f99921dbe2",
	"compiler": {
		"name": "solc",
		"version": "soljson-v0.5.10+commit.5a6ea5b1.js",
		"settings": {
			"optimizer": {
				"enabled": true,
				"runs": 1000000,
				"details": {
					"yul": true,
					"deduplicate": true,
					"cse": true,
					"constantOptimizer": true
				}
			},
			"outputSelection": {
				"*": {
					"*": [
						"abi",
						"devdoc",
						"evm.bytecode.object",
						"evm.bytecode.sourceMap",
						"evm.deployedBytecode.object",
						"evm.deployedBytecode.sourceMap"
					]
				}
			},
			"evmVersion": "constantinople",
			"remappings": []
		}
	}
}