{
	"schemaVersion": "2.0.0",
	"contractName": "TestLibAddressArray",
	"compilerOutput": {
		"abi": [
			{
				"constant": true,
				"inputs": [
					{
						"name": "addressArray",
						"type": "address[]"
					},
					{
						"name": "target",
						"type": "address"
					}
				],
				"name": "publicIndexOf",
				"outputs": [
					{
						"name": "success",
						"type": "bool"
					},
					{
						"name": "index",
						"type": "uint256"
					}
				],
				"payable": false,
				"stateMutability": "pure",
				"type": "function"
			},
			{
				"constant": true,
				"inputs": [
					{
						"name": "addressArray",
						"type": "address[]"
					},
					{
						"name": "target",
						"type": "address"
					}
				],
				"name": "publicContains",
				"outputs": [
					{
						"name": "success",
						"type": "bool"
					}
				],
				"payable": false,
				"stateMutability": "pure",
				"type": "function"
			},
			{
				"constant": true,
				"inputs": [
					{
						"name": "addressArray",
						"type": "address[]"
					},
					{
						"name": "addressToAppend",
						"type": "address"
					}
				],
				"name": "publicAppend",
				"outputs": [
					{
						"name": "",
						"type": "address[]"
					}
				],
				"payable": false,
				"stateMutability": "pure",
				"type": "function"
			},
			{
				"constant": true,
				"inputs": [
					{
						"name": "addressArray",
						"type": "address[]"
					},
					{
						"name": "freeMemOffset",
						"type": "int256"
					},
					{
						"name": "addressToAppend",
						"type": "address"
					}
				],
				"name": "testAppendRealloc",
				"outputs": [
					{
						"name": "result",
						"type": "address[]"
					},
					{
						"name": "oldArrayMemStart",
						"type": "uint256"
					},
					{
						"name": "newArrayMemStart",
						"type": "uint256"
					}
				],
				"payable": false,
				"stateMutability": "pure",
				"type": "function"
			}
		],
		"devdoc": {
			"methods": {
				"publicAppend(address[],address)": {
					"details": "Append a new address to an array of addresses.      The `addressArray` may need to be reallocated to make space      for the new address. Because of this we return the resulting      memory location of `addressArray`.",
					"params": {
						"addressArray": "Array of addresses.",
						"addressToAppend": "Address to append."
					},
					"return": "Array of addresses: [... addressArray, addressToAppend]"
				},
				"publicContains(address[],address)": {
					"details": "Checks if an address array contains the target address.",
					"params": {
						"addressArray": "Array of addresses.",
						"target": "Address to search for in array."
					},
					"return": "True if the addressArray contains the target."
				},
				"publicIndexOf(address[],address)": {
					"details": "Finds the index of an address within an array.",
					"params": {
						"addressArray": "Array of addresses.",
						"target": "Address to search for in array."
					},
					"return": "Existence and index of the target in the array."
				},
				"testAppendRealloc(address[],int256,address)": {
					"details": "Moves the free memory pointer by `freeMemOffset` bytes,      then performs the append.      This tests the behavior of the address array being reallocated if      the memory immediately after the old array is claimed.",
					"params": {
						"addressArray": "Array of addresses.",
						"addressToAppend": "Address to append.",
						"freeMemOffset": "Number of (signed) bytes to offset the free memory pointer (0x40)."
					},
					"return": "The new address array.The memory address of the old address array.The memory address of the new address array."
				}
			}
		},
		"evm": {
			"bytecode": {
				"linkReferences": {},
				"object": "0x608060405234801561001057600080fd5b50610716806100206000396000f3fe608060405234801561001057600080fd5b506004361061004c5760003560e01c80637316ed71146100515780637f92b49a146101275780638b5bcfa0146101f6578063f2a84a9514610301575b600080fd5b61010c6004803603604081101561006757600080fd5b81019060208101813564010000000081111561008257600080fd5b82018360208201111561009457600080fd5b803590602001918460208302840111640100000000831117156100b657600080fd5b9190808060200260200160405190810160405280939291908181526020018383602002808284376000920191909152509295505050903573ffffffffffffffffffffffffffffffffffffffff1691506104219050565b60408051921515835260208301919091528051918290030190f35b6101e26004803603604081101561013d57600080fd5b81019060208101813564010000000081111561015857600080fd5b82018360208201111561016a57600080fd5b8035906020019184602083028401116401000000008311171561018c57600080fd5b9190808060200260200160405190810160405280939291908181526020018383602002808284376000920191909152509295505050903573ffffffffffffffffffffffffffffffffffffffff16915061043f9050565b604080519115158252519081900360200190f35b6102b16004803603604081101561020c57600080fd5b81019060208101813564010000000081111561022757600080fd5b82018360208201111561023957600080fd5b8035906020019184602083028401116401000000008311171561025b57600080fd5b9190808060200260200160405190810160405280939291908181526020018383602002808284376000920191909152509295505050903573ffffffffffffffffffffffffffffffffffffffff1691506104589050565b60408051602080825283518183015283519192839290830191858101910280838360005b838110156102ed5781810151838201526020016102d5565b505050509050019250505060405180910390f35b6103bf6004803603606081101561031757600080fd5b81019060208101813564010000000081111561033257600080fd5b82018360208201111561034457600080fd5b8035906020019184602083028401116401000000008311171561036657600080fd5b919080806020026020016040519081016040528093929190818152602001838360200280828437600092019190915250929550508235935050506020013573ffffffffffffffffffffffffffffffffffffffff1661046a565b6040518080602001848152602001838152602001828103825285818151815260200191508051906020019060200280838360005b8381101561040b5781810151838201526020016103f3565b5050505090500194505050505060405180910390f35b600080610434848463ffffffff61049516565b909590945092505050565b6000610451838363ffffffff6104e016565b9392505050565b6060610451838363ffffffff61052116565b60408051830190526060836000610487828563ffffffff61052116565b925082905093509350939050565b6000806020845102602085018181018192505b808310156104d6578251808714156104ca576001955060208385030494508193505b506020830192506104a8565b5050509250929050565b60006020835102602084018181018192505b808310156105185782518086141561050c57600194508193505b506020830192506104f2565b50505092915050565b8151604051606091849060208082028084018201929101828510156105a757604080517f08c379a000000000000000000000000000000000000000000000000000000000815260206004820152601760248201527f494e56414c49445f465245455f4d454d4f52595f505452000000000000000000604482015290519081900360640190fd5b828511156105c1576105ba85858361061d565b8497508793505b600182019150602081019050808401925082945081885284604052868860018403815181106105ec57fe5b73ffffffffffffffffffffffffffffffffffffffff9092166020928302919091019091015250959695505050505050565b6020811015610647576001816020036101000a0380198351168185511680821786525050506106dc565b82821415610654576106dc565b8282111561068e5760208103905080820181840181515b8285101561068657845186526020958601959094019361066b565b9052506106dc565b60208103905080820181840183515b818612156106d757825182527fffffffffffffffffffffffffffffffffffffffffffffffffffffffffffffffe0928301929091019061069d565b855250505b50505056fea265627a7a723058204cfd67797278d01d7ebaf1f08b9381cd5519717c5aba5bc543713f7bdb3e191a64736f6c634300050a0032",
				"opcodes": "PUSH1 0x80 PUSH1 0x40 MSTORE CALLVALUE DUP1 ISZERO PUSH2 0x10 JUMPI PUSH1 0x0 DUP1 REVERT JUMPDEST POP PUSH2 0x716 DUP1 PUSH2 0x20 PUSH1 0x0 CODECOPY PUSH1 0x0 RETURN INVALID PUSH1 0x80 PUSH1 0x40 MSTORE CALLVALUE DUP1 ISZERO PUSH2 0x10 JUMPI PUSH1 0x0 DUP1 REVERT JUMPDEST POP PUSH1 0x4 CALLDATASIZE LT PUSH2 0x4C JUMPI PUSH1 0x0 CALLDATALOAD PUSH1 0xE0 SHR DUP1 PUSH4 0x7316ED71 EQ PUSH2 0x51 JUMPI DUP1 PUSH4 0x7F92B49A EQ PUSH2 0x127 JUMPI DUP1 PUSH4 0x8B5BCFA0 EQ PUSH2 0x1F6 JUMPI DUP1 PUSH4 0xF2A84A95 EQ PUSH2 0x301 JUMPI JUMPDEST PUSH1 0x0 DUP1 REVERT JUMPDEST PUSH2 0x10C PUSH1 0x4 DUP1 CALLDATASIZE SUB PUSH1 0x40 DUP2 LT ISZERO PUSH2 0x67 JUMPI PUSH1 0x0 DUP1 REVERT JUMPDEST DUP2 ADD SWAP1 PUSH1 0x20 DUP2 ADD DUP2 CALLDATALOAD PUSH5 0x100000000 DUP2 GT ISZERO PUSH2 0x82 JUMPI PUSH1 0x0 DUP1 REVERT JUMPDEST DUP3 ADD DUP4 PUSH1 0x20 DUP3 ADD GT ISZERO PUSH2 0x94 JUMPI PUSH1 0x0 DUP1 REVERT JUMPDEST DUP1 CALLDATALOAD SWAP1 PUSH1 0x20 ADD SWAP2 DUP5 PUSH1 0x20 DUP4 MUL DUP5 ADD GT PUSH5 0x100000000 DUP4 GT OR ISZERO PUSH2 0xB6 JUMPI PUSH1 0x0 DUP1 REVERT JUMPDEST SWAP2 SWAP1 DUP1 DUP1 PUSH1 0x20 MUL PUSH1 0x20 ADD PUSH1 0x40 MLOAD SWAP1 DUP2 ADD PUSH1 0x40 MSTORE DUP1 SWAP4 SWAP3 SWAP2 SWAP1 DUP2 DUP2 MSTORE PUSH1 0x20 ADD DUP4 DUP4 PUSH1 0x20 MUL DUP1 DUP3 DUP5 CALLDATACOPY PUSH1 0x0 SWAP3 ADD SWAP2 SWAP1 SWAP2 MSTORE POP SWAP3 SWAP6 POP POP POP SWAP1 CALLDATALOAD PUSH20 0xFFFFFFFFFFFFFFFFFFFFFFFFFFFFFFFFFFFFFFFF AND SWAP2 POP PUSH2 0x421 SWAP1 POP JUMP JUMPDEST PUSH1 0x40 DUP1 MLOAD SWAP3 ISZERO ISZERO DUP4 MSTORE PUSH1 0x20 DUP4 ADD SWAP2 SWAP1 SWAP2 MSTORE DUP1 MLOAD SWAP2 DUP3 SWAP1 SUB ADD SWAP1 RETURN JUMPDEST PUSH2 0x1E2 PUSH1 0x4 DUP1 CALLDATASIZE SUB PUSH1 0x40 DUP2 LT ISZERO PUSH2 0x13D JUMPI PUSH1 0x0 DUP1 REVERT JUMPDEST DUP2 ADD SWAP1 PUSH1 0x20 DUP2 ADD DUP2 CALLDATALOAD PUSH5 0x100000000 DUP2 GT ISZERO PUSH2 0x158 JUMPI PUSH1 0x0 DUP1 REVERT JUMPDEST DUP3 ADD DUP4 PUSH1 0x20 DUP3 ADD GT ISZERO PUSH2 0x16A JUMPI PUSH1 0x0 DUP1 REVERT JUMPDEST DUP1 CALLDATALOAD SWAP1 PUSH1 0x20 ADD SWAP2 DUP5 PUSH1 0x20 DUP4 MUL DUP5 ADD GT PUSH5 0x100000000 DUP4 GT OR ISZERO PUSH2 0x18C JUMPI PUSH1 0x0 DUP1 REVERT JUMPDEST SWAP2 SWAP1 DUP1 DUP1 PUSH1 0x20 MUL PUSH1 0x20 ADD PUSH1 0x40 MLOAD SWAP1 DUP2 ADD PUSH1 0x40 MSTORE DUP1 SWAP4 SWAP3 SWAP2 SWAP1 DUP2 DUP2 MSTORE PUSH1 0x20 ADD DUP4 DUP4 PUSH1 0x20 MUL DUP1 DUP3 DUP5 CALLDATACOPY PUSH1 0x0 SWAP3 ADD SWAP2 SWAP1 SWAP2 MSTORE POP SWAP3 SWAP6 POP POP POP SWAP1 CALLDATALOAD PUSH20 0xFFFFFFFFFFFFFFFFFFFFFFFFFFFFFFFFFFFFFFFF AND SWAP2 POP PUSH2 0x43F SWAP1 POP JUMP JUMPDEST PUSH1 0x40 DUP1 MLOAD SWAP2 ISZERO ISZERO DUP3 MSTORE MLOAD SWAP1 DUP2 SWAP1 SUB PUSH1 0x20 ADD SWAP1 RETURN JUMPDEST PUSH2 0x2B1 PUSH1 0x4 DUP1 CALLDATASIZE SUB PUSH1 0x40 DUP2 LT ISZERO PUSH2 0x20C JUMPI PUSH1 0x0 DUP1 REVERT JUMPDEST DUP2 ADD SWAP1 PUSH1 0x20 DUP2 ADD DUP2 CALLDATALOAD PUSH5 0x100000000 DUP2 GT ISZERO PUSH2 0x227 JUMPI PUSH1 0x0 DUP1 REVERT JUMPDEST DUP3 ADD DUP4 PUSH1 0x20 DUP3 ADD GT ISZERO PUSH2 0x239 JUMPI PUSH1 0x0 DUP1 REVERT JUMPDEST DUP1 CALLDATALOAD SWAP1 PUSH1 0x20 ADD SWAP2 DUP5 PUSH1 0x20 DUP4 MUL DUP5 ADD GT PUSH5 0x100000000 DUP4 GT OR ISZERO PUSH2 0x25B JUMPI PUSH1 0x0 DUP1 REVERT JUMPDEST SWAP2 SWAP1 DUP1 DUP1 PUSH1 0x20 MUL PUSH1 0x20 ADD PUSH1 0x40 MLOAD SWAP1 DUP2 ADD PUSH1 0x40 MSTORE DUP1 SWAP4 SWAP3 SWAP2 SWAP1 DUP2 DUP2 MSTORE PUSH1 0x20 ADD DUP4 DUP4 PUSH1 0x20 MUL DUP1 DUP3 DUP5 CALLDATACOPY PUSH1 0x0 SWAP3 ADD SWAP2 SWAP1 SWAP2 MSTORE POP SWAP3 SWAP6 POP POP POP SWAP1 CALLDATALOAD PUSH20 0xFFFFFFFFFFFFFFFFFFFFFFFFFFFFFFFFFFFFFFFF AND SWAP2 POP PUSH2 0x458 SWAP1 POP JUMP JUMPDEST PUSH1 0x40 DUP1 MLOAD PUSH1 0x20 DUP1 DUP3 MSTORE DUP4 MLOAD DUP2 DUP4 ADD MSTORE DUP4 MLOAD SWAP2 SWAP3 DUP4 SWAP3 SWAP1 DUP4 ADD SWAP2 DUP6 DUP2 ADD SWAP2 MUL DUP1 DUP4 DUP4 PUSH1 0x0 JUMPDEST DUP4 DUP2 LT ISZERO PUSH2 0x2ED JUMPI DUP2 DUP2 ADD MLOAD DUP4 DUP3 ADD MSTORE PUSH1 0x20 ADD PUSH2 0x2D5 JUMP JUMPDEST POP POP POP POP SWAP1 POP ADD SWAP3 POP POP POP PUSH1 0x40 MLOAD DUP1 SWAP2 SUB SWAP1 RETURN JUMPDEST PUSH2 0x3BF PUSH1 0x4 DUP1 CALLDATASIZE SUB PUSH1 0x60 DUP2 LT ISZERO PUSH2 0x317 JUMPI PUSH1 0x0 DUP1 REVERT JUMPDEST DUP2 ADD SWAP1 PUSH1 0x20 DUP2 ADD DUP2 CALLDATALOAD PUSH5 0x100000000 DUP2 GT ISZERO PUSH2 0x332 JUMPI PUSH1 0x0 DUP1 REVERT JUMPDEST DUP3 ADD DUP4 PUSH1 0x20 DUP3 ADD GT ISZERO PUSH2 0x344 JUMPI PUSH1 0x0 DUP1 REVERT JUMPDEST DUP1 CALLDATALOAD SWAP1 PUSH1 0x20 ADD SWAP2 DUP5 PUSH1 0x20 DUP4 MUL DUP5 ADD GT PUSH5 0x100000000 DUP4 GT OR ISZERO PUSH2 0x366 JUMPI PUSH1 0x0 DUP1 REVERT JUMPDEST SWAP2 SWAP1 DUP1 DUP1 PUSH1 0x20 MUL PUSH1 0x20 ADD PUSH1 0x40 MLOAD SWAP1 DUP2 ADD PUSH1 0x40 MSTORE DUP1 SWAP4 SWAP3 SWAP2 SWAP1 DUP2 DUP2 MSTORE PUSH1 0x20 ADD DUP4 DUP4 PUSH1 0x20 MUL DUP1 DUP3 DUP5 CALLDATACOPY PUSH1 0x0 SWAP3 ADD SWAP2 SWAP1 SWAP2 MSTORE POP SWAP3 SWAP6 POP POP DUP3 CALLDATALOAD SWAP4 POP POP POP PUSH1 0x20 ADD CALLDATALOAD PUSH20 0xFFFFFFFFFFFFFFFFFFFFFFFFFFFFFFFFFFFFFFFF AND PUSH2 0x46A JUMP JUMPDEST PUSH1 0x40 MLOAD DUP1 DUP1 PUSH1 0x20 ADD DUP5 DUP2 MSTORE PUSH1 0x20 ADD DUP4 DUP2 MSTORE PUSH1 0x20 ADD DUP3 DUP2 SUB DUP3 MSTORE DUP6 DUP2 DUP2 MLOAD DUP2 MSTORE PUSH1 0x20 ADD SWAP2 POP DUP1 MLOAD SWAP1 PUSH1 0x20 ADD SWAP1 PUSH1 0x20 MUL DUP1 DUP4 DUP4 PUSH1 0x0 JUMPDEST DUP4 DUP2 LT ISZERO PUSH2 0x40B JUMPI DUP2 DUP2 ADD MLOAD DUP4 DUP3 ADD MSTORE PUSH1 0x20 ADD PUSH2 0x3F3 JUMP JUMPDEST POP POP POP POP SWAP1 POP ADD SWAP5 POP POP POP POP POP PUSH1 0x40 MLOAD DUP1 SWAP2 SUB SWAP1 RETURN JUMPDEST PUSH1 0x0 DUP1 PUSH2 0x434 DUP5 DUP5 PUSH4 0xFFFFFFFF PUSH2 0x495 AND JUMP JUMPDEST SWAP1 SWAP6 SWAP1 SWAP5 POP SWAP3 POP POP POP JUMP JUMPDEST PUSH1 0x0 PUSH2 0x451 DUP4 DUP4 PUSH4 0xFFFFFFFF PUSH2 0x4E0 AND JUMP JUMPDEST SWAP4 SWAP3 POP POP POP JUMP JUMPDEST PUSH1 0x60 PUSH2 0x451 DUP4 DUP4 PUSH4 0xFFFFFFFF PUSH2 0x521 AND JUMP JUMPDEST PUSH1 0x40 DUP1 MLOAD DUP4 ADD SWAP1 MSTORE PUSH1 0x60 DUP4 PUSH1 0x0 PUSH2 0x487 DUP3 DUP6 PUSH4 0xFFFFFFFF PUSH2 0x521 AND JUMP JUMPDEST SWAP3 POP DUP3 SWAP1 POP SWAP4 POP SWAP4 POP SWAP4 SWAP1 POP JUMP JUMPDEST PUSH1 0x0 DUP1 PUSH1 0x20 DUP5 MLOAD MUL PUSH1 0x20 DUP6 ADD DUP2 DUP2 ADD DUP2 SWAP3 POP JUMPDEST DUP1 DUP4 LT ISZERO PUSH2 0x4D6 JUMPI DUP3 MLOAD DUP1 DUP8 EQ ISZERO PUSH2 0x4CA JUMPI PUSH1 0x1 SWAP6 POP PUSH1 0x20 DUP4 DUP6 SUB DIV SWAP5 POP DUP2 SWAP4 POP JUMPDEST POP PUSH1 0x20 DUP4 ADD SWAP3 POP PUSH2 0x4A8 JUMP JUMPDEST POP POP POP SWAP3 POP SWAP3 SWAP1 POP JUMP JUMPDEST PUSH1 0x0 PUSH1 0x20 DUP4 MLOAD MUL PUSH1 0x20 DUP5 ADD DUP2 DUP2 ADD DUP2 SWAP3 POP JUMPDEST DUP1 DUP4 LT ISZERO PUSH2 0x518 JUMPI DUP3 MLOAD DUP1 DUP7 EQ ISZERO PUSH2 0x50C JUMPI PUSH1 0x1 SWAP5 POP DUP2 SWAP4 POP JUMPDEST POP PUSH1 0x20 DUP4 ADD SWAP3 POP PUSH2 0x4F2 JUMP JUMPDEST POP POP POP SWAP3 SWAP2 POP POP JUMP JUMPDEST DUP2 MLOAD PUSH1 0x40 MLOAD PUSH1 0x60 SWAP2 DUP5 SWAP1 PUSH1 0x20 DUP1 DUP3 MUL DUP1 DUP5 ADD DUP3 ADD SWAP3 SWAP2 ADD DUP3 DUP6 LT ISZERO PUSH2 0x5A7 JUMPI PUSH1 0x40 DUP1 MLOAD PUSH32 0x8C379A000000000000000000000000000000000000000000000000000000000 DUP2 MSTORE PUSH1 0x20 PUSH1 0x4 DUP3 ADD MSTORE PUSH1 0x17 PUSH1 0x24 DUP3 ADD MSTORE PUSH32 0x494E56414C49445F465245455F4D454D4F52595F505452000000000000000000 PUSH1 0x44 DUP3 ADD MSTORE SWAP1 MLOAD SWAP1 DUP2 SWAP1 SUB PUSH1 0x64 ADD SWAP1 REVERT JUMPDEST DUP3 DUP6 GT ISZERO PUSH2 0x5C1 JUMPI PUSH2 0x5BA DUP6 DUP6 DUP4 PUSH2 0x61D JUMP JUMPDEST DUP5 SWAP8 POP DUP8 SWAP4 POP JUMPDEST PUSH1 0x1 DUP3 ADD SWAP2 POP PUSH1 0x20 DUP2 ADD SWAP1 POP DUP1 DUP5 ADD SWAP3 POP DUP3 SWAP5 POP DUP2 DUP9 MSTORE DUP5 PUSH1 0x40 MSTORE DUP7 DUP9 PUSH1 0x1 DUP5 SUB DUP2 MLOAD DUP2 LT PUSH2 0x5EC JUMPI INVALID JUMPDEST PUSH20 0xFFFFFFFFFFFFFFFFFFFFFFFFFFFFFFFFFFFFFFFF SWAP1 SWAP3 AND PUSH1 0x20 SWAP3 DUP4 MUL SWAP2 SWAP1 SWAP2 ADD SWAP1 SWAP2 ADD MSTORE POP SWAP6 SWAP7 SWAP6 POP POP POP POP POP POP JUMP JUMPDEST PUSH1 0x20 DUP2 LT ISZERO PUSH2 0x647 JUMPI PUSH1 0x1 DUP2 PUSH1 0x20 SUB PUSH2 0x100 EXP SUB DUP1 NOT DUP4 MLOAD AND DUP2 DUP6 MLOAD AND DUP1 DUP3 OR DUP7 MSTORE POP POP POP PUSH2 0x6DC JUMP JUMPDEST DUP3 DUP3 EQ ISZERO PUSH2 0x654 JUMPI PUSH2 0x6DC JUMP JUMPDEST DUP3 DUP3 GT ISZERO PUSH2 0x68E JUMPI PUSH1 0x20 DUP2 SUB SWAP1 POP DUP1 DUP3 ADD DUP2 DUP5 ADD DUP2 MLOAD JUMPDEST DUP3 DUP6 LT ISZERO PUSH2 0x686 JUMPI DUP5 MLOAD DUP7 MSTORE PUSH1 0x20 SWAP6 DUP7 ADD SWAP6 SWAP1 SWAP5 ADD SWAP4 PUSH2 0x66B JUMP JUMPDEST SWAP1 MSTORE POP PUSH2 0x6DC JUMP JUMPDEST PUSH1 0x20 DUP2 SUB SWAP1 POP DUP1 DUP3 ADD DUP2 DUP5 ADD DUP4 MLOAD JUMPDEST DUP2 DUP7 SLT ISZERO PUSH2 0x6D7 JUMPI DUP3 MLOAD DUP3 MSTORE PUSH32 0xFFFFFFFFFFFFFFFFFFFFFFFFFFFFFFFFFFFFFFFFFFFFFFFFFFFFFFFFFFFFFFE0 SWAP3 DUP4 ADD SWAP3 SWAP1 SWAP2 ADD SWAP1 PUSH2 0x69D JUMP JUMPDEST DUP6 MSTORE POP POP JUMPDEST POP POP POP JUMP INVALID LOG2 PUSH6 0x627A7A723058 KECCAK256 0x4c REVERT PUSH8 0x797278D01D7EBAF1 CREATE DUP12 SWAP4 DUP2 0xcd SSTORE NOT PUSH18 0x7C5ABA5BC543713F7BDB3E191A64736F6C63 NUMBER STOP SDIV EXP STOP ORIGIN "
			}
		}
	},
	"sourceTreeHashHex": "0xbf7f091ea422f1546e292408dce77239f3f8ecf5b97603a14b7e9fdb9aab218a",
	"compiler": {
		"name": "solc",
		"version": "soljson-v0.5.10+commit.5a6ea5b1.js",
		"settings": {
			"optimizer": {
				"enabled": true,
				"runs": 1000000,
				"details": {
					"yul": true,
					"deduplicate": true,
					"cse": true,
					"constantOptimizer": true
				}
			},
			"outputSelection": {
				"*": {
					"*": [
						"abi",
						"devdoc",
						"evm.bytecode.object",
						"evm.bytecode.sourceMap",
						"evm.deployedBytecode.object",
						"evm.deployedBytecode.sourceMap"
					]
				}
			},
			"evmVersion": "constantinople",
			"remappings": []
		}
	}
}