{
	"schemaVersion": "2.0.0",
	"contractName": "TestLibBytes",
	"compilerOutput": {
		"abi": [
			{
				"constant": true,
				"inputs": [
					{
						"name": "b",
						"type": "bytes"
					}
				],
				"name": "publicPopLastByte",
				"outputs": [
					{
						"name": "",
						"type": "bytes"
					},
					{
						"name": "result",
						"type": "bytes1"
					}
				],
				"payable": false,
				"stateMutability": "pure",
				"type": "function"
			},
			{
				"constant": true,
				"inputs": [
					{
						"name": "b",
						"type": "bytes"
					},
					{
						"name": "index",
						"type": "uint256"
					}
				],
				"name": "publicReadBytesWithLength",
				"outputs": [
					{
						"name": "result",
						"type": "bytes"
					}
				],
				"payable": false,
				"stateMutability": "pure",
				"type": "function"
			},
			{
				"constant": true,
				"inputs": [
					{
						"name": "dest",
						"type": "bytes"
					},
					{
						"name": "source",
						"type": "bytes"
					}
				],
				"name": "publicDeepCopyBytes",
				"outputs": [
					{
						"name": "",
						"type": "bytes"
					}
				],
				"payable": false,
				"stateMutability": "pure",
				"type": "function"
			},
			{
				"constant": true,
				"inputs": [
					{
						"name": "b",
						"type": "bytes"
					},
					{
						"name": "index",
						"type": "uint256"
					},
					{
						"name": "input",
						"type": "address"
					}
				],
				"name": "publicWriteAddress",
				"outputs": [
					{
						"name": "",
						"type": "bytes"
					}
				],
				"payable": false,
				"stateMutability": "pure",
				"type": "function"
			},
			{
				"constant": true,
				"inputs": [
					{
						"name": "b",
						"type": "bytes"
					},
					{
						"name": "index",
						"type": "uint256"
					},
					{
						"name": "input",
						"type": "bytes"
					}
				],
				"name": "publicWriteBytesWithLength",
				"outputs": [
					{
						"name": "",
						"type": "bytes"
					}
				],
				"payable": false,
				"stateMutability": "pure",
				"type": "function"
			},
			{
				"constant": true,
				"inputs": [
					{
						"name": "mem",
						"type": "bytes"
					},
					{
						"name": "dest",
						"type": "uint256"
					},
					{
						"name": "source",
						"type": "uint256"
					},
					{
						"name": "length",
						"type": "uint256"
					}
				],
				"name": "testMemcpy",
				"outputs": [
					{
						"name": "",
						"type": "bytes"
					}
				],
				"payable": false,
				"stateMutability": "pure",
				"type": "function"
			},
			{
				"constant": true,
				"inputs": [
					{
						"name": "b",
						"type": "bytes"
					},
					{
						"name": "index",
						"type": "uint256"
					}
				],
				"name": "publicReadAddress",
				"outputs": [
					{
						"name": "result",
						"type": "address"
					}
				],
				"payable": false,
				"stateMutability": "pure",
				"type": "function"
			},
			{
				"constant": true,
				"inputs": [
					{
						"name": "b",
						"type": "bytes"
					},
					{
						"name": "index",
						"type": "uint256"
					},
					{
						"name": "input",
						"type": "bytes32"
					}
				],
				"name": "publicWriteBytes32",
				"outputs": [
					{
						"name": "",
						"type": "bytes"
					}
				],
				"payable": false,
				"stateMutability": "pure",
				"type": "function"
			},
			{
				"constant": true,
				"inputs": [
					{
						"name": "b",
						"type": "bytes"
					},
					{
						"name": "from",
						"type": "uint256"
					},
					{
						"name": "to",
						"type": "uint256"
					}
				],
				"name": "publicSlice",
				"outputs": [
					{
						"name": "result",
						"type": "bytes"
					},
					{
						"name": "original",
						"type": "bytes"
					}
				],
				"payable": false,
				"stateMutability": "pure",
				"type": "function"
			},
			{
				"constant": true,
				"inputs": [
					{
						"name": "b",
						"type": "bytes"
					}
				],
				"name": "publicPopLast20Bytes",
				"outputs": [
					{
						"name": "",
						"type": "bytes"
					},
					{
						"name": "result",
						"type": "address"
					}
				],
				"payable": false,
				"stateMutability": "pure",
				"type": "function"
			},
			{
				"constant": true,
				"inputs": [
					{
						"name": "lhs",
						"type": "bytes"
					},
					{
						"name": "rhs",
						"type": "bytes"
					}
				],
				"name": "publicEqualsPop1",
				"outputs": [
					{
						"name": "equal",
						"type": "bool"
					}
				],
				"payable": false,
				"stateMutability": "pure",
				"type": "function"
			},
			{
				"constant": true,
				"inputs": [
					{
						"name": "b",
						"type": "bytes"
					},
					{
						"name": "index",
						"type": "uint256"
					},
					{
						"name": "input",
						"type": "uint256"
					}
				],
				"name": "publicWriteUint256",
				"outputs": [
					{
						"name": "",
						"type": "bytes"
					}
				],
				"payable": false,
				"stateMutability": "pure",
				"type": "function"
			},
			{
				"constant": true,
				"inputs": [
					{
						"name": "b",
						"type": "bytes"
					},
					{
						"name": "index",
						"type": "uint256"
					}
				],
				"name": "publicReadBytes32",
				"outputs": [
					{
						"name": "result",
						"type": "bytes32"
					}
				],
				"payable": false,
				"stateMutability": "pure",
				"type": "function"
			},
			{
				"constant": true,
				"inputs": [
					{
						"name": "b",
						"type": "bytes"
					},
					{
						"name": "from",
						"type": "uint256"
					},
					{
						"name": "to",
						"type": "uint256"
					}
				],
				"name": "publicSliceDestructive",
				"outputs": [
					{
						"name": "result",
						"type": "bytes"
					},
					{
						"name": "original",
						"type": "bytes"
					}
				],
				"payable": false,
				"stateMutability": "pure",
				"type": "function"
			},
			{
				"constant": true,
				"inputs": [
					{
						"name": "b",
						"type": "bytes"
					},
					{
						"name": "index",
						"type": "uint256"
					}
				],
				"name": "publicReadBytes4",
				"outputs": [
					{
						"name": "result",
						"type": "bytes4"
					}
				],
				"payable": false,
				"stateMutability": "pure",
				"type": "function"
			},
			{
				"constant": true,
				"inputs": [
					{
						"name": "b",
						"type": "bytes"
					},
					{
						"name": "index",
						"type": "uint256"
					}
				],
				"name": "publicReadUint256",
				"outputs": [
					{
						"name": "result",
						"type": "uint256"
					}
				],
				"payable": false,
				"stateMutability": "pure",
				"type": "function"
			},
			{
				"constant": true,
				"inputs": [
					{
						"name": "lhs",
						"type": "bytes"
					},
					{
						"name": "rhs",
						"type": "bytes"
					}
				],
				"name": "publicEquals",
				"outputs": [
					{
						"name": "equal",
						"type": "bool"
					}
				],
				"payable": false,
				"stateMutability": "pure",
				"type": "function"
			}
		],
		"devdoc": {
			"methods": {
				"publicDeepCopyBytes(bytes,bytes)": {
					"details": "Performs a deep copy of a byte array onto another byte array of greater than or equal length.",
					"params": {
						"dest": "Byte array that will be overwritten with source bytes.",
						"source": "Byte array to copy onto dest bytes."
					}
				},
				"publicEquals(bytes,bytes)": {
					"details": "Tests equality of two byte arrays.",
					"params": {
						"lhs": "First byte array to compare.",
						"rhs": "Second byte array to compare."
					},
					"return": "True if arrays are the same. False otherwise."
				},
				"publicPopLast20Bytes(bytes)": {
					"details": "Pops the last 20 bytes off of a byte array by modifying its length.",
					"params": {
						"b": "Byte array that will be modified."
					},
					"return": "The 20 byte address that was popped off."
				},
				"publicPopLastByte(bytes)": {
					"details": "Pops the last byte off of a byte array by modifying its length.",
					"params": {
						"b": "Byte array that will be modified."
					},
					"return": "The byte that was popped off."
				},
				"publicReadAddress(bytes,uint256)": {
					"details": "Reads an address from a position in a byte array.",
					"params": {
						"b": "Byte array containing an address.",
						"index": "Index in byte array of address."
					},
					"return": "address from byte array."
				},
				"publicReadBytes32(bytes,uint256)": {
					"details": "Reads a bytes32 value from a position in a byte array.",
					"params": {
						"b": "Byte array containing a bytes32 value.",
						"index": "Index in byte array of bytes32 value."
					},
					"return": "bytes32 value from byte array."
				},
				"publicReadBytes4(bytes,uint256)": {
					"details": "Reads an unpadded bytes4 value from a position in a byte array.",
					"params": {
						"b": "Byte array containing a bytes4 value.",
						"index": "Index in byte array of bytes4 value."
					},
					"return": "bytes4 value from byte array."
				},
				"publicReadBytesWithLength(bytes,uint256)": {
					"details": "Reads nested bytes from a specific position.",
					"params": {
						"b": "Byte array containing nested bytes.",
						"index": "Index of nested bytes."
					},
					"return": "result Nested bytes."
				},
				"publicReadUint256(bytes,uint256)": {
					"details": "Reads a uint256 value from a position in a byte array.",
					"params": {
						"b": "Byte array containing a uint256 value.",
						"index": "Index in byte array of uint256 value."
					},
					"return": "uint256 value from byte array."
				},
				"publicSlice(bytes,uint256,uint256)": {
					"details": "Returns a slices from a byte array.",
					"params": {
						"b": "The byte array to take a slice from.",
						"from": "The starting index for the slice (inclusive).",
						"to": "The final index for the slice (exclusive)."
					},
					"return": "result The slice containing bytes at indices [from, to)"
				},
				"publicSliceDestructive(bytes,uint256,uint256)": {
					"details": "Returns a slice from a byte array without preserving the input.When `from == 0`, the original array will match the slice. In other cases its state will be corrupted.",
					"params": {
						"b": "The byte array to take a slice from. Will be destroyed in the process.",
						"from": "The starting index for the slice (inclusive).",
						"to": "The final index for the slice (exclusive)."
					},
					"return": "result The slice containing bytes at indices [from, to)"
				},
				"publicWriteAddress(bytes,uint256,address)": {
					"details": "Writes an address into a specific position in a byte array.",
					"params": {
						"b": "Byte array to insert address into.",
						"index": "Index in byte array of address.",
						"input": "Address to put into byte array."
					}
				},
				"publicWriteBytes32(bytes,uint256,bytes32)": {
					"details": "Writes a bytes32 into a specific position in a byte array.",
					"params": {
						"b": "Byte array to insert <input> into.",
						"index": "Index in byte array of <input>.",
						"input": "bytes32 to put into byte array."
					}
				},
				"publicWriteBytesWithLength(bytes,uint256,bytes)": {
					"details": "Inserts bytes at a specific position in a byte array.",
					"params": {
						"b": "Byte array to insert <input> into.",
						"index": "Index in byte array of <input>.",
						"input": "bytes to insert."
					},
					"return": "b Updated input byte array"
				},
				"publicWriteUint256(bytes,uint256,uint256)": {
					"details": "Writes a uint256 into a specific position in a byte array.",
					"params": {
						"b": "Byte array to insert <input> into.",
						"index": "Index in byte array of <input>.",
						"input": "uint256 to put into byte array."
					}
				},
				"testMemcpy(bytes,uint256,uint256,uint256)": {
					"details": "Copies a block of memory from one location to another.",
					"params": {
						"dest": "Destination offset into <mem>.",
						"length": "Length of bytes to copy from <source> to <dest>",
						"mem": "Memory contents we want to apply memCopy to",
						"source": "Source offset into <mem>."
					},
					"return": "mem Memory contents after calling memCopy."
				}
			}
		},
		"evm": {
			"bytecode": {
				"linkReferences": {},
				"object": "0x608060405234801561001057600080fd5b50611cb4806100206000396000f3fe608060405234801561001057600080fd5b506004361061011b5760003560e01c80639d19cb5e116100b2578063be766f1b11610081578063cc12cb2811610066578063cc12cb2814610ee4578063e3a85ce414610fc1578063f06f300d146110695761011b565b8063be766f1b14610d7f578063c4b0f38b14610e395761011b565b80639d19cb5e146108f6578063a4b1965414610a7f578063b1840e8d14610b93578063b79650a414610cd45761011b565b80634b368768116100ee5780634b3687681461059457806378bbae9b146106c957806382e2fa241461077a57806384f877581461084b5761011b565b80630301d5e114610120578063076eec081461028957806318c535d9146103a65780633f2a25ec146104d3575b600080fd5b6101c66004803603602081101561013657600080fd5b81019060208101813564010000000081111561015157600080fd5b82018360208201111561016357600080fd5b8035906020019184600183028401116401000000008311171561018557600080fd5b91908080601f016020809104026020016040519081016040528093929190818152602001838380828437600092019190915250929550611196945050505050565b6040518080602001837effffffffffffffffffffffffffffffffffffffffffffffffffffffffffffff19167effffffffffffffffffffffffffffffffffffffffffffffffffffffffffffff19168152602001828103825284818151815260200191508051906020019080838360005b8381101561024d578181015183820152602001610235565b50505050905090810190601f16801561027a5780820380516001836020036101000a031916815260200191505b50935050505060405180910390f35b6103316004803603604081101561029f57600080fd5b8101906020810181356401000000008111156102ba57600080fd5b8201836020820111156102cc57600080fd5b803590602001918460018302840111640100000000831117156102ee57600080fd5b91908080601f01602080910402602001604051908101604052809392919081815260200183838082843760009201919091525092955050913592506111aa915050565b6040805160208082528351818301528351919283929083019185019080838360005b8381101561036b578181015183820152602001610353565b50505050905090810190601f1680156103985780820380516001836020036101000a031916815260200191505b509250505060405180910390f35b610331600480360360408110156103bc57600080fd5b8101906020810181356401000000008111156103d757600080fd5b8201836020820111156103e957600080fd5b8035906020019184600183028401116401000000008311171561040b57600080fd5b91908080601f016020809104026020016040519081016040528093929190818152602001838380828437600092019190915250929594936020810193503591505064010000000081111561045e57600080fd5b82018360208201111561047057600080fd5b8035906020019184600183028401116401000000008311171561049257600080fd5b91908080601f0160208091040260200160405190810160405280939291908181526020018383808284376000920191909152509295506111c3945050505050565b610331600480360360608110156104e957600080fd5b81019060208101813564010000000081111561050457600080fd5b82018360208201111561051657600080fd5b8035906020019184600183028401116401000000008311171561053857600080fd5b91908080601f016020809104026020016040519081016040528093929190818152602001838380828437600092019190915250929550508235935050506020013573ffffffffffffffffffffffffffffffffffffffff166111d6565b610331600480360360608110156105aa57600080fd5b8101906020810181356401000000008111156105c557600080fd5b8201836020820111156105d757600080fd5b803590602001918460018302840111640100000000831117156105f957600080fd5b91908080601f0160208091040260200160405190810160405280939291908181526020018383808284376000920191909152509295843595909490935060408101925060200135905064010000000081111561065457600080fd5b82018360208201111561066657600080fd5b8035906020019184600183028401116401000000008311171561068857600080fd5b91908080601f0160208091040260200160405190810160405280939291908181526020018383808284376000920191909152509295506111f1945050505050565b610331600480360360808110156106df57600080fd5b8101906020810181356401000000008111156106fa57600080fd5b82018360208201111561070c57600080fd5b8035906020019184600183028401116401000000008311171561072e57600080fd5b91908080601f0160208091040260200160405190810160405280939291908181526020018383808284376000920191909152509295505082359350505060208101359060400135611204565b6108226004803603604081101561079057600080fd5b8101906020810181356401000000008111156107ab57600080fd5b8201836020820111156107bd57600080fd5b803590602001918460018302840111640100000000831117156107df57600080fd5b91908080601f016020809104026020016040519081016040528093929190818152602001838380828437600092019190915250929550509135925061124c915050565b6040805173ffffffffffffffffffffffffffffffffffffffff9092168252519081900360200190f35b6103316004803603606081101561086157600080fd5b81019060208101813564010000000081111561087c57600080fd5b82018360208201111561088e57600080fd5b803590602001918460018302840111640100000000831117156108b057600080fd5b91908080601f016020809104026020016040519081016040528093929190818152602001838380828437600092019190915250929550508235935050506020013561125e565b6109a16004803603606081101561090c57600080fd5b81019060208101813564010000000081111561092757600080fd5b82018360208201111561093957600080fd5b8035906020019184600183028401116401000000008311171561095b57600080fd5b91908080601f0160208091040260200160405190810160405280939291908181526020018383808284376000920191909152509295505082359350505060200135611271565b604051808060200180602001838103835285818151815260200191508051906020019080838360005b838110156109e25781810151838201526020016109ca565b50505050905090810190601f168015610a0f5780820380516001836020036101000a031916815260200191505b50838103825284518152845160209182019186019080838360005b83811015610a42578181015183820152602001610a2a565b50505050905090810190601f168015610a6f5780820380516001836020036101000a031916815260200191505b5094505050505060405180910390f35b610b2560048036036020811015610a9557600080fd5b810190602081018135640100000000811115610ab057600080fd5b820183602082011115610ac257600080fd5b80359060200191846001830284011164010000000083111715610ae457600080fd5b91908080601f016020809104026020016040519081016040528093929190818152602001838380828437600092019190915250929550611287945050505050565b60405180806020018373ffffffffffffffffffffffffffffffffffffffff1673ffffffffffffffffffffffffffffffffffffffff168152602001828103825284818151815260200191508051906020019080838360008381101561024d578181015183820152602001610235565b610cc060048036036040811015610ba957600080fd5b810190602081018135640100000000811115610bc457600080fd5b820183602082011115610bd657600080fd5b80359060200191846001830284011164010000000083111715610bf857600080fd5b91908080601f0160208091040260200160405190810160405280939291908181526020018383808284376000920191909152509295949360208101935035915050640100000000811115610c4b57600080fd5b820183602082011115610c5d57600080fd5b80359060200191846001830284011164010000000083111715610c7f57600080fd5b91908080601f016020809104026020016040519081016040528093929190818152602001838380828437600092019190915250929550611294945050505050565b604080519115158252519081900360200190f35b61033160048036036060811015610cea57600080fd5b810190602081018135640100000000811115610d0557600080fd5b820183602082011115610d1757600080fd5b80359060200191846001830284011164010000000083111715610d3957600080fd5b91908080601f01602080910402602001604051908101604052809392919081815260200183838082843760009201919091525092955050823593505050602001356112ba565b610e2760048036036040811015610d9557600080fd5b810190602081018135640100000000811115610db057600080fd5b820183602082011115610dc257600080fd5b80359060200191846001830284011164010000000083111715610de457600080fd5b91908080601f01602080910402602001604051908101604052809392919081815260200183838082843760009201919091525092955050913592506112cd915050565b60408051918252519081900360200190f35b6109a160048036036060811015610e4f57600080fd5b810190602081018135640100000000811115610e6a57600080fd5b820183602082011115610e7c57600080fd5b80359060200191846001830284011164010000000083111715610e9e57600080fd5b91908080601f01602080910402602001604051908101604052809392919081815260200183838082843760009201919091525092955050823593505050602001356112df565b610f8c60048036036040811015610efa57600080fd5b810190602081018135640100000000811115610f1557600080fd5b820183602082011115610f2757600080fd5b80359060200191846001830284011164010000000083111715610f4957600080fd5b91908080601f01602080910402602001604051908101604052809392919081815260200183838082843760009201919091525092955050913592506112ed915050565b604080517fffffffff000000000000000000000000000000000000000000000000000000009092168252519081900360200190f35b610e2760048036036040811015610fd757600080fd5b810190602081018135640100000000811115610ff257600080fd5b82018360208201111561100457600080fd5b8035906020019184600183028401116401000000008311171561102657600080fd5b91908080601f01602080910402602001604051908101604052809392919081815260200183838082843760009201919091525092955050913592506112ff915050565b610cc06004803603604081101561107f57600080fd5b81019060208101813564010000000081111561109a57600080fd5b8201836020820111156110ac57600080fd5b803590602001918460018302840111640100000000831117156110ce57600080fd5b91908080601f016020809104026020016040519081016040528093929190818152602001838380828437600092019190915250929594936020810193503591505064010000000081111561112157600080fd5b82018360208201111561113357600080fd5b8035906020019184600183028401116401000000008311171561115557600080fd5b91908080601f016020809104026020016040519081016040528093929190818152602001838380828437600092019190915250929550611311945050505050565b606060006111a383611323565b9293915050565b60606111bc838363ffffffff6113e016565b9392505050565b60606111cf8383611458565b5090919050565b60606111e984848463ffffffff6114d416565b509192915050565b60606111e984848463ffffffff61157c16565b60608451828401111561121657600080fd5b8451828501111561122657600080fd5b6000611231866115fd565b905061124285820185830185611603565b5093949350505050565b60006111bc838363ffffffff6116c616565b60606111e984848463ffffffff61174416565b60608061127f8585856117a9565b959350505050565b606060006111a3836118d8565b600061129f83611323565b506112a982611323565b506111bc838363ffffffff61196e16565b60606111e984848463ffffffff61199416565b60006111bc838363ffffffff61199f16565b60608061127f858585611a07565b60006111bc838363ffffffff611af416565b60006111bc838363ffffffff611b7e16565b60006111bc838363ffffffff61196e16565b60008082511161137e576040517f08c379a0000000000000000000000000000000000000000000000000000000008152600401808060200182810382526021815260200180611be46021913960400191505060405180910390fd5b8160018351038151811061138e57fe5b016020015182517fffffffffffffffffffffffffffffffffffffffffffffffffffffffffffffffff01909252507fff000000000000000000000000000000000000000000000000000000000000001690565b606060006113ee8484611b7e565b905060208301925080830184511015611452576040517f08c379a0000000000000000000000000000000000000000000000000000000008152600401808060200182810382526030815260200180611b8e6030913960400191505060405180910390fd5b50500190565b805182518111156114b4576040517f08c379a0000000000000000000000000000000000000000000000000000000008152600401808060200182810382526030815260200180611c056030913960400191505060405180910390fd5b6114cf6114c0846115fd565b6114c9846115fd565b83611603565b505050565b8160140183511015611531576040517f08c379a0000000000000000000000000000000000000000000000000000000008152600401808060200182810382526026815260200180611c356026913960400191505060405180910390fd5b6014919092010180517fffffffffffffffffffffffff00000000000000000000000000000000000000001673ffffffffffffffffffffffffffffffffffffffff909216919091189052565b80518260200101835110156115dc576040517f08c379a0000000000000000000000000000000000000000000000000000000008152600401808060200182810382526030815260200180611b8e6030913960400191505060405180910390fd5b6114cf826115e9856115fd565b016115f383611b8a565b8351602001611603565b60200190565b602081101561162d576001816020036101000a0380198351168185511680821786525050506114cf565b8282141561163a576114cf565b828211156116745760208103905080820181840181515b8285101561166c578451865260209586019590940193611651565b9052506114cf565b60208103905080820181840183515b818612156116bd57825182527fffffffffffffffffffffffffffffffffffffffffffffffffffffffffffffffe09283019290910190611683565b85525050505050565b60008160140183511015611725576040517f08c379a0000000000000000000000000000000000000000000000000000000008152600401808060200182810382526026815260200180611c356026913960400191505060405180910390fd5b50016014015173ffffffffffffffffffffffffffffffffffffffff1690565b81602001835110156117a1576040517f08c379a0000000000000000000000000000000000000000000000000000000008152600401808060200182810382526026815260200180611bbe6026913960400191505060405180910390fd5b910160200152565b60608183111561181a57604080517f08c379a000000000000000000000000000000000000000000000000000000000815260206004820152601a60248201527f46524f4d5f4c4553535f5448414e5f544f5f5245515549524544000000000000604482015290519081900360640190fd5b835182111561188a57604080517f08c379a000000000000000000000000000000000000000000000000000000000815260206004820152601c60248201527f544f5f4c4553535f5448414e5f4c454e4754485f524551554952454400000000604482015290519081900360640190fd5b8282036040519080825280601f01601f1916602001820160405280156118b7576020820181803883390190505b5090506111bc6118c6826115fd565b846118d0876115fd565b018351611603565b6000601482511015611935576040517f08c379a0000000000000000000000000000000000000000000000000000000008152600401808060200182810382526026815260200180611c356026913960400191505060405180910390fd5b6119438260148451036116c6565b82517fffffffffffffffffffffffffffffffffffffffffffffffffffffffffffffffec019092525090565b6000815183511480156111bc575081805190602001208380519060200120149392505050565b6114cf838383611744565b600081602001835110156119fe576040517f08c379a0000000000000000000000000000000000000000000000000000000008152600401808060200182810382526026815260200180611bbe6026913960400191505060405180910390fd5b50016020015190565b606081831115611a7857604080517f08c379a000000000000000000000000000000000000000000000000000000000815260206004820152601a60248201527f46524f4d5f4c4553535f5448414e5f544f5f5245515549524544000000000000604482015290519081900360640190fd5b8351821115611ae857604080517f08c379a000000000000000000000000000000000000000000000000000000000815260206004820152601c60248201527f544f5f4c4553535f5448414e5f4c454e4754485f524551554952454400000000604482015290519081900360640190fd5b50819003910190815290565b60008160040183511015611b53576040517f08c379a0000000000000000000000000000000000000000000000000000000008152600401808060200182810382526025815260200180611c5b6025913960400191505060405180910390fd5b5001602001517fffffffff000000000000000000000000000000000000000000000000000000001690565b60006111bc838361199f565b9056fe475245415445525f4f525f455155414c5f544f5f4e45535445445f42595445535f4c454e4754485f5245515549524544475245415445525f4f525f455155414c5f544f5f33325f4c454e4754485f5245515549524544475245415445525f5448414e5f5a45524f5f4c454e4754485f5245515549524544475245415445525f4f525f455155414c5f544f5f534f555243455f42595445535f4c454e4754485f5245515549524544475245415445525f4f525f455155414c5f544f5f32305f4c454e4754485f5245515549524544475245415445525f4f525f455155414c5f544f5f345f4c454e4754485f5245515549524544a265627a7a72305820cfdac711234495c63167a7f577f695a087e660dd4aac5e6d78baa3ecd072e71e64736f6c634300050a0032",
				"opcodes": "PUSH1 0x80 PUSH1 0x40 MSTORE CALLVALUE DUP1 ISZERO PUSH2 0x10 JUMPI PUSH1 0x0 DUP1 REVERT JUMPDEST POP PUSH2 0x1CB4 DUP1 PUSH2 0x20 PUSH1 0x0 CODECOPY PUSH1 0x0 RETURN INVALID PUSH1 0x80 PUSH1 0x40 MSTORE CALLVALUE DUP1 ISZERO PUSH2 0x10 JUMPI PUSH1 0x0 DUP1 REVERT JUMPDEST POP PUSH1 0x4 CALLDATASIZE LT PUSH2 0x11B JUMPI PUSH1 0x0 CALLDATALOAD PUSH1 0xE0 SHR DUP1 PUSH4 0x9D19CB5E GT PUSH2 0xB2 JUMPI DUP1 PUSH4 0xBE766F1B GT PUSH2 0x81 JUMPI DUP1 PUSH4 0xCC12CB28 GT PUSH2 0x66 JUMPI DUP1 PUSH4 0xCC12CB28 EQ PUSH2 0xEE4 JUMPI DUP1 PUSH4 0xE3A85CE4 EQ PUSH2 0xFC1 JUMPI DUP1 PUSH4 0xF06F300D EQ PUSH2 0x1069 JUMPI PUSH2 0x11B JUMP JUMPDEST DUP1 PUSH4 0xBE766F1B EQ PUSH2 0xD7F JUMPI DUP1 PUSH4 0xC4B0F38B EQ PUSH2 0xE39 JUMPI PUSH2 0x11B JUMP JUMPDEST DUP1 PUSH4 0x9D19CB5E EQ PUSH2 0x8F6 JUMPI DUP1 PUSH4 0xA4B19654 EQ PUSH2 0xA7F JUMPI DUP1 PUSH4 0xB1840E8D EQ PUSH2 0xB93 JUMPI DUP1 PUSH4 0xB79650A4 EQ PUSH2 0xCD4 JUMPI PUSH2 0x11B JUMP JUMPDEST DUP1 PUSH4 0x4B368768 GT PUSH2 0xEE JUMPI DUP1 PUSH4 0x4B368768 EQ PUSH2 0x594 JUMPI DUP1 PUSH4 0x78BBAE9B EQ PUSH2 0x6C9 JUMPI DUP1 PUSH4 0x82E2FA24 EQ PUSH2 0x77A JUMPI DUP1 PUSH4 0x84F87758 EQ PUSH2 0x84B JUMPI PUSH2 0x11B JUMP JUMPDEST DUP1 PUSH4 0x301D5E1 EQ PUSH2 0x120 JUMPI DUP1 PUSH4 0x76EEC08 EQ PUSH2 0x289 JUMPI DUP1 PUSH4 0x18C535D9 EQ PUSH2 0x3A6 JUMPI DUP1 PUSH4 0x3F2A25EC EQ PUSH2 0x4D3 JUMPI JUMPDEST PUSH1 0x0 DUP1 REVERT JUMPDEST PUSH2 0x1C6 PUSH1 0x4 DUP1 CALLDATASIZE SUB PUSH1 0x20 DUP2 LT ISZERO PUSH2 0x136 JUMPI PUSH1 0x0 DUP1 REVERT JUMPDEST DUP2 ADD SWAP1 PUSH1 0x20 DUP2 ADD DUP2 CALLDATALOAD PUSH5 0x100000000 DUP2 GT ISZERO PUSH2 0x151 JUMPI PUSH1 0x0 DUP1 REVERT JUMPDEST DUP3 ADD DUP4 PUSH1 0x20 DUP3 ADD GT ISZERO PUSH2 0x163 JUMPI PUSH1 0x0 DUP1 REVERT JUMPDEST DUP1 CALLDATALOAD SWAP1 PUSH1 0x20 ADD SWAP2 DUP5 PUSH1 0x1 DUP4 MUL DUP5 ADD GT PUSH5 0x100000000 DUP4 GT OR ISZERO PUSH2 0x185 JUMPI PUSH1 0x0 DUP1 REVERT JUMPDEST SWAP2 SWAP1 DUP1 DUP1 PUSH1 0x1F ADD PUSH1 0x20 DUP1 SWAP2 DIV MUL PUSH1 0x20 ADD PUSH1 0x40 MLOAD SWAP1 DUP2 ADD PUSH1 0x40 MSTORE DUP1 SWAP4 SWAP3 SWAP2 SWAP1 DUP2 DUP2 MSTORE PUSH1 0x20 ADD DUP4 DUP4 DUP1 DUP3 DUP5 CALLDATACOPY PUSH1 0x0 SWAP3 ADD SWAP2 SWAP1 SWAP2 MSTORE POP SWAP3 SWAP6 POP PUSH2 0x1196 SWAP5 POP POP POP POP POP JUMP JUMPDEST PUSH1 0x40 MLOAD DUP1 DUP1 PUSH1 0x20 ADD DUP4 PUSH31 0xFFFFFFFFFFFFFFFFFFFFFFFFFFFFFFFFFFFFFFFFFFFFFFFFFFFFFFFFFFFFFF NOT AND PUSH31 0xFFFFFFFFFFFFFFFFFFFFFFFFFFFFFFFFFFFFFFFFFFFFFFFFFFFFFFFFFFFFFF NOT AND DUP2 MSTORE PUSH1 0x20 ADD DUP3 DUP2 SUB DUP3 MSTORE DUP5 DUP2 DUP2 MLOAD DUP2 MSTORE PUSH1 0x20 ADD SWAP2 POP DUP1 MLOAD SWAP1 PUSH1 0x20 ADD SWAP1 DUP1 DUP4 DUP4 PUSH1 0x0 JUMPDEST DUP4 DUP2 LT ISZERO PUSH2 0x24D JUMPI DUP2 DUP2 ADD MLOAD DUP4 DUP3 ADD MSTORE PUSH1 0x20 ADD PUSH2 0x235 JUMP JUMPDEST POP POP POP POP SWAP1 POP SWAP1 DUP2 ADD SWAP1 PUSH1 0x1F AND DUP1 ISZERO PUSH2 0x27A JUMPI DUP1 DUP3 SUB DUP1 MLOAD PUSH1 0x1 DUP4 PUSH1 0x20 SUB PUSH2 0x100 EXP SUB NOT AND DUP2 MSTORE PUSH1 0x20 ADD SWAP2 POP JUMPDEST POP SWAP4 POP POP POP POP PUSH1 0x40 MLOAD DUP1 SWAP2 SUB SWAP1 RETURN JUMPDEST PUSH2 0x331 PUSH1 0x4 DUP1 CALLDATASIZE SUB PUSH1 0x40 DUP2 LT ISZERO PUSH2 0x29F JUMPI PUSH1 0x0 DUP1 REVERT JUMPDEST DUP2 ADD SWAP1 PUSH1 0x20 DUP2 ADD DUP2 CALLDATALOAD PUSH5 0x100000000 DUP2 GT ISZERO PUSH2 0x2BA JUMPI PUSH1 0x0 DUP1 REVERT JUMPDEST DUP3 ADD DUP4 PUSH1 0x20 DUP3 ADD GT ISZERO PUSH2 0x2CC JUMPI PUSH1 0x0 DUP1 REVERT JUMPDEST DUP1 CALLDATALOAD SWAP1 PUSH1 0x20 ADD SWAP2 DUP5 PUSH1 0x1 DUP4 MUL DUP5 ADD GT PUSH5 0x100000000 DUP4 GT OR ISZERO PUSH2 0x2EE JUMPI PUSH1 0x0 DUP1 REVERT JUMPDEST SWAP2 SWAP1 DUP1 DUP1 PUSH1 0x1F ADD PUSH1 0x20 DUP1 SWAP2 DIV MUL PUSH1 0x20 ADD PUSH1 0x40 MLOAD SWAP1 DUP2 ADD PUSH1 0x40 MSTORE DUP1 SWAP4 SWAP3 SWAP2 SWAP1 DUP2 DUP2 MSTORE PUSH1 0x20 ADD DUP4 DUP4 DUP1 DUP3 DUP5 CALLDATACOPY PUSH1 0x0 SWAP3 ADD SWAP2 SWAP1 SWAP2 MSTORE POP SWAP3 SWAP6 POP POP SWAP2 CALLDATALOAD SWAP3 POP PUSH2 0x11AA SWAP2 POP POP JUMP JUMPDEST PUSH1 0x40 DUP1 MLOAD PUSH1 0x20 DUP1 DUP3 MSTORE DUP4 MLOAD DUP2 DUP4 ADD MSTORE DUP4 MLOAD SWAP2 SWAP3 DUP4 SWAP3 SWAP1 DUP4 ADD SWAP2 DUP6 ADD SWAP1 DUP1 DUP4 DUP4 PUSH1 0x0 JUMPDEST DUP4 DUP2 LT ISZERO PUSH2 0x36B JUMPI DUP2 DUP2 ADD MLOAD DUP4 DUP3 ADD MSTORE PUSH1 0x20 ADD PUSH2 0x353 JUMP JUMPDEST POP POP POP POP SWAP1 POP SWAP1 DUP2 ADD SWAP1 PUSH1 0x1F AND DUP1 ISZERO PUSH2 0x398 JUMPI DUP1 DUP3 SUB DUP1 MLOAD PUSH1 0x1 DUP4 PUSH1 0x20 SUB PUSH2 0x100 EXP SUB NOT AND DUP2 MSTORE PUSH1 0x20 ADD SWAP2 POP JUMPDEST POP SWAP3 POP POP POP PUSH1 0x40 MLOAD DUP1 SWAP2 SUB SWAP1 RETURN JUMPDEST PUSH2 0x331 PUSH1 0x4 DUP1 CALLDATASIZE SUB PUSH1 0x40 DUP2 LT ISZERO PUSH2 0x3BC JUMPI PUSH1 0x0 DUP1 REVERT JUMPDEST DUP2 ADD SWAP1 PUSH1 0x20 DUP2 ADD DUP2 CALLDATALOAD PUSH5 0x100000000 DUP2 GT ISZERO PUSH2 0x3D7 JUMPI PUSH1 0x0 DUP1 REVERT JUMPDEST DUP3 ADD DUP4 PUSH1 0x20 DUP3 ADD GT ISZERO PUSH2 0x3E9 JUMPI PUSH1 0x0 DUP1 REVERT JUMPDEST DUP1 CALLDATALOAD SWAP1 PUSH1 0x20 ADD SWAP2 DUP5 PUSH1 0x1 DUP4 MUL DUP5 ADD GT PUSH5 0x100000000 DUP4 GT OR ISZERO PUSH2 0x40B JUMPI PUSH1 0x0 DUP1 REVERT JUMPDEST SWAP2 SWAP1 DUP1 DUP1 PUSH1 0x1F ADD PUSH1 0x20 DUP1 SWAP2 DIV MUL PUSH1 0x20 ADD PUSH1 0x40 MLOAD SWAP1 DUP2 ADD PUSH1 0x40 MSTORE DUP1 SWAP4 SWAP3 SWAP2 SWAP1 DUP2 DUP2 MSTORE PUSH1 0x20 ADD DUP4 DUP4 DUP1 DUP3 DUP5 CALLDATACOPY PUSH1 0x0 SWAP3 ADD SWAP2 SWAP1 SWAP2 MSTORE POP SWAP3 SWAP6 SWAP5 SWAP4 PUSH1 0x20 DUP2 ADD SWAP4 POP CALLDATALOAD SWAP2 POP POP PUSH5 0x100000000 DUP2 GT ISZERO PUSH2 0x45E JUMPI PUSH1 0x0 DUP1 REVERT JUMPDEST DUP3 ADD DUP4 PUSH1 0x20 DUP3 ADD GT ISZERO PUSH2 0x470 JUMPI PUSH1 0x0 DUP1 REVERT JUMPDEST DUP1 CALLDATALOAD SWAP1 PUSH1 0x20 ADD SWAP2 DUP5 PUSH1 0x1 DUP4 MUL DUP5 ADD GT PUSH5 0x100000000 DUP4 GT OR ISZERO PUSH2 0x492 JUMPI PUSH1 0x0 DUP1 REVERT JUMPDEST SWAP2 SWAP1 DUP1 DUP1 PUSH1 0x1F ADD PUSH1 0x20 DUP1 SWAP2 DIV MUL PUSH1 0x20 ADD PUSH1 0x40 MLOAD SWAP1 DUP2 ADD PUSH1 0x40 MSTORE DUP1 SWAP4 SWAP3 SWAP2 SWAP1 DUP2 DUP2 MSTORE PUSH1 0x20 ADD DUP4 DUP4 DUP1 DUP3 DUP5 CALLDATACOPY PUSH1 0x0 SWAP3 ADD SWAP2 SWAP1 SWAP2 MSTORE POP SWAP3 SWAP6 POP PUSH2 0x11C3 SWAP5 POP POP POP POP POP JUMP JUMPDEST PUSH2 0x331 PUSH1 0x4 DUP1 CALLDATASIZE SUB PUSH1 0x60 DUP2 LT ISZERO PUSH2 0x4E9 JUMPI PUSH1 0x0 DUP1 REVERT JUMPDEST DUP2 ADD SWAP1 PUSH1 0x20 DUP2 ADD DUP2 CALLDATALOAD PUSH5 0x100000000 DUP2 GT ISZERO PUSH2 0x504 JUMPI PUSH1 0x0 DUP1 REVERT JUMPDEST DUP3 ADD DUP4 PUSH1 0x20 DUP3 ADD GT ISZERO PUSH2 0x516 JUMPI PUSH1 0x0 DUP1 REVERT JUMPDEST DUP1 CALLDATALOAD SWAP1 PUSH1 0x20 ADD SWAP2 DUP5 PUSH1 0x1 DUP4 MUL DUP5 ADD GT PUSH5 0x100000000 DUP4 GT OR ISZERO PUSH2 0x538 JUMPI PUSH1 0x0 DUP1 REVERT JUMPDEST SWAP2 SWAP1 DUP1 DUP1 PUSH1 0x1F ADD PUSH1 0x20 DUP1 SWAP2 DIV MUL PUSH1 0x20 ADD PUSH1 0x40 MLOAD SWAP1 DUP2 ADD PUSH1 0x40 MSTORE DUP1 SWAP4 SWAP3 SWAP2 SWAP1 DUP2 DUP2 MSTORE PUSH1 0x20 ADD DUP4 DUP4 DUP1 DUP3 DUP5 CALLDATACOPY PUSH1 0x0 SWAP3 ADD SWAP2 SWAP1 SWAP2 MSTORE POP SWAP3 SWAP6 POP POP DUP3 CALLDATALOAD SWAP4 POP POP POP PUSH1 0x20 ADD CALLDATALOAD PUSH20 0xFFFFFFFFFFFFFFFFFFFFFFFFFFFFFFFFFFFFFFFF AND PUSH2 0x11D6 JUMP JUMPDEST PUSH2 0x331 PUSH1 0x4 DUP1 CALLDATASIZE SUB PUSH1 0x60 DUP2 LT ISZERO PUSH2 0x5AA JUMPI PUSH1 0x0 DUP1 REVERT JUMPDEST DUP2 ADD SWAP1 PUSH1 0x20 DUP2 ADD DUP2 CALLDATALOAD PUSH5 0x100000000 DUP2 GT ISZERO PUSH2 0x5C5 JUMPI PUSH1 0x0 DUP1 REVERT JUMPDEST DUP3 ADD DUP4 PUSH1 0x20 DUP3 ADD GT ISZERO PUSH2 0x5D7 JUMPI PUSH1 0x0 DUP1 REVERT JUMPDEST DUP1 CALLDATALOAD SWAP1 PUSH1 0x20 ADD SWAP2 DUP5 PUSH1 0x1 DUP4 MUL DUP5 ADD GT PUSH5 0x100000000 DUP4 GT OR ISZERO PUSH2 0x5F9 JUMPI PUSH1 0x0 DUP1 REVERT JUMPDEST SWAP2 SWAP1 DUP1 DUP1 PUSH1 0x1F ADD PUSH1 0x20 DUP1 SWAP2 DIV MUL PUSH1 0x20 ADD PUSH1 0x40 MLOAD SWAP1 DUP2 ADD PUSH1 0x40 MSTORE DUP1 SWAP4 SWAP3 SWAP2 SWAP1 DUP2 DUP2 MSTORE PUSH1 0x20 ADD DUP4 DUP4 DUP1 DUP3 DUP5 CALLDATACOPY PUSH1 0x0 SWAP3 ADD SWAP2 SWAP1 SWAP2 MSTORE POP SWAP3 SWAP6 DUP5 CALLDATALOAD SWAP6 SWAP1 SWAP5 SWAP1 SWAP4 POP PUSH1 0x40 DUP2 ADD SWAP3 POP PUSH1 0x20 ADD CALLDATALOAD SWAP1 POP PUSH5 0x100000000 DUP2 GT ISZERO PUSH2 0x654 JUMPI PUSH1 0x0 DUP1 REVERT JUMPDEST DUP3 ADD DUP4 PUSH1 0x20 DUP3 ADD GT ISZERO PUSH2 0x666 JUMPI PUSH1 0x0 DUP1 REVERT JUMPDEST DUP1 CALLDATALOAD SWAP1 PUSH1 0x20 ADD SWAP2 DUP5 PUSH1 0x1 DUP4 MUL DUP5 ADD GT PUSH5 0x100000000 DUP4 GT OR ISZERO PUSH2 0x688 JUMPI PUSH1 0x0 DUP1 REVERT JUMPDEST SWAP2 SWAP1 DUP1 DUP1 PUSH1 0x1F ADD PUSH1 0x20 DUP1 SWAP2 DIV MUL PUSH1 0x20 ADD PUSH1 0x40 MLOAD SWAP1 DUP2 ADD PUSH1 0x40 MSTORE DUP1 SWAP4 SWAP3 SWAP2 SWAP1 DUP2 DUP2 MSTORE PUSH1 0x20 ADD DUP4 DUP4 DUP1 DUP3 DUP5 CALLDATACOPY PUSH1 0x0 SWAP3 ADD SWAP2 SWAP1 SWAP2 MSTORE POP SWAP3 SWAP6 POP PUSH2 0x11F1 SWAP5 POP POP POP POP POP JUMP JUMPDEST PUSH2 0x331 PUSH1 0x4 DUP1 CALLDATASIZE SUB PUSH1 0x80 DUP2 LT ISZERO PUSH2 0x6DF JUMPI PUSH1 0x0 DUP1 REVERT JUMPDEST DUP2 ADD SWAP1 PUSH1 0x20 DUP2 ADD DUP2 CALLDATALOAD PUSH5 0x100000000 DUP2 GT ISZERO PUSH2 0x6FA JUMPI PUSH1 0x0 DUP1 REVERT JUMPDEST DUP3 ADD DUP4 PUSH1 0x20 DUP3 ADD GT ISZERO PUSH2 0x70C JUMPI PUSH1 0x0 DUP1 REVERT JUMPDEST DUP1 CALLDATALOAD SWAP1 PUSH1 0x20 ADD SWAP2 DUP5 PUSH1 0x1 DUP4 MUL DUP5 ADD GT PUSH5 0x100000000 DUP4 GT OR ISZERO PUSH2 0x72E JUMPI PUSH1 0x0 DUP1 REVERT JUMPDEST SWAP2 SWAP1 DUP1 DUP1 PUSH1 0x1F ADD PUSH1 0x20 DUP1 SWAP2 DIV MUL PUSH1 0x20 ADD PUSH1 0x40 MLOAD SWAP1 DUP2 ADD PUSH1 0x40 MSTORE DUP1 SWAP4 SWAP3 SWAP2 SWAP1 DUP2 DUP2 MSTORE PUSH1 0x20 ADD DUP4 DUP4 DUP1 DUP3 DUP5 CALLDATACOPY PUSH1 0x0 SWAP3 ADD SWAP2 SWAP1 SWAP2 MSTORE POP SWAP3 SWAP6 POP POP DUP3 CALLDATALOAD SWAP4 POP POP POP PUSH1 0x20 DUP2 ADD CALLDATALOAD SWAP1 PUSH1 0x40 ADD CALLDATALOAD PUSH2 0x1204 JUMP JUMPDEST PUSH2 0x822 PUSH1 0x4 DUP1 CALLDATASIZE SUB PUSH1 0x40 DUP2 LT ISZERO PUSH2 0x790 JUMPI PUSH1 0x0 DUP1 REVERT JUMPDEST DUP2 ADD SWAP1 PUSH1 0x20 DUP2 ADD DUP2 CALLDATALOAD PUSH5 0x100000000 DUP2 GT ISZERO PUSH2 0x7AB JUMPI PUSH1 0x0 DUP1 REVERT JUMPDEST DUP3 ADD DUP4 PUSH1 0x20 DUP3 ADD GT ISZERO PUSH2 0x7BD JUMPI PUSH1 0x0 DUP1 REVERT JUMPDEST DUP1 CALLDATALOAD SWAP1 PUSH1 0x20 ADD SWAP2 DUP5 PUSH1 0x1 DUP4 MUL DUP5 ADD GT PUSH5 0x100000000 DUP4 GT OR ISZERO PUSH2 0x7DF JUMPI PUSH1 0x0 DUP1 REVERT JUMPDEST SWAP2 SWAP1 DUP1 DUP1 PUSH1 0x1F ADD PUSH1 0x20 DUP1 SWAP2 DIV MUL PUSH1 0x20 ADD PUSH1 0x40 MLOAD SWAP1 DUP2 ADD PUSH1 0x40 MSTORE DUP1 SWAP4 SWAP3 SWAP2 SWAP1 DUP2 DUP2 MSTORE PUSH1 0x20 ADD DUP4 DUP4 DUP1 DUP3 DUP5 CALLDATACOPY PUSH1 0x0 SWAP3 ADD SWAP2 SWAP1 SWAP2 MSTORE POP SWAP3 SWAP6 POP POP SWAP2 CALLDATALOAD SWAP3 POP PUSH2 0x124C SWAP2 POP POP JUMP JUMPDEST PUSH1 0x40 DUP1 MLOAD PUSH20 0xFFFFFFFFFFFFFFFFFFFFFFFFFFFFFFFFFFFFFFFF SWAP1 SWAP3 AND DUP3 MSTORE MLOAD SWAP1 DUP2 SWAP1 SUB PUSH1 0x20 ADD SWAP1 RETURN JUMPDEST PUSH2 0x331 PUSH1 0x4 DUP1 CALLDATASIZE SUB PUSH1 0x60 DUP2 LT ISZERO PUSH2 0x861 JUMPI PUSH1 0x0 DUP1 REVERT JUMPDEST DUP2 ADD SWAP1 PUSH1 0x20 DUP2 ADD DUP2 CALLDATALOAD PUSH5 0x100000000 DUP2 GT ISZERO PUSH2 0x87C JUMPI PUSH1 0x0 DUP1 REVERT JUMPDEST DUP3 ADD DUP4 PUSH1 0x20 DUP3 ADD GT ISZERO PUSH2 0x88E JUMPI PUSH1 0x0 DUP1 REVERT JUMPDEST DUP1 CALLDATALOAD SWAP1 PUSH1 0x20 ADD SWAP2 DUP5 PUSH1 0x1 DUP4 MUL DUP5 ADD GT PUSH5 0x100000000 DUP4 GT OR ISZERO PUSH2 0x8B0 JUMPI PUSH1 0x0 DUP1 REVERT JUMPDEST SWAP2 SWAP1 DUP1 DUP1 PUSH1 0x1F ADD PUSH1 0x20 DUP1 SWAP2 DIV MUL PUSH1 0x20 ADD PUSH1 0x40 MLOAD SWAP1 DUP2 ADD PUSH1 0x40 MSTORE DUP1 SWAP4 SWAP3 SWAP2 SWAP1 DUP2 DUP2 MSTORE PUSH1 0x20 ADD DUP4 DUP4 DUP1 DUP3 DUP5 CALLDATACOPY PUSH1 0x0 SWAP3 ADD SWAP2 SWAP1 SWAP2 MSTORE POP SWAP3 SWAP6 POP POP DUP3 CALLDATALOAD SWAP4 POP POP POP PUSH1 0x20 ADD CALLDATALOAD PUSH2 0x125E JUMP JUMPDEST PUSH2 0x9A1 PUSH1 0x4 DUP1 CALLDATASIZE SUB PUSH1 0x60 DUP2 LT ISZERO PUSH2 0x90C JUMPI PUSH1 0x0 DUP1 REVERT JUMPDEST DUP2 ADD SWAP1 PUSH1 0x20 DUP2 ADD DUP2 CALLDATALOAD PUSH5 0x100000000 DUP2 GT ISZERO PUSH2 0x927 JUMPI PUSH1 0x0 DUP1 REVERT JUMPDEST DUP3 ADD DUP4 PUSH1 0x20 DUP3 ADD GT ISZERO PUSH2 0x939 JUMPI PUSH1 0x0 DUP1 REVERT JUMPDEST DUP1 CALLDATALOAD SWAP1 PUSH1 0x20 ADD SWAP2 DUP5 PUSH1 0x1 DUP4 MUL DUP5 ADD GT PUSH5 0x100000000 DUP4 GT OR ISZERO PUSH2 0x95B JUMPI PUSH1 0x0 DUP1 REVERT JUMPDEST SWAP2 SWAP1 DUP1 DUP1 PUSH1 0x1F ADD PUSH1 0x20 DUP1 SWAP2 DIV MUL PUSH1 0x20 ADD PUSH1 0x40 MLOAD SWAP1 DUP2 ADD PUSH1 0x40 MSTORE DUP1 SWAP4 SWAP3 SWAP2 SWAP1 DUP2 DUP2 MSTORE PUSH1 0x20 ADD DUP4 DUP4 DUP1 DUP3 DUP5 CALLDATACOPY PUSH1 0x0 SWAP3 ADD SWAP2 SWAP1 SWAP2 MSTORE POP SWAP3 SWAP6 POP POP DUP3 CALLDATALOAD SWAP4 POP POP POP PUSH1 0x20 ADD CALLDATALOAD PUSH2 0x1271 JUMP JUMPDEST PUSH1 0x40 MLOAD DUP1 DUP1 PUSH1 0x20 ADD DUP1 PUSH1 0x20 ADD DUP4 DUP2 SUB DUP4 MSTORE DUP6 DUP2 DUP2 MLOAD DUP2 MSTORE PUSH1 0x20 ADD SWAP2 POP DUP1 MLOAD SWAP1 PUSH1 0x20 ADD SWAP1 DUP1 DUP4 DUP4 PUSH1 0x0 JUMPDEST DUP4 DUP2 LT ISZERO PUSH2 0x9E2 JUMPI DUP2 DUP2 ADD MLOAD DUP4 DUP3 ADD MSTORE PUSH1 0x20 ADD PUSH2 0x9CA JUMP JUMPDEST POP POP POP POP SWAP1 POP SWAP1 DUP2 ADD SWAP1 PUSH1 0x1F AND DUP1 ISZERO PUSH2 0xA0F JUMPI DUP1 DUP3 SUB DUP1 MLOAD PUSH1 0x1 DUP4 PUSH1 0x20 SUB PUSH2 0x100 EXP SUB NOT AND DUP2 MSTORE PUSH1 0x20 ADD SWAP2 POP JUMPDEST POP DUP4 DUP2 SUB DUP3 MSTORE DUP5 MLOAD DUP2 MSTORE DUP5 MLOAD PUSH1 0x20 SWAP2 DUP3 ADD SWAP2 DUP7 ADD SWAP1 DUP1 DUP4 DUP4 PUSH1 0x0 JUMPDEST DUP4 DUP2 LT ISZERO PUSH2 0xA42 JUMPI DUP2 DUP2 ADD MLOAD DUP4 DUP3 ADD MSTORE PUSH1 0x20 ADD PUSH2 0xA2A JUMP JUMPDEST POP POP POP POP SWAP1 POP SWAP1 DUP2 ADD SWAP1 PUSH1 0x1F AND DUP1 ISZERO PUSH2 0xA6F JUMPI DUP1 DUP3 SUB DUP1 MLOAD PUSH1 0x1 DUP4 PUSH1 0x20 SUB PUSH2 0x100 EXP SUB NOT AND DUP2 MSTORE PUSH1 0x20 ADD SWAP2 POP JUMPDEST POP SWAP5 POP POP POP POP POP PUSH1 0x40 MLOAD DUP1 SWAP2 SUB SWAP1 RETURN JUMPDEST PUSH2 0xB25 PUSH1 0x4 DUP1 CALLDATASIZE SUB PUSH1 0x20 DUP2 LT ISZERO PUSH2 0xA95 JUMPI PUSH1 0x0 DUP1 REVERT JUMPDEST DUP2 ADD SWAP1 PUSH1 0x20 DUP2 ADD DUP2 CALLDATALOAD PUSH5 0x100000000 DUP2 GT ISZERO PUSH2 0xAB0 JUMPI PUSH1 0x0 DUP1 REVERT JUMPDEST DUP3 ADD DUP4 PUSH1 0x20 DUP3 ADD GT ISZERO PUSH2 0xAC2 JUMPI PUSH1 0x0 DUP1 REVERT JUMPDEST DUP1 CALLDATALOAD SWAP1 PUSH1 0x20 ADD SWAP2 DUP5 PUSH1 0x1 DUP4 MUL DUP5 ADD GT PUSH5 0x100000000 DUP4 GT OR ISZERO PUSH2 0xAE4 JUMPI PUSH1 0x0 DUP1 REVERT JUMPDEST SWAP2 SWAP1 DUP1 DUP1 PUSH1 0x1F ADD PUSH1 0x20 DUP1 SWAP2 DIV MUL PUSH1 0x20 ADD PUSH1 0x40 MLOAD SWAP1 DUP2 ADD PUSH1 0x40 MSTORE DUP1 SWAP4 SWAP3 SWAP2 SWAP1 DUP2 DUP2 MSTORE PUSH1 0x20 ADD DUP4 DUP4 DUP1 DUP3 DUP5 CALLDATACOPY PUSH1 0x0 SWAP3 ADD SWAP2 SWAP1 SWAP2 MSTORE POP SWAP3 SWAP6 POP PUSH2 0x1287 SWAP5 POP POP POP POP POP JUMP JUMPDEST PUSH1 0x40 MLOAD DUP1 DUP1 PUSH1 0x20 ADD DUP4 PUSH20 0xFFFFFFFFFFFFFFFFFFFFFFFFFFFFFFFFFFFFFFFF AND PUSH20 0xFFFFFFFFFFFFFFFFFFFFFFFFFFFFFFFFFFFFFFFF AND DUP2 MSTORE PUSH1 0x20 ADD DUP3 DUP2 SUB DUP3 MSTORE DUP5 DUP2 DUP2 MLOAD DUP2 MSTORE PUSH1 0x20 ADD SWAP2 POP DUP1 MLOAD SWAP1 PUSH1 0x20 ADD SWAP1 DUP1 DUP4 DUP4 PUSH1 0x0 DUP4 DUP2 LT ISZERO PUSH2 0x24D JUMPI DUP2 DUP2 ADD MLOAD DUP4 DUP3 ADD MSTORE PUSH1 0x20 ADD PUSH2 0x235 JUMP JUMPDEST PUSH2 0xCC0 PUSH1 0x4 DUP1 CALLDATASIZE SUB PUSH1 0x40 DUP2 LT ISZERO PUSH2 0xBA9 JUMPI PUSH1 0x0 DUP1 REVERT JUMPDEST DUP2 ADD SWAP1 PUSH1 0x20 DUP2 ADD DUP2 CALLDATALOAD PUSH5 0x100000000 DUP2 GT ISZERO PUSH2 0xBC4 JUMPI PUSH1 0x0 DUP1 REVERT JUMPDEST DUP3 ADD DUP4 PUSH1 0x20 DUP3 ADD GT ISZERO PUSH2 0xBD6 JUMPI PUSH1 0x0 DUP1 REVERT JUMPDEST DUP1 CALLDATALOAD SWAP1 PUSH1 0x20 ADD SWAP2 DUP5 PUSH1 0x1 DUP4 MUL DUP5 ADD GT PUSH5 0x100000000 DUP4 GT OR ISZERO PUSH2 0xBF8 JUMPI PUSH1 0x0 DUP1 REVERT JUMPDEST SWAP2 SWAP1 DUP1 DUP1 PUSH1 0x1F ADD PUSH1 0x20 DUP1 SWAP2 DIV MUL PUSH1 0x20 ADD PUSH1 0x40 MLOAD SWAP1 DUP2 ADD PUSH1 0x40 MSTORE DUP1 SWAP4 SWAP3 SWAP2 SWAP1 DUP2 DUP2 MSTORE PUSH1 0x20 ADD DUP4 DUP4 DUP1 DUP3 DUP5 CALLDATACOPY PUSH1 0x0 SWAP3 ADD SWAP2 SWAP1 SWAP2 MSTORE POP SWAP3 SWAP6 SWAP5 SWAP4 PUSH1 0x20 DUP2 ADD SWAP4 POP CALLDATALOAD SWAP2 POP POP PUSH5 0x100000000 DUP2 GT ISZERO PUSH2 0xC4B JUMPI PUSH1 0x0 DUP1 REVERT JUMPDEST DUP3 ADD DUP4 PUSH1 0x20 DUP3 ADD GT ISZERO PUSH2 0xC5D JUMPI PUSH1 0x0 DUP1 REVERT JUMPDEST DUP1 CALLDATALOAD SWAP1 PUSH1 0x20 ADD SWAP2 DUP5 PUSH1 0x1 DUP4 MUL DUP5 ADD GT PUSH5 0x100000000 DUP4 GT OR ISZERO PUSH2 0xC7F JUMPI PUSH1 0x0 DUP1 REVERT JUMPDEST SWAP2 SWAP1 DUP1 DUP1 PUSH1 0x1F ADD PUSH1 0x20 DUP1 SWAP2 DIV MUL PUSH1 0x20 ADD PUSH1 0x40 MLOAD SWAP1 DUP2 ADD PUSH1 0x40 MSTORE DUP1 SWAP4 SWAP3 SWAP2 SWAP1 DUP2 DUP2 MSTORE PUSH1 0x20 ADD DUP4 DUP4 DUP1 DUP3 DUP5 CALLDATACOPY PUSH1 0x0 SWAP3 ADD SWAP2 SWAP1 SWAP2 MSTORE POP SWAP3 SWAP6 POP PUSH2 0x1294 SWAP5 POP POP POP POP POP JUMP JUMPDEST PUSH1 0x40 DUP1 MLOAD SWAP2 ISZERO ISZERO DUP3 MSTORE MLOAD SWAP1 DUP2 SWAP1 SUB PUSH1 0x20 ADD SWAP1 RETURN JUMPDEST PUSH2 0x331 PUSH1 0x4 DUP1 CALLDATASIZE SUB PUSH1 0x60 DUP2 LT ISZERO PUSH2 0xCEA JUMPI PUSH1 0x0 DUP1 REVERT JUMPDEST DUP2 ADD SWAP1 PUSH1 0x20 DUP2 ADD DUP2 CALLDATALOAD PUSH5 0x100000000 DUP2 GT ISZERO PUSH2 0xD05 JUMPI PUSH1 0x0 DUP1 REVERT JUMPDEST DUP3 ADD DUP4 PUSH1 0x20 DUP3 ADD GT ISZERO PUSH2 0xD17 JUMPI PUSH1 0x0 DUP1 REVERT JUMPDEST DUP1 CALLDATALOAD SWAP1 PUSH1 0x20 ADD SWAP2 DUP5 PUSH1 0x1 DUP4 MUL DUP5 ADD GT PUSH5 0x100000000 DUP4 GT OR ISZERO PUSH2 0xD39 JUMPI PUSH1 0x0 DUP1 REVERT JUMPDEST SWAP2 SWAP1 DUP1 DUP1 PUSH1 0x1F ADD PUSH1 0x20 DUP1 SWAP2 DIV MUL PUSH1 0x20 ADD PUSH1 0x40 MLOAD SWAP1 DUP2 ADD PUSH1 0x40 MSTORE DUP1 SWAP4 SWAP3 SWAP2 SWAP1 DUP2 DUP2 MSTORE PUSH1 0x20 ADD DUP4 DUP4 DUP1 DUP3 DUP5 CALLDATACOPY PUSH1 0x0 SWAP3 ADD SWAP2 SWAP1 SWAP2 MSTORE POP SWAP3 SWAP6 POP POP DUP3 CALLDATALOAD SWAP4 POP POP POP PUSH1 0x20 ADD CALLDATALOAD PUSH2 0x12BA JUMP JUMPDEST PUSH2 0xE27 PUSH1 0x4 DUP1 CALLDATASIZE SUB PUSH1 0x40 DUP2 LT ISZERO PUSH2 0xD95 JUMPI PUSH1 0x0 DUP1 REVERT JUMPDEST DUP2 ADD SWAP1 PUSH1 0x20 DUP2 ADD DUP2 CALLDATALOAD PUSH5 0x100000000 DUP2 GT ISZERO PUSH2 0xDB0 JUMPI PUSH1 0x0 DUP1 REVERT JUMPDEST DUP3 ADD DUP4 PUSH1 0x20 DUP3 ADD GT ISZERO PUSH2 0xDC2 JUMPI PUSH1 0x0 DUP1 REVERT JUMPDEST DUP1 CALLDATALOAD SWAP1 PUSH1 0x20 ADD SWAP2 DUP5 PUSH1 0x1 DUP4 MUL DUP5 ADD GT PUSH5 0x100000000 DUP4 GT OR ISZERO PUSH2 0xDE4 JUMPI PUSH1 0x0 DUP1 REVERT JUMPDEST SWAP2 SWAP1 DUP1 DUP1 PUSH1 0x1F ADD PUSH1 0x20 DUP1 SWAP2 DIV MUL PUSH1 0x20 ADD PUSH1 0x40 MLOAD SWAP1 DUP2 ADD PUSH1 0x40 MSTORE DUP1 SWAP4 SWAP3 SWAP2 SWAP1 DUP2 DUP2 MSTORE PUSH1 0x20 ADD DUP4 DUP4 DUP1 DUP3 DUP5 CALLDATACOPY PUSH1 0x0 SWAP3 ADD SWAP2 SWAP1 SWAP2 MSTORE POP SWAP3 SWAP6 POP POP SWAP2 CALLDATALOAD SWAP3 POP PUSH2 0x12CD SWAP2 POP POP JUMP JUMPDEST PUSH1 0x40 DUP1 MLOAD SWAP2 DUP3 MSTORE MLOAD SWAP1 DUP2 SWAP1 SUB PUSH1 0x20 ADD SWAP1 RETURN JUMPDEST PUSH2 0x9A1 PUSH1 0x4 DUP1 CALLDATASIZE SUB PUSH1 0x60 DUP2 LT ISZERO PUSH2 0xE4F JUMPI PUSH1 0x0 DUP1 REVERT JUMPDEST DUP2 ADD SWAP1 PUSH1 0x20 DUP2 ADD DUP2 CALLDATALOAD PUSH5 0x100000000 DUP2 GT ISZERO PUSH2 0xE6A JUMPI PUSH1 0x0 DUP1 REVERT JUMPDEST DUP3 ADD DUP4 PUSH1 0x20 DUP3 ADD GT ISZERO PUSH2 0xE7C JUMPI PUSH1 0x0 DUP1 REVERT JUMPDEST DUP1 CALLDATALOAD SWAP1 PUSH1 0x20 ADD SWAP2 DUP5 PUSH1 0x1 DUP4 MUL DUP5 ADD GT PUSH5 0x100000000 DUP4 GT OR ISZERO PUSH2 0xE9E JUMPI PUSH1 0x0 DUP1 REVERT JUMPDEST SWAP2 SWAP1 DUP1 DUP1 PUSH1 0x1F ADD PUSH1 0x20 DUP1 SWAP2 DIV MUL PUSH1 0x20 ADD PUSH1 0x40 MLOAD SWAP1 DUP2 ADD PUSH1 0x40 MSTORE DUP1 SWAP4 SWAP3 SWAP2 SWAP1 DUP2 DUP2 MSTORE PUSH1 0x20 ADD DUP4 DUP4 DUP1 DUP3 DUP5 CALLDATACOPY PUSH1 0x0 SWAP3 ADD SWAP2 SWAP1 SWAP2 MSTORE POP SWAP3 SWAP6 POP POP DUP3 CALLDATALOAD SWAP4 POP POP POP PUSH1 0x20 ADD CALLDATALOAD PUSH2 0x12DF JUMP JUMPDEST PUSH2 0xF8C PUSH1 0x4 DUP1 CALLDATASIZE SUB PUSH1 0x40 DUP2 LT ISZERO PUSH2 0xEFA JUMPI PUSH1 0x0 DUP1 REVERT JUMPDEST DUP2 ADD SWAP1 PUSH1 0x20 DUP2 ADD DUP2 CALLDATALOAD PUSH5 0x100000000 DUP2 GT ISZERO PUSH2 0xF15 JUMPI PUSH1 0x0 DUP1 REVERT JUMPDEST DUP3 ADD DUP4 PUSH1 0x20 DUP3 ADD GT ISZERO PUSH2 0xF27 JUMPI PUSH1 0x0 DUP1 REVERT JUMPDEST DUP1 CALLDATALOAD SWAP1 PUSH1 0x20 ADD SWAP2 DUP5 PUSH1 0x1 DUP4 MUL DUP5 ADD GT PUSH5 0x100000000 DUP4 GT OR ISZERO PUSH2 0xF49 JUMPI PUSH1 0x0 DUP1 REVERT JUMPDEST SWAP2 SWAP1 DUP1 DUP1 PUSH1 0x1F ADD PUSH1 0x20 DUP1 SWAP2 DIV MUL PUSH1 0x20 ADD PUSH1 0x40 MLOAD SWAP1 DUP2 ADD PUSH1 0x40 MSTORE DUP1 SWAP4 SWAP3 SWAP2 SWAP1 DUP2 DUP2 MSTORE PUSH1 0x20 ADD DUP4 DUP4 DUP1 DUP3 DUP5 CALLDATACOPY PUSH1 0x0 SWAP3 ADD SWAP2 SWAP1 SWAP2 MSTORE POP SWAP3 SWAP6 POP POP SWAP2 CALLDATALOAD SWAP3 POP PUSH2 0x12ED SWAP2 POP POP JUMP JUMPDEST PUSH1 0x40 DUP1 MLOAD PUSH32 0xFFFFFFFF00000000000000000000000000000000000000000000000000000000 SWAP1 SWAP3 AND DUP3 MSTORE MLOAD SWAP1 DUP2 SWAP1 SUB PUSH1 0x20 ADD SWAP1 RETURN JUMPDEST PUSH2 0xE27 PUSH1 0x4 DUP1 CALLDATASIZE SUB PUSH1 0x40 DUP2 LT ISZERO PUSH2 0xFD7 JUMPI PUSH1 0x0 DUP1 REVERT JUMPDEST DUP2 ADD SWAP1 PUSH1 0x20 DUP2 ADD DUP2 CALLDATALOAD PUSH5 0x100000000 DUP2 GT ISZERO PUSH2 0xFF2 JUMPI PUSH1 0x0 DUP1 REVERT JUMPDEST DUP3 ADD DUP4 PUSH1 0x20 DUP3 ADD GT ISZERO PUSH2 0x1004 JUMPI PUSH1 0x0 DUP1 REVERT JUMPDEST DUP1 CALLDATALOAD SWAP1 PUSH1 0x20 ADD SWAP2 DUP5 PUSH1 0x1 DUP4 MUL DUP5 ADD GT PUSH5 0x100000000 DUP4 GT OR ISZERO PUSH2 0x1026 JUMPI PUSH1 0x0 DUP1 REVERT JUMPDEST SWAP2 SWAP1 DUP1 DUP1 PUSH1 0x1F ADD PUSH1 0x20 DUP1 SWAP2 DIV MUL PUSH1 0x20 ADD PUSH1 0x40 MLOAD SWAP1 DUP2 ADD PUSH1 0x40 MSTORE DUP1 SWAP4 SWAP3 SWAP2 SWAP1 DUP2 DUP2 MSTORE PUSH1 0x20 ADD DUP4 DUP4 DUP1 DUP3 DUP5 CALLDATACOPY PUSH1 0x0 SWAP3 ADD SWAP2 SWAP1 SWAP2 MSTORE POP SWAP3 SWAP6 POP POP SWAP2 CALLDATALOAD SWAP3 POP PUSH2 0x12FF SWAP2 POP POP JUMP JUMPDEST PUSH2 0xCC0 PUSH1 0x4 DUP1 CALLDATASIZE SUB PUSH1 0x40 DUP2 LT ISZERO PUSH2 0x107F JUMPI PUSH1 0x0 DUP1 REVERT JUMPDEST DUP2 ADD SWAP1 PUSH1 0x20 DUP2 ADD DUP2 CALLDATALOAD PUSH5 0x100000000 DUP2 GT ISZERO PUSH2 0x109A JUMPI PUSH1 0x0 DUP1 REVERT JUMPDEST DUP3 ADD DUP4 PUSH1 0x20 DUP3 ADD GT ISZERO PUSH2 0x10AC JUMPI PUSH1 0x0 DUP1 REVERT JUMPDEST DUP1 CALLDATALOAD SWAP1 PUSH1 0x20 ADD SWAP2 DUP5 PUSH1 0x1 DUP4 MUL DUP5 ADD GT PUSH5 0x100000000 DUP4 GT OR ISZERO PUSH2 0x10CE JUMPI PUSH1 0x0 DUP1 REVERT JUMPDEST SWAP2 SWAP1 DUP1 DUP1 PUSH1 0x1F ADD PUSH1 0x20 DUP1 SWAP2 DIV MUL PUSH1 0x20 ADD PUSH1 0x40 MLOAD SWAP1 DUP2 ADD PUSH1 0x40 MSTORE DUP1 SWAP4 SWAP3 SWAP2 SWAP1 DUP2 DUP2 MSTORE PUSH1 0x20 ADD DUP4 DUP4 DUP1 DUP3 DUP5 CALLDATACOPY PUSH1 0x0 SWAP3 ADD SWAP2 SWAP1 SWAP2 MSTORE POP SWAP3 SWAP6 SWAP5 SWAP4 PUSH1 0x20 DUP2 ADD SWAP4 POP CALLDATALOAD SWAP2 POP POP PUSH5 0x100000000 DUP2 GT ISZERO PUSH2 0x1121 JUMPI PUSH1 0x0 DUP1 REVERT JUMPDEST DUP3 ADD DUP4 PUSH1 0x20 DUP3 ADD GT ISZERO PUSH2 0x1133 JUMPI PUSH1 0x0 DUP1 REVERT JUMPDEST DUP1 CALLDATALOAD SWAP1 PUSH1 0x20 ADD SWAP2 DUP5 PUSH1 0x1 DUP4 MUL DUP5 ADD GT PUSH5 0x100000000 DUP4 GT OR ISZERO PUSH2 0x1155 JUMPI PUSH1 0x0 DUP1 REVERT JUMPDEST SWAP2 SWAP1 DUP1 DUP1 PUSH1 0x1F ADD PUSH1 0x20 DUP1 SWAP2 DIV MUL PUSH1 0x20 ADD PUSH1 0x40 MLOAD SWAP1 DUP2 ADD PUSH1 0x40 MSTORE DUP1 SWAP4 SWAP3 SWAP2 SWAP1 DUP2 DUP2 MSTORE PUSH1 0x20 ADD DUP4 DUP4 DUP1 DUP3 DUP5 CALLDATACOPY PUSH1 0x0 SWAP3 ADD SWAP2 SWAP1 SWAP2 MSTORE POP SWAP3 SWAP6 POP PUSH2 0x1311 SWAP5 POP POP POP POP POP JUMP JUMPDEST PUSH1 0x60 PUSH1 0x0 PUSH2 0x11A3 DUP4 PUSH2 0x1323 JUMP JUMPDEST SWAP3 SWAP4 SWAP2 POP POP JUMP JUMPDEST PUSH1 0x60 PUSH2 0x11BC DUP4 DUP4 PUSH4 0xFFFFFFFF PUSH2 0x13E0 AND JUMP JUMPDEST SWAP4 SWAP3 POP POP POP JUMP JUMPDEST PUSH1 0x60 PUSH2 0x11CF DUP4 DUP4 PUSH2 0x1458 JUMP JUMPDEST POP SWAP1 SWAP2 SWAP1 POP JUMP JUMPDEST PUSH1 0x60 PUSH2 0x11E9 DUP5 DUP5 DUP5 PUSH4 0xFFFFFFFF PUSH2 0x14D4 AND JUMP JUMPDEST POP SWAP2 SWAP3 SWAP2 POP POP JUMP JUMPDEST PUSH1 0x60 PUSH2 0x11E9 DUP5 DUP5 DUP5 PUSH4 0xFFFFFFFF PUSH2 0x157C AND JUMP JUMPDEST PUSH1 0x60 DUP5 MLOAD DUP3 DUP5 ADD GT ISZERO PUSH2 0x1216 JUMPI PUSH1 0x0 DUP1 REVERT JUMPDEST DUP5 MLOAD DUP3 DUP6 ADD GT ISZERO PUSH2 0x1226 JUMPI PUSH1 0x0 DUP1 REVERT JUMPDEST PUSH1 0x0 PUSH2 0x1231 DUP7 PUSH2 0x15FD JUMP JUMPDEST SWAP1 POP PUSH2 0x1242 DUP6 DUP3 ADD DUP6 DUP4 ADD DUP6 PUSH2 0x1603 JUMP JUMPDEST POP SWAP4 SWAP5 SWAP4 POP POP POP POP JUMP JUMPDEST PUSH1 0x0 PUSH2 0x11BC DUP4 DUP4 PUSH4 0xFFFFFFFF PUSH2 0x16C6 AND JUMP JUMPDEST PUSH1 0x60 PUSH2 0x11E9 DUP5 DUP5 DUP5 PUSH4 0xFFFFFFFF PUSH2 0x1744 AND JUMP JUMPDEST PUSH1 0x60 DUP1 PUSH2 0x127F DUP6 DUP6 DUP6 PUSH2 0x17A9 JUMP JUMPDEST SWAP6 SWAP4 POP POP POP POP JUMP JUMPDEST PUSH1 0x60 PUSH1 0x0 PUSH2 0x11A3 DUP4 PUSH2 0x18D8 JUMP JUMPDEST PUSH1 0x0 PUSH2 0x129F DUP4 PUSH2 0x1323 JUMP JUMPDEST POP PUSH2 0x12A9 DUP3 PUSH2 0x1323 JUMP JUMPDEST POP PUSH2 0x11BC DUP4 DUP4 PUSH4 0xFFFFFFFF PUSH2 0x196E AND JUMP JUMPDEST PUSH1 0x60 PUSH2 0x11E9 DUP5 DUP5 DUP5 PUSH4 0xFFFFFFFF PUSH2 0x1994 AND JUMP JUMPDEST PUSH1 0x0 PUSH2 0x11BC DUP4 DUP4 PUSH4 0xFFFFFFFF PUSH2 0x199F AND JUMP JUMPDEST PUSH1 0x60 DUP1 PUSH2 0x127F DUP6 DUP6 DUP6 PUSH2 0x1A07 JUMP JUMPDEST PUSH1 0x0 PUSH2 0x11BC DUP4 DUP4 PUSH4 0xFFFFFFFF PUSH2 0x1AF4 AND JUMP JUMPDEST PUSH1 0x0 PUSH2 0x11BC DUP4 DUP4 PUSH4 0xFFFFFFFF PUSH2 0x1B7E AND JUMP JUMPDEST PUSH1 0x0 PUSH2 0x11BC DUP4 DUP4 PUSH4 0xFFFFFFFF PUSH2 0x196E AND JUMP JUMPDEST PUSH1 0x0 DUP1 DUP3 MLOAD GT PUSH2 0x137E JUMPI PUSH1 0x40 MLOAD PUSH32 0x8C379A000000000000000000000000000000000000000000000000000000000 DUP2 MSTORE PUSH1 0x4 ADD DUP1 DUP1 PUSH1 0x20 ADD DUP3 DUP2 SUB DUP3 MSTORE PUSH1 0x21 DUP2 MSTORE PUSH1 0x20 ADD DUP1 PUSH2 0x1BE4 PUSH1 0x21 SWAP2 CODECOPY PUSH1 0x40 ADD SWAP2 POP POP PUSH1 0x40 MLOAD DUP1 SWAP2 SUB SWAP1 REVERT JUMPDEST DUP2 PUSH1 0x1 DUP4 MLOAD SUB DUP2 MLOAD DUP2 LT PUSH2 0x138E JUMPI INVALID JUMPDEST ADD PUSH1 0x20 ADD MLOAD DUP3 MLOAD PUSH32 0xFFFFFFFFFFFFFFFFFFFFFFFFFFFFFFFFFFFFFFFFFFFFFFFFFFFFFFFFFFFFFFFF ADD SWAP1 SWAP3 MSTORE POP PUSH32 0xFF00000000000000000000000000000000000000000000000000000000000000 AND SWAP1 JUMP JUMPDEST PUSH1 0x60 PUSH1 0x0 PUSH2 0x13EE DUP5 DUP5 PUSH2 0x1B7E JUMP JUMPDEST SWAP1 POP PUSH1 0x20 DUP4 ADD SWAP3 POP DUP1 DUP4 ADD DUP5 MLOAD LT ISZERO PUSH2 0x1452 JUMPI PUSH1 0x40 MLOAD PUSH32 0x8C379A000000000000000000000000000000000000000000000000000000000 DUP2 MSTORE PUSH1 0x4 ADD DUP1 DUP1 PUSH1 0x20 ADD DUP3 DUP2 SUB DUP3 MSTORE PUSH1 0x30 DUP2 MSTORE PUSH1 0x20 ADD DUP1 PUSH2 0x1B8E PUSH1 0x30 SWAP2 CODECOPY PUSH1 0x40 ADD SWAP2 POP POP PUSH1 0x40 MLOAD DUP1 SWAP2 SUB SWAP1 REVERT JUMPDEST POP POP ADD SWAP1 JUMP JUMPDEST DUP1 MLOAD DUP3 MLOAD DUP2 GT ISZERO PUSH2 0x14B4 JUMPI PUSH1 0x40 MLOAD PUSH32 0x8C379A000000000000000000000000000000000000000000000000000000000 DUP2 MSTORE PUSH1 0x4 ADD DUP1 DUP1 PUSH1 0x20 ADD DUP3 DUP2 SUB DUP3 MSTORE PUSH1 0x30 DUP2 MSTORE PUSH1 0x20 ADD DUP1 PUSH2 0x1C05 PUSH1 0x30 SWAP2 CODECOPY PUSH1 0x40 ADD SWAP2 POP POP PUSH1 0x40 MLOAD DUP1 SWAP2 SUB SWAP1 REVERT JUMPDEST PUSH2 0x14CF PUSH2 0x14C0 DUP5 PUSH2 0x15FD JUMP JUMPDEST PUSH2 0x14C9 DUP5 PUSH2 0x15FD JUMP JUMPDEST DUP4 PUSH2 0x1603 JUMP JUMPDEST POP POP POP JUMP JUMPDEST DUP2 PUSH1 0x14 ADD DUP4 MLOAD LT ISZERO PUSH2 0x1531 JUMPI PUSH1 0x40 MLOAD PUSH32 0x8C379A000000000000000000000000000000000000000000000000000000000 DUP2 MSTORE PUSH1 0x4 ADD DUP1 DUP1 PUSH1 0x20 ADD DUP3 DUP2 SUB DUP3 MSTORE PUSH1 0x26 DUP2 MSTORE PUSH1 0x20 ADD DUP1 PUSH2 0x1C35 PUSH1 0x26 SWAP2 CODECOPY PUSH1 0x40 ADD SWAP2 POP POP PUSH1 0x40 MLOAD DUP1 SWAP2 SUB SWAP1 REVERT JUMPDEST PUSH1 0x14 SWAP2 SWAP1 SWAP3 ADD ADD DUP1 MLOAD PUSH32 0xFFFFFFFFFFFFFFFFFFFFFFFF0000000000000000000000000000000000000000 AND PUSH20 0xFFFFFFFFFFFFFFFFFFFFFFFFFFFFFFFFFFFFFFFF SWAP1 SWAP3 AND SWAP2 SWAP1 SWAP2 XOR SWAP1 MSTORE JUMP JUMPDEST DUP1 MLOAD DUP3 PUSH1 0x20 ADD ADD DUP4 MLOAD LT ISZERO PUSH2 0x15DC JUMPI PUSH1 0x40 MLOAD PUSH32 0x8C379A000000000000000000000000000000000000000000000000000000000 DUP2 MSTORE PUSH1 0x4 ADD DUP1 DUP1 PUSH1 0x20 ADD DUP3 DUP2 SUB DUP3 MSTORE PUSH1 0x30 DUP2 MSTORE PUSH1 0x20 ADD DUP1 PUSH2 0x1B8E PUSH1 0x30 SWAP2 CODECOPY PUSH1 0x40 ADD SWAP2 POP POP PUSH1 0x40 MLOAD DUP1 SWAP2 SUB SWAP1 REVERT JUMPDEST PUSH2 0x14CF DUP3 PUSH2 0x15E9 DUP6 PUSH2 0x15FD JUMP JUMPDEST ADD PUSH2 0x15F3 DUP4 PUSH2 0x1B8A JUMP JUMPDEST DUP4 MLOAD PUSH1 0x20 ADD PUSH2 0x1603 JUMP JUMPDEST PUSH1 0x20 ADD SWAP1 JUMP JUMPDEST PUSH1 0x20 DUP2 LT ISZERO PUSH2 0x162D JUMPI PUSH1 0x1 DUP2 PUSH1 0x20 SUB PUSH2 0x100 EXP SUB DUP1 NOT DUP4 MLOAD AND DUP2 DUP6 MLOAD AND DUP1 DUP3 OR DUP7 MSTORE POP POP POP PUSH2 0x14CF JUMP JUMPDEST DUP3 DUP3 EQ ISZERO PUSH2 0x163A JUMPI PUSH2 0x14CF JUMP JUMPDEST DUP3 DUP3 GT ISZERO PUSH2 0x1674 JUMPI PUSH1 0x20 DUP2 SUB SWAP1 POP DUP1 DUP3 ADD DUP2 DUP5 ADD DUP2 MLOAD JUMPDEST DUP3 DUP6 LT ISZERO PUSH2 0x166C JUMPI DUP5 MLOAD DUP7 MSTORE PUSH1 0x20 SWAP6 DUP7 ADD SWAP6 SWAP1 SWAP5 ADD SWAP4 PUSH2 0x1651 JUMP JUMPDEST SWAP1 MSTORE POP PUSH2 0x14CF JUMP JUMPDEST PUSH1 0x20 DUP2 SUB SWAP1 POP DUP1 DUP3 ADD DUP2 DUP5 ADD DUP4 MLOAD JUMPDEST DUP2 DUP7 SLT ISZERO PUSH2 0x16BD JUMPI DUP3 MLOAD DUP3 MSTORE PUSH32 0xFFFFFFFFFFFFFFFFFFFFFFFFFFFFFFFFFFFFFFFFFFFFFFFFFFFFFFFFFFFFFFE0 SWAP3 DUP4 ADD SWAP3 SWAP1 SWAP2 ADD SWAP1 PUSH2 0x1683 JUMP JUMPDEST DUP6 MSTORE POP POP POP POP POP JUMP JUMPDEST PUSH1 0x0 DUP2 PUSH1 0x14 ADD DUP4 MLOAD LT ISZERO PUSH2 0x1725 JUMPI PUSH1 0x40 MLOAD PUSH32 0x8C379A000000000000000000000000000000000000000000000000000000000 DUP2 MSTORE PUSH1 0x4 ADD DUP1 DUP1 PUSH1 0x20 ADD DUP3 DUP2 SUB DUP3 MSTORE PUSH1 0x26 DUP2 MSTORE PUSH1 0x20 ADD DUP1 PUSH2 0x1C35 PUSH1 0x26 SWAP2 CODECOPY PUSH1 0x40 ADD SWAP2 POP POP PUSH1 0x40 MLOAD DUP1 SWAP2 SUB SWAP1 REVERT JUMPDEST POP ADD PUSH1 0x14 ADD MLOAD PUSH20 0xFFFFFFFFFFFFFFFFFFFFFFFFFFFFFFFFFFFFFFFF AND SWAP1 JUMP JUMPDEST DUP2 PUSH1 0x20 ADD DUP4 MLOAD LT ISZERO PUSH2 0x17A1 JUMPI PUSH1 0x40 MLOAD PUSH32 0x8C379A000000000000000000000000000000000000000000000000000000000 DUP2 MSTORE PUSH1 0x4 ADD DUP1 DUP1 PUSH1 0x20 ADD DUP3 DUP2 SUB DUP3 MSTORE PUSH1 0x26 DUP2 MSTORE PUSH1 0x20 ADD DUP1 PUSH2 0x1BBE PUSH1 0x26 SWAP2 CODECOPY PUSH1 0x40 ADD SWAP2 POP POP PUSH1 0x40 MLOAD DUP1 SWAP2 SUB SWAP1 REVERT JUMPDEST SWAP2 ADD PUSH1 0x20 ADD MSTORE JUMP JUMPDEST PUSH1 0x60 DUP2 DUP4 GT ISZERO PUSH2 0x181A JUMPI PUSH1 0x40 DUP1 MLOAD PUSH32 0x8C379A000000000000000000000000000000000000000000000000000000000 DUP2 MSTORE PUSH1 0x20 PUSH1 0x4 DUP3 ADD MSTORE PUSH1 0x1A PUSH1 0x24 DUP3 ADD MSTORE PUSH32 0x46524F4D5F4C4553535F5448414E5F544F5F5245515549524544000000000000 PUSH1 0x44 DUP3 ADD MSTORE SWAP1 MLOAD SWAP1 DUP2 SWAP1 SUB PUSH1 0x64 ADD SWAP1 REVERT JUMPDEST DUP4 MLOAD DUP3 GT ISZERO PUSH2 0x188A JUMPI PUSH1 0x40 DUP1 MLOAD PUSH32 0x8C379A000000000000000000000000000000000000000000000000000000000 DUP2 MSTORE PUSH1 0x20 PUSH1 0x4 DUP3 ADD MSTORE PUSH1 0x1C PUSH1 0x24 DUP3 ADD MSTORE PUSH32 0x544F5F4C4553535F5448414E5F4C454E4754485F524551554952454400000000 PUSH1 0x44 DUP3 ADD MSTORE SWAP1 MLOAD SWAP1 DUP2 SWAP1 SUB PUSH1 0x64 ADD SWAP1 REVERT JUMPDEST DUP3 DUP3 SUB PUSH1 0x40 MLOAD SWAP1 DUP1 DUP3 MSTORE DUP1 PUSH1 0x1F ADD PUSH1 0x1F NOT AND PUSH1 0x20 ADD DUP3 ADD PUSH1 0x40 MSTORE DUP1 ISZERO PUSH2 0x18B7 JUMPI PUSH1 0x20 DUP3 ADD DUP2 DUP1 CODESIZE DUP4 CODECOPY ADD SWAP1 POP JUMPDEST POP SWAP1 POP PUSH2 0x11BC PUSH2 0x18C6 DUP3 PUSH2 0x15FD JUMP JUMPDEST DUP5 PUSH2 0x18D0 DUP8 PUSH2 0x15FD JUMP JUMPDEST ADD DUP4 MLOAD PUSH2 0x1603 JUMP JUMPDEST PUSH1 0x0 PUSH1 0x14 DUP3 MLOAD LT ISZERO PUSH2 0x1935 JUMPI PUSH1 0x40 MLOAD PUSH32 0x8C379A000000000000000000000000000000000000000000000000000000000 DUP2 MSTORE PUSH1 0x4 ADD DUP1 DUP1 PUSH1 0x20 ADD DUP3 DUP2 SUB DUP3 MSTORE PUSH1 0x26 DUP2 MSTORE PUSH1 0x20 ADD DUP1 PUSH2 0x1C35 PUSH1 0x26 SWAP2 CODECOPY PUSH1 0x40 ADD SWAP2 POP POP PUSH1 0x40 MLOAD DUP1 SWAP2 SUB SWAP1 REVERT JUMPDEST PUSH2 0x1943 DUP3 PUSH1 0x14 DUP5 MLOAD SUB PUSH2 0x16C6 JUMP JUMPDEST DUP3 MLOAD PUSH32 0xFFFFFFFFFFFFFFFFFFFFFFFFFFFFFFFFFFFFFFFFFFFFFFFFFFFFFFFFFFFFFFEC ADD SWAP1 SWAP3 MSTORE POP SWAP1 JUMP JUMPDEST PUSH1 0x0 DUP2 MLOAD DUP4 MLOAD EQ DUP1 ISZERO PUSH2 0x11BC JUMPI POP DUP2 DUP1 MLOAD SWAP1 PUSH1 0x20 ADD KECCAK256 DUP4 DUP1 MLOAD SWAP1 PUSH1 0x20 ADD KECCAK256 EQ SWAP4 SWAP3 POP POP POP JUMP JUMPDEST PUSH2 0x14CF DUP4 DUP4 DUP4 PUSH2 0x1744 JUMP JUMPDEST PUSH1 0x0 DUP2 PUSH1 0x20 ADD DUP4 MLOAD LT ISZERO PUSH2 0x19FE JUMPI PUSH1 0x40 MLOAD PUSH32 0x8C379A000000000000000000000000000000000000000000000000000000000 DUP2 MSTORE PUSH1 0x4 ADD DUP1 DUP1 PUSH1 0x20 ADD DUP3 DUP2 SUB DUP3 MSTORE PUSH1 0x26 DUP2 MSTORE PUSH1 0x20 ADD DUP1 PUSH2 0x1BBE PUSH1 0x26 SWAP2 CODECOPY PUSH1 0x40 ADD SWAP2 POP POP PUSH1 0x40 MLOAD DUP1 SWAP2 SUB SWAP1 REVERT JUMPDEST POP ADD PUSH1 0x20 ADD MLOAD SWAP1 JUMP JUMPDEST PUSH1 0x60 DUP2 DUP4 GT ISZERO PUSH2 0x1A78 JUMPI PUSH1 0x40 DUP1 MLOAD PUSH32 0x8C379A000000000000000000000000000000000000000000000000000000000 DUP2 MSTORE PUSH1 0x20 PUSH1 0x4 DUP3 ADD MSTORE PUSH1 0x1A PUSH1 0x24 DUP3 ADD MSTORE PUSH32 0x46524F4D5F4C4553535F5448414E5F544F5F5245515549524544000000000000 PUSH1 0x44 DUP3 ADD MSTORE SWAP1 MLOAD SWAP1 DUP2 SWAP1 SUB PUSH1 0x64 ADD SWAP1 REVERT JUMPDEST DUP4 MLOAD DUP3 GT ISZERO PUSH2 0x1AE8 JUMPI PUSH1 0x40 DUP1 MLOAD PUSH32 0x8C379A000000000000000000000000000000000000000000000000000000000 DUP2 MSTORE PUSH1 0x20 PUSH1 0x4 DUP3 ADD MSTORE PUSH1 0x1C PUSH1 0x24 DUP3 ADD MSTORE PUSH32 0x544F5F4C4553535F5448414E5F4C454E4754485F524551554952454400000000 PUSH1 0x44 DUP3 ADD MSTORE SWAP1 MLOAD SWAP1 DUP2 SWAP1 SUB PUSH1 0x64 ADD SWAP1 REVERT JUMPDEST POP DUP2 SWAP1 SUB SWAP2 ADD SWAP1 DUP2 MSTORE SWAP1 JUMP JUMPDEST PUSH1 0x0 DUP2 PUSH1 0x4 ADD DUP4 MLOAD LT ISZERO PUSH2 0x1B53 JUMPI PUSH1 0x40 MLOAD PUSH32 0x8C379A000000000000000000000000000000000000000000000000000000000 DUP2 MSTORE PUSH1 0x4 ADD DUP1 DUP1 PUSH1 0x20 ADD DUP3 DUP2 SUB DUP3 MSTORE PUSH1 0x25 DUP2 MSTORE PUSH1 0x20 ADD DUP1 PUSH2 0x1C5B PUSH1 0x25 SWAP2 CODECOPY PUSH1 0x40 ADD SWAP2 POP POP PUSH1 0x40 MLOAD DUP1 SWAP2 SUB SWAP1 REVERT JUMPDEST POP ADD PUSH1 0x20 ADD MLOAD PUSH32 0xFFFFFFFF00000000000000000000000000000000000000000000000000000000 AND SWAP1 JUMP JUMPDEST PUSH1 0x0 PUSH2 0x11BC DUP4 DUP4 PUSH2 0x199F JUMP JUMPDEST SWAP1 JUMP INVALID 0x47 MSTORE GASLIMIT COINBASE SLOAD GASLIMIT MSTORE 0x5f 0x4f MSTORE 0x5f GASLIMIT MLOAD SSTORE COINBASE 0x4c 0x5f SLOAD 0x4f 0x5f 0x4e GASLIMIT MSTORE8 SLOAD GASLIMIT DIFFICULTY 0x5f TIMESTAMP MSIZE SLOAD GASLIMIT MSTORE8 0x5f 0x4c GASLIMIT 0x4e 0x47 SLOAD 0x48 0x5f MSTORE GASLIMIT MLOAD SSTORE 0x49 MSTORE GASLIMIT DIFFICULTY 0x47 MSTORE GASLIMIT COINBASE SLOAD GASLIMIT MSTORE 0x5f 0x4f MSTORE 0x5f GASLIMIT MLOAD SSTORE COINBASE 0x4c 0x5f SLOAD 0x4f 0x5f CALLER ORIGIN 0x5f 0x4c GASLIMIT 0x4e 0x47 SLOAD 0x48 0x5f MSTORE GASLIMIT MLOAD SSTORE 0x49 MSTORE GASLIMIT DIFFICULTY 0x47 MSTORE GASLIMIT COINBASE SLOAD GASLIMIT MSTORE 0x5f SLOAD 0x48 COINBASE 0x4e 0x5f GAS GASLIMIT MSTORE 0x4f 0x5f 0x4c GASLIMIT 0x4e 0x47 SLOAD 0x48 0x5f MSTORE GASLIMIT MLOAD SSTORE 0x49 MSTORE GASLIMIT DIFFICULTY 0x47 MSTORE GASLIMIT COINBASE SLOAD GASLIMIT MSTORE 0x5f 0x4f MSTORE 0x5f GASLIMIT MLOAD SSTORE COINBASE 0x4c 0x5f SLOAD 0x4f 0x5f MSTORE8 0x4f SSTORE MSTORE NUMBER GASLIMIT 0x5f TIMESTAMP MSIZE SLOAD GASLIMIT MSTORE8 0x5f 0x4c GASLIMIT 0x4e 0x47 SLOAD 0x48 0x5f MSTORE GASLIMIT MLOAD SSTORE 0x49 MSTORE GASLIMIT DIFFICULTY 0x47 MSTORE GASLIMIT COINBASE SLOAD GASLIMIT MSTORE 0x5f 0x4f MSTORE 0x5f GASLIMIT MLOAD SSTORE COINBASE 0x4c 0x5f SLOAD 0x4f 0x5f ORIGIN ADDRESS 0x5f 0x4c GASLIMIT 0x4e 0x47 SLOAD 0x48 0x5f MSTORE GASLIMIT MLOAD SSTORE 0x49 MSTORE GASLIMIT DIFFICULTY 0x47 MSTORE GASLIMIT COINBASE SLOAD GASLIMIT MSTORE 0x5f 0x4f MSTORE 0x5f GASLIMIT MLOAD SSTORE COINBASE 0x4c 0x5f SLOAD 0x4f 0x5f CALLVALUE 0x5f 0x4c GASLIMIT 0x4e 0x47 SLOAD 0x48 0x5f MSTORE GASLIMIT MLOAD SSTORE 0x49 MSTORE GASLIMIT DIFFICULTY LOG2 PUSH6 0x627A7A723058 KECCAK256 0xcf 0xda 0xc7 GT 0x23 DIFFICULTY SWAP6 0xc6 BALANCE PUSH8 0xA7F577F695A087E6 PUSH1 0xDD 0x4a 0xac 0x5e PUSH14 0x78BAA3ECD072E71E64736F6C6343 STOP SDIV EXP STOP ORIGIN "
			}
		}
	},
	"sourceTreeHashHex": "0x3ad5803ec9c23770ab965f85a19395351367c6851b096f2cd950ed274a13990b",
	"compiler": {
		"name": "solc",
		"version": "soljson-v0.5.10+commit.5a6ea5b1.js",
		"settings": {
			"optimizer": {
				"enabled": true,
				"runs": 1000000,
				"details": {
					"yul": true,
					"deduplicate": true,
					"cse": true,
					"constantOptimizer": true
				}
			},
			"outputSelection": {
				"*": {
					"*": [
						"abi",
						"devdoc",
						"evm.bytecode.object",
						"evm.bytecode.sourceMap",
						"evm.deployedBytecode.object",
						"evm.deployedBytecode.sourceMap"
					]
				}
			},
			"evmVersion": "constantinople",
			"remappings": []
		}
	}
}