{
	"schemaVersion": "2.0.0",
	"contractName": "LibTransactionDecoder",
	"compilerOutput": {
		"abi": [
			{
				"constant": true,
				"inputs": [
					{
						"name": "transactionData",
						"type": "bytes"
					}
				],
				"name": "decodeZeroExTransactionData",
				"outputs": [
					{
						"name": "functionName",
						"type": "string"
					},
					{
						"components": [
							{
								"name": "makerAddress",
								"type": "address"
							},
							{
								"name": "takerAddress",
								"type": "address"
							},
							{
								"name": "feeRecipientAddress",
								"type": "address"
							},
							{
								"name": "senderAddress",
								"type": "address"
							},
							{
								"name": "makerAssetAmount",
								"type": "uint256"
							},
							{
								"name": "takerAssetAmount",
								"type": "uint256"
							},
							{
								"name": "makerFee",
								"type": "uint256"
							},
							{
								"name": "takerFee",
								"type": "uint256"
							},
							{
								"name": "expirationTimeSeconds",
								"type": "uint256"
							},
							{
								"name": "salt",
								"type": "uint256"
							},
							{
								"name": "makerAssetData",
								"type": "bytes"
							},
							{
								"name": "takerAssetData",
								"type": "bytes"
							}
						],
						"name": "orders",
						"type": "tuple[]"
					},
					{
						"name": "takerAssetFillAmounts",
						"type": "uint256[]"
					},
					{
						"name": "signatures",
						"type": "bytes[]"
					}
				],
				"payable": false,
				"stateMutability": "pure",
				"type": "function"
			}
		],
		"evm": {
			"bytecode": {
				"linkReferences": {},
				"object": "0x608060405234801561001057600080fd5b50611d3e806100206000396000f3fe608060405234801561001057600080fd5b506004361061002b5760003560e01c80636f83188e14610030575b600080fd5b61004361003e3660046116fe565b61005c565b6040516100539493929190611a36565b60405180910390f35b60608080806000610073868263ffffffff610ee916565b90507fffffffff0000000000000000000000000000000000000000000000000000000081167f4ac147820000000000000000000000000000000000000000000000000000000014156100fc576040518060400160405280601181526020017f626174636843616e63656c4f72646572730000000000000000000000000000008152509450610853565b7fffffffff0000000000000000000000000000000000000000000000000000000081167f297bb70b000000000000000000000000000000000000000000000000000000001415610183576040518060400160405280600f81526020017f626174636846696c6c4f726465727300000000000000000000000000000000008152509450610853565b7fffffffff0000000000000000000000000000000000000000000000000000000081167f50dde19000000000000000000000000000000000000000000000000000000000141561020a576040518060400160405280601681526020017f626174636846696c6c4f72646572734e6f5468726f77000000000000000000008152509450610853565b7fffffffff0000000000000000000000000000000000000000000000000000000081167f4d0ae546000000000000000000000000000000000000000000000000000000001415610291576040518060400160405280601581526020017f626174636846696c6c4f724b696c6c4f726465727300000000000000000000008152509450610853565b7fffffffff0000000000000000000000000000000000000000000000000000000081167fd46b02c3000000000000000000000000000000000000000000000000000000001415610318576040518060400160405280600b81526020017f63616e63656c4f726465720000000000000000000000000000000000000000008152509450610853565b7fffffffff0000000000000000000000000000000000000000000000000000000081167fb4be83d500000000000000000000000000000000000000000000000000000000141561039f576040518060400160405280600981526020017f66696c6c4f7264657200000000000000000000000000000000000000000000008152509450610853565b7fffffffff0000000000000000000000000000000000000000000000000000000081167f3e228bae000000000000000000000000000000000000000000000000000000001415610426576040518060400160405280601081526020017f66696c6c4f726465724e6f5468726f77000000000000000000000000000000008152509450610853565b7fffffffff0000000000000000000000000000000000000000000000000000000081167f64a3bc150000000000000000000000000000000000000000000000000000000014156104ad576040518060400160405280600f81526020017f66696c6c4f724b696c6c4f7264657200000000000000000000000000000000008152509450610853565b7fffffffff0000000000000000000000000000000000000000000000000000000081167fe5fa431b000000000000000000000000000000000000000000000000000000001415610534576040518060400160405280600f81526020017f6d61726b65744275794f726465727300000000000000000000000000000000008152509450610853565b7fffffffff0000000000000000000000000000000000000000000000000000000081167fa3e203800000000000000000000000000000000000000000000000000000000014156105bb576040518060400160405280601681526020017f6d61726b65744275794f72646572734e6f5468726f77000000000000000000008152509450610853565b7fffffffff0000000000000000000000000000000000000000000000000000000081167f7e1d9808000000000000000000000000000000000000000000000000000000001415610642576040518060400160405280601081526020017f6d61726b657453656c6c4f7264657273000000000000000000000000000000008152509450610853565b7fffffffff0000000000000000000000000000000000000000000000000000000081167fdd1c7d180000000000000000000000000000000000000000000000000000000014156106c9576040518060400160405280601781526020017f6d61726b657453656c6c4f72646572734e6f5468726f770000000000000000008152509450610853565b7fffffffff0000000000000000000000000000000000000000000000000000000081167f3c28d861000000000000000000000000000000000000000000000000000000001415610750576040518060400160405280600b81526020017f6d617463684f72646572730000000000000000000000000000000000000000008152509450610853565b7fffffffff0000000000000000000000000000000000000000000000000000000081167f4f9559b10000000000000000000000000000000000000000000000000000000014806107e157507fffffffff0000000000000000000000000000000000000000000000000000000081167fbfc8bfce00000000000000000000000000000000000000000000000000000000145b15610821576040517f08c379a000000000000000000000000000000000000000000000000000000000815260040161081890611bb5565b60405180910390fd5b6040517f08c379a000000000000000000000000000000000000000000000000000000000815260040161081890611b7e565b7fffffffff0000000000000000000000000000000000000000000000000000000081167f4ac147820000000000000000000000000000000000000000000000000000000014156109105785516108b390879060049063ffffffff610f5e16565b8060200190516108c6919081019061158d565b604080516000808252602082019092529195505b5060408051600080825260208201909252919450610908565b60608152602001906001900390816108f35790505b509150610ee1565b7fffffffff0000000000000000000000000000000000000000000000000000000081167f4d0ae5460000000000000000000000000000000000000000000000000000000014806109a157507fffffffff0000000000000000000000000000000000000000000000000000000081167f50dde19000000000000000000000000000000000000000000000000000000000145b806109ed57507fffffffff0000000000000000000000000000000000000000000000000000000081167f297bb70b00000000000000000000000000000000000000000000000000000000145b15610a07576109fb8661102a565b91955093509150610ee1565b7fffffffff0000000000000000000000000000000000000000000000000000000081167fd46b02c3000000000000000000000000000000000000000000000000000000001415610b075760408051600180825281830190925290816020015b610a6e61129e565b815260200190600190039081610a665750508651909450610a9990879060049063ffffffff610f5e16565b806020019051610aac9190810190611775565b84600081518110610ab957fe5b602002602001018190525060006040519080825280602002602001820160405280156108da578160200160208202803883390190505060408051600080825260208201909252919450610908565b7fffffffff0000000000000000000000000000000000000000000000000000000081167f64a3bc15000000000000000000000000000000000000000000000000000000001480610b9857507fffffffff0000000000000000000000000000000000000000000000000000000081167fb4be83d500000000000000000000000000000000000000000000000000000000145b80610be457507fffffffff0000000000000000000000000000000000000000000000000000000081167f3e228bae00000000000000000000000000000000000000000000000000000000145b15610bf2576109fb86611066565b7fffffffff0000000000000000000000000000000000000000000000000000000081167fe5fa431b000000000000000000000000000000000000000000000000000000001480610c8357507fffffffff0000000000000000000000000000000000000000000000000000000081167fa3e2038000000000000000000000000000000000000000000000000000000000145b80610ccf57507fffffffff0000000000000000000000000000000000000000000000000000000081167f7e1d980800000000000000000000000000000000000000000000000000000000145b80610d1b57507fffffffff0000000000000000000000000000000000000000000000000000000081167fdd1c7d1800000000000000000000000000000000000000000000000000000000145b15610d29576109fb86611160565b7fffffffff0000000000000000000000000000000000000000000000000000000081167f3c28d861000000000000000000000000000000000000000000000000000000001415610ee157610d7b61129e565b610d8361129e565b606080610d9d60048b518c610f5e9092919063ffffffff16565b806020019051610db091908101906117aa565b604080516002808252606082019092529498509296509094509250816020015b610dd861129e565b815260200190600190039081610dd05790505097508388600081518110610dfb57fe5b60200260200101819052508288600181518110610e1457fe5b602090810291909101015260408051600280825260608201909252908160200160208202803883390190505096508360a0015187600081518110610e5457fe5b6020026020010181815250508260a0015187600181518110610e7257fe5b60209081029190910101526040805160028082526060820190925290816020015b6060815260200190600190039081610e935790505095508186600081518110610eb857fe5b60200260200101819052508086600181518110610ed157fe5b6020026020010181905250505050505b509193509193565b60008160040183511015610f29576040517f08c379a000000000000000000000000000000000000000000000000000000000815260040161081890611bec565b5060208183018101519101907fffffffff00000000000000000000000000000000000000000000000000000000165b92915050565b606081831115610f9a576040517f08c379a000000000000000000000000000000000000000000000000000000000815260040161081890611b10565b8351821115610fd5576040517f08c379a000000000000000000000000000000000000000000000000000000000815260040161081890611b47565b8282036040519080825280601f01601f191660200182016040528015611002576020820181803883390190505b509050611023611011826111d4565b8461101b876111d4565b0183516111da565b9392505050565b60608060606110466004855186610f5e9092919063ffffffff16565b80602001905161105991908101906115ca565b9196909550909350915050565b60408051600180825281830190925260609182918291816020015b61108961129e565b8152602001906001900390816110815750506040805160018082528183019092529194506020808301908038833901905050604080516001808252818301909252919350816020015b60608152602001906001900390816110d257505084519091506110ff90859060049063ffffffff610f5e16565b8060200190516111129190810190611852565b8560008151811061111f57fe5b602002602001018560008151811061113357fe5b602002602001018560008151811061114757fe5b6020908102919091010192909252919052529193909250565b60408051600180825281830190925260609182918291602080830190803883395050855191935061119c9186915060049063ffffffff610f5e16565b8060200190516111af91908101906116a8565b845185906000906111bc57fe5b60209081029190910101919091529095929450925050565b60200190565b6020811015611204576001816020036101000a038019835116818551168082178652505050611299565b8282141561121157611299565b8282111561124b5760208103905080820181840181515b82851015611243578451865260209586019590940193611228565b905250611299565b60208103905080820181840183515b8186121561129457825182527fffffffffffffffffffffffffffffffffffffffffffffffffffffffffffffffe0928301929091019061125a565b855250505b505050565b604051806101800160405280600073ffffffffffffffffffffffffffffffffffffffff168152602001600073ffffffffffffffffffffffffffffffffffffffff168152602001600073ffffffffffffffffffffffffffffffffffffffff168152602001600073ffffffffffffffffffffffffffffffffffffffff16815260200160008152602001600081526020016000815260200160008152602001600081526020016000815260200160608152602001606081525090565b805173ffffffffffffffffffffffffffffffffffffffff81168114610f5857600080fd5b600082601f83011261138b578081fd5b815161139e61139982611c70565b611c49565b8181529150602080830190840160005b838110156113db576113c68760208451890101611440565b835260209283019291909101906001016113ae565b5050505092915050565b600082601f8301126113f5578081fd5b815161140361139982611c70565b8181529150602080830190840160005b838110156113db5761142b876020845189010161148e565b83526020928301929190910190600101611413565b600082601f83011261145157600080fd5b815161145f61139982611c91565b915080825283602082850101111561147657600080fd5b611487816020840160208601611cd4565b5092915050565b60006101808083850312156114a1578182fd5b6114aa81611c49565b9150506114b78383611357565b81526114c68360208401611357565b60208201526114d88360408401611357565b60408201526114ea8360608401611357565b60608201526080820151608082015260a082015160a082015260c082015160c082015260e082015160e08201526101008083015181830152506101208083015181830152506101408083015167ffffffffffffffff8082111561154c57600080fd5b61155886838701611440565b8385015261016092508285015191508082111561157457600080fd5b5061158185828601611440565b82840152505092915050565b60006020828403121561159f57600080fd5b815167ffffffffffffffff8111156115b657600080fd5b6115c2848285016113e5565b949350505050565b6000806000606084860312156115de578182fd5b835167ffffffffffffffff808211156115f5578384fd5b611601878388016113e5565b9450602091508186015181811115611617578485fd5b80870188601f820112611628578586fd5b8051915061163861139983611c70565b82815284810190828601868502840187018c1015611654578889fd5b8893505b84841015611676578051835260019390930192918601918601611658565b5060408a015190975094505050508082111561169157600080fd5b5061169e8682870161137b565b9150509250925092565b6000806000606084860312156116bd57600080fd5b835167ffffffffffffffff808211156116d557600080fd5b6116e1878388016113e5565b945060208601519350604086015191508082111561169157600080fd5b60006020828403121561170f578081fd5b813567ffffffffffffffff811115611725578182fd5b80830184601f820112611736578283fd5b8035915061174661139983611c91565b82815285602084840101111561175a578384fd5b82602083016020830137918201602001929092529392505050565b60006020828403121561178757600080fd5b815167ffffffffffffffff81111561179e57600080fd5b6115c28482850161148e565b600080600080608085870312156117bf578081fd5b845167ffffffffffffffff808211156117d6578283fd5b6117e28883890161148e565b955060208701519150808211156117f7578283fd5b6118038883890161148e565b94506040870151915080821115611818578283fd5b61182488838901611440565b93506060870151915080821115611839578283fd5b5061184687828801611440565b91505092959194509250565b60008060006060848603121561186757600080fd5b835167ffffffffffffffff8082111561187f57600080fd5b61188b8783880161148e565b94506020860151935060408601519150808211156118a857600080fd5b5061169e86828701611440565b73ffffffffffffffffffffffffffffffffffffffff169052565b60008151808452602084019350836020820285016020850160005b84811015611918578383038852611902838351611924565b60209889019890935091909101906001016118ea565b50909695505050505050565b6000815180845261193c816020860160208601611cd4565b601f017fffffffffffffffffffffffffffffffffffffffffffffffffffffffffffffffe0169290920160200192915050565b600061018061197e8484516118b5565b602083015161199060208601826118b5565b5060408301516119a360408601826118b5565b5060608301516119b660608601826118b5565b506080830151608085015260a083015160a085015260c083015160c085015260e083015160e0850152610100808401518186015250610120808401518186015250610140808401518282870152611a0f83870182611924565b91505061016091508184015185820383870152611a2c8282611924565b9695505050505050565b600060808252611a496080830187611924565b602083820381850152818751808452828401915082838202850101838a0160005b83811015611ab6577fffffffffffffffffffffffffffffffffffffffffffffffffffffffffffffffe0878403018552611aa483835161196e565b94860194925090850190600101611a6a565b505086810360408801528851808252908401945091505081870160005b82811015611aef57815185529383019390830190600101611ad3565b505050508281036060840152611b0581856118cf565b979650505050505050565b6020808252601a908201527f46524f4d5f4c4553535f5448414e5f544f5f5245515549524544000000000000604082015260600190565b6020808252601c908201527f544f5f4c4553535f5448414e5f4c454e4754485f524551554952454400000000604082015260600190565b60208082526019908201527f554e4b4e4f574e5f46554e4354494f4e5f53454c4543544f5200000000000000604082015260600190565b6020808252600d908201527f554e494d504c454d454e54454400000000000000000000000000000000000000604082015260600190565b60208082526025908201527f475245415445525f4f525f455155414c5f544f5f345f4c454e4754485f52455160408201527f5549524544000000000000000000000000000000000000000000000000000000606082015260800190565b60405181810167ffffffffffffffff81118282101715611c6857600080fd5b604052919050565b600067ffffffffffffffff821115611c8757600080fd5b5060209081020190565b600067ffffffffffffffff821115611ca857600080fd5b50601f017fffffffffffffffffffffffffffffffffffffffffffffffffffffffffffffffe01660200190565b60005b83811015611cef578181015183820152602001611cd7565b83811115611cfe576000848401525b5050505056fea265627a7a7230582037e2090acb8949fa015a7019232548b81ebdb6c0fe05714b38a73ed4a4f446296c6578706572696d656e74616cf50037",
				"opcodes": "PUSH1 0x80 PUSH1 0x40 MSTORE CALLVALUE DUP1 ISZERO PUSH2 0x10 JUMPI PUSH1 0x0 DUP1 REVERT JUMPDEST POP PUSH2 0x1D3E DUP1 PUSH2 0x20 PUSH1 0x0 CODECOPY PUSH1 0x0 RETURN INVALID PUSH1 0x80 PUSH1 0x40 MSTORE CALLVALUE DUP1 ISZERO PUSH2 0x10 JUMPI PUSH1 0x0 DUP1 REVERT JUMPDEST POP PUSH1 0x4 CALLDATASIZE LT PUSH2 0x2B JUMPI PUSH1 0x0 CALLDATALOAD PUSH1 0xE0 SHR DUP1 PUSH4 0x6F83188E EQ PUSH2 0x30 JUMPI JUMPDEST PUSH1 0x0 DUP1 REVERT JUMPDEST PUSH2 0x43 PUSH2 0x3E CALLDATASIZE PUSH1 0x4 PUSH2 0x16FE JUMP JUMPDEST PUSH2 0x5C JUMP JUMPDEST PUSH1 0x40 MLOAD PUSH2 0x53 SWAP5 SWAP4 SWAP3 SWAP2 SWAP1 PUSH2 0x1A36 JUMP JUMPDEST PUSH1 0x40 MLOAD DUP1 SWAP2 SUB SWAP1 RETURN JUMPDEST PUSH1 0x60 DUP1 DUP1 DUP1 PUSH1 0x0 PUSH2 0x73 DUP7 DUP3 PUSH4 0xFFFFFFFF PUSH2 0xEE9 AND JUMP JUMPDEST SWAP1 POP PUSH32 0xFFFFFFFF00000000000000000000000000000000000000000000000000000000 DUP2 AND PUSH32 0x4AC1478200000000000000000000000000000000000000000000000000000000 EQ ISZERO PUSH2 0xFC JUMPI PUSH1 0x40 MLOAD DUP1 PUSH1 0x40 ADD PUSH1 0x40 MSTORE DUP1 PUSH1 0x11 DUP2 MSTORE PUSH1 0x20 ADD PUSH32 0x626174636843616E63656C4F7264657273000000000000000000000000000000 DUP2 MSTORE POP SWAP5 POP PUSH2 0x853 JUMP JUMPDEST PUSH32 0xFFFFFFFF00000000000000000000000000000000000000000000000000000000 DUP2 AND PUSH32 0x297BB70B00000000000000000000000000000000000000000000000000000000 EQ ISZERO PUSH2 0x183 JUMPI PUSH1 0x40 MLOAD DUP1 PUSH1 0x40 ADD PUSH1 0x40 MSTORE DUP1 PUSH1 0xF DUP2 MSTORE PUSH1 0x20 ADD PUSH32 0x626174636846696C6C4F72646572730000000000000000000000000000000000 DUP2 MSTORE POP SWAP5 POP PUSH2 0x853 JUMP JUMPDEST PUSH32 0xFFFFFFFF00000000000000000000000000000000000000000000000000000000 DUP2 AND PUSH32 0x50DDE19000000000000000000000000000000000000000000000000000000000 EQ ISZERO PUSH2 0x20A JUMPI PUSH1 0x40 MLOAD DUP1 PUSH1 0x40 ADD PUSH1 0x40 MSTORE DUP1 PUSH1 0x16 DUP2 MSTORE PUSH1 0x20 ADD PUSH32 0x626174636846696C6C4F72646572734E6F5468726F7700000000000000000000 DUP2 MSTORE POP SWAP5 POP PUSH2 0x853 JUMP JUMPDEST PUSH32 0xFFFFFFFF00000000000000000000000000000000000000000000000000000000 DUP2 AND PUSH32 0x4D0AE54600000000000000000000000000000000000000000000000000000000 EQ ISZERO PUSH2 0x291 JUMPI PUSH1 0x40 MLOAD DUP1 PUSH1 0x40 ADD PUSH1 0x40 MSTORE DUP1 PUSH1 0x15 DUP2 MSTORE PUSH1 0x20 ADD PUSH32 0x626174636846696C6C4F724B696C6C4F72646572730000000000000000000000 DUP2 MSTORE POP SWAP5 POP PUSH2 0x853 JUMP JUMPDEST PUSH32 0xFFFFFFFF00000000000000000000000000000000000000000000000000000000 DUP2 AND PUSH32 0xD46B02C300000000000000000000000000000000000000000000000000000000 EQ ISZERO PUSH2 0x318 JUMPI PUSH1 0x40 MLOAD DUP1 PUSH1 0x40 ADD PUSH1 0x40 MSTORE DUP1 PUSH1 0xB DUP2 MSTORE PUSH1 0x20 ADD PUSH32 0x63616E63656C4F72646572000000000000000000000000000000000000000000 DUP2 MSTORE POP SWAP5 POP PUSH2 0x853 JUMP JUMPDEST PUSH32 0xFFFFFFFF00000000000000000000000000000000000000000000000000000000 DUP2 AND PUSH32 0xB4BE83D500000000000000000000000000000000000000000000000000000000 EQ ISZERO PUSH2 0x39F JUMPI PUSH1 0x40 MLOAD DUP1 PUSH1 0x40 ADD PUSH1 0x40 MSTORE DUP1 PUSH1 0x9 DUP2 MSTORE PUSH1 0x20 ADD PUSH32 0x66696C6C4F726465720000000000000000000000000000000000000000000000 DUP2 MSTORE POP SWAP5 POP PUSH2 0x853 JUMP JUMPDEST PUSH32 0xFFFFFFFF00000000000000000000000000000000000000000000000000000000 DUP2 AND PUSH32 0x3E228BAE00000000000000000000000000000000000000000000000000000000 EQ ISZERO PUSH2 0x426 JUMPI PUSH1 0x40 MLOAD DUP1 PUSH1 0x40 ADD PUSH1 0x40 MSTORE DUP1 PUSH1 0x10 DUP2 MSTORE PUSH1 0x20 ADD PUSH32 0x66696C6C4F726465724E6F5468726F7700000000000000000000000000000000 DUP2 MSTORE POP SWAP5 POP PUSH2 0x853 JUMP JUMPDEST PUSH32 0xFFFFFFFF00000000000000000000000000000000000000000000000000000000 DUP2 AND PUSH32 0x64A3BC1500000000000000000000000000000000000000000000000000000000 EQ ISZERO PUSH2 0x4AD JUMPI PUSH1 0x40 MLOAD DUP1 PUSH1 0x40 ADD PUSH1 0x40 MSTORE DUP1 PUSH1 0xF DUP2 MSTORE PUSH1 0x20 ADD PUSH32 0x66696C6C4F724B696C6C4F726465720000000000000000000000000000000000 DUP2 MSTORE POP SWAP5 POP PUSH2 0x853 JUMP JUMPDEST PUSH32 0xFFFFFFFF00000000000000000000000000000000000000000000000000000000 DUP2 AND PUSH32 0xE5FA431B00000000000000000000000000000000000000000000000000000000 EQ ISZERO PUSH2 0x534 JUMPI PUSH1 0x40 MLOAD DUP1 PUSH1 0x40 ADD PUSH1 0x40 MSTORE DUP1 PUSH1 0xF DUP2 MSTORE PUSH1 0x20 ADD PUSH32 0x6D61726B65744275794F72646572730000000000000000000000000000000000 DUP2 MSTORE POP SWAP5 POP PUSH2 0x853 JUMP JUMPDEST PUSH32 0xFFFFFFFF00000000000000000000000000000000000000000000000000000000 DUP2 AND PUSH32 0xA3E2038000000000000000000000000000000000000000000000000000000000 EQ ISZERO PUSH2 0x5BB JUMPI PUSH1 0x40 MLOAD DUP1 PUSH1 0x40 ADD PUSH1 0x40 MSTORE DUP1 PUSH1 0x16 DUP2 MSTORE PUSH1 0x20 ADD PUSH32 0x6D61726B65744275794F72646572734E6F5468726F7700000000000000000000 DUP2 MSTORE POP SWAP5 POP PUSH2 0x853 JUMP JUMPDEST PUSH32 0xFFFFFFFF00000000000000000000000000000000000000000000000000000000 DUP2 AND PUSH32 0x7E1D980800000000000000000000000000000000000000000000000000000000 EQ ISZERO PUSH2 0x642 JUMPI PUSH1 0x40 MLOAD DUP1 PUSH1 0x40 ADD PUSH1 0x40 MSTORE DUP1 PUSH1 0x10 DUP2 MSTORE PUSH1 0x20 ADD PUSH32 0x6D61726B657453656C6C4F726465727300000000000000000000000000000000 DUP2 MSTORE POP SWAP5 POP PUSH2 0x853 JUMP JUMPDEST PUSH32 0xFFFFFFFF00000000000000000000000000000000000000000000000000000000 DUP2 AND PUSH32 0xDD1C7D1800000000000000000000000000000000000000000000000000000000 EQ ISZERO PUSH2 0x6C9 JUMPI PUSH1 0x40 MLOAD DUP1 PUSH1 0x40 ADD PUSH1 0x40 MSTORE DUP1 PUSH1 0x17 DUP2 MSTORE PUSH1 0x20 ADD PUSH32 0x6D61726B657453656C6C4F72646572734E6F5468726F77000000000000000000 DUP2 MSTORE POP SWAP5 POP PUSH2 0x853 JUMP JUMPDEST PUSH32 0xFFFFFFFF00000000000000000000000000000000000000000000000000000000 DUP2 AND PUSH32 0x3C28D86100000000000000000000000000000000000000000000000000000000 EQ ISZERO PUSH2 0x750 JUMPI PUSH1 0x40 MLOAD DUP1 PUSH1 0x40 ADD PUSH1 0x40 MSTORE DUP1 PUSH1 0xB DUP2 MSTORE PUSH1 0x20 ADD PUSH32 0x6D617463684F7264657273000000000000000000000000000000000000000000 DUP2 MSTORE POP SWAP5 POP PUSH2 0x853 JUMP JUMPDEST PUSH32 0xFFFFFFFF00000000000000000000000000000000000000000000000000000000 DUP2 AND PUSH32 0x4F9559B100000000000000000000000000000000000000000000000000000000 EQ DUP1 PUSH2 0x7E1 JUMPI POP PUSH32 0xFFFFFFFF00000000000000000000000000000000000000000000000000000000 DUP2 AND PUSH32 0xBFC8BFCE00000000000000000000000000000000000000000000000000000000 EQ JUMPDEST ISZERO PUSH2 0x821 JUMPI PUSH1 0x40 MLOAD PUSH32 0x8C379A000000000000000000000000000000000000000000000000000000000 DUP2 MSTORE PUSH1 0x4 ADD PUSH2 0x818 SWAP1 PUSH2 0x1BB5 JUMP JUMPDEST PUSH1 0x40 MLOAD DUP1 SWAP2 SUB SWAP1 REVERT JUMPDEST PUSH1 0x40 MLOAD PUSH32 0x8C379A000000000000000000000000000000000000000000000000000000000 DUP2 MSTORE PUSH1 0x4 ADD PUSH2 0x818 SWAP1 PUSH2 0x1B7E JUMP JUMPDEST PUSH32 0xFFFFFFFF00000000000000000000000000000000000000000000000000000000 DUP2 AND PUSH32 0x4AC1478200000000000000000000000000000000000000000000000000000000 EQ ISZERO PUSH2 0x910 JUMPI DUP6 MLOAD PUSH2 0x8B3 SWAP1 DUP8 SWAP1 PUSH1 0x4 SWAP1 PUSH4 0xFFFFFFFF PUSH2 0xF5E AND JUMP JUMPDEST DUP1 PUSH1 0x20 ADD SWAP1 MLOAD PUSH2 0x8C6 SWAP2 SWAP1 DUP2 ADD SWAP1 PUSH2 0x158D JUMP JUMPDEST PUSH1 0x40 DUP1 MLOAD PUSH1 0x0 DUP1 DUP3 MSTORE PUSH1 0x20 DUP3 ADD SWAP1 SWAP3 MSTORE SWAP2 SWAP6 POP JUMPDEST POP PUSH1 0x40 DUP1 MLOAD PUSH1 0x0 DUP1 DUP3 MSTORE PUSH1 0x20 DUP3 ADD SWAP1 SWAP3 MSTORE SWAP2 SWAP5 POP PUSH2 0x908 JUMP JUMPDEST PUSH1 0x60 DUP2 MSTORE PUSH1 0x20 ADD SWAP1 PUSH1 0x1 SWAP1 SUB SWAP1 DUP2 PUSH2 0x8F3 JUMPI SWAP1 POP JUMPDEST POP SWAP2 POP PUSH2 0xEE1 JUMP JUMPDEST PUSH32 0xFFFFFFFF00000000000000000000000000000000000000000000000000000000 DUP2 AND PUSH32 0x4D0AE54600000000000000000000000000000000000000000000000000000000 EQ DUP1 PUSH2 0x9A1 JUMPI POP PUSH32 0xFFFFFFFF00000000000000000000000000000000000000000000000000000000 DUP2 AND PUSH32 0x50DDE19000000000000000000000000000000000000000000000000000000000 EQ JUMPDEST DUP1 PUSH2 0x9ED JUMPI POP PUSH32 0xFFFFFFFF00000000000000000000000000000000000000000000000000000000 DUP2 AND PUSH32 0x297BB70B00000000000000000000000000000000000000000000000000000000 EQ JUMPDEST ISZERO PUSH2 0xA07 JUMPI PUSH2 0x9FB DUP7 PUSH2 0x102A JUMP JUMPDEST SWAP2 SWAP6 POP SWAP4 POP SWAP2 POP PUSH2 0xEE1 JUMP JUMPDEST PUSH32 0xFFFFFFFF00000000000000000000000000000000000000000000000000000000 DUP2 AND PUSH32 0xD46B02C300000000000000000000000000000000000000000000000000000000 EQ ISZERO PUSH2 0xB07 JUMPI PUSH1 0x40 DUP1 MLOAD PUSH1 0x1 DUP1 DUP3 MSTORE DUP2 DUP4 ADD SWAP1 SWAP3 MSTORE SWAP1 DUP2 PUSH1 0x20 ADD JUMPDEST PUSH2 0xA6E PUSH2 0x129E JUMP JUMPDEST DUP2 MSTORE PUSH1 0x20 ADD SWAP1 PUSH1 0x1 SWAP1 SUB SWAP1 DUP2 PUSH2 0xA66 JUMPI POP POP DUP7 MLOAD SWAP1 SWAP5 POP PUSH2 0xA99 SWAP1 DUP8 SWAP1 PUSH1 0x4 SWAP1 PUSH4 0xFFFFFFFF PUSH2 0xF5E AND JUMP JUMPDEST DUP1 PUSH1 0x20 ADD SWAP1 MLOAD PUSH2 0xAAC SWAP2 SWAP1 DUP2 ADD SWAP1 PUSH2 0x1775 JUMP JUMPDEST DUP5 PUSH1 0x0 DUP2 MLOAD DUP2 LT PUSH2 0xAB9 JUMPI INVALID JUMPDEST PUSH1 0x20 MUL PUSH1 0x20 ADD ADD DUP2 SWAP1 MSTORE POP PUSH1 0x0 PUSH1 0x40 MLOAD SWAP1 DUP1 DUP3 MSTORE DUP1 PUSH1 0x20 MUL PUSH1 0x20 ADD DUP3 ADD PUSH1 0x40 MSTORE DUP1 ISZERO PUSH2 0x8DA JUMPI DUP2 PUSH1 0x20 ADD PUSH1 0x20 DUP3 MUL DUP1 CODESIZE DUP4 CODECOPY ADD SWAP1 POP POP PUSH1 0x40 DUP1 MLOAD PUSH1 0x0 DUP1 DUP3 MSTORE PUSH1 0x20 DUP3 ADD SWAP1 SWAP3 MSTORE SWAP2 SWAP5 POP PUSH2 0x908 JUMP JUMPDEST PUSH32 0xFFFFFFFF00000000000000000000000000000000000000000000000000000000 DUP2 AND PUSH32 0x64A3BC1500000000000000000000000000000000000000000000000000000000 EQ DUP1 PUSH2 0xB98 JUMPI POP PUSH32 0xFFFFFFFF00000000000000000000000000000000000000000000000000000000 DUP2 AND PUSH32 0xB4BE83D500000000000000000000000000000000000000000000000000000000 EQ JUMPDEST DUP1 PUSH2 0xBE4 JUMPI POP PUSH32 0xFFFFFFFF00000000000000000000000000000000000000000000000000000000 DUP2 AND PUSH32 0x3E228BAE00000000000000000000000000000000000000000000000000000000 EQ JUMPDEST ISZERO PUSH2 0xBF2 JUMPI PUSH2 0x9FB DUP7 PUSH2 0x1066 JUMP JUMPDEST PUSH32 0xFFFFFFFF00000000000000000000000000000000000000000000000000000000 DUP2 AND PUSH32 0xE5FA431B00000000000000000000000000000000000000000000000000000000 EQ DUP1 PUSH2 0xC83 JUMPI POP PUSH32 0xFFFFFFFF00000000000000000000000000000000000000000000000000000000 DUP2 AND PUSH32 0xA3E2038000000000000000000000000000000000000000000000000000000000 EQ JUMPDEST DUP1 PUSH2 0xCCF JUMPI POP PUSH32 0xFFFFFFFF00000000000000000000000000000000000000000000000000000000 DUP2 AND PUSH32 0x7E1D980800000000000000000000000000000000000000000000000000000000 EQ JUMPDEST DUP1 PUSH2 0xD1B JUMPI POP PUSH32 0xFFFFFFFF00000000000000000000000000000000000000000000000000000000 DUP2 AND PUSH32 0xDD1C7D1800000000000000000000000000000000000000000000000000000000 EQ JUMPDEST ISZERO PUSH2 0xD29 JUMPI PUSH2 0x9FB DUP7 PUSH2 0x1160 JUMP JUMPDEST PUSH32 0xFFFFFFFF00000000000000000000000000000000000000000000000000000000 DUP2 AND PUSH32 0x3C28D86100000000000000000000000000000000000000000000000000000000 EQ ISZERO PUSH2 0xEE1 JUMPI PUSH2 0xD7B PUSH2 0x129E JUMP JUMPDEST PUSH2 0xD83 PUSH2 0x129E JUMP JUMPDEST PUSH1 0x60 DUP1 PUSH2 0xD9D PUSH1 0x4 DUP12 MLOAD DUP13 PUSH2 0xF5E SWAP1 SWAP3 SWAP2 SWAP1 PUSH4 0xFFFFFFFF AND JUMP JUMPDEST DUP1 PUSH1 0x20 ADD SWAP1 MLOAD PUSH2 0xDB0 SWAP2 SWAP1 DUP2 ADD SWAP1 PUSH2 0x17AA JUMP JUMPDEST PUSH1 0x40 DUP1 MLOAD PUSH1 0x2 DUP1 DUP3 MSTORE PUSH1 0x60 DUP3 ADD SWAP1 SWAP3 MSTORE SWAP5 SWAP9 POP SWAP3 SWAP7 POP SWAP1 SWAP5 POP SWAP3 POP DUP2 PUSH1 0x20 ADD JUMPDEST PUSH2 0xDD8 PUSH2 0x129E JUMP JUMPDEST DUP2 MSTORE PUSH1 0x20 ADD SWAP1 PUSH1 0x1 SWAP1 SUB SWAP1 DUP2 PUSH2 0xDD0 JUMPI SWAP1 POP POP SWAP8 POP DUP4 DUP9 PUSH1 0x0 DUP2 MLOAD DUP2 LT PUSH2 0xDFB JUMPI INVALID JUMPDEST PUSH1 0x20 MUL PUSH1 0x20 ADD ADD DUP2 SWAP1 MSTORE POP DUP3 DUP9 PUSH1 0x1 DUP2 MLOAD DUP2 LT PUSH2 0xE14 JUMPI INVALID JUMPDEST PUSH1 0x20 SWAP1 DUP2 MUL SWAP2 SWAP1 SWAP2 ADD ADD MSTORE PUSH1 0x40 DUP1 MLOAD PUSH1 0x2 DUP1 DUP3 MSTORE PUSH1 0x60 DUP3 ADD SWAP1 SWAP3 MSTORE SWAP1 DUP2 PUSH1 0x20 ADD PUSH1 0x20 DUP3 MUL DUP1 CODESIZE DUP4 CODECOPY ADD SWAP1 POP POP SWAP7 POP DUP4 PUSH1 0xA0 ADD MLOAD DUP8 PUSH1 0x0 DUP2 MLOAD DUP2 LT PUSH2 0xE54 JUMPI INVALID JUMPDEST PUSH1 0x20 MUL PUSH1 0x20 ADD ADD DUP2 DUP2 MSTORE POP POP DUP3 PUSH1 0xA0 ADD MLOAD DUP8 PUSH1 0x1 DUP2 MLOAD DUP2 LT PUSH2 0xE72 JUMPI INVALID JUMPDEST PUSH1 0x20 SWAP1 DUP2 MUL SWAP2 SWAP1 SWAP2 ADD ADD MSTORE PUSH1 0x40 DUP1 MLOAD PUSH1 0x2 DUP1 DUP3 MSTORE PUSH1 0x60 DUP3 ADD SWAP1 SWAP3 MSTORE SWAP1 DUP2 PUSH1 0x20 ADD JUMPDEST PUSH1 0x60 DUP2 MSTORE PUSH1 0x20 ADD SWAP1 PUSH1 0x1 SWAP1 SUB SWAP1 DUP2 PUSH2 0xE93 JUMPI SWAP1 POP POP SWAP6 POP DUP2 DUP7 PUSH1 0x0 DUP2 MLOAD DUP2 LT PUSH2 0xEB8 JUMPI INVALID JUMPDEST PUSH1 0x20 MUL PUSH1 0x20 ADD ADD DUP2 SWAP1 MSTORE POP DUP1 DUP7 PUSH1 0x1 DUP2 MLOAD DUP2 LT PUSH2 0xED1 JUMPI INVALID JUMPDEST PUSH1 0x20 MUL PUSH1 0x20 ADD ADD DUP2 SWAP1 MSTORE POP POP POP POP POP JUMPDEST POP SWAP2 SWAP4 POP SWAP2 SWAP4 JUMP JUMPDEST PUSH1 0x0 DUP2 PUSH1 0x4 ADD DUP4 MLOAD LT ISZERO PUSH2 0xF29 JUMPI PUSH1 0x40 MLOAD PUSH32 0x8C379A000000000000000000000000000000000000000000000000000000000 DUP2 MSTORE PUSH1 0x4 ADD PUSH2 0x818 SWAP1 PUSH2 0x1BEC JUMP JUMPDEST POP PUSH1 0x20 DUP2 DUP4 ADD DUP2 ADD MLOAD SWAP2 ADD SWAP1 PUSH32 0xFFFFFFFF00000000000000000000000000000000000000000000000000000000 AND JUMPDEST SWAP3 SWAP2 POP POP JUMP JUMPDEST PUSH1 0x60 DUP2 DUP4 GT ISZERO PUSH2 0xF9A JUMPI PUSH1 0x40 MLOAD PUSH32 0x8C379A000000000000000000000000000000000000000000000000000000000 DUP2 MSTORE PUSH1 0x4 ADD PUSH2 0x818 SWAP1 PUSH2 0x1B10 JUMP JUMPDEST DUP4 MLOAD DUP3 GT ISZERO PUSH2 0xFD5 JUMPI PUSH1 0x40 MLOAD PUSH32 0x8C379A000000000000000000000000000000000000000000000000000000000 DUP2 MSTORE PUSH1 0x4 ADD PUSH2 0x818 SWAP1 PUSH2 0x1B47 JUMP JUMPDEST DUP3 DUP3 SUB PUSH1 0x40 MLOAD SWAP1 DUP1 DUP3 MSTORE DUP1 PUSH1 0x1F ADD PUSH1 0x1F NOT AND PUSH1 0x20 ADD DUP3 ADD PUSH1 0x40 MSTORE DUP1 ISZERO PUSH2 0x1002 JUMPI PUSH1 0x20 DUP3 ADD DUP2 DUP1 CODESIZE DUP4 CODECOPY ADD SWAP1 POP JUMPDEST POP SWAP1 POP PUSH2 0x1023 PUSH2 0x1011 DUP3 PUSH2 0x11D4 JUMP JUMPDEST DUP5 PUSH2 0x101B DUP8 PUSH2 0x11D4 JUMP JUMPDEST ADD DUP4 MLOAD PUSH2 0x11DA JUMP JUMPDEST SWAP4 SWAP3 POP POP POP JUMP JUMPDEST PUSH1 0x60 DUP1 PUSH1 0x60 PUSH2 0x1046 PUSH1 0x4 DUP6 MLOAD DUP7 PUSH2 0xF5E SWAP1 SWAP3 SWAP2 SWAP1 PUSH4 0xFFFFFFFF AND JUMP JUMPDEST DUP1 PUSH1 0x20 ADD SWAP1 MLOAD PUSH2 0x1059 SWAP2 SWAP1 DUP2 ADD SWAP1 PUSH2 0x15CA JUMP JUMPDEST SWAP2 SWAP7 SWAP1 SWAP6 POP SWAP1 SWAP4 POP SWAP2 POP POP JUMP JUMPDEST PUSH1 0x40 DUP1 MLOAD PUSH1 0x1 DUP1 DUP3 MSTORE DUP2 DUP4 ADD SWAP1 SWAP3 MSTORE PUSH1 0x60 SWAP2 DUP3 SWAP2 DUP3 SWAP2 DUP2 PUSH1 0x20 ADD JUMPDEST PUSH2 0x1089 PUSH2 0x129E JUMP JUMPDEST DUP2 MSTORE PUSH1 0x20 ADD SWAP1 PUSH1 0x1 SWAP1 SUB SWAP1 DUP2 PUSH2 0x1081 JUMPI POP POP PUSH1 0x40 DUP1 MLOAD PUSH1 0x1 DUP1 DUP3 MSTORE DUP2 DUP4 ADD SWAP1 SWAP3 MSTORE SWAP2 SWAP5 POP PUSH1 0x20 DUP1 DUP4 ADD SWAP1 DUP1 CODESIZE DUP4 CODECOPY ADD SWAP1 POP POP PUSH1 0x40 DUP1 MLOAD PUSH1 0x1 DUP1 DUP3 MSTORE DUP2 DUP4 ADD SWAP1 SWAP3 MSTORE SWAP2 SWAP4 POP DUP2 PUSH1 0x20 ADD JUMPDEST PUSH1 0x60 DUP2 MSTORE PUSH1 0x20 ADD SWAP1 PUSH1 0x1 SWAP1 SUB SWAP1 DUP2 PUSH2 0x10D2 JUMPI POP POP DUP5 MLOAD SWAP1 SWAP2 POP PUSH2 0x10FF SWAP1 DUP6 SWAP1 PUSH1 0x4 SWAP1 PUSH4 0xFFFFFFFF PUSH2 0xF5E AND JUMP JUMPDEST DUP1 PUSH1 0x20 ADD SWAP1 MLOAD PUSH2 0x1112 SWAP2 SWAP1 DUP2 ADD SWAP1 PUSH2 0x1852 JUMP JUMPDEST DUP6 PUSH1 0x0 DUP2 MLOAD DUP2 LT PUSH2 0x111F JUMPI INVALID JUMPDEST PUSH1 0x20 MUL PUSH1 0x20 ADD ADD DUP6 PUSH1 0x0 DUP2 MLOAD DUP2 LT PUSH2 0x1133 JUMPI INVALID JUMPDEST PUSH1 0x20 MUL PUSH1 0x20 ADD ADD DUP6 PUSH1 0x0 DUP2 MLOAD DUP2 LT PUSH2 0x1147 JUMPI INVALID JUMPDEST PUSH1 0x20 SWAP1 DUP2 MUL SWAP2 SWAP1 SWAP2 ADD ADD SWAP3 SWAP1 SWAP3 MSTORE SWAP2 SWAP1 MSTORE MSTORE SWAP2 SWAP4 SWAP1 SWAP3 POP JUMP JUMPDEST PUSH1 0x40 DUP1 MLOAD PUSH1 0x1 DUP1 DUP3 MSTORE DUP2 DUP4 ADD SWAP1 SWAP3 MSTORE PUSH1 0x60 SWAP2 DUP3 SWAP2 DUP3 SWAP2 PUSH1 0x20 DUP1 DUP4 ADD SWAP1 DUP1 CODESIZE DUP4 CODECOPY POP POP DUP6 MLOAD SWAP2 SWAP4 POP PUSH2 0x119C SWAP2 DUP7 SWAP2 POP PUSH1 0x4 SWAP1 PUSH4 0xFFFFFFFF PUSH2 0xF5E AND JUMP JUMPDEST DUP1 PUSH1 0x20 ADD SWAP1 MLOAD PUSH2 0x11AF SWAP2 SWAP1 DUP2 ADD SWAP1 PUSH2 0x16A8 JUMP JUMPDEST DUP5 MLOAD DUP6 SWAP1 PUSH1 0x0 SWAP1 PUSH2 0x11BC JUMPI INVALID JUMPDEST PUSH1 0x20 SWAP1 DUP2 MUL SWAP2 SWAP1 SWAP2 ADD ADD SWAP2 SWAP1 SWAP2 MSTORE SWAP1 SWAP6 SWAP3 SWAP5 POP SWAP3 POP POP JUMP JUMPDEST PUSH1 0x20 ADD SWAP1 JUMP JUMPDEST PUSH1 0x20 DUP2 LT ISZERO PUSH2 0x1204 JUMPI PUSH1 0x1 DUP2 PUSH1 0x20 SUB PUSH2 0x100 EXP SUB DUP1 NOT DUP4 MLOAD AND DUP2 DUP6 MLOAD AND DUP1 DUP3 OR DUP7 MSTORE POP POP POP PUSH2 0x1299 JUMP JUMPDEST DUP3 DUP3 EQ ISZERO PUSH2 0x1211 JUMPI PUSH2 0x1299 JUMP JUMPDEST DUP3 DUP3 GT ISZERO PUSH2 0x124B JUMPI PUSH1 0x20 DUP2 SUB SWAP1 POP DUP1 DUP3 ADD DUP2 DUP5 ADD DUP2 MLOAD JUMPDEST DUP3 DUP6 LT ISZERO PUSH2 0x1243 JUMPI DUP5 MLOAD DUP7 MSTORE PUSH1 0x20 SWAP6 DUP7 ADD SWAP6 SWAP1 SWAP5 ADD SWAP4 PUSH2 0x1228 JUMP JUMPDEST SWAP1 MSTORE POP PUSH2 0x1299 JUMP JUMPDEST PUSH1 0x20 DUP2 SUB SWAP1 POP DUP1 DUP3 ADD DUP2 DUP5 ADD DUP4 MLOAD JUMPDEST DUP2 DUP7 SLT ISZERO PUSH2 0x1294 JUMPI DUP3 MLOAD DUP3 MSTORE PUSH32 0xFFFFFFFFFFFFFFFFFFFFFFFFFFFFFFFFFFFFFFFFFFFFFFFFFFFFFFFFFFFFFFE0 SWAP3 DUP4 ADD SWAP3 SWAP1 SWAP2 ADD SWAP1 PUSH2 0x125A JUMP JUMPDEST DUP6 MSTORE POP POP JUMPDEST POP POP POP JUMP JUMPDEST PUSH1 0x40 MLOAD DUP1 PUSH2 0x180 ADD PUSH1 0x40 MSTORE DUP1 PUSH1 0x0 PUSH20 0xFFFFFFFFFFFFFFFFFFFFFFFFFFFFFFFFFFFFFFFF AND DUP2 MSTORE PUSH1 0x20 ADD PUSH1 0x0 PUSH20 0xFFFFFFFFFFFFFFFFFFFFFFFFFFFFFFFFFFFFFFFF AND DUP2 MSTORE PUSH1 0x20 ADD PUSH1 0x0 PUSH20 0xFFFFFFFFFFFFFFFFFFFFFFFFFFFFFFFFFFFFFFFF AND DUP2 MSTORE PUSH1 0x20 ADD PUSH1 0x0 PUSH20 0xFFFFFFFFFFFFFFFFFFFFFFFFFFFFFFFFFFFFFFFF AND DUP2 MSTORE PUSH1 0x20 ADD PUSH1 0x0 DUP2 MSTORE PUSH1 0x20 ADD PUSH1 0x0 DUP2 MSTORE PUSH1 0x20 ADD PUSH1 0x0 DUP2 MSTORE PUSH1 0x20 ADD PUSH1 0x0 DUP2 MSTORE PUSH1 0x20 ADD PUSH1 0x0 DUP2 MSTORE PUSH1 0x20 ADD PUSH1 0x0 DUP2 MSTORE PUSH1 0x20 ADD PUSH1 0x60 DUP2 MSTORE PUSH1 0x20 ADD PUSH1 0x60 DUP2 MSTORE POP SWAP1 JUMP JUMPDEST DUP1 MLOAD PUSH20 0xFFFFFFFFFFFFFFFFFFFFFFFFFFFFFFFFFFFFFFFF DUP2 AND DUP2 EQ PUSH2 0xF58 JUMPI PUSH1 0x0 DUP1 REVERT JUMPDEST PUSH1 0x0 DUP3 PUSH1 0x1F DUP4 ADD SLT PUSH2 0x138B JUMPI DUP1 DUP2 REVERT JUMPDEST DUP2 MLOAD PUSH2 0x139E PUSH2 0x1399 DUP3 PUSH2 0x1C70 JUMP JUMPDEST PUSH2 0x1C49 JUMP JUMPDEST DUP2 DUP2 MSTORE SWAP2 POP PUSH1 0x20 DUP1 DUP4 ADD SWAP1 DUP5 ADD PUSH1 0x0 JUMPDEST DUP4 DUP2 LT ISZERO PUSH2 0x13DB JUMPI PUSH2 0x13C6 DUP8 PUSH1 0x20 DUP5 MLOAD DUP10 ADD ADD PUSH2 0x1440 JUMP JUMPDEST DUP4 MSTORE PUSH1 0x20 SWAP3 DUP4 ADD SWAP3 SWAP2 SWAP1 SWAP2 ADD SWAP1 PUSH1 0x1 ADD PUSH2 0x13AE JUMP JUMPDEST POP POP POP POP SWAP3 SWAP2 POP POP JUMP JUMPDEST PUSH1 0x0 DUP3 PUSH1 0x1F DUP4 ADD SLT PUSH2 0x13F5 JUMPI DUP1 DUP2 REVERT JUMPDEST DUP2 MLOAD PUSH2 0x1403 PUSH2 0x1399 DUP3 PUSH2 0x1C70 JUMP JUMPDEST DUP2 DUP2 MSTORE SWAP2 POP PUSH1 0x20 DUP1 DUP4 ADD SWAP1 DUP5 ADD PUSH1 0x0 JUMPDEST DUP4 DUP2 LT ISZERO PUSH2 0x13DB JUMPI PUSH2 0x142B DUP8 PUSH1 0x20 DUP5 MLOAD DUP10 ADD ADD PUSH2 0x148E JUMP JUMPDEST DUP4 MSTORE PUSH1 0x20 SWAP3 DUP4 ADD SWAP3 SWAP2 SWAP1 SWAP2 ADD SWAP1 PUSH1 0x1 ADD PUSH2 0x1413 JUMP JUMPDEST PUSH1 0x0 DUP3 PUSH1 0x1F DUP4 ADD SLT PUSH2 0x1451 JUMPI PUSH1 0x0 DUP1 REVERT JUMPDEST DUP2 MLOAD PUSH2 0x145F PUSH2 0x1399 DUP3 PUSH2 0x1C91 JUMP JUMPDEST SWAP2 POP DUP1 DUP3 MSTORE DUP4 PUSH1 0x20 DUP3 DUP6 ADD ADD GT ISZERO PUSH2 0x1476 JUMPI PUSH1 0x0 DUP1 REVERT JUMPDEST PUSH2 0x1487 DUP2 PUSH1 0x20 DUP5 ADD PUSH1 0x20 DUP7 ADD PUSH2 0x1CD4 JUMP JUMPDEST POP SWAP3 SWAP2 POP POP JUMP JUMPDEST PUSH1 0x0 PUSH2 0x180 DUP1 DUP4 DUP6 SUB SLT ISZERO PUSH2 0x14A1 JUMPI DUP2 DUP3 REVERT JUMPDEST PUSH2 0x14AA DUP2 PUSH2 0x1C49 JUMP JUMPDEST SWAP2 POP POP PUSH2 0x14B7 DUP4 DUP4 PUSH2 0x1357 JUMP JUMPDEST DUP2 MSTORE PUSH2 0x14C6 DUP4 PUSH1 0x20 DUP5 ADD PUSH2 0x1357 JUMP JUMPDEST PUSH1 0x20 DUP3 ADD MSTORE PUSH2 0x14D8 DUP4 PUSH1 0x40 DUP5 ADD PUSH2 0x1357 JUMP JUMPDEST PUSH1 0x40 DUP3 ADD MSTORE PUSH2 0x14EA DUP4 PUSH1 0x60 DUP5 ADD PUSH2 0x1357 JUMP JUMPDEST PUSH1 0x60 DUP3 ADD MSTORE PUSH1 0x80 DUP3 ADD MLOAD PUSH1 0x80 DUP3 ADD MSTORE PUSH1 0xA0 DUP3 ADD MLOAD PUSH1 0xA0 DUP3 ADD MSTORE PUSH1 0xC0 DUP3 ADD MLOAD PUSH1 0xC0 DUP3 ADD MSTORE PUSH1 0xE0 DUP3 ADD MLOAD PUSH1 0xE0 DUP3 ADD MSTORE PUSH2 0x100 DUP1 DUP4 ADD MLOAD DUP2 DUP4 ADD MSTORE POP PUSH2 0x120 DUP1 DUP4 ADD MLOAD DUP2 DUP4 ADD MSTORE POP PUSH2 0x140 DUP1 DUP4 ADD MLOAD PUSH8 0xFFFFFFFFFFFFFFFF DUP1 DUP3 GT ISZERO PUSH2 0x154C JUMPI PUSH1 0x0 DUP1 REVERT JUMPDEST PUSH2 0x1558 DUP7 DUP4 DUP8 ADD PUSH2 0x1440 JUMP JUMPDEST DUP4 DUP6 ADD MSTORE PUSH2 0x160 SWAP3 POP DUP3 DUP6 ADD MLOAD SWAP2 POP DUP1 DUP3 GT ISZERO PUSH2 0x1574 JUMPI PUSH1 0x0 DUP1 REVERT JUMPDEST POP PUSH2 0x1581 DUP6 DUP3 DUP7 ADD PUSH2 0x1440 JUMP JUMPDEST DUP3 DUP5 ADD MSTORE POP POP SWAP3 SWAP2 POP POP JUMP JUMPDEST PUSH1 0x0 PUSH1 0x20 DUP3 DUP5 SUB SLT ISZERO PUSH2 0x159F JUMPI PUSH1 0x0 DUP1 REVERT JUMPDEST DUP2 MLOAD PUSH8 0xFFFFFFFFFFFFFFFF DUP2 GT ISZERO PUSH2 0x15B6 JUMPI PUSH1 0x0 DUP1 REVERT JUMPDEST PUSH2 0x15C2 DUP5 DUP3 DUP6 ADD PUSH2 0x13E5 JUMP JUMPDEST SWAP5 SWAP4 POP POP POP POP JUMP JUMPDEST PUSH1 0x0 DUP1 PUSH1 0x0 PUSH1 0x60 DUP5 DUP7 SUB SLT ISZERO PUSH2 0x15DE JUMPI DUP2 DUP3 REVERT JUMPDEST DUP4 MLOAD PUSH8 0xFFFFFFFFFFFFFFFF DUP1 DUP3 GT ISZERO PUSH2 0x15F5 JUMPI DUP4 DUP5 REVERT JUMPDEST PUSH2 0x1601 DUP8 DUP4 DUP9 ADD PUSH2 0x13E5 JUMP JUMPDEST SWAP5 POP PUSH1 0x20 SWAP2 POP DUP2 DUP7 ADD MLOAD DUP2 DUP2 GT ISZERO PUSH2 0x1617 JUMPI DUP5 DUP6 REVERT JUMPDEST DUP1 DUP8 ADD DUP9 PUSH1 0x1F DUP3 ADD SLT PUSH2 0x1628 JUMPI DUP6 DUP7 REVERT JUMPDEST DUP1 MLOAD SWAP2 POP PUSH2 0x1638 PUSH2 0x1399 DUP4 PUSH2 0x1C70 JUMP JUMPDEST DUP3 DUP2 MSTORE DUP5 DUP2 ADD SWAP1 DUP3 DUP7 ADD DUP7 DUP6 MUL DUP5 ADD DUP8 ADD DUP13 LT ISZERO PUSH2 0x1654 JUMPI DUP9 DUP10 REVERT JUMPDEST DUP9 SWAP4 POP JUMPDEST DUP5 DUP5 LT ISZERO PUSH2 0x1676 JUMPI DUP1 MLOAD DUP4 MSTORE PUSH1 0x1 SWAP4 SWAP1 SWAP4 ADD SWAP3 SWAP2 DUP7 ADD SWAP2 DUP7 ADD PUSH2 0x1658 JUMP JUMPDEST POP PUSH1 0x40 DUP11 ADD MLOAD SWAP1 SWAP8 POP SWAP5 POP POP POP POP DUP1 DUP3 GT ISZERO PUSH2 0x1691 JUMPI PUSH1 0x0 DUP1 REVERT JUMPDEST POP PUSH2 0x169E DUP7 DUP3 DUP8 ADD PUSH2 0x137B JUMP JUMPDEST SWAP2 POP POP SWAP3 POP SWAP3 POP SWAP3 JUMP JUMPDEST PUSH1 0x0 DUP1 PUSH1 0x0 PUSH1 0x60 DUP5 DUP7 SUB SLT ISZERO PUSH2 0x16BD JUMPI PUSH1 0x0 DUP1 REVERT JUMPDEST DUP4 MLOAD PUSH8 0xFFFFFFFFFFFFFFFF DUP1 DUP3 GT ISZERO PUSH2 0x16D5 JUMPI PUSH1 0x0 DUP1 REVERT JUMPDEST PUSH2 0x16E1 DUP8 DUP4 DUP9 ADD PUSH2 0x13E5 JUMP JUMPDEST SWAP5 POP PUSH1 0x20 DUP7 ADD MLOAD SWAP4 POP PUSH1 0x40 DUP7 ADD MLOAD SWAP2 POP DUP1 DUP3 GT ISZERO PUSH2 0x1691 JUMPI PUSH1 0x0 DUP1 REVERT JUMPDEST PUSH1 0x0 PUSH1 0x20 DUP3 DUP5 SUB SLT ISZERO PUSH2 0x170F JUMPI DUP1 DUP2 REVERT JUMPDEST DUP2 CALLDATALOAD PUSH8 0xFFFFFFFFFFFFFFFF DUP2 GT ISZERO PUSH2 0x1725 JUMPI DUP2 DUP3 REVERT JUMPDEST DUP1 DUP4 ADD DUP5 PUSH1 0x1F DUP3 ADD SLT PUSH2 0x1736 JUMPI DUP3 DUP4 REVERT JUMPDEST DUP1 CALLDATALOAD SWAP2 POP PUSH2 0x1746 PUSH2 0x1399 DUP4 PUSH2 0x1C91 JUMP JUMPDEST DUP3 DUP2 MSTORE DUP6 PUSH1 0x20 DUP5 DUP5 ADD ADD GT ISZERO PUSH2 0x175A JUMPI DUP4 DUP5 REVERT JUMPDEST DUP3 PUSH1 0x20 DUP4 ADD PUSH1 0x20 DUP4 ADD CALLDATACOPY SWAP2 DUP3 ADD PUSH1 0x20 ADD SWAP3 SWAP1 SWAP3 MSTORE SWAP4 SWAP3 POP POP POP JUMP JUMPDEST PUSH1 0x0 PUSH1 0x20 DUP3 DUP5 SUB SLT ISZERO PUSH2 0x1787 JUMPI PUSH1 0x0 DUP1 REVERT JUMPDEST DUP2 MLOAD PUSH8 0xFFFFFFFFFFFFFFFF DUP2 GT ISZERO PUSH2 0x179E JUMPI PUSH1 0x0 DUP1 REVERT JUMPDEST PUSH2 0x15C2 DUP5 DUP3 DUP6 ADD PUSH2 0x148E JUMP JUMPDEST PUSH1 0x0 DUP1 PUSH1 0x0 DUP1 PUSH1 0x80 DUP6 DUP8 SUB SLT ISZERO PUSH2 0x17BF JUMPI DUP1 DUP2 REVERT JUMPDEST DUP5 MLOAD PUSH8 0xFFFFFFFFFFFFFFFF DUP1 DUP3 GT ISZERO PUSH2 0x17D6 JUMPI DUP3 DUP4 REVERT JUMPDEST PUSH2 0x17E2 DUP9 DUP4 DUP10 ADD PUSH2 0x148E JUMP JUMPDEST SWAP6 POP PUSH1 0x20 DUP8 ADD MLOAD SWAP2 POP DUP1 DUP3 GT ISZERO PUSH2 0x17F7 JUMPI DUP3 DUP4 REVERT JUMPDEST PUSH2 0x1803 DUP9 DUP4 DUP10 ADD PUSH2 0x148E JUMP JUMPDEST SWAP5 POP PUSH1 0x40 DUP8 ADD MLOAD SWAP2 POP DUP1 DUP3 GT ISZERO PUSH2 0x1818 JUMPI DUP3 DUP4 REVERT JUMPDEST PUSH2 0x1824 DUP9 DUP4 DUP10 ADD PUSH2 0x1440 JUMP JUMPDEST SWAP4 POP PUSH1 0x60 DUP8 ADD MLOAD SWAP2 POP DUP1 DUP3 GT ISZERO PUSH2 0x1839 JUMPI DUP3 DUP4 REVERT JUMPDEST POP PUSH2 0x1846 DUP8 DUP3 DUP9 ADD PUSH2 0x1440 JUMP JUMPDEST SWAP2 POP POP SWAP3 SWAP6 SWAP2 SWAP5 POP SWAP3 POP JUMP JUMPDEST PUSH1 0x0 DUP1 PUSH1 0x0 PUSH1 0x60 DUP5 DUP7 SUB SLT ISZERO PUSH2 0x1867 JUMPI PUSH1 0x0 DUP1 REVERT JUMPDEST DUP4 MLOAD PUSH8 0xFFFFFFFFFFFFFFFF DUP1 DUP3 GT ISZERO PUSH2 0x187F JUMPI PUSH1 0x0 DUP1 REVERT JUMPDEST PUSH2 0x188B DUP8 DUP4 DUP9 ADD PUSH2 0x148E JUMP JUMPDEST SWAP5 POP PUSH1 0x20 DUP7 ADD MLOAD SWAP4 POP PUSH1 0x40 DUP7 ADD MLOAD SWAP2 POP DUP1 DUP3 GT ISZERO PUSH2 0x18A8 JUMPI PUSH1 0x0 DUP1 REVERT JUMPDEST POP PUSH2 0x169E DUP7 DUP3 DUP8 ADD PUSH2 0x1440 JUMP JUMPDEST PUSH20 0xFFFFFFFFFFFFFFFFFFFFFFFFFFFFFFFFFFFFFFFF AND SWAP1 MSTORE JUMP JUMPDEST PUSH1 0x0 DUP2 MLOAD DUP1 DUP5 MSTORE PUSH1 0x20 DUP5 ADD SWAP4 POP DUP4 PUSH1 0x20 DUP3 MUL DUP6 ADD PUSH1 0x20 DUP6 ADD PUSH1 0x0 JUMPDEST DUP5 DUP2 LT ISZERO PUSH2 0x1918 JUMPI DUP4 DUP4 SUB DUP9 MSTORE PUSH2 0x1902 DUP4 DUP4 MLOAD PUSH2 0x1924 JUMP JUMPDEST PUSH1 0x20 SWAP9 DUP10 ADD SWAP9 SWAP1 SWAP4 POP SWAP2 SWAP1 SWAP2 ADD SWAP1 PUSH1 0x1 ADD PUSH2 0x18EA JUMP JUMPDEST POP SWAP1 SWAP7 SWAP6 POP POP POP POP POP POP JUMP JUMPDEST PUSH1 0x0 DUP2 MLOAD DUP1 DUP5 MSTORE PUSH2 0x193C DUP2 PUSH1 0x20 DUP7 ADD PUSH1 0x20 DUP7 ADD PUSH2 0x1CD4 JUMP JUMPDEST PUSH1 0x1F ADD PUSH32 0xFFFFFFFFFFFFFFFFFFFFFFFFFFFFFFFFFFFFFFFFFFFFFFFFFFFFFFFFFFFFFFE0 AND SWAP3 SWAP1 SWAP3 ADD PUSH1 0x20 ADD SWAP3 SWAP2 POP POP JUMP JUMPDEST PUSH1 0x0 PUSH2 0x180 PUSH2 0x197E DUP5 DUP5 MLOAD PUSH2 0x18B5 JUMP JUMPDEST PUSH1 0x20 DUP4 ADD MLOAD PUSH2 0x1990 PUSH1 0x20 DUP7 ADD DUP3 PUSH2 0x18B5 JUMP JUMPDEST POP PUSH1 0x40 DUP4 ADD MLOAD PUSH2 0x19A3 PUSH1 0x40 DUP7 ADD DUP3 PUSH2 0x18B5 JUMP JUMPDEST POP PUSH1 0x60 DUP4 ADD MLOAD PUSH2 0x19B6 PUSH1 0x60 DUP7 ADD DUP3 PUSH2 0x18B5 JUMP JUMPDEST POP PUSH1 0x80 DUP4 ADD MLOAD PUSH1 0x80 DUP6 ADD MSTORE PUSH1 0xA0 DUP4 ADD MLOAD PUSH1 0xA0 DUP6 ADD MSTORE PUSH1 0xC0 DUP4 ADD MLOAD PUSH1 0xC0 DUP6 ADD MSTORE PUSH1 0xE0 DUP4 ADD MLOAD PUSH1 0xE0 DUP6 ADD MSTORE PUSH2 0x100 DUP1 DUP5 ADD MLOAD DUP2 DUP7 ADD MSTORE POP PUSH2 0x120 DUP1 DUP5 ADD MLOAD DUP2 DUP7 ADD MSTORE POP PUSH2 0x140 DUP1 DUP5 ADD MLOAD DUP3 DUP3 DUP8 ADD MSTORE PUSH2 0x1A0F DUP4 DUP8 ADD DUP3 PUSH2 0x1924 JUMP JUMPDEST SWAP2 POP POP PUSH2 0x160 SWAP2 POP DUP2 DUP5 ADD MLOAD DUP6 DUP3 SUB DUP4 DUP8 ADD MSTORE PUSH2 0x1A2C DUP3 DUP3 PUSH2 0x1924 JUMP JUMPDEST SWAP7 SWAP6 POP POP POP POP POP POP JUMP JUMPDEST PUSH1 0x0 PUSH1 0x80 DUP3 MSTORE PUSH2 0x1A49 PUSH1 0x80 DUP4 ADD DUP8 PUSH2 0x1924 JUMP JUMPDEST PUSH1 0x20 DUP4 DUP3 SUB DUP2 DUP6 ADD MSTORE DUP2 DUP8 MLOAD DUP1 DUP5 MSTORE DUP3 DUP5 ADD SWAP2 POP DUP3 DUP4 DUP3 MUL DUP6 ADD ADD DUP4 DUP11 ADD PUSH1 0x0 JUMPDEST DUP4 DUP2 LT ISZERO PUSH2 0x1AB6 JUMPI PUSH32 0xFFFFFFFFFFFFFFFFFFFFFFFFFFFFFFFFFFFFFFFFFFFFFFFFFFFFFFFFFFFFFFE0 DUP8 DUP5 SUB ADD DUP6 MSTORE PUSH2 0x1AA4 DUP4 DUP4 MLOAD PUSH2 0x196E JUMP JUMPDEST SWAP5 DUP7 ADD SWAP5 SWAP3 POP SWAP1 DUP6 ADD SWAP1 PUSH1 0x1 ADD PUSH2 0x1A6A JUMP JUMPDEST POP POP DUP7 DUP2 SUB PUSH1 0x40 DUP9 ADD MSTORE DUP9 MLOAD DUP1 DUP3 MSTORE SWAP1 DUP5 ADD SWAP5 POP SWAP2 POP POP DUP2 DUP8 ADD PUSH1 0x0 JUMPDEST DUP3 DUP2 LT ISZERO PUSH2 0x1AEF JUMPI DUP2 MLOAD DUP6 MSTORE SWAP4 DUP4 ADD SWAP4 SWAP1 DUP4 ADD SWAP1 PUSH1 0x1 ADD PUSH2 0x1AD3 JUMP JUMPDEST POP POP POP POP DUP3 DUP2 SUB PUSH1 0x60 DUP5 ADD MSTORE PUSH2 0x1B05 DUP2 DUP6 PUSH2 0x18CF JUMP JUMPDEST SWAP8 SWAP7 POP POP POP POP POP POP POP JUMP JUMPDEST PUSH1 0x20 DUP1 DUP3 MSTORE PUSH1 0x1A SWAP1 DUP3 ADD MSTORE PUSH32 0x46524F4D5F4C4553535F5448414E5F544F5F5245515549524544000000000000 PUSH1 0x40 DUP3 ADD MSTORE PUSH1 0x60 ADD SWAP1 JUMP JUMPDEST PUSH1 0x20 DUP1 DUP3 MSTORE PUSH1 0x1C SWAP1 DUP3 ADD MSTORE PUSH32 0x544F5F4C4553535F5448414E5F4C454E4754485F524551554952454400000000 PUSH1 0x40 DUP3 ADD MSTORE PUSH1 0x60 ADD SWAP1 JUMP JUMPDEST PUSH1 0x20 DUP1 DUP3 MSTORE PUSH1 0x19 SWAP1 DUP3 ADD MSTORE PUSH32 0x554E4B4E4F574E5F46554E4354494F4E5F53454C4543544F5200000000000000 PUSH1 0x40 DUP3 ADD MSTORE PUSH1 0x60 ADD SWAP1 JUMP JUMPDEST PUSH1 0x20 DUP1 DUP3 MSTORE PUSH1 0xD SWAP1 DUP3 ADD MSTORE PUSH32 0x554E494D504C454D454E54454400000000000000000000000000000000000000 PUSH1 0x40 DUP3 ADD MSTORE PUSH1 0x60 ADD SWAP1 JUMP JUMPDEST PUSH1 0x20 DUP1 DUP3 MSTORE PUSH1 0x25 SWAP1 DUP3 ADD MSTORE PUSH32 0x475245415445525F4F525F455155414C5F544F5F345F4C454E4754485F524551 PUSH1 0x40 DUP3 ADD MSTORE PUSH32 0x5549524544000000000000000000000000000000000000000000000000000000 PUSH1 0x60 DUP3 ADD MSTORE PUSH1 0x80 ADD SWAP1 JUMP JUMPDEST PUSH1 0x40 MLOAD DUP2 DUP2 ADD PUSH8 0xFFFFFFFFFFFFFFFF DUP2 GT DUP3 DUP3 LT OR ISZERO PUSH2 0x1C68 JUMPI PUSH1 0x0 DUP1 REVERT JUMPDEST PUSH1 0x40 MSTORE SWAP2 SWAP1 POP JUMP JUMPDEST PUSH1 0x0 PUSH8 0xFFFFFFFFFFFFFFFF DUP3 GT ISZERO PUSH2 0x1C87 JUMPI PUSH1 0x0 DUP1 REVERT JUMPDEST POP PUSH1 0x20 SWAP1 DUP2 MUL ADD SWAP1 JUMP JUMPDEST PUSH1 0x0 PUSH8 0xFFFFFFFFFFFFFFFF DUP3 GT ISZERO PUSH2 0x1CA8 JUMPI PUSH1 0x0 DUP1 REVERT JUMPDEST POP PUSH1 0x1F ADD PUSH32 0xFFFFFFFFFFFFFFFFFFFFFFFFFFFFFFFFFFFFFFFFFFFFFFFFFFFFFFFFFFFFFFE0 AND PUSH1 0x20 ADD SWAP1 JUMP JUMPDEST PUSH1 0x0 JUMPDEST DUP4 DUP2 LT ISZERO PUSH2 0x1CEF JUMPI DUP2 DUP2 ADD MLOAD DUP4 DUP3 ADD MSTORE PUSH1 0x20 ADD PUSH2 0x1CD7 JUMP JUMPDEST DUP4 DUP2 GT ISZERO PUSH2 0x1CFE JUMPI PUSH1 0x0 DUP5 DUP5 ADD MSTORE JUMPDEST POP POP POP POP JUMP INVALID LOG2 PUSH6 0x627A7A723058 KECCAK256 CALLDATACOPY 0xe2 MULMOD EXP 0xcb DUP10 0x49 STATICCALL ADD GAS PUSH17 0x19232548B81EBDB6C0FE05714B38A73ED4 LOG4 DELEGATECALL 0x46 0x29 PUSH13 0x6578706572696D656E74616CF5 STOP CALLDATACOPY "
			}
		}
	},
	"sourceTreeHashHex": "0x60c791d420064233a9d14e33793c2ad568aaff2102405f2a2abf6eacb7e9ff5e",
	"compiler": {
		"name": "solc",
		"version": "soljson-v0.5.8+commit.23d335f2.js",
		"settings": {
			"optimizer": {
				"enabled": true,
				"runs": 1000000,
				"details": {
					"yul": true,
					"deduplicate": true,
					"cse": true,
					"constantOptimizer": true
				}
			},
			"outputSelection": {
				"*": {
					"*": [
						"abi",
						"evm.bytecode.object",
						"evm.bytecode.sourceMap",
						"evm.deployedBytecode.object",
						"evm.deployedBytecode.sourceMap"
					]
				}
			},
			"evmVersion": "constantinople",
			"remappings": [
				"@0x/contracts-utils=/Users/fabioberger/Documents/projects/0x_project/0x-monorepo-one/contracts/exchange-libs/node_modules/@0x/contracts-utils",
				"@0x/contracts-exchange-libs=/Users/fabioberger/Documents/projects/0x_project/0x-monorepo-one/node_modules/@0x/contracts-exchange-libs"
			]
		}
	}
}